:020000040800F2
:1000000070070020CD010008C92800083923000826
:10001000C5280008090B0008DD28000800000000C2
:10002000000000000000000000000000D1280008CF
:10003000190B000800000000CD280008D528000892
:10004000E7010008E7010008E7010008E7010008F0
:10005000E7010008E7010008E7010008E7010008E0
:10006000E7010008E7010008E7010008E7010008D0
:10007000E7010008E7010008E70100080D0B000890
:10008000E7010008E7010008E7010008E7010008B0
:10009000E7010008E7010008E7010008E7010008A0
:1000A000E7010008E7010008E7010008E701000890
:1000B000E7010008E7010008E7010008E701000880
:1000C000E7010008E7010008E7010008E701000870
:1000D000E7010008E7010008E7010008E701000860
:1000E000E7010008E7010008E701000800F002F856
:1000F00000F05DF814A696E8000CB244B344DA456B
:1001000001D100F054F8BAE80F000FA696E83000CD
:10011000A5EB040504EB0607AAEB0704A7F101070A
:100120004FEA15154FEA3414A4F10104AC4201D38F
:1001300000F03DF813F0010F18BFFB1A43F0010364
:1001400000F001F8DBE718471C3800003C380000DD
:10015000103A24BF78C878C1FAD8520724BF30C8F3
:1001600030C144BF04680C60704700007047000055
:100170000023002400250026103A28BF78C1FBD8B0
:10018000520728BF30C148BF0B607047662903F093
:100190008383002070471FB500F022FB040000207D
:1001A000002103F049F8E0601FBD10B510BD00F05C
:1001B00017FC1146FFF7EFFF02F092FB00F035FC51
:1001C00003B4FFF7F2FF03BC00F078FC0948804756
:1001D00009480047FEE7FEE7FEE7FEE7FEE7FEE729
:1001E000FEE7FEE7FEE7FEE704480549054A064B41
:1001F00070470000D9280008ED00000870010020B9
:100200007007002070030020700300200FB41CB59D
:10021000074B06AA7B4469460090059800F0C7FA90
:100220000020694600F0D6FA1CBC5DF814FB000003
:10023000BD0500002DE9F0474FF0000A894604464D
:10024000C0F820A02046E1688847002876D02528FD
:1002500006D0D4E901219047206A401C2062F1E7D2
:10026000E168204600258847C4F81CA00646002700
:10027000C4F818A02A2E09D0304602F0D5FF38B3B2
:1002800004EB8708303EC8F8186019E059F8041BE1
:10029000204604EB87029161E1688847012F0646FA
:1002A00018D1E069002820DA25F020051DE0D8F8F3
:1002B000180000EB800006EB40003038C8F818004A
:1002C0002046E1688847064602F0AEFF0028EED1DE
:1002D000012F0AD02E2E08D12046E16888477F1CC6
:1002E0000646022F45F02005C4DBA069002803DA8A
:1002F000404245F00105A061E80701D025F0100556
:10030000B6B1A6F14100192802D8203645F400659F
:100310004A463146204625604D46FFF737FF58B123
:10032000012806D0ED1D25F0070000F1080989E736
:1003300004E005F1040985E730468AE7206ABDE854
:10034000F08710B5431C02E010F8011B71B1810762
:10035000FAD14FF0013202C88C1A8C4314EAC21150
:10036000F9D0C01A0A0603D0C01E10BDC01A10BDB5
:100370000A0401D0801E10BD0902FCD0401E10BD31
:100380007047704770472DE9FF4F0C461E464FF0EF
:10039000FF378BB0D2E90001DDF860800A908A4611
:1003A000C1F30A5505B93D46002108464FF000004B
:1003B000BAF1000F00F4400005DA00EB80004FF4C2
:1003C000400101EA50004FEA9059B9F1010F00DDF8
:1003D000B9460A9850EA4A000ED044F61050A5F2E9
:1003E000FF3545432F14B8F1000F1ED07542291E6A
:1003F0001EDDC9F100021CE0B8F1010F4FF0000052
:1004000001D0302103E0F24305E02154401CB0420A
:10041000FBDB30460022002121540B99C1F80880F3
:10042000C1E900200FB0BDE8F08FBD1B6D1CDEE7F9
:100430004A4600DA694206A800F05CFA06AB93E887
:10044000070003AB83E8070050460A9902F010FB4F
:100450008DE80700A0F500501F3800900398002D8C
:100460000ADD42F21F014A460844002303A9039013
:10047000684602F079FD09E0A0F500504A461F38B1
:10048000002303A90390684602F083FD8DE807006E
:100490000004000C03D04FF0FF30410800E010468C
:1004A000B8F1000F03D00022009215461EE0751E21
:1004B00005D400F099F9303262556D1EF9D5B34676
:1004C0000122084302D000227F1C04E0207830285B
:1004D00001D100227F1E002A099784D01DE0112D32
:1004E00007DA00F081F9303262556D1C50EA0102E2
:1004F000F5D1084302D00098C8B10EE00021681E73
:1005000005E0235C625C63542254401E491C814216
:10051000F7DBAB46A81B401E0990002004F80B0037
:100520000B98099AC0F80880C0E9002B7AE71126D9
:100530004FF0000857E72DE9F04F88460446D21DDA
:1005400022F0070191B0D1E90001CDE90A0102F0E2
:1005500057FE02460B98C00F01D02D2007E02068FF
:10056000810701D52B2002E0202101EAC000032AE7
:10057000099001D0072A05DB03464146204600F0DA
:1005800079F90BE12078800601D5E06900E00620CA
:10059000B8F1650F814606D0B8F1660F18D0B8F1F2
:1005A000670F70D131E00020B9F1110F009001DB2D
:1005B000112301E009F101030AAA01A90CA8FFF720
:1005C000E2FEDDE90C70002609F10105834647E0F3
:1005D00001204B4600904FF000470AAA01A90CA841
:1005E000FFF7D1FEDDE90DB00C995D46002610B98C
:1005F00009F101000D18B9EB050003D4C0F1FF3675
:1006000009F10105A5EB09002BE0B9F1010F01DAB1
:100610004FF001090020B9F1110F0090484601DDAB
:10062000112300E003460AAA01A90CA8FFF7ABFEBC
:10063000DDE90C704D4600268346207800070AD479
:10064000AB4500DA5D4601A8012D04DD411911F822
:10065000011C302907D04F4502DA17F1040F04DAE4
:10066000012082460FE06D1EEEE7002F02DCED1B3D
:100670003E4403E0781CA84200DD7D1CB81B00F15D
:10068000010A4FF000472078000703D4AA4501DB98
:100690004FF0FF3A0021B7F1004F0DF143088DF8FC
:1006A000431024D002202B23002F01DA7F422D2378
:1006B0000A21021EA0F1010000DC5FB197FBF1FCF2
:1006C00097FBF1F201FB1C7C17460CF1300C08F88B
:1006D00001CDEEE7A8F1010003702188090501D5DD
:1006E000452100E06521A0F1010800F8011C0998EE
:1006F0000FA9A1EB0807FF1D00B10120411901EB73
:10070000EA70A1693844081A401EA0612078C0062A
:1007100002D42046AFF30080099828B1D4E9012122
:100720009047206A401C20622078C00622D52046CF
:10073000AFF300801EE0002E04DBB34502DD01A80C
:10074000805D00E03020D4E901219047206A401C00
:100750002062761CAAF101005FEA000A0AD100F0CB
:100760003FF8C0680168405CD4E901219047206AE5
:10077000401C2062281EA5F10105DCDC07E0D4E95D
:10078000012118F8010B9047206A401C2062381E96
:10079000A7F10107F3DC2046AFF30080032011B07E
:1007A00041E6000001694A1C02610878704700B503
:1007B0008FB0CDE901310021059105497944CDE99A
:1007C000031011466846FFF735FD0FB000BD00006D
:1007D000E5FFFFFF0A6802F8010B0A60704700009E
:1007E000004870473000002030B5B0F10A0271F1C6
:1007F00000034FEA900E4EEA817EB0EB0E0061EBF3
:1008000091014FEA101E4EEA017E10EB0E0041EB03
:1008100011114FEA102E4EEA016E10EB0E0041EB63
:1008200011214FEA104E4EEA014E10EB0E0041EB43
:100830001141401841F100014FEAD00040EA4170F7
:100840004FEAD1014FEA810444EA907410EB80052D
:1008500044EB01046D1944EB0404521BA3414FF017
:10086000000348BF0A3200D530BD401C41F10001F1
:1008700030BD00002DE9F0411F4604460326016803
:10088000072A01F4006004DB08B116A505E016A5EF
:1008900003E008B115A500E015A521F010002060C7
:1008A000A069C01EA0610FB1401EA0612046AFF339
:1008B00000804FB1D4E9012138469047206A401C9E
:1008C0002062C01C206206E0206AFAE7D4E9012118
:1008D00015F8010B9047761EF8D22046AFF3008042
:1008E000BDE8F0814E414E006E616E00494E4600FB
:1008F000696E66002DE9F047814616468AB0354894
:1009000078440DC88DE80D0032487844801C03AC53
:100910000DC884E80D0041F69B300844372190FB58
:10092000F1F290FBF1F5A5F1800501FB12041B3CEF
:1009300002D56442012000E00020DFF898A0804644
:100940000027FA44AAF1BE0A0EE0E0070AD03246B8
:10095000684607EB470101230AEB810102F019FB0E
:100960008DE8070064107F1C002CEED1194F7F44E6
:10097000AE3F19E0E80715D007EB04100DF1180A97
:1009800090E80E008AE80E00C068F04201D1981984
:1009900008903246012306A903A802F0FAFA03AB35
:1009A00083E807006D10641C002DE3D14FF00103B4
:1009B00032466946B8F1000F03A802D002F0D4FA1B
:1009C00001E002F0E6FAC9E90001C9F808200AB01E
:1009D000BDE8F08714300000004870471000002088
:1009E0007546FFF7F9FFAE4605006946534620F00D
:1009F0000700854618B020B5FFF7F6FBBDE820409C
:100A00004FF000064FF000074FF000084FF0000BCA
:100A1000AC46ACE8C009ACE8C009ACE8C009ACE839
:100A2000C00921F007018D46704710B50446AFF3A9
:100A300000802046BDE81040FFF7C2BB4FF0013CEC
:100A400050F8042B51F8043B9A4221D1A2EB0C033D
:100A5000934313EACC1317D150F8042B51F8043BFD
:100A60009A4215D1A2EB0C03934313EACC130BD19A
:100A700050F8042B51F8043B9A4209D1A2EB0C0325
:100A8000934313EACC13DBD04FF00000704700BF54
:100A9000D01A01BAB1FA81F101F0180122FA01F07D
:100AA000CB40DBB2C0B2C01AC1F120012CFA01F375
:100AB000D11A914311EAC311E6D1704701491820B8
:100AC000ABBEFEE7260002007047000080B50B4673
:100AD000C1605100082242600022018002724281FE
:100AE00018460A220A2300F05DFB002808BF80BDDB
:100AF00040F60000C4F2010020210122BDE8804040
:100B000000F090BA41817047FEE7000040F2D0004B
:100B1000C2F2000000F008B870470000EFF3108048
:100B200072B600BFFEE7000010B5D0E90FCE016835
:100B3000DCF800300A6823FA0EF35C072AD512F0BD
:100B4000040427D00A68920603D40A6822F004023B
:100B50000A602F22C4F20202914240F20402C4F25F
:100B600002025BDD3023C4F20203994272D04423B7
:100B7000C4F20203994273D05823C4F2020399428B
:100B800040F07A804FF480231360C16A002940F05E
:100B900098806FE09C0727D512F0020424D00A68E1
:100BA000920606D40A6822F00A020A60012280F83E
:100BB00021202F22C4F20202914240F20402C4F228
:100BC00002023BDD3023C4F20203994260D0442389
:100BD000C4F2020399425FD05823C4F2020399423F
:100BE00060D14FF4003365E01B0743D512F00802D3
:100BF00008BF10BD0A6822F00E020A60012101FA46
:100C00000EF2CCF80420816380F82110016B0022E1
:100C1000002980F8202054D12CE000BF0823C4F222
:100C20000203994222D01C23C4F20203994223D129
:100C300040231360C16A002943D11BE00823C4F29A
:100C4000020399422CD01C23C4F20203994229D1F9
:100C500020232FE04FF480631360C16A89BB09E051
:100C60004FF480431360C16A59BB03E0042313604F
:100C7000C16A31BB10BD00BF02F168044FF0806350
:100C8000A14208BF4FF480031360C16AC9B9F1E7FC
:100C90004FF400730EE000BF4FF400530AE000BFB2
:100CA000022307E002F168044FF00073A14208BF7D
:100CB0004FF400131360816A0022002980F820207D
:100CC000D8D0BDE810400847014600284FF0010089
:100CD00008BF70472DE9F043D1F800C04FF6F87314
:100CE000CBF6FD734CF6CD426344CCF6CC42A3FB6D
:100CF00002236FF0030202EA93020023C4F202030C
:100D000001F10C08C1E90F320222D1E9019E98E8F5
:100D1000F00181F82120DCF8002043F6F0739A43BB
:100D200042EA090242EA0E0222432A4332433A438C
:100D300042EA0802CCF8002000228A6381F82100F0
:100D400081F820200020BDE8F043704790F820C0D3
:100D5000BCF1010F04BF02207047F0B54FF0010E47
:100D600080F820E090F821C0BCF1010F26D14FF0AF
:100D7000020C80F821C04FF0000CC0F838C0D0E958
:100D800000C4C56AC66BDCF80070102C27F00107A0
:100D9000CCF80070006C0EFA00F070600846CCF8D9
:100DA000043004BF10460A46CCF80800CCF80C20EA
:100DB000DCF8000045B140F00E000DE0002180F8A5
:100DC00020100220F0BD00BF20F00400CCF800008D
:100DD000DCF8000040F00A00CCF80000DCF800006D
:100DE00040F00100CCF800000020F0BDB0B5044692
:100DF00000F01EF9054640F20000C2F20000007843
:100E0000611C18BF044400BF00F012F9401BA0424F
:100E1000FAD3B0BD2DE9F04F82B00E68002E00F07D
:100E2000FD8041F20042C4F20102042340F2004E70
:100E3000904208BF03234FF6FF7CC4F2010E0093DB
:100E400000240123C1F2100C4FF0000A4FF00009FA
:100E50004BE000BF41F20002C4F20102009F904249
:100E600008BF022704F00C030F229A402BEA02026B
:100E700007FA03F34FEA9A051A4346F825204E680D
:100E800040F20C45F202DEF8082054BF22EA0802C4
:100E900042EA0802C4F20105CEF808202A68B3022B
:100EA00054BF22EA080242EA08022A60B303DEF8CD
:100EB000042054BF22EA080242EA0802F303CEF8F3
:100EC0000420DEF800204FF0010354BF22EA08029C
:100ED00042EA0802CEF800200E680AF1010A36FA4A
:100EE0000AF204F1040400F0998003FA0AFB16EAFE
:100EF0000B08F1D04E68664512DC122E56D8DFE89A
:100F000006F0350B4D4955555555555555555555C3
:100F100055555545510000BFD1F80C9046E000BF33
:100F20004FF6FF72C1F2210296420FDC0022C1F29D
:100F3000110296421AD00022C1F21202964215D036
:100F40000022C1F22102964210D02FE00022C1F20D
:100F5000220296420AD00022C1F23102964205D006
:100F60000022C1F23202964220D100BF8A684AB103
:100F7000012A14BFC0F814B0C0F810B04FF008092F
:100F800014E000BF4FF0040910E000BFCA6802F18E
:100F900004090BE04FF0000908E000BFCA6802F145
:100FA000080903E0CA6802F10C0900BF02462646A0
:100FB000B8F5807F24BF0432203E17680F25B54066
:100FC00027EA050509FA06F635431560CA79D206FF
:100FD0007FF582AF41F21803C4F202031A68AEF53E
:100FE0007E7642F001021A601A6802F00102019254
:100FF000019A2AF0030256F802B040F60002C4F249
:101000000102904208D040F60042C4F20102904230
:101010007FF420AF012725E7002723E702B0BDE8D2
:10102000F08F0000002A08BF09040161704700002A
:1010300040F26810C2F2000000687047704700007C
:10104000002804BF01207047F0B581B0044690F835
:101050003D0028B9002084F83C00204600F0C8FB81
:10106000242084F83D002068016821F0010101601E
:10107000016841F400410160016821F40041016010
:1010800000F0A0FD636848F2A16CC0F2010C40F6CC
:101090000011C0F23D0163453CBF48F28041C0F2FF
:1010A0001E01884202D2012001B0F0BD4DF68361DD
:1010B000C4F21B31A0FB01122168970CD1F804E0A7
:1010C0004FF496762EF03F0545EA92454D60774302
:1010D00048F638160D6AC0F24106A7FB067625F0E1
:1010E0003F07634538BF960C721C3A430A62CA69CF
:1010F00048F2A0664CF6FF77C0F20106B34222EA3E
:1011000007020BD801385B00B0FBF3F001306FF33E
:101110001F30042898BF04201BE000BFA7680138D7
:1011200057B119277B43B0FBF3F001306FF31F3049
:1011300070B100F5804007E003EB4303B0FBF3F030
:1011400001306FF31F3018B100F5004001E000BF1F
:1011500001201043C8610868D4E9072320F0C000CB
:10116000104318430860886848F2FF3204F10C0706
:1011700090438CCF18431043A6698860C86820F05C
:10118000FF0038433043C860086840F00100086041
:1011900000202021206484F83D10206384F83E0064
:1011A00001B0F0BD2DE9F04F83B01E46924688464F
:1011B0000446FFF73DFF94F83D10202924D1216813
:1011C000054600BF886980071AD5FFF731FF401B2D
:1011D00021681A28F6D388698007F3D500202021DA
:1011E000206384F83D1084F83E00216C41F020011A
:1011F000216484F83C00022003B0BDE8F08F00BFFA
:1012000094F83C00012803D1022003B0BDE8F08F20
:101210004FF0010984F83C900868C00703D10868C2
:1012200040F0010008600868002720F400600860B2
:10123000242084F83D000020CFF6FF702764E06290
:1012400008F0FE08BAF1010F88BFD1464FF0A00A9E
:101250004FF0200B04E000BF01374F4500F0A280A3
:101260000868002240F48070086020464FF00111A9
:101270003346009501F076F92168002856D1C1F86F
:101280001080FFF7D5FE21684B694A6994F83D50FC
:10129000A02D054605D013F0020008BF12F48060AF
:1012A0001AD084F83DB048690A68800742F4007299
:1012B0000A6045D46FF48060486100BF8869800788
:1012C000CAD5FFF7B5FE401B21681A28F6D38869F6
:1012D0008007F3D54AE000BFB6B100BFFFF7A8FE14
:1012E000401BB04288BF84F83DA021684A69486924
:1012F00094F83D30A02BD4D012F0020208BF10F4B5
:101300008060EBD0CDE700BFFFF792FE84F83DA0F0
:1013100021684A69486994F83D30A02BC1D012F089
:101320000202BED110F48060EED0BAE70868C005B2
:1013300044BF4FF400702064032003B0BDE8F08F79
:10134000002002904869029088690290029888699A
:1013500001E000BF806980071AD5FFF769FE411BD5
:1013600020681A29F6D381698907F3D50020202146
:10137000206384F83D1084F83E00216C41F0200188
:10138000216484F83C00012003B0BDE8F08F00BF69
:10139000202084F83D00002084F83C0003B0BDE824
:1013A000F08F00BF202084F83D00002084F83C002E
:1013B000012003B0BDE8F08F006845F60001C4F2DB
:1013C0000001884218BF7047B0B584B040F2700584
:1013D000C2F200052888C0BA02F0D2F84AF6FC1220
:1013E00046F24D23CDF2F122C4F2100302F0E0F8F0
:1013F0004FF6C073C4F2DF03002201F065FF01F075
:1014000031FF686002F0D2F90B4643F65A116C4680
:101410000246C0F600012046FEF7F8FE2046FEF721
:1014200090FF05F1180182B2084621464FF0FF33C4
:1014300000F0B8FE04B0BDE8B0407047B0B582B06F
:101440000024019490F83D40202C40F0A08040F210
:101450000804C2F2000424684FEAD40C4BF2895409
:10146000C1F2F844ACFB044C4FEA1C2C19240CFBD1
:1014700004F40194019C013C0194019C002C7BD05C
:10148000D0F800E0DEF81840A40723D5019C013C09
:101490000194019C002C6FD0D0F800E0DEF81840D9
:1014A000A40717D5019C013C0194019C002C63D03A
:1014B000D0F800E0DEF81840A4070BD5019C013CF1
:1014C0000194019C002C57D0D0F800E0DEF81840C1
:1014D000A407CFD490F83C40012C58D0012480F8C8
:1014E0003C40DEF80040E40705D1DEF8004044F05F
:1014F0000104CEF80040DEF8004024F40064CEF889
:101500000040222480F83D40102480F83E40002412
:10151000046442624385438D0024CFF6FF74038543
:10152000C4624164B3B3D0F838C0BCF1000F49D0F5
:10153000044642F2793042F23D31C0F60000C0F676
:1015400000010025CCE90A05CCE90C150EF11001CB
:101550006046FFF7FBFB002844D0202084F83D00C4
:10156000002084F83E00216C41F01001216484F8D1
:101570003C00012002B0B0BD00212022016380F8B0
:101580003D2080F83E10016C41F0200101640220F2
:1015900002B0B0BD002180F83C10DEF8041000203D
:1015A00041F4E061CEF80410DEF8001041F48061EF
:1015B000CEF80010DEF8001041F48071CEF8001073
:1015C00002B0B0BD202180F83D10002180F83E100F
:1015D000026C42F08002026480F83C10012002B0EC
:1015E000B0BD00BF2168086840F4806008600868EA
:1015F00040F480700860002084F83C004A6842F49F
:1016000040724A604A6842F400624A6002B0B0BD6B
:101610002DE9F04383B01E46174689460446FFF77E
:1016200007FD94F83D10202924D10546206800BF0D
:10163000816989071AD5FFF7FBFC411B20681A292D
:10164000F6D381698907F3D500202021206384F82F
:101650003D1084F83E00216C41F02001216484F8A3
:101660003C00022003B0BDE8F08300BF94F83C10BA
:10167000012903D1022003B0BDE8F083012184F8E1
:101680003C100168C90703D1016841F00101016004
:10169000016840F2020821F400610160212184F810
:1016A0003D10102184F83E10002121646762668598
:1016B000618DC0F201082185A8F10211E162E16AA1
:1016C0000A9E11F5803F18BF01291DD1016841F420
:1016D0008071016020464FF00111002233460095D1
:1016E00000F040FF50B120680068C00544BF4FF4CF
:1016F00000702064012003B0BDE8F0832069B0F5DC
:10170000804F07D1FE2015E00829DFD0216B122978
:10171000DCD0DFE7062000EAD9102168F03008614C
:1017200008F10601204632462B4601F001F8002858
:10173000E0D1FF20216800EA090008612046414607
:1017400032462B4600F0F4FF0028D3D1002002904F
:1017500020684169029180690290029806E000BF0A
:10176000204631462A4600F09FFE18BB208D68B304
:10177000204631462A4601F047F8D8B9606A216808
:10178000024612F8013B0B616262628D013A62858A
:10179000228D531E23854F697F07E1D51B04DFD0BF
:1017A000437802300B616062608D01386085901E65
:1017B0002085D5E7206C04289CD12068016841F47D
:1017C00000710160012003B0BDE8F083206801686A
:1017D00041F400710160202084F83D00002084F86D
:1017E0003E0084F83C0003B0BDE8F0837047000081
:1017F00070B586B0044645F600002168C4F20000CA
:1018000000268142CDE904660396029602D006B016
:1018100070BD00BF41F21805C4F20205296800F549
:10182000344041F008012960296801F00801019164
:1018300001994FF440610291122103910321059116
:1018400002A9FFF7E7FA41F21C00C4F202000168A6
:1018500041F4800101600068802100F48000019063
:101860000198A5F57C6040F2D005C2F20005C5E9FB
:1018700000062846C5E90261C5E90466C5E90666B1
:10188000FFF722FA002818BFFFF748F9A5636C623A
:1018900006B070BD704700007047000040F20000C5
:1018A00040F26811C2F20000C2F2000100780A683A
:1018B000104408607047000080B542F20000C4F296
:1018C0000200016841F010010160032000F08CF873
:1018D0000F2000F005F800F027F8002080BD000080
:1018E00070B540F20006C2F2000640F208013278FC
:1018F000C2F200014FF47A730968B3FBF2F20446B6
:10190000B1FBF2F1084600F085FB0F2C4FF001050A
:1019100008D838B94FF0FF3021460022002500F0EA
:1019200037F87460284670BD82B041F21800C4F2E6
:1019300002000168022241F001010160016801F02A
:10194000010101910199416841F080514160406875
:1019500000F08050009000980420C4F2010001685B
:1019600062F31A61016002B070470000002848BFAE
:10197000704700F01F01012202FA01F11C2202EA65
:10198000D0004EF20012CEF20002815070470000EB
:1019900010B54EF60C5CCEF2000CDCF80030C3F350
:1019A000022E8EF00704042C28BF0424BEF103038A
:1019B0004FF0FF3E0EFA04F438BF0023A1439940D4
:1019C0000EFA03F39A43114300F00F0200F1604353
:1019D0000901043A03F564436244002848BF02F158
:1019E0000C03197010BD00004EF60C51CEF2000130
:1019F0000A684FF6FF031A4060F30A2242F0806043
:101A000040F0FD7008607047002804BF0120704757
:101A10002DE9F04381B042F20008C4F20208044606
:101A2000D8F800000D4600F0070088420CD2D8F824
:101A3000000020F007002843C8F80000D8F8000094
:101A400000F00700A8426CD1206841F20409810728
:101A5000C4F2020917D5410705D5D9F8001041F4A1
:101A6000E061C9F80010010705D5D9F8001041F46C
:101A70006051C9F80010D9F80010A26821F0F001F7
:101A80001143C9F80010C00742D1D8F8000000F097
:101A90000700A8420CD9D8F8000020F0070028431E
:101AA000C8F80000D8F8000000F00700A84238D1BC
:101AB0002068410707D5D9F80010E26821F4E061F9
:101AC0001143C9F80010000708D5D9F800002169B2
:101AD00020F4605040EAC100C9F80000D9F80020A5
:101AE00002F00C00082841F20020C0F27A004DD12B
:101AF00043F64A13C2F38341C0F60003595CD20394
:101B000038D440F60010C0F23D0048433EE000BF2C
:101B1000606859F8041C022808D0012826D18903DE
:101B200006D4012001B0BDE8F08300BF8901F8D5DB
:101B3000D9F8001021F003010843C9F80000FFF7AD
:101B400077FA064641F28837D9F80000616800F05C
:101B50000C00B0EB810F98D0FFF76AFA801BB842F7
:101B6000F2D9032001B0BDE8F08300BF8907D8D5C2
:101B7000DEE700BFD9F8002043F64813C2F3404225
:101B8000C0F600039A5C4843B0FBF2F0D9F80010AD
:101B900043F63012C1F30311C0F60002515C40F26B
:101BA000080220FA01F140F20400C2F200000068CD
:101BB000C2F200021160FFF793FE002001B0BDE801
:101BC000F083000040F2080041F20401C2F200007C
:101BD000C4F202010068096843F64012C1F3022111
:101BE000C0F60002515CC8407047000040F2080097
:101BF00041F20401C2F20000C4F202010068096867
:101C000043F64012C1F3C221C0F60002515CC84045
:101C100070470000002804BF012070472DE9F04103
:101C200082B00446007841F20006C007C4F2020602
:101C30000CD0706800F00C00042840F081803068FF
:101C4000800303D56068002800F046812078800773
:101C50001BD5706810F00C0F09D0706800F00C00F4
:101C6000082840F087807068C00300F183803068E6
:101C7000800703D52069012840F02E813068616912
:101C800020F0F80040EAC10030602078000713D44B
:101C9000207840072CD4E569002D00F01881706889
:101CA00000F00C00082840F0A780012D40F00481CE
:101CB000012002B0BDE8F081A069002800F0848016
:101CC0000020C4F242200121C0F88014FFF7B0F9CF
:101CD000054600BF706A800700F1B280FFF7A8F9DF
:101CE000401B0228F6D9032002B0BDE8F08100BFF6
:101CF000F0695FEAC00808D4F06940F08050F061F4
:101D0000F06900F080500090009847F20007C4F29C
:101D100000073868C00549D4386840F480703860DE
:101D2000FFF786F9054600BF3868C0053ED4FFF7C7
:101D30007FF9401B6428F7D9032002B0BDE8F08189
:101D4000706800F00C00082803D17068C0033FF5EC
:101D500076AF61683068002900F00C81B1F5A02FE2
:101D600000F00081B1F5803F40F01A8140F48030EE
:101D70001CE100BF2069002840F20000C4F24220AC
:101D800000F0888001210160FFF752F9054600BF8D
:101D9000306880073FF572AFFFF74AF9401B022811
:101DA000F6D9032002B0BDE8F08100BFE168306AD7
:101DB000002900F09D80052900F09280012940F063
:101DC000AF8040F00100B1E00020C4F242200021C9
:101DD000C0F88014FFF72CF9054600BF706A800731
:101DE0007FF556AFFFF724F9401B0228F6D90320F0
:101DF00002B0BDE8F08100BF0027C4F242270020F6
:101E00003866FFF715F9022D05460DD130688001BF
:101E100040F1DE80FFF70CF9401B02284FF0030071
:101E2000F4D902B0BDE8F081306880014FD5FFF7EA
:101E3000FFF8401B02284FF00300F5D9F1E700BF7F
:101E400040F20800C2F20000006844F6D351C1F22B
:101E50006201A0FB0101480A019000BF00BF019888
:101E6000411E002801913FF413AF00BF0198411EAD
:101E7000002801913FF40CAF00BF0198411E0028DB
:101E800001913FF405AF00BF0198411E0028019168
:101E9000E4D1FDE600210160FFF7CAF8054600BF66
:101EA000306880077FF5F1AEFFF7C2F8401B0228CB
:101EB0004FF00300F4D9B4E77068216A00F480326F
:101EC0008A4209D1616A00F47010884204D100206E
:101ED00002B0BDE8F08100BF012002B0BDE8F08192
:101EE00040F004003062306A40F001001EE000BFA4
:101EF00020F001003062306A20F004003062FFF709
:101F000097F8054641F28837306A800720D5FFF7F9
:101F10008FF8401BB8424FF00300F5D981E700BFAE
:101F200020F001003062306A20F004003062FFF7D8
:101F30007FF8054641F28837306A800708D4FFF7FA
:101F400077F8401BB842F7D9032002B0BDE8F08112
:101F5000B8F1000F3FF59FAEF06920F08050F061BE
:101F600099E600BF40F480203060306840F4803053
:101F70001CE000BF20F480303060306820F4802006
:101F80003060FFF755F80546306880037FF55EAE98
:101F9000FFF74EF8401B64284FF00300F4D940E7E8
:101FA00020F480303060306820F480203060FFF70B
:101FB0003FF80546306880033FF548AEFFF738F834
:101FC000401B6428F6D9032002B0BDE8F08100BFB1
:101FD000206AB0F5803F05D17168A26821F4003114
:101FE000114371607168626A21F4741111430843EE
:101FF000706001203866FFF71BF8044630688001E6
:102000003FF565AFFFF714F8001B02284FF00300FF
:10201000F4D906E7411E0020B0EB116F1CBF012070
:1020200070474EF21002CEF2000251604EF623517C
:10203000CEF20001F0230B70072190601160704711
:10204000002804BF0120704710B5044690F84100F5
:1020500028B9002084F84000204600F063F82420CE
:1020600084F841002068D4E90212C36823F40053C5
:10207000C360036923F440531A430261D4E9042383
:102080001143C268194341F20C639A431143C16082
:102090004169A26921F44071114343F60002C4F280
:1020A00001029042416103D0FFF78CFD02E000BFC6
:1020B000FFF79CFDD4E90023192148439900B0FBA8
:1020C000F1F048F21F5CC5F2EB1CA0FB0C314FF69F
:1020D0009C734909C0F6FF7301FB0300322303EB35
:1020E0000010A0FB0C03F02000EA531000EB0110DD
:1020F000C3F34311084490601069202120F49040FC
:102100001061506920F02A005061D06840F40050FE
:10211000D0600020606484F8411084F8421060634D
:1021200010BD000070B586B040F60004C4F2010492
:10213000006804F54051002688420596CDE9036603
:10214000029601D006B070BD41F21800C4F2020040
:10215000016802AD41F480410160016801F48041F1
:1021600001910199016841F004010160006829466C
:1021700000F00400019001984FF4007002900220DA
:102180000390032005902046FEF744FE4FF4806044
:10219000CDE90206204629460496FEF73BFE06B02E
:1021A00070BD00002DE9F04381B0044690F8410075
:1021B000202809D100294FF0010018BF002A07D1BB
:1021C00001B0BDE8F08300BF022001B0BDE8F0839C
:1021D0000020606421201D460E4684F84100174609
:1021E000FEF726FFA784E784A1688146B1F5805FEA
:1021F00002D1206900285DD037460020E28C21689A
:10220000002A5DD06A1C24D0002D4AD0804600BF31
:102210000868000608D4FEF70BFFA0EB0900A842EF
:102220007AD82168C868F3E717B117F8010B04E002
:1022300038F8020B00276FF35F204860E08C01380C
:10224000E084E08C0028E3D13AE000BF0A6812067F
:1022500009D40A68120606D40A6812065CBF0A6826
:102260005FEA0262F2D51FB117F8012B05E000BF4B
:1022700030F8022B00276FF35F224A60E28C013AAC
:10228000E284E28C002AE4D11AE000BF30F8022B8D
:1022900000276FF35F224A60E28C013AE284E28C0D
:1022A00072B10A68120635D5002FEFD017F8012B4E
:1022B000F1E700BF00273046E28C2168002AA1D157
:1022C000086840061ED42DB3681C14D10868400667
:1022D0002AD40868400627D40868400624D4086831
:1022E00040064FF00000F1D50DE000BF2068C16846
:1022F0000068400618D4FEF79BFEA0EB0900A84238
:10230000F4D909E00020202184F8411001B0BDE893
:10231000F08300BFFEF78CFE0320202184F84110DB
:1023200001B0BDE8F08300BF0020202184F84110F7
:1023300001B0BDE8F0830000FEE70000406A416B99
:1023400000291CBF00228A62816B00291CBF002269
:102350008A6201680A6822F480620A6000212022F1
:10236000418580F83D2080F83E10016C41F010015D
:102370000164FEF763BE000010B5446A94F83D2086
:1023800094F83EE0D4F82CC02168606B4B680028BC
:1023900023F440734B601CBF00238362A06B0028B2
:1023A0001CBF0023836202F02100212820D002F00C
:1023B0002200222808BFBEF1200F19D094F83E0059
:1023C000002808BF10BD608D012803D1086820F4E3
:1023D000806008604868BCF1070F20F440704860D6
:1023E00028DCBCF12A4F2BD01CF5803F28D02BE0F5
:1023F00048682A2A20F4006048604FF00000608599
:102400000AD0292A10D121202063282084F83D00F9
:102410002046FFF741FA07E022202063282084F8B5
:102420003D002046FFF736FA2068416841F44071CC
:10243000416010BDBCF1200F02D0BCF1080F03D1E8
:10244000086840F400700860486820F480504860D4
:10245000486820F40060486000216185206C28B144
:102460002046BDE81040FEF7E9BD00BF202084F8FB
:102470003D0094F83E0084F83E10402806D12046E6
:102480002163BDE81040FFF7B1B900BFBCF10800FF
:1024900018BF1220BCF1200118BF0146204621635D
:1024A000BDE81040FEF788BF70B50368044653F8D6
:1024B000140F400711D40E46481C29D086BB00BF1C
:1024C0001868400527D4FEF7B3FD236853F8140FAE
:1024D000400737D518684007F2D5002070BD00BF0F
:1024E00018684007F9D41868400514D418684007E4
:1024F000F3D4186840050ED418684007EDD4186866
:10250000400508D4186840074FF0000048BF70BD70
:1025100018684005E4D56FF480601860042012E06C
:10252000154603E053F8140F4007D6D41868400549
:10253000F1D4FEF77DFD401B2368B042F2D9586903
:102540004007EFD4202000212022216384F83D2081
:1025500084F83E10226C10432064012084F83C1063
:1025600070BD00002DE9F041054600681E46144686
:1025700001F47F0201338FB242D0DDF81880B2F54A
:10258000803F40F0878040693840C01BB0FA80F03F
:102590004009A04240F0C8804EB924E0406938406C
:1025A000C01BB0FA80F04009A04240F0BD80FEF7A9
:1025B0003FFDA0EB08012868B142EFD941693940DD
:1025C000C91BB1FA81F14909A142E7D19BE000BFE3
:1025D00040693840C01BB0FA80F04009A0424FF07B
:1025E000000040F0A280FEF723FD286841693940D1
:1025F000C91BB1FA81F14909A142E9D183E000BFC9
:10260000B2F5803F24D100BF41693940C91BB1FAFE
:1026100081F14909A14240F0878041693940C91BD5
:10262000B1FA81F14909A14240F07E804169394007
:10263000C91BB1FA81F14909A14275D141693940FB
:10264000C91BB1FA81F14909A142DDD06CE000BF9C
:1026500081693940C91BB1FA81F14909A14263D1AD
:1026600081693940C91BB1FA81F14909A1425BD1A5
:1026700081693940C91BB1FA81F14909A14253D19D
:1026800081693940C91BB1FA81F14909A142DFD002
:102690004AE000BF80693840C01BB0FA80F04009B2
:1026A000A04241D146B923E080693840C01BB0FA4E
:1026B00080F04009A04237D1FEF7BAFCA0EB080138
:1026C0002868B142F0D981693940C91BB1FA81F15A
:1026D0004909A142E8D116E080693840C01BB0FA30
:1026E00080F04009A0424FF0000018BFBDE8F08123
:1026F000FEF79EFC286881693940C91BB1FA81F157
:102700004909A142E8D100202021286385F83D1025
:1027100085F83E00296C41F02001296485F83C00D1
:102720000120BDE8F08100BF0020BDE8F08100007D
:10273000F0B581B0044600681D4643698FB203EAD4
:102740000701B94202D1002001B0F0BD416916462F
:1027500001323CD0490512D47EB300BFFEF768FCBD
:10276000411B2068B14203D941693940B9422BD19C
:1027700041693940B942E6D041694905EED5016861
:1027800041F4007101606FF4806141610420002117
:102790002022216384F83D2084F83E10226C1043EF
:1027A000206484F83C10012001B0F0BD416939403B
:1027B000B942C8D041694905E1D4FEF739FC206827
:1027C00041693940B942F1D02020E0E7416949052B
:1027D000D5D441693940B942B5D041694905CED413
:1027E00041693940B942AED041694905C7D4416910
:1027F0003940B942A7D041694905C0D4416939403F
:10280000B942E3D19FE7000070B50368044653F86E
:10281000140F000611D40E46481C29D086BB00BFF9
:102820001868400527D4FEF703FC236853F8140FFB
:10283000000637D518680006F2D5002070BD00BF2D
:1028400018680006F9D41868400514D41868000602
:10285000F3D4186840050ED418680006EDD4186843
:10286000400508D4186800064FF0000048BF70BD4E
:1028700018684005E4D56FF480601860042012E009
:10288000154603E053F8140F0006D6D41868400527
:10289000F1D4FEF7CDFB401B2368B042F2D9586952
:1028A0000006EFD4202000212022216384F83D205F
:1028B00084F83E10226C10432064012084F83C1000
:1028C00070BD0000FEE70000FEE70000704700005A
:1028D00070470000FEF7E2BF70470000FEE700000F
:1028E00090B0FEF7E9FF00240120CDE90B44CDE9CB
:1028F000094406900A904FF4E0104FF4803102250D
:102900000F9006A8CDE90714CDE90D51FFF782F924
:1029100020B1EFF3108072B6FEE700BF0F20CDE9C3
:1029200001054FF48060CDE9040401A8022103945D
:10293000FFF76AF820B1EFF3108072B6FEE700BF30
:1029400041F21800C4F20200016845F6000441F0AB
:10295000200101600168002201F020010691069922
:102960000168C4F2000441F008010160016800251B
:1029700001F0080106910699016841F00401016027
:10298000016801F004010691069950F8041C41F019
:10299000010140F8041C50F8040C002100F0010073
:1029A000069006980F20FEF7F3FF0F20FEF7DEFFDC
:1029B00040F2141041F68021C2F20000C0F206017C
:1029C0004FF48042C0E90041C0E90255C0E9042546
:1029D000C0E906550562FEF733FB28B1EFF310801E
:1029E00072B600BFFEE700BF40F27008C2F20008F6
:1029F00004F56041404640F8181F4FF4E1310C22C5
:102A0000C0E90115C0E90355C0E90525C561FFF717
:102A100017FB28B1EFF3108072B600BFFEE700BFCE
:102A200040F2141508F10806C2F2000530462946A6
:102A30004822FEF74BF830464FF40071FEF762F87B
:102A400000274FF0FF3406AE28469021324601237E
:102A50008DF818700094FEF7DBFD28469021424661
:102A60000223FEF7EBFC4FF47A70FEF7BFF9EBE7B9
:102A70005FEA400C08BF91F0000F4FEA8C234FEA49
:102A8000C12243EA51514FEA1C5018BF00F5F040F3
:102A90004FEA300018BF41F000415FEA6C5C00F083
:102AA0002980BCF1FF3F08BF40F080407047130C05
:102AB00006BF12044FF0100C4FF0000C130E04BFB1
:102AC00012020CF1080C130F04BF12010CF1040CDC
:102AD000930F04BF92000CF1020CD30F04BF5200FD
:102AE0000CF1010C11464FF00002A0F11F00A0EB09
:102AF0000C00704711F0004F08BF704731F00041E3
:102B00003FF4D5AF0B0C06BF09044FF0100C4FF08B
:102B1000000C0B0E04BF09020CF1080C0B0F04BFD4
:102B200009010CF1040C8B0F04BF89000CF1020C9D
:102B3000CB0F04BF49000CF1010CCCF1200322FAA9
:102B400003F341EA030102FA0CF2A0EB0C0000F1DE
:102B50000100704723F07F4720F07F4C80EA03009C
:102B600000F00040ACEB070303F57C5303F1FF03D7
:102B70002DE9804909B44FEA144324EA03484FEA97
:102B8000154B25EA0B4E0FF2042606EB13273E7871
:102B900003FB0667C7F5000707FB06F64FEAD646B4
:102BA00006F102064FEA543707FB066CCCF1005CD5
:102BB0004FEA1C472CEA074C0CFB06F507FB06F412
:102BC00004EB15464FEA961649085FEA320234BF15
:102BD00000204FF000404FEAD13706FB07FC4FEAD8
:102BE0001C4C0CFB0BF7D21B03FB0CF761EB070132
:102BF0000CFB0EF7B0EB074072EB17420CFB08F72B
:102C000034BFA2EB0742B2EB074261EB17414FEA38
:102C10000C444FEA910706FB07FC4FEA1C4C0CFBE7
:102C20000BF7B0EBC74072EB573203FB0CF734BF26
:102C3000A2EBC742B2EBC74261EB57310CFB0EF778
:102C4000B0EBC70072EB57720CFB08F734BFA2EB76
:102C5000C702B2EBC70261EB57714FEA816141EAEB
:102C600092114FEA826242EA90124FEA806004EBCE
:102C7000CC04039F4FEAD13706FB07FC4FEA1C4CFC
:102C80000CFB0BF7D21B03FB0CF761EB07010CFBF2
:102C90000EF7B0EB074072EB17420CFB08F734BF9E
:102CA000A2EB0742B2EB074261EB17414FEA8C55AA
:102CB00004EB9C244FEA910706FB07FC4FEA1C4CEF
:102CC0000CFB0BF7B0EBC74072EB573203FB0CF772
:102CD00034BFA2EBC742B2EBC74261EB57310CFBEA
:102CE0000EF7B0EBC70072EB57720CFB08F734BF5E
:102CF000A2EBC702B2EBC70261EB57714FEA8161E9
:102D000041EA92114FEA826242EA90124FEA8060F1
:102D100015EB4C2544F100044FEAD13706FB07FCC4
:102D20004FEA1C4C0CFB0BF7D21B03FB0CF761EBBF
:102D300007010CFB0EF7B0EB074072EB17420CFBE0
:102D400008F734BFA2EB0742B2EB074261EB174131
:102D50004FEA813141EA92414FEA823242EA90429F
:102D60004FEA80304FEA0C7615EB1C1544F1000455
:102D700048EA03434EEA0B484FF0000EB2EB080C52
:102D800071EB030724BF624639464EEB0E0E4FF03F
:102D9000000B0018524149414BEB0B0BB2EB080CF6
:102DA00071EB03077BF1000B24BF624639464EEB03
:102DB0000E0E4FF0000B0018524149414BEB0B0B2C
:102DC000B2EB080C71EB03077BF1000B24BF6246EA
:102DD00039464EEB0E0E51EA020718BF46F00106C7
:102DE00016EB0E7655F1000254F1000103D5BDE853
:102DF0008901BDE80088BDE88901BDE80048B61931
:102E0000524141EB0101A3F10103704780807F7EB5
:102E10007D7C7B7A79787776767574737271717050
:102E20006F6E6E6D6C6C6B6A6A6968686766666502
:102E30006464636362616160605F5F5E5E5D5D5C90
:102E40005C5B5B5A5A595958585757565655555501
:102E50005454535352525251515050504F4F4F4E61
:102E60004E4D4D4D4C4C4C4B4B4B4A4A4A494949AF
:102E700048484847474747464646454545444444F1
:102E80004443434343424242424141419C46002B1A
:102E900030D477002BD04FEA37071CB503B44FF07E
:102EA00010004FF01001BAF1000F06D0BCF1000F76
:102EB000DCBF40F0080040F008014FF000000FBCFC
:102EC000BDE810400BF1010BBBF1010F08BF5FEA39
:102ED000170722BF12F1010211F101014FF0004169
:102EE00043F1000300F0004043EA00007047F9D3CB
:102EF0005708D0E746EA06464FEA164613F1400F58
:102F00001FDD13F1200FDFBF16430A4600212033D7
:102F10005B42BED0C3F1200746EA06464FEA16469A
:102F200002FA07F746EA070622FA03F2C3F120077E
:102F300001FA07F742EA070221FA03F14FF0000312
:102F4000A7E746EA020646EA06464FEA164646EA7A
:102F50000106BCBF46EA0646360C4FF000034FF0B0
:102F600000024FF0000194E72DE9804C70B49A46BE
:102F7000934691E8380007C831EA400C48BF34EA6C
:102F8000430C03D5FFF7E6FDFFF780FFF0BCBDE87B
:102F9000008C2DE9804C70B49A46934691E8380035
:102FA00007C810F0804F08BF13F0804F03D100F026
:102FB00005F8FFF76BFFF0BCBDE8008C20F07F4701
:102FC00023F07F4C80EA030000F0004007EB0C0385
:102FD000A3F57C53A3F1FE0392F0000F00F0B38041
:102FE00095F0000F00F077802DE901494FEA11407C
:102FF00021EA00484FEA144624EA064700FB06FC93
:1030000008FB06F607FB08F818EB06484CEB164CD5
:1030100000FB07F718EB07484CEB17404FEA124B41
:1030200022EA0B4E4FEA154625EA06470BFB06FC43
:103030000EFB06F607FB0EFE1EEB064E4CEB164C87
:103040000BFB07F71EEB074E4CEB174B18EB0B086F
:1030500040F1000018EB0E0B58EB000840F10000A7
:103060008F1A4FF000014FF000063CBFC943661BAA
:1030700014BFB5EB040C00213CBFC943F61B4FEA5B
:10308000174427EA04454FEA1C472CEA074C04FB87
:10309000076205FB07F70CFB05F616EB074642EB4C
:1030A000174204FB0CFC16EB0C4642EB1C421BEBDC
:1030B000060658EB020241414EEA8E0E46EA9E0693
:1030C00001D5BDE80189B619524141EB0101A3F1D7
:1030D0000103BDE801894FEA144524EA05464FEA99
:1030E000114721EA074C05FB07F406FB07F70CFB29
:1030F00006F111EB074144EB174405FB0CFC11EB07
:103100000C4144EB1C444FEA124722EA074C05FBF2
:1031100007F206FB07F70CFB06F616EB074642EB39
:10312000174205FB0CFC16EB0C4642EB1C456A18DB
:1031300054F1000148BF7047B619524141EB0101FB
:10314000A3F10103704795F0000F37D04FEA114209
:1031500021EA02464FEA144724EA074C02FB07F132
:1031600006FB07F70CFB06F414EB074441EB174191
:1031700002FB0CFC14EB0C4441EB1C414FEA1547DD
:1031800025EA074C02FB07F506FB07F70CFB06F6E2
:1031900016EB074645EB174502FB0CFC16EB0C46FD
:1031A00045EB1C42121951F1000148BF7047B61996
:1031B000524141EB0101A3F1010370474FEA14456D
:1031C00024EA05464FEA114721EA074C05FB07F1BF
:1031D00006FB07F70CFB06F212EB074241EB174127
:1031E00005FB0CFC12EB0C4251EB1C414FF00006AE
:1031F00048BF7047921841EB0101A3F101037047EA
:10320000490050EAC12018BF04204A0D18BF40F001
:10321000010040F2FF72B2EB515F08BF40F00200C4
:10322000012808BF0520704730380A2801D2012044
:10323000704700207047000010B500290AD00878B8
:10324000002807D005487844FDF7F8FB002801D096
:10325000002010BD0248784410BD00003E07000069
:103260003607000021F0004201F00043A2F1605255
:10327000B2F5801F28BFD2F17F6C0BD95FEA001C2A
:1032800043EAC20242EB507018BF704728BF20F0DB
:1032900001007047B2F5801FBCBF184670474FEA67
:1032A000410C1CF5001F02D2084600F0F0BA70B5C0
:1032B00000F028FA00000089FFF7F6BF4FF0004049
:1032C000A0F58000704700002DE9C04130B4DFF860
:1032D000A8C23CEA111418BF3CEA131400F0F080B5
:1032E0001CEA111481EA030544EAD57418BF1CEAEC
:1032F000131500F0CB80A4EB050404F17F7404F5F2
:1033000000344FF0004545EAC12145EAC32341EAB4
:10331000505143EA52534FEAC0204FEAC222994229
:1033200008BF904200F0A0804FEA13650FF24816E4
:10333000765D4FEA134506FB05F7C7F1807706FB7C
:1033400007F74FEAD737A7FB03687642A7FB06CEFD
:10335000C8F5803838BFA8F1010807FB08E6A6FBCE
:10336000028C4FF0000EE6FB03CED8F100086FEAA6
:103370000C0C5CF1000C6FEA0E0E4EF1004EA6FB39
:103380000C584FF00007E6FB0E87A1FB08C6A0FB18
:1033900007CE16EB0E064FF0000545F10005E1FBE8
:1033A000076515F1E04E7EBFA4F580345FEA46065E
:1033B0006D4116F1800745F100054FEA172747EAEE
:1033C00005674FEA15254FEA0666A6F1DE46B6F117
:1033D000805F20D9384605EBC47124F0010C01EB65
:1033E0000C11BCF1FE6F02D8F0BCBDE80081244294
:1033F0005CBF01F5801E9EEAC47F02D4F0BCBDE82C
:103400000081244200F13980A1F1C041F0BCBDE847
:10341000004100F0C5B94FEAD02040EA41504FEAE0
:10342000D1214FEAD22242EA43524FEAD323A7FBEB
:10343000028607FB036605FB02661EEA0E0F58BFF5
:10344000A6EB0056B6EB00564FEA520E4EEAC37E8C
:1034500018EB0E0E56EB530EBCD518EB02085E416E
:103460007F1C55F10005B5E74FF480154FF00007BC
:103470004FF000064FF00008ACE701F1C04101F049
:1034800000414FF00000F0BCBDE800810CEA1315CC
:1034900011EA0C1F00D00CE013EA0C1F00F025808D
:1034A0004FF0000081EA030101F00041F0BCBDE8EB
:1034B0000081F0BCBDE8004181EA030100F070B971
:1034C000F0BCBDE8004170B500F01CF9097EFC3E7F
:1034D00000F007B84FF0000081EA030101F000415D
:1034E000704781EA030100F05BB9F0BCBDE8004120
:1034F00022494FF000007047FFFDFBF9F7F5F4F2A9
:10350000F0EEEDEBE9E8E6E4E3E1E0DEDDDBDAD87E
:10351000D7D5D4D3D1D0CFCDCCCBCAC8C7C6C5C4DC
:10352000C2C1C0BFBEBDBCBBBAB9B8B7B6B5B4B3F3
:10353000B2B1B0AFAEADACABAAA9A8A8A7A6A5A4DE
:10354000A3A3A2A1A09F9F9E9D9C9C9B9A999998A2
:103550009797969595949393929191908F8F8E8E45
:103560008D8C8C8B8B8A89898888878786858584D2
:1035700084838382828181800000FF070000F87FBE
:1035800010F0004248BF4042B0FA80F310FA03F155
:103590000AD0C3F11D0303F5806302EB03524FEA27
:1035A000415002EBD12170474FF0000070470000FE
:1035B00070B5DFF848C11CEA111E1EBF1CEA1315C6
:1035C0009EEA0C0F95EA0C0F00F06F8081EA03046D
:1035D0004EEAD47EAE4421EA4C1123EA4C1341F466
:1035E000801143F48013AEF17F7EA1FB024CA0FB5F
:1035F0000365361955EB0C05A1FB034C4CF1000398
:10360000A0FB021C16EB0C06654153F100030942B6
:1036100018BF46F0010613F4007F0BD14FEA0331C7
:103620004FEA053041EA155140EA165034036FF075
:1036300003020AE04FEAC3214FEAC52041EA55518F
:1036400040EA5650F4026FF0020202EB2E4201EB08
:10365000025585EACE710AD05FEA440C18BF24F007
:10366000004450F1000041F1000120EAD47040F222
:10367000FE7C624500D270BDA84214BF4FF080446A
:103680004FF04044002E08BF0024BEF1806FA8BF59
:10369000A1F1C041BDE8704080F2828001F1C041DB
:1036A00001F000414FF0000070470CEA13159EEA4C
:1036B0000C0F18BF95EA0C0F06D081EA030E4FF0ED
:1036C00000000EF0004170BD00F01CF88900013EC2
:1036D00000F007B800F009B84FEA430C5FEA5C5C01
:1036E00008D081EA030100F05BB84FEA410C5FEAC1
:1036F0005C5CF6D102494FF0000070470000FF0704
:103700000000F87F0EF1020E2EF0030E5EF8046B3F
:10371000364205D4012A43EB030515F5001F12D8E4
:10372000012841EB010C1CF5001F0CD80ED14FEA0B
:10373000D17C0CEB4C0C0CF1020C15F5001F08BFF2
:103740004CEBD37C04E04FF0080C01E04FEAD37C53
:103750000CEB4C0526FA05F606F00706B6F1040C4C
:1037600006D20EEB860CBDE870404CF0010C6047B1
:10377000DFE80CF0090B02024FF00041A1F5002137
:103780004FF0000070BD19461046012851EB0104AE
:1037900018BFD4F5001484BF002001F0004170BDB3
:1037A0000808A0F500114FEA3101704743004FEAC5
:1037B000D30C4FEA3C0C43401FBF40070CF1605153
:1037C00013F0FE4F70471CF0006F03D10CF0004166
:1037D000002070470CF0004343EA507040EACC00F0
:1037E00010B500F00EF800BF000000924FEA000193
:1037F000FFF7D6BF4FF00041A1F500214FF00000C8
:1038000070470EF1020E2EF0030E5EF8044B2442B8
:1038100004D44FEA4102B2F17F4F11D84FEA40037E
:10382000B3F17F4F0CD80ED14FEAD07C0CEB4C0C8F
:103830000CF1020CB2F17F4F08BF4CEBD17C04E0DD
:103840004FF0080C01E04FEAD17C0CEB4C0324FA5A
:1038500003F404F00704B4F1040C06D20EEB840C5C
:10386000BDE810404CF0010C6047DFE80CF00708A1
:1038700002024FF00040A0F5800010BD0846420053
:1038800018BFD2F1807288BF00F0004010BDFF2148
:1038900041EAD050C0057047FCF74DBE0240000021
:1038A000000000A00000000005400000000000C86B
:1038B000000000000C4000000000409C00000000E0
:1038C000194000000020BCBE000000003440000091
:1038D000BFC91B8E00000004B5400000504BCFD084
:1038E0006607E2CF010000006C4100003E8251AA51
:1038F000DFEEA73401000000D9420000DCB5A0E2F1
:103900003A301F97FFFFFFFFB4450000FD25A0C818
:10391000E9A3C14FFFFFFFFFFF3F00000000008051
:1039200000000000FF3F00000000008000000000D9
:10393000000000000000000001020304060708095F
:10394000000000000102030401020203040506074F
:1039500008090A0B0C0D0E0F1010252E326620568A
:103960000D0A0000A039000800000020100000002F
:1039700050010008B0390008100000206007000066
:10398000700100081C00000043000000F8FFFFFF6A
:103990000C0000000E0000000F0000002E000000D0
:1039A000010000001000000000127A00000000007A
:04000005080000ED02
:00000001FF
