:020000040800F2
:1000000000000520A1210008551F00085D1F000801
:10001000651F00086D1F0008751F00080000000024
:100020000000000000000000000000007D1F00082C
:100030008B1F000800000000991F0008A71F000880
:10004000F1210008F1210008F1210008F121000848
:10005000F1210008F1210008F1210008F121000838
:10006000F1210008F1210008F1210008F121000828
:10007000F1210008F1210008F1210008F121000818
:10008000F1210008F1210008F1210008F121000808
:10009000F1210008F1210008F1210008F1210008F8
:1000A000F1210008F1210008F1210008F1210008E8
:1000B000F1210008F1210008F1210008F1210008D8
:1000C000F1210008F1210008F1210008F1210008C8
:1000D000F1210008F1210008F1210008F1210008B8
:1000E000F1210008F1210008F1210008F1210008A8
:1000F000F1210008F1210008F1210008F121000898
:10010000F1210008B51F0008F1210008F1210008C5
:10011000F1210008F1210008F1210008F121000877
:10012000F1210008F1210008F1210008C91F000891
:10013000F1210008F1210008F1210008F121000857
:10014000F1210008F1210008F1210008F121000847
:10015000F1210008DD1F0008F1210008F12100084D
:10016000F1210008F1210008F1210008F121000827
:10017000F1210008F1210008F12100080000000031
:10018000F1210008F1210008F1210008F121000807
:10019000F1210008F1210008F1210008F1210008F7
:1001A000F1210008F1210008F1210008F1210008E7
:1001B000F1210008F1210008F1210008F1210008D7
:0801C000F1210008F121000803
:1001D00010B5054C237833B9044B13B10448AFF381
:1001E00000800123237010BDD40100200000000016
:1001F0002CC2000808B5034B1BB103490348AFF3F9
:10020000008008BD00000000D80100202CC20008BA
:1002100001F0FF01102A2BDB10F0070F08D010F8B7
:10022000013B013A8B422DD010F0070F42B3F6D1BB
:10023000F0B441EA012141EA014122F007047FF0D4
:1002400000070023F0E80256083C85EA010586EA2B
:10025000010685FA47F5A3FA87F586FA47F6A5FA67
:1002600087F68EB9EED1F0BC01F0FF0102F0070273
:1002700032B110F8013B013A83EA010313B1F8D11E
:100280000020704701387047002D06BF35460338FF
:10029000073815F0010F07D1013015F4807F02BF38
:1002A000013015F4C03F0130F0BC0138704700BF89
:1002B000034613F8012B002AFBD1181A01387047A6
:1002C00081F0004102E000BF83F0004330B54FEA07
:1002D00041044FEA430594EA050F08BF90EA020F74
:1002E0001FBF54EA000C55EA020C7FEA645C7FEA07
:1002F000655C00F0E2804FEA5454D4EB5555B8BF2A
:100300006D420CDD2C4480EA020281EA030382EA9A
:10031000000083EA010180EA020281EA0303362D2C
:1003200088BF30BD11F0004F4FEA01314FF4801CFF
:100330004CEA113102D0404261EB410113F0004F11
:100340004FEA03334CEA133302D0524263EB4303C8
:1003500094EA050F00F0A780A4F10104D5F1200E66
:100360000DDB02FA0EFC22FA05F2801841F10001C1
:1003700003FA0EF2801843FA05F359410EE0A5F195
:1003800020050EF1200E012A03FA0EFC28BF4CF0C6
:10039000020C43FA05F3C01851EBE37101F000457C
:1003A00007D54FF0000EDCF1000C7EEB00006EEB89
:1003B0000101B1F5801F1BD3B1F5001F0CD3490813
:1003C0005FEA30004FEA3C0C04F101044FEA44526A
:1003D00012F5800F80F09A80BCF1004F08BF5FEAF1
:1003E000500C50F1000041EB045141EA050130BDD1
:1003F0005FEA4C0C404141EB0101013C28BFB1F5E3
:10040000801FE9D291F0000F04BF01460020B1FA2D
:1004100081F308BF2033A3F10B03B3F120020CDA00
:100420000C3208DD02F1140CC2F10C0201FA0CF0DE
:1004300021FA02F10CE002F11402D8BFC2F1200C43
:1004400001FA02F120FA0CFCDCBF41EA0C019040F9
:10045000E41AA2BF01EB0451294330BD6FEA040442
:100460001F3C1CDA0C340EDC04F11404C4F120022D
:1004700020FA04F001FA02F340EA030021FA04F33F
:1004800045EA030130BDC4F10C04C4F1200220FA96
:1004900002F001FA04F340EA0300294630BD21FAD4
:1004A00004F0294630BD94F0000F83F4801306BF9A
:1004B00081F480110134013D4EE77FEA645C18BF8E
:1004C0007FEA655C29D094EA050F08BF90EA020F25
:1004D00005D054EA000C04BF1946104630BD91EA1D
:1004E000030F1EBF0021002030BD5FEA545C05D120
:1004F0004000494128BF41F0004130BD14F580045F
:100500003CBF01F5801130BD01F0004545F0FE41D2
:1005100041F470014FF0000030BD7FEA645C1ABF07
:10052000194610467FEA655C1CBF0B46024650EA3E
:10053000013406BF52EA033591EA030F41F400216A
:1005400030BD00BF90F0000F04BF0021704730B5F0
:100550004FF4806404F132044FF000054FF00001C5
:1005600050E700BF90F0000F04BF0021704730B586
:100570004FF4806404F1320410F0004548BF40425B
:100580004FF000013EE700BF42004FEAE2014FEAB0
:1005900031014FEA02701FBF12F07F4393F07F4F8B
:1005A00081F06051704732F07F4208BF704793F08E
:1005B0007F4F04BF41F40021704730B54FF46074A1
:1005C00001F0004521F000411CE700BF50EA0102A4
:1005D00008BF704730B54FF000050AE050EA01024D
:1005E00008BF704730B511F0004502D5404261EBBD
:1005F00041014FF4806404F132045FEA915C3FF4FE
:10060000D8AE4FF003025FEADC0C18BF03325FEA9A
:10061000DC0C18BF033202EBDC02C2F1200300FA4B
:1006200003FC20FA02F001FA03FE40EA0E0021FA70
:1006300002F11444BDE600BF70B54FF0FF0C4CF45E
:10064000E06C1CEA11541DBF1CEA135594EA0C0F10
:1006500095EA0C0F00F0DEF82C4481EA030621EA4B
:100660004C5123EA4C5350EA013518BF52EA033586
:1006700041F4801143F4801338D0A0FB02CE4FF038
:100680000005E1FB02E506F00042E0FB03E54FF068
:100690000006E1FB03569CF0000F18BF4EF0010E60
:1006A000A4F1FF04B6F5007F64F5407404D25FEA5C
:1006B0004E0E6D4146EB060642EAC62141EA55510F
:1006C0004FEAC52040EA5E504FEACE2EB4F1FD0C51
:1006D00088BFBCF5E06F1ED8BEF1004F08BF5FEACF
:1006E000500E50F1000041EB045170BD06F0004681
:1006F00046EA010140EA020081EA0301B4EB5C042E
:10070000C2BFD4EB0C0541EA045170BD41F4801125
:100710004FF0000E013C00F3AB8014F1360FDEBF4A
:10072000002001F0004170BDC4F10004203C35DA26
:100730000C341BDC04F11404C4F1200500FA05F3A9
:1007400020FA04F001FA05F240EA020001F000424A
:1007500021F0004110EBD37021FA04F642EB0601C0
:100760005EEA430E08BF20EAD37070BDC4F10C04EA
:10077000C4F1200500FA04F320FA05F001FA04F2AE
:1007800040EA020001F0004110EBD37041F100019A
:100790005EEA430E08BF20EAD37070BDC4F12005A5
:1007A00000FA05F24EEA020E20FA04F301FA05F20D
:1007B00043EA020321FA04F001F0004121FA04F2B5
:1007C00020EA020000EBD3705EEA430E08BF20EA85
:1007D000D37070BD94F0000F0FD101F000464000BF
:1007E00041EB010111F4801F08BF013CF7D041EA41
:1007F000060195F0000F18BF704703F00046520045
:1008000043EB030313F4801F08BF013DF7D043EA15
:100810000603704794EA0C0F0CEA135518BF95EACB
:100820000C0F0CD050EA410618BF52EA4306D1D152
:1008300081EA030101F000414FF0000070BD50EA71
:10084000410606BF1046194652EA430619D094EAFB
:100850000C0F02D150EA013613D195EA0C0F05D1E5
:1008600052EA03361CBF104619460AD181EA030139
:1008700001F0004141F0FE4141F470014FF00000F1
:1008800070BD41F0FE4141F4780170BD70B54FF08C
:10089000FF0C4CF4E06C1CEA11541DBF1CEA13550C
:1008A00094EA0C0F95EA0C0F00F0A7F8A4EB0504EE
:1008B00081EA030E52EA03354FEA013100F08880E5
:1008C0004FEA03334FF0805545EA131343EA1263AE
:1008D0004FEA022245EA111545EA10654FEA002663
:1008E0000EF000419D4208BF964244F1FD0404F51C
:1008F000407402D25B084FEA3202B61A65EB030578
:100900005B084FEA32024FF480104FF4002CB6EB34
:10091000020E75EB030E22BFB61A754640EA0C00B4
:100920005B084FEA3202B6EB020E75EB030E22BFF4
:10093000B61A754640EA5C005B084FEA3202B6EB35
:10094000020E75EB030E22BFB61A754640EA9C00F4
:100950005B084FEA3202B6EB020E75EB030E22BFC4
:10096000B61A754640EADC0055EA060E18D04FEA82
:10097000051545EA16754FEA06164FEAC30343EA22
:1009800052734FEAC2025FEA1C1CC0D111F4801FEF
:100990000BD141EA00014FF000004FF0004CB6E7E8
:1009A00011F4801F04BF01430020B4F1FD0C88BF87
:1009B000BCF5E06F3FF6AFAEB5EB030C04BFB6EB92
:1009C000020C5FEA500C50F1000041EB045170BD85
:1009D0000EF0004E4EEA113114EB5C04C2BFD4EBB2
:1009E0000C0541EA045170BD41F480114FF0000E36
:1009F000013C90E645EA060E8DE60CEA135594EAB2
:100A00000C0F08BF95EA0C0F3FF43BAF94EA0C0FB4
:100A10000AD150EA01347FF434AF95EA0C0F7FF429
:100A200025AF104619462CE795EA0C0F06D152EA7D
:100A300003353FF4FDAE1046194622E750EA410661
:100A400018BF52EA43067FF4C5AE50EA41047FF472
:100A50000DAF52EA43057FF4EBAE12E74FF0FF3CD7
:100A600006E000BF4FF0010C02E000BF4FF0010CA8
:100A70004DF804CD4FEA410C7FEA6C5C4FEA430C21
:100A800018BF7FEA6C5C1BD001B050EA410C0CBF70
:100A900052EA430C91EA030F02BF90EA020F0020D2
:100AA000704710F1000F91EA030F58BF994208BF39
:100AB00090422CBFD8176FEAE37040F001007047F6
:100AC0004FEA410C7FEA6C5C02D150EA013C07D14D
:100AD0004FEA430C7FEA6C5CD6D152EA033CD3D098
:100AE0005DF8040B704700BF8446104662468C4692
:100AF0001946634600E000BF01B5FFF7B7FF0028C5
:100B000048BF10F1000F01BD4DF808EDFFF7F4FFED
:100B10000CBF012000205DF808FB00BF4DF808ED78
:100B2000FFF7EAFF34BF012000205DF808FB00BF9B
:100B30004DF808EDFFF7E0FF94BF012000205DF8BD
:100B400008FB00BF4DF808EDFFF7CEFF94BF012072
:100B500000205DF808FB00BF4DF808EDFFF7C4FF6B
:100B600034BF012000205DF808FB00BF4FEA410CB4
:100B70007FEA6C5C02D150EA013C0AD14FEA430C97
:100B80007FEA6C5C02D152EA033C02D14FF00000D4
:100B900070474FF0010070474FEA410212F5001212
:100BA00015D211D56FF47873B3EB625212D94FEAB4
:100BB000C12343F0004343EA505311F0004F23FA9E
:100BC00002F018BF404270474FF00000704750EAF3
:100BD000013005D111F0004008BF6FF000407047B0
:100BE0004FF00000704700BF53B94AB9002908BF51
:100BF00000281CBF4FF0FF314FF0FF3000F088B9E4
:100C0000ADF1080C6DE904CE00F006F8DDF804E063
:100C1000DDE9022304B070472DE9F047089D8E46B8
:100C200004468846002B4AD18A42174662D9B2FA56
:100C300082F64EB1C6F1200301FA06F820FA03F35A
:100C4000B74043EA0808B4404FEA174E1FFA87FC42
:100C5000B8FBFEF1230C0EFB118843EA084301FBAD
:100C60000CF29A4209D9FB1801F1FF3080F0EA80BA
:100C70009A4240F2E78002393B449A1AA3B2B2FB8F
:100C8000FEF00EFB102243EA024300FB0CFC9C45E5
:100C900009D9FB1800F1FF3280F0D6809C4540F264
:100CA000D3803B44023840EA0140A3EB0C0300210F
:100CB0001DB1F3400022C5E90032BDE8F0878B4248
:100CC00005D90DB1C5E9000100210846F5E7B3FAE1
:100CD00083F1002946D1734502D3824200F2058197
:100CE000841A6EEB030201209046002DE5D0C5E981
:100CF0000048E2E7002A00F09080B2FA82F6002E67
:100D000040F0A4808A1A030C4FEA174E80B2BCB29E
:100D10000121B2FBFEFC0EFB1C2243EA024304FB52
:100D20000CF29A4207D9FB180CF1FF3802D29A4212
:100D300000F2E080C4469B1AB3FBFEF20EFB1233B6
:100D400040EA034302FB04F49C4207D9FB1802F17A
:100D5000FF3002D29C4200F2CA8002461B1B42EACC
:100D60000C40A5E7C1F120068B4022FA06F71F438D
:100D70000EFA01F420FA06F32EFA06FE4FEA17499E
:100D8000234300FA01F81FFA87FCBEFBF9F01C0CA4
:100D900009FB10EE44EA0E4400FB0CFEA64502FAE5
:100DA00001F209D93C1900F1FF3A80F09C80A64578
:100DB00040F2998002383C44A4EB0E041FFA83FEF3
:100DC000B4FBF9F309FB13444EEA044403FB0CFCA7
:100DD000A44508D93C1903F1FF3E80F08280A44568
:100DE0007FD9023B3C4443EA0040A4EB0C04A0FB47
:100DF00002EC64457346E14662D35FD05DB1B8EB67
:100E0000030264EB090404FA06F622FA01F31E4316
:100E1000CC40C5E9006400214FE7B1FBF2FC010CB6
:100E200041EA0E4180B240EA01423B4638463C4628
:100E3000B846BE462026B1FBF7F1A2EB080241EA14
:100E40000C4166E7014618E710462CE7C6F1200280
:100E50002EFA02F3B740B14020FA02F24FEA174EE1
:100E60000A43B3FBFEF8BCB20EFB1833110C41EA87
:100E7000034108FB04F9B04089454FEA104380B2B2
:100E80003ED9791808F1FF3C01D289451FD8A1EB62
:100E90000901B1FBFEF909FB04F80EFB191192B22E
:100EA00042EA0142424529D2BA1809F1FF31C4D2BF
:100EB0004245C2D2A9F102013A44BEE7F0459DD2B3
:100EC000BEEB02036CEB070C0138E14696E7A7EB9B
:100ED00009094944A8F1020CB1FBFEF909FB04F829
:100EE000DBE773467FE7504666E70846FDE63B448E
:100EF000023A33E7ACF1020C3B441CE749469CE75D
:100F0000A1EB0901C446B1FBFEF909FB04F8C4E7F3
:100F1000704700BF80B584B000AF78607B68DBB2FB
:100F2000FB7307F10F014FF0FF330122034804F078
:100F3000C2FC7B6818461037BD4680BD34030020D4
:100F4000B0B5ADF5487D00AF032387F81F3300230C
:100F5000C7F818330023C7F814336D4A07F53E73FA
:100F600007CA03C31A806B4B07F538741D460FCDB3
:100F70000FC495E8030020600434218002340B0C78
:100F8000237001F036F900F0EBF800F0CFF900F033
:100F9000A7F900F055F900F073F905F0B9FE5E48C5
:100FA00009F0D0F94FF400515C4802F007F803460D
:100FB00087F8133397F813331946594809F05AF94B
:100FC0005849594808F0EAFB0346C7F80C33D7F8EC
:100FD0000C13564809F04EF901225249544807F0C3
:100FE00035FE034687F80B3397F80B331946514803
:100FF00009F040F997F80B33002B16D097F80B3314
:101000000D2B03D14C4809F09DF97CE097F80B3388
:10101000032B03D1494809F095F974E097F80B3395
:101020001946474809F026F96DE0464809F08AF963
:1010300007F144030A224449184607F04DFE0346CF
:1010400087F80A3397F80A331946404809F012F92D
:1010500097F80A33002B4ED13D4BC7F80433D7F82D
:101060000403FFF725F9024607F51E7307F1440054
:10107000D7F8041308F029F9D7F8783297F80A233B
:101080001946344809F0F6F807F14403184608F009
:101090000FFB07F1440301222B49184607F01CFE01
:1010A000034687F80A3397F80A3319462A4809F0A5
:1010B000E1F897F80A33002B1DD107F54873A3F523
:1010C0004773184640231A46002109F01BFA07F51A
:1010D0001D73391D07F144003F2207F0B7FFD7F811
:1010E00074323A1D19461D4809F0C4F807F144034B
:1010F000184608F0DDFA01220A49002007F0A6FD93
:10110000084808F093FB4FF4FA7001F0CFF8FAE7C3
:1011100034C4000840C4000848C200080008024067
:1011200054C20008C8030020F0C4000898C2000898
:10113000CC030020B4C20008D0C200081CC30008C1
:1011400060C3000878C30008A4C30008B0C3000847
:10115000C8C30008E0C3000804C400081CC4000899
:1011600080B594B000AF07F120033022002118466B
:1011700009F0C8F907F10C0300221A605A609A605E
:10118000DA601A6101F04CFF2B4B1B6C2A4A43F0CA
:1011900080531364284B1B6C03F08053BB60BB6807
:1011A000264B1B68254A43F440431360234B1B68BE
:1011B00003F440437B607B6801233B624FF4803340
:1011C0007B620223BB634FF48003FB6319233B6400
:1011D0004FF4D8737B640223BB640923FB6407F1DB
:1011E0002003184601F07CFF0346002B01D000F0DD
:1011F000EFFC01F025FF0346002B01D000F0E8FCD6
:101200000F23FB6002233B6100237B614FF4A0535B
:10121000BB614FF48053FB6107F10C0307211846B3
:1012200002F002FA0346002B01D000F0D1FC00BF0F
:101230005037BD4680BD00BF0038024000700040FE
:1012400080B400AF0C4B0D4A1A600B4B00225A6061
:10125000094B00229A60084B0022DA60064B0022FC
:101260001A61054B00225A61034B00229A6100BFAC
:10127000BD465DF8047B7047F0010020002C014062
:1012800080B500AF144B154A1A60134B4FF4E1328E
:101290005A60114B00229A600F4B0022DA600E4B0D
:1012A00000221A610C4B0C225A610B4B00229A61EE
:1012B000094B0022DA61084B00221A62064B002219
:1012C0005A62054804F0A9FA0346002B01D000F049
:1012D0007FFC00BF80BD00BF340300200010014030
:1012E00080B582B000AF104B1B6B0F4A43F48003F4
:1012F00013630D4B1B6B03F480037B607B68002240
:1013000000213B2001F0D1F83B2001F0EAF8002257
:101310000021452001F0C9F8452001F0E2F800BFA6
:101320000837BD4680BD00BF0038024080B590B090
:1013300000AF07F12C0300221A605A609A60DA604D
:101340001A61AD4B1B6BAC4A43F010031363AA4BFD
:101350001B6B03F01003BB62BB6AA74B1B6BA64A57
:1013600043F040031363A44B1B6B03F040037B6209
:101370007B6AA14B1B6BA04A43F0020313639E4B95
:101380001B6B03F002033B623B6A9B4B1B6B9A4A4D
:1013900043F008031363984B1B6B03F00803FB61D6
:1013A000FB69954B1B6B944A43F004031363924B08
:1013B0001B6B03F00403BB61BB698F4B1B6B8E4A35
:1013C00043F0010313638C4B1B6B03F001037B6140
:1013D0007B69894B1B6B884A43F400731363864B0C
:1013E0001B6B03F400733B613B69834B1B6B824AAD
:1013F00043F480731363804B1B6B03F48073FB60B7
:10140000FB687D4B1B6B7C4A43F4806313637A4B10
:101410001B6B03F48063BB60BB68774B1B6B764A26
:1014200043F020031363744B1B6B03F020037B60BA
:101430007B68714B1B6B704A43F0800313636E4BE8
:101440001B6B03F080033B603B68012220216B484B
:1014500001F0CCFD002241F20C01694801F0C6FD0B
:1014600000220821674801F0C1FD00224FF400511D
:10147000654801F0BBFD0022C821644801F0B6FDBB
:101480001023FB6202233B6300237B630023BB63C7
:101490000E23FB6307F12C0319465D4801F0E2FBC4
:1014A0000823FB6200233B6300237B6307F12C03CB
:1014B0001946574801F0D6FB0423FB6202233B6325
:1014C00000237B630323BB630923FB6307F12C0326
:1014D00019464F4801F0C6FB4FF4D043FB6202238C
:1014E0003B6300237B630323BB630B23FB6307F195
:1014F0002C031946454801F0B5FB4FF68373FB6298
:1015000002233B6300237B630323BB630C23FB6346
:1015100007F12C0319463E4801F0A4FB4FF4407339
:10152000FB6212233B6300237B630023BB63042322
:10153000FB6307F12C031946364801F093FB43F691
:101540002343FB6202233B6300237B630323BB63D0
:101550000A23FB6307F12C0319462E4801F082FB96
:101560001023FB6202233B6300237B630023BB63E6
:101570000223FB6307F12C031946264801F072FB96
:101580008023FB6202233B6300237B630023BB6356
:101590000823FB6307F12C031946184801F062FB8E
:1015A0004FF40043FB6202233B6300237B63002371
:1015B000BB630123FB6307F12C031946164801F0B6
:1015C00051FB6023FB6202233B6300237B63002308
:1015D000BB630D23FB6307F12C0319460C4801F094
:1015E00041FB4023FB6202233B6300237B63032315
:1015F000BB630A23FB6311E000380240000C024089
:101600000020024000280240001C02400018024056
:1016100000100240000402400000024007F12C03C9
:101620001946BD4801F01EFB48F23313FB6202234A
:101630003B6300237B630323BB630C23FB6307F142
:101640002C031946B54801F00DFB4EF6FF73FB6203
:1016500002233B6300237B630023BB630E23FB63F6
:1016600007F12C031946AE4801F0FCFA4FF4805301
:10167000FB6200233B6300237B6307F12C031946C5
:10168000A74801F0EFFA4023FB624FF490133B634D
:1016900000237B6307F12C031946A24801F0E2FA0C
:1016A0004CF20373FB6202233B6300237B6303233F
:1016B000BB630C23FB6307F12C031946994801F027
:1016C000D1FA4FF4E053FB6202233B6300237B63B8
:1016D0000323BB630A23FB6307F12C0319469248DB
:1016E00001F0C0FAF023FB6202233B6300237B631B
:1016F0000023BB630A23FB6307F12C0319468B48C5
:1017000001F0B0FAF723FB6202233B6300237B6303
:101710000023BB630E23FB6307F12C0319468448A7
:1017200001F0A0FA4FF48053FB6202233B630023D5
:101730007B630023BB630923FB6307F12C0319467A
:10174000764801F08FFA4FF48063FB6202233B631B
:1017500000237B630023BB630A23FB6307F12C0395
:1017600019466E4801F07EFA2023FB6201233B6399
:1017700000237B630023BB6307F12C0319466948F0
:1017800001F070FA0823FB6202233B6300237B63B2
:101790000023BB630D23FB6307F12C03194661484B
:1017A00001F060FA41F20C03FB6201233B6300236A
:1017B0007B630023BB6307F12C0319465B4801F0F0
:1017C00051FA4FF40053FB6200233B6300237B6319
:1017D00007F12C031946574801F044FA4FF63F032E
:1017E000FB6202233B6300237B630323BB630C2365
:1017F000FB6307F12C0319464F4801F033FA4FF40D
:101800004643FB6202233B6300237B630023BB63ED
:101810000E23FB6307F12C031946444801F022FA1A
:101820000823FB6201233B6300237B630023BB632C
:1018300007F12C0319463E4801F014FA4FF40073E7
:10184000FB6202233B6300237B630023BB630D2306
:10185000FB6307F12C031946304801F003FA10230B
:10186000FB6200233B6300237B6307F12C031946D3
:101870002C4801F0F7F948F20403FB6200233B63B4
:1018800000237B6307F12C0319462C4801F0EAF989
:101890000223FB6202233B6300237B630023BB63C1
:1018A0000523FB6307F12C031946204801F0DAF900
:1018B0004FF40053FB6201233B6300237B6300234F
:1018C000BB6307F12C0319461C4801F0CBF94FF418
:1018D000BC43FB6202233B6300237B630023BB63A7
:1018E0000D23FB6307F12C031946144801F0BAF9E4
:1018F0000123FB6202233B6300237B630023BB6362
:101900000223FB6307F12C031946084801F0AAF9EA
:101910004FF4807314E000BF00040240001802403E
:1019200000240240000C024000000240002002405F
:10193000002802400008024000140240001C02403F
:10194000FB6202233B6300237B630023BB63012311
:10195000FB6307F12C031946954801F083F94FF416
:101960000053FB624FF490133B6300237B6307F14A
:101970002C0319468F4801F075F9C023FB6202233E
:101980003B6300237B630323BB630823FB6307F1F3
:101990002C031946884801F065F91023FB620223E5
:1019A0003B6300237B630323BB630A23FB6307F1D1
:1019B0002C031946814801F055F92823FB620223C4
:1019C0003B6300237B630323BB630C23FB6307F1AF
:1019D0002C031946794801F045F9C823FB6201231D
:1019E0003B6300237B630023BB6307F12C03194691
:1019F000734801F037F94FF4F863FB6203233B634C
:101A000000237B6307F12C0319466E4801F02AF985
:101A10000823FB6202233B6300237B630323BB6336
:101A20000C23FB6307F12C031946634801F01AF9F4
:101A30000523FB6202233B6300237B630323BB6319
:101A40000A23FB6307F12C0319465B4801F00AF9EE
:101A50003223FB6202233B6300237B630323BB63CC
:101A60000B23FB6307F12C031946534801F0FAF8E6
:101A70000423FB6202233B6300237B630323BB63DA
:101A80000923FB6307F12C0319464F4801F0EAF8DC
:101A90004FF46053FB6202233B6300237B63032309
:101AA000BB630923FB6307F12C031946474801F088
:101AB000D9F80423FB6200233B6300237B6307F117
:101AC0002C0319463E4801F0CDF88623FB62022321
:101AD0003B6300237B630323BB630B23FB6307F19F
:101AE0002C031946324801F0BDF80123FB620323A1
:101AF0003B6300237B6307F12C0319462C4801F05C
:101B0000B1F85023FB6202233B6300237B63002375
:101B1000BB630D23FB6307F12C031946244801F036
:101B2000A1F84FF4C073FB6212233B6300237B6375
:101B30000323BB630423FB6307F12C0319461F48EF
:101B400001F090F82823FB6202233B6300237B63B0
:101B50000323BB630A23FB6307F12C0319461448D4
:101B600001F080F84023FB6202233B6300237B6388
:101B70000023BB630923FB6307F12C0319460F48BD
:101B800001F070F84FF44043FB6202233B630023F3
:101B90007B630023BB630523FB6307F12C0319461A
:101BA000094801F05FF800BF4037BD4680BD00BF67
:101BB000000002400020024000080240001C0240D9
:101BC000001802400014024000040240000C0240D1
:101BD00080B500AF044808F0B5FB72B600BFFA202C
:101BE00000F064FBFBE700BF58C4000880B483B07A
:101BF00000AF0F4B1B6C0E4A43F0805313640C4B29
:101C00001B6C03F080537B607B68094B5B6C084A5C
:101C100043F480435364064B5B6C03F480433B60A6
:101C20003B6800BF0C37BD465DF8047B704700BFC2
:101C30000038024080B5ACB000AF786007F19C037B
:101C400000221A605A609A60DA601A6107F118037C
:101C500084220021184608F055FC7B681B68744AF2
:101C6000934240F0E0804FF42003BB610023C7F8AB
:101C700094300023C7F8983007F11803184601F094
:101C8000B9FE0346002B01D0FFF7A2FF694B5B6C46
:101C9000684A43F400635364664B5B6C03F400636F
:101CA0007B617B69634B1B6B624A43F004031363E4
:101CB000604B1B6B03F004033B613B695D4B1B6B8B
:101CC0005C4A43F0080313635A4B1B6B03F0080391
:101CD000FB60FB684FF4F853C7F89C300223C7F849
:101CE000A0300023C7F8A4300323C7F8A8300C2382
:101CF000C7F8AC3007F19C0319464F4800F0B2FF1B
:101D00000423C7F89C300223C7F8A0300023C7F88B
:101D1000A4300323C7F8A8300C23C7F8AC3007F170
:101D20009C031946454800F09DFF454B454A1A6003
:101D3000434B4FF000625A60414B00229A60404B87
:101D40000022DA603E4B4FF480621A613C4B4FF444
:101D500080525A613A4B4FF480429A61384B2022AC
:101D6000DA61374B00221A62354B04225A62344B37
:101D700003229A62324B4FF40002DA62304B4FF486
:101D800000121A632E4800F0C7FB0346002B01D057
:101D9000FFF71EFF7B682A4A1A64294A7B6893630F
:101DA000294B2A4A1A60284B4FF000625A60264B92
:101DB00040229A60244B0022DA60234B4FF4806269
:101DC0001A61214B4FF480525A611F4B4FF48042ED
:101DD0009A611D4B2022DA611B4B00221A621A4BBA
:101DE00004225A62184B03229A62174B4FF40002E6
:101DF000DA62154B4FF400121A63134800F08CFBA3
:101E00000346002B01D0FFF7E3FE7B680E4ADA633E
:101E10000D4A7B68936300220021312000F045FBCE
:101E2000312000F05EFB00BFB037BD4680BD00BF73
:101E3000002C01400038024000080240000C024023
:101E40007402002058640240D4020020A0640240C2
:101E500080B5ACB000AF786007F19C0300221A6037
:101E60005A609A60DA601A6107F11803842200212F
:101E7000184608F047FB7B681B68324A93425CD1E6
:101E80004023BB610023FB6507F11803184601F0EE
:101E9000B1FD0346002B01D0FFF79AFE2A4B5B6C85
:101EA000294A43F010035364274B5B6C03F0100383
:101EB0007B617B69244B1B6B234A43F00203136352
:101EC000214B1B6B03F002033B613B691E4B1B6BF9
:101ED0001D4A43F0010313631B4B1B6B03F001030B
:101EE000FB60FB688023C7F89C300223C7F8A03052
:101EF0000023C7F8A4300023C7F8A8300723C7F889
:101F0000AC3007F19C031946104800F0ABFE4FF4CB
:101F10000073C7F89C300223C7F8A0300023C7F82D
:101F2000A4300023C7F8A8300723C7F8AC3007F166
:101F30009C031946064800F095FE00BFB037BD4629
:101F400080BD00BF00100140003802400004024084
:101F50000000024080B400AF00BFFDE780B400AFD6
:101F600000BFFDE780B400AF00BFFDE780B400AF65
:101F700000BFFDE780B400AF00BFFDE780B400AF55
:101F800000BFBD465DF8047B704780B400AF00BF62
:101F9000BD465DF8047B704780B400AF00BFBD460E
:101FA0005DF8047B704780B500AF00F05FF900BFBB
:101FB00080BD000080B500AF024802F083FB00BF87
:101FC00080BD00BFF001002080B500AF024800F0E6
:101FD000D3FB00BF80BD00BF7402002080B500AFFE
:101FE000024800F0C9FB00BF80BD00BFD402002042
:101FF00080B400AF01231846BD465DF8047B7047EE
:1020000080B582B000AF7860396008F0CDFA034641
:1020100016221A604FF0FF3318460837BD4680BDC0
:1020200080B582B000AF78604FF0FF317868FFF77D
:10203000E7FF00BFFDE780B586B000AFF860B9608C
:102040007A6000237B610AE0AFF300800146BB6841
:102050005A1CBA60CAB21A707B6901337B617A6913
:102060007B689A42F0DB7B6818461837BD4680BD16
:1020700080B586B000AFF860B9607A6000237B61FC
:1020800009E0BB685A1CBA601B781846FEF742FF8D
:102090007B6901337B617A697B689A42F1DB7B68FB
:1020A00018461837BD4680BD80B483B000AF786055
:1020B0004FF0FF3318460C37BD465DF8047B704780
:1020C00080B483B000AF786039603B684FF4005251
:1020D0005A60002318460C37BD465DF8047B7047F4
:1020E00080B483B000AF7860012318460C37BD463A
:1020F0005DF8047B704780B485B000AFF860B960CC
:102100007A60002318461437BD465DF8047B70479B
:1021100080B586B000AF7860144A154BD31A7B6146
:102120007B693B61134B1B68002B02D1114B124A98
:102130001A60104B1A687B6813443A699A4207D2B6
:1021400008F032FA03460C221A604FF0FF3309E020
:10215000084B1B68FB60074B1A687B681344054AF1
:102160001360FB6818461837BD4680BD0000052087
:1021700000080000BC0300208807002080B400AFE6
:10218000064BD3F88830054A43F47003C2F8883010
:1021900000BFBD465DF8047B704700BF00ED00E066
:1021A000DFF834D0FFF7EAFF0C480D490D4A002351
:1021B00002E0D458C4500433C4188C42F9D30A4AFC
:1021C0000A4C002301E013600432A242FBD308F062
:1021D000F1F9FEF7B5FE7047000005200000002071
:1021E000D40100200CC90008D4010020840700207D
:1021F000FEE780B500AF032000F04CF9002000F0AE
:1022000005F8FFF7F3FC0023184680BD80B582B0C7
:1022100000AF7860124B1A68124B1B7819464FF4C6
:102220007A73B3FBF1F3B2FBF3F3184600F067F9EE
:102230000346002B01D001230EE07B680F2B0AD848
:10224000002279684FF0FF3000F02FF9064A7B68D2
:102250001360002300E0012318460837BD4680BD07
:1022600000000020080000200400002080B400AF1F
:10227000064B1B781A46064B1B681344044A13602E
:1022800000BFBD465DF8047B704700BF080000201A
:10229000C003002080B400AF034B1B681846BD4646
:1022A0005DF8047B704700BFC003002080B584B098
:1022B00000AF7860FFF7EEFFB8607B68FB60FB68FB
:1022C000B3F1FF3F05D00A4B1B781A46FB68134455
:1022D000FB6000BFFFF7DEFF0246BB68D31AFA6857
:1022E0009A42F7D800BF00BF1037BD4680BD00BF7F
:1022F0000800002080B485B000AF78607B6803F0F0
:102300000703FB600B4BDB68BB60BA684FF6FF034B
:102310001340BB60FB681A02BB681A43064B1343A9
:10232000BB60044ABB68D36000BF1437BD465DF88C
:10233000047B704700ED00E00000FA0580B400AFB8
:10234000044BDB681B0A03F007031846BD465DF823
:10235000047B704700ED00E080B483B000AF03461B
:10236000FB7197F90730002B0BDBFB7903F01F02A1
:10237000074997F907305B09012000FA02F241F89A
:10238000232000BF0C37BD465DF8047B704700BFBB
:1023900000E100E080B483B000AF03463960FB7118
:1023A00097F90730002B0ADB3B68DAB20C4997F942
:1023B00007301201D2B20B4483F800230AE03B68D5
:1023C000DAB20849FB7903F00F03043B1201D2B2E1
:1023D0000B441A7600BF0C37BD465DF8047B70478E
:1023E00000E100E000ED00E080B489B000AFF860EB
:1023F000B9607A60FB6803F00703FB61FB69C3F116
:102400000703042B28BF0423BB61FB690433062B9D
:1024100002D9FB69033B00E000237B614FF0FF32F0
:10242000BB6902FA03F3DA43BB681A407B699A403E
:102430004FF0FF317B6901FA03F3D9437B680B400E
:10244000134318462437BD465DF8047B70470000EF
:1024500080B582B000AF78607B68013BB3F1807FCC
:1024600001D301230FE00A4A7B68013B53600F212F
:102470004FF0FF30FFF78EFF054B00229A60044BB0
:1024800007221A60002318460837BD4680BD00BFEA
:1024900010E000E080B582B000AF78607868FFF7A8
:1024A00029FF00BF0837BD4680BD80B586B000AFAC
:1024B0000346B9607A60FB7300237B61FFF73EFF40
:1024C00078617A68B9687869FFF78EFF024697F9F4
:1024D0000F3011461846FFF75DFF00BF1837BD46A5
:1024E00080BD80B582B000AF0346FB7197F907301D
:1024F0001846FFF731FF00BF0837BD4680BD80B5E5
:1025000082B000AF78607868FFF7A2FF03461846F4
:102510000837BD4680BD000080B586B000AF78604A
:1025200000237B61FFF7B6FE38617B68002B01D189
:10253000012399E07B68022283F835207B68002222
:1025400083F834207B681B681A687B681B6822F05C
:1025500001021A600FE0FFF79DFE02463B69D31AA5
:10256000052B08D97B6820225A657B68032283F8F3
:102570003520032378E07B681B681B6803F00103A8
:10258000002BE8D17B681B681B687B617A69384B3C
:1025900013407B617B685A687B689B681A437B6841
:1025A000DB681A437B681B691A437B685B691A43C3
:1025B0007B689B691A437B68DB691A437B681B6AEB
:1025C00013437A6913437B617B685B6A042B07D1F1
:1025D0007B68DA6A7B681B6B13437A6913437B6100
:1025E0007B681B687A691A607B681B685B697B6122
:1025F0007B6923F007037B617B685B6A7A6913431D
:102600007B617B685B6A042B17D17B689B6A7A6964
:1026100013437B617B68DB6A002B0ED0786800F087
:10262000A5FA0346002B08D07B6840225A657B68D8
:10263000002283F83520012316E07B681B687A6945
:102640005A61786800F05CFA0346FB607B68DB6DDA
:102650003F229A40FB689A607B6800225A657B683B
:10266000012283F83520002318461837BD4680BD67
:102670003F8010F080B586B000AFF860B9607A6036
:102680003B600023FB75FB689B6D3B61FB6893F827
:102690003430012B01D1022348E0FB68012283F88A
:1026A0003420FB6893F83530DBB2012B37D1FB685F
:1026B000022283F83520FB6800225A653B687A685D
:1026C000B968F86800F0EEF9FB68DB6D3F229A40CC
:1026D0003B699A60FB681B681A68FB681B6842F0DC
:1026E00016021A60FB681B685A69FB681B6842F097
:1026F00080025A61FB681B6C002B07D0FB681B68CB
:102700001A68FB681B6842F008021A60FB681B68C5
:102710001A68FB681B6842F001021A6005E0FB685A
:10272000002283F834200223FB75FB7D18461837FE
:10273000BD4680BD80B483B000AF78607B6893F8FD
:102740003530DBB2022B04D07B6880225A6501232E
:102750000CE07B68052283F835207B681B681A68CB
:102760007B681B6822F001021A60002318460C37B0
:10277000BD465DF8047B704780B586B000AF7860D9
:102780000023BB608E4B1B688E4AA2FB03239B0A6F
:102790007B617B689B6D3B613B691B68FB607B6871
:1027A000DB6D08229A40FB681340002B1AD07B682F
:1027B0001B681B6803F00403002B13D07B681B68A5
:1027C0001A687B681B6822F004021A607B68DB6D64
:1027D00008229A403B699A607B685B6D43F0010276
:1027E0007B685A657B68DB6D01229A40FB68134069
:1027F000002B12D07B681B685B6903F08003002B01
:102800000BD07B68DB6D01229A403B699A607B6844
:102810005B6D43F002027B685A657B68DB6D0422C6
:102820009A40FB681340002B12D07B681B681B6822
:1028300003F00203002B0BD07B68DB6D04229A406F
:102840003B699A607B685B6D43F004027B685A6564
:102850007B68DB6D10229A40FB681340002B43D04D
:102860007B681B681B6803F00803002B3CD07B6867
:10287000DB6D10229A403B699A607B681B681B687D
:1028800003F48023002B18D07B681B681B6803F4BB
:102890000023002B08D17B681B6C002B24D07B68A5
:1028A0001B6C786898471FE07B689B6C002B1BD0E3
:1028B0007B689B6C7868984716E07B681B681B6890
:1028C00003F48073002B07D17B681B681A687B6850
:1028D0001B6822F008021A607B681B6C002B03D077
:1028E0007B681B6C786898477B68DB6D20229A4078
:1028F000FB681340002B00F08F807B681B681B680F
:1029000003F01003002B00F087807B68DB6D202232
:102910009A403B699A607B6893F83530DBB2052BAF
:1029200036D17B681B681A687B681B6822F0160228
:102930001A607B681B685A697B681B6822F08002FA
:102940005A617B681B6C002B03D17B689B6C002B4E
:1029500007D07B681B681A687B681B6822F0080236
:102960001A607B68DB6D3F229A403B699A607B6806
:10297000012283F835207B68002283F834207B68AD
:102980001B6D002B7ED07B681B6D7868984779E0C3
:102990007B681B681B6803F48023002B1DD07B68B9
:1029A0001B681B6803F40023002B0DD17B685B6C54
:1029B000002B31D07B685B6C786898472CE000BFB7
:1029C00000000020B5814E1B7B68DB6B002B23D001
:1029D0007B68DB6B786898471EE07B681B681B6828
:1029E00003F48073002B0FD17B681B681A687B6827
:1029F0001B6822F010021A607B68012283F83520E0
:102A00007B68002283F834207B68DB6B002B03D0CB
:102A10007B68DB6B786898477B685B6D002B32D0F6
:102A20007B685B6D03F00103002B22D07B680522DD
:102A300083F835207B681B681A687B681B6822F066
:102A400001021A60BB680133BB607A699A4207D3FE
:102A50007B681B681B6803F00103002BF2D100E0C8
:102A600000BF7B68012283F835207B68002283F851
:102A700034207B68DB6C002B05D07B68DB6C7868CE
:102A8000984700E000BF1837BD4680BD80B483B0D2
:102A900000AF78607B685B6D18460C37BD465DF80B
:102AA000047B704780B485B000AFF860B9607A608D
:102AB0003B60FB681B681A68FB681B6822F4802275
:102AC0001A60FB681B683A685A60FB689B68402B79
:102AD00008D1FB681B687A689A60FB681B68BA6853
:102AE000DA6007E0FB681B68BA689A60FB681B68DD
:102AF0007A68DA6000BF1437BD465DF8047B704722
:102B000080B485B000AF78607B681B68DBB2103B97
:102B1000134AA2FB03231B09FB60124AFB68134400
:102B20001B781A467B68DA65FB68032B08D97B683B
:102B30001B681A460C4B13401A1D7B689A6506E009
:102B40007B681B681A46084B13407A6893657B685C
:102B50009B6D18461437BD465DF8047B704700BF77
:102B6000ABAAAAAAE8C4000800FCFFFF80B485B0A5
:102B700000AF78600023FB737B689B6ABB607B6857
:102B80009B69002B1FD1BB68032B56D801A252F8BA
:102B900023F000BFA52B0008B72B0008A52B0008C9
:102BA0003B2C00087B68DB6A03F08073002B46D067
:102BB0000123FB7343E07B68DB6AB3F1C07F40D144
:102BC0000123FB733DE07B689B69B3F5005F21D176
:102BD000BB68032B37D801A252F823F0ED2B000875
:102BE000F32B0008ED2B0008052C00080123FB73D4
:102BF00030E07B68DB6A03F08073002B25D0012373
:102C0000FB7322E07B68DB6AB3F1C07F1FD1012335
:102C1000FB731CE0BB68022B03D9BB68032B03D0FA
:102C200018E00123FB7315E07B68DB6A03F0807317
:102C3000002B0ED00123FB730BE000BF0AE000BFA6
:102C400008E000BF06E000BF04E000BF02E000BFF4
:102C500000E000BFFB7B18461437BD465DF8047BDF
:102C6000704700BF80B489B000AF7860396000233E
:102C7000FB6100237B6100233B610023BB610023D8
:102C8000FB6175E10122FB6902FA03F37B613B689A
:102C90001B687A6913403B613A697B699A4240F04C
:102CA00064813B685B6803F00303012B05D03B683C
:102CB0005B6803F00303022B30D17B689B68BB6128
:102CC000FB695B00032202FA03F3DB43BA6913409A
:102CD000BB613B68DA68FB695B0002FA03F3BA691F
:102CE0001343BB617B68BA699A607B685B68BB61B0
:102CF0000122FB6902FA03F3DB43BA691340BB61AB
:102D00003B685B681B0903F00102FB6902FA03F3ED
:102D1000BA691343BB617B68BA695A603B685B68F8
:102D200003F00303032B17D07B68DB68BB61FB69EF
:102D30005B00032202FA03F3DB43BA691340BB6171
:102D40003B689A68FB695B0002FA03F3BA691343B4
:102D5000BB617B68BA69DA603B685B6803F00303B8
:102D6000022B23D1FB69DA087B68083253F8223042
:102D7000BB61FB6903F007039B000F2202FA03F318
:102D8000DB43BA691340BB613B681A69FB6903F016
:102D900007039B0002FA03F3BA691343BB61FB69A3
:102DA000DA087B680832B96943F822107B681B682F
:102DB000BB61FB695B00032202FA03F3DB43BA69E0
:102DC0001340BB613B685B6803F00302FB695B0077
:102DD00002FA03F3BA691343BB617B68BA691A60EC
:102DE0003B685B6803F44033002B00F0BE80664B09
:102DF0005B6C654A43F480435364634B5B6C03F440
:102E00008043FB60FB68614AFB699B08023352F810
:102E10002330BB61FB6903F003039B000F2202FA1E
:102E200003F3DB43BA691340BB617B68584A9342A2
:102E300037D07B68574A934231D07B68564A9342D9
:102E40002BD07B68554A934225D07B68544A9342E5
:102E50001FD07B68534A934219D07B68524A9342F1
:102E600013D07B68514A93420DD07B68504A9342FD
:102E700007D07B684F4A934201D1092312E00A230D
:102E800010E008230EE007230CE006230AE00523E8
:102E900008E0042306E0032304E0022302E0012308
:102EA00000E00023FA6902F0030292009340BA693D
:102EB0001343BB613549FB699B080233BA6941F88A
:102EC00023203D4B9B68BB613B69DB43BA691340E0
:102ED000BB613B685B6803F48013002B03D0BA69C5
:102EE0003B691343BB61344ABB699360324BDB6877
:102EF000BB613B69DB43BA691340BB613B685B68FC
:102F000003F40013002B03D0BA693B691343BB6180
:102F1000294ABB69D360284B5B68BB613B69DB43D3
:102F2000BA691340BB613B685B6803F40033002B54
:102F300003D0BA693B691343BB611F4ABB69536045
:102F40001D4B1B68BB613B69DB43BA691340BB6126
:102F50003B685B6803F48033002B03D0BA693B699C
:102F60001343BB61144ABB691360FB690133FB6106
:102F7000FB690F2B7FF686AE00BF00BF2437BD462E
:102F80005DF8047B704700BF003802400038014004
:102F9000000002400004024000080240000C024011
:102FA000001002400014024000180240001C0240C1
:102FB0000020024000240240003C014080B485B063
:102FC00000AF78600B467B807B681A697B88134072
:102FD000002B02D00123FB7301E00023FB73FB7B7A
:102FE00018461437BD465DF8047B704780B483B043
:102FF00000AF78600B467B8013467B707B78002B9C
:1030000003D07A887B689A6103E07B881A047B6826
:103010009A6100BF0C37BD465DF8047B7047000025
:1030200080B400AF054B1B68044A43F480731360FF
:1030300000BFBD465DF8047B704700BF00700040D4
:1030400080B582B000AF00237B60234B1B6C224A0B
:1030500043F080531364204B1B6C03F080533B60A0
:103060003B681E4B1B681D4A43F480331360FFF717
:1030700011F9786009E0FFF70DF902467B68D31A71
:10308000B3F57A7F01D9032322E0144B5B6803F484
:103090008033B3F5803FEED1104B1B680F4A43F4E9
:1030A00000331360FFF7F6F8786009E0FFF7F2F8F5
:1030B00002467B68D31AB3F57A7F01D9032307E070
:1030C000064B5B6803F40033B3F5003FEED10023F9
:1030D00018460837BD4680BD0038024000700040E9
:1030E00080B586B000AF78600023FB757B68002B4D
:1030F00001D1012391E27B681B6803F00103002BDF
:1031000000F08780964B9B6803F00C03042B0CD0D7
:10311000934B9B6803F00C03082B12D1904B5B6818
:1031200003F48003B3F5800F0BD18D4B1B6803F4C0
:103130000033002B6CD07B685B68002B68D10123C7
:103140006BE27B685B68B3F5803F06D1844B1B68FC
:10315000834A43F4803313602EE07B685B68002B66
:103160000CD17F4B1B687E4A23F4803313607C4B69
:103170001B687B4A23F4802313601DE07B685B6837
:10318000B3F5A02F0CD1764B1B68754A43F480230E
:103190001360734B1B68724A43F4803313600BE077
:1031A0006F4B1B686E4A23F4803313606C4B1B68B3
:1031B0006B4A23F4802313607B685B68002B13D079
:1031C000FFF768F8386108E0FFF764F802463B69EA
:1031D000D31A642B01D903231FE2614B1B6803F44C
:1031E0000033002BF0D014E0FFF754F8386108E00A
:1031F000FFF750F802463B69D31A642B01D9032329
:103200000BE2574B1B6803F40033002BF0D100E0B6
:1032100000BF7B681B6803F00203002B69D0504B92
:103220009B6803F00C03002B0BD04D4B9B6803F005
:103230000C03082B1CD14A4B5B6803F48003002B62
:1032400016D1474B1B6803F00203002B05D07B68A7
:10325000DB68012B01D00123DFE1414B1B6823F028
:10326000F8027B681B69DB003D4913430B6040E0BB
:103270007B68DB68002B23D0394B1B68384A43F04E
:1032800001031360FFF706F8386108E0FFF702F862
:1032900002463B69D31A022B01D90323BDE1304B0F
:1032A0001B6803F00203002BF0D02D4B1B6823F0AA
:1032B000F8027B681B69DB00294913430B6018E0A7
:1032C000274B1B68264A23F001031360FEF7E2FF39
:1032D000386108E0FEF7DEFF02463B69D31A022B95
:1032E00001D9032399E11E4B1B6803F00203002B55
:1032F000F0D17B681B6803F00803002B38D07B6893
:103300005B69002B19D0164B5B6F154A43F0010324
:103310005367FEF7BFFF386108E0FEF7BBFF0246C8
:103320003B69D31A022B01D9032376E10C4B5B6F67
:1033300003F00203002BF0D01AE0094B5B6F084A40
:1033400023F001035367FEF7A5FF38610AE0FEF79B
:10335000A1FF02463B69D31A022B03D903235CE188
:1033600000380240914B5B6F03F00203002BEED15B
:103370007B681B6803F00403002B00F0A4808B4BD8
:103380001B6C03F08053002B0DD1884B1B6C874ABC
:1033900043F080531364854B1B6C03F08053BB6078
:1033A000BB680123FB75824B1B6803F48073002B01
:1033B00018D17F4B1B687E4A43F480731360FEF77D
:1033C00069FF386108E0FEF765FF02463B69D31AE2
:1033D000642B01D9032320E1754B1B6803F4807330
:1033E000002BF0D07B689B68012B06D16F4B1B6FC5
:1033F0006E4A43F0010313672DE07B689B68002B46
:103400000CD16A4B1B6F694A23F001031367674BAA
:103410001B6F664A23F0040313671CE07B689B68FC
:10342000052B0CD1614B1B6F604A43F004031367FB
:103430005E4B1B6F5D4A43F0010313670BE05B4B70
:103440001B6F5A4A23F001031367584B1B6F574AEF
:1034500023F0040313677B689B68002B15D0FEF7ED
:1034600019FF38610AE0FEF715FF02463B69D31ADF
:1034700041F28832934201D90323CEE04B4B1B6FBC
:1034800003F00203002BEED014E0FEF703FF3861D7
:103490000AE0FEF7FFFE02463B69D31A41F288328A
:1034A000934201D90323B8E0404B1B6F03F00203A2
:1034B000002BEED1FB7D012B05D13C4B1B6C3B4A15
:1034C00023F0805313647B689B69002B00F0A48079
:1034D000364B9B6803F00C03082B6BD07B689B6911
:1034E000022B49D1314B1B68304A23F080731360A3
:1034F000FEF7D0FE386108E0FEF7CCFE02463B69DD
:10350000D31A022B01D9032387E0284B1B6803F051
:103510000073002BF0D17B68DA697B681B6A1A4361
:103520007B685B6A9B011A437B689B6A5B08013B73
:103530001B041A437B68DB6A1B0613431B4A43F0D8
:1035400000535360194B1B68184A43F08073136093
:10355000FEF7A0FE386108E0FEF79CFE02463B69DC
:10356000D31A022B01D9032357E0104B1B6803F039
:103570000073002BF0D04FE00C4B1B680B4A23F07C
:1035800080731360FEF786FE386108E0FEF782FE66
:1035900002463B69D31A022B01D903233DE0034BBA
:1035A0001B6803F00073002BF0D135E000380240B7
:1035B000007000401B4B5B68FB607B689B69012BC4
:1035C00028D0FB6803F480027B68DB699A4221D132
:1035D000FB6803F03F027B681B6A9A421AD1FA68C3
:1035E00047F6C07313407A68526A9201934211D130
:1035F000FB6803F440327B689B6A5B08013B1B0459
:103600009A4207D1FB6803F070627B68DB6A1B0695
:103610009A4201D0012300E0002318461837BD4626
:1036200080BD00BF0038024080B584B000AF786034
:1036300039600023FB607B68002B01D10123D0E0BF
:103640006A4B1B6803F00F033A689A4210D9674B24
:103650001B6823F00F0265493B6813430B60634B03
:103660001B6803F00F033A689A4201D00123B8E0C7
:103670007B681B6803F00203002B20D07B681B686B
:1036800003F00403002B05D0594B9B68584A43F4C0
:10369000E05393607B681B6803F00803002B05D0A0
:1036A000534B9B68524A43F460439360504B9B6872
:1036B00023F0F0027B689B684D4913438B607B6865
:1036C0001B6803F00103002B40D07B685B68012B73
:1036D00007D1474B1B6803F40033002B15D101239E
:1036E0007FE07B685B68022B07D1414B1B6803F0CE
:1036F0000073002B09D1012373E03D4B1B6803F0DD
:103700000203002B01D101236BE0394B9B6823F0AE
:1037100003027B685B68364913438B60FEF7BAFD92
:10372000F8600AE0FEF7B6FD0246FB68D31A41F2E4
:103730008832934201D9032353E02D4B9B6803F059
:103740000C027B685B689B009A42EBD1274B1B689D
:1037500003F00F033A689A4210D2244B1B6823F0FF
:103760000F0222493B6813430B60204B1B6803F098
:103770000F033A689A4201D0012332E07B681B684C
:1037800003F00403002B08D0194B9B6823F4E0528C
:103790007B68DB68164913438B607B681B6803F00A
:1037A0000803002B09D0124B9B6823F460427B680E
:1037B0001B69DB000E4913438B6000F021F80246C1
:1037C0000B4B9B681B0903F00F030A49CB5C22FAE1
:1037D00003F3094A1360094B1B681846FEF716FDF0
:1037E000002318461037BD4680BD00BF003C024094
:1037F00000380240D0C4000800000020040000206F
:103800002DE9B04F90B000AF00237B630023FB6332
:1038100000233B630023BB63594B9B6803F00C03FD
:10382000082B0DD0082B00F2A180002B02D0042B16
:1038300003D09BE0534BBB639BE0534BBB6398E0CF
:103840004F4B5B6803F03F037B634D4B5B6803F4B6
:103850008003002B28D04A4B5B689B0900223B6207
:103860007A623B6AC3F308000021474B03FB01F275
:10387000002300FB03F31344434AA0FB0212FA6245
:103880000A46BA62FA6A1344FB627B6B0022BB6190
:10389000FA61D7E90623D7E90A01FDF7A5F902463F
:1038A0000B461346FB6353E0354B5B689B090022D4
:1038B0003B617A613B69C3F3080A4FF0000B524643
:1038C0005B464FF000004FF00001590141EAD26120
:1038D000500102460B46B2EB0A0863EB0B094FF0AE
:1038E00000024FF000034FEA891343EA98634FEA5E
:1038F0008812B2EB080463EB09054FF000024FF0A9
:103900000003EB0043EA5473E20014461D4614EB37
:103910000A033B6045EB0B037B604FF000024FF066
:103920000003D7E9004529468B02214643EA91531B
:1039300021468A02104619467B6B0022BB60FA6062
:10394000D7E90223FDF750F902460B461346FB6305
:103950000B4B5B681B0C03F0030301335B003B6301
:10396000FA6B3B6BB2FBF3F3BB6302E0054BBB634B
:1039700000BFBB6B18464037BD46BDE8B08F00BFE7
:10398000003802400024F40040787D0180B400AF8C
:10399000034B1B681846BD465DF8047B704700BFAB
:1039A0000000002080B500AFFFF7F0FF0246054B96
:1039B0009B689B0A03F007030349CB5C22FA03F3DD
:1039C000184680BD00380240E0C4000880B500AF52
:1039D000FFF7DCFF0246054B9B685B0B03F0070318
:1039E0000349CB5C22FA03F3184680BD003802403D
:1039F000E0C4000880B588B000AF786000237B6128
:103A000000233B610023FB600023FB610023BB61BB
:103A10007B681B6803F00103002B12D0694B9B6885
:103A2000684A23F400039360664B9A687B685B6B7B
:103A3000644913438B607B685B6B002B01D10123CE
:103A4000FB617B681B6803F40023002B17D05D4BE0
:103A5000D3F88C3023F440127B68DB6B5949134355
:103A6000C1F88C307B68DB6BB3F5801F01D101237B
:103A7000FB617B68DB6B002B01D10123BB617B68A1
:103A80001B6803F48013002B17D04E4BD3F88C30F7
:103A900023F440027B681B6C4A491343C1F88C3005
:103AA0007B681B6CB3F5800F01D10123FB617B6840
:103AB0001B6C002B01D10123BB617B681B6803F0E9
:103AC0008073002B01D00123FB617B681B6803F02E
:103AD0002003002B00F08B803A4B1B6C394A43F0DB
:103AE00080531364374B1B6C03F08053BB60BB687F
:103AF000354B1B68344A43F480731360FEF7CAFBEE
:103B0000786108E0FEF7C6FB02467B69D31A642B96
:103B100001D9032357E32C4B1B6803F48073002B5C
:103B2000F0D0284B1B6F03F440733B613B69002BC3
:103B300035D07B681B6B03F440733A699A422ED0F0
:103B4000204B1B6F23F440733B611E4B1B6F1D4AC0
:103B500043F4803313671B4B1B6F1A4A23F48033E3
:103B60001367184A3B691367164B1B6F03F0010379
:103B7000012B14D1FEF78EFB78610AE0FEF78AFB79
:103B800002467B69D31A41F28832934201D903235A
:103B900019E30C4B1B6F03F00203002BEED07B6884
:103BA0001B6B03F44073B3F5407F11D1054B9B6849
:103BB00023F4F8127B68196B044B0B400149134343
:103BC0008B600BE00038024000700040FFFCFF0FEC
:103BD000AA4B9B68A94A23F4F8139360A74B1A6F6A
:103BE0007B681B6BC3F30B03A44913430B677B6810
:103BF0001B6803F01003002B10D0A04BD3F88C30BF
:103C00009E4A23F08073C2F88C309C4BD3F88C20F2
:103C10007B689B6B99491343C1F88C307B681B68A8
:103C200003F48043002B0AD0944BD3F8903023F454
:103C300040327B685B6E91491343C1F890307B68DA
:103C40001B6803F40043002B0AD08C4BD3F8903050
:103C500023F440227B689B6E88491343C1F890305F
:103C60007B681B6803F48033002B0AD0834BD3F8A6
:103C7000903023F440127B68DB6E80491343C1F817
:103C800090307B681B6803F40033002B0AD07B4B19
:103C9000D3F8903023F440027B681B6F77491343BD
:103CA000C1F890307B681B6803F04003002B0AD0FA
:103CB000724BD3F8903023F003027B685B6C6F4942
:103CC0001343C1F890307B681B6803F08003002B1E
:103CD0000AD06A4BD3F8903023F00C027B689B6CBF
:103CE00066491343C1F890307B681B6803F4807306
:103CF000002B0AD0614BD3F8903023F030027B6860
:103D0000DB6C5E491343C1F890307B681B6803F499
:103D10000073002B0AD0594BD3F8903023F0C00227
:103D20007B681B6D55491343C1F890307B681B6855
:103D300003F48063002B0AD0504BD3F8903023F467
:103D400040727B685B6D4D491343C1F890307B68CE
:103D50001B6803F40063002B0AD0484BD3F8903063
:103D600023F440627B689B6D44491343C1F8903053
:103D70007B681B6803F48053002B0AD03F4BD3F8B9
:103D8000903023F440527B68DB6D3C491343C1F80B
:103D900090307B681B6803F40053002B0AD0374B2C
:103DA000D3F8903023F440427B681B6E33491343B1
:103DB000C1F890307B681B6803F48003002B0AD0A5
:103DC0002E4BD3F8903023F080627B689B6F2B4999
:103DD0001343C1F890307B681B6803F40013002B79
:103DE00011D0264BD3F8903023F000627B68DB6F54
:103DF00022491343C1F890307B68DB6FB3F1006F49
:103E000001D10123BB617B681B6803F00803002B11
:103E100001D00123BB617B681B6803F48023002B66
:103E20000AD0164BD3F8903023F040727B685B6F5A
:103E300012491343C1F890307B681B6803F40003F8
:103E4000002B0BD00D4BD3F8903023F080527B68C1
:103E5000D3F8803009491343C1F89030FB69012B36
:103E600006D07B681B6803F00073002B00F0D9803C
:103E7000024B1B68014A23F0806301E000380240D6
:103E80001360FEF707FA786108E0FEF703FA0246CE
:103E90007B69D31A642B01D9032394E16C4B1B6813
:103EA00003F00063002BF0D17B681B6803F0010373
:103EB000002B21D07B685B6B002B1DD1644BD3F8AA
:103EC00084301B0C03F003033B61614BD3F8843057
:103ED0001B0E03F00F03FB607B685B689A013B6974
:103EE0001B041A43FB681B061A437B689B681B076D
:103EF00057491343C1F884307B681B6803F40023DF
:103F0000002B04D07B68DB6BB3F5801F0AD07B6885
:103F10001B6803F48013002B2ED07B681B6CB3F559
:103F2000800F29D14A4BD3F884301B0C03F00303D4
:103F30003B61474BD3F884301B0F03F00703FB6052
:103F40007B685B689A013B691B041A437B68DB68EA
:103F50001B061A43FB681B073D491343C1F8843015
:103F60003B4BD3F88C3023F01F027B685B6A013B2C
:103F700037491343C1F88C307B681B6803F08073AA
:103F8000002B1DD0324BD3F884301B0E03F00F03EF
:103F90003B612F4BD3F884301B0F03F00703FB600A
:103FA0007B685B689A017B681B691B041A433B6949
:103FB0001B061A43FB681B0725491343C1F88430CD
:103FC0007B681B6803F00073002B11D07B685B6873
:103FD0009A017B681B691B041A437B68DB681B061C
:103FE0001A437B689B681B0719491343C1F8843047
:103FF000174B1B68164A43F080631360FEF74AF9BB
:10400000786108E0FEF746F902467B69D31A642B13
:1040100001D90323D7E00E4B1B6803F00063002B8C
:10402000F0D0BB69012B40F0CD80094B1B68084ADA
:1040300023F080531360FEF72DF978610AE0FEF754
:1040400029F902467B69D31A642B03D90323BAE00A
:10405000003802405E4B1B6803F00053B3F1005F71
:10406000EDD07B681B6803F40023002B03D07B6832
:10407000DB6B002B09D07B681B6803F48013002BDB
:104080002ED07B681B6C002B2AD1514BD3F8883083
:104090001B0C03F003033B614D4BD3F888301B0F1F
:1040A00003F00703FB607B685B699A013B691B04B3
:1040B0001A437B689B691B061A43FB681B0744492C
:1040C0001343C1F88830424BD3F88C3023F4F852B4
:1040D0007B689B6A013B1B023D491343C1F88C304E
:1040E0007B681B6803F40013002B22D07B68DB6F16
:1040F000B3F1006F1DD1364BD3F888301B0E03F09F
:104100000F033B61324BD3F888301B0F03F00703DA
:10411000FB607B685B699A017B681B6A1B041A431E
:104120003B691B061A43FB681B0729491343C1F867
:1041300088307B681B6803F00803002B28D0244BD1
:10414000D3F888301B0E03F00F033B61204BD3F8EC
:1041500088301B0C03F00303FB607B685B699A01EA
:10416000FB681B041A433B691B061A437B68DB6927
:104170001B0717491343C1F88830154BD3F88C300F
:1041800023F440327B68DB6A11491343C1F88C3059
:104190000F4B1B680E4A43F080531360FEF77AF80A
:1041A000786108E0FEF776F802467B69D31A642B43
:1041B00001D9032307E0064B1B6803F00053B3F15A
:1041C000005FEFD1002318462037BD4680BD00BFF9
:1041D0000038024080B582B000AF78607B68002B69
:1041E00001D1012322E07B6893F83430DBB2002B4D
:1041F00005D17B6800221A777868FDF71BFD7B6884
:10420000032283F83420786800F014F80346002B6A
:1042100001D001230AE07B6800229A637B680022B8
:104220001A637B68012283F834200023184608377C
:10423000BD4680BDB0B58EB004AF78600023FB6092
:1042400000233B6100237B610023BB610023FB61F2
:1042500076233B627B681D686C4607F1180393E880
:10426000070084E8070007F10C030ECB284601F095
:10427000D9FF7B681B685A687B681B6822F48072D0
:104280005A607B681B68184602F016F87B681B684A
:104290005A687B681B6842F480725A600220FEF7FD
:1042A00005F8786800F0F4FF78627B6A002B0BD089
:1042B0007B68012283F834207B689A6B7B6A1A43FF
:1042C0007B689A6301232EE0786800F013FF786220
:1042D0007B6A002B0BD07B68012283F834207B683B
:1042E0009A6B7B6A1A437B689A6301231BE07B68A5
:1042F0001B684FF40071184602F070F878627B6A10
:10430000002B0FD07B681B68094A9A637B689A6B05
:104310007B6A1A437B689A637B68012283F83420A6
:10432000012300E0002318462837BD46B0BD00BF7A
:10433000FF05400080B58CB000AFF860B9607A60CE
:104340003B607B68BB62BB68002B07D1FB689B6B43
:1043500043F00062FB689A630123C3E0FB6893F8B3
:104360003430DBB2012B40F0BC80FB6800229A6342
:10437000BA6A3B681A44FB68DB6D9A4207D9FB684E
:104380009B6B43F00072FB689A630123AAE0FB6811
:10439000032283F83420FB681B680022DA62FB6882
:1043A0001B68DA6BFB681B6842F49572DA63FB6882
:1043B0001B6C4E4ADA63FB681B6C4D4ADA64FB687F
:1043C0001B6C00221A65FB681B6C00229A60FB685C
:1043D0001B6C1B681B6823F0C001FB681B6C9A6890
:1043E000FB681B6C1B680A431A60FB68186CFB684F
:1043F0001B6880331946BA683B685B029B08FEF76E
:1044000039F90346002B17D0FB681B68DA6BFB6891
:104410001B6822F49572DA63FB681B68354A9A635D
:10442000FB689B6B43F08042FB689A63FB68012248
:1044300083F83420012355E0FB681B68DA6AFB68C7
:104440001B6842F00802DA62FB685B6C012B02D049
:10445000BB6A5B02BB624FF0FF333B613B685B02B0
:104460007B619023BB610223FB6100233B6201233C
:104470007B62FB681B6807F110021146184601F0C9
:1044800081FF3B68012B0AD9FB6882221A63FB6813
:104490001B68B96A184601F0E5FFF86209E0FB689D
:1044A00081221A63FB681B68B96A184601F0B8FFDD
:1044B000F862FB6A002B12D0FB681B680D4A9A63F6
:1044C000FB689A6BFB6A1A43FB689A63FB680122DC
:1044D00083F83420FB6800221A63012302E00023E2
:1044E00000E0022318463037BD4680BD034F000868
:1044F000754F0008FF05400080B58CB000AFF86034
:10450000B9607A603B607B68BB62BB68002B07D1F7
:10451000FB689B6B43F00062FB689A630123C6E073
:10452000FB6893F83430DBB2012B40F0BF80FB68AE
:1045300000229A63BA6A3B681A44FB68DB6D9A42B0
:1045400007D9FB689B6B43F00072FB689A630123F9
:10455000ADE0FB68032283F83420FB681B6800226F
:10456000DA62FB681B68DA6BFB681B6842F01A02B0
:10457000DA63FB68DB6B504ADA63FB68DB6B4F4A3C
:10458000DA64FB68DB6B00221A65FB685B6C012B4D
:1045900002D0BB6A5B02BB623B68012B0AD9FB6895
:1045A000A0221A63FB681B68B96A184601F09EFFD7
:1045B000F86209E0FB6890221A63FB681B68B96A1D
:1045C000184601F071FFF862FB6A002B12D0FB68FD
:1045D0001B683B4A9A63FB689A6BFB6A1A43FB6849
:1045E0009A63FB68012283F83420FB6800221A6377
:1045F00001235CE0FB681B68DA6AFB681B6842F019
:104600000802DA62FB68DB6B40229A60FB68DB6BB6
:104610001B681B6823F0C001FB68DB6B9A68FB68B2
:10462000DB6B1B680A431A60FB68D86BB968FB68D0
:104630001B6880331A463B685B029B08FEF71AF83A
:104640000346002B1AD0FB681B68DA6BFB681B68FB
:1046500022F01A02DA63FB681B68194A9A63FB6846
:104660009B6B43F08042FB689A63FB68012283F8EE
:104670003420FB6800221A63012318E04FF0FF3357
:104680003B613B685B027B619023BB610023FB6164
:1046900000233B6201237B62FB681B6807F1100269
:1046A0001146184601F06EFE002300E00223184672
:1046B0003037BD4680BD00BFD94E0008754F000899
:1046C000FF05400080B584B000AF78607B681B6B4D
:1046D000FB607B681B685B6B03F40043002B08D016
:1046E000FB6803F00803002B03D0786800F0EFFFAD
:1046F0005AE17B681B685B6B03F48073002B00F04E
:104700008D807B681B684FF480729A637B681B689E
:10471000D96B7B681A689A4B0B40D3637B681B6824
:10472000DA6A7B681B6822F00102DA62FB6803F038
:104730000803002B39D0FB6803F00203002B04D1DF
:10474000FB6803F02003002B11D07B681B68184620
:1047500001F0EEFEB860BB68002B08D07B689A6B56
:10476000BB681A437B689A63786800F021F97B681C
:104770001B6840F23A529A637B68012283F8342026
:104780007B6800221A63FB6803F00103002B04D14D
:10479000FB6803F00203002B03D0786802F05EFB95
:1047A00002E1786802F050FBFEE0FB6803F0800352
:1047B000002B00F0F980FB6803F02003002B11D0E0
:1047C0007B681B68184601F0B3FEB860BB68002B1D
:1047D00008D07B689A6BBB681A437B689A637868D9
:1047E00000F0E6F8FB6803F00103002B40F0DC80EA
:1047F000FB6803F00203002B40F0D6807B681B6847
:10480000DA6A7B681B6822F00802DA627B680122A0
:1048100083F83420786802F017FBC5E07B681B68DA
:104820005B6B03F48043002B08D0FB6803F00803A4
:10483000002B03D0786800F09BFFB5E07B681B6815
:104840005B6B03F03A03002B00F0AE807B681B68C3
:104850005B6B03F00203002B05D07B689B6B43F07E
:1048600002027B689A637B681B685B6B03F008033A
:10487000002B05D07B689B6B43F008027B689A6332
:104880007B681B685B6B03F02003002B05D07B6803
:104890009B6B43F020027B689A637B681B685B6BB1
:1048A00003F01003002B05D07B689B6B43F01002D4
:1048B0007B689A637B681B6840F23A529A637B6814
:1048C0001B68DA6B7B681B6822F49D72DA637B6875
:1048D0001B68184601F02CFE02467B689B6B1A434E
:1048E0007B689A63FB6803F00803002B0AD07B689F
:1048F000012283F834207B6800221A63786800F074
:1049000057F851E0FB6803F08003002B4CD0FB68A4
:1049100003F01003002B04D1FB6803F02003002BED
:1049200011D07B68DB6B174A1A657B68DB6B184616
:10493000FDF700FF0346002B36D07B68DB6B184683
:1049400000F06AFB30E0FB6803F00103002B04D1A8
:10495000FB6803F00203002B18D07B681B6C0A4A2B
:104960001A657B681B6C1846FDF7E4FE0346002BB6
:104970001AD07B681B6C184600F085FB14E000BF62
:10498000C53EFFFF19500008875000087B680022D1
:104990009A637B68012283F834207B6800221A63C3
:1049A000786802F047FAFFE700BF1037BD4680BDC8
:1049B00080B483B000AF786000BF0C37BD465DF8AF
:1049C000047B704780B483B000AF786039607B6847
:1049D0005B6E9B0FDAB23B681A707B685B6E9B0E56
:1049E000DBB203F00F03DAB23B685A707B685B6E90
:1049F0001B0EDBB203F00303DAB23B689A707B68EC
:104A00005B6E1B0CDAB23B68DA707B685B6E1B0A6C
:104A1000DAB23B681A717B685B6EDAB23B685A7136
:104A20007B689B6E1B0D9AB23B68DA807B689B6E3D
:104A30001B0CDBB203F00F03DAB23B681A727B681F
:104A40009B6EDB0BDBB203F00103DAB23B685A72F8
:104A50007B689B6E9B0BDBB203F00103DAB23B6811
:104A60009A727B689B6E5B0BDBB203F00103DAB2D8
:104A70003B68DA727B689B6E1B0BDBB203F00103B1
:104A8000DAB23B681A733B6800225A737B685B6C2E
:104A9000002B63D17B689B6E9A0040F6FC73134039
:104AA0007A68D26E920F1A433B681A617B68DB6E9C
:104AB000DB0EDBB203F00703DAB23B681A757B68E2
:104AC000DB6E1B0EDBB203F00703DAB23B685A75EC
:104AD0007B68DB6E5B0DDBB203F00703DAB23B6889
:104AE0009A757B68DB6E9B0CDBB203F00703DAB2CE
:104AF0003B68DA757B68DB6EDB0BDBB203F0070328
:104B0000DAB23B681A763B681B695A1C7B685A65A7
:104B10003B681B7EDBB203F007030233012202FA7B
:104B200003F37A68526D03FB02F27B685A653B68B7
:104B30001B7ADBB203F00F0301229A407B689A656F
:104B40007B685B6D7A68926D520A03FB02F27B68A8
:104B5000DA657B684FF400721A6631E07B685B6C43
:104B6000012B1DD17B689B6E1B0403F47C127B68B8
:104B7000DB6E1B0C1A433B681A613B681B690133EF
:104B80009A027B685A657B685A6D7B68DA657B6838
:104B90004FF400729A657B689A6D7B681A660FE025
:104BA0007B681B68584A9A637B689B6B43F0805212
:104BB0007B689A637B68012283F8342001239DE09F
:104BC0007B68DB6E9B0BDBB203F00103DAB23B6860
:104BD0005A767B68DB6EDB09DBB203F07F03DAB267
:104BE0003B689A767B68DB6EDBB203F07F03DAB258
:104BF0003B68DA767B681B6FDB0FDAB23B681A77AB
:104C00007B681B6F5B0FDBB203F00303DAB23B6818
:104C10005A777B681B6F9B0EDBB203F00703DAB297
:104C20003B689A777B681B6F9B0DDBB203F00F0329
:104C3000DAB23B68DA777B681B6F5B0DDBB203F09F
:104C40000103DAB23B6883F820203B68002283F836
:104C500021207B681B6F1B0CDBB203F00103DAB26F
:104C60003B6883F822207B681B6FDB0BDBB203F011
:104C70000103DAB23B6883F823207B681B6F9B0B30
:104C8000DBB203F00103DAB23B6883F824207B68CF
:104C90001B6F5B0BDBB203F00103DAB23B6883F8F6
:104CA00025207B681B6F1B0BDBB203F00103DAB21C
:104CB0003B6883F826207B681B6F9B0ADBB203F0FE
:104CC0000303DAB23B6883F827207B681B6F1B0A5B
:104CD000DBB203F00303DAB23B6883F828207B6879
:104CE0001B6F5B08DBB203F07F03DAB23B6883F82B
:104CF00029203B68012283F82A20002318460C371C
:104D0000BD465DF8047B7047FF05400080B483B06A
:104D100000AF786039607B685A6C3B681A607B68CA
:104D20009A6C3B685A607B68DA6C3B689A607B6877
:104D30001A6D3B68DA607B685A6D3B681A617B6864
:104D40009A6D3B685A617B68DA6D3B689A617B6853
:104D50001A6E3B68DA61002318460C37BD465DF8D1
:104D6000047B7047B0B58EB004AF78603960002323
:104D700087F827307B68032283F834207B685B6CDC
:104D8000032B2ED03B68B3F5805F06D17B689B6B0D
:104D900043F080527B689A6329E03B68B3F5006F6B
:104DA0000AD1786800F02AFB38627B689A6B3B6A0C
:104DB0001A437B689A631AE03B68002B0AD1786833
:104DC00000F067FB38627B689A6B3B6A1A437B682A
:104DD0009A630CE07B689B6B43F000627B689A638C
:104DE00005E07B689B6B43F080527B689A637B682D
:104DF0009B6B002B0BD07B681B68264A9A637B68F1
:104E0000012283F83420012387F827301FE07B68D4
:104E10005B68BB607B689B68FB607B68DB683B61B1
:104E20003B687B617B685B69BB617B689B69FB61FD
:104E30007B681D686C4607F1140393E8070084E85B
:104E4000070007F108030ECB284601F0EBF97B6859
:104E50001B684FF40071184601F0C0FA38623B6AD3
:104E6000002B0CD07B681B680A4A9A637B689A6B9C
:104E70003B6A1A437B689A63012387F827307B6873
:104E8000012283F8342097F8273018462837BD468A
:104E9000B0BD00BFFF05400080B586B000AF7860B0
:104EA0000023FB6007F10C031946786800F07EFAD6
:104EB00078617B69002B05D07B689A6B7B691A430C
:104EC0007B689A63FB685B0A03F00F033B613B69F5
:104ED00018461837BD4680BD80B485B000AF7860F5
:104EE0007B689B6BFB60FB681B68DA6BFB681B686D
:104EF00042F48072DA6300BF1437BD465DF8047B6C
:104F0000704780B584B000AF78607B689B6BFB60B6
:104F1000FB681B6B822B11D1FB681B68184601F0E4
:104F200007FBB860BB68002B08D0FB689A6BBB68B6
:104F30001A43FB689A63F868FFF73AFDFB681B6841
:104F4000DA6AFB681B6822F00802DA62FB681B68F9
:104F500040F23A529A63FB68012283F83420FB68DE
:104F600000221A63F86801F079FF00BF1037BD46D0
:104F700080BD000080B586B000AF78607B689B6B19
:104F80007B617868FDF782FD0346022B3ED07B698A
:104F90001B6C5B6D3B617B69DB6B5B6DFB603B6935
:104FA000012B02D0FB68012B2DD17B691B68194AAC
:104FB0009A637B691B68DA6B7B691B6822F49D72BC
:104FC000DA637B699B6B43F080427B699A63786903
:104FD000FFF762FFB860BB68062B02D0BB68052BE9
:104FE0000AD17B691B68184601F0A2FA02467B6968
:104FF0009B6B1A437B699A637B69012283F8342097
:105000007B6900221A637869FFF7D2FC00BF18376A
:10501000BD4680BDFF05400080B584B000AF78601C
:105020007B689B6BFB60FB681B6840F23A529A639B
:10503000F868FFF731FFB860FB68012283F834207D
:10504000FB6800221A63BB68062B02D0BB68052BE5
:105050000AD1FB681B68184601F06AFA0246FB6831
:105060009B6B1A43FB689A63FB689B6B002B03D115
:10507000F86801F0DFFE02E0F868FFF799FC00BF76
:105080001037BD4680BD80B584B000AF78607B68C6
:105090009B6BFB60FB681B6840F23A529A63F868AE
:1050A000FFF7FAFEB860FB68012283F83420FB6842
:1050B00000221A63BB68062B02D0BB68052B0AD1FD
:1050C000FB681B68184601F033FA0246FB689B6BCD
:1050D0001A43FB689A63FB689B6B002B03D1F8684B
:1050E00001F0A8FE02E0F868FFF762FC00BF10378D
:1050F000BD4680BDB0B594B004AF78600123FB819C
:105100007B681B68184601F0E5F80346002B02D1C6
:105110004FF08063B8E07B685B6C032B2FD07B681B
:105120001B68184601F00FFBF863FB6B002B01D0E6
:10513000FB6BA9E07B681B680021184601F00FF9A2
:1051400002467B685A677B681B680421184601F099
:1051500006F902467B689A677B681B680821184637
:1051600001F0FDF802467B68DA677B681B680C215A
:10517000184601F0F4F802467B68C3F880207B688B
:105180005B6C032B0DD07B681B6807F10E02114688
:10519000184601F015FBF863FB6B002B01D0FB6B8D
:1051A00072E07B685B6C032B36D0FB891A467B6808
:1051B0001A657B681A687B681B6D1B0419461046CC
:1051C00001F0DFFAF863FB6B002B01D0FB6B5BE0B7
:1051D0007B681B680021184601F0C1F802467B6815
:1051E0005A667B681B680421184601F0B8F802462D
:1051F0007B689A667B681B680821184601F0AFF847
:1052000002467B68DA667B681B680C21184601F051
:10521000A6F802467B681A677B681B68042118465B
:1052200001F09DF803461A0D7B68DA6407F110035C
:1052300019467868FFF7C6FB0346002B02D04FF0F3
:10524000805321E07B6819687B681B6D1B0400227A
:105250001C46154622462B46084601F08BF9F8639A
:10526000FB6B002B01D0FB6B0EE07B681D687B683D
:105270006C4603F1100207CA84E8070004330ECB22
:10528000284600F0CFFF002318464037BD46B0BD8A
:1052900080B586B000AF78600023BB6000237B61DF
:1052A00000233B617B681B68184601F086F9F860B3
:1052B000FB68002B01D0FB6872E07B681B68184616
:1052C00001F099F9F860FB68002B0DD07B68002293
:1052D0009A647B681B68184601F06FF9F860FB68F8
:1052E000002B04D0FB685BE07B6801229A647B683A
:1052F0009B6C012B37D17B681B680021184601F09D
:1053000099F9F860FB68002B2DD04FF0805347E0EF
:105310007B681B680021184601F08CF9F860FB6877
:10532000002B01D0FB683BE07B681B681E491846D8
:1053300001F0A2F9F860FB68002B02D04FF0805317
:105340002EE07B681B680021184601F008F87861A0
:105350007B69DB0F012B01D1012300E000233B61BE
:10536000BB680133BB60BB684FF6FE72934202D844
:105370003B69002BCCD0BB684FF6FE72934202D93A
:105380004FF080730CE07B6903F08043002B03D067
:105390007B6801225A6402E07B6800225A64002381
:1053A00018461837BD4680BD000010C180B584B0D6
:1053B00000AF786039603B68002B02D14FF000638A
:1053C00018E07B681A687B681B6D1B041946104641
:1053D00001F017FAF860FB68002B01D0FB6809E0C8
:1053E0007B681B680021184600F0B9FF02463B6845
:1053F0001A60002318461037BD4680BD80B586B0C0
:1054000000AF78600023FB6000233B617B681B6872
:105410000021184600F0A3FF034603F00073B3F128
:10542000007F02D14FF400632FE007F10C0319460F
:10543000786800F079F878617B69002B01D07B698E
:1054400023E03B6903F48023002B1CD07B681A689F
:105450007B681B6D1B041946104601F0EBF8786160
:105460007B69002B01D07B690FE07B681B68022100
:10547000184601F025F978617B69002B01D07B6922
:1054800003E0002301E04FF0806318461837BD4663
:1054900080BD80B586B000AF78600023FB6000233C
:1054A0003B617B681B680021184600F058FF0346EB
:1054B00003F00073B3F1007F02D14FF400632FE0DB
:1054C00007F10C031946786800F02EF878617B69C3
:1054D000002B01D07B6923E03B6903F48033002B70
:1054E0001CD07B681A687B681B6D1B04194610462C
:1054F00001F0A0F878617B69002B01D07B690FE097
:105500007B681B680021184601F0DAF878617B6936
:10551000002B01D07B6903E0002301E04FF08063A2
:1055200018461837BD4680BD90B58FB000AF786083
:105530003960FCF7AFFE386300237B630023BB6058
:105540000023FB603B68FB627B681B6808211846F0
:1055500000F044FFB862BB6A002B01D0BB6AB2E026
:105560007B681A687B681B6D1B041946104601F0A6
:1055700061F8B862BB6A002B01D0BB6AA3E04FF0B0
:10558000FF333B6108237B613023BB610223FB6156
:1055900000233B6201237B627B681B6807F11002DA
:1055A0001146184600F0EEFE7B681B68184601F0B5
:1055B000A9F8B862BB6A002B2AD0BB6A83E07B687B
:1055C0001B685B6B03F40013002B0FD07B6819681A
:1055D0007B6B9B0007F10802D418084600F04EFED2
:1055E000034623607B6B01337B6306E07B681B68AB
:1055F0005B6B03F40053002B12D0FCF74BFE02460A
:105600003B6BD31AB3F1FF3F02D14FF000435AE096
:105610007B681B685B6B03F02A03002BCFD000E094
:1056200000BF7B681B685B6B03F00803002B05D091
:105630007B681B6808229A63082344E07B681B6828
:105640005B6B03F00203002B05D07B681B68022212
:105650009A63022337E07B681B685B6B03F02003CF
:10566000002B05D07B681B6820229A6320232AE048
:105670007B681B6840F23A529A63FB681A06FB6823
:105680001B0203F47F031A43FB681B0A03F47F43E6
:105690001A43FB681B0E1A43FB6A1A60FB6A043349
:1056A000FB62BB681A06BB681B0203F47F031A4344
:1056B000BB681B0A03F47F431A43BB681B0E1A43E3
:1056C000FB6A1A60002318463C37BD4690BD80B582
:1056D00086B000AF78607B689B6AFB607B68DB6AA2
:1056E0003B613B69002B3FD000237B6133E07B684B
:1056F0001B68184600F0C2FDB860BB68DAB2FB68F0
:105700001A70FB680133FB603B69013B3B61BB687E
:105710001B0ADAB2FB681A70FB680133FB603B6955
:10572000013B3B61BB681B0CDAB2FB681A70FB687B
:105730000133FB603B69013B3B61BB681B0EDAB286
:10574000FB681A70FB680133FB603B69013B3B61FE
:105750007B6901337B617B69072BC8D97B68FA6859
:105760009A627B683A69DA6200BF1837BD4680BD2D
:1057700080B586B000AF78607B681B6AFB607B6891
:105780005B6A3B613B69002B43D000237B6137E0C0
:10579000FB681B78BB60FB680133FB603B69013B26
:1057A0003B61FB681B781A02BB681343BB60FB6854
:1057B0000133FB603B69013B3B61FB681B781A04CA
:1057C000BB681343BB60FB680133FB603B69013B73
:1057D0003B61FB681B781A06BB681343BB60FB6820
:1057E0000133FB603B69013B3B617B681B6807F150
:1057F00008021146184600F04EFD7B6901337B61BB
:105800007B69072BC4D97B68FA681A627B683A699E
:105810005A6200BF1837BD4680BD80B582B000AF68
:1058200078607B68002B01D1012340E07B68DB6F4F
:10583000002B06D17B68002283F878207868FCF77B
:1058400007FB7B682422DA677B681B681A687B6821
:105850001B6822F001021A607B685B6A002B02D091
:10586000786800F015FB786800F0AEF80346012B6D
:1058700001D101231BE07B681B685A687B681B68A9
:1058800022F490425A607B681B689A687B681B68A8
:1058900022F02A029A607B681B681A687B681B6882
:1058A00042F001021A60786800F094FB0346184643
:1058B0000837BD4680BD80B58AB002AFF860B960D8
:1058C0003B601346FB80FB68DB6F202B77D1BB6806
:1058D000002B02D0FB88002B01D1012370E0FB6874
:1058E0000022C3F88420FB682122DA67FCF7D2FC8F
:1058F0007861FB68FA88A3F85020FB68FA88A3F85F
:105900005220FB689B68B3F5805F08D1FB681B6978
:10591000002B04D10023FB61BB68BB6103E0BB68C3
:10592000FB610023BB612FE03B6800937B69002291
:105930008021F86800F0A5FB0346002B04D0FB682B
:105940002022DA6703233BE0FB69002B0BD1BB6904
:105950001B881A46FB681B68C2F308029A62BB697F
:105960000233BB6107E0FB691A78FB681B689A6227
:10597000FB690133FB61FB68B3F852309BB2013B1A
:105980009AB2FB68A3F85220FB68B3F852309BB27E
:10599000002BC9D13B6800937B6900224021F86845
:1059A00000F06FFB0346002B04D0FB682022DA676F
:1059B000032305E0FB682022DA67002300E00223CE
:1059C00018462037BD4680BD80B588B000AF7860EE
:1059D0000023BB777B689A687B681B691A437B68E6
:1059E0005B691A437B68DB6913437B617B681B68D7
:1059F0001A68A64B13407A68126879690B431360E2
:105A00007B681B685B6823F440517B68DA687B68BD
:105A10001B680A435A607B689B697B617B681B6AD1
:105A20007A6913437B617B681B689B6823F4306150
:105A30007B681B687A690A439A607B681B68944A92
:105A4000934220D1934BD3F8903003F00303032B00
:105A500016D801A252F823F0695A0008755A0008B6
:105A60006F5A00087B5A00080123FB7750E102239C
:105A7000FB774DE10423FB774AE10823FB7747E1FD
:105A80001023FB7744E17B681B68834A934232D141
:105A9000804BD3F8903003F00C030C2B28D801A2D4
:105AA00052F823F0D95A0008F15A0008F15A0008B8
:105AB000F15A0008E55A0008F15A0008F15A0008A6
:105AC000F15A0008DF5A0008F15A0008F15A00089C
:105AD000F15A0008EB5A00080023FB7718E1022373
