:020000040800F2
:1000000020080020DD010008352800081527000819
:1000100031280008F51400084928000800000000F5
:100020000000000000000000000000003D28000863
:1000300011180008000000003928000841280008B5
:10004000F7010008F7010008F7010008F7010008B0
:10005000F7010008F7010008F7010008F7010008A0
:10006000F7010008F7010008F7010008F701000890
:10007000F7010008F7010008F7010008F701000880
:10008000F7010008F7010008F7010008F701000870
:10009000F7010008F7010008F7010008F701000860
:1000A000F7010008F7010008F7010008F701000850
:1000B000F7010008F7010008F7010008F701000840
:1000C000F7010008F7010008F7010008F701000830
:1000D000F7010008F7010008F7010008F701000820
:1000E000F7010008F7010008F701000800F002F826
:1000F00000F065F814A696E8000CB244B344DA4563
:1001000001D100F05CF8BAE80F000FA696E83000C5
:10011000A5EB040504EB0607AAEB0704A7F101070A
:100120004FEA15154FEA3414A4F10104AC4201D38F
:1001300000F045F813F0010F18BFFB1A43F001035C
:1001400000F001F8DBE71847B0350000D0350000BB
:10015000103A24BF78C878C1FAD8520724BF30C8F3
:1001600030C144BF04680C60704700007047000055
:100170000023002400250026103A28BF78C1FBD8B0
:10018000520728BF30C148BF0B607047662903F093
:100190004B82002070471FB59DE8030000F072FFFE
:1001A00000F0F2FA04000020002102F0B7FFE06046
:1001B00000F002FC1FBD10B500F067FC10BD00F0A0
:1001C0009BFC1146FFF7E7FF02F040FB00F092FEB8
:1001D00003B4FFF7F0FF03BC01F0D2F809488047F1
:1001E00009480047FEE7FEE7FEE7FEE7FEE7FEE719
:1001F000FEE7FEE7FEE7FEE704480549054A064B31
:100200007047000045280008ED000008200200208B
:100210002008002020040020200400200FB40449FE
:1002200010B503AA029800F09DFA10BC5DF814FB0B
:100230006C0000202DE9F0474FF0000A8946044683
:10024000C0F820A02046E1688847002876D02528FD
:1002500006D0D4E901219047206A401C2062F1E7D2
:10026000E168204600258847C4F81CA00646002700
:10027000C4F818A02A2E09D0304602F039FF38B34E
:1002800004EB8708303EC8F8186019E059F8041BE1
:10029000204604EB87029161E1688847012F0646FA
:1002A00018D1E069002820DA25F020051DE0D8F8F3
:1002B000180000EB800006EB40003038C8F818004A
:1002C0002046E1688847064602F012FF0028EED17A
:1002D000012F0AD02E2E08D12046E16888477F1CC6
:1002E0000646022F45F02005C4DBA069002803DA8A
:1002F000404245F00105A061E80701D025F0100556
:10030000B6B1A6F14100192802D8203645F400659F
:100310004A463146204625604D46FFF737FF58B123
:10032000012806D0ED1D25F0070000F1080989E736
:1003300004E005F1040985E730468AE7206ABDE854
:10034000F0877047704770472DE9FF4F0C461E46F7
:100350004FF0FF378BB0D2E90001DDF860800A90E2
:100360008A46C1F30A5505B93D46002108464FF0BB
:100370000000BAF1000F00F4400005DA00EB800045
:100380004FF4400101EA50004FEA9059B9F1010FD2
:1003900000DDB9460A9850EA4A000ED044F61050E3
:1003A000A5F2FF3545432F14B8F1000F1ED075425A
:1003B000291E1EDDC9F100021CE0B8F1010F4FF04B
:1003C000000001D0302103E0F24305E02154401C3D
:1003D000B042FBDB30460022002121540B99C1F8CA
:1003E0000880C1E900200FB0BDE8F08FBD1B6D1C77
:1003F000DEE74A4600DA694206A800F067FA06AB73
:1004000093E8070003AB83E8070050460A9902F01F
:1004100093FA8DE80700A0F500501F38009003986C
:10042000002D0ADD42F21F014A460844002303A9B9
:100430000390684602F0FCFC09E0A0F500504A4633
:100440001F38002303A90390684602F006FD8DE8DB
:1004500007000004000C03D04FF0FF30410800E01B
:100460001046B8F1000F03D00022009215461EE09E
:10047000751E05D400F08CF9303262556D1EF9D529
:10048000B3460122084302D000227F1C04E02078FA
:10049000302801D100227F1E002A099784D01DE058
:1004A000112D07DA00F074F9303262556D1C50EAF4
:1004B0000102F5D1084302D00098C8B10EE0002136
:1004C000681E05E0235C625C63542254401E491C94
:1004D0008142F7DBAB46A81B401E0990002004F8C0
:1004E0000B000B98099AC0F80880C0E9002B7AE746
:1004F00011264FF0000857E72DE9F04F88460446D3
:10050000D21D22F0070191B0D1E90001CDE90A0125
:1005100002F0DAFD02460B98C00F01D02D2007E053
:100520002068810701D52B2002E0202101EAC000CC
:10053000032A099001D0072A05DB034641462046DD
:1005400000F084F90BE12078800601D5E06900E035
:100550000620B8F1650F814606D0B8F1660F18D0B5
:10056000B8F1670F70D131E00020B9F1110F0090A0
:1005700001DB112301E009F101030AAA01A90CA87A
:10058000FFF7E2FEDDE90C70002609F10105834664
:1005900047E001204B4600904FF000470AAA01A90E
:1005A0000CA8FFF7D1FEDDE90DB00C995D460026E1
:1005B00010B909F101000D18B9EB050003D4C0F121
:1005C000FF3609F10105A5EB09002BE0B9F1010F98
:1005D00001DA4FF001090020B9F1110F00904846EF
:1005E00001DD112300E003460AAA01A90CA8FFF7C8
:1005F000ABFEDDE90C704D460026834620780007EF
:100600000AD4AB4500DA5D4601A8012D04DD41198D
:1006100011F8011C302907D04F4502DA17F1040FF9
:1006200004DA012082460FE06D1EEEE7002F02DCA7
:10063000ED1B3E4403E0781CA84200DD7D1CB81B86
:1006400000F1010A4FF000472078000703D4AA45C3
:1006500001DB4FF0FF3A0021B7F1004F0DF14308E5
:100660008DF8431024D002202B23002F01DA7F4283
:100670002D230A21021EA0F1010000DC5FB197FBCF
:10068000F1FC97FBF1F201FB1C7C17460CF1300CDE
:1006900008F801CDEEE7A8F10100037021880905F3
:1006A00001D5452100E06521A0F1010800F8011CF9
:1006B00009980FA9A1EB0807FF1D00B101204119FE
:1006C00001EBEA70A1693844081A401EA061207845
:1006D000C00602D42046AFF30080099828B1D4E9BF
:1006E00001219047206A401C20622078C00622D554
:1006F0002046AFF300801EE0002E04DBB34502DD90
:1007000001A8805D00E03020D4E901219047206AF3
:10071000401C2062761CAAF101005FEA000A0AD19F
:1007200000F032F8C0680168405CD4E901219047CC
:10073000206A401C2062281EA5F10105DCDC07E0D0
:10074000D4E9012118F8010B9047206A401C20626F
:10075000381EA7F10107F3DC2046AFF30080032029
:1007600011B041E6074B70B50D467B4400F05BF8D5
:100770000446284600F01CF910B14FF0FF3070BD60
:10078000204670BD912900000048704734010020C8
:1007900030B5B0F10A0271F100034FEA900E4EEA53
:1007A000817EB0EB0E0061EB91014FEA101E4EEA24
:1007B000017E10EB0E0041EB11114FEA102E4EEAB4
:1007C000016E10EB0E0041EB11214FEA104E4EEA84
:1007D000014E10EB0E0041EB1141401841F10001B8
:1007E0004FEAD00040EA41704FEAD1014FEA81045C
:1007F00044EA907410EB800544EB01046D1944EB5E
:100800000404521BA3414FF0000348BF0A3200D535
:1008100030BD401C41F1000130BD000001694A1C9F
:1008200002610878704700B58FB0CDE90131002131
:10083000059105497944CDE9031011466846FFF753
:10084000F9FC0FB000BD0000E5FFFFFF2DE9F0410E
:100850001F46044603260168072A01F4006004DBF2
:1008600008B116A505E016A503E008B115A500E03E
:1008700015A521F010002060A069C01EA0610FB175
:10088000401EA0612046AFF300804FB1D4E90121A2
:1008900038469047206A401C2062C01C206206E057
:1008A000206AFAE7D4E9012115F8010B9047761E7A
:1008B000F8D22046AFF30080BDE8F0814E414E00F3
:1008C0006E616E00494E4600696E66002DE9F04784
:1008D000814616468AB0354878440DC88DE80D002B
:1008E00032487844801C03AC0DC884E80D0041F602
:1008F0009B300844372190FBF1F290FBF1F5A5F114
:10090000800501FB12041B3C02D56442012000E07B
:100910000020DFF898A080460027FA44AAF1BE0A1A
:100920000EE0E0070AD03246684607EB4701012394
:100930000AEB810102F091FA8DE8070064107F1C38
:10094000002CEED1194F7F44AE3F19E0E80715D0D7
:1009500007EB04100DF1180A90E80E008AE80E006B
:10096000C068F04201D1981908903246012306A9C7
:1009700003A802F072FA03AB83E807006D10641C51
:10098000002DE3D14FF0010332466946B8F1000F64
:1009900003A802D002F04CFA01E002F05EFAC9E9C5
:1009A0000001C9F808200AB0BDE8F087CC2D00008E
:1009B000007B00F08000704710B54248542100F0E1
:1009C000A9FA4148542100F0A5FA4048542100F00A
:1009D000A1FA3F493B483C4A3F4B08603D490A6009
:1009E0003A491960531C0365481C106501200865CD
:1009F0003B48344A39A1784400F0DEF920B9384840
:100A000078440A3800F07FFA37482F4A35A17844F5
:100A100000F0D2F920B9344878440A3800F073FA6B
:100A200032482A4A2FA1784400F0C6F920B92F484D
:100A300078440A3800F067FA40232248DC0000219D
:100A4000224600F096F920B125487844543800F049
:100A50005AFA1D4822464023002100F08AF920B1AD
:100A600021487844543800F04EFA184822461023A2
:100A7000002100F07EF9002806D01C487844BDE82B
:100A80001040563800F03FBA10BD104870B5006DE8
:100A900020F001040B4800F007FA0B4800F004FABC
:100AA0000A4800F001FA09E0206D20F00105204617
:100AB00000F0FAF9204600F044F82C46002CF3D15F
:100AC00070BD0000180000206C000020C000002055
:100AD0000000002004000020080000207200000038
:100AE000C62C000077000000B22C00009E2C0000F5
:100AF00000487047140100207546FFF7F9FFAE4625
:100B000005006946534620F00700854618B020B519
:100B1000FFF772FBBDE820404FF000064FF00007E2
:100B20004FF000084FF0000BAC46ACE8C009ACE851
:100B3000C009ACE8C009ACE8C00921F007018D4646
:100B4000704770B50446051F00F080FA0068002C5D
:100B500014BF446870BD002C18BFAC423CBF204697
:100B60006468F8D301680A18AA4218BF456003D127
:100B70002A6805461144016028684119A1421CBF3A
:100B80006C6070BD6168696021680844286070BD50
:100B90002DE9F05F054617460C46C86820F4201082
:100BA00040F48000C860800602D5084600F0A7FB2C
:100BB000E06841F282014FF0FF3A0140022903D080
:100BC000204600F039FBB9E000F42041B1F5004FB8
:100BD0000FD1C00306D56168E06A884200D8084694
:100BE000606006E02069E0626060606900F027FAFA
:100BF000A061A0680022EEB200280DDAE1688B0542
:100C00000AD4C043A06041F490302260E060606884
:100C1000411C61600670AAE0E0689146226040F4E1
:100C20000050E060206978BB606900F0FAF904F1D7
:100C300024054FF00108A8B1A08910F4407F08D026
:100C4000E06900F04EFA206118B1E06840F40060FD
:100C500017E0C4F81C802561E06820F4407040F47F
:100C600080600EE0E06900F03CFA00282061F0D0DE
:100C7000E06840F4006010F4407FE06002D140F48E
:100C80008070E06020696060E06825696FF0010BAA
:100C9000C1051ED56168E06A884200D80846411B3C
:100CA00004D02246284600F0D1FAE8BB1FB1E56225
:100CB000C4E9015959E0681CE0626060E069401EC7
:100CC000A060E06840F48030E06030462E70BDE8FF
:100CD000F09F17B100F480320AE06068411C616047
:100CE0000670E0680A2E40F48030E06006D00022F2
:100CF000E16A6068814203D90B4602E00122F7E70E
:100D00000346B4F80CC05B1B5FEA4C5C04D4D4F817
:100D10001CC09C4500DD02B3814200D80146002B77
:100D2000A1EB0008E56200E008E0C4E9015907DD35
:100D300022461946284600F089FA08B15046C6E70F
:100D4000B8F1000F09D0A169E5626560A1EB080068
:100D5000A061E06840F01000E06047B16168A06900
:100D6000E562491B08446560A0615846AFE730461C
:100D7000ADE770B5C468A50713D0650211D4B2F50C
:100D8000807F09D0B2F5007F06D0B2F5806F08D120
:100D9000012300F1240106E05D1E6FF07F46B5429D
:100DA00001D3012070BD0161C361416024F4706111
:100DB0001143C160002070BD2DE9F0410C4616467C
:100DC000070047D0104600F06FF82078611C6128BA
:100DD0000AD0722802D077283CD102E001250024F5
:100DE00005E00225042402E0082448F2020511F877
:100DF000010B2B2806D0622809D011F8010C7428A9
:100E00000AD00BE045F0030544F00204EFE745F09B
:100E1000040544F00104EAE744F010043846214692
:100E200000F0E0F8411C15D00021316171604FF4F1
:100E30000071F560F1617061200704D5304602222F
:100E4000002100F07DF9306D40F001003065304642
:100E5000BDE8F0810020FBE72DE9F0410D46064694
:100E6000104C206DC10704D0410804D020F00104CB
:100E7000F7E722460EE0542000F033F907000ED0C9
:100E8000206D47F00101084354212065384600F0E9
:100E900041F83A4629463046BDE8F0418CE700204B
:100EA000D6E70000180000202DE9F04704464FF077
:100EB000FF380026C568D4E90497A80718D0204653
:100EC00000F0FAF9384600F097F8002800DA4646B4
:100ED000280502D54846FFF734FE4C21204600F095
:100EE00019F8206D20F0010020653046BDE8F0873C
:100EF0004046FBE710B50446AFF300802046BDE84E
:100F00001040FFF765B910B500F020FABDE81040B9
:100F100000F016BA4FF0000200B51346944696460C
:100F2000203922BFA0E80C50A0E80C50B1F12001FC
:100F3000BFF4F7AF090728BFA0E80C5048BF0CC0AA
:100F40005DF804EB890028BF40F8042B08BF704708
:100F500048BF20F8022B11F0804F18BF00F8012B7A
:100F6000704700004FF0013C50F8042B51F8043B4F
:100F70009A4221D1A2EB0C03934313EACC1317D16D
:100F800050F8042B51F8043B9A4215D1A2EB0C0304
:100F9000934313EACC130BD150F8042B51F8043BC4
:100FA0009A4209D1A2EB0C03934313EACC13DBD092
:100FB0004FF00000704700BFD01A01BAB1FA81F1BA
:100FC00001F0180122FA01F0CB40DBB2C0B2C01A26
:100FD000C1F120012CFA01F3D11A914311EAC31196
:100FE000E6D170470EB5CDE9000100F031FA02906C
:100FF00069460120ABBE0EBD08B5694600900220CF
:10100000ABBE08BD1FB58DE8070069460520ABBE25
:1010100004B010BD1FB58DE80F0069460620ABBEB9
:10102000F6E708B5694600900920ABBE08BD1CB5BF
:10103000CDE9000169460A20ABBE1CBD704708B56A
:10104000694600900C20ABBE08BD00000048704708
:101050001C010020704770477047704738B5044640
:101060000A4600206946AFF30080002808BF38BD5B
:1010700002460099204600F090F9012038BD012079
:1010800000F0DFB9F8B5AFF30080054600200C464C
:101090000C2000BF0646A819A0420DD93246694669
:1010A0000020AFF30080070008BF00F0CAF90098E5
:1010B000A04218BF0546C419FFF7C8FF05600746E0
:1010C000F01D20F007004619284600F060F9B442F0
:1010D00008BFF8BDA21B31463868BDE8F84000F0F3
:1010E0005CB970B50646FFF7B1FF056806F10B0065
:1010F00020F00704B4429CBF002070BD2B466A68F4
:10110000BAB11068A04210D304F1080188423CBF74
:101110005068586007D35168101941601168091B65
:10112000016058601460101D70BD13465268002A9B
:10113000E7D121462846FFF791FF0028DED170BD98
:101140002DE9F041044616460D464769007B8007AD
:101150002ED03846FFF765FF50BB3EB3012E02D0BC
:10116000022E25D104E0204600F031F905441DE0AF
:101170003846FFF764FFE168002841F01001E160A4
:1011800005DA204600F058F80120BDE8F081C903D7
:101190000BD56268E16A914200D81146A2691144F8
:1011A0002269891A814200DD08460544002D01DAD2
:1011B0000220EAE7E16A6068E268814206D29103B0
:1011C000E06203D522F4003141F01002A669002745
:1011D000AE4213DCE16A814201D90B4600E00346CE
:1011E00003EB060C2369ACEB030CAC4506DD814236
:1011F00001D98C4600E084469C4505D1A760276054
:1012000042F02000A5620DE0AD1BE669AE1B8142F5
:10121000A66000D90846C01A281A206058196060D4
:1012200022F0200003490840E060002084F8487064
:10123000ABE70000BFCFD7FFC16821F4001141F038
:101240008001C16000218160016070472DE9F74F86
:1012500015460C464FF0FF3B3848D768D2F814A02B
:10126000074209D05046A969FFF7E1FE002819DBC3
:101270003248C0430740EF604FF000496FF000482C
:101280004C4501D3464600E0264600993B46504671
:101290003246FFF7B7FEA96920F00042B21A1144A6
:1012A000A96128B12846FFF7C7FF5846BDE8FE8F61
:1012B000A41BE5D10020F9E770B504460569C06AB2
:1012C0006168884200D80846E16821F42011E16095
:1012D000C90312D5A84208D02246411B2846FFF771
:1012E000B5FF10B14FF0FF3070BD0020E562C4E9DA
:1012F0000150E06820F48030E060002070BD10B53F
:101300000446C06820F02000E060A16AA06988421D
:101310000DD02046FFF7D0FFE06820F4405040F0A9
:101320001000E060A06AA0612069E062606044F2A1
:101330004001E0688843E06010BD0000100002003A
:10134000002801D000F01CB87047000010B501461D
:1013500002A000F05DF8012010BD00005349475283
:10136000545245443A2052656469726563743A2068
:1013700063616E2774206F70656E3A200000000074
:1013800001491820ABBEFEE726000200704700218D
:101390000160416070470C207047034640688C46EE
:1013A000002818BF88423CBF03464068F8D318683D
:1013B0001844884207D00CF1030020F00700001DFC
:1013C000411A521A0146081D0A60FFF7BABB10B550
:1013D0000146C268900703D0900607D5886A0AE0E4
:1013E00000F05CF801210160881E10BD8B6948681F
:1013F00018440B69C01A91F848301BB191F8491094
:10140000401A10BD1103FCD50028FADD401E10BDA6
:1014100070B505460C460A2000E06D1C00F037F858
:1014200035B128780028F8D102E0641C00F02FF8CC
:1014300014B120780028F8D1BDE870400A2000F0EF
:1014400026B810B500F02EF8BDE81040FFF778BFC1
:1014500010B5431C02E010F8011B71B18107FAD1ED
:101460004FF0013202C88C1A8C4314EAC211F9D031
:10147000C01A0A0603D0C01E10BDC01A10BD0A044F
:1014800001D0801E10BD0902FCD0401E10BD08B561
:1014900069468DF800000320ABBE08BD00487047C8
:1014A0001401002010B5012805D0002103A0FFF78A
:1014B000AFFF012010BD09A1F8E7000053494752D2
:1014C000544D454D3A204F7574206F662068656114
:1014D00070206D656D6F7279000000003A204865DC
:1014E0006170206D656D6F727920636F72727570B7
:1014F00074656400FEE7000000F056BF006800223B
:10150000426206E0426A8A4228BF7047426A8A42C3
:1015100005D2426A8A4202D2426A8A42F2D37047B4
:1015200080B5DDF808E094460129024604D002297E
:1015300005D142F6E06001E044F250601080D360D3
:10154000A2F808E06046C2F804C0BDE88040FFF79A
:10155000D3BF00002DE9F04F85B001890022044679
:10156000C068CDE901120121039101A9049200F0A4
:101570006BF900BF2189E06800F06EFA0028F9D00D
:1015800060682821FFF7BAFF2189E06800F064FA5B
:10159000834600BF2189E06800F05EFA0028F9D197
:1015A0002189E06800F058FA0028F9D06068282105
:1015B000FFF7A4FF2189E06800F04EFA009000BF19
:1015C0002189E06800F048FA0028F9D12189E06813
:1015D00000F042FA0028F9D060682821FFF78EFF5A
:1015E0002189E06800F038FA814600BF2189E0686F
:1015F00000F032FA0028F9D12189E06800F02CFAD5
:101600000028F9D060682821FFF778FF2189E06879
:1016100000F022FA824600BF2189E06800F01CFA3F
:101620000028F9D12189E06800F016FA0028F9D0E5
:1016300060682821FFF762FF2189E06800F00CFA5A
:10164000074600BF2189E06800F006FA0028F9D1BA
:101650002189E06800F000FA0028F9D060682821AC
:10166000FFF74CFF2189E06800F0F6F9064600BF5D
:101670002189E06800F0F0F90028F9D12189E068BB
:1016800000F0EAF90028F9D060682821FFF736FF5A
:101690002189E06800F0E0F9054600BF2189E06893
:1016A00000F0DAF90028F9D12189E06800F0D4F9D6
:1016B0000028F9D060682821FFF720FF2189E06821
:1016C00000F0CAF9804600BF2189E06800F0C4F943
:1016D0000028F9D1B8F1000F18BF4FF00108BBF195
:1016E000000F18BF4FF0010B4FEACB1000994030AC
:1016F000002908BF4FEACB10B9F1000F18BF203006
:10170000BAF1000F18BF103000F0F000002F18BF22
:10171000012740EAC700002E18BF012640EA8600D4
:10172000002D18BF012540EA4500404405B0BDE842
:10173000F08F00002DE9F04385B001890446019146
:101740001121C068029102210025049101A903958D
:1017500000F07AF82189E068002200F083F92188FE
:101760006068FFF7CBFE2189E068CDE90115012112
:10177000039101A9049500F067F860682821FFF73C
:10178000BDFE2189E06800F067F938B9606828215A
:10179000FFF7B4FE2189E06800F05EF92189E06876
:1017A00000F05AF90028F9D12046FFF7D3FE814610
:1017B0002046FFF7CFFE07462046FFF7CBFE054643
:1017C0002046FFF7C7FE06462046FFF7C3FE8046C9
:1017D00046EA052047EA092501F044FE0026C4F246
:1017E00024060022334601F0E1FC01F0ADFC20614B
:1017F000284601F037FE0022334601F0D7FC01F005
:10180000A3FC01464046616105B0BDE8F0830000DD
:1018100070470000EFF3108072B600BFFEE70000D3
:10182000B0B5044600F024F9054640F20C00C2F2BF
:1018300000000078611C18BF044400BF00F018F9D4
:10184000401BA042FAD3B0BD2DE9F04F82B00E6824
:10185000002E00F0FD8041F20042C4F20102042398
:1018600040F2004E904208BF03234FF6FF7CC4F2C3
:10187000010E009300240123C1F2100C4FF0000A66
:101880004FF000094BE000BF41F20002C4F2010238
:10189000009F904208BF022704F00C030F229A40D9
:1018A0002BEA020207FA03F34FEA9A051A4346F8B5
:1018B00025204E6840F20C45F202DEF8082054BFA5
:1018C00022EA080242EA0802C4F20105CEF8082022
:1018D0002A68B30254BF22EA080242EA08022A60D8
:1018E000B303DEF8042054BF22EA080242EA0802E9
:1018F000F303CEF80420DEF800204FF0010354BFBC
:1019000022EA080242EA0802CEF800200E680AF134
:10191000010A36FA0AF204F1040400F0998003FA8D
:101920000AFB16EA0B08F1D04E68664512DC122E4F
:1019300056D8DFE806F0350B4D49555555555555E8
:101940005555555555555545510000BFD1F80C908A
:1019500046E000BF4FF6FF72C1F2210296420FDC53
:101960000022C1F2110296421AD00022C1F21202E4
:10197000964215D00022C1F22102964210D02FE0EB
:101980000022C1F2220296420AD00022C1F23102A4
:10199000964205D00022C1F23202964220D100BF09
:1019A0008A684AB1012A14BFC0F814B0C0F810B058
:1019B0004FF0080914E000BF4FF0040910E000BF29
:1019C000CA6802F104090BE04FF0000908E000BF0B
:1019D000CA6802F1080903E0CA6802F10C0900BFF5
:1019E00002462646B8F5807F24BF0432203E1768A1
:1019F0000F25B54027EA050509FA06F635431560B7
:101A0000CA79D2067FF582AF41F21803C4F202030D
:101A10001A68AEF57E7642F001021A601A6802F08A
:101A200001020192019A2AF0030256F802B040F630
:101A30000002C4F20102904208D040F60042C4F213
:101A4000010290427FF420AF012725E7002723E71A
:101A500002B0BDE8F08F00008068084018BF012088
:101A600070470000002A08BF0904016170470000A8
:101A700040F21C20C2F200000068704740F20C00E7
:101A800040F21C21C2F20000C2F2000100780A6894
:101A9000104408607047000080B542F20000C4F2B4
:101AA0000200016841F010010160032000F07AF8A3
:101AB0000F2000F005F800F027F8002080BD00009E
:101AC00070B540F20C06C2F2000640F21401327802
:101AD000C2F200014FF47A730968B3FBF2F20446D4
:101AE000B1FBF2F1084600F073FB0F2C4FF001053B
:101AF00008D838B94FF0FF3021460022002500F009
:101B000025F87460284670BD82B041F21800C4F216
:101B100002000168022241F001010160016801F048
:101B2000010101910199416841F080514160406893
:101B300000F08050009000980420C4F20100016879
:101B400062F31A61016002B07047000010B54EF6F2
:101B50000C5CCEF2000CDCF80030C3F3022E8EF0E9
:101B60000704042C28BF0424BEF103034FF0FF3EFA
:101B70000EFA04F438BF0023A14399400EFA03F390
:101B80009A43114300F00F0200F160430901043A47
:101B900003F564436244002848BF02F10C03197046
:101BA00010BD00004EF60C51CEF200010A684FF64F
:101BB000FF031A4060F30A2242F0806040F0FD709B
:101BC00008607047002804BF012070472DE9F043EA
:101BD00081B042F20008C4F202080446D8F80000BE
:101BE0000D4600F0070088420CD2D8F8000020F023
:101BF00007002843C8F80000D8F8000000F00700EC
:101C0000A8426CD1206841F204098107C4F202099C
:101C100017D5410705D5D9F8001041F4E061C9F89E
:101C20000010010705D5D9F8001041F46051C9F83A
:101C30000010D9F80010A26821F0F0011143C9F892
:101C40000010C00742D1D8F8000000F00700A842F9
:101C50000CD9D8F8000020F007002843C8F800008D
:101C6000D8F8000000F00700A84238D120684107EA
:101C700007D5D9F80010E26821F4E0611143C9F8F2
:101C80000010000708D5D9F80000216920F4605041
:101C900040EAC100C9F80000D9F8002002F00C00A9
:101CA000082841F20020C0F27A004DD143F2E663E9
:101CB000C2F38341C0F60003595CD20338D440F626
:101CC0000010C0F23D0048433EE000BF606859F894
:101CD000041C022808D0012826D1890306D401203B
:101CE00001B0BDE8F08300BF8901F8D5D9F8001034
:101CF00021F003010843C9F80000FFF7B9FE0646CA
:101D000041F28837D9F80000616800F00C00B0EBB0
:101D1000810F98D0FFF7ACFE801BB842F2D90320A8
:101D200001B0BDE8F08300BF8907D8D5DEE700BF6A
:101D3000D9F8002043F2E463C2F34042C0F6000346
:101D40009A5C4843B0FBF2F0D9F8001043F2CC6241
:101D5000C1F30311C0F60002515C40F2140220FAF4
:101D600001F140F21000C2F200000068C2F200026D
:101D70001160FFF7A5FE002001B0BDE8F083000070
:101D800040F2140041F20401C2F20000C4F2020168
:101D90000068096843F2DC62C1F30221C0F6000268
:101DA000515CC8407047000040F2140041F2040149
:101DB000C2F20000C4F202010068096843F2DC626A
:101DC000C1F3C221C0F60002515CC8407047000058
:101DD000002804BF012070472DE9F04182B004467D
:101DE000007841F20006C007C4F202060CD0706809
:101DF00000F00C00042840F081803068800303D597
:101E00006068002800F04681207880071BD5706844
:101E100010F00C0F09D0706800F00C00082840F09A
:101E200087807068C00300F183803068800703D525
:101E30002069012840F02E813068616920F0F800A7
:101E400040EAC10030602078000713D420784007B2
:101E50002CD4E569002D00F01881706800F00C00AA
:101E6000082840F0A780012D40F00481012002B035
:101E7000BDE8F081A069002800F084800020C4F251
:101E800042200121C0F88014FFF7F2FD054600BF93
:101E9000706A800700F1B280FFF7EAFD401B02285C
:101EA000F6D9032002B0BDE8F08100BFF0695FEA17
:101EB000C00808D4F06940F08050F061F06900F08B
:101EC00080500090009847F20007C4F2000738687D
:101ED000C00549D4386840F480703860FFF7C8FD09
:101EE000054600BF3868C0053ED4FFF7C1FD401B62
:101EF0006428F7D9032002B0BDE8F081706800F0D3
:101F00000C00082803D17068C0033FF576AF616804
:101F10003068002900F00C81B1F5A02F00F000819D
:101F2000B1F5803F40F01A8140F480301CE100BFE1
:101F30002069002840F20000C4F2422000F08880AE
:101F400001210160FFF794FD054600BF306880075E
:101F50003FF572AFFFF78CFD401B0228F6D9032036
:101F600002B0BDE8F08100BFE168306A002900F0EE
:101F70009D80052900F09280012940F0AF8040F05B
:101F80000100B1E00020C4F242200021C0F880141A
:101F9000FFF76EFD054600BF706A80077FF556AFFC
:101FA000FFF766FD401B0228F6D9032002B0BDE80A
:101FB000F08100BF0027C4F2422700203866FFF7F7
:101FC00057FD022D05460DD13068800140F1DE80BD
:101FD000FFF74EFD401B02284FF00300F4D902B07A
:101FE000BDE8F081306880014FD5FFF741FD401B0F
:101FF00002284FF00300F5D9F1E700BF40F21400CA
:10200000C2F20000006844F6D351C1F26201A0FBA5
:102010000101480A019000BF00BF0198411E00283D
:1020200001913FF413AF00BF0198411E00280191B8
:102030003FF40CAF00BF0198411E002801913FF40E
:1020400005AF00BF0198411E00280191E4D1FDE6D3
:1020500000210160FFF70CFD054600BF30688007D6
:102060007FF5F1AEFFF704FD401B02284FF003009F
:10207000F4D9B4E77068216A00F480328A4209D149
:10208000616A00F47010884204D1002002B0BDE8FB
:10209000F08100BF012002B0BDE8F08140F00400F3
:1020A0003062306A40F001001EE000BF20F0010005
:1020B0003062306A20F004003062FFF7D9FC054638
:1020C00041F28837306A800720D5FFF7D1FC401BEA
:1020D000B8424FF00300F5D981E700BF20F00100BE
:1020E0003062306A20F004003062FFF7C1FC054620
:1020F00041F28837306A800708D4FFF7B9FC401BEB
:10210000B842F7D9032002B0BDE8F081B8F1000F62
:102110003FF59FAEF06920F08050F06199E600BF76
:1021200040F480203060306840F480301CE000BF14
:1021300020F480303060306820F480203060FFF779
:1021400097FC0546306880037FF55EAEFFF790FC94
:10215000401B64284FF00300F4D940E720F480309E
:102160003060306820F480203060FFF781FC054645
:10217000306880033FF548AEFFF77AFC401B6428C7
:10218000F6D9032002B0BDE8F08100BF206AB0F5A7
:10219000803F05D17168A26821F40031114371605C
:1021A0007168626A21F47411114308437060012060
:1021B0003866FFF75DFC0446306880013FF565AF87
:1021C000FFF756FC001B02284FF00300F4D906E786
:1021D000411E0020B0EB116F1CBF012070474EF272
:1021E0001002CEF2000251604EF62351CEF20001F1
:1021F000F0230B70072190601160704790F83C202D
:10220000012A4FF0020236D010B580F83D20026856
:10221000D2F804E0D2F808C00C682EF07003234313
:1022200040F2FF74C4F20004A24253600ADCB2F12F
:10223000804F13D040F20043C4F200039A420DD005
:1022400011E000BF42F60043C4F201039A4205D0F8
:1022500040F60003C4F200039A4204D149682CF00E
:102260008003194391600121002280F83D1080F81D
:102270003C20BDE81040104670470000002804BF15
:102280000120704710B590F83D1031B9002180F859
:102290003C10044600F070F82046022180F83D1002
:1022A000016840F2FF740B68C4F2000442F6004C6F
:1022B000A142C4F2010C15DCB1F1804F1AD040F2FA
:1022C0000042C4F20002914214D0A14218DCB1F1E4
:1022D000804F1DD040F20042C4F20002914217D05C
:1022E0001AE000BF614505D040F60002C4F20002CA
:1022F0009142EAD1826823F070031343A142E6DDE4
:10230000614505D040F60002C4F20002914203D1BB
:10231000026923F440731343846923F08002D0F8E8
:1023200004E0C368224361450A60CB62C1F828E03B
:1023300002D14269CCF8302001224A610B69DB07E7
:1023400003D00B6923F001030B6180F8462080F86D
:102350003E2080F83F2080F8402080F8412080F81F
:10236000422080F8432080F8442080F8452080F8FF
:102370003D20002010BD0000006840F60001C4F2BE
:102380000001884218BF704781B041F21C00C4F2BE
:102390000200016841F004010160006800F00400DF
:1023A0000090009801B0704790F83D1001291CBFC3
:1023B00001207047022180F83D10006840F2FF7153
:1023C000C4F20001884209DCB0F1804F12D040F223
:1023D0000041C4F2000188420CD012E042F60041F4
:1023E000C4F20101884205D040F60001C4F20001A8
:1023F000884206D1816801F00701062904BF002048
:102400007047016841F00101016000207047000041
:1024100090F83C20012A4FF002026CD080B580F881
:102420003D20D0F800C04FF67772DCF8083023EA80
:102430000202CCF808200B684F2B29DC1F2B45DD4E
:10244000202B46D0302B44D0402B40F0AF80D1F829
:1024500004E0C968DCF82030DCF8202022F001021A
:10246000CCF82020DCF8182022F0F00242EA01111A
:1024700023F00A0242EA0E02CCF81810CCF8202011
:10248000DCF8081041F0470121F0300128E000BFDE
:102490006F2B33DDB3F5005F74D0B3F5805F21D0CF
:1024A000702B40F08380D1E901E3C968DCF8082093
:1024B00043EA0E0322F47F4243EA01211143CCF8A0
:1024C0000810DCF8081041F0770109E00BB1102B7F
:1024D0006CD1DCF8081021F07001194341F00701BC
:1024E000CCF808100022012180F83D10002180F86E
:1024F0003C10BDE880401046704700BF502B21D0F3
:10250000602B53D1D1F804E0C968DCF82030DCF846
:10251000202022F01002CCF82020DCF8182022F431
:10252000704242EA013123F0A00242EA0E12CCF8D6
:102530001810CCF82020DCF8081041F0670121F0D9
:102540001001CDE7D1F804E0C968DCF82030DCF8F0
:10255000202022F00102CCF82020DCF8182022F004
:10256000F00242EA011123F00A0242EA0E02CCF81C
:102570001810CCF82020DCF8081041F0570121F0A9
:102580002001ADE7D1E901E3C968DCF8082043EA9E
:102590000E0322F47F4243EA01211143CCF80810D4
:1025A000DCF8081041F480419AE700BF01229AE765
:1025B000002804BF0120704710B5044690F8410080
:1025C00028B9002084F84000204600F063F8242059
:1025D00084F841002068D4E90212C36823F4005350
:1025E000C360036923F440531A430261D4E904230E
:1025F0001143C268194341F20C639A431143C1600D
:102600004169A26921F44071114343F60002C4F20A
:1026100001029042416103D0FFF7B2FB02E000BF2C
:10262000FFF7C2FBD4E90023192148439900B0FB0E
:10263000F1F048F21F5CC5F2EB1CA0FB0C314FF629
:102640009C734909C0F6FF7301FB0300322303EBBF
:102650000010A0FB0C03F02000EA531000EB011067
:10266000C3F34311084490601069202120F4904086
:102670001061506920F02A005061D06840F4005089
:10268000D0600020606484F8411084F842106063D8
:1026900010BD000070B586B040F60004C4F201041D
:1026A000006804F54051002688420596CDE903668E
:1026B000029601D006B070BD41F21800C4F20200CB
:1026C000016802AD41F480410160016801F480417C
:1026D00001910199016841F00401016000682946F7
:1026E00000F00400019001984FF400700290022065
:1026F0000390032005902046FFF7A6F84FF4806072
:10270000CDE90206204629460496FFF79DF806B05B
:1027100070BD0000FEE7000070B586B0002541F2F4
:102720001800CDE90455CDE90255C4F20200016854
:1027300040F6000441F0200101600168C4F2010488
:1027400001F02001019101990168002241F004018A
:1027500001600068012100F004000190019820460A
:102760000126FFF77FF91120CDE90305022005902E
:1027700002A920460296FFF767F806B070BD000078
:1027800080B586B040F28C1040F600020021C2F203
:102790000000C4F2000247234FF6FE7C0591CDE90C
:1027A0000311CDE90011C0E90023C0E9021C016159
:1027B0008161FFF763FD002818BFFFF72BF84FF486
:1027C0008050029040F28C10C2F2000002A9FFF784
:1027D0001FFE002818BFFFF71DF840F28C10C2F250
:1027E00000006946FFF70AFD002818BFFFF712F83E
:1027F00006B080BD80B540F2D41043F60001C2F2AD
:102800000000C4F2010100234FF00C0C4FF4E13240
:1028100080E80E00C0E90333C0E905C3C361FFF7D8
:10282000C7FE002808BF80BDBDE88040FEF7F2BFAC
:10283000FEE70000FEE70000704700007047000060
:10284000FFF71CB970470000FEE7000092B0FFF7E9
:1028500023F900240120CDE90D44CDE90B44089073
:102860000C904FF4E0104FF480310225119008A82D
:10287000CDE90914CDE90F51FFF7AAFA20B1EFF322
:10288000108072B6FEE700BF0F20CDE903054FF4BC
:102890008060CDE9060403A802210594FFF792F9B0
:1028A00020B1EFF3108072B6FEE700BFFFF734FFF0
:1028B000FFF766FFFFF79EFF40F27414C2F20004B8
:1028C00040F28C1240F600030127C2F20002C4F26B
:1028D0000103204601210097FEF722FE0FF23C087B
:1028E00004E000BF4FF4FA60FEF79AFF2046FEF7BF
:1028F00021FF0028F6D1D4E9040600F01FFE0746A8
:1029000030460D4600F01AFE064640463A462B4633
:10291000CDE90061FDF782FCE4E700BF54656D700E
:102920003A20252E316620432C2048756D693A20C7
:10293000252E316625250A005FEA400C08BF91F07C
:10294000000F4FEA8C234FEAC12243EA51514FEA6C
:102950001C5018BF00F5F0404FEA300018BF41F09E
:1029600000415FEA6C5C00F02980BCF1FF3F08BFCA
:1029700040F080407047130C06BF12044FF0100C5B
:102980004FF0000C130E04BF12020CF1080C130FD1
:1029900004BF12010CF1040C930F04BF92000CF160
:1029A000020CD30F04BF52000CF1010C11464FF082
:1029B0000002A0F11F00A0EB0C00704711F0004FC7
:1029C00008BF704731F000413FF4D5AF0B0C06BF94
:1029D00009044FF0100C4FF0000C0B0E04BF09025D
:1029E0000CF1080C0B0F04BF09010CF1040C8B0F48
:1029F00004BF89000CF1020CCB0F04BF49000CF19D
:102A0000010CCCF1200322FA03F341EA030102FA9C
:102A10000CF2A0EB0C0000F10100704723F07F479F
:102A200020F07F4C80EA030000F00040ACEB07038D
:102A300003F57C5303F1FF032DE9804909B44FEA04
:102A4000144324EA03484FEA154B25EA0B4E0FF2D4
:102A5000042606EB13273E7803FB0667C7F500073D
:102A600007FB06F64FEAD64606F102064FEA543750
:102A700007FB066CCCF1005C4FEA1C472CEA074CC4
:102A80000CFB06F507FB06F404EB15464FEA961619
:102A900049085FEA320234BF00204FF000404FEA9D
:102AA000D13706FB07FC4FEA1C4C0CFB0BF7D21B83
:102AB00003FB0CF761EB07010CFB0EF7B0EB0740D3
:102AC00072EB17420CFB08F734BFA2EB0742B2EBE4
:102AD000074261EB17414FEA0C444FEA910706FBAE
:102AE00007FC4FEA1C4C0CFB0BF7B0EBC74072EB3A
:102AF000573203FB0CF734BFA2EBC742B2EBC7421D
:102B000061EB57310CFB0EF7B0EBC70072EB57725D
:102B10000CFB08F734BFA2EBC702B2EBC70261EBB4
:102B200057714FEA816141EA92114FEA826242EAAB
:102B300090124FEA806004EBCC04039F4FEAD13738
:102B400006FB07FC4FEA1C4C0CFB0BF7D21B03FBEC
:102B50000CF761EB07010CFB0EF7B0EB074072EBD3
:102B600017420CFB08F734BFA2EB0742B2EB074257
:102B700061EB17414FEA8C5504EB9C244FEA910717
:102B800006FB07FC4FEA1C4C0CFB0BF7B0EBC740F5
:102B900072EB573203FB0CF734BFA2EBC742B2EB28
:102BA000C74261EB57310CFB0EF7B0EBC70072EB7D
:102BB00057720CFB08F734BFA2EBC702B2EBC70297
:102BC00061EB57714FEA816141EA92114FEA8262EB
:102BD00042EA90124FEA806015EB4C2544F1000464
:102BE0004FEAD13706FB07FC4FEA1C4C0CFB0BF7F6
:102BF000D21B03FB0CF761EB07010CFB0EF7B0EBEC
:102C0000074072EB17420CFB08F734BFA2EB0742F8
:102C1000B2EB074261EB17414FEA813141EA924141
:102C20004FEA823242EA90424FEA80304FEA0C7615
:102C300015EB1C1544F1000448EA03434EEA0B4827
:102C40004FF0000EB2EB080C71EB030724BF624695
:102C500039464EEB0E0E4FF0000B00185241494121
:102C60004BEB0B0BB2EB080C71EB03077BF1000B8A
:102C700024BF624639464EEB0E0E4FF0000B001893
:102C8000524149414BEB0B0BB2EB080C71EB0307C4
:102C90007BF1000B24BF624639464EEB0E0E51EA23
:102CA000020718BF46F0010616EB0E7655F100023A
:102CB00054F1000103D5BDE88901BDE80088BDE8F5
:102CC0008901BDE80048B619524141EB0101A3F169
:102CD0000103704780807F7E7D7C7B7A7978777670
:102CE00076757473727171706F6E6E6D6C6C6B6AE9
:102CF0006A69686867666665646463636261616087
:102D0000605F5F5E5E5D5D5C5C5B5B5A5A59595803
:102D1000585757565655555554545353525252516D
:102D2000515050504F4F4F4E4E4D4D4D4C4C4C4BC3
:102D30004B4B4A4A4A49494948484847474747460A
:102D40004646454545444444444343434342424246
:102D5000424141419C46002B30D477002BD04FEAB2
:102D600037071CB503B44FF010004FF01001BAF153
:102D7000000F06D0BCF1000FDCBF40F0080040F0AF
:102D800008014FF000000FBCBDE810400BF1010B33
:102D9000BBF1010F08BF5FEA170722BF12F1010262
:102DA00011F101014FF0004143F1000300F0004038
:102DB00043EA00007047F9D35708D0E746EA0646D1
:102DC0004FEA164613F1400F1FDD13F1200FDFBF4E
:102DD00016430A46002120335B42BED0C3F12007D0
:102DE00046EA06464FEA164602FA07F746EA07069B
:102DF00022FA03F2C3F1200701FA07F742EA0702B9
:102E000021FA03F14FF00003A7E746EA020646EA7B
:102E100006464FEA164646EA0106BCBF46EA0646A3
:102E2000360C4FF000034FF000024FF0000194E722
:102E30002DE9804C70B49A46934691E8380007C853
:102E400031EA400C48BF34EA430C03D5FFF7E6FDF6
:102E5000FFF780FFF0BCBDE8008C2DE9804C70B41A
:102E60009A46934691E8380007C810F0804F08BF93
:102E700013F0804F03D100F005F8FFF76BFFF0BCB3
:102E8000BDE8008C20F07F4723F07F4C80EA0300F0
:102E900000F0004007EB0C03A3F57C53A3F1FE0305
:102EA00092F0000F00F0B38095F0000F00F07780F3
:102EB0002DE901494FEA114021EA00484FEA144642
:102EC00024EA064700FB06FC08FB06F607FB08F8A9
:102ED00018EB06484CEB164C00FB07F718EB0748BD
:102EE0004CEB17404FEA124B22EA0B4E4FEA1546C5
:102EF00025EA06470BFB06FC0EFB06F607FB0EFE5B
:102F00001EEB064E4CEB164C0BFB07F71EEB074E69
:102F10004CEB174B18EB0B0840F1000018EB0E0BB5
:102F200058EB000840F100008F1A4FF000014FF0FD
:102F300000063CBFC943661B14BFB5EB040C00215F
:102F40003CBFC943F61B4FEA174427EA04454FEA42
:102F50001C472CEA074C04FB076205FB07F70CFB38
:102F600005F616EB074642EB174204FB0CFC16EB8A
:102F70000C4642EB1C421BEB060658EB0202414199
:102F80004EEA8E0E46EA9E0601D5BDE80189B619C5
:102F9000524141EB0101A3F10103BDE801894FEA70
:102FA000144524EA05464FEA114721EA074C05FB80
:102FB00007F406FB07F70CFB06F111EB074144EBA6
:102FC000174405FB0CFC11EB0C4144EB1C444FEA8D
:102FD000124722EA074C05FB07F206FB07F70CFB3A
:102FE00006F616EB074642EB174205FB0CFC16EB08
:102FF0000C4642EB1C456A1854F1000148BF70476B
:10300000B619524141EB0101A3F10103704795F05C
:10301000000F37D04FEA114221EA02464FEA144727
:1030200024EA074C02FB07F106FB07F70CFB06F44A
:1030300014EB074441EB174102FB0CFC14EB0C446E
:1030400041EB1C414FEA154725EA074C02FB07F507
:1030500006FB07F70CFB06F616EB074645EB174594
:1030600002FB0CFC16EB0C4645EB1C42121951F10D
:10307000000148BF7047B619524141EB0101A3F16D
:10308000010370474FEA144524EA05464FEA114709
:1030900021EA074C05FB07F106FB07F70CFB06F2DC
:1030A00012EB074241EB174105FB0CFC12EB0C4203
:1030B00051EB1C414FF0000648BF7047921841EB9E
:1030C0000101A3F101037047490050EAC12018BF74
:1030D00004204A0D18BF40F0010040F2FF72B2EB2D
:1030E000515F08BF40F00200012808BF052070476B
:1030F00030380A2801D201207047002070478A68C2
:10310000002A02DC0022FDF743BD521E8A604A6895
:10311000C0B2531C4B6010707047000010B50029FE
:103120000AD00878002807D005487844FDF71AFF30
:10313000002801D0002010BD0248784410BD0000D6
:10314000EE050000E605000021F0004201F000431A
:10315000A2F16052B2F5801F28BFD2F17F6C0BD96B
:103160005FEA001C43EAC20242EB507018BF70478E
:1031700028BF20F001007047B2F5801FBCBF184681
:1031800070474FEA410C1CF5001F02D2084600F0C0
:1031900046BA70B500F07DF900000089FFF7F6BF70
:1031A0004FF00040A0F58000704700002DE9C041BD
:1031B00030B4DFF8A8C23CEA111418BF3CEA13147B
:1031C00000F0F0801CEA111481EA030544EAD5748A
:1031D00018BF1CEA131500F0CB80A4EB050404F122
:1031E0007F7404F500344FF0004545EAC12145EAFB
:1031F000C32341EA505143EA52534FEAC0204FEAF9
:10320000C222994208BF904200F0A0804FEA1365A5
:103210000FF24816765D4FEA134506FB05F7C7F136
:10322000807706FB07F74FEAD737A7FB036876429C
:10323000A7FB06CEC8F5803838BFA8F1010807FB08
:1032400008E6A6FB028C4FF0000EE6FB03CED8F199
:1032500000086FEA0C0C5CF1000C6FEA0E0E4EF1E8
:10326000004EA6FB0C584FF00007E6FB0E87A1FBB3
:1032700008C6A0FB07CE16EB0E064FF0000545F181
:103280000005E1FB076515F1E04E7EBFA4F5803433
:103290005FEA46066D4116F1800745F100054FEAE9
:1032A000172747EA05674FEA15254FEA0666A6F194
:1032B000DE46B6F1805F20D9384605EBC47124F0B4
:1032C000010C01EB0C11BCF1FE6F02D8F0BCBDE8A3
:1032D000008124425CBF01F5801E9EEAC47F02D4B7
:1032E000F0BCBDE80081244200F13980A1F1C04169
:1032F000F0BCBDE8004100F01AB94FEAD02040EA26
:1033000041504FEAD1214FEAD22242EA43524FEADA
:10331000D323A7FB028607FB036605FB02661EEAB2
:103320000E0F58BFA6EB0056B6EB00564FEA520EF2
:103330004EEAC37E18EB0E0E56EB530EBCD518EBBF
:1033400002085E417F1C55F10005B5E74FF480157A
:103350004FF000074FF000064FF00008ACE701F116
:10336000C04101F000414FF00000F0BCBDE8008119
:103370000CEA131511EA0C1F00D00CE013EA0C1F25
:1033800000F025804FF0000081EA030101F00041C8
:10339000F0BCBDE80081F0BCBDE8004181EA03015A
:1033A00000F0C5B8F0BCBDE8004170B500F071F8A0
:1033B000097EFC3E00F007B84FF0000081EA0301EF
:1033C00001F00041704781EA030100F0B0B8F0BCA1
:1033D000BDE8004122494FF000007047FFFDFBF9B6
:1033E000F7F5F4F2F0EEEDEBE9E8E6E4E3E1E0DE38
:1033F000DDDBDAD8D7D5D4D3D1D0CFCDCCCBCAC8AA
:10340000C7C6C5C4C2C1C0BFBEBDBCBBBAB9B8B7D0
:10341000B6B5B4B3B2B1B0AFAEADACABAAA9A8A8C3
:10342000A7A6A5A4A3A3A2A1A09F9F9E9D9C9C9B91
:103430009A9999989797969595949393929191903C
:103440008F8F8E8E8D8C8C8B8B8A898988888787CD
:103450008685858484838382828181800000FF0742
:103460000000F87F10F0004248BF4042B0FA80F3FD
:1034700010FA03F10AD0C3F11D0303F5806302EBD8
:1034800003524FEA415002EBD12170474FF0000048
:1034900070470EF1020E2EF0030E5EF8046B3642FA
:1034A00005D4012A43EB030515F5001F12D80128A6
:1034B00041EB010C1CF5001F0CD80ED14FEAD17C5A
:1034C0000CEB4C0C0CF1020C15F5001F08BF4CEB7B
:1034D000D37C04E04FF0080C01E04FEAD37C0CEB06
:1034E0004C0526FA05F606F00706B6F1040C06D2DE
:1034F0000EEB860CBDE870404CF0010C6047DFE835
:103500000CF0090B02024FF00041A1F500214FF031
:10351000000070BD19461046012851EB010418BF88
:10352000D4F5001484BF002001F0004170BD0808EC
:10353000A0F500114FEA31017047000043004FEA47
:10354000D30C4FEA3C0C43401FBF40070CF16051C5
:1035500013F0FE4F70471CF0006F03D10CF00041D8
:10356000002070470CF0004343EA507040EACC0062
:1035700010B500F00EF800BF000000924FEA000105
:10358000FFF7D5BF4FF00041A1F500214FF000003B
:1035900070470EF1020E2EF0030E5EF8044B24422B
:1035A00004D44FEA4102B2F17F4F11D84FEA4003F1
:1035B000B3F17F4F0CD80ED14FEAD07C0CEB4C0C02
:1035C0000CF1020CB2F17F4F08BF4CEBD17C04E050
:1035D0004FF0080C01E04FEAD17C0CEB4C0324FACD
:1035E00003F404F00704B4F1040C06D20EEB840CCF
:1035F000BDE810404CF0010C6047DFE80CF0070814
:1036000002024FF00040A0F5800010BD08464200C5
:1036100018BFD2F1807288BF00F0004010BDFF21BA
:1036200041EAD050C0057047FCF766BF0240000079
:10363000000000A00000000005400000000000C8DD
:10364000000000000C4000000000409C0000000052
:10365000194000000020BCBE000000003440000003
:10366000BFC91B8E00000004B5400000504BCFD0F6
:103670006607E2CF010000006C4100003E8251AAC3
:10368000DFEEA73401000000D9420000DCB5A0E263
:103690003A301F97FFFFFFFFB4450000FD25A0C88B
:1036A000E9A3C14FFFFFFFFFFF3F000000000080C4
:1036B00000000000FF3F000000000080000000004C
:1036C0003A7474003A7474003A7474000000000094
:1036D00000000000010203040607080900000000C2
:1036E00001020304010202030405060708090A0B8C
:1036F0000C0D0E0F101000003837000800000020DD
:103700001800000050010008503700081800002081
:1037100008080000700100081C00000043000000C1
:10372000F8FFFFFF0C0000000E0000000F0000007B
:103730002E0000000000000000000000000000005B
:1037400000000000010000001000000000127A00DC
:04000005080000ED02
:00000001FF
