:020000040800F2
:1000000090080020E5010008A93B0008CD2E00085B
:10001000A53B0008B5160008BD3B00080000000025
:10002000000000000000000000000000B13B0008DC
:10003000C516000800000000AD3B0008B53B0008F5
:10004000FF010008FF010008FF010008FF01000890
:10005000FF010008FF010008FF010008FF01000880
:10006000FF010008FF010008FF010008FF01000870
:10007000FF010008FF010008FF010008FF01000860
:10008000FF010008B9160008FF010008FF01000881
:10009000FF010008FF010008FF010008FF01000840
:1000A000FF010008FF010008FF010008FF01000830
:1000B000FF010008FF010008FF010008FF01000820
:1000C000FF010008FF010008FF010008FF01000810
:1000D000FF010008FF010008FF010008FF01000800
:1000E000FF010008FF010008FF01000800F002F80E
:1000F00000F068F814A696E8000CB244B344DA4560
:1001000001D100F05FF8BAE80F000FA696E83000C2
:10011000A5EB040504EB0607AAEB0704A7F101070A
:100120004FEA15154FEA3414A4F10104AC4201D38F
:1001300000F048F813F0010F18BFFB1A43F0010359
:1001400000F001F8DBE71847344C0000544C000085
:10015000103A24BF78C878C1FAD8520724BF30C8F3
:1001600030C144BF04680C60704700007047000055
:100170000023002400250026103A28BF78C1FBD8B0
:10018000520728BF30C148BF0B607047662904F092
:100190004685782900F07A80002070471FB59DE8D9
:1001A000030001F001F900F0CBFB04000020002166
:1001B00004F0B2F9E06000F0CDFD1FBD10B500F015
:1001C00032FE10BD00F09AFE1146FFF7E7FF03F084
:1001D000F7FC01F053F803B4FFF7F0FF03BC01F0A4
:1001E000D5F900000948804709480047FEE7FEE7C7
:1001F000FEE7FEE7FEE7FEE7FEE7FEE7FEE7FEE7D7
:1002000004480549054A064B70470000B93B000801
:10021000ED000008900200209008002090040020CB
:10022000900400200FB4044910B503AA029800F00E
:1002300075FB10BC5DF814FB6C00002070B5044623
:1002400085690068C10601D5302600E02026C00778
:1002500007D070BDD4E9012130469047206A401C88
:1002600020626D1EF6D570BD70B5044685690078B4
:10027000C00707D170BDD4E9012120209047206A32
:10028000401C20626D1EF6D570BD000070B504469E
:100290000D4621461068AFF300802188090502D57C
:1002A0000F4A7A4402E00E4A7A440E32002104F1E9
:1002B000240305E000F00F060009965D5E54491C1A
:1002C0000028F7D120780023000704D5702D02D034
:1002D00009B1022311322046BDE8704000F0B7B8E2
:1002E0007C4900002DE9F05F894604464FF0000A82
:1002F000DFF824B1FB44C0F820A02046E16888471D
:1003000000287DD0252806D0D4E901219047206A15
:10031000401C2062F1E700255F462046E1688847DF
:100320002028064607DB312E05D2B81910F8200C1C
:1003300008B10543F1E7A80701D525F00405C4F885
:100340001CA00027C4F818A02A2E09D0304604F0BB
:10035000CDF838B304EB8708303EC8F8186019E0D0
:1003600059F8041B204604EB87029161E168884735
:10037000012F064618D1E069002820DA25F0200573
:100380001DE0D8F8180000EB800006EB4000303884
:10039000C8F818002046E1688847064604F0A6F829
:1003A0000028EED1012F0AD02E2E08D12046E16878
:1003B00088477F1C0646022F45F02005C4DBA06954
:1003C000002803DA404245F00105A061E80701D0AA
:1003D00025F01005A6B1A6F14100192802D8203653
:1003E00045F400654A463146204625604D46FFF7F4
:1003F000CDFE60B1012807D0ED1D25F0070000E01B
:1004000007E000F1080978E705F1040975E73046CF
:100410007AE7206ABDE8F09F5249000010B5044613
:1004200003E004F06AF8401C09D014F8010B0549F8
:100430000028F6D1BDE810400A2004F05EB84FF065
:10044000FF3010BD6C0000207047704770472DE9E9
:10045000F0470D4699469246044600F1240801688B
:10046000880604D5E06921F01001216000E0012038
:10047000A84201DD471B00E00027A1697A1902EBC1
:100480000900081AA0612078C00602D42046FFF7B0
:10049000D5FE002608E0D4E901211AF806009047AD
:1004A000206A401C761C20624E45F4DB2078C00692
:1004B0000AD52046FFF7C2FE06E0D4E9012130202C
:1004C0009047206A401C2062381EA7F10107F4DC27
:1004D00007E0D4E9012118F805009047206A401C84
:1004E0002062281EA5F10105F3DC2046FFF7BCFEC3
:1004F0002078000602D50220BDE8F0870120FBE746
:100500002DE9FF4F0C461E464FF0FF378BB0D2E966
:100510000001DDF860800A908A46C1F30A5505B9EA
:100520003D46002108464FF00000BAF1000F00F4EC
:10053000400005DA00EB80004FF4400101EA500072
:100540004FEA9059B9F1010F00DDB9460A9850EA17
:100550004A000ED044F61050A5F2FF3545432F1443
:10056000B8F1000F1ED07542291E1EDDC9F1000230
:100570001CE0B8F1010F4FF0000001D0302103E082
:10058000F24305E02154401CB042FBDB3046002220
:10059000002121540B99C1F80880C1E900200FB057
:1005A000BDE8F08FBD1B6D1CDEE74A4600DA6942EC
:1005B00006A800F067FA06AB93E8070003AB83E8F0
:1005C000070050460A9903F0B5FB8DE80700A0F537
:1005D00000501F3800900398002D0ADD42F21F01E1
:1005E0004A460844002303A90390684603F01EFE10
:1005F00009E0A0F500504A461F38002303A90390E4
:10060000684603F028FE8DE807000004000C03D0C4
:100610004FF0FF30410800E01046B8F1000F03D062
:100620000022009215461EE0751E05D400F08CF9DC
:10063000303262556D1EF9D5B3460122084302D00F
:1006400000227F1C04E02078302801D100227F1E88
:10065000002A099784D01DE0112D07DA00F074F903
:10066000303262556D1C50EA0102F5D1084302D0C8
:100670000098C8B10EE00021681E05E0235C625CB2
:1006800063542254401E491C8142F7DBAB46A81B31
:10069000401E0990002004F80B000B98099AC0F83E
:1006A0000880C0E9002B7AE711264FF0000857E7D1
:1006B0002DE9F04F88460446D21D22F0070191B083
:1006C000D1E90001CDE90A0103F0FCFE02460B98D6
:1006D000C00F01D02D2007E02068810701D52B2015
:1006E00002E0202101EAC000032A099001D0072A74
:1006F00005DB03464146204600F084F90BE12078F3
:10070000800601D5E06900E00620B8F1650F81465A
:1007100006D0B8F1660F18D0B8F1670F70D131E08C
:100720000020B9F1110F009001DB112301E009F164
:1007300001030AAA01A90CA8FFF7E2FEDDE90C708B
:10074000002609F10105834647E001204B46009051
:100750004FF000470AAA01A90CA8FFF7D1FEDDE976
:100760000DB00C995D46002610B909F101000D1875
:10077000B9EB050003D4C0F1FF3609F10105A5EB83
:1007800009002BE0B9F1010F01DA4FF00109002057
:10079000B9F1110F0090484601DD112300E0034636
:1007A0000AAA01A90CA8FFF7ABFEDDE90C704D46C3
:1007B00000268346207800070AD4AB4500DA5D4660
:1007C00001A8012D04DD411911F8011C302907D0C1
:1007D0004F4502DA17F1040F04DA012082460FE0D8
:1007E0006D1EEEE7002F02DCED1B3E4403E0781C9B
:1007F000A84200DD7D1CB81B00F1010A4FF0004744
:100800002078000703D4AA4501DB4FF0FF3A00210E
:10081000B7F1004F0DF143088DF8431024D00220AA
:100820002B23002F01DA7F422D230A21021EA0F183
:10083000010000DC5FB197FBF1FC97FBF1F201FBDB
:100840001C7C17460CF1300C08F801CDEEE7A8F13E
:10085000010003702188090501D5452100E06521CB
:10086000A0F1010800F8011C09980FA9A1EB0807E5
:10087000FF1D00B10120411901EBEA70A169384464
:10088000081A401EA0612078C00602D42046FFF757
:10089000D5FC099828B1D4E901219047206A401C71
:1008A00020622078C00622D52046FFF7C7FC1EE054
:1008B000002E04DBB34502DD01A8805D00E030209E
:1008C000D4E901219047206A401C2062761CAAF1DD
:1008D00001005FEA000A0AD100F032F8C06801683E
:1008E000405CD4E901219047206A401C2062281E08
:1008F000A5F10105DCDC07E0D4E9012118F8010BC2
:100900009047206A401C2062381EA7F10107F3DCE3
:100910002046FFF7A9FC032011B041E6074B70B554
:100920000D467B4400F05BF80446284600F01CF9B5
:1009300010B14FF0FF3070BD204670BDD53B0000B8
:10094000004870473401002030B5B0F10A0271F15F
:1009500000034FEA900E4EEA817EB0EB0E0061EB91
:1009600091014FEA101E4EEA017E10EB0E0041EBA2
:1009700011114FEA102E4EEA016E10EB0E0041EB02
:1009800011214FEA104E4EEA014E10EB0E0041EBE2
:100990001141401841F100014FEAD00040EA417096
:1009A0004FEAD1014FEA810444EA907410EB8005CC
:1009B00044EB01046D1944EB0404521BA3414FF0B6
:1009C000000348BF0A3200D530BD401C41F1000190
:1009D00030BD000001694A1C02610878704700B50B
:1009E0008FB0CDE901310021059105497944CDE968
:1009F000031011466846FFF775FC0FB000BD0000FC
:100A0000E5FFFFFF2DE9F0411F460446032601687C
:100A1000072A01F4006004DB08B116A505E016A55D
:100A200003E008B115A500E015A521F01000206035
:100A3000A069C01EA0610FB1401EA0612046FFF753
:100A4000FDFB4FB1D4E9012138469047206A401C94
:100A50002062C01C206206E0206AFAE7D4E9012186
:100A600015F8010B9047761EF8D22046FFF7FCFBE5
:100A7000BDE8F0814E414E006E616E00494E460069
:100A8000696E66002DE9F047814616468AB0354802
:100A900078440DC88DE80D0032487844801C03ACC2
:100AA0000DC884E80D0041F69B300844372190FBC7
:100AB000F1F290FBF1F5A5F1800501FB12041B3C5E
:100AC00002D56442012000E00020DFF898A08046B3
:100AD0000027FA44AAF1BE0A0EE0E0070AD0324627
:100AE000684607EB470101230AEB810103F0B3FBE2
:100AF0008DE8070064107F1C002CEED1194F7F4455
:100B0000AE3F19E0E80715D007EB04100DF1180A05
:100B100090E80E008AE80E00C068F04201D19819F2
:100B200008903246012306A903A803F094FB03AB07
:100B300083E807006D10641C002DE3D14FF0010322
:100B400032466946B8F1000F03A802D003F06EFBED
:100B500001E003F080FBC9E90001C9F808200AB0F0
:100B6000BDE8F08744420000007B00F08000704741
:100B70002DE9F05F054617460C46C86820F42010A2
:100B800040F48000C860800602D5084600F0B7FA3D
:100B9000E06841F282014FF0FF3A0140022903D0A0
:100BA000204600F049FAB9E000F42041B1F5004FC9
:100BB0000FD1C00306D56168E06A884200D80846B4
:100BC000606006E02069E0626060606900F08BF9B7
:100BD000A061A0680022EEB200280DDAE1688B0562
:100BE0000AD4C043A06041F490302260E0606068A5
:100BF000411C61600670AAE0E0689146226040F402
:100C00000050E060206978BB606900F05EF904F193
:100C100024054FF00108A8B1A08910F4407F08D046
:100C2000E06900F090F9206118B1E06840F40060DC
:100C300017E0C4F81C802561E06820F4407040F49F
:100C400080600EE0E06900F07EF900282061F0D0BD
:100C5000E06840F4006010F4407FE06002D140F4AE
:100C60008070E06020696060E06825696FF0010BCA
:100C7000C1051ED56168E06A884200D80846411B5C
:100C800004D02246284600F0E1F9E8BB1FB1E56236
:100C9000C4E9015959E0681CE0626060E069401EE7
:100CA000A060E06840F48030E06030462E70BDE81F
:100CB000F09F17B100F480320AE06068411C616067
:100CC0000670E0680A2E40F48030E06006D0002212
:100CD000E16A6068814203D90B4602E00122F7E72E
:100CE0000346B4F80CC05B1B5FEA4C5C04D4D4F838
:100CF0001CC09C4500DD02B3814200D80146002B98
:100D0000A1EB0008E56200E008E0C4E9015907DD55
:100D100022461946284600F099F908B15046C6E720
:100D2000B8F1000F09D0A169E5626560A1EB080088
:100D3000A061E06840F01000E06047B16168A06920
:100D4000E562491B08446560A0615846AFE730463C
:100D5000ADE7000010B54248542100F09FFA414829
:100D6000542100F09BFA4048542100F097FA3F4983
:100D70003B483C4A3F4B08603D490A603A4919608C
:100D8000531C0365481C1065012008653B48344A24
:100D900039A1784400F0D4F920B9384878440A38A9
:100DA00000F075FA37482F4A35A1784400F0C8F9A9
:100DB00020B9344878440A3800F069FA32482A4A9F
:100DC0002FA1784400F0BCF920B92F4878440A38A4
:100DD00000F05DFA40232248DC000021224600F0AA
:100DE00008F920B125487844543800F050FA1D48DD
:100DF00022464023002100F0FCF820B1214878442D
:100E0000543800F044FA184822461023002100F01C
:100E1000F0F8002806D01C487844BDE81040563849
:100E200000F035BA10BD104870B5006D20F0010417
:100E30000B4800F0FDF90B4800F0FAF90A4800F001
:100E4000F7F909E0206D20F00105204600F0F0F9E7
:100E5000204600F0A7F82C46002CF3D170BD00000E
:100E6000180000206C000020C000002000000020BE
:100E70000400002008000020720000005A3F00001B
:100E800077000000463F0000323F00000EB5CDE97C
:100E9000000100F05BFB029069460120ABBE0EBD75
:100EA00008B5694600900220ABBE08BD1FB58DE8AD
:100EB000070069460520ABBE04B010BD1FB58DE824
:100EC0000F0069460620ABBEF6E708B569460090FC
:100ED0000920ABBE08BD1CB5CDE9000169460A205A
:100EE000ABBE1CBD704708B5694600900C20ABBE78
:100EF00008BD000000487047140100207546FFF748
:100F0000F9FFAE4605006946534620F007008546C6
:100F100018B020B5FFF774F9BDE820404FF0000687
:100F20004FF000074FF000084FF0000BAC46ACE864
:100F3000C009ACE8C009ACE8C009ACE8C00921F0C0
:100F400007018D46704770B5064600F011FA056836
:100F500006F10B0020F00704B4429CBF002070BDD6
:100F60002B466A68BAB11068A04210D304F1080198
:100F700088423CBF5068586007D3516810194160DF
:100F80001168091B016058601460101D70BD134684
:100F90005268002AE7D12146284600F0F1F90028DE
:100FA000DED170BD70B50446051F00F0E1F90068A0
:100FB000002C14BF446870BD002C18BFAC423CBF6D
:100FC00020466468F8D301680A18AA4218BF456031
:100FD00003D12A6805461144016028684119A142DD
:100FE0001CBF6C6070BD616869602168084428603E
:100FF00070BD70B5C468A50713D0650211D4B2F5F1
:10100000807F09D0B2F5007F06D0B2F5806F08D19D
:10101000012300F1240106E05D1E6FF07F46B5421A
:1010200001D3012070BD0161C361416024F470618E
:101030001143C160002070BDC16821F4001141F06E
:101040008001C16000218160016070472DE9F74F88
:1010500015460C464FF0FF3B3848D768D2F814A02D
:10106000074209D05046A969FFF735FF002819DB70
:101070003248C0430740EF604FF000496FF000482E
:101080004C4501D3464600E0264600993B46504673
:101090003246FFF70BFFA96920F00042B21A114453
:1010A000A96128B12846FFF7C7FF5846BDE8FE8F63
:1010B000A41BE5D10020F9E770B504460569C06AB4
:1010C0006168884200D80846E16821F42011E16097
:1010D000C90312D5A84208D02246411B2846FFF773
:1010E000B5FF10B14FF0FF3070BD0020E562C4E9DC
:1010F0000150E06820F48030E060002070BD10B541
:101100000446C06820F02000E060A16AA06988421F
:101110000DD02046FFF7D0FFE06820F4405040F0AB
:101120001000E060A06AA0612069E062606044F2A3
:101130004001E0688843E06010BD0000100002003C
:101140002DE9F0410C461646070047D0104600F046
:101150006FF82078611C61280AD0722802D07728A5
:101160003CD102E00125002405E00225042402E030
:10117000082448F2020511F8010B2B2806D062283A
:1011800009D011F8010C74280AD00BE045F00305D2
:1011900044F00204EFE745F0040544F00104EAE7F7
:1011A00044F0100438462146FFF770FE411C15D06C
:1011B0000021316171604FF40071F560F16170617F
:1011C000200704D530460222002100F023F9306DBB
:1011D00040F0010030653046BDE8F0810020FBE7BB
:1011E0002DE9F0410D460646104C206DC10704D094
:1011F000410804D020F00104F7E722460EE0542015
:10120000FFF7A1FE07000ED0206D47F00101084353
:1012100054212065384600F041F83A4629463046C8
:10122000BDE8F0418CE70020D6E700001800002060
:101230002DE9F04704464FF0FF380026C568D4E991
:101240000497A80718D02046FFF736FF3846FFF767
:1012500027FE002800DA4646280502D54846FFF753
:10126000A1FE4C21204600F019F8206D20F001006D
:1012700020653046BDE8F0874046FBE710B50446E0
:10128000AFF300802046BDE81040FEF7A4BF10B5C4
:1012900000F042F9BDE8104000F038B94FF000020C
:1012A00000B5134694469646203922BFA0E80C505C
:1012B000A0E80C50B1F12001BFF4F7AF090728BF37
:1012C000A0E80C5048BF0CC05DF804EB890028BFB3
:1012D00040F8042B08BF704748BF20F8022B11F0DC
:1012E000804F18BF00F8012B704700004FF0013C01
:1012F00050F8042B51F8043B9A4221D1A2EB0C0385
:10130000934313EACC1317D150F8042B51F8043B44
:101310009A4215D1A2EB0C03934313EACC130BD1E1
:1013200050F8042B51F8043B9A4209D1A2EB0C036C
:10133000934313EACC13DBD04FF00000704700BF9B
:10134000D01A01BAB1FA81F101F0180122FA01F0C4
:10135000CB40DBB2C0B2C01AC1F120012CFA01F3BC
:10136000D11A914311EAC311E6D1704770470000CA
:10137000004870471C010020704770477047704755
:1013800038B504460A4600206946AFF300800028BD
:1013900008BF38BD02460099204600F0FDF8012044
:1013A00038BD012000F04CB9F8B5AFF30080054618
:1013B00000200C460C2000BF0646A819A0420DD9FB
:1013C000324669460020AFF30080070008BF00F0F6
:1013D00037F90098A04218BF0546C419FFF7C8FFA7
:1013E00005600746F01D20F007004619284600F06A
:1013F0000AF8B44208BFF8BDA21B31463868BDE800
:10140000F84000F0C9B800210160416070470C202D
:10141000704700002DE9F041044616460D46476925
:10142000007B80072ED03846FFF74FFD50BB3EB300
:10143000012E02D0022E25D104E0204600F0C6F88D
:1014400005441DE03846FFF74EFDE168002841F0F5
:101450001001E16005DA2046FFF7EEFD0120BDE84E
:10146000F081C9030BD56268E16A914200D8114648
:10147000A26911442269891A814200DD08460544A7
:10148000002D01DA0220EAE7E16A6068E268814241
:1014900006D29103E06203D522F4003141F010023C
:1014A000A6690027AE4213DCE16A814201D90B46EE
:1014B00000E0034603EB060C2369ACEB030CAC45E0
:1014C00006DD814201D98C4600E084469C4505D169
:1014D000A760276042F02000A5620DE0AD1BE66921
:1014E000AE1B8142A66000D90846C01A281A2060A7
:1014F0005819606022F0200003490840E060002095
:1015000084F84870ABE70000BFCFD7FF002801D0B8
:1015100000F03CB87047000010B5014602A000F092
:1015200076F8012010BD00005349475254524544FB
:101530003A2052656469726563743A2063616E276C
:1015400074206F70656E3A200000000010B5431CD7
:1015500002E010F8011B71B18107FAD14FF001329E
:1015600002C88C1A8C4314EAC211F9D0C01A0A06B8
:1015700003D0C01E10BDC01A10BD0A0401D0801EC9
:1015800010BD0902FCD0401E10BD0000014918200A
:10159000ABBEFEE726000200034640688C460028EA
:1015A00018BF88423CBF03464068F8D31868184407
:1015B000884207D00CF1030020F00700001D411AFB
:1015C000521A0146081D0A60FFF7ECBC10B501462F
:1015D000C268900703D0900607D5886A0AE000F039
:1015E0003DF801210160881E10BD8B6948681844D0
:1015F0000B69C01A91F848301BB191F84910401A94
:1016000010BD1103FCD50028FADD401E10BD70B5D9
:1016100005460C460A2000E06D1C00F018F835B1B4
:1016200028780028F8D102E0641C00F010F814B10A
:1016300020780028F8D1BDE870400A2000F007B8F3
:1016400010B500F00FF8BDE81040FFF75FBF08B518
:1016500069468DF800000320ABBE08BD0048704706
:101660001401002010B5012805D0002103A0FFF7C8
:10167000CEFF012010BD09A1F8E7000053494752F1
:10168000544D454D3A204F7574206F662068656152
:1016900070206D656D6F7279000000003A2048651A
:1016A0006170206D656D6F727920636F72727570F5
:1016B00074656400FEE7000040F2AC10C2F2000066
:1016C00000F064B870470000EFF3108072B600BFFE
:1016D000FEE7000090F82110022923D1026840F2B1
:1016E000040C1168C4F2020C21F00E0111601368A1
:1016F0002F21C4F202018A4223F00103136015DD99
:101700003023C4F202039A421CD04423C4F20203E1
:101710009A421BD05823C4F202039A421CD14FF4C0
:10172000803321E004218163012070470823C4F243
:1017300002039A420ED01C23C4F202039A420BD138
:10174000102311E04FF480730EE000BF4FF480537C
:101750000AE000BF012307E00CF168014FF080733D
:101760008A4208BF4FF480130121CCF8003080F882
:101770002110416B0022002980F8202004BF0020A6
:10178000704780B58847002080BD000010B5D0E9C3
:101790000FCE0168DCF800300A6823FA0EF35C070C
:1017A0002AD512F0040427D00A68920603D40A68E6
:1017B00022F004020A602F22C4F20202914240F297
:1017C0000402C4F202025BDD3023C4F20203994238
:1017D00072D04423C4F20203994273D05823C4F256
:1017E0000203994240F07A804FF480231360C16A6B
:1017F000002940F098806FE09C0727D512F0020482
:1018000024D00A68920606D40A6822F00A020A6006
:10181000012280F821202F22C4F20202914240F2DC
:101820000402C4F202023BDD3023C4F202039942F7
:1018300060D04423C4F2020399425FD05823C4F21B
:101840000203994260D14FF4003365E01B0743D592
:1018500012F0080208BF10BD0A6822F00E020A60EA
:10186000012101FA0EF2CCF80420816380F82110E6
:10187000016B0022002980F8202054D12CE000BF09
:101880000823C4F20203994222D01C23C4F20203AB
:10189000994223D140231360C16A002943D11BE040
:1018A0000823C4F2020399422CD01C23C4F2020381
:1018B000994229D120232FE04FF480631360C16A3D
:1018C00089BB09E04FF480431360C16A59BB03E050
:1018D00004231360C16A31BB10BD00BF02F168046C
:1018E0004FF08063A14208BF4FF480031360C16AC8
:1018F000C9B9F1E74FF400730EE000BF4FF4005395
:101900000AE000BF022307E002F168044FF0007311
:10191000A14208BF4FF400131360816A002200291E
:1019200080F82020D8D0BDE81040084701460028A4
:101930004FF0010008BF70472DE9F043D1F800C017
:101940004FF6F873CBF6FD734CF6CD426344CCF6FC
:10195000CC42A3FB02236FF0030202EA93020023AE
:10196000C4F2020301F10C08C1E90F320222D1E9ED
:10197000019E98E8F00181F82120DCF8002043F670
:10198000F0739A4342EA090242EA0E0222432A43D2
:1019900032433A4342EA0802CCF8002000228A632C
:1019A00081F8210081F820200020BDE8F043704735
:1019B00090F820C0BCF1010F04BF02207047F0B5C1
:1019C0004FF0010E80F820E090F821C0BCF1010F2B
:1019D00026D14FF0020C80F821C04FF0000CC0F867
:1019E00038C0D0E900C4C56AC66BDCF80070102CA2
:1019F00027F00107CCF80070006C0EFA00F0706060
:101A00000846CCF8043004BF10460A46CCF808005B
:101A1000CCF80C20DCF8000045B140F00E000DE0E1
:101A2000002180F820100220F0BD00BF20F004004B
:101A3000CCF80000DCF8000040F00A00CCF8000010
:101A4000DCF8000040F00100CCF800000020F0BD00
:101A5000B0B5044600F01EF9054640F20C00C2F293
:101A600000000078611C18BF044400BF00F012F9A8
:101A7000401BA042FAD3B0BD2DE9F04F82B00E68F2
:101A8000002E00F0FD8041F20042C4F20102042366
:101A900040F2004E904208BF03234FF6FF7CC4F291
:101AA000010E009300240123C1F2100C4FF0000A34
:101AB0004FF000094BE000BF41F20002C4F2010206
:101AC000009F904208BF022704F00C030F229A40A7
:101AD0002BEA020207FA03F34FEA9A051A4346F883
:101AE00025204E6840F20C45F202DEF8082054BF73
:101AF00022EA080242EA0802C4F20105CEF80820F0
:101B00002A68B30254BF22EA080242EA08022A60A5
:101B1000B303DEF8042054BF22EA080242EA0802B6
:101B2000F303CEF80420DEF800204FF0010354BF89
:101B300022EA080242EA0802CEF800200E680AF102
:101B4000010A36FA0AF204F1040400F0998003FA5B
:101B50000AFB16EA0B08F1D04E68664512DC122E1D
:101B600056D8DFE806F0350B4D49555555555555B6
:101B70005555555555555545510000BFD1F80C9058
:101B800046E000BF4FF6FF72C1F2210296420FDC21
:101B90000022C1F2110296421AD00022C1F21202B2
:101BA000964215D00022C1F22102964210D02FE0B9
:101BB0000022C1F2220296420AD00022C1F2310272
:101BC000964205D00022C1F23202964220D100BFD7
:101BD0008A684AB1012A14BFC0F814B0C0F810B026
:101BE0004FF0080914E000BF4FF0040910E000BFF7
:101BF000CA6802F104090BE04FF0000908E000BFD9
:101C0000CA6802F1080903E0CA6802F10C0900BFC2
:101C100002462646B8F5807F24BF0432203E17686E
:101C20000F25B54027EA050509FA06F63543156084
:101C3000CA79D2067FF582AF41F21803C4F20203DB
:101C40001A68AEF57E7642F001021A601A6802F058
:101C500001020192019A2AF0030256F802B040F6FE
:101C60000002C4F20102904208D040F60042C4F2E1
:101C7000010290427FF420AF012725E7002723E7E8
:101C800002B0BDE8F08F00008068084018BF012056
:101C90007047000040F28C20C2F2000000687047DC
:101CA00070470000002804BF01207047F0B581B0E4
:101CB000044690F83D0028B9002084F83C002046F6
:101CC00000F02CFC242084F83D002068016821F0FD
:101CD00001010160016841F400410160016821F4E3
:101CE0000041016000F002FE636848F2A16CC0F29E
:101CF000010C40F60011C0F23D0163453CBF48F2C3
:101D00008041C0F21E01884202D2012001B0F0BD24
:101D10004DF68361C4F21B31A0FB01122168970CC0
:101D2000D1F804E04FF496762EF03F0545EA92454F
:101D30004D60774348F638160D6AC0F24106A7FB9E
:101D4000067625F03F07634538BF960C721C3A4370
:101D50000A62CA6948F2A0664CF6FF77C0F2010633
:101D6000B34222EA07020BD801385B00B0FBF3F064
:101D700001306FF31F30042898BF04201BE000BF20
:101D8000A768013857B119277B43B0FBF3F0013046
:101D90006FF31F3070B100F5804007E003EB4303A1
:101DA000B0FBF3F001306FF31F3018B100F50040C5
:101DB00001E000BF01201043C8610868D4E907238F
:101DC00020F0C000104318430860886848F2FF32D2
:101DD00004F10C0790438CCF18431043A669886028
:101DE000C86820F0FF0038433043C860086840F0FE
:101DF0000100086000202021206484F83D10206349
:101E000084F83E0001B0F0BD70470000006845F264
:101E10000041C4F20001884218BF704740F2A81088
:101E2000C2F2000001210170704700002DE9F04F5F
:101E300085B004460020994616460F460490FFF7E9
:101E400029FF94F83D10202927D10546206800BFBE
:101E5000816989071CD5FFF71DFF411B20681A29DE
:101E6000F6D381698907F3D500202021206384F807
:101E70003D1084F83E00206C04F13C0A40F0200044
:101E80002064022000218AF8001005B0BDE8F08F20
:101E9000A2461AF83C1F012904D1022005B0BDE872
:101EA000F08F00BF01228AF800200368DDE90F18D7
:101EB0000E9ADB0703D1036843F001030360036854
:101EC00023F400630360222084F83D00402084F85E
:101ED0003E000020206462626185608D3946208565
:101EE0000020CFF6FF70E062204632464B46CDE937
:101EF000008501F0A3F818B1012005B0BDE8F08F0E
:101F0000208D022826D001280ED0002838D10020AC
:101F100003902068416903918169039103990168E5
:101F200041F40071016037E02068016821F48061AC
:101F30000160EFF3108072B60020039020684169C1
:101F40000391816903910399016841F40071016073
:101F500062B621E02068016841F400610160EFF39E
:101F6000108072B600200390206841690391816956
:101F700003910399016821F48061016062B60BE06E
:101F80002068016841F4806101600021039141698A
:101F90000391806903900398208D002800F0CE8083
:101FA000042740F214094BF2895BC0F20107C2F228
:101FB0000009C1F2F84B23260EE000BF106908703B
:101FC000606A218D01306062481E2085618D013973
:101FD0006185010400F0B28080B203280CD8022889
:101FE0002CD001284AD1204641462A4601F0C4FAA5
:101FF000002800F09F807FE7204641462A4601F0F6
:10200000BBFA00287FF478AF2068616A0069087025
:10201000606A2268411C208D616201382085638DD1
:10202000013B638553695B07D3D580B20328C5D1D3
:10203000106820F480601060C0E700BF2046394679
:1020400000224346009501F045F900287FF454AF83
:10205000EFF3108072B62068616A026842F4007281
:10206000026000690870606A218D01306062481E5C
:102070002085608D0138608562B65BE02046394678
:1020800000224346009501F025F900287FF434AF83
:102090002068016821F480610160EFF3108072B65E
:1020A0002068616A00690870606A218D0130013919
:1020B00060622185618D01396185D9F80010C908F8
:1020C000A1FB0B12110A7143049104990139049187
:1020D000049900293ED021684A6952071AD404990C
:1020E000013904910499A9B321684A69520711D4AE
:1020F000049901390491049961B321684A6952072E
:1021000008D4049901390491049919B321684A69E2
:102110005207DAD50A6842F400720A600969017050
:10212000606A218D01306062481E2085608D013813
:10213000608562B62068616A006940E7202084F803
:102140003D00002084F83E0000218AF8001005B010
:10215000BDE8F08F00202021206384F83D1084F832
:102160003E00206C40F02000206462B60120002177
:102170008AF8001005B0BDE8F08F00002DE9F047A7
:1021800086B0984616460F460446FFF783FD0021A9
:10219000059194F83D10202940F0998040F21401F7
:1021A000C2F2000109684BF28952C908C1F2F84233
:1021B000A1FB0215DDE90E23290A192569430591C2
:1021C0000599013905910599002975D021688D6916
:1021D000AD071DD5059901390591059900296BD0E9
:1021E00021688D69AD0713D50599013905910599C8
:1021F000002961D021688D69AD0709D5059901399C
:1022000005910599002957D021688D69AD07D7D46C
:1022100094F83C50012D5AD0012584F83C500D68AB
:10222000ED0703D10D6845F001050D600D684FF015
:10223000000C25F400650D60222584F83D504025F2
:1022400084F83E50C4F840C062626385638D002507
:10225000CFF6FF752385E5626764A664C4F84C80F9
:10226000C4F850C0C3B3A56B002D57D0814642F6C9
:102270000D70C0F6000042F6D16C05F1280EC0F6D4
:10228000000C4FF0000A8EE8011410312846C5F802
:1022900034A0FFF78DFB002850D0202084F83D00AB
:1022A00084F83EA0206C40F01000206484F83CA02C
:1022B000012006B0BDE8F08700202021206384F8CB
:1022C0003D1084F83E00206C40F020002064022085
:1022D00006B0BDE8F08700BF4FF0230C054620464E
:1022E000394632464346CDE900C500F0A7FE002836
:1022F000DED10020039021684A6903928A69039223
:10230000039A0A6842F400720A60202184F83D10A2
:1023100084F83C0006B0BDE8F08700BF202084F8B8
:102320003D00002084F83E00216C41F080012164D2
:1023300084F83C00012006B0BDE8F0872325204644
:10234000394632464346CDE9005900F077FEA8B140
:10235000A06BFFF7BFF9A16B206800228A620168B9
:1023600021F48061016022856285016821F001010C
:102370000160012006B0BDE8F08700BF208D216814
:10238000012805D1086820F48060086004E000BFDF
:10239000486840F480504860002004904A690492E4
:1023A0008A690492049A84F83C004A6842F4807274
:1023B0004A604A6842F400624A6006B0BDE8F087AD
:1023C0002DE9F04383B0994616460F460446FFF7C1
:1023D00061FC94F83D10202924D10546206800BFF7
:1023E000816989071AD5FFF755FC411B20681A2916
:1023F000F6D381698907F3D500202021206384F872
:102400003D1084F83E00216C41F02001216484F8E5
:102410003C00022003B0BDE8F08300BF94F83C10FC
:10242000012903D1022003B0BDE8F083012284F822
:102430003C200368DDE90B180A9ADB0703D1036827
:1024400043F001030360036823F400630360212069
:1024500084F83D00402084F83E0000202064626241
:102460006185608D394620850020CFF6FF70E062DF
:10247000204632464B46CDE9008500F069FE18B192
:10248000012003B0BDE8F083208D98B92046414675
:102490002A4600F0C1FE88B3206C0428F0D12068E1
:1024A000016841F400710160012003B0BDE8F083D0
:1024B0000004EBD0204641462A4601F0A5F800284A
:1024C000EAD1616A2268084610F8013B1361238D46
:1024D0006062581E2085678D013F678557697F07B9
:1024E000E6D50704E4D048781061881C6062981E25
:1024F0002085618D01396185DAE700BF20680168B8
:1025000041F400710160202084F83D00002084F82F
:102510003E0084F83C0003B0BDE8F08370B586B09F
:10252000044645F200402168C4F2000000268142C2
:10253000CDE904660396029602D006B070BD00BFD6
:1025400041F21805C4F20205296800F5384041F04F
:1025500008012960296801F0080101910199C02151
:102560000291122103910321059102A9FFF784FA38
:102570006868802140F400106860686840F2AC151B
:1025800000F40010019001988020C2F20005C4F20E
:1025900002004FF48052C5E900062846C5E90261F1
:1025A000C5E90466C5E90662FFF7C0F9002818BF4F
:1025B000FFF78AF8A5636C6206B070BD7047000033
:1025C0007047000040F20C0040F28C21C2F2000083
:1025D000C2F2000100780A681044086070470000E9
:1025E00080B542F20000C4F20200016841F010011F
:1025F0000160032000F08CF80F2000F005F800F0D7
:1026000027F8002080BD000070B540F20C06C2F231
:10261000000640F214013278C2F200014FF47A73DE
:102620000968B3FBF2F20446B1FBF2F1084600F090
:1026300085FB0F2C4FF0010508D838B94FF0FF305B
:1026400021460022002500F037F87460284670BD4E
:1026500082B041F21800C4F202000168042241F085
:1026600001010160016801F00101019101994168D6
:1026700041F080514160406800F080500090009827
:102680000420C4F20100016862F31A61016002B023
:1026900070470000002848BF704700F01F0101226A
:1026A00002FA01F11C2202EAD0004EF20012CEF230
:1026B000000281507047000010B54EF60C5CCEF25F
:1026C000000CDCF80030C3F3022E8EF00704042C5B
:1026D00028BF0424BEF103034FF0FF3E0EFA04F4BA
:1026E00038BF0023A14399400EFA03F39A431143E4
:1026F00000F00F0200F160430901043A03F564435E
:102700006244002848BF02F10C03197010BD00009C
:102710004EF60C51CEF200010A684FF6FF031A4044
:1027200060F30A2242F0806040F0FD70086070475C
:10273000002804BF012070472DE9F04381B042F228
:102740000008C4F202080446D8F800000D4600F064
:10275000070088420CD2D8F8000020F00700284378
:10276000C8F80000D8F8000000F00700A8426CD1BB
:10277000206841F204098107C4F2020917D5410714
:1027800005D5D9F8001041F4E061C9F8001001073F
:1027900005D5D9F8001041F46051C9F80010D9F8F6
:1027A0000010A26821F0F0011143C9F80010C00721
:1027B00042D1D8F8000000F00700A8420CD9D8F8A0
:1027C000000020F007002843C8F80000D8F80000F7
:1027D00000F00700A84238D12068410707D5D9F892
:1027E0000010E26821F4E0611143C9F8001000070D
:1027F00008D5D9F80000216920F4605040EAC100F2
:10280000C9F80000D9F8002002F00C00082841F2B5
:102810000020C0F27A004DD144F61653C2F3834132
:10282000C0F60003595CD20338D440F60010C0F261
:102830003D0048433EE000BF606859F8041C022890
:1028400008D0012826D1890306D4012001B0BDE8B3
:10285000F08300BF8901F8D5D9F8001021F00301F9
:102860000843C9F80000FFF715FA064641F2883719
:10287000D9F80000616800F00C00B0EB810F98D02F
:10288000FFF708FA801BB842F2D9032001B0BDE877
:10289000F08300BF8907D8D5DEE700BFD9F8002054
:1028A00044F61453C2F34042C0F600039A5C484316
:1028B000B0FBF2F0D9F8001044F6FC42C1F303116A
:1028C000C0F60002515C40F2140220FA01F140F21D
:1028D0001000C2F200000068C2F200021160FFF7AF
:1028E00093FE002001B0BDE8F083000040F2140028
:1028F00041F20401C2F20000C4F20201006809685A
:1029000044F60C52C1F30221C0F60002515CC840EB
:102910007047000040F2140041F20401C2F20000CE
:10292000C4F202010068096844F60C52C1F3C221E6
:10293000C0F60002515CC84070470000002804BF88
:10294000012070472DE9F04182B00446007841F241
:102950000006C007C4F202060CD0706800F00C003C
:10296000042840F081803068800303D56068002827
:1029700000F04681207880071BD5706810F00C0F9E
:1029800009D0706800F00C00082840F0878070685B
:10299000C00300F183803068800703D520690128D7
:1029A00040F02E813068616920F0F80040EAC100F3
:1029B00030602078000713D4207840072CD4E569D4
:1029C000002D00F01881706800F00C00082840F01D
:1029D000A780012D40F00481012002B0BDE8F08104
:1029E000A069002800F084800020C4F24220012168
:1029F000C0F88014FFF74EF9054600BF706A8007E3
:102A000000F1B280FFF746F9401B0228F6D90320F7
:102A100002B0BDE8F08100BFF0695FEAC00808D4E9
:102A2000F06940F08050F061F06900F08050009053
:102A3000009847F20007C4F200073868C00549D47F
:102A4000386840F480703860FFF724F9054600BF0D
:102A50003868C0053ED4FFF71DF9401B6428F7D93C
:102A6000032002B0BDE8F081706800F00C00082877
:102A700003D17068C0033FF576AF61683068002904
:102A800000F00C81B1F5A02F00F00081B1F5803F7E
:102A900040F01A8140F480301CE100BF206900281A
:102AA00040F20000C4F2422000F088800121016061
:102AB000FFF7F0F8054600BF306880073FF572AFBA
:102AC000FFF7E8F8401B0228F6D9032002B0BDE862
:102AD000F08100BFE168306A002900F09D8005297F
:102AE00000F09280012940F0AF8040F00100B1E099
:102AF0000020C4F242200021C0F88014FFF7CAF879
:102B0000054600BF706A80077FF556AFFFF7C2F831
:102B1000401B0228F6D9032002B0BDE8F08100BFB7
:102B20000027C4F2422700203866FFF7B3F8022DD1
:102B300005460DD13068800140F1DE80FFF7AAF82C
:102B4000401B02284FF00300F4D902B0BDE8F08129
:102B5000306880014FD5FFF79DF8401B02284FF0E9
:102B60000300F5D9F1E700BF40F21400C2F2000003
:102B7000006844F6D351C1F26201A0FB0101480A8A
:102B8000019000BF00BF0198411E002801913FF451
:102B900013AF00BF0198411E002801913FF40CAF14
:102BA00000BF0198411E002801913FF405AF00BF0E
:102BB0000198411E00280191E4D1FDE60021016049
:102BC000FFF768F8054600BF306880077FF5F1AE73
:102BD000FFF760F8401B02284FF00300F4D9B4E778
:102BE0007068216A00F480328A4209D1616A00F477
:102BF0007010884204D1002002B0BDE8F08100BF0F
:102C0000012002B0BDE8F08140F004003062306A7B
:102C100040F001001EE000BF20F001003062306A89
:102C200020F004003062FFF735F8054641F288379E
:102C3000306A800720D5FFF72DF8401BB8424FF0CF
:102C40000300F5D981E700BF20F001003062306A4F
:102C500020F004003062FFF71DF8054641F2883786
:102C6000306A800708D4FFF715F8401BB842F7D93F
:102C7000032002B0BDE8F081B8F1000F3FF59FAE30
:102C8000F06920F08050F06199E600BF40F48020A8
:102C90003060306840F480301CE000BF20F48030A9
:102CA0003060306820F480203060FEF7F3FF054686
:102CB000306880037FF55EAEFEF7ECFF401B6428B2
:102CC0004FF00300F4D940E720F4803030603068E2
:102CD00020F480203060FEF7DDFF05463068800379
:102CE0003FF548AEFEF7D6FF401B6428F6D9032017
:102CF00002B0BDE8F08100BF206AB0F5803F05D189
:102D00007168A26821F40031114371607168626AD0
:102D100021F4741111430843706001203866FEF7F6
:102D2000B9FF0446306880013FF565AFFEF7B2FF9A
:102D3000001B02284FF00300F4D906E7411E0020D3
:102D4000B0EB116F1CBF012070474EF21002CEF2A3
:102D5000000251604EF62351CEF20001F0230B70B9
:102D60000721906011607047002804BF0120704760
:102D700010B5044690F8410028B9002084F84000BE
:102D8000204600F063F8242084F841002068D4E94C
:102D90000212C36823F40053C360036923F4405351
:102DA0001A430261D4E904231143C268194341F272
:102DB0000C639A431143C1604169A26921F44071D7
:102DC000114343F60002C4F201029042416103D074
:102DD000FFF78CFD02E000BFFFF79CFDD4E9002364
:102DE000192148439900B0FBF1F048F21F5CC5F28D
:102DF000EB1CA0FB0C314FF69C734909C0F6FF7326
:102E000001FB0300322303EB0010A0FB0C03F020B6
:102E100000EA531000EB0110C3F343110844906023
:102E20001069202120F490401061506920F02A00A0
:102E30005061D06840F40050D0600020606484F895
:102E4000411084F84210606310BD000070B586B078
:102E500040F60004C4F20104006804F54051002665
:102E600088420596CDE90366029601D006B070BD92
:102E700041F21800C4F20200016802AD41F4804141
:102E80000160016801F4804101910199016841F0FC
:102E9000040101600068294600F0040001900198D7
:102EA0004FF400700290022003900320059020460A
:102EB000FEF7E2FD4FF48060CDE902062046294688
:102EC0000496FEF7D9FD06B070BD0000FEE70000D5
:102ED000406A416B00291CBF00228A62816B002975
:102EE0001CBF00228A6201680A6822F480620A60BC
:102EF00000212022418580F83D2080F83E10016CA1
:102F000041F010010164FEF7CBBE000010B5446A29
:102F100094F83D2094F83EE0D4F82CC02168606B12
:102F20004B68002823F440734B601CBF002383626E
:102F3000A06B00281CBF0023836202F0210021281F
:102F400020D002F02200222808BFBEF1200F19D0A5
:102F500094F83E00002808BF10BD608D012803D101
:102F6000086820F4806008604868BCF1070F20F40E
:102F70004070486028DCBCF12A4F2BD01CF5803F04
:102F800028D02BE048682A2A20F4006048604FF0DF
:102F9000000060850AD0292A10D121202063282032
:102FA00084F83D002046FFF70BFB07E0222020635A
:102FB000282084F83D002046FFF700FB2068416888
:102FC00041F44071416010BDBCF1200F02D0BCF152
:102FD000080F03D1086840F400700860486820F4C6
:102FE00080504860486820F4006048600021618596
:102FF000206C28B12046BDE81040FEF751BE00BF4E
:10300000202084F83D0094F83E0084F83E104028CB
:1030100006D120462163BDE81040FEF7F7BE00BF91
:10302000BCF1080018BF1220BCF1200118BF0146F6
:1030300020462163BDE81040FEF7E6BE2DE9F047CB
:1030400082B0044600689A460B9D0A9E036891462A
:1030500043F48062026002680F4642F480710160AE
:1030600020464FF0011100223346009500F032F95E
:1030700050B120680068C00544BF4FF40070206460
:10308000032002B0BDE8F08740F202082068C0F2D9
:10309000010807F0FE0707612046414632462B46ED
:1030A00000F0FEF920B1012002B0BDE8F08700BFBA
:1030B0000020019020682A464169019180693146CB
:1030C00001900198204600F09FFAB0B92068BAF14B
:1030D000010F09D04FEA19210161204631462A46E5
:1030E00000F092FA48B920685FFA89F10161204640
:1030F00031462A4600F088FA60B1206C0428D2D10B
:103100002068016841F400710160012002B0BDE84F
:10311000F08700BF206800220168334641F48071C7
:10312000016020464FF00111009500F0D3F800280F
:103130009FD147F0010C27682046414632462B4676
:10314000C7F810C002B0BDE8F04700F0A9B9000010
:103150002DE9F04383B0044600680F4601680A9DDC
:103160000B9E41F4807199469046016020464FF0D5
:10317000011100222B46009600F0ACF850B12068F7
:103180000068C00544BF4FF400702064032003B002
:10319000BDE8F083206807F0FE0101610221C0F262
:1031A000010120462A46334600F07AF920B1012079
:1031B00003B0BDE8F08300BF0020029020683246D3
:1031C000416902918069294602900298204600F0E8
:1031D0001BFA58B1206C0428E9D12068016841F439
:1031E00000710160012003B0BDE8F0832068B9F1EF
:1031F000010F0AD04FEA18210161204629463246C4
:1032000000F002FA0028E5D120685FFA88F1016138
:10321000002003B0BDE8F08370B50368044653F89E
:10322000140F400711D40E46481C29D086BB00BF9E
:103230001868400527D4FEF72DFD236853F8140FB6
:10324000400737D518684007F2D5002070BD00BF91
:1032500018684007F9D41868400514D41868400766
:10326000F3D4186840050ED418684007EDD41868E8
:10327000400508D4186840074FF0000048BF70BDF3
:1032800018684005E4D56FF480601860042012E0EF
:10329000154603E053F8140F4007D6D418684005CC
:1032A000F1D4FEF7F7FC401B2368B042F2D958690D
:1032B0004007EFD4202000212022216384F83D2004
:1032C00084F83E10226C10432064012084F83C10E6
:1032D00070BD00002DE9F041054600681E46144609
:1032E00001F47F0201338FB242D0DDF81880B2F5CD
:1032F000803F40F0878040693840C01BB0FA80F0C2
:103300004009A04240F0C8804EB924E040693840EE
:10331000C01BB0FA80F04009A04240F0BD80FEF72B
:10332000B9FCA0EB08012868B142EFD941693940E6
:10333000C91BB1FA81F14909A142E7D19BE000BF65
:1033400040693840C01BB0FA80F04009A0424FF0FD
:10335000000040F0A280FEF79DFC286841693940DA
:10336000C91BB1FA81F14909A142E9D183E000BF4B
:10337000B2F5803F24D100BF41693940C91BB1FA81
:1033800081F14909A14240F0878041693940C91B58
:10339000B1FA81F14909A14240F07E80416939408A
:1033A000C91BB1FA81F14909A14275D1416939407E
:1033B000C91BB1FA81F14909A142DDD06CE000BF1F
:1033C00081693940C91BB1FA81F14909A14263D130
:1033D00081693940C91BB1FA81F14909A1425BD128
:1033E00081693940C91BB1FA81F14909A14253D120
:1033F00081693940C91BB1FA81F14909A142DFD085
:103400004AE000BF80693840C01BB0FA80F0400934
:10341000A04241D146B923E080693840C01BB0FAD0
:1034200080F04009A04237D1FEF734FCA0EB080140
:103430002868B142F0D981693940C91BB1FA81F1DC
:103440004909A142E8D116E080693840C01BB0FAB2
:1034500080F04009A0424FF0000018BFBDE8F081A5
:10346000FEF718FC286881693940C91BB1FA81F15F
:103470004909A142E8D100202021286385F83D10A8
:1034800085F83E00296C41F02001296485F83C0054
:103490000120BDE8F08100BF0020BDE8F081000000
:1034A000F0B581B0044600681D4643698FB203EA57
:1034B0000701B94202D1002001B0F0BD41691646B2
:1034C00001323CD0490512D47EB300BFFEF7E2FBC7
:1034D000411B2068B14203D941693940B9422BD11F
:1034E00041693940B942E6D041694905EED50168E4
:1034F00041F4007101606FF480614161042000219A
:103500002022216384F83D2084F83E10226C104371
:10351000206484F83C10012001B0F0BD41693940BD
:10352000B942C8D041694905E1D4FEF7B3FB206830
:1035300041693940B942F1D02020E0E741694905AD
:10354000D5D441693940B942B5D041694905CED495
:1035500041693940B942AED041694905C7D4416992
:103560003940B942A7D041694905C0D441693940C1
:10357000B942E3D19FE7000070B5044600681546E4
:1035800050F8143F5A063DD40E4629B926E000BF34
:1035900050F8141F490635D40168C90621D4FEF736
:1035A00079FB411B2068B142F2D941694906EFD449
:1035B00000202021206384F83D1084F83E00206C18
:1035C00040F0200018E000BFFEF764FB206850F8D0
:1035D000141F4906ECD50168490613D40168C906D1
:1035E000F2D56FF01001016000202021206384F8E3
:1035F0003D1084F83E00206C2064002084F83C00DC
:10360000012070BD002070BD70B50368044653F8FA
:10361000140F000611D40E46481C29D086BB00BFEB
:103620001868400527D4FEF735FB236853F8140FBC
:10363000000637D518680006F2D5002070BD00BF1F
:1036400018680006F9D41868400514D418680006F4
:10365000F3D4186840050ED418680006EDD4186835
:10366000400508D4186800064FF0000048BF70BD40
:1036700018684005E4D56FF480601860042012E0FB
:10368000154603E053F8140F0006D6D41868400519
:10369000F1D4FEF7FFFA401B2368B042F2D9586913
:1036A0000006EFD4202000212022216384F83D2051
:1036B00084F83E10226C10432064012084F83C10F2
:1036C00070BD00002DE9F04381B00446B0F9000060
:1036D000B4F90250B4F90470B4F9069001F03CFA60
:1036E00040F27411C2F20001D1E90086314601F0C6
:1036F00071F92061284601F02FFA314601F06AF98C
:103700006061384601F028FA314601F063F9A061A2
:10371000484601F021FA0021C4F2AA3101F05AF919
:1037200001F02CF947F2A40244F2D733C0F63D224F
:10373000C4F2420300F038FF00F004FFB4F90810AF
:10374000E061084601F008FA414601F043F9B4F996
:103750000A102062084601F0FFF9414601F03AF9EB
:10376000B4F90C106062084601F0F6F9414601F028
:1037700031F9A06201B0BDE8F083000080B540F6E9
:103780000040C4F201002021FEF77EFA80BD000057
:1037900010B586B0044640F2F0104FF00E0C0DF15B
:1037A0000A0EC2F20000D0213B220123CDE900EC39
:1037B000FEF7E4FC002818BFFDF786FF40F2A810D2
:1037C000C2F20000017831B9017821B9017811B94C
:1037D00001780029F6D000210170BDF80A00BDF87B
:1037E0000C1000BA000C208008BABDF80E10000CB6
:1037F000608008BABDF81010000CA08008BABDF8AF
:103800001210000CE08008BABDF81410000C2081E2
:1038100008BABDF81610000C608108BA000CA0812F
:1038200006B010BDF0B587B03220FEF711F90027C1
:103830006CA08DF81370FCF7F1FD01260DF113005B
:10384000CDE9000640F2F0104FF47A75C2F20000A4
:10385000D021752201230295FEF7E8FA9DF81300A6
:10386000682840F0AD8044F62650C0F6000068217C
:10387000FCF7D8FC802040F2F0148DF8140005A865
:10388000C2F20004CDE900062046D0216B220123BC
:103890000295FEF795FD6420FEF7DAF80DF11500AC
:1038A000CDE900062046D0216B2201238DF815704A
:1038B0000295FEF785FD3220FEF7CAF827208DF825
:1038C00016000DF11600CDE900062046D021192280
:1038D00001230295FEF774FD3220FEF7B9F80DF1D1
:1038E0001700CDE900062046D0211A2201238DF8C9
:1038F00017700295FEF764FD3220FEF7A9F806A8BE
:10390000CDE900062046D0211B2201238DF8187036
:103910000295FEF755FD3220FEF79AF80DF11900D9
:10392000CDE900062046D0211C2201238DF8197014
:103930000295FEF745FD3220FEF78AF840F274103A
:103940000021C2F20000C4F203314FF08D42C0E901
:103950000012002144F6465046F20003C4F2D001A2
:10396000C0F60000C4F260030022CDE90071FCF74C
:1039700059FC10208DF81A000DF11A00CDE900064F
:103980002046D021372201230295FEF719FD32206F
:10399000FEF75EF80DF11B00CDE900062046D021B0
:1039A000382201238DF81B600295FEF709FD3220B5
:1039B000FEF74EF828A0FCF731FD07B0F0BD00BFC0
:1039C0000DA0FCF72BFD9DF813100DA0FCF72AFCB1
:1039D00016A400BF2046FCF721FD6420FEF738F84E
:1039E000F8E700BF436865636B696E67204D50550B
:1039F000363035302E2E2E004552524F52210000C7
:103A00004D5055363035302077686F5F616D5F6996
:103A1000203A203078253032782073686F756C64D6
:103A200020626520307836380A00000077686F2001
:103A3000616D2069206572726F722E2043616E2065
:103A40006E6F74207265636F676E697A65206D7042
:103A500075363035300000004D5055363035302049
:103A600073657474696E672069732066696E697323
:103A70006865640010B50446FFF78AFE2046BDE87D
:103A80001040FFF71FBE000080B582B041F2140065
:103A9000C4F202000168002241F0010101600068E7
:103AA000002100F00100019001981120FEF704FEB2
:103AB000112002B0BDE88040FEF7ECBD80B586B0B5
:103AC000002041F21801CDE90400CDE90200C4F262
:103AD00002010A6842F020020A600A6802F020022D
:103AE0000192019A0A6842F004020A600A6802F030
:103AF00004020192019A0A6842F008020A60096809
:103B000001F00801019101992021CDE902100490F2
:103B100040F60040C4F2010002A9FDF7ADFF06B077
:103B200080BD000080B540F2F01045F20041C2F2C5
:103B30000000C4F2000141F6802200234FF4804CC3
:103B4000C0F2060280E80E00C0E9033CC0E905337C
:103B5000C0E90733FEF7A6F8002808BF80BDBDE81E
:103B60008040FDF7B1BD000080B540F2442043F62F
:103B70000001C2F20000C4F2010100234FF00C0C5E
:103B80004FF4E13280E80E00C0E90333C0E905C319
:103B9000C361FFF7E9F8002808BF80BDBDE8804099
:103BA000FDF792BDFEE70000FEE700007047000051
:103BB00070470000FEF706BD70470000FEE70000FA
:103BC00094B0FEF70DFD00240120CDE90F44CDE9AE
:103BD0000D440A900E904FF4E0104FF4803102250E
:103BE00013900AA8CDE90B14CDE91151FEF7A6FEFA
:103BF00020B1EFF3108072B6FEE700BF0F20CDE9D1
:103C000005054FF48060CDE9080405A8022107945A
:103C1000FEF78EFD20B1EFF3108072B6FEE700BF15
:103C2000FFF74CFFFFF730FFFFF77CFFFFF79CFF2C
:103C3000FFF7F8FD40F27C1BC2F2000B0FF2B8094F
:103C40000FF2E00A03E000BF6420FDF701FFFFF779
:103C500095FD0028F8D05846FFF70CFF0BF1100631
:103C600061CE00F08BFE074628460C4600F086FE2B
:103C700005463046884600F081FE029014A03A4680
:103C80002346CDE900580391FCF7CCFA0BF120054F
:103C900031CD00F073FE804620460F4600F06EFEE8
:103CA000044628460E4600F069FE02904846424609
:103CB0003B46CDE900460391FCF7B4FADBF81C0063
:103CC00000F05CFE024650460B46FCF7ABFABBE741
:103CD000416363656C3A20583D252E326620672C7F
:103CE00020593D252E326620672C205A3D252E3244
:103CF0006620670A000000004779726F3A20583D3D
:103D0000252E3266206470732C20593D252E326694
:103D1000206470732C205A3D252E32662064707307
:103D20000A00000054656D703A20252E326620434B
:103D30000A0A00005FEA400C08BF91F0000F4FEA4A
:103D40008C234FEAC12243EA51514FEA1C5018BF5D
:103D500000F5F0404FEA300018BF41F000415FEA43
:103D60006C5C00F02980BCF1FF3F08BF40F0804050
:103D70007047130C06BF12044FF0100C4FF0000CEC
:103D8000130E04BF12020CF1080C130F04BF120132
:103D90000CF1040C930F04BF92000CF1020CD30F32
:103DA00004BF52000CF1010C11464FF00002A0F1CB
:103DB0001F00A0EB0C00704711F0004F08BF7047C8
:103DC00031F000413FF4D5AF0B0C06BF09044FF0B2
:103DD000100C4FF0000C0B0E04BF09020CF1080C84
:103DE0000B0F04BF09010CF1040C8B0F04BF8900F9
:103DF0000CF1020CCB0F04BF49000CF1010CCCF10B
:103E0000200322FA03F341EA030102FA0CF2A0EBC9
:103E10000C0000F10100704723F07F4720F07F4C39
:103E200080EA030000F00040ACEB070303F57C538D
:103E300003F1FF032DE9804909B44FEA144324EA52
:103E400003484FEA154B25EA0B4E0FF2042606EB0A
:103E500013273E7803FB0667C7F5000707FB06F646
:103E60004FEAD64606F102064FEA543707FB066CC6
:103E7000CCF1005C4FEA1C472CEA074C0CFB06F522
:103E800007FB06F404EB15464FEA961649085FEA6D
:103E9000320234BF00204FF000404FEAD13706FB1A
:103EA00007FC4FEA1C4C0CFB0BF7D21B03FB0CF777
:103EB00061EB07010CFB0EF7B0EB074072EB17420A
:103EC0000CFB08F734BFA2EB0742B2EB074261EBF1
:103ED00017414FEA0C444FEA910706FB07FC4FEAF3
:103EE0001C4C0CFB0BF7B0EBC74072EB573203FBDB
:103EF0000CF734BFA2EBC742B2EBC74261EB5731BC
:103F00000CFB0EF7B0EBC70072EB57720CFB08F717
:103F100034BFA2EBC702B2EBC70261EB57714FEAA5
:103F2000816141EA92114FEA826242EA90124FEABD
:103F3000806004EBCC04039F4FEAD13706FB07FCFB
:103F40004FEA1C4C0CFB0BF7D21B03FB0CF761EB8D
:103F500007010CFB0EF7B0EB074072EB17420CFBAE
:103F600008F734BFA2EB0742B2EB074261EB1741FF
:103F70004FEA8C5504EB9C244FEA910706FB07FCA3
:103F80004FEA1C4C0CFB0BF7B0EBC74072EB5732FF
:103F900003FB0CF734BFA2EBC742B2EBC74261EBA5
:103FA00057310CFB0EF7B0EBC70072EB57720CFBEE
:103FB00008F734BFA2EBC702B2EBC70261EB57713F
:103FC0004FEA816141EA92114FEA826242EA90121D
:103FD0004FEA806015EB4C2544F100044FEAD137DD
:103FE00006FB07FC4FEA1C4C0CFB0BF7D21B03FB38
:103FF0000CF761EB07010CFB0EF7B0EB074072EB1F
:1040000017420CFB08F734BFA2EB0742B2EB0742A2
:1040100061EB17414FEA813141EA92414FEA823226
:1040200042EA90424FEA80304FEA0C7615EB1C15BD
:1040300044F1000448EA03434EEA0B484FF0000EF7
:10404000B2EB080C71EB030724BF624639464EEB16
:104050000E0E4FF0000B0018524149414BEB0B0B79
:10406000B2EB080C71EB03077BF1000B24BF624637
:1040700039464EEB0E0E4FF0000B001852414941ED
:104080004BEB0B0BB2EB080C71EB03077BF1000B56
:1040900024BF624639464EEB0E0E51EA020718BFA6
:1040A00046F0010616EB0E7655F1000254F10001C0
:1040B00003D5BDE88901BDE80088BDE88901BDE8F8
:1040C0000048B619524141EB0101A3F101037047C9
:1040D00080807F7E7D7C7B7A797877767675747345
:1040E000727171706F6E6E6D6C6C6B6A6A69686804
:1040F000676666656464636362616160605F5F5E9A
:104100005E5D5D5C5C5B5B5A5A595958585757560F
:104110005655555554545353525252515150505074
:104120004F4F4F4E4E4D4D4D4C4C4C4B4B4B4A4AC6
:104130004A4949494848484747474746464645450A
:104140004544444444434343434242424241414143
:104150009C46002B30D477002BD04FEA37071CB594
:1041600003B44FF010004FF01001BAF1000F06D069
:10417000BCF1000FDCBF40F0080040F008014FF038
:1041800000000FBCBDE810400BF1010BBBF1010FAB
:1041900008BF5FEA170722BF12F1010211F1010106
:1041A0004FF0004143F1000300F0004043EA0000FB
:1041B0007047F9D35708D0E746EA06464FEA164655
:1041C00013F1400F1FDD13F1200FDFBF16430A4626
:1041D000002120335B42BED0C3F1200746EA0646E9
:1041E0004FEA164602FA07F746EA070622FA03F2F2
:1041F000C3F1200701FA07F742EA070221FA03F1A7
:104200004FF00003A7E746EA020646EA06464FEAF1
:10421000164646EA0106BCBF46EA0646360C4FF093
:1042200000034FF000024FF0000194E72DE9804CAD
:1042300070B49A46934691E8380007C831EA400CBA
:1042400048BF34EA430C03D5FFF7E6FDFFF780FFD4
:10425000F0BCBDE8008C2DE9804C70B49A469346C2
:1042600091E8380007C810F0804F08BF13F0804F66
:1042700003D100F005F8FFF76BFFF0BCBDE8008C40
:1042800020F07F4723F07F4C80EA030000F00040DD
:1042900007EB0C03A3F57C53A3F1FE0392F0000F90
:1042A00000F0B38095F0000F00F077802DE9014910
:1042B0004FEA114021EA00484FEA144624EA064733
:1042C00000FB06FC08FB06F607FB08F818EB06489F
:1042D0004CEB164C00FB07F718EB07484CEB17406C
:1042E0004FEA124B22EA0B4E4FEA154625EA0647E3
:1042F0000BFB06FC0EFB06F607FB0EFE1EEB064E46
:104300004CEB164C0BFB07F71EEB074E4CEB174B19
:1043100018EB0B0840F1000018EB0E0B58EB0008EF
:1043200040F100008F1A4FF000014FF000063CBF33
:10433000C943661B14BFB5EB040C00213CBFC94345
:10434000F61B4FEA174427EA04454FEA1C472CEABC
:10435000074C04FB076205FB07F70CFB05F616EBA1
:10436000074642EB174204FB0CFC16EB0C4642EBF3
:104370001C421BEB060658EB020241414EEA8E0E30
:1043800046EA9E0601D5BDE80189B619524141EBC6
:104390000101A3F10103BDE801894FEA144524EAB4
:1043A00005464FEA114721EA074C05FB07F406FBD7
:1043B00007F70CFB06F111EB074144EB174405FB33
:1043C0000CFC11EB0C4144EB1C444FEA124722EA6F
:1043D000074C05FB07F206FB07F70CFB06F616EB8E
:1043E000074642EB174205FB0CFC16EB0C4642EB72
:1043F0001C456A1854F1000148BF7047B619524174
:1044000041EB0101A3F10103704795F0000F37D094
:104410004FEA114221EA02464FEA144724EA074CC8
:1044200002FB07F106FB07F70CFB06F414EB07444D
:1044300041EB174102FB0CFC14EB0C4441EB1C411B
:104440004FEA154725EA074C02FB07F506FB07F77D
:104450000CFB06F616EB074645EB174502FB0CFC7A
:1044600016EB0C4645EB1C42121951F1000148BFF6
:104470007047B619524141EB0101A3F101037047A6
:104480004FEA144524EA05464FEA114721EA074C52
:1044900005FB07F106FB07F70CFB06F212EB0742E0
:1044A00041EB174105FB0CFC12EB0C4251EB1C419C
:1044B0004FF0000648BF7047921841EB0101A3F18D
:1044C00001037047490050EAC12018BF04204A0D7B
:1044D00018BF40F0010040F2FF72B2EB515F08BF1D
:1044E00040F00200012808BF0520704730380A2834
:1044F00001D201207047002070478A68002A02DC40
:104500000022FCF735BB521E8A604A68C0B2531CB9
:104510004B6010707047000010B500290AD0087871
:10452000002807D005487844FCF7E0FE002801D0B9
:10453000002010BD0248784410BD0000760800003D
:104540006E08000021F0004201F00043A2F1605229
:10455000B2F5801F28BFD2F17F6C0BD95FEA001C37
:1045600043EAC20242EB507018BF704728BF20F0E8
:1045700001007047B2F5801FBCBF184670474FEA74
:10458000410C1CF5001F02D2084600F043BB70B579
:1045900000F0B2F800000089FFF7F6BF4FF00040CE
:1045A000A0F580007047000010B591EA030F48BFE6
:1045B00083F0004300F1FC80841A71EB030C05D2F8
:1045C000121943EB0C03001B61EB0C014FEA115471
:1045D000A4EB135CDFF81CE11EEA430F18BF9EEA50
:1045E000445F00F0748021EA045123EA0E0343F48F
:1045F0008013DCF1200E32D322FA0CFE10EB0E00F9
:1046000023FA0CFE41EB0E01CCF1200E03FA0EFE54
:1046100010EB0E00CCF1200E51F10001B1F5801F1E
:1046200032D201EB045112FA0EF2BDE8104058BF2D
:104630007047401C38BF5FEA420218BF704700282D
:1046400014BF20F0010041F100014FEA410313F5CE
:10465000001F38BF7047A1F1C04100F09BB8012A8C
:1046600043EB0302ACF1200CDCF11F0E32BF4FF024
:10467000000E23FA0CF310EB030041EB0451B4EBF2
:10468000115FD0D0A1EB045101F58011490801EB75
:1046900004515FEA30000ED350F1000038BF12FA27
:1046A0000EFE08D1BDE81040C9E7401C38BF5FEAE4
:1046B0004202CAD1C3E7BDE810404FEA410313F5F7
:1046C000001F38BF7047A1F1C04100F063B89EEAF7
:1046D000445F08D011EA5E0FBDE8104004BF01F04E
:1046E000004100207047BDE8104070B500F004F8AC
:1046F00064FBBE3E0000E0FF0EF1020E2EF0030E42
:104700005EF8046B364205D4012A43EB030515F528
:10471000001F12D8012841EB010C1CF5001F0CD81A
:104720000ED14FEAD17C0CEB4C0C0CF1020C15F5C0
:10473000001F08BF4CEBD37C04E04FF0080C01E0F5
:104740004FEAD37C0CEB4C0526FA05F606F007067B
:10475000B6F1040C06D20EEB860CBDE870404CF0AE
:10476000010C6047DFE80CF0090B02024FF000413A
:10477000A1F500214FF0000070BD19461046012838
:1047800051EB010418BFD4F5001484BF002001F0E0
:10479000004170BD0808A0F500114FEA31017047D3
:1047A00010B591EA030F48BF83F000433FF504AF13
:1047B000841A71EB030C07D28CF0004C121943EBF6
:1047C0000C03001B61EB0C014FEA1154A4EB135CCA
:1047D000DFF8A4E11EEA430F18BF9EEA445F00F031
:1047E000B48021EA045123EA6E035242C3EB6E0304
:1047F00038BF5B1EDCF1200E25D322FA0CFE10EB35
:104800000E0043FA0CFE41EB0E01CCF1200E03FA30
:104810000EFE10EB0E00CCF1200E51F1000129D458
:1048200001EB045112FA0EF2BDE8104058BF704778
:10483000401C1CBFB2F1004F704700280CBF491C40
:1048400020F00100704712EB020E43EB030218BF89
:104850004FF0010E4EEA4202ACF1200CDCF11E0ECC
:1048600056D943FA0CFE10EB0E00CCF11E0E51F19E
:10487000FF31D5D50EF1010E12FA0EFE404141EB8B
:10488000010101EB445C5FEA5C5C10D901EB04516F
:1048900010EBDE7038BFBEF1004FBDE8104018BF0E
:1048A000704700280CBF491C20F00100704734D22B
:1048B0004FEAD42C24F4006411F500111BD0B1FA96
:1048C00081F20B3AA41AA41ED2F12003914030FACF
:1048D00003F31943904001EBCC7101EB0451002C20
:1048E000BDE81040A8BF704701F1C04101F0004190
:1048F0004FF000007047B0FA80F310FA03F102D1D4
:10490000BDE810407047E41A173C4805C90AE2E7C1
:1049100001EB0451BDE81040704749104FEA3000E8
:1049200001EB0451BDE8104002E04FF00001704778
:104930004A0008BF0042F8D0B2F5001F28BF7047F8
:1049400001F000414FF0000070479EEA445F07D03D
:1049500011EA5E0FBDE8104004BF0021002070473F
:10496000BDE8104070B5FFF7C7FE00BF40DFF63E60
:10497000104683F0004170470000E0FF43004FEA1B
:10498000D30C4FEA3C0C43401FBF40070CF1605171
:1049900013F0FE4F70471CF0006F03D10CF0004184
:1049A000002070470CF0004343EA507040EACC000E
:1049B00010B500F0E9F800BF000000924FEA0001D6
:1049C000FFF7E8BE4FF00041A1F500214FF00000D5
:1049D000704700004FF47F0C1CEAD0121EBF1CEA87
:1049E000D11392EA0C0F93EA0C0F00F0858090EA45
:1049F000010F48BF42F4807240F4000C41F4000003
:104A00002CF07F4120F07F4000B5A2EB03028142F1
:104A10000FF2081CACEB504E9EF800E0C0F1000015
:104A20004FEA4E0E00FB0EFC38BF49004FEA2C1C2B
:104A30000CFB0EF34FEACE1E0EEB635E4FEA112C19
:104A40000EFB0CFC4FEAC1214FEA1C5300FB031183
:104A500002F5FA024FEA112C0EFB0CFC4FEA013171
:104A60004FEADC4C00FB0C1142EB2242C14228BF52
:104A700009184CEB03335DF804EB10EB410143EBF9
:104A8000C250B2F57C0F38BF704729D512F0F00F35
:104A90001CBF00F1C04000F00040704700818283DD
:104AA0008485868788898B8C8D8E8F91929395963D
:104AB00097999A9C9D9FA0A2A3A5A7A8AAACAEB0C7
:104AC000B2B3B5B7B9BCBEC0C2C5C7C9CCCED1D4CC
:104AD000D7D9DCDFE2E6E9ECF0F3F7FAFE000000FC
:104AE0004FEA400C0CF1807CBCF17E4F28BF704730
:104AF000B0F1C04000F08EB80CEAD11390EA010F7B
:104B000048BF42F48072624538BF634507D213F450
:104B10007F0F16D080EA010000F00040704710B50A
:104B200000F032F8097EFC3E00F005B880EA010092
:104B300000F00040704780EA010000F0004000F003
:104B400069B812F47F0F04BF0248704780EA010081
:104B500000F060B80000C07F10F0004148BF404244
:104B6000B0FA80F310FA03F2C3F19D030BD051EABF
:104B7000C35101EB1220530638BF704700F101000A
:104B800008BF20F0010070470EF1020E2EF0030E58
:104B90005EF8044B244204D44FEA4102B2F17F4F45
:104BA00011D84FEA4003B3F17F4F0CD80ED14FEA32
:104BB000D07C0CEB4C0C0CF1020CB2F17F4F08BF17
:104BC0004CEBD17C04E04FF0080C01E04FEAD17CC3
:104BD0000CEB4C0324FA03F404F00704B4F1040CC6
:104BE00006D20EEB840CBDE810404CF0010C60477F
:104BF000DFE80CF0070802024FF00040A0F580004B
:104C000010BD0846420018BFD2F1807288BF00F084
:104C1000004010BDFF2141EAD050C0057047FBF7AE
:104C200047BD303132333435363738394142434469
:104C30004546403058003031323334353637383914
:104C4000616263646566403078000400000800001B
:104C500000000000000200010000100002400000FF
:104C6000000000A00000000005400000000000C897
:104C7000000000000C4000000000409C000000000C
:104C8000194000000020BCBE0000000034400000BD
:104C9000BFC91B8E00000004B5400000504BCFD0B0
:104CA0006607E2CF010000006C4100003E8251AA7D
:104CB000DFEEA73401000000D9420000DCB5A0E21D
:104CC0003A301F97FFFFFFFFB4450000FD25A0C845
:104CD000E9A3C14FFFFFFFFFFF3F0000000000807E
:104CE00000000000FF3F0000000000800000000006
:104CF0003A7474003A7474003A747400000000004E
:104D0000000000000102030406070809000000007B
:104D100001020304010202030405060708090A0B45
:104D20000C0D0E0F10104D50553630353020776871
:104D30006F5F616D5F69203D203078253032782EBD
:104D40002E2E4F4B0A004C53425F53656E736974AD
:104D500069766974795F4759524F3A2025662C204D
:104D60004C53425F53656E73697469766974795FF9
:104D70004143433A2025660A00000000B84D000870
:104D8000000000201800000050010008D04D00086D
:104D90001800002078080000700100081C000000C6
:104DA00043000000F8FFFFFF0C0000000E000000B1
:104DB0000F0000002E0000000000000000000000B6
:104DC00000000000010000001000000000127A0046
:04000005080000ED02
:00000001FF
