:020000040800F2
:10000000000005202918000819160008211600080C
:1000100029160008311600083916000800000000F3
:100020000000000000000000000000004116000871
:100030004F160008000000005D1600086B1600084F
:10004000791800087918000879180008791800084C
:10005000791800087918000879180008791800083C
:10006000791800087918000879180008791800082C
:10007000791800087918000879180008791800081C
:10008000791800087918000879180008791800080C
:1000900079180008791800087918000879180008FC
:1000A00079180008791800087918000879180008EC
:1000B00079180008791800087918000879180008DC
:1000C00079180008791800087918000879180008CC
:1000D00079180008791800087918000879180008BC
:1000E00079180008791800087918000879180008AC
:1000F000791800087918000879180008791800089C
:10010000791800087918000879180008791800088B
:10011000791800087918000879180008791800087B
:10012000791800087918000879180008791800086B
:10013000791800087918000879180008791800085B
:10014000791800087918000879180008791800084B
:10015000791800087918000879180008791800083B
:10016000791800087918000879180008791800082B
:1001700079180008791800087918000800000000B4
:10018000791800087918000879180008791800080B
:1001900079180008791800087918000879180008FB
:1001A00079180008791800087918000879180008EB
:1001B00079180008791800087918000879180008DB
:0801C000791800087918000805
:1001D00010B5054C237833B9044B13B10448AFF381
:1001E00000800123237010BDD40100200000000016
:1001F0009C6D000808B5034B1BB103490348AFF3DE
:10020000008008BD00000000D80100209C6D00089F
:1002100001F0FF01102A2BDB10F0070F08D010F8B7
:10022000013B013A8B422DD010F0070F42B3F6D1BB
:10023000F0B441EA012141EA014122F007047FF0D4
:1002400000070023F0E80256083C85EA010586EA2B
:10025000010685FA47F5A3FA87F586FA47F6A5FA67
:1002600087F68EB9EED1F0BC01F0FF0102F0070273
:1002700032B110F8013B013A83EA010313B1F8D11E
:100280000020704701387047002D06BF35460338FF
:10029000073815F0010F07D1013015F4807F02BF38
:1002A000013015F4C03F0130F0BC0138704700BF89
:1002B000034613F8012B002AFBD1181A01387047A6
:1002C00081F0004102E000BF83F0004330B54FEA07
:1002D00041044FEA430594EA050F08BF90EA020F74
:1002E0001FBF54EA000C55EA020C7FEA645C7FEA07
:1002F000655C00F0E2804FEA5454D4EB5555B8BF2A
:100300006D420CDD2C4480EA020281EA030382EA9A
:10031000000083EA010180EA020281EA0303362D2C
:1003200088BF30BD11F0004F4FEA01314FF4801CFF
:100330004CEA113102D0404261EB410113F0004F11
:100340004FEA03334CEA133302D0524263EB4303C8
:1003500094EA050F00F0A780A4F10104D5F1200E66
:100360000DDB02FA0EFC22FA05F2801841F10001C1
:1003700003FA0EF2801843FA05F359410EE0A5F195
:1003800020050EF1200E012A03FA0EFC28BF4CF0C6
:10039000020C43FA05F3C01851EBE37101F000457C
:1003A00007D54FF0000EDCF1000C7EEB00006EEB89
:1003B0000101B1F5801F1BD3B1F5001F0CD3490813
:1003C0005FEA30004FEA3C0C04F101044FEA44526A
:1003D00012F5800F80F09A80BCF1004F08BF5FEAF1
:1003E000500C50F1000041EB045141EA050130BDD1
:1003F0005FEA4C0C404141EB0101013C28BFB1F5E3
:10040000801FE9D291F0000F04BF01460020B1FA2D
:1004100081F308BF2033A3F10B03B3F120020CDA00
:100420000C3208DD02F1140CC2F10C0201FA0CF0DE
:1004300021FA02F10CE002F11402D8BFC2F1200C43
:1004400001FA02F120FA0CFCDCBF41EA0C019040F9
:10045000E41AA2BF01EB0451294330BD6FEA040442
:100460001F3C1CDA0C340EDC04F11404C4F120022D
:1004700020FA04F001FA02F340EA030021FA04F33F
:1004800045EA030130BDC4F10C04C4F1200220FA96
:1004900002F001FA04F340EA0300294630BD21FAD4
:1004A00004F0294630BD94F0000F83F4801306BF9A
:1004B00081F480110134013D4EE77FEA645C18BF8E
:1004C0007FEA655C29D094EA050F08BF90EA020F25
:1004D00005D054EA000C04BF1946104630BD91EA1D
:1004E000030F1EBF0021002030BD5FEA545C05D120
:1004F0004000494128BF41F0004130BD14F580045F
:100500003CBF01F5801130BD01F0004545F0FE41D2
:1005100041F470014FF0000030BD7FEA645C1ABF07
:10052000194610467FEA655C1CBF0B46024650EA3E
:10053000013406BF52EA033591EA030F41F400216A
:1005400030BD00BF90F0000F04BF0021704730B5F0
:100550004FF4806404F132044FF000054FF00001C5
:1005600050E700BF90F0000F04BF0021704730B586
:100570004FF4806404F1320410F0004548BF40425B
:100580004FF000013EE700BF42004FEAE2014FEAB0
:1005900031014FEA02701FBF12F07F4393F07F4F8B
:1005A00081F06051704732F07F4208BF704793F08E
:1005B0007F4F04BF41F40021704730B54FF46074A1
:1005C00001F0004521F000411CE700BF50EA0102A4
:1005D00008BF704730B54FF000050AE050EA01024D
:1005E00008BF704730B511F0004502D5404261EBBD
:1005F00041014FF4806404F132045FEA915C3FF4FE
:10060000D8AE4FF003025FEADC0C18BF03325FEA9A
:10061000DC0C18BF033202EBDC02C2F1200300FA4B
:1006200003FC20FA02F001FA03FE40EA0E0021FA70
:1006300002F11444BDE600BF70B54FF0FF0C4CF45E
:10064000E06C1CEA11541DBF1CEA135594EA0C0F10
:1006500095EA0C0F00F0DEF82C4481EA030621EA4B
:100660004C5123EA4C5350EA013518BF52EA033586
:1006700041F4801143F4801338D0A0FB02CE4FF038
:100680000005E1FB02E506F00042E0FB03E54FF068
:100690000006E1FB03569CF0000F18BF4EF0010E60
:1006A000A4F1FF04B6F5007F64F5407404D25FEA5C
:1006B0004E0E6D4146EB060642EAC62141EA55510F
:1006C0004FEAC52040EA5E504FEACE2EB4F1FD0C51
:1006D00088BFBCF5E06F1ED8BEF1004F08BF5FEACF
:1006E000500E50F1000041EB045170BD06F0004681
:1006F00046EA010140EA020081EA0301B4EB5C042E
:10070000C2BFD4EB0C0541EA045170BD41F4801125
:100710004FF0000E013C00F3AB8014F1360FDEBF4A
:10072000002001F0004170BDC4F10004203C35DA26
:100730000C341BDC04F11404C4F1200500FA05F3A9
:1007400020FA04F001FA05F240EA020001F000424A
:1007500021F0004110EBD37021FA04F642EB0601C0
:100760005EEA430E08BF20EAD37070BDC4F10C04EA
:10077000C4F1200500FA04F320FA05F001FA04F2AE
:1007800040EA020001F0004110EBD37041F100019A
:100790005EEA430E08BF20EAD37070BDC4F12005A5
:1007A00000FA05F24EEA020E20FA04F301FA05F20D
:1007B00043EA020321FA04F001F0004121FA04F2B5
:1007C00020EA020000EBD3705EEA430E08BF20EA85
:1007D000D37070BD94F0000F0FD101F000464000BF
:1007E00041EB010111F4801F08BF013CF7D041EA41
:1007F000060195F0000F18BF704703F00046520045
:1008000043EB030313F4801F08BF013DF7D043EA15
:100810000603704794EA0C0F0CEA135518BF95EACB
:100820000C0F0CD050EA410618BF52EA4306D1D152
:1008300081EA030101F000414FF0000070BD50EA71
:10084000410606BF1046194652EA430619D094EAFB
:100850000C0F02D150EA013613D195EA0C0F05D1E5
:1008600052EA03361CBF104619460AD181EA030139
:1008700001F0004141F0FE4141F470014FF00000F1
:1008800070BD41F0FE4141F4780170BD70B54FF08C
:10089000FF0C4CF4E06C1CEA11541DBF1CEA13550C
:1008A00094EA0C0F95EA0C0F00F0A7F8A4EB0504EE
:1008B00081EA030E52EA03354FEA013100F08880E5
:1008C0004FEA03334FF0805545EA131343EA1263AE
:1008D0004FEA022245EA111545EA10654FEA002663
:1008E0000EF000419D4208BF964244F1FD0404F51C
:1008F000407402D25B084FEA3202B61A65EB030578
:100900005B084FEA32024FF480104FF4002CB6EB34
:10091000020E75EB030E22BFB61A754640EA0C00B4
:100920005B084FEA3202B6EB020E75EB030E22BFF4
:10093000B61A754640EA5C005B084FEA3202B6EB35
:10094000020E75EB030E22BFB61A754640EA9C00F4
:100950005B084FEA3202B6EB020E75EB030E22BFC4
:10096000B61A754640EADC0055EA060E18D04FEA82
:10097000051545EA16754FEA06164FEAC30343EA22
:1009800052734FEAC2025FEA1C1CC0D111F4801FEF
:100990000BD141EA00014FF000004FF0004CB6E7E8
:1009A00011F4801F04BF01430020B4F1FD0C88BF87
:1009B000BCF5E06F3FF6AFAEB5EB030C04BFB6EB92
:1009C000020C5FEA500C50F1000041EB045170BD85
:1009D0000EF0004E4EEA113114EB5C04C2BFD4EBB2
:1009E0000C0541EA045170BD41F480114FF0000E36
:1009F000013C90E645EA060E8DE60CEA135594EAB2
:100A00000C0F08BF95EA0C0F3FF43BAF94EA0C0FB4
:100A10000AD150EA01347FF434AF95EA0C0F7FF429
:100A200025AF104619462CE795EA0C0F06D152EA7D
:100A300003353FF4FDAE1046194622E750EA410661
:100A400018BF52EA43067FF4C5AE50EA41047FF472
:100A50000DAF52EA43057FF4EBAE12E74FF0FF3CD7
:100A600006E000BF4FF0010C02E000BF4FF0010CA8
:100A70004DF804CD4FEA410C7FEA6C5C4FEA430C21
:100A800018BF7FEA6C5C1BD001B050EA410C0CBF70
:100A900052EA430C91EA030F02BF90EA020F0020D2
:100AA000704710F1000F91EA030F58BF994208BF39
:100AB00090422CBFD8176FEAE37040F001007047F6
:100AC0004FEA410C7FEA6C5C02D150EA013C07D14D
:100AD0004FEA430C7FEA6C5CD6D152EA033CD3D098
:100AE0005DF8040B704700BF8446104662468C4692
:100AF0001946634600E000BF01B5FFF7B7FF0028C5
:100B000048BF10F1000F01BD4DF808EDFFF7F4FFED
:100B10000CBF012000205DF808FB00BF4DF808ED78
:100B2000FFF7EAFF34BF012000205DF808FB00BF9B
:100B30004DF808EDFFF7E0FF94BF012000205DF8BD
:100B400008FB00BF4DF808EDFFF7CEFF94BF012072
:100B500000205DF808FB00BF4DF808EDFFF7C4FF6B
:100B600034BF012000205DF808FB00BF4FEA410CB4
:100B70007FEA6C5C02D150EA013C0AD14FEA430C97
:100B80007FEA6C5C02D152EA033C02D14FF00000D4
:100B900070474FF0010070474FEA410212F5001212
:100BA00015D211D56FF47873B3EB625212D94FEAB4
:100BB000C12343F0004343EA505311F0004F23FA9E
:100BC00002F018BF404270474FF00000704750EAF3
:100BD000013005D111F0004008BF6FF000407047B0
:100BE0004FF00000704700BF53B94AB9002908BF51
:100BF00000281CBF4FF0FF314FF0FF3000F088B9E4
:100C0000ADF1080C6DE904CE00F006F8DDF804E063
:100C1000DDE9022304B070472DE9F047089D8E46B8
:100C200004468846002B4AD18A42174662D9B2FA56
:100C300082F64EB1C6F1200301FA06F820FA03F35A
:100C4000B74043EA0808B4404FEA174E1FFA87FC42
:100C5000B8FBFEF1230C0EFB118843EA084301FBAD
:100C60000CF29A4209D9FB1801F1FF3080F0EA80BA
:100C70009A4240F2E78002393B449A1AA3B2B2FB8F
:100C8000FEF00EFB102243EA024300FB0CFC9C45E5
:100C900009D9FB1800F1FF3280F0D6809C4540F264
:100CA000D3803B44023840EA0140A3EB0C0300210F
:100CB0001DB1F3400022C5E90032BDE8F0878B4248
:100CC00005D90DB1C5E9000100210846F5E7B3FAE1
:100CD00083F1002946D1734502D3824200F2058197
:100CE000841A6EEB030201209046002DE5D0C5E981
:100CF0000048E2E7002A00F09080B2FA82F6002E67
:100D000040F0A4808A1A030C4FEA174E80B2BCB29E
:100D10000121B2FBFEFC0EFB1C2243EA024304FB52
:100D20000CF29A4207D9FB180CF1FF3802D29A4212
:100D300000F2E080C4469B1AB3FBFEF20EFB1233B6
:100D400040EA034302FB04F49C4207D9FB1802F17A
:100D5000FF3002D29C4200F2CA8002461B1B42EACC
:100D60000C40A5E7C1F120068B4022FA06F71F438D
:100D70000EFA01F420FA06F32EFA06FE4FEA17499E
:100D8000234300FA01F81FFA87FCBEFBF9F01C0CA4
:100D900009FB10EE44EA0E4400FB0CFEA64502FAE5
:100DA00001F209D93C1900F1FF3A80F09C80A64578
:100DB00040F2998002383C44A4EB0E041FFA83FEF3
:100DC000B4FBF9F309FB13444EEA044403FB0CFCA7
:100DD000A44508D93C1903F1FF3E80F08280A44568
:100DE0007FD9023B3C4443EA0040A4EB0C04A0FB47
:100DF00002EC64457346E14662D35FD05DB1B8EB67
:100E0000030264EB090404FA06F622FA01F31E4316
:100E1000CC40C5E9006400214FE7B1FBF2FC010CB6
:100E200041EA0E4180B240EA01423B4638463C4628
:100E3000B846BE462026B1FBF7F1A2EB080241EA14
:100E40000C4166E7014618E710462CE7C6F1200280
:100E50002EFA02F3B740B14020FA02F24FEA174EE1
:100E60000A43B3FBFEF8BCB20EFB1833110C41EA87
:100E7000034108FB04F9B04089454FEA104380B2B2
:100E80003ED9791808F1FF3C01D289451FD8A1EB62
:100E90000901B1FBFEF909FB04F80EFB191192B22E
:100EA00042EA0142424529D2BA1809F1FF31C4D2BF
:100EB0004245C2D2A9F102013A44BEE7F0459DD2B3
:100EC000BEEB02036CEB070C0138E14696E7A7EB9B
:100ED00009094944A8F1020CB1FBFEF909FB04F829
:100EE000DBE773467FE7504666E70846FDE63B448E
:100EF000023A33E7ACF1020C3B441CE749469CE75D
:100F0000A1EB0901C446B1FBFEF909FB04F8C4E7F3
:100F1000704700BF80B586B004AF03463960FB71EF
:100F20001346BB80FB799AB24FF47A730293BB8865
:100F300001933B6800930123D021044801F04CF851
:100F4000034618460837BD4680BD00BFF0010020AB
:100F500080B586B000AF786007F108030E2219460D
:100F60003B20FFF7D7FF0346002B02D04FF0FF33A3
:100F7000ACE03B7A1BB21B021AB27B7A1BB2134362
:100F80001AB27B681A80BB7A1BB21B021AB2FB7AB8
:100F90001BB213431AB27B685A803B7B1BB21B0205
:100FA0001AB27B7B1BB213431AB27B689A80BB7B5D
:100FB0001BB21B021AB2FB7B1BB213431AB27B6833
:100FC000DA803B7C1BB21B021AB27B7C1BB2134340
:100FD0001AB27B681A81BB7C1BB21B021AB2FB7C63
:100FE0001BB213431AB27B685A813B7D1BB21B02B2
:100FF0001AB27B7D1BB213431AB27B689A817B685D
:10100000B3F9003007EE903AB8EEE77ADFED316AD7
:10101000C7EE267A7B68C3ED047A7B68B3F90230A9
:1010200007EE903AB8EEE77ADFED2A6AC7EE267A45
:101030007B68C3ED057A7B68B3F9043007EE903A1C
:10104000B8EEE77ADFED236AC7EE267A7B68C3ED58
:10105000067A7B68B3F9063007EE903AB8EEE77A85
:10106000DFED1D6AC7EE267A9FED1C7A77EE877A50
:101070007B68C3ED077A7B68B3F9083007EE903AD6
:10108000B8EEE77ADFED166AC7EE267A7B68C3ED25
:10109000087A7B68B3F90A3007EE903AB8EEE77A3F
:1010A000DFED0F6AC7EE267A7B68C3ED097A7B68AD
:1010B000B3F90C3007EE903AB8EEE77ADFED086A44
:1010C000C7EE267A7B68C3ED0A7A002318461837E4
:1010D000BD4680BD000080460000AA43B81E1242F3
:1010E0000000034380B584B000AF78607B68DBB25A
:1010F000FB7307F10F014FF0FF330122034802F0A9
:10110000A3FC7B6818461037BD4680BD4402002012
:101110002DE9F04F9FB00CAF00F0AFFB00F062F88C
:1011200000F03EF900F0CCF800F00AF92A4803F08C
:10113000C3FE07F11C031846FFF70AFF0346002B06
:1011400043D100F0EBFB0646FB6A1846FFF71CFA9A
:10115000C7E904013B6B1846FFF716FA804689463B
:101160007B6B1846FFF710FA82468B46FB6B1846DE
:10117000FFF70AFAC7E902013B6C1846FFF704FAC9
:10118000C7E900017B6C1846FFF7FEF904460D46DF
:10119000BB6B1846FFF7F8F902460B46CDE90A2368
:1011A000CDE9084597ED007B8DED067B97ED027B41
:1011B0008DED047BCDE902ABCDE90089D7E90423AD
:1011C0003146064803F010FE02E0054803F074FEC5
:1011D000C82000F0AFFBACE7B86D0008D06D000888
:1011E000286E000880B594B000AF07F120033022CC
:1011F0000021184603F040FF07F10C0300221A609B
:101200005A609A60DA601A612B4B1B6C2A4A43F0D1
:1012100080531364284B1B6C03F08053BB60BB6886
:10122000264B1B68254A43F440431360234B1B683D
:1012300003F440437B607B6801233B624FF48033BF
:101240007B620223BB634FF48003FB6319233B647F
:101250004FF4D8737B640223BB640923FB6407F15A
:101260002003184601F028FB0346002B01D000F0B4
:10127000C7F801F0D1FA0346002B01D000F0C0F806
:101280000F23FB6002233B6100237B614FF4A053DB
:10129000BB614FF48053FB6107F10C030721184633
:1012A00001F0AEFD0346002B01D000F0A9F800BF0D
:1012B0005037BD4680BD00BF00380240007000407E
:1012C00080B500AF1B4B1C4A1A601A4B1B4A5A6070
:1012D000184B00229A60174B0122DA60154B00224E
:1012E0001A61144B00225A61124B00229A61114B71
:1012F0000022DA610F4B00221A620E4800F0D0FD86
:101300000346002B01D000F07BF80021094801F0D2
:10131000EBF90346002B01D000F072F800210548DC
:1013200001F02DFA0346002B01D000F069F800BF50
:1013300080BD00BFF0010020005400400D0300609C
:1013400080B500AF144B154A1A60134B4FF4E132CD
:101350005A60114B00229A600F4B0022DA600E4B4C
:1013600000221A610C4B0C225A610B4B00229A612D
:10137000094B0022DA61084B00221A62064B002258
:101380005A62054802F012FB0346002B01D000F020
:1013900037F800BF80BD00BF4402002000100140AC
:1013A00080B485B000AF154B1B6B144A43F00203A9
:1013B0001363124B1B6B03F00203FB60FB680F4BC4
:1013C0001B6B0E4A43F0010313630C4B1B6B03F0C2
:1013D0000103BB60BB68094B1B6B084A43F08003E9
:1013E0001363064B1B6B03F080037B607B6800BFBD
:1013F0001437BD465DF8047B704700BF00380240DB
:1014000080B400AF72B600BF00BFFDE780B483B008
:1014100000AF0F4B1B6C0E4A43F0805313640C4B10
:101420001B6C03F080537B607B68094B5B6C084A44
:1014300043F480435364064B5B6C03F480433B608E
:101440003B6800BF0C37BD465DF8047B704700BFAA
:101450000038024080B5AAB000AF786007F194036D
:1014600000221A605A609A60DA601A6107F110036C
:1014700084220021184603F0FFFD7B681B68224A86
:1014800093423CD14FF480433B6100237B6707F1DB
:101490001003184601F09AFE0346002B01D0FFF717
:1014A000AFFF1A4B1B6B194A43F002031363174B30
:1014B0001B6B03F00203FB60FB684FF44073C7F83B
:1014C00094301223C7F898300023C7F89C300323C8
:1014D000C7F8A0300423C7F8A43007F194031946D5
:1014E0000B4800F031FB094B1B6C084A43F4001316
:1014F0001364064B1B6C03F40013BB60BB6800BF96
:10150000A837BD4680BD00BF0054004000380240EF
:101510000004024080B5ACB000AF786007F19C03D6
:1015200000221A605A609A60DA601A6107F11803A3
:1015300084220021184603F09FFD7B681B68324A15
:1015400093425CD14023BB610023FB6507F1180384
:10155000184601F03BFE0346002B01D0FFF750FF79
:101560002A4B5B6C294A43F010035364274B5B6C96
:1015700003F010037B617B69244B1B6B234A43F010
:1015800002031363214B1B6B03F002033B613B69B6
:101590001E4B1B6B1D4A43F0010313631B4B1B6B5C
:1015A00003F00103FB60FB688023C7F89C30022333
:1015B000C7F8A0300023C7F8A4300323C7F8A83029
:1015C0000723C7F8AC3007F19C031946104800F018
:1015D000BBFA4FF40073C7F89C300223C7F8A03061
:1015E0000023C7F8A4300323C7F8A8300723C7F89F
:1015F000AC3007F19C031946064800F0A5FA00BF7D
:10160000B037BD4680BD00BF001001400038024029
:10161000000402400000024080B400AF00BFFDE7BC
:1016200080B400AF00BFFDE780B400AF00BFFDE7AE
:1016300080B400AF00BFFDE780B400AF00BFFDE79E
:1016400080B400AF00BFBD465DF8047B704780B436
:1016500000AF00BFBD465DF8047B704780B400AFAB
:1016600000BFBD465DF8047B704780B500AF00F059
:1016700041F900BF80BD80B400AF01231846BD46CC
:101680005DF8047B704780B582B000AF7860396048
:1016900003F044FD034616221A604FF0FF3318464C
:1016A0000837BD4680BD80B582B000AF78604FF08E
:1016B000FF317868FFF7E7FF00BFFDE780B586B030
:1016C00000AFF860B9607A6000237B610AE0AFF395
:1016D00000800146BB685A1CBA60CAB21A707B69A6
:1016E00001337B617A697B689A42F0DB7B6818463C
:1016F0001837BD4680BD80B586B000AFF860B960D0
:101700007A6000237B6109E0BB685A1CBA601B78D1
:101710001846FFF7E7FC7B6901337B617A697B68D8
:101720009A42F1DB7B6818461837BD4680BD80B40D
:1017300083B000AF78604FF0FF3318460C37BD46DA
:101740005DF8047B704780B483B000AF7860396087
:101750003B684FF400525A60002318460C37BD46D0
:101760005DF8047B704780B483B000AF78600123DC
:1017700018460C37BD465DF8047B704780B485B0D1
:1017800000AFF860B9607A60002318461437BD4690
:101790005DF8047B7047000080B586B000AF7860CC
:1017A000144A154BD31A7B617B693B61134B1B6851
:1017B000002B02D1114B124A1A60104B1A687B6839
:1017C00013443A699A4207D203F0A8FC03460C225C
:1017D0001A604FF0FF3309E0084B1B68FB60074BB2
:1017E0001A687B681344054A1360FB68184618376B
:1017F000BD4680BD0000052000040000CC02002092
:101800002004002080B400AF064BD3F88830054A8E
:1018100043F47003C2F8883000BFBD465DF8047B16
:10182000704700BF00ED00E0DFF834D0FFF7EAFFBB
:101830000C480D490D4A002302E0D458C45004332B
:10184000C4188C42F9D30A4A0A4C002301E0136001
:101850000432A242FBD303F067FCFFF759FC704748
:101860000000052000000020D4010020DC710008E9
:10187000D401002020040020FEE780B500AF032043
:1018800000F02EF90F2000F005F8FFF7BFFD002350
:10189000184680BD80B582B000AF7860124B1A68E0
:1018A000124B1B7819464FF47A73B3FBF1F3B2FB7A
:1018B000F3F3184600F03BF90346002B01D0012357
:1018C0000EE07B680F2B0AD8002279684FF0FF30BA
:1018D00000F011F9064A7B681360002300E0012341
:1018E00018460837BD4680BD0000002008000020D3
:1018F0000400002080B400AF064B1B781A46064B4C
:101900001B681344044A136000BFBD465DF8047BA6
:10191000704700BF08000020D002002080B400AF54
:10192000034B1B681846BD465DF8047B704700BF3B
:10193000D002002080B584B000AF7860FFF7EEFFE2
:10194000B8607B68FB60FB68B3F1FF3F05D00A4BD2
:101950001B781A46FB681344FB6000BFFFF7DEFFED
:101960000246BB68D31AFA689A42F7D800BF00BF94
:101970001037BD4680BD00BF0800002080B485B090
:1019800000AF78607B6803F00703FB600B4BDB68FC
:10199000BB60BA684FF6FF031340BB60FB681A02D6
:1019A000BB681A43064B1343BB60044ABB68D36051
:1019B00000BF1437BD465DF8047B704700ED00E0C2
:1019C0000000FA0580B400AF044BDB681B0A03F08B
:1019D00007031846BD465DF8047B704700ED00E044
:1019E00080B483B000AF03463960FB7197F90730CC
:1019F000002B0ADB3B68DAB20C4997F90730120179
:101A0000D2B20B4483F800230AE03B68DAB20849FB
:101A1000FB7903F00F03043B1201D2B20B441A7698
:101A200000BF0C37BD465DF8047B704700E100E065
:101A300000ED00E080B489B000AFF860B9607A6072
:101A4000FB6803F00703FB61FB69C3F10703042B89
:101A500028BF0423BB61FB690433062B02D9FB6951
:101A6000033B00E000237B614FF0FF32BB6902FAC9
:101A700003F3DA43BB681A407B699A404FF0FF31A9
:101A80007B6901FA03F3D9437B680B401343184683
:101A90002437BD465DF8047B7047000080B582B0F6
:101AA00000AF78607B68013BB3F1807F01D30123F5
:101AB0000FE00A4A7B68013B53600F214FF0FF3073
:101AC000FFF78EFF054B00229A60044B07221A6035
:101AD000002318460837BD4680BD00BF10E000E077
:101AE00080B582B000AF78607868FFF747FF00BF2D
:101AF0000837BD4680BD80B586B000AF0346B960EB
:101B00007A60FB7300237B61FFF75CFF78617A6882
:101B1000B9687869FFF78EFF024697F90F301146D2
:101B20001846FFF75DFF00BF1837BD4680BD80B582
:101B300082B000AF78607868FFF7B0FF03461846C0
:101B40000837BD4680BD000080B489B000AF786022
:101B500039600023FB6100237B6100233B6100238C
:101B6000BB610023FB6175E10122FB6902FA03F30B
:101B70007B613B681B687A6913403B613A697B690A
:101B80009A4240F064813B685B6803F00303012BD9
:101B900005D03B685B6803F00303022B30D17B6800
:101BA0009B68BB61FB695B00032202FA03F3DB4322
:101BB000BA691340BB613B68DA68FB695B0002FAF3
:101BC00003F3BA691343BB617B68BA699A607B68A7
:101BD0005B68BB610122FB6902FA03F3DB43BA696C
:101BE0001340BB613B685B681B0903F00102FB69A2
:101BF00002FA03F3BA691343BB617B68BA695A609E
:101C00003B685B6803F00303032B17D07B68DB683A
:101C1000BB61FB695B00032202FA03F3DB43BA6991
:101C20001340BB613B689A68FB695B0002FA03F3EF
:101C3000BA691343BB617B68BA69DA603B685B6869
:101C400003F00303022B23D1FB69DA087B68083217
:101C500053F82230BB61FB6903F007039B000F229E
:101C600002FA03F3DB43BA691340BB613B681A69AC
:101C7000FB6903F007039B0002FA03F3BA691343FD
:101C8000BB61FB69DA087B680832B96943F8221046
:101C90007B681B68BB61FB695B00032202FA03F3EC
:101CA000DB43BA691340BB613B685B6803F0030226
:101CB000FB695B0002FA03F3BA691343BB617B68FB
:101CC000BA691A603B685B6803F44033002B00F08C
:101CD000BE80664B5B6C654A43F480435364634B40
:101CE0005B6C03F48043FB60FB68614AFB699B0803
:101CF000023352F82330BB61FB6903F003039B00FE
:101D00000F2202FA03F3DB43BA691340BB617B681D
:101D1000584A934237D07B68574A934231D07B6808
:101D2000564A93422BD07B68554A934225D07B6814
:101D3000544A93421FD07B68534A934219D07B6820
:101D4000524A934213D07B68514A93420DD07B682C
:101D5000504A934207D07B684F4A934201D10923EE
:101D600012E00A2310E008230EE007230CE006230C
:101D70000AE0052308E0042306E0032304E002232D
:101D800002E0012300E00023FA6902F0030292005E
:101D90009340BA691343BB613549FB699B08023321
:101DA000BA6941F823203D4B9B68BB613B69DB432B
:101DB000BA691340BB613B685B6803F48013002B76
:101DC00003D0BA693B691343BB61344ABB69936072
:101DD000324BDB68BB613B69DB43BA691340BB61D3
:101DE0003B685B6803F40013002B03D0BA693B69BE
:101DF0001343BB61294ABB69D360284B5B68BB6155
:101E00003B69DB43BA691340BB613B685B6803F421
:101E10000033002B03D0BA693B691343BB611F4AEF
:101E2000BB6953601D4B1B68BB613B69DB43BA69EF
:101E30001340BB613B685B6803F48033002B03D025
:101E4000BA693B691343BB61144ABB691360FB6900
:101E50000133FB61FB690F2B7FF686AE00BF00BF2D
:101E60002437BD465DF8047B704700BF0038024050
:101E70000038014000000240000402400008024017
:101E8000000C024000100240001402400018024002
:101E9000001C02400020024000240240003C01409F
:101EA00080B582B000AF78607B68002B01D1012340
:101EB0008BE07B6893F84130DBB2002B06D17B6866
:101EC000002283F840207868FFF7C4FA7B68242258
:101ED00083F841207B681B681A687B681B6822F0C6
:101EE00001021A607B685A687B681B6822F0706286
:101EF0001A617B681B689A687B681B6822F4004241
:101F00009A607B68DB68012B07D17B689A687B68E5
:101F10001B6842F400429A6006E07B689A687B681E
:101F20001B6842F404429A607B68DB68022B08D18C
:101F30007B681B685A687B681B6842F400625A60C1
:101F400007E07B681B685A687B681B6822F40062A4
:101F50005A607B681B6859687B681A681D4B0B4385
:101F600053607B681B68DA687B681B6822F4004258
:101F7000DA607B681A697B685B6942EA03017B6807
:101F80009B691A027B681B680A43DA607B68D9691F
:101F90007B681A6A7B681B680A431A607B681B6847
:101FA0001A687B681B6842F001021A607B68002295
:101FB0005A647B68202283F841207B6800221A63E0
:101FC0007B68002283F84220002318460837BD466C
:101FD00080BD00BF0080000280B588B002AFF8600D
:101FE000084611461A4603467B810B463B81134641
:101FF000FB80FB6893F84130DBB2202B40F0FD8082
:102000003B6A002B02D0BB8C002B05D1FB684FF440
:1020100000725A640123F1E0FB6893F84030012B11
:1020200001D10223EAE0FB68012283F84020FFF798
:1020300075FC78617B690093192301224FF40041FC
:10204000F86800F05BF90346002B01D00123D5E0CE
:10205000FB68222283F84120FB68402283F842205B
:10206000FB6800225A64FB683A6A5A62FB68BA8CC1
:102070005A85FB6800225A63F8883A8979897B6916
:102080000193BB6A00930346F86800F0BFF803466B
:10209000002B05D0FB68002283F840200123ADE02F
:1020A000FB685B8D9BB2FF2B0ED9FB6801221A8562
:1020B000FB681B8DDAB27989524B00934FF0807325
:1020C000F86800F0DFFA0FE0FB685B8D9AB2FB68FE
:1020D0001A85FB681B8DDAB279894A4B00934FF061
:1020E0000073F86800F0CEFA7B690093BB6A0022A7
:1020F0000421F86800F002F90346002B01D0012307
:102100007CE0FB681B685A6AFB685B6AD2B21A7093
:10211000FB685B6A5A1CFB685A62FB681B8D013BBB
:102120009AB2FB681A85FB685B8D9BB2013B9AB241
:10213000FB685A85FB685B8D9BB2002B34D0FB6833
:102140001B8D002B30D17B690093BB6A002280215C
:10215000F86800F0D3F80346002B01D001234DE0CE
:10216000FB685B8D9BB2FF2B0ED9FB6801221A85A1
:10217000FB681B8DDAB27989002300934FF08073DE
:10218000F86800F07FFA0FE0FB685B8D9AB2FB689D
:102190001A85FB681B8DDAB27989002300934FF012
:1021A0000073F86800F06EFAFB685B8D9BB2002B41
:1021B0009AD17A69B96AF86800F040F90346002BB1
:1021C00001D001231AE0FB681B682022DA61FB685A
:1021D0001B685968FB681A680B4B0B405360FB681F
:1021E000202283F84120FB68002283F84220FB680C
:1021F000002283F84020002300E00223184618370D
:10220000BD4680BD0024008000E800FE80B586B099
:1022100002AFF860084611461A4603467B810B461A
:102220003B811346FB80FB88DAB27989204B00930F
:102230000023F86800F026FAFA69B969F86800F036
:10224000B6F80346002B01D001232CE0FB88012BBC
:1022500005D13B89DAB2FB681B689A6215E03B89BD
:102260001B0A9BB2DAB2FB681B689A62FA69B96909
:10227000F86800F09CF80346002B01D0012312E01F
:102280003B89DAB2FB681B689A62FB690093BB6901
:1022900000224021F86800F031F80346002B01D0FD
:1022A000012300E0002318461037BD4680BD00BF63
:1022B0000020008080B483B000AF78607B681B682A
:1022C0009B6903F00203022B03D17B681B68002289
:1022D0009A627B681B689B6903F00103012B07D09E
:1022E0007B681B689A697B681B6842F001029A61EF
:1022F00000BF0C37BD465DF8047B704780B584B0E5
:1023000000AFF860B9603B601346FB713BE0BA690F
:102310003968F86800F0D6F80346002B01D0012395
:1023200041E03B68B3F1FF3F2DD0FFF7F7FA0246DB
:10233000BB69D31A3A689A4202D33B68002B22D178
:10234000FB681B689A69BB681340BA689A420CBF65
:1023500001230023DBB21A46FB799A4213D1FB68B2
:102360005B6C43F02002FB685A64FB68202283F810
:102370004120FB68002283F84220FB68002283F89A
:10238000402001230FE0FB681B689A69BB6813407B
:10239000BA689A420CBF01230023DBB21A46FB79CC
:1023A0009A42B4D0002318461037BD4680BD80B590
:1023B00084B000AFF860B9607A6033E07A68B968D9
:1023C000F86800F07FF80346002B01D0012331E0CC
:1023D000BB68B3F1FF3F25D0FFF7A0FA02467B6848
:1023E000D31ABA689A4202D3BB68002B1AD1FB6891
:1023F0001B689B6903F00203022B13D0FB685B6C24
:1024000043F02002FB685A64FB68202283F84120D5
:10241000FB68002283F84220FB68002283F84020FA
:10242000012307E0FB681B689B6903F00203022B92
:10243000C4D1002318461037BD4680BD80B584B096
:1024400000AFF860B9607A602FE07A68B968F86820
:1024500000F038F80346002B01D001232DE0FFF7F0
:102460005DFA02467B68D31ABA689A4202D3BB6807
:10247000002B1AD1FB681B689B6903F02003202BFB
:1024800013D0FB685B6C43F02002FB685A64FB6866
:10249000202283F84120FB68002283F84220FB6859
:1024A000002283F84020012307E0FB681B689B693A
:1024B00003F02003202BC8D1002318461037BD4657
:1024C00080BD000080B58AB000AFF860B9607A6066
:1024D000002387F82730FB681B689B69BB610023DA
:1024E0003B627B68FB61BB6903F01003002B68D083
:1024F000FB681B681022DA6149E0BB68B3F1FF3F5B
:1025000045D0FFF70BFA0246FB69D31ABA689A4224
:1025100002D3BB68002B3AD1FB681B685B6803F4ED
:1025200080437B61FB6893F84230FB74FB681B6857
:102530009B6903F40043B3F5004F21D17B69B3F5E8
:10254000804F1DD0FB7C202B1AD0FB681B685A687B
:10255000FB681B6842F480425A60FFF7DFF9F861BC
:102560000EE0FFF7DBF90246FB69D31A192B07D9F6
:102570003B6A43F020033B62012387F8273006E0E3
:10258000FB681B689B6903F02003202BE9D1FB68E3
:102590001B689B6903F02003202B03D097F827309A
:1025A000002BAAD097F82730002B03D1FB681B68BB
:1025B0002022DA613B6A43F004033B62012387F87F
:1025C0002730FB681B689B69BB61BB6903F48073A0
:1025D000002B0BD03B6A43F001033B62FB681B6896
:1025E0004FF48072DA61012387F82730BB6903F466
:1025F0008063002B0BD03B6A43F008033B62FB680F
:102600001B684FF48062DA61012387F82730BB69C9
:1026100003F40073002B0BD03B6A43F002033B62D0
:10262000FB681B684FF40072DA61012387F82730DA
:1026300097F82730002B1CD0F868FFF73BFEFB68AB
:102640001B685968FB681A680D4B0B405360FB68A8
:102650005A6C3B6A1A43FB685A64FB68202283F871
:102660004120FB68002283F84220FB68002283F8A7
:10267000402097F8273018462837BD4680BD00BF58
:1026800000E800FE80B487B000AFF8607B600B46C6
:102690007B8113467B727B89C3F309027B7A1B041F
:1026A00003F47F031A437B681A433B6A134323F006
:1026B00000437B61FB681B685A683B6A5B0D03F44F
:1026C0008061084B0B43DB4302EA0301FB681B6894
:1026D0007A690A435A6000BF1C37BD465DF8047B27
:1026E000704700BFFF63FF0380B483B000AF786022
:1026F00039607B6893F84130DBB2202B38D17B689E
:1027000093F84030012B01D1022332E07B68012293
:1027100083F840207B68242283F841207B681B6873
:102720001A687B681B6822F001021A607B681B68CC
:102730001A687B681B6822F480521A607B681B68E9
:1027400019687B681B683A680A431A607B681B68D3
:102750001A687B681B6842F001021A607B682022BD
:1027600083F841207B68002283F84020002300E0AA
:10277000022318460C37BD465DF8047B704780B4D1
:1027800085B000AF786039607B6893F84130DBB288
:10279000202B39D17B6893F84030012B01D10223E3
:1027A00033E07B68012283F840207B68242283F891
:1027B00041207B681B681A687B681B6822F0010255
:1027C0001A607B681B681B68FB60FB6823F47063FE
:1027D000FB603B681B02FA681343FB607B681B6865
:1027E000FA681A607B681B681A687B681B6842F08D
:1027F00001021A607B68202283F841207B68002256
:1028000083F84020002300E0022318461437BD4619
:102810005DF8047B7047000080B582B000AF0023F4
:102820007B60234B1B6C224A43F080531364204B84
:102830001B6C03F080533B603B681E4B1B681D4ABA
:1028400043F480331360FFF769F8786009E0FFF71D
:1028500065F802467B68D31AB3F57A7F01D9032362
:1028600022E0144B5B6803F48033B3F5803FEED174
:10287000104B1B680F4A43F400331360FFF74EF808
:10288000786009E0FFF74AF802467B68D31AB3F58F
:102890007A7F01D9032307E0064B5B6803F400331A
:1028A000B3F5003FEED1002318460837BD4680BD82
:1028B000003802400070004080B586B000AF7860FC
:1028C0000023FB757B68002B01D1012391E27B681B
:1028D0001B6803F00103002B00F08780964B9B6878
:1028E00003F00C03042B0CD0934B9B6803F00C03F8
:1028F000082B12D1904B5B6803F48003B3F5800F73
:102900000BD18D4B1B6803F40033002B6CD07B681C
:102910005B68002B68D101236BE27B685B68B3F5D1
:10292000803F06D1844B1B68834A43F48033136095
:102930002EE07B685B68002B0CD17F4B1B687E4AC6
:1029400023F4803313607C4B1B687B4A23F4802381
:1029500013601DE07B685B68B3F5A02F0CD1764B4C
:102960001B68754A43F480231360734B1B68724ADB
:1029700043F4803313600BE06F4B1B686E4A23F403
:10298000803313606C4B1B686B4A23F48023136005
:102990007B685B68002B13D0FEF7C0FF386108E04E
:1029A000FEF7BCFF02463B69D31A642B01D903230F
:1029B0001FE2614B1B6803F40033002BF0D014E0DE
:1029C000FEF7ACFF386108E0FEF7A8FF02463B695E
:1029D000D31A642B01D903230BE2574B1B6803F472
:1029E0000033002BF0D100E000BF7B681B6803F0D0
:1029F0000203002B69D0504B9B6803F00C03002BA3
:102A00000BD04D4B9B6803F00C03082B1CD14A4B99
:102A10005B6803F48003002B16D1474B1B6803F05F
:102A20000203002B05D07B68DB68012B01D001235A
:102A3000DFE1414B1B6823F0F8027B681B69DB0078
:102A40003D4913430B6040E07B68DB68002B23D0DB
:102A5000394B1B68384A43F001031360FEF75EFFF1
:102A6000386108E0FEF75AFF02463B69D31A022B91
:102A700001D90323BDE1304B1B6803F00203002B97
:102A8000F0D02D4B1B6823F0F8027B681B69DB003C
:102A9000294913430B6018E0274B1B68264A23F093
:102AA00001031360FEF73AFF386108E0FEF736FFD6
:102AB00002463B69D31A022B01D9032399E11E4B2D
:102AC0001B6803F00203002BF0D17B681B6803F046
:102AD0000803002B38D07B685B69002B19D0164B9C
:102AE0005B6F154A43F001035367FEF717FF386128
:102AF00008E0FEF713FF02463B69D31A022B01D907
:102B0000032376E10C4B5B6F03F00203002BF0D044
:102B10001AE0094B5B6F084A23F001035367FEF785
:102B2000FDFE38610AE0FEF7F9FE02463B69D31A62
:102B3000022B03D903235CE100380240914B5B6F09
:102B400003F00203002BEED17B681B6803F0040343
:102B5000002B00F0A4808B4B1B6C03F08053002BE8
:102B60000DD1884B1B6C874A43F080531364854B0F
:102B70001B6C03F08053BB60BB680123FB75824B69
:102B80001B6803F48073002B18D17F4B1B687E4AAF
:102B900043F480731360FEF7C1FE386108E0FEF76E
:102BA000BDFE02463B69D31A642B01D9032320E101
:102BB000754B1B6803F48073002BF0D07B689B6817
:102BC000012B06D16F4B1B6F6E4A43F00103136755
:102BD0002DE07B689B68002B0CD16A4B1B6F694A08
:102BE00023F001031367674B1B6F664A23F004034E
:102BF00013671CE07B689B68052B0CD1614B1B6F36
:102C0000604A43F0040313675E4B1B6F5D4A43F059
:102C1000010313670BE05B4B1B6F5A4A23F0010360
:102C20001367584B1B6F574A23F0040313677B68E5
:102C30009B68002B15D0FEF771FE38610AE0FEF7A5
:102C40006DFE02463B69D31A41F28832934201D9A4
:102C50000323CEE04B4B1B6F03F00203002BEED09F
:102C600014E0FEF75BFE38610AE0FEF757FE02460D
:102C70003B69D31A41F28832934201D90323B8E069
:102C8000404B1B6F03F00203002BEED1FB7D012BA9
:102C900005D13C4B1B6C3B4A23F0805313647B688B
:102CA0009B69002B00F0A480364B9B6803F00C035B
:102CB000082B6BD07B689B69022B49D1314B1B6879
:102CC000304A23F080731360FEF728FE386108E075
:102CD000FEF724FE02463B69D31A022B01D90323D7
:102CE00087E0284B1B6803F00073002BF0D17B6852
:102CF000DA697B681B6A1A437B685B6A9B011A432B
:102D00007B689B6A5B08013B1B041A437B68DB6A98
:102D10001B0613431B4A43F000535360194B1B68B7
:102D2000184A43F080731360FEF7F8FD386108E03D
:102D3000FEF7F4FD02463B69D31A022B01D90323A7
:102D400057E0104B1B6803F00073002BF0D04FE0EE
:102D50000C4B1B680B4A23F080731360FEF7DEFDFB
:102D6000386108E0FEF7DAFD02463B69D31A022B10
:102D700001D903233DE0034B1B6803F00073002BD4
:102D8000F0D135E000380240007000401B4B5B681A
:102D9000FB607B689B69012B28D0FB6803F48002F1
:102DA0007B68DB699A4221D1FB6803F03F027B68B4
:102DB0001B6A9A421AD1FA6847F6C07313407A68C0
:102DC000526A9201934211D1FB6803F440327B684E
:102DD0009B6A5B08013B1B049A4207D1FB6803F026
:102DE00070627B68DB6A1B069A4201D0012300E017
:102DF000002318461837BD4680BD00BF003802408A
:102E000080B584B000AF786039600023FB607B68D8
:102E1000002B01D10123D0E06A4B1B6803F00F03A4
:102E20003A689A4210D9674B1B6823F00F02654934
:102E30003B6813430B60634B1B6803F00F033A6856
:102E40009A4201D00123B8E07B681B6803F00203BB
:102E5000002B20D07B681B6803F00403002B05D0F7
:102E6000594B9B68584A43F4E05393607B681B6856
:102E700003F00803002B05D0534B9B68524A43F4E0
:102E800060439360504B9B6823F0F0027B689B6823
:102E90004D4913438B607B681B6803F00103002BD3
:102EA00040D07B685B68012B07D1474B1B6803F45C
:102EB0000033002B15D101237FE07B685B68022B78
:102EC00007D1414B1B6803F00073002B09D101238C
:102ED00073E03D4B1B6803F00203002B01D101237B
:102EE0006BE0394B9B6823F003027B685B683649D3
:102EF00013438B60FEF712FDF8600AE0FEF70EFD4B
:102F00000246FB68D31A41F28832934201D9032367
:102F100053E02D4B9B6803F00C027B685B689B00C1
:102F20009A42EBD1274B1B6803F00F033A689A4291
:102F300010D2244B1B6823F00F0222493B68134335
:102F40000B60204B1B6803F00F033A689A4201D0D4
:102F5000012332E07B681B6803F00403002B08D0D8
:102F6000194B9B6823F4E0527B68DB6816491343D6
:102F70008B607B681B6803F00803002B09D0124BA1
:102F80009B6823F460427B681B69DB000E49134396
:102F90008B6000F021F802460B4B9B681B0903F085
:102FA0000F030A49CB5C22FA03F3094A1360094B69
:102FB0001B681846FEF76EFC002318461037BD4606
:102FC00080BD00BF003C0240003802403C6E00085B
:102FD00000000020040000202DE9B04F90B000AFA9
:102FE00000237B630023FB6300233B630023BB635D
:102FF000594B9B6803F00C03082B0DD0082B00F2F3
:10300000A180002B02D0042B03D09BE0534BBB6369
:103010009BE0534BBB6398E04F4B5B6803F03F036F
:103020007B634D4B5B6803F48003002B28D04A4B35
:103030005B689B0900223B627A623B6AC3F308002B
:103040000021474B03FB01F2002300FB03F3134471
:10305000434AA0FB0212FA620A46BA62FA6A1344B1
:10306000FB627B6B0022BB61FA61D7E90623D7E9DB
:103070000A01FDF7B9FD02460B461346FB6353E018
:10308000354B5B689B0900223B617A613B69C3F366
:10309000080A4FF0000B52465B464FF000004FF01D
:1030A0000001590141EAD261500102460B46B2EBE0
:1030B0000A0863EB0B094FF000024FF000034FEAE0
:1030C000891343EA98634FEA8812B2EB080463EB72
:1030D00009054FF000024FF00003EB0043EA547380
:1030E000E20014461D4614EB0A033B6045EB0B035C
:1030F0007B604FF000024FF00003D7E900452946FE
:103100008B02214643EA915321468A021046194612
:103110007B6B0022BB60FA60D7E90223FDF764FDF8
:1031200002460B461346FB630B4B5B681B0C03F01C
:10313000030301335B003B63FA6B3B6BB2FBF3F3BE
:10314000BB6302E0054BBB6300BFBB6B1846403757
:10315000BD46BDE8B08F00BF003802400024F40037
:1031600040787D0180B400AF034B1B681846BD4614
:103170005DF8047B704700BF0000002080B500AF01
:10318000FFF7F0FF0246054B9B689B0A03F007031D
:103190000349CB5C22FA03F3184680BD0038024095
:1031A0004C6E000880B500AFFFF7DCFF0246054B10
:1031B0009B685B0B03F007030349CB5C22FA03F324
:1031C000184680BD003802404C6E000880B588B0BB
:1031D00000AF786000237B6100233B610023FB602C
:1031E0000023FB610023BB617B681B6803F00103C4
:1031F000002B12D0694B9B68684A23F4000393604C
:10320000664B9A687B685B6B644913438B607B6891
:103210005B6B002B01D10123FB617B681B6803F40E
:103220000023002B17D05D4BD3F88C3023F44012D1
:103230007B68DB6B59491343C1F88C307B68DB6BCF
:10324000B3F5801F01D10123FB617B68DB6B002B91
:1032500001D10123BB617B681B6803F48013002B41
:1032600017D04E4BD3F88C3023F440027B681B6C94
:103270004A491343C1F88C307B681B6CB3F5800F4F
:1032800001D10123FB617B681B6C002B01D1012361
:10329000BB617B681B6803F08073002B01D00123A6
:1032A000FB617B681B6803F02003002B00F08B8020
:1032B0003A4B1B6C394A43F080531364374B1B6CF9
:1032C00003F08053BB60BB68354B1B68344A43F442
:1032D00080731360FEF722FB786108E0FEF71EFBA7
:1032E00002467B69D31A642B01D9032357E32C4B85
:1032F0001B6803F48073002BF0D0284B1B6F03F482
:1033000040733B613B69002B35D07B681B6B03F43A
:1033100040733A699A422ED0204B1B6F23F44073BE
:103320003B611E4B1B6F1D4A43F4803313671B4BDD
:103330001B6F1A4A23F480331367184A3B691367DB
:10334000164B1B6F03F00103012B14D1FEF7E6FAB5
:1033500078610AE0FEF7E2FA02467B69D31A41F28D
:103360008832934201D9032319E30C4B1B6F03F0FE
:103370000203002BEED07B681B6B03F44073B3F5A4
:10338000407F11D1054B9B6823F4F8127B68196BC1
:10339000044B0B40014913438B600BE000380240A3
:1033A00000700040FFFCFF0FAA4B9B68A94A23F462
:1033B000F8139360A74B1A6F7B681B6BC3F30B0367
:1033C000A44913430B677B681B6803F01003002BB1
:1033D00010D0A04BD3F88C309E4A23F08073C2F8F3
:1033E0008C309C4BD3F88C207B689B6B99491343A2
:1033F000C1F88C307B681B6803F48043002B0AD033
:10340000944BD3F8903023F440327B685B6E914943
:103410001343C1F890307B681B6803F40043002B12
:103420000AD08C4BD3F8903023F440227B689B6EFB
:1034300088491343C1F890307B681B6803F48033DC
:10344000002B0AD0834BD3F8903023F440127B68D2
:10345000DB6E80491343C1F890307B681B6803F42E
:103460000033002B0AD07B4BD3F8903023F440027A
:103470007B681B6F77491343C1F890307B681B68EA
:1034800003F04003002B0AD0724BD3F8903023F0A6
:1034900003027B685B6C6F491343C1F890307B6813
:1034A0001B6803F08003002B0AD06A4BD3F89030DE
:1034B00023F00C027B689B6C66491343C1F8903083
:1034C0007B681B6803F48073002B0AD0614BD3F830
:1034D000903023F030027B68DB6C5E491343C1F807
:1034E00090307B681B6803F40073002B0AD0594BA3
:1034F000D3F8903023F0C0027B681B6D554913430D
:10350000C1F890307B681B6803F48063002B0AD0FD
:10351000504BD3F8903023F440727B685B6D4D497B
:103520001343C1F890307B681B6803F40063002BE1
:103530000AD0484BD3F8903023F440627B689B6DEF
:1035400044491343C1F890307B681B6803F48053EF
:10355000002B0AD03F4BD3F8903023F440527B68C5
:10356000DB6D3C491343C1F890307B681B6803F462
:103570000053002B0AD0374BD3F8903023F440424D
:103580007B681B6E33491343C1F890307B681B681E
:1035900003F48003002B0AD02E4BD3F8903023F095
:1035A00080627B689B6F2B491343C1F890307B6826
:1035B0001B6803F40013002B11D0264BD3F8903076
:1035C00023F000627B68DB6F22491343C1F890301F
:1035D0007B68DB6FB3F1006F01D10123BB617B68B6
:1035E0001B6803F00803002B01D00123BB617B683B
:1035F0001B6803F48023002B0AD0164BD3F89030BD
:1036000023F040727B685B6F12491343C1F890301E
:103610007B681B6803F40003002B0BD00D4BD3F821
:10362000903023F080527B68D3F8803009491343EF
:10363000C1F89030FB69012B06D07B681B6803F052
:103640000073002B00F0D980024B1B68014A23F065
:10365000806301E0003802401360FEF75FF9786193
:1036600008E0FEF75BF902467B69D31A642B01D9A7
:10367000032394E16C4B1B6803F00063002BF0D133
:103680007B681B6803F00103002B21D07B685B6B18
:10369000002B1DD1644BD3F884301B0C03F00303C3
:1036A0003B61614BD3F884301B0E03F00F03FB60CA
:1036B0007B685B689A013B691B041A43FB681B0625
:1036C0001A437B689B681B0757491343C1F8843032
:1036D0007B681B6803F40023002B04D07B68DB6B42
:1036E000B3F5801F0AD07B681B6803F48013002B9E
:1036F0002ED07B681B6CB3F5800F29D14A4BD3F8D1
:1037000084301B0C03F003033B61474BD3F8843038
:103710001B0F03F00703FB607B685B689A013B6942
:103720001B041A437B68DB681B061A43FB681B07F4
:103730003D491343C1F884303B4BD3F88C3023F020
:103740001F027B685B6A013B37491343C1F88C3029
:103750007B681B6803F08073002B1DD0324BD3F8BD
:1037600084301B0E03F00F033B612F4BD3F88430E2
:103770001B0F03F00703FB607B685B689A017B68A3
:103780001B691B041A433B691B061A43FB681B0792
:1037900025491343C1F884307B681B6803F000732C
:1037A000002B11D07B685B689A017B681B691B0446
:1037B0001A437B68DB681B061A437B689B681B0700
:1037C00019491343C1F88430174B1B68164A43F05C
:1037D00080631360FEF7A2F8786108E0FEF79EF8B8
:1037E00002467B69D31A642B01D90323D7E00E4B21
:1037F0001B6803F00063002BF0D0BB69012B40F085
:10380000CD80094B1B68084A23F080531360FEF7F4
:1038100085F878610AE0FEF781F802467B69D31AE1
:10382000642B03D90323BAE0003802405E4B1B68C7
:1038300003F00053B3F1005FEDD07B681B6803F425
:103840000023002B03D07B68DB6B002B09D07B6847
:103850001B6803F48013002B2ED07B681B6C002B9D
:103860002AD1514BD3F888301B0C03F003033B6182
:103870004D4BD3F888301B0F03F00703FB607B68C8
:103880005B699A013B691B041A437B689B691B06B1
:103890001A43FB681B0744491343C1F88830424B65
:1038A000D3F88C3023F4F8527B689B6A013B1B02EF
:1038B0003D491343C1F88C307B681B6803F4001347
:1038C000002B22D07B68DB6FB3F1006F1DD1364B2C
:1038D000D3F888301B0E03F00F033B61324BD3F853
:1038E00088301B0F03F00703FB607B685B699A015C
:1038F0007B681B6A1B041A433B691B061A43FB685F
:103900001B0729491343C1F888307B681B6803F003
:103910000803002B28D0244BD3F888301B0E03F06B
:103920000F033B61204BD3F888301B0C03F00303DB
:10393000FB607B685B699A01FB681B041A433B6967
:103940001B061A437B68DB691B0717491343C1F841
:103950008830154BD3F88C3023F440327B68DB6A17
:1039600011491343C1F88C300F4B1B680E4A43F0CA
:1039700080531360FDF7D2FF786108E0FDF7CEFFBA
:1039800002467B69D31A642B01D9032307E0064B57
:103990001B6803F00053B3F1005FEFD1002318461A
:1039A0002037BD4680BD00BF0038024080B582B0E0
:1039B00000AF78607B68002B01D1012340E07B6879
:1039C000DB6F002B06D17B68002283F878207868B3
:1039D000FDF7A0FD7B682422DA677B681B681A6804
:1039E0007B681B6822F001021A607B685B6A002B0F
:1039F00002D0786800F016FB786800F0AFF8034654
:103A0000012B01D101231BE07B681B685A687B688E
:103A10001B6822F490425A607B681B689A687B6836
:103A20001B6822F02A029A607B681B681A687B6810
:103A30001B6842F001021A60786800F095FB0346AB
:103A400018460837BD4680BD80B58AB002AFF86021
:103A5000B9603B601346FB80FB68DB6F202B77D19E
:103A6000BB68002B02D0FB88002B01D1012370E042
:103A7000FB680022C3F88420FB682122DA67FDF787
:103A80004DFF7861FB68FA88A3F85020FB68FA883C
:103A9000A3F85220FB689B68B3F5805F08D1FB68F0
:103AA0001B69002B04D10023FB61BB68BB6103E0F1
:103AB000BB68FB610023BB612FE03B6800937B691F
:103AC00000228021F86800F0A6FB0346002B04D0FA
:103AD000FB682022DA6703233BE0FB69002B0BD154
:103AE000BB691B881A46FB681B68C2F308029A620E
:103AF000BB690233BB6107E0FB691A78FB681B688E
:103B00009A62FB690133FB61FB68B3F852309BB2E8
:103B1000013B9AB2FB68A3F85220FB68B3F852301D
:103B20009BB2002BC9D13B6800937B6900224021E6
:103B3000F86800F070FB0346002B04D0FB682022DD
:103B4000DA67032305E0FB682022DA67002300E040
:103B5000022318462037BD4680BD000080B588B0DE
:103B600000AF78600023BB777B689A687B681B692D
:103B70001A437B685B691A437B68DB6913437B618B
:103B80007B681B681A68A64B13407A6812687969CB
:103B90000B4313607B681B685B6823F440517B68B0
:103BA000DA687B681B680A435A607B689B697B61A3
:103BB0007B681B6A7A6913437B617B681B689B681F
:103BC00023F430617B681B687A690A439A607B68DA
:103BD0001B68944A934220D1934BD3F8903003F062
:103BE0000303032B16D801A252F823F0FD3B000873
:103BF000093C0008033C00080F3C00080123FB7748
:103C000050E10223FB774DE10423FB774AE10823CF
:103C1000FB7747E11023FB7744E17B681B68834A0D
:103C2000934232D1804BD3F8903003F00C030C2B2D
:103C300028D801A252F823F06D3C0008853C00080A
:103C4000853C0008853C0008793C0008853C00085C
:103C5000853C0008853C0008733C0008853C000852
:103C6000853C0008853C00087F3C00080023FB776A
:103C700018E10223FB7715E10423FB7712E1082307
:103C8000FB770FE11023FB770CE17B681B68684A28
:103C9000934220D1644BD3F8903003F03003302BA3
:103CA00013D0302B14D8202B09D0202B10D8002B68
:103CB00002D0102B06D00BE00023FB77F2E00223AA
:103CC000FB77EFE00423FB77ECE00823FB77E9E0E8
:103CD0001023FB77E6E07B681B68564A934220D1AD
:103CE000514BD3F8903003F0C003C02B13D0C02B3E
:103CF00014D8802B09D0802B10D8002B02D0402B59
:103D000006D00BE00023FB77CCE00223FB77C9E071
:103D10000423FB77C6E00823FB77C3E01023FB777F
:103D2000C0E07B681B68444A934225D13E4BD3F8E0
:103D3000903003F44073B3F5407F17D0B3F5407F64
:103D400017D8B3F5007F0BD0B3F5007F11D8002B47
:103D500003D0B3F5807F06D00BE00023FB77A1E012
:103D60000223FB779EE00423FB779BE00823FB778D
:103D700098E01023FB7795E07B681B682F4A9342FD
:103D800025D1294BD3F8903003F44063B3F5406F4D
:103D900017D0B3F5406F17D8B3F5006F0BD0B3F55C
:103DA000006F11D8002B03D0B3F5806F06D00BE065
:103DB0000123FB7776E00223FB7773E00423FB7794
:103DC00070E00823FB776DE01023FB776AE07B68E7
:103DD0001B681B4A934238D1134BD3F8903003F43D
:103DE0004053B3F5405F17D0B3F5405F2AD8B3F521
:103DF000005F0BD0B3F5005F24D8002B03D0B3F5E0
:103E0000805F06D01EE00023FB774BE00223FB77A8
:103E100048E00423FB7745E00823FB7742E000BF3E
:103E2000F369FFEF001001400038024000440040F9
:103E300000480040004C0040005000400014014089
:103E4000007800401023FB772CE07B681B68724AE7
:103E5000934225D1714BD3F8903003F44043B3F52E
:103E6000404F17D0B3F5404F17D8B3F5004F0BD0E4
:103E7000B3F5004F11D8002B03D0B3F5804F06D017
:103E80000BE00023FB770DE00223FB770AE004231D
:103E9000FB7707E00823FB7704E01023FB7701E0C2
:103EA0001023FB777B68DB69B3F5004F5BD1FB7FA9
:103EB000082B28D801A252F823F000BFE13E0008E9
:103EC000E93E0008F13E0008073F0008F73E000801
:103ED000073F0008073F0008073F0008FF3E0008B3
:103EE000FFF74CF9B86113E0FFF75CF9B8610FE038
:103EF0004B4BBB610CE0FFF76FF8B86108E04FF483
:103F00000043BB6104E00023BB610123BB7700BF1A
:103F1000BB69002B74D0BB695A007B685B685B0887
:103F20001A447B685B68B2FBF3F33B613B690F2B80
:103F300016D93B69B3F5803F12D23B699BB223F09F
:103F40000F03FB813B695B089BB203F007039AB246
:103F5000FB891343FB817B681B68FA89DA604FE0B9
:103F60000123BB774CE0FB7F082B28D801A252F835
:103F700023F000BF993F0008A13F0008A93F0008B7
:103F8000BF3F0008AF3F0008BF3F0008BF3F000829
:103F9000BF3F0008B73F0008FFF7F0F8B86113E033
:103FA000FFF700F9B8610FE01D4BBB610CE0FFF7B4
:103FB00013F8B86108E04FF40043BB6104E000234C
:103FC000BB610123BB7700BFBB69002B18D07B68A6
:103FD0005B685A08BB691A447B685B68B2FBF3F301
:103FE0003B613B690F2B09D93B69B3F5803F05D293
:103FF0003B699AB27B681B68DA6001E00123BB77FA
:104000007B6800229A667B680022DA66BB7F1846CE
:104010002037BD4680BD00BF007C00400038024014
:104020000024F40080B483B000AF78607B685B6AE2
:1040300003F00803002B0AD07B681B685B6823F43D
:1040400000417B685A6B7B681B680A435A607B6837
:104050005B6A03F00103002B0AD07B681B685B6876
:1040600023F400317B689A6A7B681B680A435A60B4
:104070007B685B6A03F00203002B0AD07B681B6835
:104080005B6823F480317B68DA6A7B681B680A43CB
:104090005A607B685B6A03F00403002B0AD07B68DC
:1040A0001B685B6823F480217B681A6B7B681B6844
:1040B0000A435A607B685B6A03F01003002B0AD046
:1040C0007B681B689B6823F480517B689A6B7B68D4
:1040D0001B680A439A607B685B6A03F02003002B2D
:1040E0000AD07B681B689B6823F400517B68DA6BFD
:1040F0007B681B680A439A607B685B6A03F0400335
:10410000002B1AD07B681B685B6823F480117B68E6
:104110001A6C7B681B680A435A607B681B6CB3F59A
:10412000801F0AD17B681B685B6823F4C0017B6831
:104130005A6C7B681B680A435A607B685B6A03F0B1
:104140008003002B0AD07B681B685B6823F4002186
:104150007B689A6C7B681B680A435A6000BF0C3707
:10416000BD465DF8047B704780B58CB002AF7860C7
:104170007B680022C3F88420FDF7D0FB78627B685F
:104180001B681B6803F00803082B2ED16FF07E43D9
:1041900000937B6A00224FF40011786800F03BF82E
:1041A0000346002B21D07B681B683B613B6953E8C9
:1041B000003FFB60FB6823F080033B627B681B6869
:1041C0001A463B6AFB61BA61B969FA6941E80023A2
:1041D0007B617B69002BE6D17B682022DA677B68F4
:1041E000002283F87820032311E07B682022DA671D
:1041F0007B682022C3F880207B6800221A667B68D7
:1042000000225A667B68002283F878200023184633
:104210002837BD4680BD80B584B000AFF860B96076
:104220003B601346FB714FE0BB69B3F1FF3F4BD0DE
:10423000FDF774FB02463B68D31ABA699A4202D36F
:10424000BB69002B01D103234EE0FB681B681B6890
:1042500003F00403002B37D0BB68802B34D0BB683D
:10426000402B31D0FB681B68DB6903F00803082B87
:1042700010D1FB681B6808221A62F86800F038F851
:10428000FB680822C3F88420FB68002283F87820AA
:10429000012329E0FB681B68DB6903F40063B3F5C5
:1042A000006F11D1FB681B684FF400621A62F86856
:1042B00000F01EF8FB682022C3F88420FB6800226F
:1042C00083F8782003230FE0FB681B68DA69BB687A
:1042D0001340BA689A420CBF01230023DBB21A468E
:1042E000FB799A42A0D0002318461037BD4680BD06
:1042F00080B495B000AF78607B681B687B637B6B94
:1043000053E8003F3B633B6B23F49073FB647B6893
:104310001B681A46FB6C3B64FA63F96B3A6C41E824
:104320000023BB63BB6B002BE6D17B681B680833A3
:104330003B623B6A53E8003FFB61FB6923F00103EA
:10434000BB647B681B680833BA6CFA62BB62B96AEB
:10435000FA6A41E800237B627B6A002BE5D17B6827
:104360001B6E012B18D17B681B68FB60FB6853E850
:10437000003FBB60BB6823F010037B647B681B6855
:104380001A467B6CBB617A617969BA6941E800239E
:104390003B613B69002BE6D17B682022C3F880207B
:1043A0007B6800221A667B6800229A6600BF543739
:1043B000BD465DF8047B70472DE9FF4757EC106B55
:1043C000002F0C4619463B46BBBF07F100431F4672
:1043D00000232D230B700D9BDDF830A0914623F0B8
:1043E0002008BCBF32461646B8F1460F05D0B8F1DA
:1043F000450F00D10134022100E0032103AB0193FA
:1044000002AB009347EC106B5346224600F03CFF92
:10441000B8F1470F054619D119F0010F0ED000EB86
:1044200004090022002330463946FCF76DFB08B131
:10443000CDF80C903022039B4B451ED3039B0E9A64
:104440005B1B2846136004B0BDE8F087B8F1460F47
:1044500000EB0409E5D10378302B0AD100220023B8
:1044600030463946FCF750FB18B9C4F10104CAF8CC
:104470000040DAF800309944D3E7591C03911A70D0
:10448000D9E7F7B50029BABF49422D232B230929C3
:104490000270437029DD0DF107031D460A271A46F5
:1044A000B1FBF7F607FB1614303402F8014C0C464A
:1044B000632C03F1FF333146F1DC3031941E03F8F5
:1044C000011C411C2346AB420AD30DF109039B1A80
:1044D000AC4288BF002302330344181A03B0F0BD76
:1044E00013F8016B01F8016FEDE730233031837071
:1044F000C170031DF1E700002DE9F04F8DB00C46AF
:10450000DDF8588016461F46054600F0BDFD0368DD
:1045100004931846FBF7CCFE00230A93D8F800302A
:104520000590073323F0070303F1080294F818A05D
:10453000D4F800B0C8F80020D3E9008929F000437E
:104540000793CDF81880C4E91289DDE906019C4B78
:104550004FF0FF32FCF70AFB70BBDDE90601984B18
:104560004FF0FF32FCF7E4FA30BB00220023404654
:104570004946FCF7D3FA10B12D2384F84330914A11
:10458000914BBAF1470F8CBF9046984603232361A5
:104590002BF0040323604FF00009009733460BAA69
:1045A0002146284600F0D2F9013040F08D804FF0CE
:1045B000FF300DB0BDE8F08F42464B4640464946BD
:1045C000FCF7D4FA40B14B46002BBCBF2D2384F836
:1045D00043307E4A7E4BD4E763680AF0DF020692DE
:1045E0005A1C3BD1062363604BF480620023226097
:1045F00003930AABCDE901A309AB0093616849ECD1
:10460000108B0DF123032846FFF7D6FE069B099970
:10461000472B804629D1C81C02DB6368994241DDE3
:10462000AAF1020A5FFA8AFA0139524604F15000EF
:104630000991FFF726FF0A9A1318012A8146236180
:1046400002DC2268D20701D5013323619DF82330B3
:10465000002BA2D02D2384F843309EE7069A472AE8
:10466000C2D1002BC0D10123BDE7BAF1650FDBD960
:10467000BAF1660F18D1002963680BDD216113B907
:104680002268D00702D501330B442361A1654FF0A6
:104690000009DBE713B92268D20701D50233F4E73A
:1046A0000123F2E74FF0670A0A9B994205DB236872
:1046B0002161D807EAD54B1CE7E70029D4BFC1F137
:1046C000020201221344E0E723685A0507D4236954
:1046D000424631462846B84701302BD167E7BAF148
:1046E000650F40F2DD80D4E9120100220023FCF7BF
:1046F0000BFA002833D0374A012331462846B84701
:1047000001303FF454AFDDE90938434502DB23684B
:10471000D8070FD5DDE9042331462846B8470130D4
:104720003FF445AF4FF0000908F1FF3804F11A0AD1
:10473000C84509DC23689B0700F10381E0680B9BF7
:104740009842B8BF184634E70123524631462846FE
:10475000B84701303FF42BAF09F10109E8E7099BA5
:10476000002B39DC1B4A012331462846B84701306B
:104770003FF41DAFDDE9093959EA030302D123688B
:10478000D907D7D5DDE9042331462846B84701309B
:104790003FF40DAF4FF0000A04F11A0B099B5B4286
:1047A000534501DC4B4693E701235A4631462846E0
:1047B000B84701303FF4FBAE0AF1010AEEE700BF53
:1047C000FFFFEF7F586E0008546E0008606E00080F
:1047D0005C6E0008646E0008A36DDDF828A05345E8
:1047E000A8BF5346002B994636DC4FF0000B29EA50
:1047F000E97904F11A02A36D0693A3EB09035B4563
:1048000031DC099B9A453ADC2368DA0737D4099BE7
:10481000AAEB0309069BAAEB03039945A8BF994697
:10482000B9F1000F33DC4FF0000829EAE97904F10F
:104830001A0B099BAAEB0303A3EB090343457FF77C
:1048400079AF01235A4631462846B84701303FF434
:10485000AEAE08F10108ECE7424631462846B847BB
:104860000130C2D1A3E60123314628460692B8475B
:1048700001303FF49CAE069A0BF1010BBBE7DDE97A
:10488000042331462846B8470130C0D18FE6069A46
:104890004B46424431462846B8470130C3D186E6EC
:1048A000DDF828A0BAF1010F01DCDB0736D50123C2
:1048B000424631462846B84701303FF478AEDDE93C
:1048C000042331462846B84701303FF470AED4E99E
:1048D0001201002200230AF1FF3AFCF715F9C0B9D2
:1048E000534608F1010231462846B84701300CD141
:1048F0005DE601235A4631462846B84701303FF469
:1049000056AE08F10108D045F3DB4B4604F15002E6
:10491000DFE64FF0000804F11A0BF4E701234246EA
:10492000E1E701234A4631462846B84701303FF4C3
:104930003EAE08F10108E3680B995B1A4345F0DCD1
:10494000FCE64FF0000804F11909F4E72DE9F047FF
:10495000164698468A680B69DDF820909342B8BFE6
:104960001346336091F8432007460C460AB10133E1
:1049700033602368990642BF336802333360256889
:1049800015F0060506D104F1190AE36832689B1A8E
:10499000AB4226DC94F843302268003B18BF012369
:1049A00092062BD404F1430241463846C8470130F1
:1049B0001ED02368226903F00603042B02BFE568BA
:1049C0003368ED1AA3680CBF25EAE575002593420C
:1049D000C4BF9B1AED1800261A34B5421AD1002024
:1049E00008E00123524641463846C847013003D10A
:1049F0004FF0FF30BDE8F0870135C6E7E1185A1CDB
:104A0000302081F84300224494F8451082F8431086
:104A10000233C7E70123224641463846C8470130E2
:104A2000E6D00136D9E700002DE9FF470F7E0C9E46
:104A3000782F914680460C469A4601F1430207D8EA
:104A4000622F0AD8002F00F0D180582F00F0B880D4
:104A500004F1420684F842703AE0A7F16303152B93
:104A6000F6D801A151F823F0C14A0008D54A000840
:104A7000514A0008514A0008514A0008514A0008AA
:104A8000D54A0008514A0008514A0008514A000816
:104A9000514A0008D34B0008FF4A00088D4B00081C
:104AA000514A0008514A0008F54B0008514A0008D5
:104AB000FF4A0008514A0008514A0008954B000877
:104AC00033681A1D1B68326004F1420684F84230D4
:104AD00001239CE033682068191D3160060601D56A
:104AE0001D6803E04506FBD5B3F90050002D03DA3D
:104AF0002D236D4284F8433058480A2311E0216881
:104B00003368080653F8045B02D4490648BFADB2C7
:104B10006F2F5248336014BF0A230823002184F802
:104B200043106668A660002E05DB21682E4321F045
:104B3000040121604BD01646B5FBF3F103FB11577E
:104B4000C75D06F8017D2F46BB420D46F4D9082B00
:104B50000BD12368DF0708D5236961689942DEBF5E
:104B6000302306F8013C06F1FF36921B2261CDF896
:104B700000A04B4603AA21464046FFF7E7FE01305E
:104B80004AD14FF0FF3004B0BDE8F087236843F00E
:104B9000200323603248782784F845702368316801
:104BA0001F0651F8045B02D45F0648BFADB2316006
:104BB000D90744BF43F0200323601DB11023ADE7A4
:104BC0002648E9E7236823F020032360F6E716462A
:104BD000BDE7336825686169181D30602E061B68C3
:104BE00001D5196002E06806FBD519800023236116
:104BF0001646BCE733681A1D32601E6862680021E1
:104C00003046FBF705FB08B1801B606063682361D9
:104C1000002384F84330AAE72369324649464046D8
:104C2000D0470130ADD023689B0713D4E068039BC5
:104C30009842B8BF1846A6E7012332464946404687
:104C4000D04701309DD00135E36803995B1AAB4230
:104C5000F2DCEBE7002504F11906F5E7666E0008C3
:104C6000776E0008002310B50446C0E90033C0E9A0
:104C70000433836081814366C281836119460822BF
:104C80005C3000F0F9F90D4B63620D4BA3620D4BE4
:104C9000E3620D4B23630D4B24629C4206D003F16B
:104CA0006802944202D0D0339C4205D104F15800EE
:104CB000BDE8104000F05CBA10BD00BFC94E00084E
:104CC000EB4E0008234F0008474F0008D402002095
:104CD000024A0349034800F069B800BF0C000020F5
:104CE000A96A00081C00002041680C4B994210B5CD
:104CF000044601D001F0D8FEA168094B994202D0C8
:104D0000204601F0D1FEE168064B994204D02046CE
:104D1000BDE8104001F0C8BE10BD00BFD4020020A5
:104D20003C030020A403002010B50B4B0B4C0C4A95
:104D30001A60204600220421FFF794FF04F1680066
:104D400001220921FFF78EFF04F1D0000222BDE805
:104D500010401221FFF786BF0C040020D40200206F
:104D6000D14C0008014800F004BA00BF150400202F
:104D7000014800F0FFB900BF1504002010B504463B
:104D8000FFF7F0FF236A1BB1BDE81040FFF7F0BF4B
:104D9000044B2362044B1B68002BF5D1FFF7C4FFC3
:104DA000F2E700BFE94C00080C0400202DE9F843AD
:104DB0000746884614460026D4E90195B9F1010951
:104DC00005D52468002CF7D13046BDE8F883AB89BF
:104DD000012B07D9B5F90E30013303D029463846E7
:104DE000C04706436835E9E70FB407B5064904AB89
:104DF000086853F8042B8168019301F0B9FC03B0F3
:104E00005DF804EB04B0704718000020036A70B529
:104E1000846805460E460BB9FFF7B0FF636EDB07EB
:104E200005D4A389980502D4A06D00F0A2F9A38946
:104E3000190702D52369002B35D12146284600F0F9
:104E4000C5F880B34FF0FF35636EDA0705D4A38948
:104E50009B0502D4A06D00F08DF9284670BD002B93
:104E600004DAA2699A4217DC0A2915D023685A1C71
:104E700022601970A36816F8011F013BA360002986
:104E8000EDD1002B11DA22460A21284600F05FF806
:104E90000130D7D00A25D7E72246284600F057F838
:104EA0000130E7D1CEE7013EE4E723685A1C2260D7
:104EB0000A221A70EEE70000024B01461868FFF75D
:104EC000A5BF00BF1800002010B50C46B1F90E10A8
:104ED00000F000F90028ABBF636DA3891B1823F411
:104EE0008053ACBF6365A38110BD2DE9F0411F461F
:104EF0008B89DB0505460C46164605D5B1F90E1023
:104F00000223002200F0D4F8A389B4F90E1023F490
:104F10008053A38132463B462846BDE8F04100F06D
:104F2000EBB810B50C46B1F90E1000F0C1F8431CF7
:104F3000A38915BF606523F4805343F48053A38194
:104F400018BFA38110BDB1F90E1000F0A1B8F8B5DB
:104F50000E461446054618B1036A0BB9FFF70EFF5B
:104F6000A369A360A3891A0701D5236943B9214620
:104F7000284600F02BF818B14FF0FF373846F8BD3F
:104F800023682269981A6369F6B28342374605DCC2
:104F90002146284601F088FD0028EDD1A368013B99
:104FA000A36023685A1C22601E706269431C9A42E7
:104FB00004D0A389DB07E1D50A2EDFD1214628469C
:104FC00001F072FD0028D9D0D6E7000038B5294B92
:104FD000054618680C4618B1036A0BB9FFF7CEFEF8
:104FE000B4F90C30190722D4DA0607D409222A6052
:104FF00043F04003A3814FF0FF3033E0580712D550
:10500000616B41B104F14403994202D0284600F09B
:105010000BFF00236363A38923F02403A3810023F0
:10502000636023692360A38943F00803A381236994
:105030004BB9A38903F42073B3F5007F03D0214655
:10504000284601F07FFDB4F90C3013F001020AD0BC
:105050000022A26062695242A261226942B913F041
:105060008000C5D138BD990758BF6269A260F4E7D6
:105070000020F7E71800002002440346934200D1C5
:10508000704703F8011BF9E70048704758010020FA
:1050900038B5064D0023044608462B60FCF747FB55
:1050A000431C02D12B6803B1236038BD10040020DB
:1050B00038B5074D04460846114600222A601A46B4
:1050C000FCF75CFB431C02D12B6803B1236038BDA5
:1050D0001004002038B5074D04460846114600224A
:1050E0002A601A46FCF7EAFA431C02D12B6803B186
:1050F000236038BD1004002038B5074D044608462B
:10510000114600222A601A46FCF7F5FA431C02D128
:105110002B6803B1236038BD10040020014B1868D0
:10512000704700BF1800002070B50D4D0D4C641B7A
:10513000A4100026A64209D10B4D0C4C01F02EFE06
:10514000641BA4100026A64205D170BD55F8043B8F
:1051500098470136EEE755F8043B98470136F2E7E9
:10516000D4710008D4710008D4710008D871000807
:105170007047704770472DE9F74F03690C69A342E8
:1051800007467EDB013C01F11408A30000F1140581
:10519000009305EB8403019358F8243055F824203C
:1051A00001339A4208EB8409B2FBF3F62ED34FF099
:1051B000000AC446AE46D3465CF8043B98B206FBF0
:1051C00000A0020C1B0C06FB0323DEF8002080B2BB
:1051D00092B2121A5A44DEF800004FEA134A9BB208
:1051E000C3EB224303EB104392B242EA0342E14590
:1051F0004EF8042B4FEA234BDED2009BEB582BB921
:10520000019B043B9D421A462FD33C61384601F076
:105210007DF9002825DB2946002058F8042BD1F819
:1052200000C01FFA82FE1FFA8CF3A3EB0E030344A7
:10523000120CC2EB234202EB1C429BB243EA024334
:10524000C14541F8043B4FEA2240E6D255F82420FC
:1052500005EB840322B9043B9D421A460BD33C6103
:105260000136304603B0BDE8F08F1268043B002AD7
:10527000CBD1013CC6E71268043B002AEFD1013CC8
:10528000EAE70020EEE700002DE9F04FC76997B08C
:105290008DED040B55EC104B209E079181460C922E
:1052A00011937FB9102000F009FE0246C9F81C00D6
:1052B00020B9A94BEF21A94801F0C0FCC0E9017752
:1052C0000760C760D9F81C30196859B15A684A603C
:1052D000012393408B60484600F0E6FED9F81C306D
:1052E00000221A602B1EB9BF23F000430593002350
:1052F0003360059F9A4BBCBF01223260BB4312D181
:10530000119A42F20F731360C7F31303234300F0A3
:105310005A85219BDFF85CA2002B00F05C850AF126
:10532000030300F056BD9DED047B002251EC170BEA
:1053300000238DED0A7BFBF7E7FB804658B1119AFD
:1053400001231360219B13B1219A864B1360DFF870
:1053500028A200F040BD9DED0A0B14AA15A94846ED
:1053600001F084F9C7F30A560290002E78D00B9B07
:10537000CDF84880C3F31303DDE90A0143F07F53FE
:1053800043F44013A6F2FF3619460022764BFAF793
:105390009BFF6BA3D3E90023FBF74EF96AA3D3E984
:1053A0000023FAF793FF044630460D46FBF7DAF880
:1053B00067A3D3E90023FBF73FF902460B462046DB
:1053C0002946FAF783FF04460D46FBF7E5FB00226A
:1053D0000746002320462946FBF7A0FB40B138468C
:1053E000FBF7C0F822462B46FBF78EFB00B9013FC6
:1053F000162F52D85D4B03EBC703D3E90023DDE939
:105400000A01FBF78BFB002849D0013F00231093D2
:10541000149B9B1B5A1E45BFC3F10103009300233D
:105420000023069254BF00930693002F39DB069B9E
:105430000D973B44069300230893079B092B63D8E1
:10544000052BC4BF043B0793079BA3F10203CCBF0A
:1054500000240124032B63D8DFE803F05254372BD8
:10546000DDE914631E4406F23243202BC1BFC3F1B1
:1054700040039F4006F2124324FA03F3D6BFC3F160
:10548000200347EA030004FA03F0FBF75BF801226C
:10549000A1F1F873013E129276E70123B7E710906D
:1054A000B6E7009BDB1B00937B42089300230D9320
:1054B000C3E7012309930C9B07EB030B0BF10103DB
:1054C000012B0393B8BF012306E0012309930C9B32
:1054D000002B28DD9B460393D9F81C0000210422F1
:1054E00002F114059D4226D94160484600F09CFD1A
:1054F0008246002842D11E4B024640F2AF11DAE646
:105500000023E3E70023D5E7012400230793099450
:105510004FF0FF3B0022CDF80CB012230C92DBE7DA
:1055200001230993F4E74FF0010BCDF80CB05B4673
:10553000CDF830B0D0E701315200D1E7AFF30080B1
:1055400061436F63A787D23FB3C8608B288AC63F89
:10555000FB799F501344D33F956E0008AC6E000852
:105560000000F07F656E00080000F83F0070000842
:10557000046F0008916E0008646E0008D9F81C30B2
:105580001860039B0E2B00F2A180002C00F09E807F
:10559000002F33DD9C4B07F00F0203EBC20393EDAA
:1055A000007BF8058DED0E7B4FEA271416D5974B3F
:1055B000DDE90A01D3E90823FBF768F9CDE9040125
:1055C00004F00F040326914D54B9DDE90E23DDE903
:1055D0000401FBF75BF9CDE9040128E00226F2E7BC
:1055E000E10708D5DDE90E01D5E90023FBF724F832
:1055F000CDE90E01013664100835E5E700F0AF8013
:105600007C42814B814D04F00F0203EBC203D3E9CE
:105610000023DDE90A01FBF70FF8CDE904012411AD
:1056200000230226002C40F08F80002BD3D1109B4A
:10563000DDE90445002B00F09480754B00222046E4
:105640002946FBF76BFA002800F08B80039B002BA8
:1056500000F08780BBF1000F34DD20466D4B002247
:105660002946FAF7E9FFCDE9040107F1FF380136D1
:105670005C463046FAF776FFDDE90423FAF7DCFFF3
:10568000654B0022FAF722FE0546A1F15076002C68
:105690006AD1DDE90401614B0022FAF715FE0246EA
:1056A0000B46CDE904232A463346FBF755FA00287A
:1056B00040F09882DDE904012A4606F10043FBF739
:1056C0002DFA38BBDDE90A34CDE90434159B002BF3
:1056D000C0F257810E2F00F354814B4B03EBC703ED
:1056E00093ED007B0C9B002B8DED007B80F2E58021
:1056F000039B002B00F3E1800CD1484B002251ECBE
:10570000170BFAF799FFDDE90423FBF71BFA0028D2
:1057100000F06682002425460C9B56466FEA03087B
:1057200000272146484600F0BFFC002D00F0BD8058
:105730002FB1AF4203D03946484600F0B5FC2946A8
:10574000484600F0B1FCB0E0E20705D5D5E90023FA
:10575000FAF772FF013601236410083562E702266A
:1057600065E7039CB84684E7274B099903EBC4031C
:1057700053E902235444002954D029490020FBF75F
:1057800085F833462A46FAF79FFDCDE90E015646C5
:10579000DDE90401FBF700FA0546FAF7E3FE0246ED
:1057A0000B46DDE90401FAF78FFD303502460B4662
:1057B000CDE9042306F8015BDDE90E23FBF7AEF922
:1057C000002872D1DDE9042311490020FAF77CFD9D
:1057D000DDE90E23FBF7A2F9002840F0B480A642D1
:1057E0003FF470AFDDE90E010A4B0022FAF724FF07
:1057F000084BCDE90E010022DDE90401FAF71CFF98
:10580000CDE90401C4E700BF00700008D86F0008AC
:105810000000F03F0000244000001C400000144045
:105820000000E03F31462846FAF706FFCDE90E01B9
:1058300013945646DDE90401FBF7AEF90546FAF785
:1058400091FE02460B46DDE90401FAF73DFD3035D5
:1058500006F8015B02460B46A642CDE904234FF051
:10586000000224D1AF4BDDE90E01FAF72FFD02460D
:105870000B46DDE90401FBF76FF9002863D1DDE990
:105880000E23A8490020FAF71FFD02460B46DDE96A
:105890000401FBF743F900283FF414AF139E731E75
:1058A000139316F8013C302BF8D047463BE09E4B53
:1058B000FAF7C2FECDE90401BCE7DDE9044556462E
:1058C000DDE9002320462946FAF7E0FFFBF764F9FB
:1058D0008046FAF747FEDDE90023FAF7ADFE0246FF
:1058E0000B462046294608F13004FAF7EDFC06F88D
:1058F000014B039DA6EB0A04A54202460B4633D199
:10590000FAF7E4FCDDE9002304460D46FBF724F931
:10591000C0B9DDE9002320462946FBF7F5F810B1B0
:1059200018F0010F0ED10299484600F0BDFB00238C
:105930003370119B01371F60219B002B00F04B82BD
:105940001E6048E2B84633461E4613F8012D392A38
:1059500006D19A45F8D1302208F101088AF80020D2
:105960001A7801321A70A0E76F4B0022FAF764FE32
:105970000022002304460D46FBF7C6F800289FD0FE
:10598000D1E7099A002A00F0EA80079A012A00F379
:10599000CD80129A002A00F0C18003F23343089CA4
:1059A000009E009A1A440092069A01211A44484621
:1059B000069200F02DFC054666B1069B002B09DD22
:1059C000B342009AA8BF3346D21A0092069AF61A3A
:1059D000D31A0693089B0BB3099B002B00F0C680DB
:1059E000002C00F0C08029462246484600F0C8FC42
:1059F000029A01460546484600F020FC029980467E
:105A0000484600F051FB089B1B1B089300F0B18037
:105A1000089A4146484600F0B3FC029001214846EE
:105A200000F0F6FB0D9B0446002B00F0D8811A46CF
:105A30000146484600F0A4FC079B012B044600F3F6
:105A40009F80049B002B40F09780059BC3F31303BA
:105A5000002B40F09380059B23F000431B0D1B059A
:105A600033B1009B01330093069B0133069301235E
:105A700008930D9B002B00F0B881236904EB83038E
:105A8000186900F079FBC0F12000069B184410F063
:105A90001F0000F08280C0F12003042B73DD009B07
:105AA000C0F11C0003440093069B03440644069384
:105AB000009B002B05DD02991A46484600F0BAFC0F
:105AC0000290069B002B05DD21461A46484600F051
:105AD000B1FC0446109B002B61D00298214600F0D7
