:020000040800F2
:1000000000000520E1270008B1250008B9250008F7
:10001000C1250008C9250008D125000800000000FE
:10002000000000000000000000000000D9250008CA
:10003000E725000800000000F52500080326000859
:10004000312800083128000831280008312800082C
:10005000312800083128000831280008312800081C
:100060000F26000831280008312800083128000830
:1000700031280008312800083128000831280008FC
:1000800031280008312800083128000831280008EC
:1000900031280008312800083128000831280008DC
:1000A00031280008312800083128000831280008CC
:1000B00031280008312800083128000831280008BC
:1000C00031280008312800083128000831280008AC
:1000D0001D260008312800083128000831280008B2
:1000E000312800083128000831280008312800088C
:1000F000312800083128000831280008312800087C
:10010000312800083128000831280008312800086B
:10011000312800083128000831280008312800085B
:10012000312800083128000831280008312800084B
:10013000312800083128000831280008312800083B
:10014000312800083128000831280008312800082B
:10015000312800083128000831280008312800081B
:10016000312800083128000831280008312800080B
:10017000312800083128000831280008000000005C
:1001800031280008312800083128000831280008EB
:1001900031280008312800083128000831280008DB
:1001A00031280008312800083128000831280008CB
:1001B00031280008312800083128000831280008BB
:0801C000312800083128000875
:1001D00010B5054C237833B9044B13B10448AFF381
:1001E00000800123237010BDD40100200000000016
:1001F0006886000808B5034B1BB103490348AFF3F9
:10020000008008BD00000000D801002068860008BA
:1002100001F0FF01102A2BDB10F0070F08D010F8B7
:10022000013B013A8B422DD010F0070F42B3F6D1BB
:10023000F0B441EA012141EA014122F007047FF0D4
:1002400000070023F0E80256083C85EA010586EA2B
:10025000010685FA47F5A3FA87F586FA47F6A5FA67
:1002600087F68EB9EED1F0BC01F0FF0102F0070273
:1002700032B110F8013B013A83EA010313B1F8D11E
:100280000020704701387047002D06BF35460338FF
:10029000073815F0010F07D1013015F4807F02BF38
:1002A000013015F4C03F0130F0BC0138704700BF89
:1002B000034613F8012B002AFBD1181A01387047A6
:1002C00081F0004102E000BF83F0004330B54FEA07
:1002D00041044FEA430594EA050F08BF90EA020F74
:1002E0001FBF54EA000C55EA020C7FEA645C7FEA07
:1002F000655C00F0E2804FEA5454D4EB5555B8BF2A
:100300006D420CDD2C4480EA020281EA030382EA9A
:10031000000083EA010180EA020281EA0303362D2C
:1003200088BF30BD11F0004F4FEA01314FF4801CFF
:100330004CEA113102D0404261EB410113F0004F11
:100340004FEA03334CEA133302D0524263EB4303C8
:1003500094EA050F00F0A780A4F10104D5F1200E66
:100360000DDB02FA0EFC22FA05F2801841F10001C1
:1003700003FA0EF2801843FA05F359410EE0A5F195
:1003800020050EF1200E012A03FA0EFC28BF4CF0C6
:10039000020C43FA05F3C01851EBE37101F000457C
:1003A00007D54FF0000EDCF1000C7EEB00006EEB89
:1003B0000101B1F5801F1BD3B1F5001F0CD3490813
:1003C0005FEA30004FEA3C0C04F101044FEA44526A
:1003D00012F5800F80F09A80BCF1004F08BF5FEAF1
:1003E000500C50F1000041EB045141EA050130BDD1
:1003F0005FEA4C0C404141EB0101013C28BFB1F5E3
:10040000801FE9D291F0000F04BF01460020B1FA2D
:1004100081F308BF2033A3F10B03B3F120020CDA00
:100420000C3208DD02F1140CC2F10C0201FA0CF0DE
:1004300021FA02F10CE002F11402D8BFC2F1200C43
:1004400001FA02F120FA0CFCDCBF41EA0C019040F9
:10045000E41AA2BF01EB0451294330BD6FEA040442
:100460001F3C1CDA0C340EDC04F11404C4F120022D
:1004700020FA04F001FA02F340EA030021FA04F33F
:1004800045EA030130BDC4F10C04C4F1200220FA96
:1004900002F001FA04F340EA0300294630BD21FAD4
:1004A00004F0294630BD94F0000F83F4801306BF9A
:1004B00081F480110134013D4EE77FEA645C18BF8E
:1004C0007FEA655C29D094EA050F08BF90EA020F25
:1004D00005D054EA000C04BF1946104630BD91EA1D
:1004E000030F1EBF0021002030BD5FEA545C05D120
:1004F0004000494128BF41F0004130BD14F580045F
:100500003CBF01F5801130BD01F0004545F0FE41D2
:1005100041F470014FF0000030BD7FEA645C1ABF07
:10052000194610467FEA655C1CBF0B46024650EA3E
:10053000013406BF52EA033591EA030F41F400216A
:1005400030BD00BF90F0000F04BF0021704730B5F0
:100550004FF4806404F132044FF000054FF00001C5
:1005600050E700BF90F0000F04BF0021704730B586
:100570004FF4806404F1320410F0004548BF40425B
:100580004FF000013EE700BF42004FEAE2014FEAB0
:1005900031014FEA02701FBF12F07F4393F07F4F8B
:1005A00081F06051704732F07F4208BF704793F08E
:1005B0007F4F04BF41F40021704730B54FF46074A1
:1005C00001F0004521F000411CE700BF50EA0102A4
:1005D00008BF704730B54FF000050AE050EA01024D
:1005E00008BF704730B511F0004502D5404261EBBD
:1005F00041014FF4806404F132045FEA915C3FF4FE
:10060000D8AE4FF003025FEADC0C18BF03325FEA9A
:10061000DC0C18BF033202EBDC02C2F1200300FA4B
:1006200003FC20FA02F001FA03FE40EA0E0021FA70
:1006300002F11444BDE600BF70B54FF0FF0C4CF45E
:10064000E06C1CEA11541DBF1CEA135594EA0C0F10
:1006500095EA0C0F00F0DEF82C4481EA030621EA4B
:100660004C5123EA4C5350EA013518BF52EA033586
:1006700041F4801143F4801338D0A0FB02CE4FF038
:100680000005E1FB02E506F00042E0FB03E54FF068
:100690000006E1FB03569CF0000F18BF4EF0010E60
:1006A000A4F1FF04B6F5007F64F5407404D25FEA5C
:1006B0004E0E6D4146EB060642EAC62141EA55510F
:1006C0004FEAC52040EA5E504FEACE2EB4F1FD0C51
:1006D00088BFBCF5E06F1ED8BEF1004F08BF5FEACF
:1006E000500E50F1000041EB045170BD06F0004681
:1006F00046EA010140EA020081EA0301B4EB5C042E
:10070000C2BFD4EB0C0541EA045170BD41F4801125
:100710004FF0000E013C00F3AB8014F1360FDEBF4A
:10072000002001F0004170BDC4F10004203C35DA26
:100730000C341BDC04F11404C4F1200500FA05F3A9
:1007400020FA04F001FA05F240EA020001F000424A
:1007500021F0004110EBD37021FA04F642EB0601C0
:100760005EEA430E08BF20EAD37070BDC4F10C04EA
:10077000C4F1200500FA04F320FA05F001FA04F2AE
:1007800040EA020001F0004110EBD37041F100019A
:100790005EEA430E08BF20EAD37070BDC4F12005A5
:1007A00000FA05F24EEA020E20FA04F301FA05F20D
:1007B00043EA020321FA04F001F0004121FA04F2B5
:1007C00020EA020000EBD3705EEA430E08BF20EA85
:1007D000D37070BD94F0000F0FD101F000464000BF
:1007E00041EB010111F4801F08BF013CF7D041EA41
:1007F000060195F0000F18BF704703F00046520045
:1008000043EB030313F4801F08BF013DF7D043EA15
:100810000603704794EA0C0F0CEA135518BF95EACB
:100820000C0F0CD050EA410618BF52EA4306D1D152
:1008300081EA030101F000414FF0000070BD50EA71
:10084000410606BF1046194652EA430619D094EAFB
:100850000C0F02D150EA013613D195EA0C0F05D1E5
:1008600052EA03361CBF104619460AD181EA030139
:1008700001F0004141F0FE4141F470014FF00000F1
:1008800070BD41F0FE4141F4780170BD70B54FF08C
:10089000FF0C4CF4E06C1CEA11541DBF1CEA13550C
:1008A00094EA0C0F95EA0C0F00F0A7F8A4EB0504EE
:1008B00081EA030E52EA03354FEA013100F08880E5
:1008C0004FEA03334FF0805545EA131343EA1263AE
:1008D0004FEA022245EA111545EA10654FEA002663
:1008E0000EF000419D4208BF964244F1FD0404F51C
:1008F000407402D25B084FEA3202B61A65EB030578
:100900005B084FEA32024FF480104FF4002CB6EB34
:10091000020E75EB030E22BFB61A754640EA0C00B4
:100920005B084FEA3202B6EB020E75EB030E22BFF4
:10093000B61A754640EA5C005B084FEA3202B6EB35
:10094000020E75EB030E22BFB61A754640EA9C00F4
:100950005B084FEA3202B6EB020E75EB030E22BFC4
:10096000B61A754640EADC0055EA060E18D04FEA82
:10097000051545EA16754FEA06164FEAC30343EA22
:1009800052734FEAC2025FEA1C1CC0D111F4801FEF
:100990000BD141EA00014FF000004FF0004CB6E7E8
:1009A00011F4801F04BF01430020B4F1FD0C88BF87
:1009B000BCF5E06F3FF6AFAEB5EB030C04BFB6EB92
:1009C000020C5FEA500C50F1000041EB045170BD85
:1009D0000EF0004E4EEA113114EB5C04C2BFD4EBB2
:1009E0000C0541EA045170BD41F480114FF0000E36
:1009F000013C90E645EA060E8DE60CEA135594EAB2
:100A00000C0F08BF95EA0C0F3FF43BAF94EA0C0FB4
:100A10000AD150EA01347FF434AF95EA0C0F7FF429
:100A200025AF104619462CE795EA0C0F06D152EA7D
:100A300003353FF4FDAE1046194622E750EA410661
:100A400018BF52EA43067FF4C5AE50EA41047FF472
:100A50000DAF52EA43057FF4EBAE12E74FF0FF3CD7
:100A600006E000BF4FF0010C02E000BF4FF0010CA8
:100A70004DF804CD4FEA410C7FEA6C5C4FEA430C21
:100A800018BF7FEA6C5C1BD001B050EA410C0CBF70
:100A900052EA430C91EA030F02BF90EA020F0020D2
:100AA000704710F1000F91EA030F58BF994208BF39
:100AB00090422CBFD8176FEAE37040F001007047F6
:100AC0004FEA410C7FEA6C5C02D150EA013C07D14D
:100AD0004FEA430C7FEA6C5CD6D152EA033CD3D098
:100AE0005DF8040B704700BF8446104662468C4692
:100AF0001946634600E000BF01B5FFF7B7FF0028C5
:100B000048BF10F1000F01BD4DF808EDFFF7F4FFED
:100B10000CBF012000205DF808FB00BF4DF808ED78
:100B2000FFF7EAFF34BF012000205DF808FB00BF9B
:100B30004DF808EDFFF7E0FF94BF012000205DF8BD
:100B400008FB00BF4DF808EDFFF7CEFF94BF012072
:100B500000205DF808FB00BF4DF808EDFFF7C4FF6B
:100B600034BF012000205DF808FB00BF4FEA410CB4
:100B70007FEA6C5C02D150EA013C0AD14FEA430C97
:100B80007FEA6C5C02D152EA033C02D14FF00000D4
:100B900070474FF0010070474FEA410212F5001212
:100BA00015D211D56FF47873B3EB625212D94FEAB4
:100BB000C12343F0004343EA505311F0004F23FA9E
:100BC00002F018BF404270474FF00000704750EAF3
:100BD000013005D111F0004008BF6FF000407047B0
:100BE0004FF00000704700BF53B94AB9002908BF51
:100BF00000281CBF4FF0FF314FF0FF3000F088B9E4
:100C0000ADF1080C6DE904CE00F006F8DDF804E063
:100C1000DDE9022304B070472DE9F047089D8E46B8
:100C200004468846002B4AD18A42174662D9B2FA56
:100C300082F64EB1C6F1200301FA06F820FA03F35A
:100C4000B74043EA0808B4404FEA174E1FFA87FC42
:100C5000B8FBFEF1230C0EFB118843EA084301FBAD
:100C60000CF29A4209D9FB1801F1FF3080F0EA80BA
:100C70009A4240F2E78002393B449A1AA3B2B2FB8F
:100C8000FEF00EFB102243EA024300FB0CFC9C45E5
:100C900009D9FB1800F1FF3280F0D6809C4540F264
:100CA000D3803B44023840EA0140A3EB0C0300210F
:100CB0001DB1F3400022C5E90032BDE8F0878B4248
:100CC00005D90DB1C5E9000100210846F5E7B3FAE1
:100CD00083F1002946D1734502D3824200F2058197
:100CE000841A6EEB030201209046002DE5D0C5E981
:100CF0000048E2E7002A00F09080B2FA82F6002E67
:100D000040F0A4808A1A030C4FEA174E80B2BCB29E
:100D10000121B2FBFEFC0EFB1C2243EA024304FB52
:100D20000CF29A4207D9FB180CF1FF3802D29A4212
:100D300000F2E080C4469B1AB3FBFEF20EFB1233B6
:100D400040EA034302FB04F49C4207D9FB1802F17A
:100D5000FF3002D29C4200F2CA8002461B1B42EACC
:100D60000C40A5E7C1F120068B4022FA06F71F438D
:100D70000EFA01F420FA06F32EFA06FE4FEA17499E
:100D8000234300FA01F81FFA87FCBEFBF9F01C0CA4
:100D900009FB10EE44EA0E4400FB0CFEA64502FAE5
:100DA00001F209D93C1900F1FF3A80F09C80A64578
:100DB00040F2998002383C44A4EB0E041FFA83FEF3
:100DC000B4FBF9F309FB13444EEA044403FB0CFCA7
:100DD000A44508D93C1903F1FF3E80F08280A44568
:100DE0007FD9023B3C4443EA0040A4EB0C04A0FB47
:100DF00002EC64457346E14662D35FD05DB1B8EB67
:100E0000030264EB090404FA06F622FA01F31E4316
:100E1000CC40C5E9006400214FE7B1FBF2FC010CB6
:100E200041EA0E4180B240EA01423B4638463C4628
:100E3000B846BE462026B1FBF7F1A2EB080241EA14
:100E40000C4166E7014618E710462CE7C6F1200280
:100E50002EFA02F3B740B14020FA02F24FEA174EE1
:100E60000A43B3FBFEF8BCB20EFB1833110C41EA87
:100E7000034108FB04F9B04089454FEA104380B2B2
:100E80003ED9791808F1FF3C01D289451FD8A1EB62
:100E90000901B1FBFEF909FB04F80EFB191192B22E
:100EA00042EA0142424529D2BA1809F1FF31C4D2BF
:100EB0004245C2D2A9F102013A44BEE7F0459DD2B3
:100EC000BEEB02036CEB070C0138E14696E7A7EB9B
:100ED00009094944A8F1020CB1FBFEF909FB04F829
:100EE000DBE773467FE7504666E70846FDE63B448E
:100EF000023A33E7ACF1020C3B441CE749469CE75D
:100F0000A1EB0901C446B1FBFEF909FB04F8C4E7F3
:100F1000704700BFB0B48FB000AF786040F2B1133B
:100F2000FB62072387F83030072387F8313001232D
:100F300087F83230FF2387F83630642387F837305C
:100F40000823BB867B681D4607F10C040FCC0FC538
:100F50000FCC0FC594E8070085E8070078683C3798
:100F6000BD46B0BC704780B582B000AF78607B688A
:100F700098687B689B890022194601F0BBFF01201D
:100F800001F0B4FC7B6898687B689B890122194654
:100F900001F0B0FF642001F0A9FC00BF0837BD4696
:100FA00080BD80B584B000AF786039600121786879
:100FB00000F0FFF90346BB73BB7BFB733B68002B60
:100FC00007D1BB7B23F00703FB737B680022DA6148
:100FD0003EE03B68012B0CD197F90E3023F007035C
:100FE0005BB243F001035BB2FB737B680122DA6101
:100FF0002EE03B68032B0CD197F90E3023F007034A
:101000005BB243F003035BB2FB737B680322DA61DC
:101010001EE03B68052B0CD197F90E3023F0070337
:101020005BB243F005035BB2FB737B680522DA61B8
:101030000EE03B68062B0BD197F90E3023F0070327
:101040005BB243F006035BB2FB737B680622DA6196
:10105000FB7B1A460121786800F0C5F900BF103704
:10106000BD4680BD80B584B000AFF860B9603B601C
:101070001346FB80FB681868FB689B8800221946B2
:1010800001F038FFFB689869FA884FF4FA63B96891
:1010900003F0F3F800BFFB689B69184603F0C4FE39
:1010A0000346012BF7D1FB6898693A8B4FF4FA633A
:1010B000396803F058FA00BFFB689B69184603F0D3
:1010C000B3FE0346012BF7D1FB681868FB689B88C9
:1010D0000122194601F00EFF00BF1037BD4680BD4A
:1010E00080B584B000AFF860B9603B601346FB8008
:1010F000FB681868FB689B880022194601F0FAFE1D
:10110000FB689869FA884FF4FA63B96803F0B5F898
:1011100000BFFB689B69184603F086FE0346012B5F
:10112000F7D1FB6898693A8B4FF4FA63396803F09A
:10113000A4F800BFFB689B69184603F075FE0346E0
:10114000012BF7D1FB681868FB689B8801221946C0
:1011500001F0D0FE00BF1037BD4680BD80B584B021
:1011600000AF78600B46FB702621786800F021F90B
:101170000346BB73FB78002B04D0BB7B43F0080312
:10118000FB7303E0BB7B23F00803FB73FB7B1A4676
:101190002621786800F027F90A2001F0A7FB00BF9C
:1011A0001037BD4680BD000080B596B000AF7860B6
:1011B000174A07F1080311465022184605F041FC72
:1011C0007B6893F824301A46012393401846FFF7B2
:1011D000C9F97B6893F82530DB0058333B44503B1A
:1011E000D3E90023FFF752FB02460B46104619468F
:1011F000FFF7D2FC0346102BCCBF01230023DBB248
:1012000019467868FFF7AAFF00BF5837BD4680BD72
:101210008086000880B584B000AF786039603B6894
:10122000DB045B11FB60FB681B0CFB72FB7A1A464C
:101230000621786800F0D7F8052001F057FBFB681D
:101240001B0AFB72FB7A1A460721786800F0CBF87C
:10125000052001F04BFBFB68FB72FB7A1A46082164
:10126000786800F0C0F8052001F040FB00BF10379F
:10127000BD4680BD80B584B000AF786039603B6802
:101280000C2B01DD0C233B603B68062B01DC0723A4
:101290003B601E21786800F08CF80346FB730A203F
:1012A00001F024FB3B68DBB21B01DAB2FB7B03F0ED
:1012B0000F03DBB21344BB73BB7B1A461E21786855
:1012C00000F091F80A2001F011FB7868FFF76CFF3D
:1012D00000BF1037BD4680BD80B582B000AF7860DA
:1012E0000B46FB70FB781A460921786800F07BF802
:1012F0000A2001F0FBFA00BF0837BD4680BD0000A0
:1013000080B584B000AF78600B46FB700023FB73A0
:10131000FB782C2B01D82D23FB70FB78F02B01D907
:10132000F023FB70FB78782B09D8FB782D3B124A11
:1013300082FB03125210DB17D31AFB730BE0FB780E
:10134000F02B08D8FB781E330B4A82FB0312921055
:10135000DB17D31AFB73FB7B2033FB73FB7B1A4633
:101360000B21786800F03FF80A2001F0BFFA00BFB7
:101370001037BD4680BD00BF6766666680B584B025
:1013800000AF78601E21786800F013F80346FB7305
:10139000FB7B43F00703BB73BB7B1A461E217868B7
:1013A00000F021F80A2001F0A1FA00BF1037BD4675
:1013B00080BD80B586B002AF78600B46FB70FB78CD
:1013C00003F07F03DBB2BB7307F10F0307F10E01DC
:1013D0000122009201227868FFF744FEFB7B184649
:1013E0001037BD4680BD80B586B002AF78600B4631
:1013F000FB701346BB70FB7863F07F03DBB2BB73FB
:10140000BB78FB7307F10F0307F10E010122009275
:1014100001227868FFF764FE00BF1037BD4680BD2B
:1014200080B586B000AFF8607A601A460B46FB7252
:101430001346BB72FB7A63F07F03DBB2FB75FB687C
:101440001868FB689B880022194601F053FDFB6871
:10145000986907F117014FF4FA63012202F00DFFBA
:1014600000BFFB689B69184603F0DEFC0346012BB6
:10147000F7D1FB689869BB7A9AB24FF4FA6379683E
:1014800002F0FBFE00BFFB689B69184603F0CCFC32
:101490000346012BF7D1FB681868FB689B88012283
:1014A000194601F027FD00BF1837BD4680BD80B446
:1014B00083B000AF7860012318460C37BD465DF855
:1014C000047B704780B586B000AFF860B960114604
:1014D0001A460B46FB711346BB80FB68DB697B61D8
:1014E0000121F868FFF75DFD0E21F868FFF761FF45
:1014F0000346FB74FB7C1A460D21F868FFF773FF67
:10150000FB791A462221F868FFF76DFFFB79BA686C
:101510000021F868FFF784FF0321F868FFF741FD19
:101520001221F868FFF745FF0346FB74FB7C03F0CC
:101530000803002B0AD0FF221221F868FFF753FF9F
:101540007969F868FFF72DFD01230FE0BB88013BA7
:10155000BB80BB88002B05D17969F868FFF721FDB6
:10156000002303E0012001F0C1F9D9E7184618373C
:10157000BD4680BD80B582B000AF78600521786837
:10158000FFF70FFD00BF0837BD4680BD90B589B09D
:1015900000AFF860B9601346FB710023FB770023AE
:1015A000BB6107E0BB69BA68134400221A70BB69CB
:1015B0000133BB61FB79BA699A42F3DB0121F86818
:1015C000FFF7EFFC1221F868FFF7F3FE0346FB7408
:1015D000FB7C03F04003002B2FD0FF221221F86880
:1015E000FFF701FF1321F868FFF7E3FE0346BB7422
:1015F0001021F868FFF7DDFE0346FB74FB7C1A46FA
:101600000D21F868FFF7EFFEBA7CFB79934228BF03
:101610001346FB7700237B610BE07B69BA68D41823
:101620000021F868FFF7C5FE034623707B6901338C
:101630007B61FB7F7A699A42EFDB0521F868FFF74F
:10164000B0FCFB7F18462437BD4690BD80B584B002
:1016500000AF78607868FFF72AFF0346002B00F0A0
:10166000968000217868FFF79CFC0A2001F03EF983
:1016700001217868FFF79DFE0346FB730A2001F005
:1016800035F9FB7B63F07F03BB73BB7B1A460121FB
:101690007868FFF7A8FE642001F028F97B681B6AD0
:1016A00019467868FFF7B6FD7B6893F82A3019462B
:1016B0007868FFF711FE7B6893F82B30194678683D
:1016C000FFF71EFE23220C217868FFF78CFE786856
:1016D000FFF754FE7B6893F8243019467868FFF7CB
:1016E000C9FDFF221F217868FFF77DFE0023BB7331
:1016F0007B6893F825301B01DAB27B6893F82630BB
:101700005B00DBB21344BB73BB7B1A461D217868B8
:10171000FFF769FE7868FFF747FD7B681B8D1B0AA2
:101720009BB2DBB21A4620217868FFF75CFE7B682B
:101730001B8DDBB21A4621217868FFF754FE402149
:101740007868FFF736FE0346FB73FB7B43F03F03ED
:10175000BB73BB7B1A4640217868FFF744FE01212A
:101760007868FFF71EFC7B680122DA610A2001F02D
:10177000BDF842217868FFF71CFE0346FB73FB7B34
:10178000122B01D1C82304E04FF4CA7301E040F2E8
:10179000F71318461037BD4680BD000080B584B0F1
:1017A00000AF78607B68DBB2FB7307F10F014FF08D
:1017B000FF330122034803F0ADFD7B681846103764
:1017C000BD4680BD5402002080B59EB000AF01F040
:1017D00030F800F097F800F071F900F001F900F02E
:1017E0003DF907F148031846FFF794FB3B4BBB64F8
:1017F0000123A7F84C303A4B3B654FF40043A7F860
:101800005430364BBB650423A7F85C30354B3B6640
:10181000354804F0B7FFBB6CB7F84C1001221846EE
:1018200001F068FB07F148031846FFF79CFB0A200C
:1018300001F05CF807F148031846FFF707FF03467D
:10184000A7F87630B7F87630C82B03D1274804F0D4
:1018500099FF05E0B7F876301946254804F02AFFCD
:101860004723A7F8443007F1440107F148004FF43B
:10187000FA630122FFF726FE0346002B03D01D4822
:1018800004F080FF02E01C4804F07CFF07F14803ED
:101890001846FFF76FFE194804F074FF391D07F171
:1018A000480340221846FFF771FE034687F875305B
:1018B00097F87530002B0DD097F8753078333B448E
:1018C000002203F8742C97F875303A1D19460C481D
:1018D00004F0F0FEC82001F009F8DFE70020024024
:1018E00000000240F0010020D0860008FC860008BD
:1018F0000C8700082C8700084887000860870008CC
:101900009087000880B594B000AF07F12003302223
:101910000021184605F016F807F10C0300221A60A2
:101920005A609A60DA601A6101F022FB2A4B1B6C44
:10193000294A43F080531364274B1B6C03F08053F8
:10194000BB60BB68254B1B68244A43F440431360CB
:10195000224B1B6803F440437B607B6802233B629D
:101960000123FB6210233B630223BB630023FB6361
:1019700008233B64D8237B640223BB640223FB64FB
:1019800007F12003184601F053FB0346002B01D05A
:1019900000F0F8FC01F0FCFA0346002B01D000F047
:1019A000F1FC0F23FB6002233B6100237B614FF4BA
:1019B000A053BB614FF48053FB6107F10C03072177
:1019C000184601F0D9FD0346002B01D000F0DAFCE7
:1019D00000BF5037BD4680BD003802400070004057
:1019E00080B500AF1B4B1C4A1A601A4B4FF4827231
:1019F0005A60184B00229A60164B4FF4E062DA608E
:101A0000144B00221A61134B00225A61114B4FF400
:101A100000729A610F4B1022DA610E4B00221A629B
:101A20000C4B00225A620B4B00229A62094B072290
:101A3000DA62084B00221A63064B00225A630548FB
:101A400002F070FB0346002B01D000F09BFC00BFAE
:101A500080BD00BFF00100200038004080B500AF1D
:101A6000144B154A1A60134B4FF4E1325A60114B74
:101A700000229A600F4B0022DA600E4B00221A619E
:101A80000C4B0C225A610B4B00229A61094B00222D
:101A9000DA61084B00221A62064B00225A6205489E
:101AA00003F0EAFB0346002B01D000F06BFC00BF03
:101AB00080BD00BF540200200010014080B590B0EE
:101AC00000AF07F12C0300221A605A609A60DA60B6
:101AD0001A61AF4B1B6BAE4A43F010031363AC4B60
:101AE0001B6B03F01003BB62BB6AA94B1B6BA84ABC
:101AF00043F040031363A64B1B6B03F040037B6270
:101B00007B6AA34B1B6BA24A43F002031363A04BF7
:101B10001B6B03F002033B623B6A9D4B1B6B9C4AB1
:101B200043F0080313639A4B1B6B03F00803FB613C
:101B3000FB69974B1B6B964A43F004031363944B6A
:101B40001B6B03F00403BB61BB69914B1B6B904A99
:101B500043F0010313638E4B1B6B03F001037B61A6
:101B60007B698B4B1B6B8A4A43F400731363884B6E
:101B70001B6B03F400733B613B69854B1B6B844A11
:101B800043F480731363824B1B6B03F48073FB601D
:101B9000FB687F4B1B6B7E4A43F4806313637C4B73
:101BA0001B6B03F48063BB60BB68794B1B6B784A8B
:101BB00043F020031363764B1B6B03F020037B6021
:101BC0007B68734B1B6B724A43F080031363704B4B
:101BD0001B6B03F080033B603B6801224FF4004124
:101BE0006C4801F087F9012220216B4801F082F94D
:101BF000002241F20801694801F07CF90022082125
:101C0000674801F077F900224FF40051654801F070
:101C100071F901220121614801F06CF90022C8210B
:101C2000614801F067F91023FB6202233B63002344
:101C30007B630023BB630E23FB6307F12C03194670
:101C40005A4800F0ABFF0823FB6200233B630023EC
:101C50007B6307F12C031946544800F09FFF0423CF
:101C6000FB6202233B6300237B630323BB630923E3
:101C7000FB6307F12C0319464C4800F08FFF4FF42B
:101C8000D043FB6202233B6300237B630323BB63DC
:101C90000B23FB6307F12C031946434800F07EFF3A
:101CA0004FF68373FB6202233B6300237B630323B2
:101CB000BB630C23FB6307F12C0319463B4800F080
:101CC0006DFF4FF44073FB6212233B6300237B6381
:101CD0000023BB630423FB6307F12C03194634483C
:101CE00000F05CFF43F62343FB6202233B630023C7
:101CF0007B630323BB630A23FB6307F12C031946B1
:101D00002B4800F04BFF1023FB6202233B630023B0
:101D10007B630023BB630223FB6307F12C0319469B
:101D2000234800F03BFF8023FB6202233B63002338
:101D30007B630023BB630823FB6307F12C03194675
:101D4000154800F02BFF4FF4F853FB6202233B636E
:101D500000237B630323BB630C23FB6307F12C038A
:101D60001946144800F01AFF4FF40043FB620123A8
:101D70003B6300237B630023BB6307F12C031946FD
:101D8000044800F00BFF6023FB62022314E000BF55
:101D90000038024000000240000C024000200240D7
:101DA00000280240001C02400018024000100240BF
:101DB00000040240000802403B6300237B630023D1
:101DC000BB630D23FB6307F12C031946BC4800F0ED
:101DD000E5FE4023FB6202233B6300237B63032376
:101DE000BB630A23FB6307F12C031946B54800F0D7
:101DF000D5FE48F23313FB6202233B6300237B636F
:101E00000323BB630C23FB6307F12C031946AE4885
:101E100000F0C4FE4EF6FF73FB6202233B63002317
:101E20007B630023BB630E23FB6307F12C0319467E
:101E3000A64800F0B3FE4FF48053FB6200233B63DF
:101E400000237B6307F12C031946A04800F0A6FE8F
:101E50004023FB624FF490133B6300237B6307F145
:101E60002C0319469A4800F099FE4CF20373FB626A
:101E700002233B6300237B630323BB630C23FB63CD
:101E800007F12C031946924800F088FE4FF4E05306
:101E9000FB6202233B6300237B630323BB630A23B0
:101EA000FB6307F12C0319468A4800F077FEF02304
:101EB000FB6202233B6300237B630023BB630A2393
:101EC000FB6307F12C031946834800F067FEF723F4
:101ED000FB6202233B6300237B630023BB630E236F
:101EE000FB6307F12C0319467C4800F057FE4FF4C2
:101EF0008053FB6202233B6300237B630023BB63AD
:101F00000923FB6307F12C0319466F4800F046FED6
:101F10004FF48063FB6202233B6300237B63002357
:101F2000BB630A23FB6307F12C031946664800F0E4
:101F300035FE2023FB6201233B6300237B630023E8
:101F4000BB6307F12C031946614800F027FE082304
:101F5000FB6202233B6300237B630023BB630D23EF
:101F6000FB6307F12C031946594800F017FE41F2B4
:101F70000903FB6201233B6300237B630023BB63F4
:101F800007F12C031946544800F008FE0423FB62B5
:101F90004FF488133B6300237B6307F12C0319463E
:101FA0004D4800F0FBFD4FF40053FB6200233B6300
:101FB00000237B6307F12C031946494800F0EEFD2E
:101FC0004FF63F03FB6202233B6300237B63032343
:101FD000BB630C23FB6307F12C031946414800F057
:101FE000DDFD4FF44643FB6202233B6300237B632A
:101FF0000023BB630E23FB6307F12C03194636480D
:1020000000F0CCFD0823FB6201233B6300237B63CC
:102010000023BB6307F12C031946304800F0BEFDD6
:102020004FF40073FB6202233B6300237B630023B6
:10203000BB630D23FB6307F12C031946224800F014
:10204000ADFD1023FB6200233B6300237B6307F19C
:102050002C0319461E4800F0A1FD0423FB62022355
:102060003B6300237B630323BB630C23FB6307F108
:102070002C031946164800F091FD48F20403FB6258
:1020800000233B6300237B6307F12C0319461648AA
:1020900000F084FD4FF40053FB6201233B630023F7
:1020A0007B630023BB6307F12C0319460E4800F045
:1020B00075FD4FF4BC43FB6202233B63002315E034
:1020C00000100240000402400018024000240240B8
:1020D000000C0240000002400020024000280240A4
:1020E0000008024000140240001C02407B630023F1
:1020F000BB630D23FB6307F12C031946994800F0DD
:102100004DFD4FF48073FB6202233B6300237B632E
:102110000023BB630123FB6307F12C03194692489C
:1021200000F03CFD4FF40053FB624FF490133B630F
:1021300000237B6307F12C0319468C4800F02EFD29
:10214000C023FB6202233B6300237B630323BB6347
:102150000823FB6307F12C031946854800F01EFD98
:102160001023FB6202233B6300237B630323BB63D7
:102170000A23FB6307F12C0319467A4800F00EFD91
:102180002823FB6202233B6300237B630323BB639F
:102190000C23FB6307F12C031946724800F0FEFC88
:1021A000C823FB6201233B6300237B630023BB63E3
:1021B00007F12C0319466F4800F0F0FC4FF4F86368
:1021C000FB6203233B6300237B6307F12C03194667
:1021D000694800F0E3FC0823FB6202233B63002311
:1021E0007B630323BB630C23FB6307F12C031946BA
:1021F0005F4800F0D3FC0523FB6202233B6300230E
:102200007B630323BB630A23FB6307F12C0319469B
:10221000574800F0C3FC3223FB6202233B630023D8
:102220007B630323BB630B23FB6307F12C0319467A
:102230004F4800F0B3FC0423FB6202233B630023FE
:102240007B630323BB630923FB6307F12C0319465C
:102250004A4800F0A3FC4FF46053FB6202233B6347
:1022600000237B630323BB630923FB6307F12C0378
:102270001946434800F092FC0423FB6200233B63B1
:1022800000237B6307F12C0319463A4800F086FCD3
:102290008623FB6202233B6300237B630323BB6330
:1022A0000B23FB6307F12C0319462F4800F076FC43
:1022B0000123FB6203233B6300237B6307F12C03B1
:1022C0001946294800F06AFC5023FB6202233B6355
:1022D00000237B630023BB630D23FB6307F12C0307
:1022E0001946214800F05AFC4FF4C073FB621223D8
:1022F0003B6300237B630323BB630423FB6307F17E
:102300002C031946174800F049FC2823FB620223DE
:102310003B6300237B630323BB630A23FB6307F157
:102320002C031946104800F039FC4023FB620223BD
:102330003B6300237B630023BB630923FB6307F13B
:102340002C031946074800F029FC00220021082030
:1023500000F0CBFB082000F0E4FB00BF4037BD4697
:1023600080BD00BF001C024000000240002002406F
:10237000000802400018024000140240000402401D
:10238000000C024080B400AF72B600BF00BFFDE792
:1023900080B483B000AF0F4B1B6C0E4A43F08053E8
:1023A00013640C4B1B6C03F080537B607B68094B00
:1023B0005B6C084A43F480435364064B5B6C03F444
:1023C00080433B603B6800BF0C37BD465DF8047B33
:1023D000704700BF0038024080B58AB000AF786017
:1023E00007F1140300221A605A609A60DA601A61D9
:1023F0007B681B68294A93424CD1294B1B6C284AA5
:1024000043F480431364264B1B6C03F480433B610D
:102410003B69234B1B6B224A43F480731363204BAD
:102420001B6B03F48073FB60FB681D4B1B6B1C4A2A
:1024300043F0020313631A4B1B6B03F00203BB60F0
:10244000BB6802237B610223BB610023FB61002385
:102450003B6205237B6207F114031946114800F023
:102460009DFB4FF440437B610223BB610023FB6172
:1024700000233B6205237B6207F1140319460A48D7
:1024800000F08CFB00220021242000F02EFB2420F1
:1024900000F047FB00BF2837BD4680BD0038004034
:1024A00000380240002002400004024080B5ACB079
:1024B00000AF786007F19C0300221A605A609A60AE
:1024C000DA601A6107F1180384220021184604F02B
:1024D00039FA7B681B68324A93425CD14023BB6166
:1024E0000023FB6507F11803184601F02BFA034699
:1024F000002B01D0FFF746FF2A4B5B6C294A43F0C3
:1025000010035364274B5B6C03F010037B617B6902
:10251000244B1B6B234A43F002031363214B1B6BB9
:1025200003F002033B613B691E4B1B6B1D4A43F0EA
:10253000010313631B4B1B6B03F00103FB60FB6880
:102540008023C7F89C300223C7F8A0300023C7F8C7
:10255000A4300023C7F8A8300723C7F8AC3007F130
:102560009C031946104800F019FB4FF40073C7F89C
:102570009C300223C7F8A0300023C7F8A430002302
:10258000C7F8A8300723C7F8AC3007F19C031946F9
:10259000064800F003FB00BFB037BD4680BD00BF5A
:1025A00000100140003802400004024000000240D8
:1025B00080B400AF00BFFDE780B400AF00BFFDE70F
:1025C00080B400AF00BFFDE780B400AF00BFFDE7FF
:1025D00080B400AF00BFFDE780B400AF00BFBD46D0
:1025E0005DF8047B704780B400AF00BFBD465DF866
:1025F000047B704780B400AF00BFBD465DF8047B2C
:10260000704780B500AF00F051F900BF80BD80B5C4
:1026100000AF042000F088FC00BF80BD80B500AF93
:10262000024802F0F7FA00BF80BD00BFF0010020B1
:1026300080B400AF01231846BD465DF8047B7047A7
:1026400080B582B000AF7860396004F0CDF9034600
:1026500016221A604FF0FF3318460837BD4680BD7A
:1026600080B582B000AF78604FF0FF317868FFF737
:10267000E7FF00BFFDE780B586B000AFF860B96046
:102680007A6000237B610AE0AFF300800146BB68FB
:102690005A1CBA60CAB21A707B6901337B617A69CD
:1026A0007B689A42F0DB7B6818461837BD4680BDD0
:1026B00080B586B000AFF860B9607A6000237B61B6
:1026C00009E0BB685A1CBA601B781846FFF766F829
:1026D0007B6901337B617A697B689A42F1DB7B68B5
:1026E00018461837BD4680BD80B483B000AF78600F
:1026F0004FF0FF3318460C37BD465DF8047B70473A
:1027000080B483B000AF786039603B684FF400520A
:102710005A60002318460C37BD465DF8047B7047AD
:1027200080B483B000AF7860012318460C37BD46F3
:102730005DF8047B704780B485B000AFF860B96085
:102740007A60002318461437BD465DF8047B704755
:1027500080B586B000AF7860144A154BD31A7B6100
:102760007B693B61134B1B68002B02D1114B124A52
:102770001A60104B1A687B6813443A699A4207D270
:1027800004F032F903460C221A604FF0FF3309E0DF
:10279000084B1B68FB60074B1A687B681344054AAB
:1027A0001360FB6818461837BD4680BD0000052041
:1027B00000040000DC0200203004002080B400AFE0
:1027C000064BD3F88830054A43F47003C2F88830CA
:1027D00000BFBD465DF8047B704700BF00ED00E020
:1027E000DFF834D0FFF7EAFF0C480D490D4A00230B
:1027F00002E0D458C4500433C4188C42F9D30A4AB6
:102800000A4C002301E013600432A242FBD304F01F
:10281000F1F8FEF7D9FF7047000005200000002006
:10282000D40100203C8B0008D4010020300400209B
:10283000FEE780B500AF032000F04CF9002000F067
:1028400005F8FFF7A5FD0023184680BD80B582B0CE
:1028500000AF7860124B1A68124B1B7819464FF480
:102860007A73B3FBF1F3B2FBF3F3184600F067F9A8
:102870000346002B01D001230EE07B680F2B0AD802
:10288000002279684FF0FF3000F02FF9064A7B688C
:102890001360002300E0012318460837BD4680BDC1
:1028A00000000020080000200400002080B400AFD9
:1028B000064B1B781A46064B1B681344044A1360E8
:1028C00000BFBD465DF8047B704700BF08000020D4
:1028D000E002002080B400AF034B1B681846BD46E1
:1028E0005DF8047B704700BFE002002080B584B033
:1028F00000AF7860FFF7EEFFB8607B68FB60FB68B5
:10290000B3F1FF3F05D00A4B1B781A46FB6813440E
:10291000FB6000BFFFF7DEFF0246BB68D31AFA6810
:102920009A42F7D800BF00BF1037BD4680BD00BF38
:102930000800002080B485B000AF78607B6803F0A9
:102940000703FB600B4BDB68BB60BA684FF6FF0305
:102950001340BB60FB681A02BB681A43064B134363
:10296000BB60044ABB68D36000BF1437BD465DF846
:10297000047B704700ED00E00000FA0580B400AF72
:10298000044BDB681B0A03F007031846BD465DF8DD
:10299000047B704700ED00E080B483B000AF0346D5
:1029A000FB7197F90730002B0BDBFB7903F01F025B
:1029B000074997F907305B09012000FA02F241F854
:1029C000232000BF0C37BD465DF8047B704700BF75
:1029D00000E100E080B483B000AF03463960FB71D2
:1029E00097F90730002B0ADB3B68DAB20C4997F9FC
:1029F00007301201D2B20B4483F800230AE03B688F
:102A0000DAB20849FB7903F00F03043B1201D2B29A
:102A10000B441A7600BF0C37BD465DF8047B704747
:102A200000E100E000ED00E080B489B000AFF860A4
:102A3000B9607A60FB6803F00703FB61FB69C3F1CF
:102A40000703042B28BF0423BB61FB690433062B57
:102A500002D9FB69033B00E000237B614FF0FF32AA
:102A6000BB6902FA03F3DA43BB681A407B699A40F8
:102A70004FF0FF317B6901FA03F3D9437B680B40C8
:102A8000134318462437BD465DF8047B70470000A9
:102A900080B582B000AF78607B68013BB3F1807F86
:102AA00001D301230FE00A4A7B68013B53600F21E9
:102AB0004FF0FF30FFF78EFF054B00229A60044B6A
:102AC00007221A60002318460837BD4680BD00BFA4
:102AD00010E000E080B582B000AF78607868FFF762
:102AE00029FF00BF0837BD4680BD80B586B000AF66
:102AF0000346B9607A60FB7300237B61FFF73EFFFA
:102B000078617A68B9687869FFF78EFF024697F9AD
:102B10000F3011461846FFF75DFF00BF1837BD465E
:102B200080BD80B582B000AF0346FB7197F90730D6
:102B30001846FFF731FF00BF0837BD4680BD80B59E
:102B400082B000AF78607868FFF7A2FF03461846AE
:102B50000837BD4680BD80B483B000AF78607B6825
:102B600093F83530DBB2022B04D07B6880225A65A3
:102B700001230CE07B68052283F835207B681B6805
:102B80001A687B681B6822F001021A60002318464D
:102B90000C37BD465DF8047B7047000080B489B0F7
:102BA00000AF786039600023FB6100237B61002364
:102BB0003B610023BB610023FB6175E10122FB69DE
:102BC00002FA03F37B613B681B687A6913403B613F
:102BD0003A697B699A4240F064813B685B6803F024
:102BE0000303012B05D03B685B6803F00303022B52
:102BF00030D17B689B68BB61FB695B00032202FAF2
:102C000003F3DB43BA691340BB613B68DA68FB69D5
:102C10005B0002FA03F3BA691343BB617B68BA69CC
:102C20009A607B685B68BB610122FB6902FA03F36F
:102C3000DB43BA691340BB613B685B681B0903F067
:102C40000102FB6902FA03F3BA691343BB617B68B3
:102C5000BA695A603B685B6803F00303032B17D023
:102C60007B68DB68BB61FB695B00032202FA03F34C
:102C7000DB43BA691340BB613B689A68FB695B0040
:102C800002FA03F3BA691343BB617B68BA69DA607D
:102C90003B685B6803F00303022B23D1FB69DA086E
:102CA0007B68083253F82230BB61FB6903F00703ED
:102CB0009B000F2202FA03F3DB43BA691340BB61A6
:102CC0003B681A69FB6903F007039B0002FA03F3F0
:102CD000BA691343BB61FB69DA087B680832B969DA
:102CE00043F822107B681B68BB61FB695B00032211
:102CF00002FA03F3DB43BA691340BB613B685B68CC
:102D000003F00302FB695B0002FA03F3BA691343A1
:102D1000BB617B68BA691A603B685B6803F4403347
:102D2000002B00F0BE80664B5B6C654A43F4804329
:102D30005364634B5B6C03F48043FB60FB68614A44
:102D4000FB699B08023352F82330BB61FB6903F037
:102D500003039B000F2202FA03F3DB43BA6913401B
:102D6000BB617B68584A934237D07B68574A93428D
:102D700031D07B68564A93422BD07B68554A9342A8
:102D800025D07B68544A93421FD07B68534A9342B4
:102D900019D07B68524A934213D07B68514A9342C0
:102DA0000DD07B68504A934207D07B684F4A9342CC
:102DB00001D1092312E00A2310E008230EE00723C3
:102DC0000CE006230AE0052308E0042306E00323C1
:102DD00004E0022302E0012300E00023FA6902F08C
:102DE000030292009340BA691343BB613549FB6902
:102DF0009B080233BA6941F823203D4B9B68BB61B5
:102E00003B69DB43BA691340BB613B685B6803F411
:102E10008013002B03D0BA693B691343BB61344A6A
:102E2000BB699360324BDB68BB613B69DB43BA69CA
:102E30001340BB613B685B6803F40013002B03D0B5
:102E4000BA693B691343BB61294ABB69D360284B0C
:102E50005B68BB613B69DB43BA691340BB613B689C
:102E60005B6803F40033002B03D0BA693B6913435A
:102E7000BB611F4ABB6953601D4B1B68BB613B694B
:102E8000DB43BA691340BB613B685B6803F4803382
:102E9000002B03D0BA693B691343BB61144ABB6979
:102EA0001360FB690133FB61FB690F2B7FF686AE74
:102EB00000BF00BF2437BD465DF8047B704700BFEC
:102EC0000038024000380140000002400004024087
:102ED00000080240000C02400010024000140240B2
:102EE00000180240001C0240002002400024024062
:102EF000003C014080B483B000AF78600B467B801B
:102F000013467B707B78002B03D07A887B689A61AC
:102F100003E07B881A047B689A6100BF0C37BD46CA
:102F20005DF8047B7047000080B582B000AF0346B7
:102F3000FB80084B5A69FB881340002B06D0054ADA
:102F4000FB885361FB88184600F006F800BF08377D
:102F5000BD4680BD003C014080B483B000AF034655
:102F6000FB8000BF0C37BD465DF8047B7047000056
:102F700080B400AF054B1B68044A43F480731360B0
:102F800000BFBD465DF8047B704700BF0070004085
:102F900080B582B000AF00237B60234B1B6C224ABC
:102FA00043F080531364204B1B6C03F080533B6051
:102FB0003B681E4B1B681D4A43F480331360FFF7C8
:102FC00089FC786009E0FFF785FC02467B68D31A2C
:102FD000B3F57A7F01D9032322E0144B5B6803F435
:102FE0008033B3F5803FEED1104B1B680F4A43F49A
:102FF00000331360FFF76EFC786009E0FFF76AFCAE
:1030000002467B68D31AB3F57A7F01D9032307E020
:10301000064B5B6803F40033B3F5003FEED10023A9
:1030200018460837BD4680BD003802400070004099
:1030300080B586B000AF78600023FB757B68002BFD
:1030400001D1012391E27B681B6803F00103002B8F
:1030500000F08780964B9B6803F00C03042B0CD088
:10306000934B9B6803F00C03082B12D1904B5B68C9
:1030700003F48003B3F5800F0BD18D4B1B6803F471
:103080000033002B6CD07B685B68002B68D1012378
:103090006BE27B685B68B3F5803F06D1844B1B68AD
:1030A000834A43F4803313602EE07B685B68002B17
:1030B0000CD17F4B1B687E4A23F4803313607C4B1A
:1030C0001B687B4A23F4802313601DE07B685B68E8
:1030D000B3F5A02F0CD1764B1B68754A43F48023BF
:1030E0001360734B1B68724A43F4803313600BE028
:1030F0006F4B1B686E4A23F4803313606C4B1B6864
:103100006B4A23F4802313607B685B68002B13D029
:10311000FFF7E0FB386108E0FFF7DCFB02463B69A4
:10312000D31A642B01D903231FE2614B1B6803F4FC
:103130000033002BF0D014E0FFF7CCFB386108E03F
:10314000FFF7C8FB02463B69D31A642B01D903235E
:103150000BE2574B1B6803F40033002BF0D100E067
:1031600000BF7B681B6803F00203002B69D0504B43
:103170009B6803F00C03002B0BD04D4B9B6803F0B6
:103180000C03082B1CD14A4B5B6803F48003002B13
:1031900016D1474B1B6803F00203002B05D07B6858
:1031A000DB68012B01D00123DFE1414B1B6823F0D9
:1031B000F8027B681B69DB003D4913430B6040E06C
:1031C0007B68DB68002B23D0394B1B68384A43F0FF
:1031D00001031360FFF77EFB386108E0FFF77AFB1D
:1031E00002463B69D31A022B01D90323BDE1304BC0
:1031F0001B6803F00203002BF0D02D4B1B6823F05B
:10320000F8027B681B69DB00294913430B6018E057
:10321000274B1B68264A23F001031360FFF75AFB74
:10322000386108E0FFF756FB02463B69D31A022BD0
:1032300001D9032399E11E4B1B6803F00203002B05
:10324000F0D17B681B6803F00803002B38D07B6843
:103250005B69002B19D0164B5B6F154A43F00103D5
:103260005367FFF737FB386108E0FFF733FB02468F
:103270003B69D31A022B01D9032376E10C4B5B6F18
:1032800003F00203002BF0D01AE0094B5B6F084AF1
:1032900023F001035367FFF71DFB38610AE0FFF7D6
:1032A00019FB02463B69D31A022B03D903235CE1C5
:1032B00000380240914B5B6F03F00203002BEED10C
:1032C0007B681B6803F00403002B00F0A4808B4B89
:1032D0001B6C03F08053002B0DD1884B1B6C874A6D
:1032E00043F080531364854B1B6C03F08053BB6029
:1032F000BB680123FB75824B1B6803F48073002BB2
:1033000018D17F4B1B687E4A43F480731360FFF72C
:10331000E1FA386108E0FFF7DDFA02463B69D31AAB
:10332000642B01D9032320E1754B1B6803F48073E0
:10333000002BF0D07B689B68012B06D16F4B1B6F75
:103340006E4A43F0010313672DE07B689B68002BF6
:103350000CD16A4B1B6F694A23F001031367674B5B
:103360001B6F664A23F0040313671CE07B689B68AD
:10337000052B0CD1614B1B6F604A43F004031367AC
:103380005E4B1B6F5D4A43F0010313670BE05B4B21
:103390001B6F5A4A23F001031367584B1B6F574AA0
:1033A00023F0040313677B689B68002B15D0FFF79D
:1033B00091FA38610AE0FFF78DFA02463B69D31AA9
:1033C00041F28832934201D90323CEE04B4B1B6F6D
:1033D00003F00203002BEED014E0FFF77BFA386114
:1033E0000AE0FFF777FA02463B69D31A41F28832C6
:1033F000934201D90323B8E0404B1B6F03F0020353
:10340000002BEED1FB7D012B05D13C4B1B6C3B4AC5
:1034100023F0805313647B689B69002B00F0A48029
:10342000364B9B6803F00C03082B6BD07B689B69C1
:10343000022B49D1314B1B68304A23F08073136053
:10344000FFF748FA386108E0FFF744FA02463B69A3
:10345000D31A022B01D9032387E0284B1B6803F002
:103460000073002BF0D17B68DA697B681B6A1A4312
:103470007B685B6A9B011A437B689B6A5B08013B24
:103480001B041A437B68DB6A1B0613431B4A43F089
:1034900000535360194B1B68184A43F08073136044
:1034A000FFF718FA386108E0FFF714FA02463B69A3
:1034B000D31A022B01D9032357E0104B1B6803F0EA
:1034C0000073002BF0D04FE00C4B1B680B4A23F02D
:1034D00080731360FFF7FEF9386108E0FFF7FAF92F
:1034E00002463B69D31A022B01D903233DE0034B6B
:1034F0001B6803F00073002BF0D135E00038024068
:10350000007000401B4B5B68FB607B689B69012B74
:1035100028D0FB6803F480027B68DB699A4221D1E2
:10352000FB6803F03F027B681B6A9A421AD1FA6873
:1035300047F6C07313407A68526A9201934211D1E0
:10354000FB6803F440327B689B6A5B08013B1B0409
:103550009A4207D1FB6803F070627B68DB6A1B0646
:103560009A4201D0012300E0002318461837BD46D7
:1035700080BD00BF0038024080B584B000AF7860E5
:1035800039600023FB607B68002B01D10123D0E070
:103590006A4B1B6803F00F033A689A4210D9674BD5
:1035A0001B6823F00F0265493B6813430B60634BB4
:1035B0001B6803F00F033A689A4201D00123B8E078
:1035C0007B681B6803F00203002B20D07B681B681C
:1035D00003F00403002B05D0594B9B68584A43F471
:1035E000E05393607B681B6803F00803002B05D051
:1035F000534B9B68524A43F460439360504B9B6823
:1036000023F0F0027B689B684D4913438B607B6815
:103610001B6803F00103002B40D07B685B68012B23
:1036200007D1474B1B6803F40033002B15D101234E
:103630007FE07B685B68022B07D1414B1B6803F07E
:103640000073002B09D1012373E03D4B1B6803F08D
:103650000203002B01D101236BE0394B9B6823F05F
:1036600003027B685B68364913438B60FFF732F9CE
:10367000F8600AE0FFF72EF90246FB68D31A41F220
:103680008832934201D9032353E02D4B9B6803F00A
:103690000C027B685B689B009A42EBD1274B1B684E
:1036A00003F00F033A689A4210D2244B1B6823F0B0
:1036B0000F0222493B6813430B60204B1B6803F049
:1036C0000F033A689A4201D0012332E07B681B68FD
:1036D00003F00403002B08D0194B9B6823F4E0523D
:1036E0007B68DB68164913438B607B681B6803F0BB
:1036F0000803002B09D0124B9B6823F460427B68BF
:103700001B69DB000E4913438B6000F021F8024671
:103710000B4B9B681B0903F00F030A49CB5C22FA91
:1037200003F3094A1360094B1B681846FFF78EF82C
:10373000002318461037BD4680BD00BF003C024044
:1037400000380240A087000800000020040000208C
:103750002DE9B04F90B000AF00237B630023FB63E3
:1037600000233B630023BB63594B9B6803F00C03AE
:10377000082B0DD0082B00F2A180002B02D0042BC7
:1037800003D09BE0534BBB639BE0534BBB6398E080
:103790004F4B5B6803F03F037B634D4B5B6803F467
:1037A0008003002B28D04A4B5B689B0900223B62B8
:1037B0007A623B6AC3F308000021474B03FB01F226
:1037C000002300FB03F31344434AA0FB0212FA62F6
:1037D0000A46BA62FA6A1344FB627B6B0022BB6141
:1037E000FA61D7E90623D7E90A01FDF7FDF9024698
:1037F0000B461346FB6353E0354B5B689B09002285
:103800003B617A613B69C3F3080A4FF0000B5246F3
:103810005B464FF000004FF00001590141EAD261D0
:10382000500102460B46B2EB0A0863EB0B094FF05E
:1038300000024FF000034FEA891343EA98634FEA0E
:103840008812B2EB080463EB09054FF000024FF059
:103850000003EB0043EA5473E20014461D4614EBE8
:103860000A033B6045EB0B037B604FF000024FF017
:103870000003D7E9004529468B02214643EA9153CC
:1038800021468A02104619467B6B0022BB60FA6013
:10389000D7E90223FDF7A8F902460B461346FB635E
:1038A0000B4B5B681B0C03F0030301335B003B63B2
:1038B000FA6B3B6BB2FBF3F3BB6302E0054BBB63FC
:1038C00000BFBB6B18464037BD46BDE8B08F00BF98
:1038D000003802400024F40040787D0180B400AF3D
:1038E000034B1B681846BD465DF8047B704700BF5C
:1038F0000000002080B500AFFFF7F0FF0246054B47
:103900009B689B0A03F007030349CB5C22FA03F38D
:10391000184680BD00380240B087000880B500AF6F
:10392000FFF7DCFF0246054B9B685B0B03F00703C8
:103930000349CB5C22FA03F3184680BD00380240ED
:10394000B087000880B588B000AF786000237B6145
:1039500000233B610023FB600023FB610023BB616C
:103960007B681B6803F00103002B12D0694B9B6836
:10397000684A23F400039360664B9A687B685B6B2C
:10398000644913438B607B685B6B002B01D101237F
:10399000FB617B681B6803F40023002B17D05D4B91
:1039A000D3F88C3023F440127B68DB6B5949134306
:1039B000C1F88C307B68DB6BB3F5801F01D101232C
:1039C000FB617B68DB6B002B01D10123BB617B6852
:1039D0001B6803F48013002B17D04E4BD3F88C30A8
:1039E00023F440027B681B6C4A491343C1F88C30B6
:1039F0007B681B6CB3F5800F01D10123FB617B68F1
:103A00001B6C002B01D10123BB617B681B6803F099
:103A10008073002B01D00123FB617B681B6803F0DE
:103A20002003002B00F08B803A4B1B6C394A43F08B
:103A300080531364374B1B6C03F08053BB60BB682F
:103A4000354B1B68344A43F480731360FEF742FF22
:103A5000786108E0FEF73EFF02467B69D31A642BCB
:103A600001D9032357E32C4B1B6803F48073002B0D
:103A7000F0D0284B1B6F03F440733B613B69002B74
:103A800035D07B681B6B03F440733A699A422ED0A1
:103A9000204B1B6F23F440733B611E4B1B6F1D4A71
:103AA00043F4803313671B4B1B6F1A4A23F4803394
:103AB0001367184A3B691367164B1B6F03F001032A
:103AC000012B14D1FEF706FF78610AE0FEF702FF32
:103AD00002467B69D31A41F28832934201D903230B
:103AE00019E30C4B1B6F03F00203002BEED07B6835
:103AF0001B6B03F44073B3F5407F11D1054B9B68FA
:103B000023F4F8127B68196B044B0B4001491343F3
:103B10008B600BE00038024000700040FFFCFF0F9C
:103B2000AA4B9B68A94A23F4F8139360A74B1A6F1A
:103B30007B681B6BC3F30B03A44913430B677B68C0
:103B40001B6803F01003002B10D0A04BD3F88C306F
:103B50009E4A23F08073C2F88C309C4BD3F88C20A3
:103B60007B689B6B99491343C1F88C307B681B6859
:103B700003F48043002B0AD0944BD3F8903023F405
:103B800040327B685B6E91491343C1F890307B688B
:103B90001B6803F40043002B0AD08C4BD3F8903001
:103BA00023F440227B689B6E88491343C1F8903010
:103BB0007B681B6803F48033002B0AD0834BD3F857
:103BC000903023F440127B68DB6E80491343C1F8C8
:103BD00090307B681B6803F40033002B0AD07B4BCA
:103BE000D3F8903023F440027B681B6F774913436E
:103BF000C1F890307B681B6803F04003002B0AD0AB
:103C0000724BD3F8903023F003027B685B6C6F49F2
:103C10001343C1F890307B681B6803F08003002BCE
:103C20000AD06A4BD3F8903023F00C027B689B6C6F
:103C300066491343C1F890307B681B6803F48073B6
:103C4000002B0AD0614BD3F8903023F030027B6810
:103C5000DB6C5E491343C1F890307B681B6803F44A
:103C60000073002B0AD0594BD3F8903023F0C002D8
:103C70007B681B6D55491343C1F890307B681B6806
:103C800003F48063002B0AD0504BD3F8903023F418
:103C900040727B685B6D4D491343C1F890307B687F
:103CA0001B6803F40063002B0AD0484BD3F8903014
:103CB00023F440627B689B6D44491343C1F8903004
:103CC0007B681B6803F48053002B0AD03F4BD3F86A
:103CD000903023F440527B68DB6D3C491343C1F8BC
:103CE00090307B681B6803F40053002B0AD0374BDD
:103CF000D3F8903023F440427B681B6E3349134362
:103D0000C1F890307B681B6803F48003002B0AD055
:103D10002E4BD3F8903023F080627B689B6F2B4949
:103D20001343C1F890307B681B6803F40013002B29
:103D300011D0264BD3F8903023F000627B68DB6F04
:103D400022491343C1F890307B68DB6FB3F1006FF9
:103D500001D10123BB617B681B6803F00803002BC2
:103D600001D00123BB617B681B6803F48023002B17
:103D70000AD0164BD3F8903023F040727B685B6F0B
:103D800012491343C1F890307B681B6803F40003A9
:103D9000002B0BD00D4BD3F8903023F080527B6872
:103DA000D3F8803009491343C1F89030FB69012BE7
:103DB00006D07B681B6803F00073002B00F0D980ED
:103DC000024B1B68014A23F0806301E00038024087
:103DD0001360FEF77FFD786108E0FEF77BFD024689
:103DE0007B69D31A642B01D9032394E16C4B1B68C4
:103DF00003F00063002BF0D17B681B6803F0010324
:103E0000002B21D07B685B6B002B1DD1644BD3F85A
:103E100084301B0C03F003033B61614BD3F8843007
:103E20001B0E03F00F03FB607B685B689A013B6924
:103E30001B041A43FB681B061A437B689B681B071D
:103E400057491343C1F884307B681B6803F400238F
:103E5000002B04D07B68DB6BB3F5801F0AD07B6836
:103E60001B6803F48013002B2ED07B681B6CB3F50A
:103E7000800F29D14A4BD3F884301B0C03F0030385
:103E80003B61474BD3F884301B0F03F00703FB6003
:103E90007B685B689A013B691B041A437B68DB689B
:103EA0001B061A43FB681B073D491343C1F88430C6
:103EB0003B4BD3F88C3023F01F027B685B6A013BDD
:103EC00037491343C1F88C307B681B6803F080735B
:103ED000002B1DD0324BD3F884301B0E03F00F03A0
:103EE0003B612F4BD3F884301B0F03F00703FB60BB
:103EF0007B685B689A017B681B691B041A433B69FA
:103F00001B061A43FB681B0725491343C1F884307D
:103F10007B681B6803F00073002B11D07B685B6823
:103F20009A017B681B691B041A437B68DB681B06CC
:103F30001A437B689B681B0719491343C1F88430F7
:103F4000174B1B68164A43F080631360FEF7C2FCF0
:103F5000786108E0FEF7BEFC02467B69D31A642B49
:103F600001D90323D7E00E4B1B6803F00063002B3D
:103F7000F0D0BB69012B40F0CD80094B1B68084A8B
:103F800023F080531360FEF7A5FC78610AE0FEF78A
:103F9000A1FC02467B69D31A642B03D90323BAE040
:103FA000003802405E4B1B6803F00053B3F1005F22
:103FB000EDD07B681B6803F40023002B03D07B68E3
:103FC000DB6B002B09D07B681B6803F48013002B8C
:103FD0002ED07B681B6C002B2AD1514BD3F8883034
:103FE0001B0C03F003033B614D4BD3F888301B0FD0
:103FF00003F00703FB607B685B699A013B691B0464
:104000001A437B689B691B061A43FB681B074449DC
:104010001343C1F88830424BD3F88C3023F4F85264
:104020007B689B6A013B1B023D491343C1F88C30FE
:104030007B681B6803F40013002B22D07B68DB6FC6
:10404000B3F1006F1DD1364BD3F888301B0E03F04F
:104050000F033B61324BD3F888301B0F03F007038B
:10406000FB607B685B699A017B681B6A1B041A43CF
:104070003B691B061A43FB681B0729491343C1F818
:1040800088307B681B6803F00803002B28D0244B82
:10409000D3F888301B0E03F00F033B61204BD3F89D
:1040A00088301B0C03F00303FB607B685B699A019B
:1040B000FB681B041A433B691B061A437B68DB69D8
:1040C0001B0717491343C1F88830154BD3F88C30C0
:1040D00023F440327B68DB6A11491343C1F88C300A
:1040E0000F4B1B680E4A43F080531360FEF7F2FB40
:1040F000786108E0FEF7EEFB02467B69D31A642B79
:1041000001D9032307E0064B1B6803F00053B3F10A
:10411000005FEFD1002318462037BD4680BD00BFA9
:104120000038024080B584B000AF78607B68002B17
:1041300001D101239DE07B685B6A002B08D17B687D
:104140005B68B3F5827F09D07B680022DA6105E005
:104150007B6800221A617B6800225A617B6800221A
:104160009A627B6893F85D30DBB2002B06D17B68E6
:10417000002283F85C207868FEF72EF97B68022223
:1041800083F85D207B681B681A687B681B6822F0D7
:1041900040021A607B68DB68B3F5E06F02D9002348
:1041A000FB6002E04FF48053FB607B68DB68B3F593
:1041B000706F07D07B68DB68B3F5E06F02D07B6877
:1041C00000229A627B685B6803F482727B689B685A
:1041D00003F404431A437B681B6903F002031A4388
:1041E0007B685B6903F001031A437B689B6903F4F6
:1041F00000731A437B68DB6903F038031A437B685A
:104200001B6A03F0800342EA03017B689B6A03F4A4
:1042100000527B681B680A431A607B689B691B0C11
:1042200003F004027B685B6A03F010031A437B68A7
:104230005B6B03F008031A437B68DB6803F470636D
:1042400042EA0301FB6803F480527B681B680A435F
:104250005A607B681B68DA697B681B6822F400621D
:10426000DA617B6800221A667B68012283F85D2090
:10427000002318461037BD4680BD80B588B000AF1A
:10428000F860B9603B601346FB80FEF723FBF861E2
:10429000FB887B83FB6893F85D30DBB2012B01D098
:1042A00002235CE1BB68002B02D0FB88002B01D10C
:1042B000012354E1FB6893F85C30012B01D1022308
:1042C0004DE1FB68012283F85C20FB68032283F840
:1042D0005D20FB6800221A66FB68BA689A63FB6877
:1042E000FA889A87FB68FA88DA87FB6800221A64E2
:1042F000FB680022A3F84420FB680022A3F84620B4
:10430000FB6800221A65FB680022DA64FB689B6880
:10431000B3F5004F0FD1FB681B681A68FB681B6878
:1043200022F040021A60FB681B681A68FB681B6871
:1043300042F480421A60FB681B681B6803F040036C
:10434000402B07D0FB681B681A68FB681B6842F0AB
:1043500040021A60FB68DB68B3F5E06F52D9FB6876
:104360005B68002B02D07B8B012B45D1FB689B6BDC
:104370001A88FB681B68DA60FB689B6B9A1CFB68F9
:104380009A63FB68DB8F9BB2013B9AB2FB68DA87CA
:1043900032E0FB681B689B6803F00203022B12D11A
:1043A000FB689B6B1A88FB681B68DA60FB689B6B79
:1043B0009A1CFB689A63FB68DB8F9BB2013B9AB245
:1043C000FB68DA8718E0FEF785FA0246FB69D31A24
:1043D0003A689A4203D83B68B3F1FF3F02D13B6889
:1043E000002B09D1FB68012283F85D20FB680022C5
:1043F00083F85C200323B2E0FB68DB8F9BB2002BC9
:10440000C7D183E0FB685B68002B02D07B8B012B5C
:1044100077D1FB68DB8F9BB2012B12D9FB689B6BBA
:104420001A88FB681B68DA60FB689B6B9A1CFB6848
:104430009A63FB68DB8F9BB2023B9AB2FB68DA8718
:104440005FE0FB689A6BFB681B680C3312781A708C
:10445000FB689B6B5A1CFB689A63FB68DB8F9BB203
:10446000013B9AB2FB68DA874BE0FB681B689B68EC
:1044700003F00203022B2BD1FB68DB8F9BB2012BD5
:1044800012D9FB689B6B1A88FB681B68DA60FB68B3
:104490009B6B9A1CFB689A63FB68DB8F9BB2023BA9
:1044A0009AB2FB68DA872CE0FB689A6BFB681B68A2
:1044B0000C3312781A70FB689B6B5A1CFB689A636A
:1044C000FB68DB8F9BB2013B9AB2FB68DA8718E08E
:1044D000FEF700FA0246FB69D31A3A689A4203D8FB
:1044E0003B68B3F1FF3F02D13B68002B09D1FB6869
:1044F000012283F85D20FB68002283F85C200323FF
:104500002DE0FB68DB8F9BB2002BAED1FA693968D6
:10451000F86800F047FE0346002B02D0FB6820221B
:104520001A66FB689B68002B0AD100237B61FB683D
:104530001B68DB687B61FB681B689B687B617B6930
:10454000FB68012283F85D20FB68002283F85C2071
:10455000FB681B6E002B01D0012300E000231846EE
:104560002037BD4680BD80B588B002AFF860B96025
:104570003B601346FB80FB6893F85D30DBB2012B98
:1045800001D0022323E1BB68002B02D0FB88002B63
:1045900001D101231BE1FB685B68B3F5827F12D177
:1045A000FB689B68002B0ED1FB68042283F85D201A
:1045B000FA883B6800931346BA68B968F86800F057
:1045C0000AF9034603E1FEF785F97861FB6893F881
:1045D0005C30012B01D10223F9E0FB68012283F852
:1045E0005C20FB68042283F85D20FB6800221A66C9
:1045F000FB68BA681A64FB68FA88A3F84420FB6871
:10460000FA88A3F84620FB6800229A63FB68002220
:104610009A87FB680022DA87FB680022DA64FB686D
:1046200000221A65FB68DB68B3F5E06F08D9FB6808
:104630001B685A68FB681B6822F480525A6007E0C6
:10464000FB681B685A68FB681B6842F480525A601A
:10465000FB689B68B3F5004F0FD1FB681B681A68B5
:10466000FB681B6822F040021A60FB681B681A682E
:10467000FB681B6822F480421A60FB681B681B6899
:1046800003F04003402B07D0FB681B681A68FB68E7
:104690001B6842F040021A60FB68DB68B3F5E06F0C
:1046A00075D837E0FB681B689B6803F00103012B9A
:1046B00017D1FB681B6803F10C02FB681B6C1278B6
:1046C000D2B21A70FB681B6C5A1CFB681A64FB6838
:1046D000B3F846309BB2013B9AB2FB68A3F8462080
:1046E00018E0FEF7F7F802467B69D31A3A689A4257
:1046F00003D83B68B3F1FF3F02D13B68002B09D1DF
:10470000FB68012283F85D20FB68002283F85C20AF
:1047100003235CE0FB68B3F846309BB2002BC1D1A9
:104720003BE0FB681B689B6803F00103012B15D17C
:10473000FB681B68DA68FB681B6C92B21A80FB6826
:104740001B6C9A1CFB681A64FB68B3F846309BB27A
:10475000013B9AB2FB68A3F8462018E0FEF7BAF8CE
:1047600002467B69D31A3A689A4203D83B68B3F190
:10477000FF3F02D13B68002B09D1FB68012283F87F
:104780005D20FB68002283F85C2003231FE0FB68A8
:10479000B3F846309BB2002BC3D17A693968F86808
:1047A00000F084FC0346002B02D0FB6820221A662E
:1047B000FB68012283F85D20FB68002283F85C20FF
:1047C000FB681B6E002B01D0012300E0002318467C
:1047D0001837BD4680BD80B58AB000AFF860B960BB
:1047E0007A607B8001237B62FEF774F83862FB6895
:1047F00093F85D30FB77FB685B68BB617B88FB826D
:104800007B88BB82FB7F012B0CD0BB69B3F5827F19
:1048100006D1FB689B68002B02D1FB7F042B01D0E3
:104820000223F3E1BB68002B05D07B68002B02D08C
:104830007B88002B01D10123E8E1FB6893F85C3011
:10484000012B01D10223E1E1FB68012283F85C2006
:10485000FB6893F85D30DBB2042B03D0FB680522C4
:1048600083F85D20FB6800221A66FB687A681A6488
:10487000FB687A88A3F84620FB687A88A3F844206E
:10488000FB68BA689A63FB687A88DA87FB687A887B
:104890009A87FB680022DA64FB6800221A65FB68CD
:1048A000DB68B3F5E06F02D8BB8A012B08D9FB683F
:1048B0001B685A68FB681B6822F480525A6007E044
:1048C000FB681B685A68FB681B6842F480525A6098
:1048D000FB681B681B6803F04003402B07D0FB6894
:1048E0001B681A68FB681B6842F040021A60FB688C
:1048F000DB68B3F5E06F40F28380FB685B68002BF8
:1049000002D0FB8A012B6FD1FB689B6B1A88FB6876
:104910001B68DA60FB689B6B9A1CFB689A63FB68F8
:10492000DB8F9BB2013B9AB2FB68DA875CE0FB68E5
:104930001B689B6803F00203022B1BD1FB68DB8F13
:104940009BB2002B16D07B6A012B13D1FB689B6BAB
:104950001A88FB681B68DA60FB689B6B9A1CFB6813
:104960009A63FB68DB8F9BB2013B9AB2FB68DA87E4
:1049700000237B62FB681B689B6803F00103012B2B
:104980001CD1FB68B3F846309BB2002B16D0FB68F5
:104990001B68DA68FB681B6C92B21A80FB681B6CA0
:1049A0009A1CFB681A64FB68B3F846309BB2013B63
:1049B0009AB2FB68A3F8462001237B62FDF78AFFC9
:1049C00002463B6AD31A3A6B9A420DD83B6BB3F15D
:1049D000FF3F09D0FB68012283F85D20FB680022BD
:1049E00083F85C20032311E1FB68DB8F9BB2002B73
:1049F0009DD1FB68B3F846309BB2002B97D1E5E020
:104A0000FB685B68002B03D0FB8A012B40F0D18050
:104A1000FB68DB8F9BB2012B12D9FB689B6B1A885A
:104A2000FB681B68DA60FB689B6B9A1CFB689A63E7
:104A3000FB68DB8F9BB2023B9AB2FB68DA87B8E077
:104A4000FB689A6BFB681B680C3312781A70FB6862
:104A50009B6B5A1CFB689A63FB68DB8F9BB2013B24
:104A60009AB2FB68DA87A4E0FB681B689B6803F0D6
:104A70000203022B34D1FB68DB8F9BB2002B2FD0BB
:104A80007B6A012B2CD1FB68DB8F9BB2012B12D9E7
:104A9000FB689B6B1A88FB681B68DA60FB689B6B82
:104AA0009A1CFB689A63FB68DB8F9BB2023B9AB24D
:104AB000FB68DA8712E0FB689A6BFB681B680C33B3
:104AC00012781A70FB689B6B5A1CFB689A63FB6830
:104AD000DB8F9BB2013B9AB2FB68DA8700237B62D3
:104AE000FB681B689B6803F00103012B48D1FB683E
:104AF000B3F846309BB2002B42D0FB68B3F8463087
:104B00009BB2012B23D9FB681B68DA68FB681B6C1E
:104B100092B21A80FB681B6C9A1CFB681A64FB68D3
:104B2000B3F846309BB2023B9AB2FB68A3F846202A
:104B3000FB68B3F846309BB2012B1FD8FB681B689B
:104B40005A68FB681B6842F480525A6016E0FB68A2
:104B50001B6803F10C02FB681B6C1278D2B21A704E
:104B6000FB681B6C5A1CFB681A64FB68B3F8463080
:104B70009BB2013B9AB2FB68A3F8462001237B62FB
:104B8000FDF7A8FE02463B6AD31A3A6B9A4203D855
:104B90003B6BB3F1FF3F02D13B6B002B09D1FB68AC
:104BA000012283F85D20FB68002283F85C20032348
:104BB0002CE0FB68DB8F9BB2002B7FF455AFFB68CA
:104BC000B3F846309BB2002B7FF44EAF3A6A396B94
:104BD000F86800F0E7FA0346002B08D0FB682022B3
:104BE0001A66FB68002283F85C2001230EE0FB6854
:104BF000012283F85D20FB68002283F85C20FB68BB
:104C00001B6E002B01D0012300E00023184628373B
:104C1000BD4680BD80B588B000AF78607B681B68FA
:104C20005B68FB617B681B689B68BB61BB699B0918
:104C300003F00103002B0FD1BB6903F00103002B2C
:104C40000AD0FB699B0903F00103002B04D07B68A9
:104C5000DB6C78689847D7E0BB695B0803F0010319
:104C6000002B0AD0FB69DB0903F00103002B04D001
:104C70007B681B6D78689847C6E0BB695B0903F0E9
:104C80000103002B0CD1BB699B0903F00103002B2E
:104C900006D1BB691B0A03F00103002B00F0B480AE
:104CA000FB695B0903F00103002B00F0AD80BB69D9
:104CB0009B0903F00103002B23D07B6893F85D3040
:104CC000DBB2032B11D07B681B6E43F004027B68C0
:104CD0001A6600237B617B681B68DB687B617B68ED
:104CE0001B689B687B617B690BE000233B617B68F1
:104CF0001B68DB683B617B681B689B683B613B69A9
:104D000082E0BB695B0903F00103002B14D07B68D0
:104D10001B6E43F001027B681A660023FB607B6810
:104D20001B689B68FB607B681B681A687B681B6854
:104D300022F040021A60FB68BB691B0A03F0010302
:104D4000002B0CD07B681B6E43F008027B681A6650
:104D50000023BB607B681B689B68BB60BB687B688B
:104D60001B6E002B4FD07B681B685A687B681B68E2
:104D700022F0E0025A607B68012283F85D20FB6923
:104D800003F00203002B04D1FB6903F00103002BA5
:104D900034D07B681B685A687B681B6822F003026A
:104DA0005A607B689B6D002B11D07B689B6D184A05
:104DB0001A657B689B6D1846FDF7CDFE0346002BF8
:104DC00005D07B681B6E43F040027B681A667B68E7
:104DD0005B6D002B16D07B685B6D0D4A1A657B6896
:104DE0005B6D1846FDF7B7FE0346002B0AD07B68C3
:104DF0001B6E43F040027B681A6603E0786800F09F
:104E000009F800E000BF00BF2037BD4680BD00BFED
:104E1000454E000880B483B000AF786000BF0C3707
:104E2000BD465DF8047B704780B483B000AF786006
:104E30007B6893F85D30DBB218460C37BD465DF8F1
:104E4000047B704780B584B000AF78607B689B6B53
:104E5000FB60FB680022A3F84620FB680022DA878B
:104E6000F868FFF7D7FF00BF1037BD4680BD0000D0
:104E700080B588B000AFF860B9603B601346FB7145
:104E8000FDF728FD0246BB6A9B1A3A681344FB6192
:104E9000FDF720FDB861394B1B685B011B0DFA69FA
:104EA00002FB03F37B6155E03B68B3F1FF3F51D058
:104EB000FDF710FD0246BB69D31AFA699A4202D97E
:104EC000FB69002B3DD1FB681B685A68FB681B68B7
:104ED00022F0E0025A60FB685B68B3F5827F11D173
:104EE000FB689B68B3F5004F04D0FB689B68B3F583
:104EF000806F07D1FB681B681A68FB681B6822F08B
:104F000040021A60FB689B6AB3F5005F0FD1FB6833
:104F10001B681A68FB681B6822F400521A60FB6861
:104F20001B681A68FB681B6842F400521A60FB6831
:104F3000012283F85D20FB68002283F85C200323B4
:104F400018E07B69002B02D10023FB6102E07B6942
:104F5000013B7B61FB681B689A68BB681340BA68B9
:104F60009A420CBF01230023DBB21A46FB799A4216
:104F70009AD1002318462037BD4680BD000000208E
:104F800080B58AB000AFF860B9607A603B600023FA
:104F9000FB75FDF79FFC02463B6B9B1A3A68134476
:104FA0007B62FDF797FC3862FB681B680C33FB6182
:104FB0003D4B1A6813469B001344DA00D31A1B0DAD
:104FC0007A6A02FB03F3BB6161E0BB68B3F5C06FB3
:104FD00007D17B68002B04D1FB691B78DBB2FB7522
:104FE000FB7D3B68B3F1FF3F51D0FDF773FC0246F8
:104FF0003B6AD31A7A6A9A4202D97B6A002B3DD166
:10500000FB681B685A68FB681B6822F0E0025A6064
:10501000FB685B68B3F5827F11D1FB689B68B3F5D1
:10502000004F04D0FB689B68B3F5806F07D1FB6825
:105030001B681A68FB681B6822F040021A60FB6854
:105040009B6AB3F5005F0FD1FB681B681A68FB68A9
:105050001B6822F400521A60FB681B681A68FB6820
:105060001B6842F400521A60FB68012283F85D203D
:10507000FB68002283F85C20032311E0BB69002B4E
:1050800002D100237B6202E0BB69013BBB61FB688C
:105090001B689A68BB6813407A689A4295D10023CE
:1050A00018462837BD4680BD0000002080B588B076
:1050B00002AFF860B9607A60FB685B68B3F5827F25
:1050C00011D1FB689B68B3F5004F04D0FB689B6867
:1050D000B3F5806F07D1FB681B681A68FB681B6813
:1050E00022F040021A60FB685B68B3F5827F12D140
:1050F0007B680093BB6800228021F868FFF7B8FE48
:105100000346002B21D0FB681B6E43F02002FB6896
:105110001A6603233DE0214B1B68214AA2FB0323AF
:105120005B0D4FF47A7202FB03F37B617B69002B0A
:105130000AD07B69013B7B61FB681B689B6803F0BD
:105140008003802BF2D000E000BFFB685B68B3F502
:10515000827F1DD1FB689B68B3F5004F04D0FB68CC
:105160009B68B3F5806F13D17B680093BB68002206
:105170004FF4C061F868FFF703FF0346002B07D028
:10518000FB681B6E43F02002FB681A66032300E0F5
:10519000002318461837BD4680BD00BF0000002020
:1051A000819F5E1680B588B002AFF860B9607A6002
:1051B0007B680093BB6800224FF4C051F868FFF78A
:1051C000DFFE0346002B07D0FB681B6E43F0200276
:1051D000FB681A66032346E0254B1B68254AA2FBA1
:1051E00003235B0D4FF47A7202FB03F37B61FB68D0
:1051F0005B68B3F5827F12D17B680093BB680022A5
:105200008021F868FFF734FE0346002B16D0FB68B8
:105210001B6E43F02002FB681A66032323E07B69C0
:10522000002B0AD07B69013B7B61FB681B689B6894
:1052300003F08003802BF2D000E000BF7B68009376
:10524000BB6800224FF4C061F868FFF799FE03467F
:10525000002B07D0FB681B6E43F02002FB681A6628
:10526000032300E0002318461837BD4680BD00BF69
:1052700000000020819F5E1680B582B000AF78608C
:105280007B68002B01D1012340E07B68DB6F002BA2
:1052900006D17B68002283F878207868FDF706F94C
:1052A0007B682422DA677B681B681A687B681B6846
:1052B00022F001021A607B685B6A002B02D07868DA
:1052C00000F016FB786800F0AFF80346012B01D11F
:1052D00001231BE07B681B685A687B681B6822F40B
:1052E00090425A607B681B689A687B681B6822F052
:1052F0002A029A607B681B681A687B681B6842F008
:1053000001021A60786800F095FB034618460837DA
:10531000BD4680BD80B58AB002AFF860B9603B6021
:105320001346FB80FB68DB6F202B77D1BB68002B1B
:1053300002D0FB88002B01D1012370E0FB68002222
:10534000C3F88420FB682122DA67FDF7C3FA78618D
:10535000FB68FA88A3F85020FB68FA88A3F852206B
:10536000FB689B68B3F5805F08D1FB681B69002B65
:1053700004D10023FB61BB68BB6103E0BB68FB6138
:105380000023BB612FE03B6800937B6900228021F2
:10539000F86800F0A6FB0346002B04D0FB6820222F
:1053A000DA6703233BE0FB69002B0BD1BB691B8849
:1053B0001A46FB681B68C2F308029A62BB69023393
:1053C000BB6107E0FB691A78FB681B689A62FB699E
:1053D0000133FB61FB68B3F852309BB2013B9AB2D8
:1053E000FB68A3F85220FB68B3F852309BB2002B45
:1053F000C9D13B6800937B6900224021F86800F026
:1054000070FB0346002B04D0FB682022DA670323DD
:1054100005E0FB682022DA67002300E0022318463B
:105420002037BD4680BD000080B588B000AF7860F1
:105430000023BB777B689A687B681B691A437B688B
:105440005B691A437B68DB6913437B617B681B687C
:105450001A68A64B13407A68126879690B43136087
:105460007B681B685B6823F440517B68DA687B6863
:105470001B680A435A607B689B697B617B681B6A77
:105480007A6913437B617B681B689B6823F43061F6
:105490007B681B687A690A439A607B681B68944A38
:1054A000934220D1934BD3F8903003F00303032BA6
:1054B00016D801A252F823F0C9540008D5540008A8
:1054C000CF540008DB5400080123FB7750E102238E
:1054D000FB774DE10423FB774AE10823FB7747E1A3
:1054E0001023FB7744E17B681B68834A934232D1E7
:1054F000804BD3F8903003F00C030C2B28D801A27A
:1055000052F823F03955000851550008515500084C
:1055100051550008455500085155000851550008DF
:10552000515500083F5500085155000851550008D5
:10553000515500084B5500080023FB7718E1022362
:10554000FB7715E10423FB7712E10823FB770FE1DA
:105550001023FB770CE17B681B68684A934220D1DB
:10556000644BD3F8903003F03003302B13D0302B42
:1055700014D8202B09D0202B10D8002B02D0102BB0
:1055800006D00BE00023FB77F2E00223FB77EFE08D
:105590000423FB77ECE00823FB77E9E01023FB779B
:1055A000E6E07B681B68564A934220D1514BD3F802
:1055B000903003F0C003C02B13D0C02B14D8802B25
:1055C00009D0802B10D8002B02D0402B06D00BE046
:1055D0000023FB77CCE00223FB77C9E00423FB77B1
:1055E000C6E00823FB77C3E01023FB77C0E07B68AD
:1055F0001B68444A934225D13E4BD3F8903003F4C4
:105600004073B3F5407F17D0B3F5407F17D8B3F59B
:10561000007F0BD0B3F5007F11D8002B03D0B3F57A
:10562000807F06D00BE00023FB77A1E00223FB770D
:105630009EE00423FB779BE00823FB7798E0102390
:10564000FB7795E07B681B682F4A934225D1294B55
:10565000D3F8903003F44063B3F5406F17D0B3F53F
:10566000406F17D8B3F5006F0BD0B3F5006F11D8AA
:10567000002B03D0B3F5806F06D00BE00123FB773E
:1056800076E00223FB7773E00423FB7770E00823C6
:10569000FB776DE01023FB776AE07B681B681B4A91
:1056A000934238D1134BD3F8903003F44053B3F501
:1056B000405F17D0B3F5405F2AD8B3F5005F0BD039
:1056C000B3F5005F24D8002B03D0B3F5805F06D07C
:1056D0001EE00023FB774BE00223FB7748E0042326
:1056E000FB7745E00823FB7742E000BFF369FFEF5B
:1056F00000100140003802400044004000480040D3
:10570000004C004000500040001401400078004070
:105710001023FB772CE07B681B68724A934225D1EB
:10572000714BD3F8903003F44043B3F5404F17D09A
:10573000B3F5404F17D8B3F5004F0BD0B3F5004F7A
:1057400011D8002B03D0B3F5804F06D00BE0002317
:10575000FB770DE00223FB770AE00423FB7707E0E9
:105760000823FB7704E01023FB7701E01023FB778D
:105770007B68DB69B3F5004F5BD1FB7F082B28D832
:1057800001A252F823F000BFAD570008B55700083A
:10579000BD570008D3570008C3570008D357000867
:1057A000D3570008D3570008CB570008FEF7A2F8DC
:1057B000B86113E0FEF7B2F8B8610FE04B4BBB6184
:1057C0000CE0FDF7C5FFB86108E04FF40043BB6192
:1057D00004E00023BB610123BB7700BFBB69002B42
:1057E00074D0BB695A007B685B685B081A447B68AD
:1057F0005B68B2FBF3F33B613B690F2B16D93B6946
:10580000B3F5803F12D23B699BB223F00F03FB81BB
:105810003B695B089BB203F007039AB2FB89134311
:10582000FB817B681B68FA89DA604FE00123BB7754
:105830004CE0FB7F082B28D801A252F823F000BFD0
:10584000655800086D580008755800088B58000806
:105850007B5800088B5800088B5800088B580008AC
:1058600083580008FEF746F8B86113E0FEF756F8D3
:10587000B8610FE01D4BBB610CE0FDF769FFB8613B
:1058800008E04FF40043BB6104E00023BB61012347
:10589000BB7700BFBB69002B18D07B685B685A08D8
:1058A000BB691A447B685B68B2FBF3F33B613B69FD
:1058B0000F2B09D93B69B3F5803F05D23B699AB2FA
:1058C0007B681B68DA6001E00123BB777B680022FC
:1058D0009A667B680022DA66BB7F18462037BD4691
:1058E00080BD00BF007C0040003802400024F4006E
:1058F00080B483B000AF78607B685B6A03F0080314
:10590000002B0AD07B681B685B6823F400417B682E
:105910005A6B7B681B680A435A607B685B6A03F0BA
:105920000103002B0AD07B681B685B6823F40031FD
:105930007B689A6A7B681B680A435A607B685B6A6B
:1059400003F00203002B0AD07B681B685B6823F41A
:1059500080317B68DA6A7B681B680A435A607B681F
:105960005B6A03F00403002B0AD07B681B685B684A
:1059700023F480217B681A6B7B681B680A435A609A
:105980007B685B6A03F01003002B0AD07B681B68FE
:105990009B6823F480517B689A6B7B681B680A4381
:1059A0009A607B685B6A03F02003002B0AD07B6857
:1059B0001B689B6823F400517B68DA6B7B681B686B
:1059C0000A439A607B685B6A03F04003002B1AD09D
:1059D0007B681B685B6823F480117B681A6C7B68AA
:1059E0001B680A435A607B681B6CB3F5801F0AD1A1
:1059F0007B681B685B6823F4C0017B685A6C7B681A
:105A00001B680A435A607B685B6A03F08003002BC3
:105A10000AD07B681B685B6823F400217B689A6C62
:105A20007B681B680A435A6000BF0C37BD465DF8AF
:105A3000047B704780B58CB002AF78607B68002231
:105A4000C3F88420FCF746FF78627B681B681B68FC
:105A500003F00803082B2ED16FF07E4300937B6A7E
:105A600000224FF40011786800F03BF80346002B49
:105A700021D07B681B683B613B6953E8003FFB60BA
:105A8000FB6823F080033B627B681B681A463B6A15
:105A9000FB61BA61B969FA6941E800237B617B69FE
:105AA000002BE6D17B682022DA677B68002283F82E
:105AB0007820032311E07B682022DA677B682022AC
:105AC000C3F880207B6800221A667B6800225A6631
:105AD0007B68002283F87820002318462837BD46CB
