:020000040800F2
:1000000000000520010B000839090008410900081B
:1000100049090008510900085909000800000000BA
:10002000000000000000000000000000610900085E
:100030006F090008000000007D0900088B09000816
:10004000510B0008510B0008510B0008510B000820
:10005000510B0008510B0008510B0008510B000810
:10006000510B0008510B0008510B0008510B000800
:10007000510B0008510B0008510B0008510B0008F0
:10008000510B0008510B0008510B0008510B0008E0
:10009000510B0008510B0008510B0008510B0008D0
:1000A000510B0008510B0008510B0008510B0008C0
:1000B000510B0008510B0008510B0008510B0008B0
:1000C000510B0008510B0008510B0008510B0008A0
:1000D000510B0008510B0008510B0008510B000890
:1000E000510B0008510B0008510B0008510B000880
:1000F000510B0008510B0008510B0008510B000870
:10010000510B0008510B0008510B0008510B00085F
:10011000510B0008510B0008510B0008510B00084F
:10012000510B0008510B0008510B0008510B00083F
:10013000510B0008510B0008510B0008510B00082F
:10014000510B0008510B0008510B0008510B00081F
:10015000510B0008510B0008510B0008510B00080F
:10016000510B0008510B0008510B0008510B0008FF
:10017000510B0008510B0008510B00080000000053
:10018000510B0008510B0008510B0008510B0008DF
:10019000510B0008510B0008510B0008510B0008CF
:1001A000510B0008510B0008510B0008510B0008BF
:1001B000510B0008510B0008510B0008510B0008AF
:0801C000510B0008510B00086F
:1001D00010B5054C237833B9044B13B10448AFF381
:1001E00000800123237010BD680000200000000083
:1001F000303C000808B5034B1BB103490348AFF37B
:10020000008008BD000000006C000020303C0008A9
:1002100001F0FF01102A2BDB10F0070F08D010F8B7
:10022000013B013A8B422DD010F0070F42B3F6D1BB
:10023000F0B441EA012141EA014122F007047FF0D4
:1002400000070023F0E80256083C85EA010586EA2B
:10025000010685FA47F5A3FA87F586FA47F6A5FA67
:1002600087F68EB9EED1F0BC01F0FF0102F0070273
:1002700032B110F8013B013A83EA010313B1F8D11E
:100280000020704701387047002D06BF35460338FF
:10029000073815F0010F07D1013015F4807F02BF38
:1002A000013015F4C03F0130F0BC0138704700BF89
:1002B00053B94AB9002908BF00281CBF4FF0FF31CD
:1002C0004FF0FF3000F088B9ADF1080C6DE904CEB5
:1002D00000F006F8DDF804E0DDE9022304B0704721
:1002E0002DE9F047089D8E4604468846002B4AD1EA
:1002F0008A42174662D9B2FA82F64EB1C6F120039D
:1003000001FA06F820FA03F3B74043EA0808B440BC
:100310004FEA174E1FFA87FCB8FBFEF1230C0EFBC9
:10032000118843EA084301FB0CF29A4209D9FB18F1
:1003300001F1FF3080F0EA809A4240F2E780023912
:100340003B449A1AA3B2B2FBFEF00EFB102243EA22
:10035000024300FB0CFC9C4509D9FB1800F1FF325D
:1003600080F0D6809C4540F2D3803B44023840EA7E
:100370000140A3EB0C0300211DB1F3400022C5E9AD
:100380000032BDE8F0878B4205D90DB1C5E9000107
:1003900000210846F5E7B3FA83F1002946D17345F9
:1003A00002D3824200F20581841A6EEB030201201F
:1003B0009046002DE5D0C5E90048E2E7002A00F0AC
:1003C0009080B2FA82F6002E40F0A4808A1A030CC4
:1003D0004FEA174E80B2BCB20121B2FBFEFC0EFB0D
:1003E0001C2243EA024304FB0CF29A4207D9FB1891
:1003F0000CF1FF3802D29A4200F2E080C4469B1A08
:10040000B3FBFEF20EFB123340EA034302FB04F49B
:100410009C4207D9FB1802F1FF3002D29C4200F245
:10042000CA8002461B1B42EA0C40A5E7C1F1200628
:100430008B4022FA06F71F430EFA01F420FA06F366
:100440002EFA06FE4FEA1749234300FA01F81FFA75
:1004500087FCBEFBF9F01C0C09FB10EE44EA0E44CD
:1004600000FB0CFEA64502FA01F209D93C1900F185
:10047000FF3A80F09C80A64540F2998002383C44C7
:10048000A4EB0E041FFA83FEB4FBF9F309FB13443B
:100490004EEA044403FB0CFCA44508D93C1903F1C3
:1004A000FF3E80F08280A4457FD9023B3C4443EA72
:1004B0000040A4EB0C04A0FB02EC64457346E1464B
:1004C00062D35FD05DB1B8EB030264EB090404FAB8
:1004D00006F622FA01F31E43CC40C5E90064002170
:1004E0004FE7B1FBF2FC010C41EA0E4180B240EA59
:1004F00001423B4638463C46B846BE462026B1FB44
:10050000F7F1A2EB080241EA0C4166E7014618E761
:1005100010462CE7C6F120022EFA02F3B740B14094
:1005200020FA02F24FEA174E0A43B3FBFEF8BCB2C0
:100530000EFB1833110C41EA034108FB04F9B040EB
:1005400089454FEA104380B23ED9791808F1FF3C43
:1005500001D289451FD8A1EB0901B1FBFEF909FBC6
:1005600004F80EFB191192B242EA0142424529D227
:10057000BA1809F1FF31C4D24245C2D2A9F1020131
:100580003A44BEE7F0459DD2BEEB02036CEB070C8C
:100590000138E14696E7A7EB09094944A8F1020CA6
:1005A000B1FBFEF909FB04F8DBE773467FE7504631
:1005B00066E70846FDE63B44023A33E7ACF1020C3D
:1005C0003B441CE749469CE7A1EB0901C446B1FB4B
:1005D000FEF909FB04F8C4E7704700BF80B584B09A
:1005E00000AF78607B68DBB2FB7307F10F014FF05F
:1005F000FF330122034801F0D7FE7B68184610370D
:10060000BD4680BD8400002080B500AF00F0A1FA97
:1006100000F018F800F0B4F800F082F8074802F093
:10062000A5FC4FF47A7000F0F1FA00F0E3FA03460B
:100630001946034802F032FC00BFF2E7483C0008CC
:10064000783C000880B594B000AF07F12003302259
:100650000021184602F06AFD07F10C0300221A601F
:100660005A609A60DA601A612B4B1B6C2A4A43F07D
:1006700080531364284B1B6C03F08053BB60BB6832
:10068000264B1B68254A43F440431360234B1B68E9
:1006900003F440437B607B6801233B624FF480336B
:1006A0007B620223BB634FF48003FB6319233B642B
:1006B0004FF4D8737B640223BB640923FB6407F106
:1006C0002003184600F0A8FD0346002B01D000F0DF
:1006D00087F800F051FD0346002B01D000F080F8B0
:1006E0000F23FB6002233B6100237B614FF4A05387
:1006F000BB614FF48053FB6107F10C0307211846DF
:1007000001F02EF80346002B01D000F069F800BF7D
:100710005037BD4680BD00BF003802400070004029
:1007200080B500AF144B154A1A60134B4FF4E132F9
:100730005A60114B00229A600F4B0022DA600E4B78
:1007400000221A610C4B0C225A610B4B00229A6159
:10075000094B0022DA61084B00221A62064B002284
:100760005A62054801F0D2FD0346002B01D000F08B
:1007700037F800BF80BD00BF84000020001001409A
:1007800080B485B000AF154B1B6B144A43F00103D6
:100790001363124B1B6B03F00103FB60FB680F4BF1
:1007A0001B6B0E4A43F0020313630C4B1B6B03F0ED
:1007B0000203BB60BB68094B1B6B084A43F0800314
:1007C0001363064B1B6B03F080037B607B6800BFE9
:1007D0001437BD465DF8047B704700BF0038024007
:1007E00080B400AF72B600BF00BFFDE780B483B035
:1007F00000AF0F4B1B6C0E4A43F0805313640C4B3D
:100800001B6C03F080537B607B68094B5B6C084A70
:1008100043F480435364064B5B6C03F480433B60BA
:100820003B6800BF0C37BD465DF8047B704700BFD6
:100830000038024080B5ACB000AF786007F19C038F
:1008400000221A605A609A60DA601A6107F1180390
:1008500084220021184602F069FC7B681B68324A3A
:1008600093425CD14023BB610023FB6507F1180371
:10087000184601F05BF90346002B01D0FFF7B0FFEB
:100880002A4B5B6C294A43F010035364274B5B6C83
:1008900003F010037B617B69244B1B6B234A43F0FD
:1008A00002031363214B1B6B03F002033B613B69A3
:1008B0001E4B1B6B1D4A43F0010313631B4B1B6B49
:1008C00003F00103FB60FB688023C7F89C30022320
:1008D000C7F8A0300023C7F8A4300323C7F8A83016
:1008E0000723C7F8AC3007F19C031946104800F005
:1008F00097FA4FF40073C7F89C300223C7F8A03072
:100900000023C7F8A4300323C7F8A8300723C7F88B
:10091000AC3007F19C031946064800F081FA00BF8D
:10092000B037BD4680BD00BF001001400038024016
:10093000000402400000024080B400AF00BFFDE7A9
:1009400080B400AF00BFFDE780B400AF00BFFDE79B
:1009500080B400AF00BFFDE780B400AF00BFFDE78B
:1009600080B400AF00BFBD465DF8047B704780B423
:1009700000AF00BFBD465DF8047B704780B400AF98
:1009800000BFBD465DF8047B704780B500AF00F046
:100990001DF900BF80BD80B586B000AFF860B960BA
:1009A0007A6000237B610AE0AFF300800146BB68F8
:1009B0005A1CBA60CAB21A707B6901337B617A69CA
:1009C0007B689A42F0DB7B6818461837BD4680BDCD
:1009D00080B586B000AFF860B9607A6000237B61B3
:1009E00009E0BB685A1CBA601B781846FFF7F6FD91
:1009F0007B6901337B617A697B689A42F1DB7B68B2
:100A000018461837BD4680BD80B483B000AF78600B
:100A10004FF0FF3318460C37BD465DF8047B704736
:100A200080B483B000AF786039603B684FF4005207
:100A30005A60002318460C37BD465DF8047B7047AA
:100A400080B483B000AF7860012318460C37BD46F0
:100A50005DF8047B704780B485B000AFF860B96082
:100A60007A60002318461437BD465DF8047B704752
:100A700080B586B000AF7860144A154BD31A7B61FD
:100A80007B693B61134B1B68002B02D1114B124A4F
:100A90001A60104B1A687B6813443A699A4207D26D
:100AA00002F092FB03460C221A604FF0FF3309E07C
:100AB000084B1B68FB60074B1A687B681344054AA8
:100AC0001360FB6818461837BD4680BD000005203E
:100AD000000400000C0100206002002080B400AF80
:100AE000064BD3F88830054A43F47003C2F88830C7
:100AF00000BFBD465DF8047B704700BF00ED00E01D
:100B0000DFF834D0FFF7EAFF0C480D490D4A002307
:100B100002E0D458C4500433C4188C42F9D30A4AB2
:100B20000A4C002301E013600432A242FBD302F01E
:100B300051FBFFF769FD7047000005200000002011
:100B400068000020E03C00086800002060020020EF
:100B5000FEE780B500AF032000F02EF90F2000F073
:100B600005F8FFF743FE0023184680BD80B582B02C
:100B700000AF7860124B1A68124B1B7819464FF47D
:100B80007A73B3FBF1F3B2FBF3F3184600F03BF9D1
:100B90000346002B01D001230EE07B680F2B0AD8FF
:100BA000002279684FF0FF3000F011F9064A7B68A7
:100BB0001360002300E0012318460837BD4680BDBE
:100BC00000000020080000200400002080B400AFD6
:100BD000064B1B781A46064B1B681344044A1360E5
:100BE00000BFBD465DF8047B704700BF08000020D1
:100BF0001001002080B400AF034B1B681846BD46AF
:100C00005DF8047B704700BF1001002080B584B000
:100C100000AF7860FFF7EEFFB8607B68FB60FB68B1
:100C2000B3F1FF3F05D00A4B1B781A46FB6813440B
:100C3000FB6000BFFFF7DEFF0246BB68D31AFA680D
:100C40009A42F7D800BF00BF1037BD4680BD00BF35
:100C50000800002080B485B000AF78607B6803F0A6
:100C60000703FB600B4BDB68BB60BA684FF6FF0302
:100C70001340BB60FB681A02BB681A43064B134360
:100C8000BB60044ABB68D36000BF1437BD465DF843
:100C9000047B704700ED00E00000FA0580B400AF6F
:100CA000044BDB681B0A03F007031846BD465DF8DA
:100CB000047B704700ED00E080B483B000AF0346D2
:100CC0003960FB7197F90730002B0ADB3B68DAB219
:100CD0000C4997F907301201D2B20B4483F8002374
:100CE0000AE03B68DAB20849FB7903F00F03043BE2
:100CF0001201D2B20B441A7600BF0C37BD465DF824
:100D0000047B704700E100E000ED00E080B489B0B2
:100D100000AFF860B9607A60FB6803F00703FB611D
:100D2000FB69C3F10703042B28BF0423BB61FB69E4
:100D30000433062B02D9FB69033B00E000237B61EF
:100D40004FF0FF32BB6902FA03F3DA43BB681A4083
:100D50007B699A404FF0FF317B6901FA03F3D94375
:100D60007B680B40134318462437BD465DF8047B6F
:100D70007047000080B582B000AF78607B68013BAF
:100D8000B3F1807F01D301230FE00A4A7B68013B66
:100D900053600F214FF0FF30FFF78EFF054B00220D
:100DA0009A60044B07221A60002318460837BD4694
:100DB00080BD00BF10E000E080B582B000AF786079
:100DC0007868FFF747FF00BF0837BD4680BD80B594
:100DD00086B000AF0346B9607A60FB7300237B6185
:100DE000FFF75CFF78617A68B9687869FFF78EFF72
:100DF000024697F90F3011461846FFF75DFF00BF16
:100E00001837BD4680BD80B582B000AF7860786885
:100E1000FFF7B0FF034618460837BD4680BD000007
:100E200080B489B000AF786039600023FB61002393
:100E30007B6100233B610023BB610023FB6175E103
:100E40000122FB6902FA03F37B613B681B687A6944
:100E500013403B613A697B699A4240F064813B6888
:100E60005B6803F00303012B05D03B685B6803F06C
:100E70000303022B30D17B689B68BB61FB695B007D
:100E8000032202FA03F3DB43BA691340BB613B68F8
:100E9000DA68FB695B0002FA03F3BA691343BB61CA
:100EA0007B68BA699A607B685B68BB610122FB69F9
:100EB00002FA03F3DB43BA691340BB613B685B682A
:100EC0001B0903F00102FB6902FA03F3BA69134339
:100ED000BB617B68BA695A603B685B6803F00303D7
:100EE000032B17D07B68DB68BB61FB695B000322C7
:100EF00002FA03F3DB43BA691340BB613B689A68AB
:100F0000FB695B0002FA03F3BA691343BB617B68B8
:100F1000BA69DA603B685B6803F00303022B23D1F4
:100F2000FB69DA087B68083253F82230BB61FB6941
:100F300003F007039B000F2202FA03F3DB43BA69B5
:100F40001340BB613B681A69FB6903F007039B0010
:100F500002FA03F3BA691343BB61FB69DA087B68E1
:100F60000832B96943F822107B681B68BB61FB69D2
:100F70005B00032202FA03F3DB43BA691340BB614F
:100F80003B685B6803F00302FB695B0002FA03F352
:100F9000BA691343BB617B68BA691A603B685B68D6
:100FA00003F44033002B00F0BE80664B5B6C654A57
:100FB00043F480435364634B5B6C03F48043FB60F6
:100FC000FB68614AFB699B08023352F82330BB611E
:100FD000FB6903F003039B000F2202FA03F3DB43D8
:100FE000BA691340BB617B68584A934237D07B682B
:100FF000574A934231D07B68564A93422BD07B6844
:10100000554A934225D07B68544A93421FD07B684F
:10101000534A934219D07B68524A934213D07B685B
:10102000514A93420DD07B68504A934207D07B6867
:101030004F4A934201D1092312E00A2310E008230A
:101040000EE007230CE006230AE0052308E0042352
:1010500006E0032304E0022302E0012300E0002372
:10106000FA6902F0030292009340BA691343BB612C
:101070003549FB699B080233BA6941F823203D4B8F
:101080009B68BB613B69DB43BA691340BB613B684A
:101090005B6803F48013002B03D0BA693B691343E8
:1010A000BB61344ABB699360324BDB68BB613B690F
:1010B000DB43BA691340BB613B685B6803F4001310
:1010C000002B03D0BA693B691343BB61294ABB6952
:1010D000D360284B5B68BB613B69DB43BA69134053
:1010E000BB613B685B6803F40033002B03D0BA6933
:1010F0003B691343BB611F4ABB6953601D4B1B68AF
:10110000BB613B69DB43BA691340BB613B685B6809
:1011100003F48033002B03D0BA693B691343BB61EE
:10112000144ABB691360FB690133FB61FB690F2B38
:101130007FF686AE00BF00BF2437BD465DF8047B56
:10114000704700BF003802400038014000000240F4
:101150000004024000080240000C0240001002405F
:101160000014024000180240001C0240002002400F
:1011700000240240003C014080B582B000AF002353
:101180007B60234B1B6C224A43F080531364204B3B
:101190001B6C03F080533B603B681E4B1B681D4A71
:1011A00043F480331360FFF725FD786009E0FFF713
:1011B00021FD02467B68D31AB3F57A7F01D9032358
:1011C00022E0144B5B6803F48033B3F5803FEED12B
:1011D000104B1B680F4A43F400331360FFF70AFDFE
:1011E000786009E0FFF706FD02467B68D31AB3F585
:1011F0007A7F01D9032307E0064B5B6803F40033D1
:10120000B3F5003FEED1002318460837BD4680BD38
:10121000003802400070004080B586B000AF7860B2
:101220000023FB757B68002B01D1012391E27B68D1
:101230001B6803F00103002B00F08780964B9B682E
:1012400003F00C03042B0CD0934B9B6803F00C03AE
:10125000082B12D1904B5B6803F48003B3F5800F29
:101260000BD18D4B1B6803F40033002B6CD07B68D3
:101270005B68002B68D101236BE27B685B68B3F588
:10128000803F06D1844B1B68834A43F4803313604C
:101290002EE07B685B68002B0CD17F4B1B687E4A7D
:1012A00023F4803313607C4B1B687B4A23F4802338
:1012B00013601DE07B685B68B3F5A02F0CD1764B03
:1012C0001B68754A43F480231360734B1B68724A92
:1012D00043F4803313600BE06F4B1B686E4A23F4BA
:1012E000803313606C4B1B686B4A23F480231360BC
:1012F0007B685B68002B13D0FFF77CFC386108E04B
:10130000FFF778FC02463B69D31A642B01D903230B
:101310001FE2614B1B6803F40033002BF0D014E094
:10132000FFF768FC386108E0FFF764FC02463B69A0
:10133000D31A642B01D903230BE2574B1B6803F428
:101340000033002BF0D100E000BF7B681B6803F086
:101350000203002B69D0504B9B6803F00C03002B59
:101360000BD04D4B9B6803F00C03082B1CD14A4B50
:101370005B6803F48003002B16D1474B1B6803F016
:101380000203002B05D07B68DB68012B01D0012311
:10139000DFE1414B1B6823F0F8027B681B69DB002F
:1013A0003D4913430B6040E07B68DB68002B23D092
:1013B000394B1B68384A43F001031360FFF71AFCEE
:1013C000386108E0FFF716FC02463B69D31A022B8E
:1013D00001D90323BDE1304B1B6803F00203002B4E
:1013E000F0D02D4B1B6823F0F8027B681B69DB00F3
:1013F000294913430B6018E0274B1B68264A23F04A
:1014000001031360FFF7F6FB386108E0FFF7F2FB1A
:1014100002463B69D31A022B01D9032399E11E4BE3
:101420001B6803F00203002BF0D17B681B6803F0FC
:101430000803002B38D07B685B69002B19D0164B52
:101440005B6F154A43F001035367FFF7D3FB386125
:1014500008E0FFF7CFFB02463B69D31A022B01D904
:10146000032376E10C4B5B6F03F00203002BF0D0FB
:101470001AE0094B5B6F084A23F001035367FFF73B
:10148000B9FB38610AE0FFF7B5FB02463B69D31AA6
:10149000022B03D903235CE100380240914B5B6FC0
:1014A00003F00203002BEED17B681B6803F00403FA
:1014B000002B00F0A4808B4B1B6C03F08053002B9F
:1014C0000DD1884B1B6C874A43F080531364854BC6
:1014D0001B6C03F08053BB60BB680123FB75824B20
:1014E0001B6803F48073002B18D17F4B1B687E4A66
:1014F00043F480731360FFF77DFB386108E0FFF76A
:1015000079FB02463B69D31A642B01D9032320E1FE
:10151000754B1B6803F48073002BF0D07B689B68CD
:10152000012B06D16F4B1B6F6E4A43F0010313670B
:101530002DE07B689B68002B0CD16A4B1B6F694ABE
:1015400023F001031367674B1B6F664A23F0040304
:1015500013671CE07B689B68052B0CD1614B1B6FEC
:10156000604A43F0040313675E4B1B6F5D4A43F010
:10157000010313670BE05B4B1B6F5A4A23F0010317
:101580001367584B1B6F574A23F0040313677B689C
:101590009B68002B15D0FFF72DFB38610AE0FFF7A1
:1015A00029FB02463B69D31A41F28832934201D9A2
:1015B0000323CEE04B4B1B6F03F00203002BEED056
:1015C00014E0FFF717FB38610AE0FFF713FB024650
:1015D0003B69D31A41F28832934201D90323B8E020
:1015E000404B1B6F03F00203002BEED1FB7D012B60
:1015F00005D13C4B1B6C3B4A23F0805313647B6842
:101600009B69002B00F0A480364B9B6803F00C0311
:10161000082B6BD07B689B69022B49D1314B1B682F
:10162000304A23F080731360FFF7E4FA386108E072
:10163000FFF7E0FA02463B69D31A022B01D90323D4
:1016400087E0284B1B6803F00073002BF0D17B6808
:10165000DA697B681B6A1A437B685B6A9B011A43E1
:101660007B689B6A5B08013B1B041A437B68DB6A4F
:101670001B0613431B4A43F000535360194B1B686E
:10168000184A43F080731360FFF7B4FA386108E03A
:10169000FFF7B0FA02463B69D31A022B01D90323A4
:1016A00057E0104B1B6803F00073002BF0D04FE0A5
:1016B0000C4B1B680B4A23F080731360FFF79AFAF8
:1016C000386108E0FFF796FA02463B69D31A022B0D
:1016D00001D903233DE0034B1B6803F00073002B8B
:1016E000F0D135E000380240007000401B4B5B68D1
:1016F000FB607B689B69012B28D0FB6803F48002A8
:101700007B68DB699A4221D1FB6803F03F027B686A
:101710001B6A9A421AD1FA6847F6C07313407A6876
:10172000526A9201934211D1FB6803F440327B6804
:101730009B6A5B08013B1B049A4207D1FB6803F0DC
:1017400070627B68DB6A1B069A4201D0012300E0CD
:10175000002318461837BD4680BD00BF0038024040
:1017600080B584B000AF786039600023FB607B688F
:10177000002B01D10123D0E06A4B1B6803F00F035B
:101780003A689A4210D9674B1B6823F00F026549EB
:101790003B6813430B60634B1B6803F00F033A680D
:1017A0009A4201D00123B8E07B681B6803F0020372
:1017B000002B20D07B681B6803F00403002B05D0AE
:1017C000594B9B68584A43F4E05393607B681B680D
:1017D00003F00803002B05D0534B9B68524A43F497
:1017E00060439360504B9B6823F0F0027B689B68DA
:1017F0004D4913438B607B681B6803F00103002B8A
:1018000040D07B685B68012B07D1474B1B6803F412
:101810000033002B15D101237FE07B685B68022B2E
:1018200007D1414B1B6803F00073002B09D1012342
:1018300073E03D4B1B6803F00203002B01D1012331
:101840006BE0394B9B6823F003027B685B68364989
:1018500013438B60FFF7CEF9F8600AE0FFF7CAF98F
:101860000246FB68D31A41F28832934201D903231E
:1018700053E02D4B9B6803F00C027B685B689B0078
:101880009A42EBD1274B1B6803F00F033A689A4248
:1018900010D2244B1B6823F00F0222493B681343EC
:1018A0000B60204B1B6803F00F033A689A4201D08B
:1018B000012332E07B681B6803F00403002B08D08F
:1018C000194B9B6823F4E0527B68DB68164913438D
:1018D0008B607B681B6803F00803002B09D0124B58
:1018E0009B6823F460427B681B69DB000E4913434D
:1018F0008B6000F021F802460B4B9B681B0903F03C
:101900000F030A49CB5C22FA03F3094A1360094B1F
:101910001B681846FFF72AF9002318461037BD4602
:1019200080BD00BF003C024000380240843C0008FB
:1019300000000020040000202DE9B04F90B000AF5F
:1019400000237B630023FB6300233B630023BB6313
:10195000594B9B6803F00C03082B0DD0082B00F2A9
:10196000A180002B02D0042B03D09BE0534BBB6320
:101970009BE0534BBB6398E04F4B5B6803F03F0326
:101980007B634D4B5B6803F48003002B28D04A4BEC
:101990005B689B0900223B627A623B6AC3F30800E2
:1019A0000021474B03FB01F2002300FB03F3134428
:1019B000434AA0FB0212FA620A46BA62FA6A134468
:1019C000FB627B6B0022BB61FA61D7E90623D7E992
:1019D0000A01FEF76DFC02460B461346FB6353E01B
:1019E000354B5B689B0900223B617A613B69C3F31D
:1019F000080A4FF0000B52465B464FF000004FF0D4
:101A00000001590141EAD261500102460B46B2EB96
:101A10000A0863EB0B094FF000024FF000034FEA96
:101A2000891343EA98634FEA8812B2EB080463EB28
:101A300009054FF000024FF00003EB0043EA547336
:101A4000E20014461D4614EB0A033B6045EB0B0312
:101A50007B604FF000024FF00003D7E900452946B4
:101A60008B02214643EA915321468A0210461946C9
:101A70007B6B0022BB60FA60D7E90223FEF718FCFB
:101A800002460B461346FB630B4B5B681B0C03F0D3
:101A9000030301335B003B63FA6B3B6BB2FBF3F375
:101AA000BB6302E0054BBB6300BFBB6B184640370E
:101AB000BD46BDE8B08F00BF003802400024F400EE
:101AC00040787D0180B400AF034B1B681846BD46CB
:101AD0005DF8047B704700BF0000002080B500AFB8
:101AE000FFF7F0FF0246054B9B689B0A03F00703D4
:101AF0000349CB5C22FA03F3184680BD003802404C
:101B0000943C000880B500AFFFF7DCFF0246054BB0
:101B10009B685B0B03F007030349CB5C22FA03F3DA
:101B2000184680BD00380240943C000880B588B05B
:101B300000AF786000237B6100233B610023FB60E2
:101B40000023FB610023BB617B681B6803F001037A
:101B5000002B12D0694B9B68684A23F40003936002
:101B6000664B9A687B685B6B644913438B607B6848
:101B70005B6B002B01D10123FB617B681B6803F4C5
:101B80000023002B17D05D4BD3F88C3023F4401288
:101B90007B68DB6B59491343C1F88C307B68DB6B86
:101BA000B3F5801F01D10123FB617B68DB6B002B48
:101BB00001D10123BB617B681B6803F48013002BF8
:101BC00017D04E4BD3F88C3023F440027B681B6C4B
:101BD0004A491343C1F88C307B681B6CB3F5800F06
:101BE00001D10123FB617B681B6C002B01D1012318
:101BF000BB617B681B6803F08073002B01D001235D
:101C0000FB617B681B6803F02003002B00F08B80D6
:101C10003A4B1B6C394A43F080531364374B1B6CAF
:101C200003F08053BB60BB68354B1B68344A43F4F8
:101C300080731360FEF7DEFF786108E0FEF7DAFFDD
:101C400002467B69D31A642B01D9032357E32C4B3B
:101C50001B6803F48073002BF0D0284B1B6F03F438
:101C600040733B613B69002B35D07B681B6B03F4F1
:101C700040733A699A422ED0204B1B6F23F4407375
:101C80003B611E4B1B6F1D4A43F4803313671B4B94
:101C90001B6F1A4A23F480331367184A3B69136792
:101CA000164B1B6F03F00103012B14D1FEF7A2FFAB
:101CB00078610AE0FEF79EFF02467B69D31A41F283
:101CC0008832934201D9032319E30C4B1B6F03F0B5
:101CD0000203002BEED07B681B6B03F44073B3F55B
:101CE000407F11D1054B9B6823F4F8127B68196B78
:101CF000044B0B40014913438B600BE0003802405A
:101D000000700040FFFCFF0FAA4B9B68A94A23F418
:101D1000F8139360A74B1A6F7B681B6BC3F30B031D
:101D2000A44913430B677B681B6803F01003002B67
:101D300010D0A04BD3F88C309E4A23F08073C2F8A9
:101D40008C309C4BD3F88C207B689B6B9949134358
:101D5000C1F88C307B681B6803F48043002B0AD0E9
:101D6000944BD3F8903023F440327B685B6E9149FA
:101D70001343C1F890307B681B6803F40043002BC9
:101D80000AD08C4BD3F8903023F440227B689B6EB2
:101D900088491343C1F890307B681B6803F4803393
:101DA000002B0AD0834BD3F8903023F440127B6889
:101DB000DB6E80491343C1F890307B681B6803F4E5
:101DC0000033002B0AD07B4BD3F8903023F4400231
:101DD0007B681B6F77491343C1F890307B681B68A1
:101DE00003F04003002B0AD0724BD3F8903023F05D
:101DF00003027B685B6C6F491343C1F890307B68CA
:101E00001B6803F08003002B0AD06A4BD3F8903094
:101E100023F00C027B689B6C66491343C1F8903039
:101E20007B681B6803F48073002B0AD0614BD3F8E6
:101E3000903023F030027B68DB6C5E491343C1F8BD
:101E400090307B681B6803F40073002B0AD0594B59
:101E5000D3F8903023F0C0027B681B6D55491343C3
:101E6000C1F890307B681B6803F48063002B0AD0B4
:101E7000504BD3F8903023F440727B685B6D4D4932
:101E80001343C1F890307B681B6803F40063002B98
:101E90000AD0484BD3F8903023F440627B689B6DA6
:101EA00044491343C1F890307B681B6803F48053A6
:101EB000002B0AD03F4BD3F8903023F440527B687C
:101EC000DB6D3C491343C1F890307B681B6803F419
:101ED0000053002B0AD0374BD3F8903023F4404204
:101EE0007B681B6E33491343C1F890307B681B68D5
:101EF00003F48003002B0AD02E4BD3F8903023F04C
:101F000080627B689B6F2B491343C1F890307B68DC
:101F10001B6803F40013002B11D0264BD3F890302C
:101F200023F000627B68DB6F22491343C1F89030D5
:101F30007B68DB6FB3F1006F01D10123BB617B686C
:101F40001B6803F00803002B01D00123BB617B68F1
:101F50001B6803F48023002B0AD0164BD3F8903073
:101F600023F040727B685B6F12491343C1F89030D5
:101F70007B681B6803F40003002B0BD00D4BD3F8D8
:101F8000903023F080527B68D3F8803009491343A6
:101F9000C1F89030FB69012B06D07B681B6803F009
:101FA0000073002B00F0D980024B1B68014A23F01C
:101FB000806301E0003802401360FEF71BFE786189
:101FC00008E0FEF717FE02467B69D31A642B01D99D
:101FD000032394E16C4B1B6803F00063002BF0D1EA
:101FE0007B681B6803F00103002B21D07B685B6BCF
:101FF000002B1DD1644BD3F884301B0C03F003037A
:102000003B61614BD3F884301B0E03F00F03FB6080
:102010007B685B689A013B691B041A43FB681B06DB
:102020001A437B689B681B0757491343C1F88430E8
:102030007B681B6803F40023002B04D07B68DB6BF8
:10204000B3F5801F0AD07B681B6803F48013002B54
:102050002ED07B681B6CB3F5800F29D14A4BD3F887
:1020600084301B0C03F003033B61474BD3F88430EF
:102070001B0F03F00703FB607B685B689A013B69F9
:102080001B041A437B68DB681B061A43FB681B07AB
:102090003D491343C1F884303B4BD3F88C3023F0D7
:1020A0001F027B685B6A013B37491343C1F88C30E0
:1020B0007B681B6803F08073002B1DD0324BD3F874
:1020C00084301B0E03F00F033B612F4BD3F8843099
:1020D0001B0F03F00703FB607B685B689A017B685A
:1020E0001B691B041A433B691B061A43FB681B0749
:1020F00025491343C1F884307B681B6803F00073E3
:10210000002B11D07B685B689A017B681B691B04FC
:102110001A437B68DB681B061A437B689B681B07B6
:1021200019491343C1F88430174B1B68164A43F012
:1021300080631360FEF75EFD786108E0FEF75AFDEC
:1021400002467B69D31A642B01D90323D7E00E4BD7
:102150001B6803F00063002BF0D0BB69012B40F03B
:10216000CD80094B1B68084A23F080531360FEF7AB
:1021700041FD78610AE0FEF73DFD02467B69D31A16
:10218000642B03D90323BAE0003802405E4B1B687E
:1021900003F00053B3F1005FEDD07B681B6803F4DC
:1021A0000023002B03D07B68DB6B002B09D07B68FE
:1021B0001B6803F48013002B2ED07B681B6C002B54
:1021C0002AD1514BD3F888301B0C03F003033B6139
:1021D0004D4BD3F888301B0F03F00703FB607B687F
:1021E0005B699A013B691B041A437B689B691B0668
:1021F0001A43FB681B0744491343C1F88830424B1C
:10220000D3F88C3023F4F8527B689B6A013B1B02A5
:102210003D491343C1F88C307B681B6803F40013FD
:10222000002B22D07B68DB6FB3F1006F1DD1364BE2
:10223000D3F888301B0E03F00F033B61324BD3F809
:1022400088301B0F03F00703FB607B685B699A0112
:102250007B681B6A1B041A433B691B061A43FB6815
:102260001B0729491343C1F888307B681B6803F0BA
:102270000803002B28D0244BD3F888301B0E03F022
:102280000F033B61204BD3F888301B0C03F0030392
:10229000FB607B685B699A01FB681B041A433B691E
:1022A0001B061A437B68DB691B0717491343C1F8F8
:1022B0008830154BD3F88C3023F440327B68DB6ACE
:1022C00011491343C1F88C300F4B1B680E4A43F081
:1022D00080531360FEF78EFC786108E0FEF78AFCFD
:1022E00002467B69D31A642B01D9032307E0064B0E
:1022F0001B6803F00053B3F1005FEFD100231846D1
:102300002037BD4680BD00BF0038024080B582B096
:1023100000AF78607B68002B01D1012340E07B682F
:10232000DB6F002B06D17B68002283F87820786869
:10233000FEF780FA7B682422DA677B681B681A68DC
:102340007B681B6822F001021A607B685B6A002BC5
:1023500002D0786800F016FB786800F0AFF803460A
:10236000012B01D101231BE07B681B685A687B6845
:102370001B6822F490425A607B681B689A687B68ED
:102380001B6822F02A029A607B681B681A687B68C7
:102390001B6842F001021A60786800F095FB034662
:1023A00018460837BD4680BD80B58AB002AFF860D8
:1023B000B9603B601346FB80FB68DB6F202B77D155
:1023C000BB68002B02D0FB88002B01D1012370E0F9
:1023D000FB680022C3F88420FB682122DA67FEF73D
:1023E00009FC7861FB68FA88A3F85020FB68FA883A
:1023F000A3F85220FB689B68B3F5805F08D1FB68A7
:102400001B69002B04D10023FB61BB68BB6103E0A7
:10241000BB68FB610023BB612FE03B6800937B69D5
:1024200000228021F86800F0A6FB0346002B04D0B0
:10243000FB682022DA6703233BE0FB69002B0BD10A
:10244000BB691B881A46FB681B68C2F308029A62C4
:10245000BB690233BB6107E0FB691A78FB681B6844
:102460009A62FB690133FB61FB68B3F852309BB29F
:10247000013B9AB2FB68A3F85220FB68B3F85230D4
:102480009BB2002BC9D13B6800937B69002240219D
:10249000F86800F070FB0346002B04D0FB68202294
:1024A000DA67032305E0FB682022DA67002300E0F7
:1024B000022318462037BD4680BD000080B588B095
:1024C00000AF78600023BB777B689A687B681B69E4
:1024D0001A437B685B691A437B68DB6913437B6142
:1024E0007B681B681A68A64B13407A681268796982
:1024F0000B4313607B681B685B6823F440517B6867
:10250000DA687B681B680A435A607B689B697B6159
:102510007B681B6A7A6913437B617B681B689B68D5
:1025200023F430617B681B687A690A439A607B6890
:102530001B68944A934220D1934BD3F8903003F018
:102540000303032B16D801A252F823F05D250008DF
:1025500069250008632500086F2500080123FB7723
:1025600050E10223FB774DE10423FB774AE1082386
:10257000FB7747E11023FB7744E17B681B68834AC4
:10258000934232D1804BD3F8903003F00C030C2BE4
:1025900028D801A252F823F0CD250008E52500082F
:1025A000E5250008E5250008D9250008E5250008EF
:1025B000E5250008E5250008D3250008E5250008E5
:1025C000E5250008E5250008DF2500080023FB7746
:1025D00018E10223FB7715E10423FB7712E10823BE
:1025E000FB770FE11023FB770CE17B681B68684ADF
:1025F000934220D1644BD3F8903003F03003302B5A
:1026000013D0302B14D8202B09D0202B10D8002B1E
:1026100002D0102B06D00BE00023FB77F2E0022360
:10262000FB77EFE00423FB77ECE00823FB77E9E09E
:102630001023FB77E6E07B681B68564A934220D163
:10264000514BD3F8903003F0C003C02B13D0C02BF4
:1026500014D8802B09D0802B10D8002B02D0402B0F
:1026600006D00BE00023FB77CCE00223FB77C9E028
:102670000423FB77C6E00823FB77C3E01023FB7736
:10268000C0E07B681B68444A934225D13E4BD3F897
:10269000903003F44073B3F5407F17D0B3F5407F1B
:1026A00017D8B3F5007F0BD0B3F5007F11D8002BFE
:1026B00003D0B3F5807F06D00BE00023FB77A1E0C9
:1026C0000223FB779EE00423FB779BE00823FB7744
:1026D00098E01023FB7795E07B681B682F4A9342B4
:1026E00025D1294BD3F8903003F44063B3F5406F04
:1026F00017D0B3F5406F17D8B3F5006F0BD0B3F513
:10270000006F11D8002B03D0B3F5806F06D00BE01B
:102710000123FB7776E00223FB7773E00423FB774A
:1027200070E00823FB776DE01023FB776AE07B689D
:102730001B681B4A934238D1134BD3F8903003F4F3
:102740004053B3F5405F17D0B3F5405F2AD8B3F5D7
:10275000005F0BD0B3F5005F24D8002B03D0B3F596
:10276000805F06D01EE00023FB774BE00223FB775F
:1027700048E00423FB7745E00823FB7742E000BFF5
:10278000F369FFEF001001400038024000440040B0
:1027900000480040004C0040005000400014014040
:1027A000007800401023FB772CE07B681B68724A9E
:1027B000934225D1714BD3F8903003F44043B3F5E5
:1027C000404F17D0B3F5404F17D8B3F5004F0BD09B
:1027D000B3F5004F11D8002B03D0B3F5804F06D0CE
:1027E0000BE00023FB770DE00223FB770AE00423D4
:1027F000FB7707E00823FB7704E01023FB7701E079
:102800001023FB777B68DB69B3F5004F5BD1FB7F5F
:10281000082B28D801A252F823F000BF4128000855
:102820004928000851280008672800085728000890
:102830006728000867280008672800085F28000844
:10284000FFF74CF9B86113E0FFF75CF9B8610FE0EE
:102850004B4BBB610CE0FFF76FF8B86108E04FF439
:102860000043BB6104E00023BB610123BB7700BFD1
:10287000BB69002B74D0BB695A007B685B685B083E
:102880001A447B685B68B2FBF3F33B613B690F2B37
:1028900016D93B69B3F5803F12D23B699BB223F056
:1028A0000F03FB813B695B089BB203F007039AB2FD
:1028B000FB891343FB817B681B68FA89DA604FE070
:1028C0000123BB774CE0FB7F082B28D801A252F8EC
:1028D00023F000BFF9280008012900080929000891
:1028E0001F2900080F2900081F2900081F290008B8
:1028F0001F29000817290008FFF7F0F8B86113E056
:10290000FFF700F9B8610FE01D4BBB610CE0FFF76A
:1029100013F8B86108E04FF40043BB6104E0002302
:10292000BB610123BB7700BFBB69002B18D07B685C
:102930005B685A08BB691A447B685B68B2FBF3F3B7
:102940003B613B690F2B09D93B69B3F5803F05D249
:102950003B699AB27B681B68DA6001E00123BB77B0
:102960007B6800229A667B680022DA66BB7F184685
:102970002037BD4680BD00BF007C004000380240CB
:102980000024F40080B483B000AF78607B685B6A99
:1029900003F00803002B0AD07B681B685B6823F4F4
:1029A00000417B685A6B7B681B680A435A607B68EE
:1029B0005B6A03F00103002B0AD07B681B685B682D
:1029C00023F400317B689A6A7B681B680A435A606B
:1029D0007B685B6A03F00203002B0AD07B681B68EC
:1029E0005B6823F480317B68DA6A7B681B680A4382
:1029F0005A607B685B6A03F00403002B0AD07B6893
:102A00001B685B6823F480217B681A6B7B681B68FA
:102A10000A435A607B685B6A03F01003002B0AD0FC
:102A20007B681B689B6823F480517B689A6B7B688A
:102A30001B680A439A607B685B6A03F02003002BE3
:102A40000AD07B681B689B6823F400517B68DA6BB3
:102A50007B681B680A439A607B685B6A03F04003EB
:102A6000002B1AD07B681B685B6823F480117B689D
:102A70001A6C7B681B680A435A607B681B6CB3F551
:102A8000801F0AD17B681B685B6823F4C0017B68E8
:102A90005A6C7B681B680A435A607B685B6A03F068
:102AA0008003002B0AD07B681B685B6823F400213D
:102AB0007B689A6C7B681B680A435A6000BF0C37BE
:102AC000BD465DF8047B704780B58CB002AF78607E
:102AD0007B680022C3F88420FEF78CF878627B685C
:102AE0001B681B6803F00803082B2ED16FF07E4390
:102AF00000937B6A00224FF40011786800F03BF8E5
:102B00000346002B21D07B681B683B613B6953E87F
:102B1000003FFB60FB6823F080033B627B681B681F
:102B20001A463B6AFB61BA61B969FA6941E8002358
:102B30007B617B69002BE6D17B682022DA677B68AA
:102B4000002283F87820032311E07B682022DA67D3
:102B50007B682022C3F880207B6800221A667B688D
:102B600000225A667B68002283F8782000231846EA
:102B70002837BD4680BD80B584B000AFF860B9602D
:102B80003B601346FB714FE0BB69B3F1FF3F4BD095
:102B9000FEF730F802463B68D31ABA699A4202D36C
:102BA000BB69002B01D103234EE0FB681B681B6847
:102BB00003F00403002B37D0BB68802B34D0BB68F4
:102BC000402B31D0FB681B68DB6903F00803082B3E
:102BD00010D1FB681B6808221A62F86800F038F808
:102BE000FB680822C3F88420FB68002283F8782061
:102BF000012329E0FB681B68DB6903F40063B3F57C
:102C0000006F11D1FB681B684FF400621A62F8680C
:102C100000F01EF8FB682022C3F88420FB68002225
:102C200083F8782003230FE0FB681B68DA69BB6830
:102C30001340BA689A420CBF01230023DBB21A4644
:102C4000FB799A42A0D0002318461037BD4680BDBC
:102C500080B495B000AF78607B681B687B637B6B4A
:102C600053E8003F3B633B6B23F49073FB647B684A
:102C70001B681A46FB6C3B64FA63F96B3A6C41E8DB
:102C80000023BB63BB6B002BE6D17B681B6808335A
:102C90003B623B6A53E8003FFB61FB6923F00103A1
:102CA000BB647B681B680833BA6CFA62BB62B96AA2
:102CB000FA6A41E800237B627B6A002BE5D17B68DE
:102CC0001B6E012B18D17B681B68FB60FB6853E807
:102CD000003FBB60BB6823F010037B647B681B680C
:102CE0001A467B6CBB617A617969BA6941E8002355
:102CF0003B613B69002BE6D17B682022C3F8802032
:102D00007B6800221A667B6800229A6600BF5437EF
:102D1000BD465DF8047B7047002310B50446C0E94A
:102D20000033C0E90433836081814366C2818361DB
:102D3000194608225C3000F0F9F90D4B63620D4B27
:102D4000A3620D4BE3620D4B23630D4B24629C4247
:102D500006D003F16802944202D0D0339C4205D1E0
:102D600004F15800BDE8104000F058BA10BD00BF93
:102D70007D2F00089F2F0008D72F0008FB2F000889
:102D800014010020024A0349034800F069B800BF5B
:102D90000C000020B93A00081C00002041680C4BD0
:102DA000994210B5044601D000F086FEA168094B97
:102DB000994202D0204600F07FFEE168064B99421E
:102DC00004D02046BDE8104000F076BE10BD00BF24
:102DD000140100207C010020E401002010B50B4B01
:102DE0000B4C0C4A1A60204600220421FFF794FF86
:102DF00004F1680001220921FFF78EFF04F1D000E1
:102E00000222BDE810401221FFF786BF4C020020CD
:102E100014010020852D0008014800F000BA00BF11
:102E200055020020014800F0FBB900BF5502002008
:102E300010B50446FFF7F0FF236A1BB1BDE8104050
:102E4000FFF7F0BF044B2362044B1B68002BF5D146
:102E5000FFF7C4FFF2E700BF9D2D00084C020020E1
:102E60002DE9F8430746884614460026D4E9019523
:102E7000B9F1010905D52468002CF7D13046BDE829
:102E8000F883AB89012B07D9B5F90E30013303D094
:102E900029463846C04706436835E9E70FB407B509
:102EA000064904AB086853F8042B8168019300F0CD
:102EB000DBFA03B05DF804EB04B0704718000020A3
:102EC000036A70B5846805460E460BB9FFF7B0FF7C
:102ED000636EDB0705D4A389980502D4A06D00F0CA
:102EE0009EF9A389190702D52369002B35D1214604
:102EF000284600F0C5F880B34FF0FF35636EDA075F
:102F000005D4A3899B0502D4A06D00F089F9284659
:102F100070BD002B04DAA2699A4217DC0A2915D089
:102F200023685A1C22601970A36816F8011F013B20
:102F3000A3600029EDD1002B11DA22460A21284690
:102F400000F05FF80130D7D00A25D7E7224628469F
:102F500000F057F80130E7D1CEE7013EE4E72368FF
:102F60005A1C22600A221A70EEE70000024B01464A
:102F70001868FFF7A5BF00BF1800002010B50C4669
:102F8000B1F90E1000F0FCF80028ABBF636DA38907
:102F90001B1823F48053ACBF6365A38110BD2DE9DA
:102FA000F0411F468B89DB0505460C46164605D5C4
:102FB000B1F90E100223002200F0D0F8A389B4F971
:102FC0000E1023F48053A38132463B462846BDE8C9
:102FD000F04100F0E7B810B50C46B1F90E1000F062
:102FE000BDF8431CA38915BF606523F4805343F4E7
:102FF0008053A38118BFA38110BDB1F90E1000F05A
:103000009DB8F8B50E461446054618B1036A0BB9CB
:10301000FFF70EFFA369A360A3891A0701D52369EF
:1030200043B92146284600F02BF818B14FF0FF377E
:103030003846F8BD23682269981A6369F6B283425C
:10304000374605DC2146284600F036FD0028EDD144
:10305000A368013BA36023685A1C22601E7062694A
:10306000431C9A4204D0A389DB07E1D50A2EDFD1A5
:103070002146284600F020FD0028D9D0D6E70000E0
:1030800038B5294B054618680C4618B1036A0BB9C8
:10309000FFF7CEFEB4F90C30190722D4DA0607D4B4
:1030A00009222A6043F04003A3814FF0FF3033E050
:1030B000580712D5616B41B104F14403994202D023
:1030C000284600F0AFF800236363A38923F02403AC
:1030D000A3810023636023692360A38943F008036D
:1030E000A38123694BB9A38903F42073B3F5007F4F
:1030F00003D02146284600F02DFDB4F90C3013F022
:1031000001020AD00022A26062695242A2612269D1
:1031100042B913F08000C5D138BD990758BF626924
:10312000A260F4E70020F7E71800002002440346FD
:10313000934200D1704703F8011BF9E738B5064DFB
:103140000023044608462B60FDF75EFC431C02D1B9
:103150002B6803B1236038BD5002002038B5074DFD
:1031600004460846114600222A601A46FDF773FC01
:10317000431C02D12B6803B1236038BD50020020EC
:1031800038B5074D04460846114600222A601A4603
:10319000FDF701FC431C02D12B6803B1236038BD4D
:1031A0005002002038B5074D04460846114600225B
:1031B0002A601A46FDF70CFC431C02D12B6803B1B0
:1031C000236038BD50020020014B1868704700BFD3
:1031D0001800002070B50D4D0D4C641BA410002686
:1031E000A64209D10B4D0C4C00F022FD641BA4102B
:1031F0000026A64205D170BD55F8043B984701361C
:10320000EEE755F8043B98470136F2E7D83C000852
:10321000D83C0008D83C0008DC3C000870477047E8
:103220007047000038B50546002941D051F8043CEC
:103230000C1F002BB8BFE41800F0E0F81D4A13681B
:1032400033B9636014602846BDE8384000F0DCB84C
:10325000A34208D9206821188B4201BF19685B6816
:1032600009182160EDE71A465B680BB1A342FAD951
:1032700011685018A0420BD12068014450188342B5
:103280001160E0D118685B68536008441060DAE7A9
:1032900002D90C232B60D6E7206821188B4204BF8B
:1032A00019685B68636004BF091821605460CAE74D
:1032B00038BD00BF5C02002070B50F4E0C4631686F
:1032C000054611B900F0A4FC30602146284600F004
:1032D0009FFC431C03D14FF0FF34204670BDC41C3B
:1032E00024F00304A042F8D0211A284600F090FCF4
:1032F0000130F2D1EFE700BF580200202DE9F8437A
:10330000CD1C25F0030508350C2D38BF0C25002DEC
:10331000064601DBA94204D90C2333600020BDE836
:10332000F883DFF8D48000F069F8D8F800301C4644
:1033300044BB29463046FFF7BFFF431C044658D123
:10334000D8F800402746002F43D1002C4BD02368EB
:103350003946304604EB030900F05AFC814542D15E
:1033600021686D1A29463046FFF7A6FF01303AD092
:1033700023682B442360D8F800305A6862BBC8F831
:1033800000700FE02268521B20D40B2A17D9611954
:10339000A342256018BF5960636808BFC8F80010D1
:1033A00062514B60304600F02FF804F10B00231DF2
:1033B00020F00700C21A1CBF1B1AA350AFE76268B7
:1033C000A3420CBFC8F800205A60EBE723466468AC
:1033D000AEE73C467F68B6E71A465B68A342FBD17E
:1033E00000235360DEE70C233360304600F00CF816
:1033F00094E70560D6E700BF5C0200200148FFF7B4
:103400000EBF00BF540200200148FFF709BF00BFF4
:10341000540200209368013B002B10B4936008DA3B
:103420009469A34201DB0A2903D15DF8044BFFF73D
:10343000E8BD1368581C1060197008465DF8044B0D
:103440007047F8B506460F461446D518AC4201D170
:10345000002007E014F8011B3A463046FFF7DAFF78
:10346000431CF3D1F8BD00002DE9F04F0D469DB08F
:1034700014469846064618B1036A0BB9FFF7D8FC04
:103480006B6ED90705D4AB899A0502D4A86DFFF7F6
:10349000C6FEAB891B0701D52B699BB9294630466F
:1034A000FFF7EEFD70B16B6EDC0704D54FF0FF3017
:1034B0001DB0BDE8F08FAB899805F7D4A86DFFF774
:1034C000AFFEF3E70023099320238DF82930CDF8D0
:1034D0000C803023DFF8AC818DF82A304FF00109E1
:1034E00023469A4613F8012B0AB1252AF9D1BAEBE3
:1034F000040B0BD05B46224629463046FFF7A1FF5E
:10350000013000F0A780099A5A4409929AF80030D5
:10351000002B00F09F8000234FF0FF32CDE9052300
:103520000AF1010A049307938DF853301A93544615
:10353000052214F8011B5348FCF76AFE049AD8B917
:10354000D10644BF20238DF85330130744BF2B23EB
:103550008DF853309AF800302A2B15D0079A54462C
:1035600000204FF00A0C214611F8013B303B092B9B
:103570004BD9B0B1079214E0A0EB080309FA03F3AA
:1035800013430493A246D2E7039B191D1B680391C2
:10359000002BBBBF5B4242F0020207930793B8BF08
:1035A000049223782E2B0AD163782A2B32D1039BE5
:1035B0001A1D1B68039243EAE37302340593DFF894
:1035C000D4A0217803225046FCF722FE38B1049B98
:1035D000A0EB0A004022824013430134049314F804
:1035E000011B29488DF828100622FCF711FE00283F
:1035F0003FD0264B1BBB039B073323F00703083345
:103600000393099B3B4409936AE70CFB02320C4687
:103610000120A8E700230134059319464FF00A0C56
:10362000204610F8012B303A092A03D9002BC6D0C6
:103630000591C4E70CFB012104460123F0E703AB2D
:1036400000932A46124B04A93046AFF30080074688
:10365000781CD6D16B6ED90705D4AB899A0502D4F4
:10366000A86DFFF7DDFDAB895B063FF51FAF09983D
:103670001EE703AB00932A46054B04A9304600F031
:1036800079F8E4E79C3C0008A63C00080000000034
:1036900043340008A23C00082DE9F047164698463E
:1036A0008A680B69DDF820909342B8BF13463360F7
:1036B00091F8432007460C460AB101333360236872
:1036C000990642BF336802333360256815F006055A
:1036D00006D104F1190AE36832689B1AAB4226DC72
:1036E00094F843302268003B18BF012392062BD484
:1036F00004F1430241463846C84701301ED02368D2
:10370000226903F00603042B02BFE5683368ED1A53
:10371000A3680CBF25EAE57500259342C4BF9B1A38
:10372000ED1800261A34B5421AD1002008E0012312
:10373000524641463846C847013003D14FF0FF306A
:10374000BDE8F0870135C6E7E1185A1C302081F842
:103750004300224494F8451082F843100233C7E72F
:103760000123224641463846C8470130E6D001369B
:10377000D9E700002DE9FF470F7E0C9E782F914678
:1037800080460C469A4601F1430207D8622F0AD8B8
:10379000002F00F0D180582F00F0B88004F14206CD
:1037A00084F842703AE0A7F16303152BF6D801A123
:1037B00051F823F00D380008213800089D37000823
:1037C0009D3700089D3700089D3700082138000804
:1037D0009D3700089D3700089D3700089D37000879
:1037E0001F3900084B380008D93800089D370008F9
:1037F0009D370008413900089D3700084B38000804
:103800009D3700089D370008E138000833681A1D0D
:103810001B68326004F1420684F8423001239CE0C8
:1038200033682068191D3160060601D51D6803E064
:103830004506FBD5B3F90050002D03DA2D236D4268
:1038400084F8433058480A2311E021683368080699
:1038500053F8045B02D4490648BFADB26F2F5248FB
:10386000336014BF0A230823002184F843106668DC
:10387000A660002E05DB21682E4321F004012160A3
:103880004BD01646B5FBF3F103FB1157C75D06F8A5
:10389000017D2F46BB420D46F4D9082B0BD123687E
:1038A000DF0708D5236961689942DEBF302306F837
:1038B000013C06F1FF36921B2261CDF800A04B4679
:1038C00003AA21464046FFF7E7FE01304AD14FF0F8
:1038D000FF3004B0BDE8F087236843F02003236085
:1038E0003248782784F84570236831681F0651F8FC
:1038F000045B02D45F0648BFADB23160D90744BF54
:1039000043F0200323601DB11023ADE72648E9E70B
:10391000236823F020032360F6E71646BDE73368EB
:1039200025686169181D30602E061B6801D5196075
:1039300002E06806FBD51980002323611646BCE728
:1039400033681A1D32601E68626800213046FCF739
:103950005FFC08B1801B606063682361002384F80A
:103960004330AAE72369324649464046D0470130F2
:10397000ADD023689B0713D4E068039B9842B8BF7F
:103980001846A6E70123324649464046D047013053
:103990009DD00135E36803995B1AAB42F2DCEBE79B
:1039A000002504F11906F5E7AD3C0008BE3C00080F
:1039B000B1F90C202DE9F041160705460C4654D408
:1039C0004B68002B02DC0B6C002B48DDE66A002EF6
:1039D00045D0002312F480522F68216A2B6030D02A
:1039E000626DA389590705D56368D21A636B0BB161
:1039F000236CD21A0023E66A216A2846B047431C8A
:103A0000A38906D129681D292BD82A4ACA40D6077E
:103A100027D500226260D9042269226004D5421CA5
:103A200001D12B6803B96065616B2F60B9B104F1F6
:103A30004403994202D02846FFF7F4FB0023636356
:103A40000DE001232846B0470246501CC9D12B681F
:103A5000002BC6D01D2B01D0162B1ED12F600020AD
:103A600022E043F040031BB21BE00F69002FF6D0A9
:103A700093070E6808BF4B690F6018BF0023A6EBC1
:103A800007088B60B8F1000FE9DD216AA66A43469A
:103A90003A462846B047002808DCB4F90C3043F019
:103AA0004003A3814FF0FF30BDE8F0810744A8EB4D
:103AB0000008E7E70100402038B50B6905460C46D1
:103AC00013B90025284638BD18B1036A0BB9FFF7B2
:103AD000AFF9B4F90C30002BF3D0626ED00704D4E8
:103AE000990502D4A06DFFF79AFB28462146FFF7FF
:103AF0005FFF636EDA070546E4D4A3899B05E1D432
:103B0000A06DFFF78DFBDDE770B50C46B1F90E1027
:103B1000002996B015461E460DDAA38913F0800FD2
:103B20004FF0000114BF40234FF480630020316048
:103B30002B6016B070BD6A4600F048F80028ECDB38
:103B4000019901F47041A1F50053594259414FF4D4
:103B50008063EBE78B89F7B59D0706460C4607D5D2
:103B600004F14703236023610123636103B0F0BDC7
:103B700001AB6A46FFF7C8FF009F0546394630464D
:103B8000FFF7BCFB48B9B4F90C309A05EED423F02A
:103B9000030343F00203A381E2E7A389206043F01B
:103BA0008003A381019BC4E904075BB1B4F90E1043
:103BB000304600F01DF828B1A38923F0030343F039
:103BC0000103A381A3891D43A581CFE738B5074D24
:103BD00000230446084611462B60FCF721FF431CD6
:103BE00002D12B6803B1236038BD00BF5002002012
:103BF00038B5064D0023044608462B60FCF720FF2D
:103C0000431C02D12B6803B1236038BD5002002051
:103C100038B5064D0023044608462B60FCF728FF04
:103C2000431C02D12B6803B1236038BD5002002031
:103C3000F8B500BFF8BC08BC9E467047F8B500BF99
:083C4000F8BC08BC9E46704769
:103C480048656C6C6F2066726F6D2053544D33322B
:103C5800463734364720444953434F20766961201C
:103C680053542D4C696E6B205643500D00000000D4
:103C78005469636B3A20256C750D0A00000000003A
:103C88000000000001020304060708090000000004
:103C980001020304232D302B2000686C4C0065665C
:103CA8006745464700303132333435363738394185
:103CB800424344454600303132333435363738399B
:083CC80061626364656600009F
:083CD00040C5FF7F0100000068
:043CD800F5010008EA
:043CDC00D10100080A
:103CE0000024F400100000000100000000000000AB
:103CF00003000000140100201C0000200000000050
:103D0000140100207C010020E401002000000000DC
:103D100000000000000000000000000000000000A3
:103D20000000000000000000000000000000000093
:103D30000000000000000000000000000000000083
:083D400000000000000000007B
:0400000508000B01E3
:00000001FF
