:020000040800F2
:100000004807002061020008B1340008D529000823
:10001000AD34000831140008C534000800000000A9
:10002000000000000000000000000000B9340008DB
:100030007914000800000000B5340008BD34000841
:100040007B0200087B0200087B0200087B0200089C
:100050007B0200087B0200087B0200087B0200088C
:100060007B0200087B0200087B0200087B0200087C
:100070007B0200087B0200087B0200087B0200086C
:100080007B0200087B0200087B0200087B0200085C
:100090007B0200087B0200087B0200087B0200084C
:1000A0007B0200087B0200087B0200087B0200083C
:1000B0007B0200087B0200087B0200087B0200082C
:1000C0007B0200087B0200087B0200087B0200081C
:1000D0007B0200087B0200087B0200087B0200080C
:1000E0007B0200087B0200087B02000800F002F897
:1000F00000F0A6F814A696E8000CB244B344DA4522
:1001000001D100F09DF8BAE80F000FA696E8300084
:10011000A5EB040504EB0607AAEB0704A7F101070A
:100120004FEA15154FEA3414A4F10104AC4201D38F
:1001300000F086F813F0010F18BFFB1A43F001031B
:1001400000F001F8DBE7184730440000504400009D
:10015000103A24BF78C878C1FAD8520724BF30C8F3
:1001600030C144BF04680C60704700007047000055
:100170000023002400250026103A28BF78C1FBD8B0
:10018000520728BF30C148BF0B6070476E2900F08E
:100190004982702900F09B85662904F00281652957
:1001A00004F0FF80672904F0FC80612904F0FB80E3
:1001B00003681B0A28BF41F08001692900F0F6811D
:1001C000642900F0F381752900F0F0816F2900F0B7
:1001D0002985782900F06785E92900F0C384E4299E
:1001E00000F0C084F52900F0BD84EF2900F02685D9
:1001F000F82900F066850368DB0928BF41F080011B
:10020000632900F0D987732900F0DE87E32900F025
:10021000E987F32900F0EE87002070471FB500F052
:1002200061FD04000020002103F076FE401C6060A8
:100230000020002103F05AFEE0601FBD10B510BD84
:1002400001F076F81146FFF7E9FF03F03DF901F000
:100250009DF803B4FFF7F2FF03BC01F0E1F80000E2
:100260000948804709480047FEE7FEE7FEE7FEE74A
:10027000FEE7FEE7FEE7FEE7FEE7FEE70448054986
:10028000054A064B70470000C1340008ED00000825
:1002900048010020480700204803002048030020B0
:1002A0007CB51D4616460C00009007D04142A14285
:1002B00002D32044401E01E04FF0FF30064B7B4448
:1002C0002A4669460190304600F0D3FB002C02D04C
:1002D000009A002111707CBDD70700000FB41CB537
:1002E0000C0007AA009007D04142A14202D320444B
:1002F000401E01E04FF0FF30074B7B446946019000
:10030000069800F0B6FB0021002C01D0009A117075
:100310001CBC5DF814FB00009B0700002DE9F05F9A
:10032000894604464FF0000ADFF874B1FB44C0F878
:1003300020A02046E1688847002874D0252806D0F0
:10034000D4E901219047206A401C2062F1E7002691
:100350005F462046E16888472028054607DB312DA7
:1003600005D2781910F8200C08B10643F1E7B00760
:1003700001D526F00406C4F81CA00027C4F818A074
:100380002A2D09D0284603F0A9FD38B304EB8708CD
:10039000303DC8F8185019E059F8041B204604EB0A
:1003A00087029161E1688847012F054618D1E0690D
:1003B000002820DA26F020061DE0D8F8180000EB0F
:1003C000800005EB40003038C8F818002046E1688E
:1003D0008847054603F082FD0028EED1012F0AD0A0
:1003E0002E2D08D12046E16888477F1C0546022F44
:1003F00046F02006C4DBA069002803DA404246F03C
:100400000106A061F00701D026F010066C2D0BD07C
:10041000682D09D04C2D39D06A2D35D0742D35D0AA
:100420007A2D33D016E038E0E1682F462046884721
:10043000B842054609D16C2F26D04FF48060E168A0
:10044000064320468847054604E06C2F1AD04FF437
:10045000807006430DB3A5F14100192802D820355C
:1004600046F400664A462946204626604E46FFF777
:100470008DFE80B101280BD0F61D26F0070000F19B
:10048000080956E74020E4E78020D8E70020D6E7B7
:1004900006F104094DE7284652E7206ABDE8F09FBF
:1004A0007A40000010B5431C02E010F8011B71B146
:1004B0008107FAD14FF0013202C88C1A8C4314EA3A
:1004C000C211F9D0C01A0A0603D0C01E10BDC01A4E
:1004D00010BD0A0401D0801E10BD0902FCD0401ED0
:1004E00010BD70477047704770B504468569006855
:1004F000C10601D5302600E02026C00707D070BD18
:10050000D4E9012130469047206A401C20626D1ECC
:10051000F6D570BD70B5044685690078C00707D16F
:1005200070BDD4E9012120209047206A401C206240
:100530006D1EF6D570BD09684A0501D540B27047F9
:10054000C905FCD500B2704709684A0501D5C0B29B
:100550007047C905FCD580B2704770B50C4605469A
:10056000012A05D02878800600D5EA69002302E038
:10057000012305E05B1C934202D2E05C0028F9D124
:10058000A869E618C01AA861286A18442862284693
:10059000FFF7AAFF04E0D5E9012114F8010B904709
:1005A000B442F8D32846FFF7B5FF70BD2DE9F041FE
:1005B0000646002410687529314616A510D0FFF7AD
:1005C000BAFF002802DA404213A507E031688A0723
:1005D00001D512A502E0490704D511A5012401E0C7
:1005E000FFF7B2FF00210A2206F1240709E0B0FB61
:1005F000F2FCB0FBF2F302FB1C00303078541846DA
:10060000491C0028F3D123462A463046BDE8F04174
:1006100000F0B1BB000000002D0000002B00000026
:100620002000000011680268006A530501D50870B7
:100630000AE0D30501D5088006E0130603D5C217EA
:10064000C1E9000200E00860012070472DE9FF4F7A
:100650000C461E464FF0FF378BB0D2E90001DDF8A3
:1006600060800A908A46C1F30A5505B93D460021CB
:1006700008464FF00000BAF1000F00F4400005DA20
:1006800000EB80004FF4400101EA50004FEA90591E
:10069000B9F1010F00DDB9460A9850EA4A000ED0C0
:1006A00044F61050A5F2FF3545432F14B8F1000F62
:1006B0001ED07542291E1EDDC9F100021CE0B8F1F2
:1006C000010F4FF0000001D0302103E0F24305E0BC
:1006D0002154401CB042FBDB304600220021215453
:1006E0000B99C1F80880C1E900200FB0BDE8F08F78
:1006F000BD1B6D1CDEE74A4600DA694206A800F021
:100700007DFD06AB93E8070003AB83E80700504686
:100710000A9903F007F88DE80700A0F500501F388C
:1007200000900398002D0ADD42F21F014A4608445A
:10073000002303A90390684603F070FA09E0A0F5CE
:1007400000504A461F38002303A90390684603F06F
:100750007AFA8DE807000004000C03D04FF0FF3058
:10076000410800E01046B8F1000F03D000220092CB
:1007700015461EE0751E05D400F0B8FA30326255F9
:100780006D1EF9D5B3460122084302D000227F1C1A
:1007900004E02078302801D100227F1E002A09972A
:1007A00084D01DE0112D07DA00F0A0FA3032625536
:1007B0006D1C50EA0102F5D1084302D00098C8B17F
:1007C0000EE00021681E05E0235C625C6354225445
:1007D000401E491C8142F7DBAB46A81B401E099016
:1007E000002004F80B000B98099AC0F80880C0E9B3
:1007F000002B7AE711264FF0000857E72DE9F04F5C
:1008000088460446D21D22F0070191B0D1E90001CB
:10081000CDE90A0103F04EFB02460B98C00F01D050
:100820002D2007E02068810701D52B2002E0202140
:1008300001EAC000032A099001D0072A05DB03461C
:100840004146204600F06EFC0BE12078800601D581
:10085000E06900E00620B8F1650F814606D0B8F1E6
:10086000660F18D0B8F1670F70D131E00020B9F1F0
:10087000110F009001DB112301E009F101030AAA25
:1008800001A90CA8FFF7E2FEDDE90C70002609F1D2
:100890000105834647E001204B4600904FF000479A
:1008A0000AAA01A90CA8FFF7D1FEDDE90DB00C9949
:1008B0005D46002610B909F101000D18B9EB0500DD
:1008C00003D4C0F1FF3609F10105A5EB09002BE0C7
:1008D000B9F1010F01DA4FF001090020B9F1110F50
:1008E0000090484601DD112300E003460AAA01A951
:1008F0000CA8FFF7ABFEDDE90C704D4600268346E1
:10090000207800070AD4AB4500DA5D4601A8012D26
:1009100004DD411911F8011C302907D04F4502DAD6
:1009200017F1040F04DA012082460FE06D1EEEE796
:10093000002F02DCED1B3E4403E0781CA84200DDE2
:100940007D1CB81B00F1010A4FF00047207800071A
:1009500003D4AA4501DB4FF0FF3A0021B7F1004F65
:100960000DF143088DF8431024D002202B23002FD3
:1009700001DA7F422D230A21021EA0F1010000DCD2
:100980005FB197FBF1FC97FBF1F201FB1C7C174672
:100990000CF1300C08F801CDEEE7A8F1010003706E
:1009A0002188090501D5452100E06521A0F1010854
:1009B00000F8011C09980FA9A1EB0807FF1D00B161
:1009C0000120411901EBEA70A1693844081A401E60
:1009D000A0612078C00602D42046FFF785FD099863
:1009E00028B1D4E901219047206A401C2062207878
:1009F000C00622D52046FFF777FD1EE0002E04DB5F
:100A0000B34502DD01A8805D00E03020D4E901217A
:100A10009047206A401C2062761CAAF101005FEA20
:100A2000000A0AD100F05EF9C0680168405CD4E9B0
:100A300001219047206A401C2062281EA5F1010573
:100A4000DCDC07E0D4E9012118F8010B9047206AAB
:100A5000401C2062381EA7F10107F3DC2046FFF797
:100A600059FD032011B041E601694A1C0261087872
:100A7000704700B58FB0CDE90131002105910549DE
:100A80007944CDE9031011466846FFF747FC0FB0E3
:100A900000BD0000E5FFFFFFD1E900239A4202D22A
:100AA000531C0B60107070472DE9FF5F15468A4696
:100AB0000446DFF8AC80F8440027D8E900103E4631
:100AC000CDE9001010E03AF816106A4602A800F0CE
:100AD00007FC411C07D02178890603D5E269391843
:100AE00091420DD80744761C2078800602D5E06933
:100AF000B84205DDAE42E6DB3AF816000028E2D146
:100B0000A069C01BA0612046FFF7EEFCD8E90010E9
:100B1000CDE90010002017E03AF818106A4602A844
:100B200000F0DEFBB0F1FF3F81460BD000250DF158
:100B3000080B05E0D4E901211BF8050090476D1C66
:100B40004D45F7D308F10100B0428046E4DB206A4E
:100B5000384420622046FFF7DDFCBDE8FF9F00001F
:100B6000023900002DE9F0418046D21D22F0070233
:100B70000025D2E90002F52915A614D0011E72F154
:100B8000000106DA0023D0EB030063EB020211A69A
:100B900008E0D8F800108B0701D50FA602E049073E
:100BA00001D50EA601251146002408F1240704E012
:100BB00000F09CF830323A55641C50EA0102F7D13B
:100BC0002B46324621464046BDE8F04100F0D3B8FE
:100BD000000000002D0000002B000000200000009D
:100BE00030B4002100F1240408E002F00705D20827
:100BF000303542EA4372DB086554491C52EA03056A
:100C0000F3D10468002310A2250708D504F02004BE
:100C10000C4304D0C46901230CA2641EC46130BC1F
:100C200000F0A9B810B5044621461068FFF78CFC07
:100C300002462046BDE810400023D1E7D21D22F035
:100C40000701D1E90023CBE70000000030000000DD
:100C5000F0B40D460188090502D5214C7C4402E020
:100C60001F4C7C440E34002100F1240608E002F001
:100C70000F071209E75D42EA03721B097754491C0A
:100C800052EA0307F3D102780023120704D5702D2E
:100C900006D009B1022311342246F0BC00F06BB833
:100CA00001231034F8E770B504460D46214610685C
:100CB000FFF74AFC024629462046BDE87040002363
:100CC000C6E7D21D22F00703D3E90023C0E703687B
:100CD000126843F0200303600823C3610023B7E7D1
:100CE00064370000004870473000002030B5B0F194
:100CF0000A0271F100034FEA900E4EEA817EB0EBDA
:100D00000E0061EB91014FEA101E4EEA017E10EBDE
:100D10000E0041EB11114FEA102E4EEA016E10EB5E
:100D20000E0041EB11214FEA104E4EEA014E10EB3E
:100D30000E0041EB1141401841F100014FEAD00093
:100D400040EA41704FEAD1014FEA810444EA9074CD
:100D500010EB800544EB01046D1944EB0404521BB5
:100D6000A3414FF0000348BF0A3200D530BD401CFC
:100D700041F1000130BD2DE9F0470D4699469246FC
:100D8000044600F124080168880604D5E06921F0D2
:100D90001001216000E00120A84201DD471B00E0B6
:100DA0000027A1697A1902EB0900081AA0612078CE
:100DB000C00602D42046FFF797FB002608E0D4E9DE
:100DC00001211AF806009047206A401C761C206218
:100DD0004E45F4DB2078C0060AD52046FFF784FB99
:100DE00006E0D4E9012130209047206A401C2062AF
:100DF000381EA7F10107F4DC07E0D4E9012118F857
:100E000005009047206A401C2062281EA5F10105BC
:100E1000F3DC2046FFF77EFB2078000602D5022097
:100E2000BDE8F0870120FBE72DE9F04F04460D46B1
:100E3000D21D22F0070089B0D0E900974846394614
:100E400003F038F80246F80F01D02D2307E02068A0
:100E5000810701D52B2302E0202101EAC0038DF890
:100E600020300BB1012000E00020032A824601D08F
:100E7000072A04DB2946204600F054F93FE1207898
:100E8000800601D40D2500E0E569C7F30A560D2D53
:100E900049DA00214FEA175B08464FF00000002FA7
:100EA00000F4400007DA00EB80004FF4400100EB53
:100EB000D07001EA60008115012901DD4FF0FF319A
:100EC00000224FEA850CBCF1180F06D31346ACF193
:100ED00018004FF08052C24003E04FF4801323FA11
:100EE0000CF30CF10C0CBCF1200F04D3ACF1200C72
:100EF00009FA0CF001E007FA0CF000294FF0004865
:100F000001DD18B90FE00ED140450CD319EB0209F1
:100F10005F4121B9404502D19F4329EA0209BBEB59
:100F2000175F00D0761C2088000502D57B487844E6
:100F300002E07A487844193808AA302302F80A30C7
:100F4000037C0AF10101002E0AF1020A53546A4699
:100F500002DC4FF0300101E04FF031014FF00108A9
:100F60008DF8001002D0A6F2FF3603E059EA4701DF
:100F700000D06B4E002D02DC2178090704D54FF01C
:100F800002082E218DF80110C44600210BE0C7F3A2
:100F900003433F01C35C491C6D1E02F8083005295C
:100FA00008F1010801DA002DF1DC00210CE000EB72
:100FB0001973491C1B786D1E082902F808304FEA86
:100FC000091908F1010801DA002DF0DC21688B060F
:100FD00002D516E0A8F10108E04505DD02EB0803A3
:100FE00013F8013C302BF5D0B8F1000F09DD02EB0E
:100FF000080313F8013C2E2B03D1090701D4A8F1F3
:101000000108002D05DD3E2102F808106D1E08F1D3
:101010000108407C002E02F8080008F1010804DAFB
:101020002D20764202F8080002E02B2002F808008A
:101030000A214FF47A70864208F101080BDB96FB17
:10104000F0F3303302F8083096FBF0F308F10108B2
:1010500000FB136601E0642E0CDB642096FBF0F3CA
:10106000303302F8083096FBF0F308F1010800FB7A
:10107000136601E00A2E06DB96FBF1F0303002F831
:10108000080008F1010896FBF1F001FB1060303018
:1010900002F80800A16908F1010808EB050202EB5B
:1010A0000A00081AA0612078C00602D42046FFF783
:1010B0001BFA216A08AE01EB0A00206204E0D4E9C1
:1010C000012116F8010B9047BAF1010AF7D22078F6
:1010D000C00602D52046FFF707FA6E4609E016F86B
:1010E000010B3E280FD0D4E901219047206A401C13
:1010F0002062B8F10108F2D22046FFF70BFA09B0DE
:101100000320BDE8F08F206A2844206203E0D4E980
:101110000121302090476D1EEBD3F8E7CD3400005D
:1011200002FCFFFF2DE9F0411F460446032601683B
:10113000072A01F4006004DB08B116A505E016A536
:1011400003E008B115A500E015A521F0100020600E
:10115000A069C01EA0610FB1401EA0612046FFF72C
:10116000C3F94FB1D4E9012138469047206A401CA9
:101170002062C01C206206E0206AFAE7D4E901215F
:1011800015F8010B9047761EF8D22046FFF7C2F9FA
:10119000BDE8F0814E414E006E616E00494E460042
:1011A000696E660010B5436913B1AFF3008001E0CA
:1011B000FFF7D3F9012010BD127800F124010A7065
:1011C00000224A700122EDE711684FF0FF32E9E793
:1011D00010B5436913B1AFF3008001E0FFF764FC81
:1011E000012010BD128800F1240182840022C284F3
:1011F0000122EDE711684FF0FF32E9E72DE9F047F2
:10120000814616468AB0354878440DC88DE80D00F1
:1012100032487844801C03AC0DC884E80D0041F6C8
:101220009B300844372190FBF1F290FBF1F5A5F1DA
:10123000800501FB12041B3C02D56442012000E042
:101240000020DFF898A080460027FA44AAF1BE0AE1
:101250000EE0E0070AD03246684607EB470101235B
:101260000AEB810102F0EFFC8DE8070064107F1C9F
:10127000002CEED1194F7F44AE3F19E0E80715D09E
:1012800007EB04100DF1180A90E80E008AE80E0032
:10129000C068F04201D1981908903246012306A98E
:1012A00003A802F0D0FC03AB83E807006D10641CB8
:1012B000002DE3D14FF0010332466946B8F1000F2B
:1012C00003A802D002F0AAFC01E002F0BCFCC9E9CC
:1012D0000001C9F808200AB0BDE8F0878432000098
:1012E0002DE9F04116460C46054600F047F8036824
:1012F00093F80101012807D0FF2C12D8185D80B1A6
:1013000001202C70BDE8F081D3F807013246214658
:1013100003F20713C7182846BC46BDE8F041002376
:1013200060474FF0FF30EDE70048704710000020A5
:101330007546FFF7F9FFAE4605006946534620F0B3
:101340000700854618B020B5FEF798FFBDE820409D
:101350004FF000064FF000074FF000084FF0000B71
:10136000AC46ACE8C009ACE8C009ACE8C009ACE8E0
:10137000C00921F007018D467047000010B5FFF746
:10138000B1FC001D10BD00BF912B000010B504463C
:10139000AFF300802046BDE81040FEF75ABF0000C2
:1013A0004FF0013C50F8042B51F8043B9A4221D1F4
:1013B000A2EB0C03934313EACC1317D150F8042B80
:1013C00051F8043B9A4215D1A2EB0C03934313EA64
:1013D000CC130BD150F8042B51F8043B9A4209D19D
:1013E000A2EB0C03934313EACC13DBD04FF00000C5
:1013F000704700BFD01A01BAB1FA81F101F01801AB
:1014000022FA01F0CB40DBB2C0B2C01AC1F1200118
:101410002CFA01F3D11A914311EAC311E6D17047B6
:1014200001491820ABBEFEE726000200704700000D
:10143000FEE7000083B010B5A1B0844623A80EC01B
:1014400023AB01A88021624600938024FEF728FF89
:1014500001280CDB8028B8BF044640F2F800A2B295
:10146000C2F2000001A94FF0FF3301F0E9F921B009
:10147000BDE8104003B0704770470000EFF31080E4
:1014800072B600BFFEE70000B0B5044600F018F9E0
:10149000054640F20000C2F200000078611C18BF4F
:1014A000044400BF00F00CF9401BA042FAD3B0BDC9
:1014B0002DE9F04F82B00E68002E00F0FD8041F261
:1014C0000042C4F20102042340F2004E904208BFE1
:1014D00003234FF6FF7CC4F2010E00930024012386
:1014E000C1F2100C4FF0000A4FF000094BE000BFB2
:1014F00041F20002C4F20102009F904208BF02279D
:1015000004F00C030F229A402BEA020207FA03F3BD
:101510004FEA9A051A4346F825204E6840F20C45DA
:10152000F202DEF8082054BF22EA080242EA08026A
:10153000C4F20105CEF808202A68B30254BF22EA9B
:10154000080242EA08022A60B303DEF8042054BF0E
:1015500022EA080242EA0802F303CEF80420DEF889
:1015600000204FF0010354BF22EA080242EA0802B9
:10157000CEF800200E680AF1010A36FA0AF204F1E8
:10158000040400F0998003FA0AFB16EA0B08F1D074
:101590004E68664512DC122E56D8DFE806F0350B91
:1015A0004D4955555555555555555555555555450F
:1015B000510000BFD1F80C9046E000BF4FF6FF721B
:1015C000C1F2210296420FDC0022C1F211029642C2
:1015D0001AD00022C1F21202964215D00022C1F2A6
:1015E0002102964210D02FE00022C1F22202964240
:1015F0000AD00022C1F23102964205D00022C1F287
:101600003202964220D100BF8A684AB1012A14BF33
:10161000C0F814B0C0F810B04FF0080914E000BFD3
:101620004FF0040910E000BFCA6802F104090BE0A2
:101630004FF0000908E000BFCA6802F1080903E0A2
:10164000CA6802F10C0900BF02462646B8F5807F41
:1016500024BF0432203E17680F25B54027EA050550
:1016600009FA06F635431560CA79D2067FF582AFCE
:1016700041F21803C4F202031A68AEF57E7642F016
:1016800001021A601A6802F001020192019A2AF01E
:10169000030256F802B040F60002C4F20102904282
:1016A00008D040F60042C4F2010290427FF420AF1D
:1016B000012725E7002723E702B0BDE8F08F0000EF
:1016C00040F24010C2F2000000687047002804BFDA
:1016D00001207047F0B581B0044690F83D0028B96C
:1016E000002084F83C00204600F002FC242084F80E
:1016F0003D002068016821F001010160016841F4AA
:1017000000410160016821F40041016000F0A8FD82
:10171000636848F2A16CC0F2010C40F60011C0F2FF
:101720003D0163453CBF48F28041C0F21E01884242
:1017300002D2012001B0F0BD4DF68361C4F21B312D
:10174000A0FB01122168970CD1F804E04FF49676C3
:101750002EF03F0545EA92454D60774348F638162E
:101760000D6AC0F24106A7FB067625F03F076345E8
:1017700038BF960C721C3A430A62CA6948F2A066E6
:101780004CF6FF77C0F20106B34222EA07020BD8FB
:1017900001385B00B0FBF3F001306FF31F30042819
:1017A00098BF04201BE000BFA768013857B1192774
:1017B0007B43B0FBF3F001306FF31F3070B100F5E5
:1017C000804007E003EB4303B0FBF3F001306FF31D
:1017D0001F3018B100F5004001E000BF01201043A8
:1017E000C8610868D4E9072320F0C00010431843FB
:1017F0000860886848F2FF3204F10C0790438CCFF0
:1018000018431043A6698860C86820F0FF00384379
:101810003043C860086840F00100086000202021C3
:10182000206484F83D10206384F83E0001B0F0BDD0
:101830002DE9F04F83B01E46924688460446FFF7D6
:101840003FFF94F83D10202924D12168054600BFB0
:10185000886980071AD5FFF733FF401B21681A28D3
:10186000F6D388698007F3D500202021206384F80F
:101870003D1084F83E00216C41F02001216484F881
:101880003C00022003B0BDE8F08F00BF94F83C009C
:10189000012803D1022003B0BDE8F08F4FF0010909
:1018A00084F83C900868C00703D1086840F0010044
:1018B00008600868002720F400600860242084F88D
:1018C0003D000020CFF6FF702764E06208F0FE08BC
:1018D000BAF1010F88BFD1464FF0A00A4FF0200B9C
:1018E00004E000BF01374F4500F0A28008680022E5
:1018F00040F48070086020464FF001113346009597
:1019000001F0B6F92168002856D1C1F81080FFF720
:10191000D7FE21684B694A6994F83D50A02D0546D1
:1019200005D013F0020008BF12F480601AD084F8CA
:101930003DB048690A68800742F400720A6045D4E5
:101940006FF48060486100BF88698007CAD5FFF7DF
:10195000B7FE401B21681A28F6D388698007F3D5A3
:101960004AE000BFB6B100BFFFF7AAFE401BB0427D
:1019700088BF84F83DA021684A69486994F83D30E1
:10198000A02BD4D012F0020208BF10F48060EBD07C
:10199000CDE700BFFFF794FE84F83DA021684A69B7
:1019A000486994F83D30A02BC1D012F00202BED19C
:1019B00010F48060EED0BAE70868C00544BF4FF469
:1019C00000702064032003B0BDE8F08F0020029077
:1019D00048690290886902900298886901E000BF16
:1019E000806980071AD5FFF76BFE411B20681A2912
:1019F000F6D381698907F3D500202021206384F87C
:101A00003D1084F83E00216C41F02001216484F8EF
:101A10003C00012003B0BDE8F08F00BF202084F817
:101A20003D00002084F83C0003B0BDE8F08F00BF0B
:101A3000202084F83D00002084F83C00012003B001
:101A4000BDE8F08F2DE9F04F85B00446002099469F
:101A500016460F460490FFF733FE94F83D102029F8
:101A600027D10546206800BF816989071CD5FFF78B
:101A700027FE411B20681A29F6D381698907F3D50F
:101A800000202021206384F83D1084F83E00206C63
:101A900004F13C0A40F020002064022000218AF872
:101AA000001005B0BDE8F08FA2461AF83C1F0129CE
:101AB00004D1022005B0BDE8F08F00BF01228AF8F2
:101AC00000200368DDE90F180E9ADB0703D10368D5
:101AD00043F001030360036823F4006303602220E2
:101AE00084F83D00402084F83E00002020646262BB
:101AF0006185608D394620850020CFF6FF70E06259
:101B0000204632464B46CDE9008500F065FF18B10E
:101B1000012005B0BDE8F08F208D022826D00128D5
:101B20000ED0002838D1002003902068416903912D
:101B3000816903910399016841F40071016037E004
:101B40002068016821F480610160EFF3108072B6B3
:101B500000200390206841690391816903910399F2
:101B6000016841F40071016062B621E020680168FB
:101B700041F400610160EFF3108072B60020039021
:101B8000206841690391816903910399016821F4F7
:101B90008061016062B60BE02068016841F48061F9
:101BA00001600021039141690391806903900398CA
:101BB000208D002800F0CE80042740F208094BF267
:101BC000895BC0F20107C2F20009C1F2F84B23267B
:101BD0000EE000BF10690870606A218D01306062FC
:101BE000481E2085618D01396185010400F0B280B5
:101BF00080B203280CD802282CD001284AD12046D4
:101C000041462A4601F086F9002800F09F807FE7D0
:101C1000204641462A4601F07DF900287FF478AF3E
:101C20002068616A00690870606A2268411C208D22
:101C3000616201382085638D013B638553695B07D1
:101C4000D3D580B20328C5D1106820F4806010601D
:101C5000C0E700BF2046394600224346009501F008
:101C600007F800287FF454AFEFF3108072B62068B5
:101C7000616A026842F40072026000690870606A7A
:101C8000218D01306062481E2085608D013860859D
:101C900062B65BE02046394600224346009500F0DC
:101CA000E7FF00287FF434AF2068016821F48061E9
:101CB0000160EFF3108072B62068616A00690870F5
:101CC000606A218D0130013960622185618D0139A1
:101CD0006185D9F80010C908A1FB0B12110A7143E4
:101CE0000491049901390491049900293ED0216896
:101CF0004A6952071AD40499013904910499A9B385
:101D000021684A69520711D4049901390491049950
:101D100061B321684A69520708D4049901390491D2
:101D2000049919B321684A695207DAD50A6842F45E
:101D300000720A6009690170606A218D0130606279
:101D4000481E2085608D0138608562B62068616A12
:101D5000006940E7202084F83D00002084F83E0020
:101D600000218AF8001005B0BDE8F08F0020202186
:101D7000206384F83D1084F83E00206C40F0200081
:101D8000206462B6012000218AF8001005B0BDE889
:101D9000F08F00002DE9F04383B0994616460F46B8
:101DA0000446FFF78DFC94F83D10202924D1054608
:101DB000206800BF816989071AD5FFF781FC411BA4
:101DC00020681A29F6D381698907F3D500202021DC
:101DD000206384F83D1084F83E00216C41F020011E
:101DE000216484F83C00022003B0BDE8F08300BF0A
:101DF00094F83C10012903D1022003B0BDE8F08320
:101E0000012284F83C200368DDE90B180A9ADB07FD
:101E100003D1036843F001030360036823F4006304
:101E20000360212084F83D00402084F83E0000201B
:101E3000206462626185608D394620850020CFF67E
:101E4000FF70E062204632464B46CDE9008500F047
:101E50004DFE18B1012003B0BDE8F083208D98B984
:101E6000204641462A4600F0A5FE88B3206C04288F
:101E7000F0D12068016841F400710160012003B0D5
:101E8000BDE8F0830004EBD0204641462A4601F02D
:101E900089F80028EAD1616A2268084610F8013BF7
:101EA0001361238D6062581E2085678D013F678511
:101EB00057697F07E6D50704E4D048781061881C8D
:101EC0006062981E2085618D01396185DAE700BF67
:101ED0002068016841F400710160202084F83D0011
:101EE000002084F83E0084F83C0003B0BDE8F08395
:101EF00010B586B0016845F20040C4F2000081428E
:101F00004FF00001CDE90411CDE9021102D006B075
:101F100010BD00BF41F21804C4F20204216800F5AC
:101F2000384041F008012160216801F00801019169
:101F30000199C0210291122103910321059102A967
:101F4000FFF7B6FA606840F400106060606800F463
:101F500000100190019806B010BD000040F2000092
:101F600040F24011C2F20000C2F2000100780A689B
:101F7000104408607047000080B542F20000C4F2CF
:101F80000200016841F010010160032000F07AF8BE
:101F90000F2000F005F800F027F8002080BD0000B9
:101FA00070B540F20006C2F2000640F20801327835
:101FB000C2F200014FF47A730968B3FBF2F20446EF
:101FC000B1FBF2F1084600F073FB0F2C4FF0010556
:101FD00008D838B94FF0FF3021460022002500F024
:101FE00025F87460284670BD82B041F21800C4F232
:101FF00002000168022241F001010160016801F064
:10200000010101910199416841F0805141604068AE
:1020100000F08050009000980420C4F20100016894
:1020200062F31A61016002B07047000010B54EF60D
:102030000C5CCEF2000CDCF80030C3F3022E8EF004
:102040000704042C28BF0424BEF103034FF0FF3E15
:102050000EFA04F438BF0023A14399400EFA03F3AB
:102060009A43114300F00F0200F160430901043A62
:1020700003F564436244002848BF02F10C03197061
:1020800010BD00004EF60C51CEF200010A684FF66A
:10209000FF031A4060F30A2242F0806040F0FD70B6
:1020A00008607047002804BF012070472DE9F04305
:1020B00081B042F20008C4F202080446D8F80000D9
:1020C0000D4600F0070088420CD2D8F8000020F03E
:1020D00007002843C8F80000D8F8000000F0070007
:1020E000A8426CD1206841F204098107C4F20209B8
:1020F00017D5410705D5D9F8001041F4E061C9F8BA
:102100000010010705D5D9F8001041F46051C9F855
:102110000010D9F80010A26821F0F0011143C9F8AD
:102120000010C00742D1D8F8000000F00700A84214
:102130000CD9D8F8000020F007002843C8F80000A8
:10214000D8F8000000F00700A84238D12068410705
:1021500007D5D9F80010E26821F4E0611143C9F80D
:102160000010000708D5D9F80000216920F460505C
:1021700040EAC100C9F80000D9F8002002F00C00C4
:10218000082841F20020C0F27A004DD144F2C24347
:10219000C2F38341C0F60003595CD20338D440F641
:1021A0000010C0F23D0048433EE000BF606859F8AF
:1021B000041C022808D0012826D1890306D4012056
:1021C00001B0BDE8F08300BF8901F8D5D9F800104F
:1021D00021F003010843C9F80000FFF771FA064631
:1021E00041F28837D9F80000616800F00C00B0EBCC
:1021F000810F98D0FFF764FA801BB842F2D9032010
:1022000001B0BDE8F08300BF8907D8D5DEE700BF85
:10221000D9F8002044F2C043C2F34042C0F60003A4
:102220009A5C4843B0FBF2F0D9F8001044F2A8429F
:10223000C1F30311C0F60002515C40F2080220FA1B
:1022400001F140F20400C2F200000068C2F2000294
:102250001160FFF7A5FE002001B0BDE8F08300008B
:1022600040F2080041F20401C2F20000C4F202018F
:102270000068096844F2B842C1F30221C0F60002C6
:10228000515CC8407047000040F2080041F2040170
:10229000C2F20000C4F202010068096844F2B842C8
:1022A000C1F3C221C0F60002515CC8407047000073
:1022B000002804BF012070472DE9F04182B0044698
:1022C000007841F20006C007C4F202060CD0706824
:1022D00000F00C00042840F081803068800303D5B2
:1022E0006068002800F04681207880071BD5706860
:1022F00010F00C0F09D0706800F00C00082840F0B6
:1023000087807068C00300F183803068800703D540
:102310002069012840F02E813068616920F0F800C2
:1023200040EAC10030602078000713D420784007CD
:102330002CD4E569002D00F01881706800F00C00C5
:10234000082840F0A780012D40F00481012002B050
:10235000BDE8F081A069002800F084800020C4F26C
:1023600042200121C0F88014FFF7AAF9054600BFFA
:10237000706A800700F1B280FFF7A2F9401B0228C3
:10238000F6D9032002B0BDE8F08100BFF0695FEA32
:10239000C00808D4F06940F08050F061F06900F0A6
:1023A00080500090009847F20007C4F20007386898
:1023B000C00549D4386840F480703860FFF780F970
:1023C000054600BF3868C0053ED4FFF779F9401BC9
:1023D0006428F7D9032002B0BDE8F081706800F0EE
:1023E0000C00082803D17068C0033FF576AF616820
:1023F0003068002900F00C81B1F5A02F00F00081B9
:10240000B1F5803F40F01A8140F480301CE100BFFC
:102410002069002840F20000C4F2422000F08880C9
:1024200001210160FFF74CF9054600BF30688007C5
:102430003FF572AFFFF744F9401B0228F6D903209D
:1024400002B0BDE8F08100BFE168306A002900F009
:102450009D80052900F09280012940F0AF8040F076
:102460000100B1E00020C4F242200021C0F8801435
:10247000FFF726F9054600BF706A80077FF556AF63
:10248000FFF71EF9401B0228F6D9032002B0BDE871
:10249000F08100BF0027C4F2422700203866FFF712
:1024A0000FF9022D05460DD13068800140F1DE8024
:1024B000FFF706F9401B02284FF00300F4D902B0E1
:1024C000BDE8F081306880014FD5FFF7F9F8401B77
:1024D00002284FF00300F5D9F1E700BF40F20800F1
:1024E000C2F20000006844F6D351C1F26201A0FBC1
:1024F0000101480A019000BF00BF0198411E002859
:1025000001913FF413AF00BF0198411E00280191D3
:102510003FF40CAF00BF0198411E002801913FF429
:1025200005AF00BF0198411E00280191E4D1FDE6EE
:1025300000210160FFF7C4F8054600BF306880073E
:102540007FF5F1AEFFF7BCF8401B02284FF0030007
:10255000F4D9B4E77068216A00F480328A4209D164
:10256000616A00F47010884204D1002002B0BDE816
:10257000F08100BF012002B0BDE8F08140F004000E
:102580003062306A40F001001EE000BF20F0010020
:102590003062306A20F004003062FFF791F805469F
:1025A00041F28837306A800720D5FFF789F8401B51
:1025B000B8424FF00300F5D981E700BF20F00100D9
:1025C0003062306A20F004003062FFF779F8054687
:1025D00041F28837306A800708D4FFF771F8401B52
:1025E000B842F7D9032002B0BDE8F081B8F1000F7E
:1025F0003FF59FAEF06920F08050F06199E600BF92
:1026000040F480203060306840F480301CE000BF2F
:1026100020F480303060306820F480203060FFF794
:102620004FF80546306880037FF55EAEFFF748F847
:10263000401B64284FF00300F4D940E720F48030B9
:102640003060306820F480203060FFF739F80546AC
:10265000306880033FF548AEFFF732F8401B64282E
:10266000F6D9032002B0BDE8F08100BF206AB0F5C2
:10267000803F05D17168A26821F400311143716077
:102680007168626A21F4741111430843706001207B
:102690003866FFF715F80446306880013FF565AFEE
:1026A000FFF70EF8001B02284FF00300F4D906E7ED
:1026B000411E0020B0EB116F1CBF012070474EF28D
:1026C0001002CEF2000251604EF62351CEF200010C
:1026D000F0230B700721906011607047002804BF41
:1026E0000120704710B5044690F8410028B9002039
:1026F00084F84000204600F063F8242084F841006C
:102700002068D4E90212C36823F40053C36003694C
:1027100023F440531A430261D4E904231143C268ED
:10272000194341F20C639A431143C1604169A269A4
:1027300021F44071114343F60002C4F201029042B9
:10274000416103D0FFF78CFD02E000BFFFF79CFD65
:10275000D4E90023192148439900B0FBF1F048F275
:102760001F5CC5F2EB1CA0FB0C314FF69C734909B2
:10277000C0F6FF7301FB0300322303EB0010A0FB44
:102780000C03F02000EA531000EB0110C3F34311D7
:10279000084490601069202120F490401061506935
:1027A00020F02A005061D06840F40050D060002032
:1027B000606484F8411084F84210606310BD00002A
:1027C00070B586B040F60004C4F20104006804F558
:1027D0004051002688420596CDE90366029601D055
:1027E00006B070BD41F21800C4F20200016802ADEB
:1027F00041F480410160016801F480410191019937
:10280000016841F0040101600068294600F00400FD
:10281000019001984FF40070029002200390032071
:1028200005902046FEF744FE4FF48060CDE9020695
:10283000204629460496FEF73BFE06B070BD000018
:102840002DE9F04381B0044690F84100202809D1D9
:1028500000294FF0010018BF002A07D101B0BDE8E0
:10286000F08300BF022001B0BDE8F0830020606467
:1028700021201D460E4684F841001746FEF720FF32
:10288000A784E784A1688146B1F5805F02D1206901
:1028900000285DD037460020E28C2168002A5DD0F8
:1028A0006A1C24D0002D4AD0804600BF086800066C
:1028B00008D4FEF705FFA0EB0900A8427AD82168EA
:1028C000C868F3E717B117F8010B04E038F8020BFA
:1028D00000276FF35F204860E08C0138E084E08CD3
:1028E0000028E3D13AE000BF0A68120609D40A685A
:1028F000120606D40A6812065CBF0A685FEA026222
:10290000F2D51FB117F8012B05E000BF30F8022BFC
:1029100000276FF35F224A60E28C013AE284E28C86
:10292000002AE4D11AE000BF30F8022B00276FF331
:102930005F224A60E28C013AE284E28C72B10A685A
:10294000120635D5002FEFD017F8012BF1E700BFA5
:1029500000273046E28C2168002AA1D10868400691
:102960001ED42DB3681C14D1086840062AD4086808
:10297000400627D40868400624D4086840064FF073
:102980000000F1D50DE000BF2068C1680068400676
:1029900018D4FEF795FEA0EB0900A842F4D909E08F
:1029A0000020202184F8411001B0BDE8F08300BF71
:1029B000FEF786FE0320202184F8411001B0BDE817
:1029C000F08300BF0020202184F8411001B0BDE851
:1029D000F0830000FEE700002DE9F04782B00446D6
:1029E00000689A460B9D0A9E0368914643F48062F4
:1029F000026002680F4642F48071016020464FF089
:102A0000011100223346009500F032F950B12068E0
:102A10000068C00544BF4FF400702064032002B07A
:102A2000BDE8F08740F202082068C0F2010807F014
:102A3000FE0707612046414632462B4600F0FEF96C
:102A400020B1012002B0BDE8F08700BF0020019056
:102A500020682A46416901918069314601900198B8
:102A6000204600F09FFAB0B92068BAF1010F09D0F2
:102A70004FEA19210161204631462A4600F092FAB8
:102A800048B920685FFA89F10161204631462A463B
:102A900000F088FA60B1206C0428D2D12068016867
:102AA00041F400710160012002B0BDE8F08700BF71
:102AB000206800220168334641F48071016020469D
:102AC0004FF00111009500F0D3F800289FD147F096
:102AD000010C27682046414632462B46C7F810C0F5
:102AE00002B0BDE8F04700F0A9B900002DE9F043BD
:102AF00083B0044600680F4601680A9D0B9E41F4AE
:102B0000807199469046016020464FF001110022E5
:102B10002B46009600F0ACF850B120680068C00564
:102B200044BF4FF400702064032003B0BDE8F0837D
:102B3000206807F0FE0101610221C0F20101204678
:102B40002A46334600F07AF920B1012003B0BDE8EF
:102B5000F08300BF00200290206832464169029154
:102B60008069294602900298204600F01BFA58B16D
:102B7000206C0428E9D12068016841F400710160EB
:102B8000012003B0BDE8F0832068B9F1010F0AD03D
:102B90004FEA1821016120462946324600F002FA28
:102BA0000028E5D120685FFA88F10161002003B0B8
:102BB000BDE8F08370B50368044653F8140F40076E
:102BC00011D40E46481C29D086BB00BF18684005AA
:102BD00027D4FEF775FD236853F8140F400737D547
:102BE00018684007F2D5002070BD00BF1868400784
:102BF000F9D41868400514D418684007F3D418684D
:102C000040050ED418684007EDD41868400508D474
:102C1000186840074FF0000048BF70BD18684005B5
:102C2000E4D56FF480601860042012E0154603E0DC
:102C300053F8140F4007D6D418684005F1D4FEF7B6
:102C40003FFD401B2368B042F2D958694007EFD4DA
:102C5000202000212022216384F83D2084F83E10AA
:102C6000226C10432064012084F83C1070BD0000E9
:102C70002DE9F041054600681E46144601F47F0226
:102C800001338FB242D0DDF81880B2F5803F40F0BA
:102C9000878040693840C01BB0FA80F04009A042EC
:102CA00040F0C8804EB924E040693840C01BB0FAFB
:102CB00080F04009A04240F0BD80FEF701FDA0EB8E
:102CC00008012868B142EFD941693940C91BB1FAFE
:102CD00081F14909A142E7D19BE000BF406938403A
:102CE000C01BB0FA80F04009A0424FF0000040F055
:102CF000A280FEF7E5FC286841693940C91BB1FA9A
:102D000081F14909A142E9D183E000BFB2F5803FDA
:102D100024D100BF41693940C91BB1FA81F1490989
:102D2000A14240F0878041693940C91BB1FA81F165
:102D30004909A14240F07E8041693940C91BB1FA7E
:102D400081F14909A14275D141693940C91BB1FAE4
:102D500081F14909A142DDD06CE000BF81693940B1
:102D6000C91BB1FA81F14909A14263D18169394096
:102D7000C91BB1FA81F14909A1425BD1816939408E
:102D8000C91BB1FA81F14909A14253D18169394086
:102D9000C91BB1FA81F14909A142DFD04AE000BF65
:102DA00080693840C01BB0FA80F04009A04241D190
:102DB00046B923E080693840C01BB0FA80F0400972
:102DC000A04237D1FEF77CFCA0EB08012868B14295
:102DD000F0D981693940C91BB1FA81F14909A14291
:102DE000E8D116E080693840C01BB0FA80F0400995
:102DF000A0424FF0000018BFBDE8F081FEF760FC74
:102E0000286881693940C91BB1FA81F14909A14299
:102E1000E8D100202021286385F83D1085F83E0088
:102E2000296C41F02001296485F83C000120BDE8AF
:102E3000F08100BF0020BDE8F0810000F0B581B056
:102E4000044600681D4643698FB203EA0701B94290
:102E500002D1002001B0F0BD4169164601323CD0DC
:102E6000490512D47EB300BFFEF72AFC411B20683F
:102E7000B14203D941693940B9422BD14169394046
:102E8000B942E6D041694905EED5016841F40071C7
:102E900001606FF4806141610420002120222163E0
:102EA00084F83D2084F83E10226C1043206484F89E
:102EB0003C10012001B0F0BD41693940B942C8D091
:102EC00041694905E1D4FEF7FBFB206841693940BF
:102ED000B942F1D02020E0E741694905D5D44169E4
:102EE0003940B942B5D041694905CED4416939402C
:102EF000B942AED041694905C7D441693940B942A8
:102F0000A7D041694905C0D441693940B942E3D1EC
:102F10009FE7000070B504460068154650F8143F5E
:102F20005A063DD40E4629B926E000BF50F8141FBA
:102F3000490635D40168C90621D4FEF7C1FB411BFF
:102F40002068B142F2D941694906EFD4002020211E
:102F5000206384F83D1084F83E00206C40F020008F
:102F600018E000BFFEF7ACFB206850F8141F4906BC
:102F7000ECD50168490613D40168C906F2D56FF093
:102F80001001016000202021206384F83D1084F8A6
:102F90003E00206C2064002084F83C00012070BDBD
:102FA000002070BD70B50368044653F8140F000686
:102FB00011D40E46481C29D086BB00BF18684005B6
:102FC00027D4FEF77DFB236853F8140F000637D58E
:102FD00018680006F2D5002070BD00BF1868000612
:102FE000F9D41868400514D418680006F3D418689A
:102FF00040050ED418680006EDD41868400508D4C2
:10300000186800064FF0000048BF70BD1868400502
:10301000E4D56FF480601860042012E0154603E0E8
:1030200053F8140F0006D6D418684005F1D4FEF703
:1030300047FB401B2368B042F2D958690006EFD421
:10304000202000212022216384F83D2084F83E10B6
:10305000226C10432064012084F83C1070BD0000F5
:103060002DE9F04381B00446B0F90000B4F90260E4
:10307000B4F90470B4F9068001F0BAF840F27001B6
:10308000C2F20001D1E90095294600F0EFFF20616E
:10309000304601F0ADF8294600F0E8FF606138469F
:1030A00001F0A6F8294600F0E1FFA061404601F0DA
:1030B0009FF80021C4F2AA3100F0D8FF41F6B861B0
:1030C000C4F2122100F070FFB4F90810E061084664
:1030D00001F08EF8494600F0C9FFB4F90A102062E9
:1030E000084601F085F8494600F0C0FFB4F90C101D
:1030F0006062084601F07CF8494600F0B7FFA06224
:1031000001B0BDE8F0830000F0B587B03220FEF7D3
:10311000BBF900266DA08DF81260FEF78BF9012730
:103120000DF11200CDE9000740F2A4006425C2F2BF
:103130000000D021752201230295FEF783FC9DF843
:103140001200682840F0B08044F2D240C0F600007F
:103150006821FEF76FF9802040F2A4048DF8130077
:103160000DF11300C2F20004CDE900072046D02182
:103170006B2201230295FEF70DFE6420FEF784F911
:1031800005A8CDE900072046D0216B2201238DF848
:1031900014600295FEF7FEFD3220FEF775F9272038
:1031A0008DF815000DF11500CDE900072046D0215E
:1031B000192201230295FEF7EDFD3220FEF764F996
:1031C0000DF11600CDE900072046D0211A22012377
:1031D0008DF816600295FEF7DDFD3220FEF754F9FA
:1031E0000DF11700CDE900072046D0211B22012355
:1031F0008DF817600295FEF7CDFD3220FEF744F9F9
:1032000006A8CDE900072046D0211C2201238DF815
:1032100018600295FEF7BEFD3220FEF735F90DF17C
:103220001900CDE900072046D021382201238DF86E
:1032300019700295FEF7AEFD3220FEF725F9202029
:103240008DF81A000DF11A00CDE900072046D021B3
:10325000372201230295FEF79DFD3220FEF714F977
:103260000DF11B00CDE900072046D0216B22012380
:103270008DF81B600295FEF78DFD3220FEF704F9F4
:1032800040F270000021C2F20000C4F203314FF09E
:103290008D42C0E9001244F2F340C0F60000FEF790
:1032A000C9F807B0F0BD00BF0EA0FEF7C3F89DF847
:1032B00012100FA0FEF7BEF818A400BF2046FEF7BC
:1032C000B9F86420FEF7E0F8F8E700BF43686563EB
:1032D0006B696E67204D5055363035302E2E2E0DD1
:1032E0000A0000004552524F52210D0A0000000012
:1032F0004D5055363035302077686F5F616D5F69AE
:10330000203A203078253032782073686F756C64ED
:1033100020626520307836380D0A000077686F200B
:10332000616D2069206572726F722E2043616E207C
:103330006E6F74207265636F676E697A65206D7059
:1033400075363035300D0A0010B588B004460E20B1
:103350000DF11201CDE9001040F2A4004FF0640C11
:10336000C2F20000D0213B220123CDF808C0FEF7B5
:1033700069FBBDF81200BDF8141000BA000C2080E3
:1033800008BABDF81610000C608008BABDF8181015
:10339000000CA08008BABDF81A10000CE08008BA32
:1033A000BDF81C10000C208108BABDF81E10000CDE
:1033B000608108BA000CA0812046FFF751FE08B0DA
:1033C00010BD000080B586B0002041F21801CDE9A3
:1033D0000400CDE90200C4F202010A6842F02002B2
:1033E0000A600A6802F020020192019A0A6842F01B
:1033F00004020A600A6802F004020192019A0A6853
:1034000042F008020A60096801F00801019101997F
:103410002021CDE90210049040F60040C4F20100E2
:1034200002A9FEF745F806B080BD000080B540F265
:10343000A40045F20041C2F20000C4F2000141F6CE
:10344000802200234FF4804CC0F2060280E80E0078
:10345000C0E9033CC0E90533C0E90733FEF736F99C
:10346000002808BF80BDBDE88040FEF707B8000017
:1034700080B540F2F80043F60001C2F20000C4F249
:10348000010100234FF00C0C4FF4E13280E80E00F4
:10349000C0E90333C0E905C3C361FFF71FF9002882
:1034A00008BF80BDBDE88040FDF7E8BFFEE7000033
:1034B000FEE700007047000070470000FEF74EBDB9
:1034C00070470000FEE70000C2B0FEF755FD002483
:1034D0000120CDE91A44CDE91844159019904FF414
:1034E000E0104FF4803102251E9015A8CDE9161486
:1034F000CDE91C51FEF7DCFE20B1EFF3108072B66F
:10350000FEE700BF0F20CDE93D054FF48060CDE917
:1035100040043DA802213F94FEF7C4FD20B1EFF323
:10352000108072B6FEE700BFFFF74CFFFFF77EFF8B
:10353000FFF79EFF5E480DF1580C15905CA0071D2B
:10354000D0E90565D0E907408ECFCDE91C4015AC28
:1035500020468CE88E00CDE91A65FCF7A3FF82B205
:1035600040F2F800C2F2000021464FF0FF33FFF7AF
:1035700067F940F2A400C2F20000D02103226423C4
:10358000FEF756F9D0B15348159052A0071D8ECFC3
:10359000D0E9056CD0E90745199700F12407406B85
:1035A0001691179218938ECF22901FA81A96CDE9E4
:1035B0001D51CDE91BC48CC00BE000BF53480DF179
:1035C000580C159051A0071D8ECF40698CE88E00D5
:1035D0001A9015AC2046FCF765FF82B240F2F80065
:1035E000C2F2000021464FF0FF33FFF729F9FFF741
:1035F0008BFD40F27804C2F2000402E06420FDF783
:1036000043FF2046FFF7A0FE04F11007A1CFE169B8
:103610000F9100F09DFCCDE91310284600F098FCB6
:10362000CDE91110384600F093FC1090206A8A46CC
:1036300000F08EFC8346606A0F4600F089FC054668
:10364000A06A0E4600F084FC80460F98894600F080
:103650007FFCCDE90C01149809AA009013980895F5
:103660000190129815AD0290119882E840030390E2
:10367000109804A944F2155281E8010C2846A021B3
:10368000C0F600020797FCF729FE0128B6DBA02848
:103690004FF0A001A8BF084682B240F2F800C2F283
:1036A000000029464FF0FF33FFF7CAF8A6E700BF36
:1036B0003D3D3D205541525420544553543A2053EA
:1036C000544D3332207265616479203D3D3D0D0AD1
:1036D000000000004932433A204D50553630353015
:1036E000204E4F54206465746563746564202D20FA
:1036F000636865636B20776972696E672F70756C9C
:103700006C7570732F616464720D0A004932433A1C
:10371000204D5055363035302064657465637465CE
:10372000640D0A005FEA400C08BF91F0000F4FEAF9
:103730008C234FEAC12243EA51514FEA1C5018BF73
:1037400000F5F0404FEA300018BF41F000415FEA59
:103750006C5C00F02980BCF1FF3F08BF40F0804066
:103760007047130C06BF12044FF0100C4FF0000C02
:10377000130E04BF12020CF1080C130F04BF120148
:103780000CF1040C930F04BF92000CF1020CD30F48
:1037900004BF52000CF1010C11464FF00002A0F1E1
:1037A0001F00A0EB0C00704711F0004F08BF7047DE
:1037B00031F000413FF4D5AF0B0C06BF09044FF0C8
:1037C000100C4FF0000C0B0E04BF09020CF1080C9A
:1037D0000B0F04BF09010CF1040C8B0F04BF89000F
:1037E0000CF1020CCB0F04BF49000CF1010CCCF121
:1037F000200322FA03F341EA030102FA0CF2A0EBE0
:103800000C0000F10100704723F07F4720F07F4C4F
:1038100080EA030000F00040ACEB070303F57C53A3
:1038200003F1FF032DE9804909B44FEA144324EA68
:1038300003484FEA154B25EA0B4E0FF2042606EB20
:1038400013273E7803FB0667C7F5000707FB06F65C
:103850004FEAD64606F102064FEA543707FB066CDC
:10386000CCF1005C4FEA1C472CEA074C0CFB06F538
:1038700007FB06F404EB15464FEA961649085FEA83
:10388000320234BF00204FF000404FEAD13706FB30
:1038900007FC4FEA1C4C0CFB0BF7D21B03FB0CF78D
:1038A00061EB07010CFB0EF7B0EB074072EB174220
:1038B0000CFB08F734BFA2EB0742B2EB074261EB07
:1038C00017414FEA0C444FEA910706FB07FC4FEA09
:1038D0001C4C0CFB0BF7B0EBC74072EB573203FBF1
:1038E0000CF734BFA2EBC742B2EBC74261EB5731D2
:1038F0000CFB0EF7B0EBC70072EB57720CFB08F72E
:1039000034BFA2EBC702B2EBC70261EB57714FEABB
:10391000816141EA92114FEA826242EA90124FEAD3
:10392000806004EBCC04039F4FEAD13706FB07FC11
:103930004FEA1C4C0CFB0BF7D21B03FB0CF761EBA3
:1039400007010CFB0EF7B0EB074072EB17420CFBC4
:1039500008F734BFA2EB0742B2EB074261EB174115
:103960004FEA8C5504EB9C244FEA910706FB07FCB9
:103970004FEA1C4C0CFB0BF7B0EBC74072EB573215
:1039800003FB0CF734BFA2EBC742B2EBC74261EBBB
:1039900057310CFB0EF7B0EBC70072EB57720CFB04
:1039A00008F734BFA2EBC702B2EBC70261EB577155
:1039B0004FEA816141EA92114FEA826242EA901233
:1039C0004FEA806015EB4C2544F100044FEAD137F3
:1039D00006FB07FC4FEA1C4C0CFB0BF7D21B03FB4E
:1039E0000CF761EB07010CFB0EF7B0EB074072EB35
:1039F00017420CFB08F734BFA2EB0742B2EB0742B9
:103A000061EB17414FEA813141EA92414FEA82323C
:103A100042EA90424FEA80304FEA0C7615EB1C15D3
:103A200044F1000448EA03434EEA0B484FF0000E0D
:103A3000B2EB080C71EB030724BF624639464EEB2C
:103A40000E0E4FF0000B0018524149414BEB0B0B8F
:103A5000B2EB080C71EB03077BF1000B24BF62464D
:103A600039464EEB0E0E4FF0000B00185241494103
:103A70004BEB0B0BB2EB080C71EB03077BF1000B6C
:103A800024BF624639464EEB0E0E51EA020718BFBC
:103A900046F0010616EB0E7655F1000254F10001D6
:103AA00003D5BDE88901BDE80088BDE88901BDE80E
:103AB0000048B619524141EB0101A3F101037047DF
:103AC00080807F7E7D7C7B7A79787776767574735B
:103AD000727171706F6E6E6D6C6C6B6A6A6968681A
:103AE000676666656464636362616160605F5F5EB0
:103AF0005E5D5D5C5C5B5B5A5A5959585857575626
:103B0000565555555454535352525251515050508A
:103B10004F4F4F4E4E4D4D4D4C4C4C4B4B4B4A4ADC
:103B20004A49494948484847474747464646454520
:103B30004544444444434343434242424241414159
:103B40009C46002B30D477002BD04FEA37071CB5AA
:103B500003B44FF010004FF01001BAF1000F06D07F
:103B6000BCF1000FDCBF40F0080040F008014FF04E
:103B700000000FBCBDE810400BF1010BBBF1010FC1
:103B800008BF5FEA170722BF12F1010211F101011C
:103B90004FF0004143F1000300F0004043EA000011
:103BA0007047F9D35708D0E746EA06464FEA16466B
:103BB00013F1400F1FDD13F1200FDFBF16430A463C
:103BC000002120335B42BED0C3F1200746EA0646FF
:103BD0004FEA164602FA07F746EA070622FA03F208
:103BE000C3F1200701FA07F742EA070221FA03F1BD
:103BF0004FF00003A7E746EA020646EA06464FEA08
:103C0000164646EA0106BCBF46EA0646360C4FF0A9
:103C100000034FF000024FF0000194E72DE9804CC3
:103C200070B49A46934691E8380007C831EA400CD0
:103C300048BF34EA430C03D5FFF7E6FDFFF780FFEA
:103C4000F0BCBDE8008C2DE9804C70B49A469346D8
:103C500091E8380007C810F0804F08BF13F0804F7C
:103C600003D100F005F8FFF76BFFF0BCBDE8008C56
:103C700020F07F4723F07F4C80EA030000F00040F3
:103C800007EB0C03A3F57C53A3F1FE0392F0000FA6
:103C900000F0B38095F0000F00F077802DE9014926
:103CA0004FEA114021EA00484FEA144624EA064749
:103CB00000FB06FC08FB06F607FB08F818EB0648B5
:103CC0004CEB164C00FB07F718EB07484CEB174082
:103CD0004FEA124B22EA0B4E4FEA154625EA0647F9
:103CE0000BFB06FC0EFB06F607FB0EFE1EEB064E5C
:103CF0004CEB164C0BFB07F71EEB074E4CEB174B30
:103D000018EB0B0840F1000018EB0E0B58EB000805
:103D100040F100008F1A4FF000014FF000063CBF49
:103D2000C943661B14BFB5EB040C00213CBFC9435B
:103D3000F61B4FEA174427EA04454FEA1C472CEAD2
:103D4000074C04FB076205FB07F70CFB05F616EBB7
:103D5000074642EB174204FB0CFC16EB0C4642EB09
:103D60001C421BEB060658EB020241414EEA8E0E46
:103D700046EA9E0601D5BDE80189B619524141EBDC
:103D80000101A3F10103BDE801894FEA144524EACA
:103D900005464FEA114721EA074C05FB07F406FBED
:103DA00007F70CFB06F111EB074144EB174405FB49
:103DB0000CFC11EB0C4144EB1C444FEA124722EA85
:103DC000074C05FB07F206FB07F70CFB06F616EBA4
:103DD000074642EB174205FB0CFC16EB0C4642EB88
:103DE0001C456A1854F1000148BF7047B61952418A
:103DF00041EB0101A3F10103704795F0000F37D0AB
:103E00004FEA114221EA02464FEA144724EA074CDE
:103E100002FB07F106FB07F70CFB06F414EB074463
:103E200041EB174102FB0CFC14EB0C4441EB1C4131
:103E30004FEA154725EA074C02FB07F506FB07F793
:103E40000CFB06F616EB074645EB174502FB0CFC90
:103E500016EB0C4645EB1C42121951F1000148BF0C
:103E60007047B619524141EB0101A3F101037047BC
:103E70004FEA144524EA05464FEA114721EA074C68
:103E800005FB07F106FB07F70CFB06F212EB0742F6
:103E900041EB174105FB0CFC12EB0C4251EB1C41B2
:103EA0004FF0000648BF7047921841EB0101A3F1A3
:103EB00001037047490050EAC12018BF04204A0D91
:103EC00018BF40F0010040F2FF72B2EB515F08BF33
:103ED00040F00200012808BF0520704730380A284A
:103EE00001D20120704700207047000010B5002962
:103EF0000AD00878002807D005487844FDF750FA22
:103F0000002801D0002010BD0248784410BD0000F8
:103F10009E0600009606000010B500290AD0087819
:103F2000002807D005487844FDF73AFA002801D068
:103F3000002010BD0248784410BD00008E0600002D
:103F4000860600000808A0F500114FEA310170470D
:103F500043004FEAD30C4FEA3C0C43401FBF4007DD
:103F60000CF1605113F0FE4F70471CF0006F03D14D
:103F70000CF00041002070470CF0004343EA507001
:103F800040EACC0010B500F04BF900BF00000092F1
:103F90004FEA0001FFF7D6BF4FF00041A1F5002125
:103FA0004FF000007047000090EA010F48BF81F019
:103FB000004100F18881421A3CBF801A89184FEAFB
:103FC000D052A2EBD1534FF07F4C1CEA410F18BFE7
:103FD0009CEA026F00F03B804FF0004C4CEA00205E
:103FE0004CEA012121FA03FC10EB0C0C1ED202F169
:103FF000FF325FEA1C2040EBC25038BF70471CF014
:104000007F0F4FEA400C18BFBCF17F4F38BF70479D
:10401000C3F12003994008BF20F00100BCF17F4F9D
:1040200038BF7047A0F1C04000F040B94FEA3C00F3
:10403000000A40EBC25028BF1CF0FF0F4FEA400CB3
:10404000E6D018BFBCF17F4F38BF7047EAE79CEA63
:10405000026F05D010EA5C0F08BF00F00040704707
:1040600010B500F0DDF800BF64FBBE3E4FF47F0CDE
:104070001CEAD0121EBF1CEAD11392EA0C0F93EA7D
:104080000C0F00F0858090EA010F48BF42F4807267
:1040900040F4000C41F400002CF07F4120F07F4000
:1040A00000B5A2EB030281420FF2081CACEB504EAC
:1040B0009EF800E0C0F100004FEA4E0E00FB0EFC3F
:1040C00038BF49004FEA2C1C0CFB0EF34FEACE1E02
:1040D0000EEB635E4FEA112C0EFB0CFC4FEAC12184
:1040E0004FEA1C5300FB031102F5FA024FEA112CB0
:1040F0000EFB0CFC4FEA01314FEADC4C00FB0C11CB
:1041000042EB2242C14228BF09184CEB03335DF851
:1041100004EB10EB410143EBC250B2F57C0F38BF0A
:10412000704729D512F0F00F1CBF00F1C04000F01D
:1041300000407047008182838485868788898B8CC4
:104140008D8E8F919293959697999A9C9D9FA0A200
:10415000A3A5A7A8AAACAEB0B2B3B5B7B9BCBEC050
:10416000C2C5C7C9CCCED1D4D7D9DCDFE2E6E9ECF1
:10417000F0F3F7FAFE0000004FEA400C0CF1807CEF
:10418000BCF17E4F28BF7047B0F1C04000F08EB840
:104190000CEAD11390EA010F48BF42F480726245E5
:1041A00038BF634507D213F47F0F16D080EA0100B1
:1041B00000F00040704710B500F032F8097EFC3E78
:1041C00000F005B880EA010000F00040704780EA86
:1041D000010000F0004000F069B812F47F0F04BF46
:1041E0000248704780EA010000F060B80000C07F1C
:1041F00010F0004148BF4042B0FA80F310FA03F2D9
:10420000C3F19D030BD051EAC35101EB12205306B9
:1042100038BF704700F1010008BF20F0010070476F
:104220000EF1020E2EF0030E5EF8044B244204D46D
:104230004FEA4102B2F17F4F11D84FEA4003B3F188
:104240007F4F0CD80ED14FEAD07C0CEB4C0C0CF10C
:10425000020CB2F17F4F08BF4CEBD17C04E04FF071
:10426000080C01E04FEAD17C0CEB4C0324FA03F478
:1042700004F00704B4F1040C06D20EEB840CBDE884
:1042800010404CF0010C6047DFE80CF00708020218
:104290004FF00040A0F5800010BD0846420018BF56
:1042A000D2F1807288BF00F0004010BDFF2141EACA
:1042B000D050C0057047000090EA010F48BF81F060
:1042C00000413FF578AE421A04D882F00042A0EBDC
:1042D000020011444FEAD052A2EBD1534FF07F4C71
:1042E0001CEA410F18BF9CEA026F4AD04FF0004C05
:1042F0004CEA00204CEA012121FA03FCB0EB0C0C43
:104300000FD412F0FE0F36D05FEA4C001DD500121C
:1043100040EBC25038BF70471CF03F0F18BF7047CA
:104320000BE05FEA1C20A2F1010240EBC25038BF53
:1043300070471CF07F0F18BF7047C3F120039940EE
:1043400014BF401E20F0010070474FEA122380087E
:1043500008BF7047B0FA80FCA2EB0C02CCF1280C2D
:1043600060FA0CF093EA122F04BF00EBC2507047C2
:104370004FEAC3707047130A5FEADC1008BF70474A
:10438000F6E79CEA026F04D010EA5C0F08BF002039
:10439000704710B5FFF744FF40DFF63E81F0004064
:1043A0007047FCF72BBAFCF73FBD04000008000083
:1043B00000000000000200010000100000000000EA
:1043C000000000003031323334353637383941425D
:1043D0004344454640305800303132333435363767
:1043E0003839616263646566403078003031323359
:1043F0003435363738396162636465667870003009
:1044000031323334353637383941424344454658E2
:104410005000000002400000000000A0000000006A
:1044200005400000000000C8000000000C40000033
:104430000000409C00000000194000000020BCBEAD
:104440000000000034400000BFC91B8E00000004C3
:10445000B5400000504BCFD06607E2CF010000000E
:104460006C4100003E8251AADFEEA734010000003B
:10447000D9420000DCB5A0E23A301F97FFFFFFFFF2
:10448000B4450000FD25A0C8E9A3C14FFFFFFFFF11
:10449000FF3F00000000008000000000FF3F000020
:1044A000000000800000000000000000000000008C
:1044B00001020304060708090000000001020304CA
:1044C000010202030405060708090A0B0C0D0E0F72
:1044D00010104D5055363035302077686F5F616D64
:1044E0005F69203D203078253032782E2E2E4F4BBC
:1044F0000D0A004D50553630353020696E697469AB
:10450000616C697A6174696F6E2066696E6973683F
:1045100065640D0A00416363656C3A20583D252EA1
:10452000326620672C20593D252E326620672C20CC
:104530005A3D252E326620670D0A4779726F203A60
:1045400020583D252E3266206470732C20593D255D
:104550002E3266206470732C205A3D252E32662040
:104560006470730D0A54656D70203A20252E3266F2
:1045700020430D0A0D0A0000C84600080000002074
:104580001000000050010008D8460008100000206C
:1045900038070000700100081C0000004300000004
:1045A000F8FFFFFF0C0000000E0000000F000000ED
:1045B0002E0000001001000043000000F8FFFFFF84
:1045C0000040404040404040404041414141414026
:1045D00040404040404040404040404040404040DB
:1045E000400502020202020202020202020202026A
:1045F000022020202020202020202002020202026F
:1046000002029090909090901010101010101010C6
:1046100010101010101010101010101002020202D2
:104620000202888888888888080808080808080816
:104630000808080808080808080808080202020212
:10464000400000000000000000000000000000002A
:10465000000000000000000000000000000000005A
:10466000000000000000000000000000000000004A
:10467000000000000000000000000000000000003A
:10468000000000000000000000000000000000002A
:10469000000000000000000000000000000000001A
:1046A000000000000000000000000000000000000A
:1046B00000000000000000000000000000000000FA
:1046C00000000000000000000100000010000000D9
:0846D00000127A000000000056
:04000005080000ED02
:00000001FF
