:020000040800F2
:10000000000005208D4300085D3F0008653F0008A3
:100010006D3F0008753F00087D3F000800000000AC
:10002000000000000000000000000000D1400108B6
:10003000853F000800000000E1420108933F0008EE
:10004000DD430008DD430008DD430008AD3F000844
:10005000DD430008DD430008C13F0008DD43000820
:10006000CF3F0008DD430008DD3F0008ED3F0008FA
:10007000DD430008DD430008DD43000801400008BF
:10008000DD43000815400008DD430008DD4300089B
:10009000DD430008DD430008DD430008DD430008C0
:1000A000DD430008DD430008DD430008DD430008B0
:1000B000DD430008DD430008DD430008DD430008A0
:1000C000DD430008DD430008DD430008DD43000890
:1000D00029400008DD430008DD430008DD43000837
:1000E000DD430008DD430008DD430008DD43000870
:1000F000DD430008DD430008DD430008DD43000860
:10010000DD4300083D400008DD430008DD430008F2
:10011000DD430008DD430008DD430008DD4300083F
:10012000DD430008DD430008DD43000851400008BE
:10013000DD430008DD430008DD430008DD4300081F
:10014000DD430008DD430008DD430008DD4300080F
:10015000DD43000865400008DD430008DD4300087A
:10016000DD430008DD430008DD430008DD430008EF
:10017000DD430008DD430008DD4300080000000007
:10018000DD430008DD430008DD430008DD430008CF
:10019000DD430008DD430008DD430008DD430008BF
:1001A000DD430008DD430008DD430008DD430008AF
:1001B000DD430008DD430008DD430008DD4300089F
:0801C000DD430008DD430008E7
:1001D00010B5054C237833B9044B13B10448AFF381
:1001E00000800123237010BDDC010020000000000E
:1001F000E878010808B5034B1BB103490348AFF386
:10020000008008BD00000000E0010020E87801083F
:1002100001F0FF01102A2BDB10F0070F08D010F8B7
:10022000013B013A8B422DD010F0070F42B3F6D1BB
:10023000F0B441EA012141EA014122F007047FF0D4
:1002400000070023F0E80256083C85EA010586EA2B
:10025000010685FA47F5A3FA87F586FA47F6A5FA67
:1002600087F68EB9EED1F0BC01F0FF0102F0070273
:1002700032B110F8013B013A83EA010313B1F8D11E
:100280000020704701387047002D06BF35460338FF
:10029000073815F0010F07D1013015F4807F02BF38
:1002A000013015F4C03F0130F0BC0138704700BF89
:1002B000034613F8012B002AFBD1181A01387047A6
:1002C00081F0004102E000BF83F0004330B54FEA07
:1002D00041044FEA430594EA050F08BF90EA020F74
:1002E0001FBF54EA000C55EA020C7FEA645C7FEA07
:1002F000655C00F0E2804FEA5454D4EB5555B8BF2A
:100300006D420CDD2C4480EA020281EA030382EA9A
:10031000000083EA010180EA020281EA0303362D2C
:1003200088BF30BD11F0004F4FEA01314FF4801CFF
:100330004CEA113102D0404261EB410113F0004F11
:100340004FEA03334CEA133302D0524263EB4303C8
:1003500094EA050F00F0A780A4F10104D5F1200E66
:100360000DDB02FA0EFC22FA05F2801841F10001C1
:1003700003FA0EF2801843FA05F359410EE0A5F195
:1003800020050EF1200E012A03FA0EFC28BF4CF0C6
:10039000020C43FA05F3C01851EBE37101F000457C
:1003A00007D54FF0000EDCF1000C7EEB00006EEB89
:1003B0000101B1F5801F1BD3B1F5001F0CD3490813
:1003C0005FEA30004FEA3C0C04F101044FEA44526A
:1003D00012F5800F80F09A80BCF1004F08BF5FEAF1
:1003E000500C50F1000041EB045141EA050130BDD1
:1003F0005FEA4C0C404141EB0101013C28BFB1F5E3
:10040000801FE9D291F0000F04BF01460020B1FA2D
:1004100081F308BF2033A3F10B03B3F120020CDA00
:100420000C3208DD02F1140CC2F10C0201FA0CF0DE
:1004300021FA02F10CE002F11402D8BFC2F1200C43
:1004400001FA02F120FA0CFCDCBF41EA0C019040F9
:10045000E41AA2BF01EB0451294330BD6FEA040442
:100460001F3C1CDA0C340EDC04F11404C4F120022D
:1004700020FA04F001FA02F340EA030021FA04F33F
:1004800045EA030130BDC4F10C04C4F1200220FA96
:1004900002F001FA04F340EA0300294630BD21FAD4
:1004A00004F0294630BD94F0000F83F4801306BF9A
:1004B00081F480110134013D4EE77FEA645C18BF8E
:1004C0007FEA655C29D094EA050F08BF90EA020F25
:1004D00005D054EA000C04BF1946104630BD91EA1D
:1004E000030F1EBF0021002030BD5FEA545C05D120
:1004F0004000494128BF41F0004130BD14F580045F
:100500003CBF01F5801130BD01F0004545F0FE41D2
:1005100041F470014FF0000030BD7FEA645C1ABF07
:10052000194610467FEA655C1CBF0B46024650EA3E
:10053000013406BF52EA033591EA030F41F400216A
:1005400030BD00BF90F0000F04BF0021704730B5F0
:100550004FF4806404F132044FF000054FF00001C5
:1005600050E700BF90F0000F04BF0021704730B586
:100570004FF4806404F1320410F0004548BF40425B
:100580004FF000013EE700BF42004FEAE2014FEAB0
:1005900031014FEA02701FBF12F07F4393F07F4F8B
:1005A00081F06051704732F07F4208BF704793F08E
:1005B0007F4F04BF41F40021704730B54FF46074A1
:1005C00001F0004521F000411CE700BF50EA0102A4
:1005D00008BF704730B54FF000050AE050EA01024D
:1005E00008BF704730B511F0004502D5404261EBBD
:1005F00041014FF4806404F132045FEA915C3FF4FE
:10060000D8AE4FF003025FEADC0C18BF03325FEA9A
:10061000DC0C18BF033202EBDC02C2F1200300FA4B
:1006200003FC20FA02F001FA03FE40EA0E0021FA70
:1006300002F11444BDE600BF70B54FF0FF0C4CF45E
:10064000E06C1CEA11541DBF1CEA135594EA0C0F10
:1006500095EA0C0F00F0DEF82C4481EA030621EA4B
:100660004C5123EA4C5350EA013518BF52EA033586
:1006700041F4801143F4801338D0A0FB02CE4FF038
:100680000005E1FB02E506F00042E0FB03E54FF068
:100690000006E1FB03569CF0000F18BF4EF0010E60
:1006A000A4F1FF04B6F5007F64F5407404D25FEA5C
:1006B0004E0E6D4146EB060642EAC62141EA55510F
:1006C0004FEAC52040EA5E504FEACE2EB4F1FD0C51
:1006D00088BFBCF5E06F1ED8BEF1004F08BF5FEACF
:1006E000500E50F1000041EB045170BD06F0004681
:1006F00046EA010140EA020081EA0301B4EB5C042E
:10070000C2BFD4EB0C0541EA045170BD41F4801125
:100710004FF0000E013C00F3AB8014F1360FDEBF4A
:10072000002001F0004170BDC4F10004203C35DA26
:100730000C341BDC04F11404C4F1200500FA05F3A9
:1007400020FA04F001FA05F240EA020001F000424A
:1007500021F0004110EBD37021FA04F642EB0601C0
:100760005EEA430E08BF20EAD37070BDC4F10C04EA
:10077000C4F1200500FA04F320FA05F001FA04F2AE
:1007800040EA020001F0004110EBD37041F100019A
:100790005EEA430E08BF20EAD37070BDC4F12005A5
:1007A00000FA05F24EEA020E20FA04F301FA05F20D
:1007B00043EA020321FA04F001F0004121FA04F2B5
:1007C00020EA020000EBD3705EEA430E08BF20EA85
:1007D000D37070BD94F0000F0FD101F000464000BF
:1007E00041EB010111F4801F08BF013CF7D041EA41
:1007F000060195F0000F18BF704703F00046520045
:1008000043EB030313F4801F08BF013DF7D043EA15
:100810000603704794EA0C0F0CEA135518BF95EACB
:100820000C0F0CD050EA410618BF52EA4306D1D152
:1008300081EA030101F000414FF0000070BD50EA71
:10084000410606BF1046194652EA430619D094EAFB
:100850000C0F02D150EA013613D195EA0C0F05D1E5
:1008600052EA03361CBF104619460AD181EA030139
:1008700001F0004141F0FE4141F470014FF00000F1
:1008800070BD41F0FE4141F4780170BD70B54FF08C
:10089000FF0C4CF4E06C1CEA11541DBF1CEA13550C
:1008A00094EA0C0F95EA0C0F00F0A7F8A4EB0504EE
:1008B00081EA030E52EA03354FEA013100F08880E5
:1008C0004FEA03334FF0805545EA131343EA1263AE
:1008D0004FEA022245EA111545EA10654FEA002663
:1008E0000EF000419D4208BF964244F1FD0404F51C
:1008F000407402D25B084FEA3202B61A65EB030578
:100900005B084FEA32024FF480104FF4002CB6EB34
:10091000020E75EB030E22BFB61A754640EA0C00B4
:100920005B084FEA3202B6EB020E75EB030E22BFF4
:10093000B61A754640EA5C005B084FEA3202B6EB35
:10094000020E75EB030E22BFB61A754640EA9C00F4
:100950005B084FEA3202B6EB020E75EB030E22BFC4
:10096000B61A754640EADC0055EA060E18D04FEA82
:10097000051545EA16754FEA06164FEAC30343EA22
:1009800052734FEAC2025FEA1C1CC0D111F4801FEF
:100990000BD141EA00014FF000004FF0004CB6E7E8
:1009A00011F4801F04BF01430020B4F1FD0C88BF87
:1009B000BCF5E06F3FF6AFAEB5EB030C04BFB6EB92
:1009C000020C5FEA500C50F1000041EB045170BD85
:1009D0000EF0004E4EEA113114EB5C04C2BFD4EBB2
:1009E0000C0541EA045170BD41F480114FF0000E36
:1009F000013C90E645EA060E8DE60CEA135594EAB2
:100A00000C0F08BF95EA0C0F3FF43BAF94EA0C0FB4
:100A10000AD150EA01347FF434AF95EA0C0F7FF429
:100A200025AF104619462CE795EA0C0F06D152EA7D
:100A300003353FF4FDAE1046194622E750EA410661
:100A400018BF52EA43067FF4C5AE50EA41047FF472
:100A50000DAF52EA43057FF4EBAE12E74FF0FF3CD7
:100A600006E000BF4FF0010C02E000BF4FF0010CA8
:100A70004DF804CD4FEA410C7FEA6C5C4FEA430C21
:100A800018BF7FEA6C5C1BD001B050EA410C0CBF70
:100A900052EA430C91EA030F02BF90EA020F0020D2
:100AA000704710F1000F91EA030F58BF994208BF39
:100AB00090422CBFD8176FEAE37040F001007047F6
:100AC0004FEA410C7FEA6C5C02D150EA013C07D14D
:100AD0004FEA430C7FEA6C5CD6D152EA033CD3D098
:100AE0005DF8040B704700BF8446104662468C4692
:100AF0001946634600E000BF01B5FFF7B7FF0028C5
:100B000048BF10F1000F01BD4DF808EDFFF7F4FFED
:100B10000CBF012000205DF808FB00BF4DF808ED78
:100B2000FFF7EAFF34BF012000205DF808FB00BF9B
:100B30004DF808EDFFF7E0FF94BF012000205DF8BD
:100B400008FB00BF4DF808EDFFF7CEFF94BF012072
:100B500000205DF808FB00BF4DF808EDFFF7C4FF6B
:100B600034BF012000205DF808FB00BF4FEA410CB4
:100B70007FEA6C5C02D150EA013C0AD14FEA430C97
:100B80007FEA6C5C02D152EA033C02D14FF00000D4
:100B900070474FF0010070474FEA410212F5001212
:100BA00015D211D56FF47873B3EB625212D94FEAB4
:100BB000C12343F0004343EA505311F0004F23FA9E
:100BC00002F018BF404270474FF00000704750EAF3
:100BD000013005D111F0004008BF6FF000407047B0
:100BE0004FF00000704700BF53B94AB9002908BF51
:100BF00000281CBF4FF0FF314FF0FF3000F088B9E4
:100C0000ADF1080C6DE904CE00F006F8DDF804E063
:100C1000DDE9022304B070472DE9F047089D8E46B8
:100C200004468846002B4AD18A42174662D9B2FA56
:100C300082F64EB1C6F1200301FA06F820FA03F35A
:100C4000B74043EA0808B4404FEA174E1FFA87FC42
:100C5000B8FBFEF1230C0EFB118843EA084301FBAD
:100C60000CF29A4209D9FB1801F1FF3080F0EA80BA
:100C70009A4240F2E78002393B449A1AA3B2B2FB8F
:100C8000FEF00EFB102243EA024300FB0CFC9C45E5
:100C900009D9FB1800F1FF3280F0D6809C4540F264
:100CA000D3803B44023840EA0140A3EB0C0300210F
:100CB0001DB1F3400022C5E90032BDE8F0878B4248
:100CC00005D90DB1C5E9000100210846F5E7B3FAE1
:100CD00083F1002946D1734502D3824200F2058197
:100CE000841A6EEB030201209046002DE5D0C5E981
:100CF0000048E2E7002A00F09080B2FA82F6002E67
:100D000040F0A4808A1A030C4FEA174E80B2BCB29E
:100D10000121B2FBFEFC0EFB1C2243EA024304FB52
:100D20000CF29A4207D9FB180CF1FF3802D29A4212
:100D300000F2E080C4469B1AB3FBFEF20EFB1233B6
:100D400040EA034302FB04F49C4207D9FB1802F17A
:100D5000FF3002D29C4200F2CA8002461B1B42EACC
:100D60000C40A5E7C1F120068B4022FA06F71F438D
:100D70000EFA01F420FA06F32EFA06FE4FEA17499E
:100D8000234300FA01F81FFA87FCBEFBF9F01C0CA4
:100D900009FB10EE44EA0E4400FB0CFEA64502FAE5
:100DA00001F209D93C1900F1FF3A80F09C80A64578
:100DB00040F2998002383C44A4EB0E041FFA83FEF3
:100DC000B4FBF9F309FB13444EEA044403FB0CFCA7
:100DD000A44508D93C1903F1FF3E80F08280A44568
:100DE0007FD9023B3C4443EA0040A4EB0C04A0FB47
:100DF00002EC64457346E14662D35FD05DB1B8EB67
:100E0000030264EB090404FA06F622FA01F31E4316
:100E1000CC40C5E9006400214FE7B1FBF2FC010CB6
:100E200041EA0E4180B240EA01423B4638463C4628
:100E3000B846BE462026B1FBF7F1A2EB080241EA14
:100E40000C4166E7014618E710462CE7C6F1200280
:100E50002EFA02F3B740B14020FA02F24FEA174EE1
:100E60000A43B3FBFEF8BCB20EFB1833110C41EA87
:100E7000034108FB04F9B04089454FEA104380B2B2
:100E80003ED9791808F1FF3C01D289451FD8A1EB62
:100E90000901B1FBFEF909FB04F80EFB191192B22E
:100EA00042EA0142424529D2BA1809F1FF31C4D2BF
:100EB0004245C2D2A9F102013A44BEE7F0459DD2B3
:100EC000BEEB02036CEB070C0138E14696E7A7EB9B
:100ED00009094944A8F1020CB1FBFEF909FB04F829
:100EE000DBE773467FE7504666E70846FDE63B448E
:100EF000023A33E7ACF1020C3B441CE749469CE75D
:100F0000A1EB0901C446B1FBFEF909FB04F8C4E7F3
:100F1000704700BF80B483B000AF0346FB71FB791C
:100F2000052B1BD801A252F823F000BF450F000883
:100F3000490F00084D0F0008510F0008550F000819
:100F4000590F00080A4B0AE00A4B08E00A4B06E07A
:100F50000A4B04E00A4B02E00A4B00E0064B07EEA6
:100F6000903AB0EE670A0C37BD465DF8047B7047D7
:100F7000A69BC4406F1283406F1203406F12833FE1
:100F80006F12033F6F12833E80B588B004AF0346F3
:100F90000A46FB711346BB80BB881B0A9BB2DBB2BF
:100FA0003B73BB88DBB27B730D4B18680D4B1B7812
:100FB0001946FB799AB2C82302930223019307F1E1
:100FC0000C030093012304F067FB0346002B02D0BF
:100FD0004FF0FF3300E0002318461037BD4680BDB8
:100FE000F8010020FC01002080B584B000AF7860DB
:100FF000084611461A460346FB700B46BB70134663
:101000007B70224A7B681360FB785B00DAB2204B6E
:101010001A70204ABB7813701F4A7B781370002324
:10102000FB81FB8943F48043FB81BB781BB25B02ED
:101030001BB203F460631AB2B7F90E3013431BB24C
:10104000FB817B781BB25B011BB2DBB21AB2B7F932
:101050000E3013431BB2FB81FB8919460120FFF7B9
:1010600093FF47F6FF710320FFF78EFF4FF4004117
:101070000220FFF789FF094B00221A70084B00225B
:101080001A7000BF1037BD4680BD00BFF8010020B8
:10109000FC0100200000002001000020FD010020D4
:1010A000FE01002080B483B000AF7860044A7B6802
:1010B000136000BF0C37BD465DF8047B704700BF6E
:1010C0000002002080B483B000AF7860044A7B68DF
:1010D000136000BF0C37BD465DF8047B704700BF4E
:1010E0000402002080B584B002AF78601B4B1B68FF
:1010F000002B02D14FF0FF332CE0194B00221A7065
:10110000184B01221A70184B1B68002B0BD0164B82
:101110001B68642118460FF09DFC0346002B02D08B
:101120004FF0FF3316E00D4B1868104B1B78194633
:10113000022301937B6800930123002204F0DAFC70
:101140000346002B05D0074B00221A704FF0FF33E7
:1011500000E0002318460837BD4680BDF801002096
:10116000FD010020FE01002004020020FC010020FF
:1011700080B584B000AF7860396007F10803184685
:10118000FFF7B0FF0346002B02D04FF0FF333DE0E6
:10119000204B1B68002B0ED01E4B1B68396818466D
:1011A0000FF0A2FD0346002B1FD01B4B00221A702C
:1011B0004FF0FF332AE003F063F9F86010E003F02A
:1011C0005FF90246FB68D31A3A689A4205D2124B7D
:1011D00000221A704FF0FF3318E001200FF072FB6D
:1011E0000E4B1B78DBB2002BE9D00C4B00221A709F
:1011F0003B7A1BB21B021AB27B7A1BB213431BB29F
:101200007B81B7F90A207B681A80002318461037C3
:10121000BD4680BD00020020FE010020FD0100202F
:1012200080B584B000AF786039607B68002B02D154
:101230004FF0FF3326E000237B8107F10A03396872
:101240001846FFF795FF0346002B02D04FF0FF33FF
:1012500018E00E4B1B781846FFF75CFE87ED030A7B
:10126000B7F90A3007EE903AB8EEE77AD7ED036A9D
:101270009FED076AC6EE867A67EE277A7B68C3ED34
:10128000007A002318461037BD4680BD00000020BC
:101290000000004780B582B000AF7860104B1B683B
:1012A000002B04D00E4B1B6818460FF031FC0D4B81
:1012B0001B78DBB2002B0FD00A4B00221A700A4BAE
:1012C00001221A70094B1B68002B06D0074B1B68C4
:1012D00018460FF06FFD00E000BF0837BD4680BD27
:1012E00004020020FE010020FD0100200002002079
:1012F00080B582B000AF78600D4B1B68002B04D026
:101300000B4B1B6818460FF003FC0A4B00221A70A7
:10131000094B00221A70094B1B68002B04D0074BA5
:101320001B6818460FF046FD00BF0837BD4680BD5C
:1013300004020020FE010020FD0100200002002028
:1013400080B588B000AF78600B467B8007F10C0356
:1013500000221A605A609A60DA601A617B88FB602A
:1013600011233B6101237B610023BB6107F10C0367
:101370001946786803F0EAFD00BF2037BD4680BDFE
:1013800080B588B000AF78600B467B8007F10C0316
:1013900000221A605A609A60DA601A617B88FB60EA
:1013A00000233B6101237B6107F10C031946786838
:1013B00003F0CCFD00BF2037BD4680BD80B483B0B4
:1013C00000AF134BDB68124A43F08073D360114BBC
:1013D0001B68104A43F0010313600E4B00225A6051
:1013E00000237B6003E000BF7B6801337B607B6888
:1013F000092BF8DD074B5B68002B01D0002300E0D0
:10140000012318460C37BD465DF8047B704700BFCA
:10141000F0ED00E0001000E080B584B000AF78602F
:101420000D4B5B68FB6007F0BBF803460B4AA2FB61
:1014300003239A0C7B6802FB03F3BB6000E000BF50
:10144000054B5A68FB68D31ABA689A42F7D800BFAE
:1014500000BF1037BD4680BD001000E083DE1B4397
:1014600080B588B000AF144B1B6B134A43F04003A8
:101470001363114B1B6B03F040037B607B6880217F
:101480000E48FFF75DFF002280210C4803F022FF89
:1014900044F25060FFF7C0FF01228021074803F0AB
:1014A00019FF1E20FFF7B8FF80210448FFF768FFEF
:1014B00000BF2037BD4680BD003802400018024002
:1014C00080B584B000AF0023FB602820FFF7A4FFA5
:1014D00080211C4803F0E6FE0346002B0ED150206D
:1014E000FFF79AFF8021174803F0DCFE0346012B2B
:1014F00002D10123FB6001E00023FB60124B5B681B
:10150000BB6007F04DF80346104AA2FB03239A097B
:1015100013469B0013447B6006E00B4B5A68BB6884
:10152000D31A7A689A4207D38021064803F0BAFE9C
:101530000346012BF1D000E000BFFB6818461037CE
:10154000BD4680BD00180240001000E0D34D62107F
:1015500080B584B000AF0023FB730023BB734CE065
:101560002A4B5B68BB6007F01BF80346284AA2FBC6
:1015700003239B0C4FF47A7202FB03F37B6008E0B9
:10158000224B5A68BB68D31A7A689A4201D2002368
:1015900037E080211F4803F085FE0346002BEFD083
:1015A0002820FFF739FF80211A4803F07BFE03460D
:1015B000012B1FD1BB7BC3F10703012202FA03F306
:1015C0005AB297F90F3013435BB2FB730F4B5B6852
:1015D000BB6006E00D4B5A68BB68D31A7A689A4222
:1015E00007D380210B4803F05DFE0346012BF1D0A9
:1015F00000E000BFBB7B0133BB73BB7B072BAFD9C4
:10160000FB7B18461037BD4680BD00BF001000E0D0
:1016100083DE1B430018024080B584B000AF7860C1
:101620007B68002B4CD07B6800221A72FFF718FFF2
:10163000FFF746FF0346002B03D17B6800221A7296
:101640003FE0FFF785FF0346FB73FFF781FF03468B
:10165000BB73FFF77DFF03467B73FFF779FF0346FC
:101660003B73FFF775FF0346FB72FB7B9AB2BB7BB4
:101670009BB213449AB27B7B9BB213449AB23B7BDE
:101680009BB213443B813B89DBB2FA7A9A4203D086
:101690007B6800221A7214E0FB7B07EE903AF8EEAA
:1016A000677A7B68C3ED017A7B7B07EE903AF8EEB0
:1016B000677A7B68C3ED007A7B6801221A7200E0CA
:1016C00000BF1037BD4680BD80B500AF00220121AC
:1016D000024803F0FFFD00BF80BD00BF00200240B4
:1016E00080B500AF01220121024803F0F3FD00BFE5
:1016F00080BD00BF0020024080B584B000AF03462B
:101700000A46FB711346BB71FB7963F07F03DBB2C2
:101710003B73BB797B73FFF7D7FF07F10C016423A1
:101720000222094809F02AFB0346002B04D0FFF7E8
:10173000D7FF4FF0FF3302E0FFF7D2FF0023184638
:101740001037BD4680BD00BF0406002080B584B0C0
:1017500000AF03463960FB71FB7903F07F03DBB216
:10176000FB730023BB73FFF7AFFF07F10F013223B9
:101770000122124809F002FB0346002B04D0FFF7B8
:10178000AFFF4FF0FF3314E007F10E016423012295
:101790000A4809F069FC0346002B04D0FFF7A0FFBC
:1017A0004FF0FF3305E0FFF79BFFBA7B3B681A70F1
:1017B000002318461037BD4680BD00BF0406002038
:1017C00080B584B000AF03463960FB711346BB801F
:1017D000FB7903F07F03DBB2FB73FFF775FF07F1C3
:1017E0000F0132230122104809F0C8FA0346002BEA
:1017F00004D0FFF775FF4FF0FF3310E0BA88C8231D
:101800003968094809F030FC0346002B04D0FFF783
:1018100067FF4FF0FF3302E0FFF762FF0023184637
:101820001037BD4680BD00BF0406002080B582B0E1
:1018300000AF03463960FB711346BB80BB880133A0
:10184000B3F5817F02D36FF0010327E0FB7963F0EA
:101850007F03DAB2134B1A70BB881A4639681248F4
:1018600014F087F8114B00221A70114B01221A70E4
:10187000FFF72AFFBB8801339BB21A4609490D487E
:1018800009F04AFF0346002B07D0FFF729FF084B5A
:1018900000221A704FF0FF3300E00023184608378B
:1018A000BD4680BD0C0200200D0200200802002071
:1018B0000B0200200406002080B483B000AF7860E3
:1018C000044A7B68136000BF0C37BD465DF8047B9B
:1018D000704700BF1003002080B582B000AF786071
:1018E0007B680C4A934211D1FFF7FAFE0A4B0122A2
:1018F0001A700A4B00221A70094B1B68002B06D085
:10190000074B1B6818460FF055FA00E000BF083778
:10191000BD4680BD04060020080200200B02002006
:101920001003002080B582B000AF0023FB71FB1DC7
:1019300019461220FFF70AFF0346002B26D1FB7938
:1019400019461220FFF7D8FEFB7903F00803002B9D
:101950000BD0104B01221A700F4B1B68002B04D0C8
:101960000D4B1B6818460FF025FAFB7903F0400376
:10197000002B0BD0FB7903F02003002B03D0074B87
:1019800001221A7002E0064B01221A7000BF0837CC
:10199000BD4680BD08020020100300200A0200207E
:1019A0000902002080B500AF00224FF40041084832
:1019B00003F090FC052002F06FFD01224FF400417E
:1019C000034803F087FC052002F066FD00BF80BDE0
:1019D0000000024080B596B000AFFFF7E3FF0A2099
:1019E00002F05AFD002387F8573007F157031946D4
:1019F0004220FFF7ABFE0346002B02D04FF0FF332F
:101A000044E097F85730122B19D097F85730222B13
:101A100015D097F85730381D1E4A502113F00AFE92
:101A20003B1D1846FEF744FC03469AB2391D4FF0A1
:101A3000FF3319480AF07EFD6FF0010326E0802194
:101A40000120FFF759FE0A2002F026FD00210E209A
:101A5000FFF752FE00210F20FFF74EFE72211D20DE
:101A6000FFF74AFE74211E20FFF746FEF0210920F1
:101A7000FFF742FE00214020FFF73EFE81210120BA
:101A8000FFF73AFE0A2002F007FD002318465837F8
:101A9000BD4680BD00790108CC060020B0B586B0F7
:101AA00000AF7860796800200A460346550BD404DD
:101AB000254A4FF0000320462946FFF795F80246D5
:101AC0000B46C7E90423D7E904014FF000024FF0A9
:101AD0000003020C42EA01420B0CD3B23B73D7E97C
:101AE00004014FF000024FF00003020A42EA0162D3
:101AF0000B0AD3B27B733B7CBB733B7B194606203E
:101B0000FFF7FAFD0346002B02D04FF0FF3316E03B
:101B10007B7B19460720FFF7EFFD0346002B02D021
:101B20006FF001030BE0BB7B19460820FFF7E4FDD3
:101B30000346002B02D06FF0020300E0002318469A
:101B40001837BD46B0BD00BF0048E80180B586B07B
:101B500000AFF8600B467A607B817B89002B02D056
:101B60007B89FF2B02D94FF0FF335CE0304B002222
:101B70001A7081210120FFF7BFFD012002F08CFCCB
:101B800000210D20FFF7B8FD7B891A46F968002077
:101B9000FFF74CFE0346002B02D06FF0010342E03A
:101BA0007B89DBB219462220FFF7A6FDFF21122018
:101BB000FFF7A2FD83210120FFF79EFD1D4B1B684F
:101BC000002B10D01B4B1B68796818460FF08CF85F
:101BD0000346002B23D0184809F08CFEFFF780FD48
:101BE0006FF002031FE002F04BFC786112E002F09C
:101BF00047FC02467B69D31A7A689A4207D20E489C
:101C000009F078FEFFF76CFD6FF002030BE0012096
:101C10000EF058FE064B1B78DBB2002BE7D0044BCE
:101C200000221A70002318461837BD4680BD00BF39
:101C300008020020100300200406002080B400AF3A
:101C4000084B1B78DBB2002B06D0074B1B78DBB2AE
:101C5000002B01D1012300E000231846BD465DF8AA
:101C6000047B7047090200200A02002080B584B07E
:101C700000AF78600B46FB70234B1B78DBB2002B68
:101C800002D14FF0FF333AE01F4B00221A700023BD
:101C9000FB7307F10F0319461320FFF757FD0346A7
:101CA000002B02D06FF0010329E0FB7BFA789A4207
:101CB00001D2FB78FB730023BB7307F10E031946B7
:101CC0001020FFF743FD0346002B02D06FF0020304
:101CD00015E0BB7B19460D20FFF70EFDFB7B1A4676
:101CE00079680020FFF76CFD0346002B02D06FF0EF
:101CF000030304E0FF211220FFF7FEFCFB7B1846E4
:101D00001037BD4680BD00BF0902002080B483B0FB
:101D100000AF78600B46FB707B68002B02D14FF060
:101D2000FF3308E0074A7B681360FB785B00DAB298
:101D3000054B1A70002318460C37BD465DF8047B2E
:101D4000704700BF140300201803002080B483B044
:101D500000AF7860044A7B68136000BF0C37BD4653
:101D60005DF8047B704700BF1C03002080B483B083
:101D700000AF7860044A7B68136000BF0C37BD4633
:101D80005DF8047B704700BF2803002080B584B055
:101D900000AF03463960FB80384B1B68002B02D133
:101DA0004FF0FF3366E0FB88B3F5805F02D340F667
:101DB000FF73FB80FB881B0A9BB2DBB203F00F03AF
:101DC000DAB22F4B1A70FB88DAB22D4B5A702D4BBA
:101DD00001221A702C4B1B68002B0BD02A4B1B685E
:101DE000642118460EF036FE0346002B02D04FF059
:101DF000FF333FE0214B1868244B1B781946022320
:101E00001F4A03F035FB0346002B05D01D4B002273
:101E10001A704FF0FF332DE01D4B1B68002B0ED0C6
:101E20001B4B1B68396818460EF05EFF0346002BFB
:101E30001FD0144B00221A706FF001031AE002F059
:101E40001FFBF86010E002F01BFB0246FB68D31A90
:101E50003A689A4205D20B4B00221A706FF00103C8
:101E600008E001200EF02EFD064B1B78DBB2002BA4
:101E7000E9D1002318461037BD4680BD1403002069
:101E80002403002020030020280300201803002042
:101E90001C03002080B582B000AF0346FB80FB88A6
:101EA000C8211846FFF772FF034618460837BD469B
:101EB00080BD000080B582B000AF78600F4B1B681A
:101EC000002B04D00D4B1B6818460EF021FE0C4B66
:101ED0001B78DBB2002B0CD0094B00221A70094B87
:101EE0001B68002B06D0074B1B6818460EF062FFDC
:101EF00000E000BF0837BD4680BD00BF28030020BA
:101F0000200300201C03002080B582B000AF786061
:101F10007868FFF7CFFF00BF0837BD4680BD0000DF
:101F200080B582B000AF78600C4B1B68002B04D0EA
:101F30000A4B1B6818460EF0EBFD094B00221A7085
:101F4000084B1B68002B04D0064B1B6818460EF08C
:101F500031FF00BF0837BD4680BD00BF2803002009
:101F6000200300201C03002080B586B004AF0023AE
:101F7000BB71C823029301230193BB1D009301236E
:101F80007522D021414803F09BFC0346FB71FB798D
:101F9000002B02D04FF0FF3373E0BB79682B02D0E7
:101FA0006FF001036DE000237B71C82302930123CE
:101FB00001937B1D009301236B22D021334803F052
:101FC0006BFB0346FB71FB79002B02D06FF0020321
:101FD00057E0142002F060FA07237B71C8230293B4
:101FE000012301937B1D009301231922D02127484F
:101FF00003F052FB00237B71C8230293012301935A
:102000007B1D009301231A22D021204803F044FBBA
:1020100000237B71C8230293012301937B1D00934E
:1020200001231B22D021194803F036FB00237B71CA
:10203000C8230293012301937B1D009301231C22DB
:10204000D021124803F028FB01237B71C82302939F
:10205000012301937B1D009301233822D0210B48DB
:1020600003F01AFB0A2002F017FA094B00221A703B
:10207000084B00221A702C220021074813F0E8FBBD
:10208000002318460837BD4680BD00BF74030020FA
:102090003A0300203B0300204003002080B483B0BB
:1020A00000AF7860044A7B68136000BF0C37BD4600
:1020B0005DF8047B704700BF6C03002080B483B0E0
:1020C00000AF7860044A7B68136000BF0C37BD46E0
:1020D0005DF8047B704700BF7003002080B582B0BC
:1020E00002AF134B00221A70124B00221A70124BCF
:1020F00001221A70114B1B68002B0AD00F4B1B6872
:10210000642118460EF0A6FC0346002B01D00123E3
:102110000AE00E2301930A4B009301233B22D021B6
:10212000084803F0E7FC03461846BD4680BD00BFE3
:102130003A0300203B0300203C03002070030020F2
:102140002C0300207403002080B582B000AF7860BB
:10215000644B1B78DBB2002B00F0C080624B1B7815
:102160001BB21B021AB2604B5B781BB213431AB24C
:102170007B681A805C4B9B781BB21B021AB25A4BCD
:10218000DB781BB213431AB27B685A80564B1B791B
:102190001BB21B021AB2544B5B791BB213431AB227
:1021A0007B689A80504B9B791BB21B021AB24E4B34
:1021B000DB791BB213431AB27B68DA804A4B1B7A75
:1021C0001BB21B021AB2484B5B7A1BB213431AB202
:1021D0007B681A81444B9B7A1BB21B021AB2424B9A
:1021E000DB7A1BB213431AB27B685A813E4B1B7BCE
:1021F0001BB21B021AB23C4B5B7B1BB213431AB2DD
:102200007B689A817B68B3F9003007EE903AB8EEAC
:10221000E77ADFED366AC7EE267A7B68C3ED047A8B
:102220007B68B3F9023007EE903AB8EEE77ADFED5B
:102230002F6AC7EE267A7B68C3ED057A7B68B3F90F
:10224000043007EE903AB8EEE77ADFED286AC7EE81
:10225000267A7B68C3ED067A7B68B3F9063007EE11
:10226000903AB8EEE77ADFED226AC7EE267A9FED64
:10227000217A77EE877A7B68C3ED077A7B68B3F9BA
:10228000083007EE903AB8EEE77ADFED1B6AC7EE4A
:10229000267A7B68C3ED087A7B68B3F90A3007EECB
:1022A000903AB8EEE77ADFED146AC7EE267A7B68DB
:1022B000C3ED097A7B68B3F90C3007EE903AB8EEBB
:1022C000E77ADFED0D6AC7EE267A7B68C3ED0A7AFE
:1022D0002C227968094813F04CFB00E000BF083756
:1022E000BD4680BD3A0300202C030020000080463C
:1022F0000000AA43B81E124200000343400300201E
:1023000080B582B000AF7860104B1B68002B04D002
:102310000E4B1B6818460EF0FBFB0D4B1B78DBB217
:10232000002B0FD00A4B00221A700A4B01221A70A0
:10233000094B1B68002B06D0074B1B6818460EF094
:1023400039FD00E000BF0837BD4680BD70030020A6
:102350003C0300203A0300206C03002080B582B0CB
:1023600000AF78600D4B1B68002B04D00B4B1B6833
:1023700018460EF0CDFB0A4B00221A70094B0122C1
:102380001A70094B1B68002B04D0074B1B681846BA
:102390000EF010FD00BF0837BD4680BD7003002061
:1023A0003C0300203B0300206C03002080B582B07A
:1023B00000AF224B1B6B214A43F4001313631F4BE6
:1023C0001B6B03F400137B607B681C4B1B6B1B4A6D
:1023D00043F480031363194B1B6B03F480033B60CE
:1023E0003B68002205210B2002F055F90B2002F07A
:1023F0006EF9002205210F2002F04DF90F2002F0A6
:1024000066F900220521112002F045F9112002F0A1
:102410005EF9002205213B2002F03DF93B2002F04D
:1024200056F900220521452002F035F9452002F039
:102430004EF900BF0837BD4680BD00BF00380240DE
:1024400080B483B000AF786000BF0C37BD465DF844
:10245000047B704780B483B000AF786000BF0C3756
:10246000BD465DF8047B704780B590B000AF07F1C2
:102470002C0300221A605A609A60DA601A61AF4B2E
:102480001B6BAE4A43F010031363AC4B1B6B03F0A2
:102490001003BB62BB6AA94B1B6BA84A43F0400305
:1024A0001363A64B1B6B03F040037B627B6AA34B59
:1024B0001B6BA24A43F002031363A04B1B6B03F098
:1024C00002033B623B6A9D4B1B6B9C4A43F0080333
:1024D00013639A4B1B6B03F00803FB61FB69974B7B
:1024E0001B6B964A43F004031363944B1B6B03F07E
:1024F0000403BB61BB69914B1B6B904A43F0010322
:1025000013638E4B1B6B03F001037B617B698B4B69
:102510001B6B8A4A43F400731363884B1B6B03F4F1
:1025200000733B613B69854B1B6B844A43F48073AA
:102530001363824B1B6B03F48073FB60FB687F4B60
:102540001B6B7E4A43F4806313637C4B1B6B03F469
:102550008063BB60BB68794B1B6B784A43F02003F8
:102560001363764B1B6B03F020037B607B68734B1C
:102570001B6B724A43F080031363704B1B6B03F0B9
:1025800080033B603B6801224FF400416C4802F03D
:10259000A1FE012220216B4802F09CFE002241F2A4
:1025A0000801694802F096FE00220821674802F0FF
:1025B00091FE00224FF40051654802F08BFE01228B
:1025C0000121614802F086FE00224821614802F0A4
:1025D00081FE1023FB6202233B6300237B63002305
:1025E000BB630E23FB6307F12C0319465A4802F024
:1025F000ADFC0823FB6200233B6300237B6307F1F0
:102600002C031946544802F0A1FC0423FB62022368
:102610003B6300237B630323BB630923FB6307F155
:102620002C0319464C4802F091FC4FF4D043FB6256
:1026300002233B6300237B630323BB630B23FB6306
:1026400007F12C031946434802F080FC4FF68373D0
:10265000FB6202233B6300237B630323BB630C23E6
:10266000FB6307F12C0319463B4802F06FFC43F66D
:102670002343FB6202233B6300237B630323BB638F
:102680000A23FB6307F12C031946344802F05EFC71
:102690001023FB624FF488133B6300237B6307F135
:1026A0002C0319462D4802F051FC8023FB620223C3
:1026B0003B6300237B630023BB630823FB6307F1B9
:1026C0002C0319461F4802F041FC4FF40043FB6203
:1026D00001233B6300237B630023BB6307F12C03CF
:1026E0001946174802F032FC6023FB6202233B6369
:1026F00000237B630023BB630D23FB6307F12C03E3
:102700001946154802F022FC4023FB6202233B637A
:1027100000237B630323BB630A23FB6307F12C03C2
:1027200019460E4802F012FC48F23313FB620223F2
:102730003B6300237B63032312E000BF00380240A9
:1027400000000240000C024000200240002802402D
:10275000001C024000180240001002400004024029
:10276000BB630C23FB6307F12C031946BC4802F042
:10277000EDFB4EF6FF73FB6202233B6300237B639A
:102780000023BB630E23FB6307F12C031946B548F6
:1027900002F0DCFB4FF48053FB6200233B63002319
:1027A0007B6307F12C031946AE4802F0CFFB4023B0
:1027B000FB624FF490133B6300237B6307F12C0310
:1027C0001946A94802F0C2FB4CF20373FB620223D4
:1027D0003B6300237B630323BB630C23FB6307F191
:1027E0002C031946A04802F0B1FB4FF4E053FB6202
:1027F00002233B6300237B630323BB630A23FB6346
:1028000007F12C031946994802F0A0FBF023FB6264
:1028100002233B6300237B630023BB630A23FB6328
:1028200007F12C031946924802F090FBF723FB6254
:1028300002233B6300237B630023BB630E23FB6304
:1028400007F12C0319468B4802F080FB4FF48053AC
:10285000FB6202233B6300237B630023BB630923EA
:10286000FB6307F12C0319467D4802F06FFB4FF420
:102870008063FB6202233B6300237B630023BB6313
:102880000A23FB6307F12C031946754802F05EFB2F
:102890002023FB6201233B6300237B630023BB6394
:1028A00007F12C031946704802F050FB0823FB6225
:1028B00002233B6300237B630023BB630D23FB6385
:1028C00007F12C031946684802F040FB41F2090366
:1028D000FB6201233B6300237B630023BB6307F19F
:1028E0002C031946624802F031FB0423FB624FF4CB
:1028F00088133B6300237B6307F12C0319465C4874
:1029000002F024FB4FF40053FB6200233B630023DF
:102910007B6307F12C031946574802F017FB4FF66B
:102920003F03FB6202233B6300237B630323BB6300
:102930000C23FB6307F12C031946504802F006FBF9
:102940004FF44643FB6202233B6300237B63002377
:10295000BB630E23FB6307F12C031946444802F0C6
:10296000F5FA0823FB6201233B6300237B6300230A
:10297000BB6307F12C0319463E4802F0E7FA4FF417
:102980000073FB6202233B6300237B630023BB6372
:102990000D23FB6307F12C031946314802F0D6FAE8
:1029A0001023FB6200233B6300237B6307F12C03AE
:1029B00019462D4802F0CAFA48F20403FB620023CC
:1029C0003B6300237B6307F12C0319462C4802F07C
:1029D000BDFA4FF40053FB6201233B6300237B638A
:1029E0000023BB6307F12C031946254802F0AEFA19
:1029F0004FF4BC43FB6202233B6300237B63002351
:102A0000BB630D23FB6307F12C0319461C4802F03E
:102A10009DFA4FF48073FB6202233B6300237B63C8
:102A20000023BB630123FB6307F12C0319460F4806
:102A300002F08CFA4FF40053FB624FF490133B63A7
:102A400000237B6307F12C031946094802F07EFA44
:102A5000C023FB6202233B6300237B63032311E05B
:102A60000018024000240240000C02400000024016
:102A700000200240002802400008024000140240EA
:102A8000001C0240BB630823FB6307F12C031946BB
:102A90008A4802F05BFA1023FB6202233B630023A7
:102AA0007B630323BB630A23FB6307F12C031946F3
:102AB000834802F04BFA2823FB6202233B63002386
:102AC0007B630323BB630C23FB6307F12C031946D1
:102AD0007B4802F03BFA8423FB6200233B63002324
:102AE0007B6307F12C031946764802F02FFA48233E
:102AF000FB6201233B6300237B630023BB6307F17D
:102B00002C0319466F4802F021FA4FF4F863FB6278
:102B100003233B6300237B6307F12C0319466A48B8
:102B200002F014FA0823FB6202233B6300237B6359
:102B30000323BB630C23FB6307F12C0319465F4897
:102B400002F004FA0523FB6202233B6300237B634C
:102B50000323BB630A23FB6307F12C031946574881
:102B600002F0F4F93223FB6202233B6300237B6310
:102B70000323BB630B23FB6307F12C0319464F4868
:102B800002F0E4F90423FB6202233B6300237B632E
:102B90000323BB630923FB6307F12C0319464B484E
:102BA00002F0D4F94FF46053FB6202233B6300232D
:102BB0007B630323BB630923FB6307F12C031946E3
:102BC000434802F0C3F98623FB6202233B630023E0
:102BD0007B630323BB630B23FB6307F12C031946C1
:102BE0003C4802F0B3F90123FB624FF404133B634A
:102BF00000237B6307F12C031946364802F0A6F93F
:102C00005023FB6202233B6300237B630023BB63EF
:102C10000D23FB6307F12C0319462E4802F096F9A9
:102C20004FF4C073FB6212233B6300237B630323D7
:102C3000BB630423FB6307F12C031946204802F011
:102C400085F92823FB6202233B6300237B63032374
:102C5000BB630A23FB6307F12C0319461D4802F0EE
:102C600075F94023FB6202233B6300237B6300234F
:102C7000BB630923FB6307F12C031946104802F0DC
:102C800065F900220521062001F005FD062001F06E
:102C90001EFD00220521082001F0FDFC082001F0A6
:102CA00016FD002205210A2001F0F5FC0A2001F0A2
:102CB0000EFD00BF4037BD4680BD00BF000802408A
:102CC000001C0240001802400014024000040240B0
:102CD000000C02400000024080B500AF1B4B1C4AB4
:102CE0001A601A4B1B4A5A60184B00229A60174B05
:102CF0000122DA60154B00221A61144B00225A613E
:102D0000124B00229A61114B0022DA610F4B002214
:102D10001A620E4802F010FB0346002B01D000F0AF
:102D20004BFE0021094804F0EDFE0346002B01D0C4
:102D300000F042FE0021054804F02FFF0346002B5F
:102D400001D000F039FE00BF80BD00BF7403002039
:102D5000005400400D03006080B5AAB000AF786059
:102D600007F1940300221A605A609A60DA601A61CF
:102D700007F1100384220021184612F069FD7B68D8
:102D80001B68504A934240F099804FF480433B6166
:102D900000237B6707F11003184605F035FC034656
:102DA000002B01D000F008FE474B1B6B464A43F056
:102DB00002031363444B1B6B03F00203FB60FB68CD
:102DC0004FF44073C7F894301223C7F898300023AB
:102DD000C7F89C300323C7F8A0300423C7F8A430F9
:102DE00007F194031946394802F0B0F8364B1B6CD2
:102DF000354A43F400131364334B1B6C03F4001384
:102E0000BB60BB68324B334A1A60314B4FF00072E3
:102E10005A602F4B00229A602D4B0022DA602C4B17
:102E20004FF480621A612A4B00225A61284B00221B
:102E30009A61274B0022DA61254B00221A62244B4B
:102E400000225A62224801F05DFC0346002B01D0AB
:102E500000F0B2FD7B681E4ADA631D4A7B6893630B
:102E60001D4B1E4A1A601C4B4FF000725A601A4BE1
:102E700040229A60184B0022DA60174B4FF48062B0
:102E80001A61154B00225A61134B00229A61124BB2
:102E90000022DA61104B00221A620F4B00225A62A4
:102EA0000D4801F02FFC0346002B01D000F084FDFB
:102EB0007B68094A9A63084A7B68936300BFA83716
:102EC000BD4680BD0054004000380240000402406E
:102ED000C80300201060024028040020A0600240C7
:102EE000B0B58EB006AF7860396007F10C030022F0
:102EF0001946104806F094F807F108030022194615
:102F00000C4806F06FF9FB7A03F5FA637A7AB97A1E
:102F1000387B7C7BBD7B04950394029001910092E9
:102F2000054A3968786812F085FB00BF2037BD4636
:102F3000B0BD00BFA00400202079010880B584B096
:102F400000AF78607B68DBB2FB7307F10F014FF0D5
:102F5000FF330122034809F0EDFA7B681846103769
:102F6000BD4680BDCC06002080B582B000AF786041
:102F70007868FEF79FFF00BF0837BD4680BD80B56B
:102F800082B000AF78607868FEF784F97868FFF760
:102F9000B7F97868FEF7B8FF00BF0837BD4680BDB7
:102FA00080B582B000AF78607868FEF7A1F97868E4
:102FB000FFF7D4F97868FEF7B3FF00BF0837BD46C6
:102FC00080BD80B582B000AF78607868FEF784FC81
:102FD00000BF0837BD4680BD80B584B000AF034652
:102FE000FB80FB88042B01D1FEF79CFCFB88012BA6
:102FF00001D10023FB6000BF1037BD4680BD00003B
:1030000080B58CB000AF03463960FB711346BB80BE
:103010002A4B1B68002B02D14FF0FF334AE0FB79AB
:1030200087F82030BB88BB850023BB62BB88002BA0
:1030300011D0BB88184611F003FB0346BB62BB6A84
:10304000002B02D16FF0010334E0BB6ABA88396803
:10305000184612F08EFC07F10C030022194618489E
:1030600005F0DEFF07F1080300221946144806F0B8
:10307000B9F83B7B1A067B7B1B041A43BB7B1B0204
:103080001343BA7A13437B620C4B186807F1200193
:10309000002300220DF06CFF0346002B09D0BB6A11
:1030A000002B03D0BB6A184611F098FB6FF00203A7
:1030B00000E0002318463037BD4680BD9C04002048
:1030C000A004002080B582B000AF7860254812F0DF
:1030D000A9FA0523022248212348FDF785FFFEF7C0
:1030E00043FF60212048FEF711FE204B1B68184665
:1030F000FDF7D8FF1E4B1B681846FEF7CFFF1D4B90
:103100001B681846FEF722FE1B4B1B681846FEF78D
:10311000D3FB1A4B1B681846FDF7D4FF174B1B68EF
:103120001846FEF7CBFF154B1B681846FEF71EFE30
:10313000FEF750FC0346002B06D11148FEF7AEFC0B
:10314000104812F06FFA02E00F4812F06BFA0F48C5
:1031500012F068FA00200FF0EFFB00BF0837BD4601
:1031600080BD00BF40790108740300208C0400205A
:10317000900400209404002098040020880400207B
:10318000400ECF195C790108747901089079010823
:103190002DE9F043A1B006AF78604FF4FA637B6687
:1031A0004FF0FF32002101200DF0F8FA544812F0E0
:1031B00039FA07F15A034FF4FA711846FDF7D8FFB0
:1031C0000346002B12D14FF000033B664FF0000383
:1031D0007B6507F1540301211846FEF721F8B7F982
:1031E0005A301946474812F0B5F902E0464812F045
:1031F00019FA464B1B68C82118460DF02BFC0346F4
:10320000002B79D1FEF76AFF0346002B6BD1404BB0
:103210001B68796E18460DF067FD0346002B5ED1E2
:1032200007F128031846FEF78FFFBB6B1846FDF722
:10323000ABF980468946FB6B1846FDF7A5F90446B5
:103240000D463B6C1846FDF79FF902460B46CDE94B
:103250000223CDE9004542464B462E4812F07AF94A
:1032600001F00EF90646BB6B1846FDF78DF90446D2
:103270000D46FB6B1846FDF787F9804689463B6C87
:103280001846FDF781F902460B4607F10800CDE923
:103290000423CDE90289CDE9004533461E4A2021A9
:1032A00012F0C8F9F865FB6D99B207F108034FF405
:1032B000FA621846FEF74AFC0346002B03D1174872
:1032C00012F0B0F902E0164812F0ACF9FB6D9AB2B8
:1032D00007F1080319460120FFF792FE06E01148A6
:1032E00012F0A0F902E0104812F09CF9074B1B689D
:1032F00018460DF00DFC53E70C4812F093F94FE718
:10330000B0790108CC790108E0790108880400202F
:1033100090040020FC7901081C7A0108347A010825
:10332000447A0108587A01086C7A0108887A010801
:1033300080B582B000AF78604FF47A700DF0C2FAB9
:10334000FAE7000080B5C6B000AF07F58C73A3F5AF
:103350008A731860FEF772FC0346002B55D007F104
:103360000C0300211846FEF781FCC7F81401D7F8BA
:103370001431002B49DD07F58C73A3F58672D7F85D
:103380001431134400221A7007F10C031A46D7F8BF
:103390001411204812F0DEF807F10C0303221E4935
:1033A000184612F05DFA0346002B2ED107F10C03EC
:1033B0000333184611F02EFBC7F81001D7F810316F
:1033C00007EE903AB8EEE77ADFED146AC7EE267A98
:1033D0009FED137A67EE877AFCEEE77A17EE903A64
:1033E000A7F80E310F4B1B68C82118460DF032FBB1
:1033F0000346002B09D1B7F80E311846FEF74AFDF7
:10340000084B1B6818460DF083FB32200DF05AFA6A
:10341000A0E700BF9C7A0108C07A0108333353400B
:1034200000F07F458804002080B5ADF57E7D02AFB9
:1034300007F57C73A3F57B731860524B186807F58A
:1034400077714FF0FF3300220DF006FE0346002B8C
:10345000F3D107F1080340211846FFF741FD97F823
:10346000DC33012B0DD097F8DC33022B07D097F813
:10347000DC33032B01D1444B04E0444B02E0444BCA
:1034800000E0444BC7F8EC3307F1880007F108036C
:103490000093D7F8EC33404A802112F0CBF807F1C3
:1034A0004800D7F8EC333D4A402112F0C3F807F149
:1034B000480318460CF088FE00F0E2FF034607F5CB
:1034C00084700093D7F8EC33354AA02112F0B2F89B
:1034D00007F5847107F5D4730A2218460CF057FAE1
:1034E0000346002B3CD107F108031846FCF7E0FE29
:1034F000024607F5767307F1080107F5D4700CF062
:1035000007FC07F5767307F5D470012225490CF006
:10351000FFFBB7F8E833002B0ED0D7F8E433002BCD
:103520000AD0D7F8E413B7F8E8331A4607F57673EC
:1035300007F5D4700CF0ECFB07F5767307F5D47043
:10354000022219490CF0E4FB07F5D47318460CF07D
:103550000CFE07F584731946144811F0FBFF05E0D3
:1035600007F584731946124811F0F4FFD7F8E433D5
:10357000002B3FF462AFD7F8E433184611F02EF970
:103580005BE700BF9C040020C47A0108C87A0108E8
:10359000CC7A0108D07A0108D47A0108E07A0108CF
:1035A000E47A0108F47A0108F87A0108FC7A010843
:1035B000147B0108B0B59AB004AF7860FDF7FEFE49
:1035C0000346002B31D107F148031846FEF724F8D3
:1035D00097F85030002B25D0BB6C1846FCF7D4FF71
:1035E00004460D46FB6C1846FCF7CEFF02460B4620
:1035F00007F10800CDE90223CDE900450D4A40213D
:1036000012F018F878657B6D9AB207F10803194635
:103610000320FFF7F5FC07F108031946064811F0EF
:1036200099FF02E0054811F0FDFF05480DF04AF949
:10363000C4E700BF387B0108487B0108547B0108C0
:10364000C0D4010080B582B000AF78604FF47A70CA
:103650000DF038F9FAE7000080B5C0B000AF00F017
:10366000BEFE00F031F9FEF7FFFEFEF79FFEFFF70A
:1036700033FB00F0D9FD00F06FFB00F03FFA0AF0D9
:1036800087F900F0A1F97B4811F0CCFF0CF02CFF7A
:1036900000200DF045F90346774A1360002200210F
:1036A00001200DF085FA0346744A136000220021C0
:1036B00001200DF07DFA0346714A136000220021BB
:1036C00001200DF075FA03466E4A136000220021B6
:1036D00001200DF06DFA03466B4A136000221021A1
:1036E00020200DF0BFFB0346684A136007F1DC039E
:1036F00024220021184612F0ABF8654BC7F8DC30E5
:103700004FF40063C7F8F0302823C7F8F43007F10E
:10371000DC031A4600215F480CF09AFF07F1B8035A
:1037200024220021184612F093F85B4BC7F8B830FA
:103730004FF48053C7F8CC303023C7F8D03007F1AE
:10374000B8031A46002155480CF082FF07F1940394
:1037500024220021184612F07BF8514BC7F8943010
:103760004FF40063C7F8A8302823C7F8AC3007F13E
:1037700094031A4600214B480CF06AFF07F17003CE
:1037800024220021184612F063F8474B3B674FF4A0
:103790000063C7F884302023C7F8883007F170032E
:1037A0001A46002141480CF053FF07F14C03242234
:1037B0000021184612F04CF83D4BFB644FF4805347
:1037C0003B6608237B6607F14C031A460021394803
:1037D0000CF03EFF07F1280324220021184612F0C6
:1037E00037F8354BBB624FF40063FB6308233B643F
:1037F00007F128031A46002130480CF029FF3B1D31
:1038000024220021184612F023F82D4B7B604FF440
:103810000063BB612823FB613B1D1A460021294838
:103820000CF016FF154B1B681846FDF73BFC144BBC
:103830001B681846FEF732FC124B1B681846FEF751
:1038400085FA114B1B681846FEF736F80A4B1B68C1
:103850001846FDF737FC084B1B681846FEF72EFC90
:10386000054B1B681846FEF781FA0CF093FE00BF6B
:10387000FDE700BF6C7B0108880400208C04002059
:103880009004002094040020980400209C04002050
:10389000787B0108C5300008847B0108913100085D
:1038A0008C7B010831330008947B01084533000804
:1038B000A07B010829340008A87B0108B535000861
:1038C000B47B01084536000880B594B000AF07F11D
:1038D000200330220021184611F0BAFF07F10C0333
:1038E00000221A605A609A60DA601A6104F0A2F944
:1038F0002F4B1B6F2E4A23F0180313672C4B1B6CA6
:103900002B4A43F080531364294B1B6C03F0805304
:10391000BB60BB68274B1B68264A43F440431360D7
:10392000244B1B6803F440437B607B6805233B62A8
:103930004FF480337B620123BB620223BB634FF4ED
:103940008003FB6319233B644FF4D8737B64022329
:10395000BB640923FB6407F12003184604F0CAF98D
:103960000346002B01D000F027F804F073F903465A
:10397000002B01D000F020F80F23FB6002233B61F5
:1039800000237B614FF4A053BB614FF48053FB6174
:1039900007F10C030721184604F050FC0346002BE6
:1039A00001D000F009F800BF5037BD4680BD00BF10
:1039B000003802400070004080B500AF72B600BF12
:1039C000C82000F069FDFBE780B586B000AF3B1D65
:1039D00000221A605A609A60DA601A6100233B6024
:1039E000294B2A4A1A60284B00225A60264B7F2214
:1039F0009A60254BFF22DA60234B00221A61224B8A
:103A000000225A61204B00229A611F4805F0ECF910
:103A10000346002B01D0FFF7CFFF00233B710023AB
:103A20007B710023BB7100233B6100237B613B1D45
:103A300001221946144805F059FA0346002B01D01B
:103A4000FFF7BAFF01233B7001237B700123BB709A
:103A50000023FB703B46012219460B4805F03EFB54
:103A60000346002B01D0FFF7A7FF002200210648E4
:103A700005F0C6FC0346002B01D0FFF79DFF00BFF9
:103A80001837BD4680BD00BFA004002000280040BC
:103A900080B5A4B000AF786007F10C038422002148
:103AA000184611F0D5FE7B681B68124A93421CD160
:103AB0002023FB604FF48073FB6307F10C0318466F
:103AC00004F0A2FD0346002B01D0FFF775FF0A4B5F
:103AD0001B6F094A43F400431367002205210320AA
:103AE00000F0D9FD032000F0F2FD00BF9037BD4685
:103AF00080BD00BF002800400038024080B400AF05
:103B00000C4B0D4A1A600B4B00225A60094B0022E5
:103B10009A60084B0022DA60064B00221A61054BBE
:103B200000225A61034B00229A6100BFBD465DF836
:103B3000047B7047C0040020002C014080B5ACB06D
:103B400000AF786007F19C0300221A605A609A6007
:103B5000DA601A6107F1180384220021184611F077
:103B600077FE7B681B68744A934240F0E0804FF414
:103B70002003BB610023C7F894300023C7F89830B6
:103B800007F11803184604F03FFD0346002B01D04F
:103B9000FFF712FF694B5B6C684A43F400635364A0
:103BA000664B5B6C03F400637B617B69634B1B6B4F
:103BB000624A43F004031363604B1B6B03F004037E
:103BC0003B613B695D4B1B6B5C4A43F0080313632D
:103BD0005A4B1B6B03F00803FB60FB684FF4F85370
:103BE000C7F89C300223C7F8A0300023C7F8A430E0
:103BF0000323C7F8A8300C23C7F8AC3007F19C03A7
:103C000019464F4801F0A2F90423C7F89C3002235B
:103C1000C7F8A0300023C7F8A4300323C7F8A830A2
:103C20000C23C7F8AC3007F19C031946454801F056
:103C30008DF9454B454A1A60434B4FF000625A607C
:103C4000414B00229A60404B0022DA603E4B4FF419
:103C500080621A613C4B4FF480525A613A4B4FF4E8
:103C600080429A61384B2022DA61374B00221A6277
:103C7000354B04225A62344B03229A62324B4FF482
:103C80000002DA62304B4FF400121A632E4800F043
:103C900039FD0346002B01D0FFF78EFE7B682A4AD0
:103CA0001A64294A7B689363294B2A4A1A60284B75
:103CB0004FF000625A60264B40229A60244B00224B
:103CC000DA60234B4FF480621A61214B4FF480522B
:103CD0005A611F4B4FF480429A611D4B2022DA61DA
:103CE0001B4B00221A621A4B04225A62184B032201
:103CF0009A62174B4FF40002DA62154B4FF4001230
:103D00001A63134800F0FEFC0346002B01D0FFF7B6
:103D100053FE7B680E4ADA630D4A7B689363002288
:103D20000521312000F0B7FC312000F0D0FC00BFAD
:103D3000B037BD4680BD00BF002C014000380240B6
:103D400000080240000C0240440500205864024074
:103D5000A4050020A064024080B500AF1B4B1C4AA4
:103D60001A601A4B4FF482725A60184B00229A6004
:103D7000164B4FF4E062DA60144B00221A61134BC9
:103D800000225A61114B4FF400729A610F4B1022BE
:103D9000DA610E4B00221A620C4B00225A620B4B66
:103DA00000229A62094B0722DA62084B00221A634A
:103DB000064B00225A63054806F035FF0346002BE8
:103DC00001D0FFF7F9FD00BF80BD00BF0406002051
:103DD0000038004080B58AB000AF786007F1140366
:103DE00000221A605A609A60DA601A617B681B6868
:103DF000404A934279D1404B1B6C3F4A43F4804385
:103E000013643D4B1B6C03F480433B613B693A4BAD
:103E10001B6B394A43F480731363374B1B6B03F4FA
:103E20008073FB60FB68344B1B6B334A43F0020327
:103E30001363314B1B6B03F00203BB60BB680223AF
:103E40007B610223BB610023FB6100233B620523EE
:103E50007B6207F114031946284801F077F84FF404
:103E600040437B610223BB610023FB6100233B6273
:103E700005237B6207F114031946214801F066F817
:103E8000204B214A1A601F4B00225A601D4B4022D2
:103E90009A601C4B0022DA601A4B4FF480621A6160
:103EA000184B00225A61174B00229A61154B0022D1
:103EB000DA61144B00221A62124B00225A62114836
:103EC00000F020FC0346002B01D0FFF775FD7B6856
:103ED0000C4A5A650B4A7B68936300220521242013
:103EE00000F0D9FB242000F0F2FB00BF2837BD46CC
:103EF00080BD00BF00380040003802400020024072
:103F000000040240680600207060024080B582B064
:103F100000AF114B1B6C104A43F0805313640E4BDF
:103F20001B6C03F080537B607B680B4B5B6C0A4A15
:103F300043F480435364084B5B6C03F480433B6061
:103F40003B6800220F216FF0010000F0A4FB00BFCE
:103F50000837BD4680BD00BF0038024080B400AFC6
:103F600000BFFDE780B400AF00BFFDE780B400AF45
:103F700000BFFDE780B400AF00BFFDE780B400AF35
:103F800000BFFDE780B400AF00BFBD465DF8047B15
:103F9000704780B500AF00F05FFA0FF087FA034674
:103FA000012B01D010F0D0F900BF80BD80B500AF6B
:103FB000024805F0E7FA00BF80BD00BFA004002062
:103FC00080B500AF012001F09FF900BF80BD80B532
:103FD00000AF042001F098F900BF80BD80B500AFAC
:103FE000102001F091F900BF80BD000080B500AF46
:103FF000024800F027FD00BF80BD00BFC8030020BD
:1040000080B500AF024800F01DFD00BF80BD00BFBD
:104010006806002080B500AF024800F013FD00BF25
:1040200080BD00BF2804002080B500AF024807F023
:1040300081FD00BF80BD00BF0406002080B500AF39
:10404000024805F045FD00BF80BD00BFC004002050
:1040500080B500AF024800F0F5FC00BF80BD00BF96
:104060004405002080B500AF024800F0EBFC00BF23
:1040700080BD00BFA405002080B400AF0123184616
:10408000BD465DF8047B704780B582B000AF7860B4
:10409000396011F041FC034616221A604FF0FF33DD
:1040A00018460837BD4680BD80B582B000AF786045
:1040B0004FF0FF317868FFF7E7FF00BFFDE780B5FD
:1040C00086B000AFF860B9607A6000237B610AE0D7
:1040D000AFF300800146BB685A1CBA60CAB21A70BE
:1040E0007B6901337B617A697B689A42F0DB7B688C
:1040F00018461837BD4680BD80B586B000AFF86061
:10410000B9607A6000237B6109E0BB685A1CBA6021
:104110001B781846FEF712FF7B6901337B617A69D1
:104120007B689A42F1DB7B6818461837BD4680BD34
:1041300080B483B000AF78604FF0FF3318460C377F
:10414000BD465DF8047B704780B483B000AF7860F3
:1041500039603B684FF400525A60002318460C3710
:10416000BD465DF8047B704780B483B000AF7860D3
:10417000012318460C37BD465DF8047B704780B4B8
:1041800085B000AFF860B9607A6000231846143734
:10419000BD465DF8047B704780B586B000AF78609F
:1041A000144A154BD31A7B617B693B61134B1B6827
:1041B000002B02D1114B124A1A60104B1A687B680F
:1041C00013443A699A4207D211F0A6FB03460C2227
:1041D0001A604FF0FF3309E0084B1B68FB60074B88
:1041E0001A687B681344054A1360FB681846183741
:1041F000BD4680BD0000052000080000C806002064
:10420000381C012080B400AF064BD3F88830054A33
:1042100043F47003C2F8883000BFBD465DF8047BEC
:10422000704700BF00ED00E080B500AF144B154AA9
:104230001A60134B4FF4E1325A60114B00229A601E
:104240000F4B0022DA600E4B00221A610C4B0C223D
:104250005A610B4B00229A61094B0022DA61084B2C
:1042600000221A62064B00225A62054808F014F92F
:104270000346002B01D0FFF79FFB00BF80BD00BFAE
:10428000CC0600200010014080B5ACB000AF7860D3
:1042900007F19C0300221A605A609A60DA601A6182
:1042A00007F1180384220021184611F0D1FA7B6827
:1042B0001B68324A93425CD14023BB610023FB65FB
:1042C00007F11803184604F09FF90346002B01D0AC
:1042D000FFF772FB2A4B5B6C294A43F010035364CF
:1042E000274B5B6C03F010037B617B69244B1B6BDA
:1042F000234A43F002031363214B1B6B03F00203B9
:104300003B613B691E4B1B6B1D4A43F0010313636A
:104310001B4B1B6B03F00103FB60FB688023C7F89A
:104320009C300223C7F8A0300023C7F8A430002334
:10433000C7F8A8300723C7F8AC3007F19C0319462B
:10434000104800F003FE4FF40073C7F89C300223BE
:10435000C7F8A0300023C7F8A4300023C7F8A8305E
:104360000723C7F8AC3007F19C031946064800F054
:10437000EDFD00BFB037BD4680BD00BF001001405D
:10438000003802400004024000000240DFF834D050
:10439000FFF738FF0C480D490D4A002302E0D458BE
:1043A000C4500433C4188C42F9D30A4A0A4C00237F
:1043B00001E013600432A242FBD311F0B3FAFFF71D
:1043C0004BF970470000052000000020DC010020B0
:1043D00050800108DC010020381C0120FEE780B578
:1043E00000AF032000F04CF90F2000F005F8FFF7B4
:1043F0008DFD0023184680BD80B582B000AF786087
:10440000124B1A68124B1B7819464FF47A73B3FBA0
:10441000F1F3B2FBF3F3184600F067F90346002B03
:1044200001D001230EE07B680F2B0AD800227968A7
:104430004FF0FF3000F02FF9064A7B68136000232D
:1044400000E0012318460837BD4680BD0400002067
:104450000C0000200800002080B400AF064B1B7841
:104460001A46064B1B681344044A136000BFBD463E
:104470005DF8047B704700BF0C000020540700204B
:1044800080B400AF034B1B681846BD465DF8047B43
:10449000704700BF5407002080B584B000AF78603B
:1044A000FFF7EEFFB8607B68FB60FB68B3F1FF3F8E
:1044B00005D00A4B1B781A46FB681344FB6000BF0B
:1044C000FFF7DEFF0246BB68D31AFA689A42F7D8B4
:1044D00000BF00BF1037BD4680BD00BF0C000020EC
:1044E00080B485B000AF78607B6803F00703FB60A1
:1044F0000B4BDB68BB60BA684FF6FF031340BB6031
:10450000FB681A02BB681A43064B1343BB60044A9C
:10451000BB68D36000BF1437BD465DF8047B7047AD
:1045200000ED00E00000FA0580B400AF044BDB684A
:104530001B0A03F007031846BD465DF8047B70476D
:1045400000ED00E080B483B000AF0346FB7197F943
:104550000730002B0BDBFB7903F01F02074997F9AB
:1045600007305B09012000FA02F241F8232000BF66
:104570000C37BD465DF8047B704700BF00E100E0EA
:1045800080B483B000AF03463960FB7197F9073000
:10459000002B0ADB3B68DAB20C4997F907301201AD
:1045A000D2B20B4483F800230AE03B68DAB2084930
:1045B000FB7903F00F03043B1201D2B20B441A76CD
:1045C00000BF0C37BD465DF8047B704700E100E09A
:1045D00000ED00E080B489B000AFF860B9607A60A7
:1045E000FB6803F00703FB61FB69C3F10703042BBE
:1045F00028BF0423BB61FB690433062B02D9FB6986
:10460000033B00E000237B614FF0FF32BB6902FAFD
:1046100003F3DA43BB681A407B699A404FF0FF31DD
:104620007B6901FA03F3D9437B680B4013431846B7
:104630002437BD465DF8047B7047000080B582B02A
:1046400000AF78607B68013BB3F1807F01D3012329
:104650000FE00A4A7B68013B53600F214FF0FF30A7
:10466000FFF78EFF054B00229A60044B07221A6069
:10467000002318460837BD4680BD00BF10E000E0AB
:1046800080B582B000AF78607868FFF729FF00BF7F
:104690000837BD4680BD80B586B000AF0346B9601F
:1046A0007A60FB7300237B61FFF73EFF78617A68D5
:1046B000B9687869FFF78EFF024697F90F30114607
:1046C0001846FFF75DFF00BF1837BD4680BD80B5B7
:1046D00082B000AF0346FB7197F907301846FFF729
:1046E00031FF00BF0837BD4680BD80B582B000AF46
:1046F00078607868FFF7A2FF034618460837BD4682
:1047000080BD000080B586B000AF786000237B617B
:10471000FFF7B6FE38617B68002B01D1012399E0D9
:104720007B68022283F835207B68002283F83420DE
:104730007B681B681A687B681B6822F001021A609C
:104740000FE0FFF79DFE02463B69D31A052B08D9FF
:104750007B6820225A657B68032283F83520032377
:1047600078E07B681B681B6803F00103002BE8D12D
:104770007B681B681B687B617A69384B13407B61DF
:104780007B685A687B689B681A437B68DB681A43BE
:104790007B681B691A437B685B691A437B689B696A
:1047A0001A437B68DB691A437B681B6A13437A6987
:1047B00013437B617B685B6A042B07D17B68DA6AF1
:1047C0007B681B6B13437A6913437B617B681B68AF
:1047D0007A691A607B681B685B697B617B6923F07F
:1047E00007037B617B685B6A7A6913437B617B6843
:1047F0005B6A042B17D17B689B6A7A6913437B61E0
:104800007B68DB6A002B0ED0786800F023FB034640
:10481000002B08D07B6840225A657B68002283F811
:104820003520012316E07B681B687A695A61786835
:1048300000F0DAFA0346FB607B68DB6D3F229A40AA
:10484000FB689A607B6800225A657B68012283F8C6
:104850003520002318461837BD4680BD3F8010F034
:1048600080B586B000AFF860B9607A603B60002325
:10487000FB75FB689B6D3B61FB6893F83430012B43
:1048800001D1022348E0FB68012283F83420FB6851
:1048900093F83530DBB2012B37D1FB68022283F865
:1048A0003520FB6800225A653B687A68B968F86869
:1048B00000F06CFAFB68DB6D3F229A403B699A601E
:1048C000FB681B681A68FB681B6842F016021A60D6
:1048D000FB681B685A69FB681B6842F080025A61DA
:1048E000FB681B6C002B07D0FB681B681A68FB6811
:1048F0001B6842F008021A60FB681B681A68FB68B4
:104900001B6842F001021A6005E0FB68002283F890
:1049100034200223FB75FB7D18461837BD4680BD49
:1049200080B584B000AF78607B689B6DFB60FFF75B
:10493000A7FDB8607B6893F83530DBB2022B08D056
:104940007B6880225A657B68002283F8342001232B
:1049500052E07B681B681A687B681B6822F01602AD
:104960001A607B681B685A697B681B6822F08002AA
:104970005A617B681B6C002B03D17B689B6C002BFE
:1049800007D07B681B681A687B681B6822F00802E6
:104990001A607B681B681A687B681B6822F001023A
:1049A0001A6013E0FFF76CFD0246BB68D31A052BB3
:1049B0000CD97B6820225A657B68032283F8352056
:1049C0007B68002283F83420032315E07B681B6892
:1049D0001B6803F00103002BE4D17B68DB6D3F22F1
:1049E0009A40FB689A607B68012283F835207B68D7
:1049F000002283F83420002318461037BD4680BDBE
:104A000080B483B000AF78607B6893F83530DBB258
:104A1000022B04D07B6880225A6501230CE07B685E
:104A2000052283F835207B681B681A687B681B6841
:104A300022F001021A60002318460C37BD465DF8CB
:104A4000047B704780B586B000AF78600023BB6000
:104A50008E4B1B688E4AA2FB03239B0A7B617B68FB
:104A60009B6D3B613B691B68FB607B68DB6D0822CB
:104A70009A40FB681340002B1AD07B681B681B68A8
:104A800003F00403002B13D07B681B681A687B6853
:104A90001B6822F004021A607B68DB6D08229A40D2
:104AA0003B699A607B685B6D43F001027B685A65E5
:104AB0007B68DB6D01229A40FB681340002B12D00B
:104AC0007B681B685B6903F08003002B0BD07B685D
:104AD000DB6D01229A403B699A607B685B6D43F015
:104AE00002027B685A657B68DB6D04229A40FB6892
:104AF0001340002B12D07B681B681B6803F0020375
:104B0000002B0BD07B68DB6D04229A403B699A60D6
:104B10007B685B6D43F004027B685A657B68DB6DE4
:104B200010229A40FB681340002B43D07B681B681F
:104B30001B6803F00803002B3CD07B68DB6D102260
:104B40009A403B699A607B681B681B6803F480236A
:104B5000002B18D07B681B681B6803F40023002B14
:104B600008D17B681B6C002B24D07B681B6C786899
:104B700098471FE07B689B6C002B1BD07B689B6C6D
:104B80007868984716E07B681B681B6803F480739D
:104B9000002B07D17B681B681A687B681B6822F0B2
:104BA00008021A607B681B6C002B03D07B681B6CAF
:104BB000786898477B68DB6D20229A40FB68134039
:104BC000002B00F08F807B681B681B6803F01003CC
:104BD000002B00F087807B68DB6D20229A403B69C8
:104BE0009A607B6893F83530DBB2052B36D17B6851
:104BF0001B681A687B681B6822F016021A607B68C3
:104C00001B685A697B681B6822F080025A617B68C6
:104C10001B6C002B03D17B689B6C002B07D07B683F
:104C20001B681A687B681B6822F008021A607B68A0
:104C3000DB6D3F229A403B699A607B68012283F8D2
:104C400035207B68002283F834207B681B6D002BA5
:104C50007ED07B681B6D7868984779E07B681B681D
:104C60001B6803F48023002B1DD07B681B681B6826
:104C700003F40023002B0DD17B685B6C002B31D03B
:104C80007B685B6C786898472CE000BF04000020CC
:104C9000B5814E1B7B68DB6B002B23D07B68DB6B05
:104CA000786898471EE07B681B681B6803F4807374
:104CB000002B0FD17B681B681A687B681B6822F089
:104CC00010021A607B68012283F835207B6800227D
:104CD00083F834207B68DB6B002B03D07B68DB6BB5
:104CE000786898477B685B6D002B32D07B685B6D82
:104CF00003F00103002B22D07B68052283F83520C6
:104D00007B681B681A687B681B6822F001021A60C6
:104D1000BB680133BB607A699A4207D37B681B6822
:104D20001B6803F00103002BF2D100E000BF7B6899
:104D3000012283F835207B68002283F834207B68C9
:104D4000DB6C002B05D07B68DB6C7868984700E053
:104D500000BF1837BD4680BD80B483B000AF786017
:104D60007B6893F83530DBB218460C37BD465DF8EA
:104D7000047B704780B483B000AF78607B685B6D64
:104D800018460C37BD465DF8047B704780B485B08B
:104D900000AFF860B9607A603B60FB681B681A6816
:104DA000FB681B6822F480221A60FB681B683A6863
:104DB0005A60FB689B68402B08D1FB681B687A68C7
:104DC0009A60FB681B68BA68DA6007E0FB681B68DA
:104DD000BA689A60FB681B687A68DA6000BF1437AB
:104DE000BD465DF8047B704780B485B000AF786045
:104DF0007B681B68DBB2103B134AA2FB03231B0931
:104E0000FB60124AFB6813441B781A467B68DA651C
:104E1000FB68032B08D97B681B681A460C4B1340B0
:104E20001A1D7B689A6506E07B681B681A46084B6A
:104E300013407A6893657B689B6D18461437BD46AE
:104E40005DF8047B704700BFABAAAAAA347C0108B6
:104E500000FCFFFF80B485B000AF78600023FB73D7
:104E60007B689B6ABB607B689B69002B1FD1BB681A
:104E7000032B56D801A252F823F000BF8D4E000834
:104E80009F4E00088D4E0008234F00087B68DB6AA8
:104E900003F08073002B46D00123FB7343E07B6853
:104EA000DB6AB3F1C07F40D10123FB733DE07B6837
:104EB0009B69B3F5005F21D1BB68032B37D801A2F2
:104EC00052F823F0D54E0008DB4E0008D54E0008FE
:104ED000ED4E00080123FB7330E07B68DB6A03F0D2
:104EE0008073002B25D00123FB7322E07B68DB6AF3
:104EF000B3F1C07F1FD10123FB731CE0BB68022B01
:104F000003D9BB68032B03D018E00123FB7315E022
:104F10007B68DB6A03F08073002B0ED00123FB73E8
:104F20000BE000BF0AE000BF08E000BF06E000BFE2
:104F300004E000BF02E000BF00E000BFFB7B1846BA
:104F40001437BD465DF8047B704700BF80B489B05C
:104F500000AF786039600023FB6100237B61002390
:104F60003B610023BB610023FB6175E10122FB690A
:104F700002FA03F37B613B681B687A6913403B616B
:104F80003A697B699A4240F064813B685B6803F050
:104F90000303012B05D03B685B6803F00303022B7E
:104FA00030D17B689B68BB61FB695B00032202FA1E
:104FB00003F3DB43BA691340BB613B68DA68FB6902
:104FC0005B0002FA03F3BA691343BB617B68BA69F9
:104FD0009A607B685B68BB610122FB6902FA03F39C
:104FE000DB43BA691340BB613B685B681B0903F094
:104FF0000102FB6902FA03F3BA691343BB617B68E0
:10500000BA695A603B685B6803F00303032B17D04F
:105010007B68DB68BB61FB695B00032202FA03F378
:10502000DB43BA691340BB613B689A68FB695B006C
:1050300002FA03F3BA691343BB617B68BA69DA60A9
:105040003B685B6803F00303022B23D1FB69DA089A
:105050007B68083253F82230BB61FB6903F0070319
:105060009B000F2202FA03F3DB43BA691340BB61D2
:105070003B681A69FB6903F007039B0002FA03F31C
:10508000BA691343BB61FB69DA087B680832B96906
:1050900043F822107B681B68BB61FB695B0003223D
:1050A00002FA03F3DB43BA691340BB613B685B68F8
:1050B00003F00302FB695B0002FA03F3BA691343CE
:1050C000BB617B68BA691A603B685B6803F4403374
:1050D000002B00F0BE80664B5B6C654A43F4804356
:1050E0005364634B5B6C03F48043FB60FB68614A71
:1050F000FB699B08023352F82330BB61FB6903F064
:1051000003039B000F2202FA03F3DB43BA69134047
:10511000BB617B68584A934237D07B68574A9342B9
:1051200031D07B68564A93422BD07B68554A9342D4
:1051300025D07B68544A93421FD07B68534A9342E0
:1051400019D07B68524A934213D07B68514A9342EC
:105150000DD07B68504A934207D07B684F4A9342F8
:1051600001D1092312E00A2310E008230EE00723EF
:105170000CE006230AE0052308E0042306E00323ED
:1051800004E0022302E0012300E00023FA6902F0B8
:10519000030292009340BA691343BB613549FB692E
:1051A0009B080233BA6941F823203D4B9B68BB61E1
:1051B0003B69DB43BA691340BB613B685B6803F43E
:1051C0008013002B03D0BA693B691343BB61344A97
:1051D000BB699360324BDB68BB613B69DB43BA69F7
:1051E0001340BB613B685B6803F40013002B03D0E2
:1051F000BA693B691343BB61294ABB69D360284B39
:105200005B68BB613B69DB43BA691340BB613B68C8
:105210005B6803F40033002B03D0BA693B69134386
:10522000BB611F4ABB6953601D4B1B68BB613B6977
:10523000DB43BA691340BB613B685B6803F48033AE
:10524000002B03D0BA693B691343BB61144ABB69A5
:105250001360FB690133FB61FB690F2B7FF686AEA0
:1052600000BF00BF2437BD465DF8047B704700BF18
:1052700000380240003801400000024000040240B3
:1052800000080240000C02400010024000140240DE
:1052900000180240001C024000200240002402408E
:1052A000003C014080B485B000AF78600B467B8045
:1052B0007B681A697B881340002B02D00123FB73A3
:1052C00001E00023FB73FB7B18461437BD465DF8F5
:1052D000047B704780B483B000AF78600B467B805E
:1052E00013467B707B78002B03D07A887B689A61A9
:1052F00003E07B881A047B689A6100BF0C37BD46C7
:105300005DF8047B7047000080B582B000AF0346B3
:10531000FB80084B5A69FB881340002B06D0054AD6
:10532000FB885361FB881846FDF756FE00BF08371F
:10533000BD4680BD003C014080B582B000AF7860C2
:105340007B68002B01D101238BE07B6893F841300F
:10535000DBB2002B06D17B68002283F840207868FE
:10536000FDF7FAFC7B68242283F841207B681B68E8
:105370001A687B681B6822F001021A607B685A6811
:105380007B681B6822F070621A617B681B689A68F0
:105390007B681B6822F400429A607B68DB68012B03
:1053A00007D17B689A687B681B6842F400429A6068
:1053B00006E07B689A687B681B6842F404429A6046
:1053C0007B68DB68022B08D17B681B685A687B68A6
:1053D0001B6842F400625A6007E07B681B685A68E9
:1053E0007B681B6822F400625A607B681B685968FE
:1053F0007B681A681D4B0B4353607B681B68DA6837
:105400007B681B6822F40042DA607B681A697B685B
:105410005B6942EA03017B689B691A027B681B682F
:105420000A43DA607B68D9697B681A6A7B681B6803
:105430000A431A607B681B681A687B681B6842F025
:1054400001021A607B6800225A647B68202283F87C
:1054500041207B6800221A637B68002283F8422087
:10546000002318460837BD4680BD00BF00800002FB
:1054700080B58AB002AFF8607A601A460B467B812D
:1054800013463B810023BB61FB6893F84130DBB2DC
:10549000202B40F0EF80FB681B689B6903F40043FE
:1054A000B3F5004F01D10223E5E0FB6893F84030EB
:1054B000012B01D10223DEE0FB68012283F84020AA
:1054C000FB68212283F84120FB68102283F84220E8
:1054D000FB6800225A64FB687A685A62FB683A8962
:1054E0005A85FB68664ADA62FB68664A5A63FB685B
:1054F0005B8D9BB2FF2B06D9FB68FF221A854FF00C
:105500008073FB6107E0FB685B8D9AB2FB681A85CC
:105510004FF00073FB61FB681B8D002B1AD0FB68FA
:105520005B6A1A78FB681B689A62FB685B6A5A1CA4
:10553000FB685A62FB681B8DBB61FB685B8D9BB28D
:10554000013B9AB2FB685A85FB681B8D013B9AB2FE
:10555000FB681A85FB681B8D002B74D0FB689B6B66
:10556000002B22D0FB689B6B474ADA63FB689B6B7E
:10557000464ADA64FB689B6B00221A64FB689B6BEB
:1055800000221A65FB68986BFB685B6A1946FB682A
:105590001B6828331A46FB681B8DFFF761F9034629
:1055A000FB75FB7D002B3AD113E0FB68202283F8CA
:1055B0004120FB68002283F84220FB685B6C43F0CB
:1055C0008002FB685A64FB68002283F840200123B4
:1055D00051E0FB681B8DDBB20133DAB279892C4BC9
:1055E0000093FB69F86802F079F9FB685B8D9AB269
:1055F000FB681B8DD31A9AB2FB685A85FB680022A0
:1056000083F840201021F86802F09AF9FB681B68C3
:105610001A68FB681B6842F480421A6028E0FB6845
:10562000202283F84120FB68002283F84220FB6897
:105630005B6C43F01002FB685A64FB68002283F83D
:105640004020012317E0FB68124A5A63BB69DAB2B3
:1056500079890F4B00934FF00073F86802F03EF920
:10566000FB68002283F840200121F86802F068F905
:10567000002300E0022318462037BD4680BD00BF4E
:105680000000FFFFE16100085F730008A7740008D5
:1056900000200080555D000880B588B002AFF8603A
:1056A000084611461A4603467B810B463B8113464A
:1056B000FB80FB6893F84130DBB2202B40F0F9808F
:1056C0003B6A002B02D0BB8C002B05D1FB684FF44A
:1056D00000725A640123EDE0FB6893F84030012B1F
:1056E00001D10223E6E0FB68012283F84020FEF7A7
:1056F000C7FE78617B690093192301224FF40041B2
:10570000F86801F028FF0346002B01D00123D1E007
:10571000FB68212283F84120FB68402283F8422065
:10572000FB6800225A64FB683A6A5A62FB68BA8CCA
:105730005A85FB6800225A63F8883A8979897B691F
:105740000193BB6A00930346F86801F07BF80346B7
:10575000002B05D0FB68002283F840200123A9E03C
:10576000FB685B8D9BB2FF2B0ED9FB68FF221A856D
:10577000FB681B8DDAB27989002300934FF08073A8
:10578000F86802F0ABF80FE0FB685B8D9AB2FB683B
:105790001A85FB681B8DDAB27989002300934FF0DC
:1057A0000073F86802F09AF87A69B96AF86801F04B
:1057B0002BFF0346002B01D001237BE0FB685B6AD3
:1057C0001A78FB681B689A62FB685B6A5A1CFB6864
:1057D0005A62FB685B8D9BB2013B9AB2FB685A85AB
:1057E000FB681B8D013B9AB2FB681A85FB685B8DD9
:1057F0009BB2002B34D0FB681B8D002B30D17B6912
:105800000093BB6A00228021F86801F0A4FE0346E1
:10581000002B01D001234DE0FB685B8D9BB2FF2B79
:105820000ED9FB68FF221A85FB681B8DDAB27989D5
:10583000002300934FF08073F86802F04FF80FE0F8
:10584000FB685B8D9AB2FB681A85FB681B8DDAB228
:105850007989002300934FF00073F86802F03EF856
:10586000FB685B8D9BB2002B9ED17A69B96AF868A0
:1058700001F011FF0346002B01D001231AE0FB6861
:105880001B682022DA61FB681B685968FB681A688C
:105890000A4B0B405360FB68202283F84120FB68D1
:1058A000002283F84220FB68002283F84020002376
:1058B00000E0022318461837BD4680BD00E800FE10
:1058C00080B588B002AFF860084611461A46034614
:1058D0007B810B463B811346FB80FB6893F841308C
:1058E000DBB2202B40F0FD803B6A002B02D0BB8C4A
:1058F000002B05D1FB684FF400725A640123F1E0DC
:10590000FB6893F84030012B01D10223EAE0FB68E9
:10591000012283F84020FEF7B3FD78617B69009394
:10592000192301224FF40041F86801F014FE0346E8
:10593000002B01D00123D5E0FB68222283F841200F
:10594000FB68402283F84220FB6800225A64FB680F
:105950003A6A5A62FB68BA8C5A85FB6800225A631D
:10596000F8883A8979897B690193BB6A0093034679
:10597000F86800F0BBFF0346002B05D0FB6800224F
:1059800083F840200123ADE0FB685B8D9BB2FF2BC9
:105990000ED9FB6801221A85FB681B8DDAB2798962
:1059A000524B00934FF08073F86801F097FF0FE0BF
:1059B000FB685B8D9AB2FB681A85FB681B8DDAB2B7
:1059C00079894A4B00934FF00073F86801F086FF25
:1059D0007B690093BB6A00220421F86801F0BBFDDB
:1059E0000346002B01D001237CE0FB681B685A6A48
:1059F000FB685B6AD2B21A70FB685B6A5A1CFB6870
:105A00005A62FB681B8D013B9AB2FB681A85FB68E2
:105A10005B8D9BB2013B9AB2FB685A85FB685B8D3C
:105A20009BB2002B34D0FB681B8D002B30D17B69DF
:105A30000093BB6A00228021F86801F08CFD0346C8
:105A4000002B01D001234DE0FB685B8D9BB2FF2B47
:105A50000ED9FB6801221A85FB681B8DDAB27989A1
:105A6000002300934FF08073F86801F037FF0FE0D8
:105A7000FB685B8D9AB2FB681A85FB681B8DDAB2F6
:105A80007989002300934FF00073F86801F026FF36
:105A9000FB685B8D9BB2002B9AD17A69B96AF86872
:105AA00001F0F9FD0346002B01D001231AE0FB6849
:105AB0001B682022DA61FB681B685968FB681A685A
:105AC0000B4B0B405360FB68202283F84120FB689E
:105AD000002283F84220FB68002283F84020002344
