:020000040800F2
:10000000A8070020D501000895390008752B0008C5
:1000100091390008D50C0008C93A0008000000001A
:10002000000000000000000000000000BD3A0008D1
:10003000D90C00080000000099390008C13A0008F6
:10004000EF010008EF010008EF010008EF010008D0
:10005000EF010008EF010008EF010008EF010008C0
:10006000EF010008EF010008EF010008EF010008B0
:10007000EF010008EF010008EF010008EF010008A0
:10008000EF010008EF010008EF010008EF01000890
:10009000EF010008EF010008EF010008EF01000880
:1000A000EF010008EF010008EF010008EF01000870
:1000B000EF010008EF010008EF010008EF01000860
:1000C000EF010008EF010008EF010008EF01000850
:1000D000EF010008EF010008EF010008EF01000840
:1000E000EF010008EF010008EF01000800F002F83E
:1000F00000F060F814A696E8000CB244B344DA4568
:1001000001D100F057F8BAE80F000FA696E83000CA
:10011000A5EB040504EB0607AAEB0704A7F101070A
:100120004FEA15154FEA3414A4F10104AC4201D38F
:1001300000F040F813F0010F18BFFB1A43F0010361
:1001400000F001F8DBE71847244D0000444D0000A3
:10015000103A24BF78C878C1FAD8520724BF30C8F3
:1001600030C144BF04680C60704700007047000055
:100170000023002400250026103A28BF78C1FBD8B0
:10018000520728BF30C148BF0B607047662904F092
:10019000E385752900F07C80002070471FB500F0D2
:1001A000C5FB04000020002104F0FCF9E0601FBD45
:1001B00010B510BD00F0BAFC1146FFF7EFFF03F0D9
:1001C00085FC00F0D8FC03B4FFF7F2FF03BC00F09D
:1001D0001BFD00000948804709480047FEE7FEE78D
:1001E000FEE7FEE7FEE7FEE7FEE7FEE7FEE7FEE7E7
:1001F00004480549054A064B70470000C53A000807
:10020000ED000008A8010020A8070020A803002096
:10021000A80300200FB41CB50C0007AA009007D05B
:100220004142A14202D32044401E01E04FF0FF3082
:10023000074B7B4469460190069800F05CFB002167
:10024000002C01D0009A11701CBC5DF814FB00005A
:10025000E70600007CB51D4616460C00009007D04E
:100260004142A14202D32044401E01E04FF0FF3042
:10027000064B7B442A4669460190304600F03BFB22
:10028000002C02D0009A002111707CBDA70600004E
:100290002DE9F0410646002410687529314616A55F
:1002A00010D0AFF30080002802DA404213A507E027
:1002B00031688A0701D512A502E0490704D511A5C6
:1002C000012401E0AFF3008000210A2206F1240797
:1002D00009E0B0FBF2FCB0FBF2F302FB1C00303093
:1002E00078541846491C0028F3D123462A46304644
:1002F000BDE8F04100F092B8000000002D000000C1
:100300002B000000200000002DE9F0474FF0000A0C
:1003100089460446C0F820A02046E16888470028A6
:1003200076D0252806D0D4E901219047206A401CC8
:100330002062F1E7E168204600258847C4F81CA048
:1003400006460027C4F818A02A2E09D0304604F02B
:1003500021F938B304EB8708303EC8F8186019E07B
:1003600059F8041B204604EB87029161E168884735
:10037000012F064618D1E069002820DA25F0200573
:100380001DE0D8F8180000EB800006EB4000303884
:10039000C8F818002046E1688847064604F0FAF8D5
:1003A0000028EED1012F0AD02E2E08D12046E16878
:1003B00088477F1C0646022F45F02005C4DBA06954
:1003C000002803DA404245F00105A061E80701D0AA
:1003D00025F01005B6B1A6F14100192802D8203643
:1003E00045F400654A463146204625604D46FFF7F4
:1003F000CDFE58B1012806D0ED1D25F0070000F113
:10040000080989E704E005F1040985E730468AE731
:10041000206ABDE8F0877047704770472DE9F047C4
:100420000D4699469246044600F124080168880664
:1004300004D5E06921F01001216000E00120A8420C
:1004400001DD471B00E00027A1697A1902EB0900D2
:10045000081AA0612078C00602D42046AFF30080BD
:10046000002608E0D4E901211AF806009047206A26
:10047000401C761C20624E45F4DB2078C0060AD56D
:100480002046AFF3008006E0D4E9012130209047F8
:10049000206A401C2062381EA7F10107F4DC07E047
:1004A000D4E9012118F805009047206A401C206219
:1004B000281EA5F10105F3DC2046AFF3008020786B
:1004C000000602D50220BDE8F0870120FBE72DE9F8
:1004D000FF4F0C461E464FF0FF378BB0D2E90001AC
:1004E000DDF860800A908A46C1F30A5505B93D4699
:1004F000002108464FF00000BAF1000F00F4400060
:1005000005DA00EB80004FF4400101EA50004FEAA9
:100510009059B9F1010F00DDB9460A9850EA4A0036
:100520000ED044F61050A5F2FF3545432F14B8F114
:10053000000F1ED07542291E1EDDC9F100021CE00D
:10054000B8F1010F4FF0000001D0302103E0F24379
:1005500005E02154401CB042FBDB30460022002164
:1005600021540B99C1F80880C1E900200FB0BDE803
:10057000F08FBD1B6D1CDEE74A4600DA694206A813
:1005800000F05EFA06AB93E8070003AB83E80700D0
:1005900050460A9903F022FC8DE80700A0F50050B0
:1005A0001F3800900398002D0ADD42F21F014A46D1
:1005B0000844002303A90390684603F08BFE09E07A
:1005C000A0F500504A461F38002303A9039068464F
:1005D00003F095FE8DE807000004000C03D04FF0F7
:1005E000FF30410800E01046B8F1000F03D00022B0
:1005F000009215461EE0751E05D400F09BF93032BE
:1006000062556D1EF9D5B3460122084302D000227F
:100610007F1C04E02078302801D100227F1E002AB0
:10062000099784D01DE0112D07DA00F083F93032EC
:1006300062556D1C50EA0102F5D1084302D00098C2
:10064000C8B10EE00021681E05E0235C625C6354C3
:100650002254401E491C8142F7DBAB46A81B401EBA
:100660000990002004F80B000B98099AC0F8088044
:10067000C0E9002B7AE711264FF0000857E72DE973
:10068000F04F88460446D21D22F0070191B0D1E90F
:100690000001CDE90A0103F069FF02460B98C00F83
:1006A00001D02D2007E02068810701D52B2002E032
:1006B000202101EAC000032A099001D0072A05DBA6
:1006C00003464146204600F07BF90BE12078800686
:1006D00001D5E06900E00620B8F1650F814606D03B
:1006E000B8F1660F18D0B8F1670F70D131E0002073
:1006F000B9F1110F009001DB112301E009F10103B1
:100700000AAA01A90CA8FFF7E2FEDDE90C70002699
:1007100009F10105834647E001204B4600904FF068
:1007200000470AAA01A90CA8FFF7D1FEDDE90DB028
:100730000C995D46002610B909F101000D18B9EBBE
:10074000050003D4C0F1FF3609F10105A5EB09004E
:100750002BE0B9F1010F01DA4FF001090020B9F1E6
:10076000110F0090484601DD112300E003460AAA5C
:1007700001A90CA8FFF7ABFEDDE90C704D46002681
:100780008346207800070AD4AB4500DA5D4601A80D
:10079000012D04DD411911F8011C302907D04F4506
:1007A00002DA17F1040F04DA012082460FE06D1E11
:1007B000EEE7002F02DCED1B3E4403E0781CA8426C
:1007C00000DD7D1CB81B00F1010A4FF000472078C6
:1007D000000703D4AA4501DB4FF0FF3A0021B7F12F
:1007E000004F0DF143088DF8431024D002202B2335
:1007F000002F01DA7F422D230A21021EA0F1010001
:1008000000DC5FB197FBF1FC97FBF1F201FB1C7C74
:1008100017460CF1300C08F801CDEEE7A8F1010005
:1008200003702188090501D5452100E06521A0F16B
:10083000010800F8011C09980FA9A1EB0807FF1D8A
:1008400000B10120411901EBEA70A1693844081A8E
:10085000401EA0612078C00602D42046AFF300807D
:10086000099828B1D4E901219047206A401C2062F0
:100870002078C00622D52046AFF300801EE0002E6F
:1008800004DBB34502DD01A8805D00E03020D4E93F
:1008900001219047206A401C2062761CAAF10100C9
:1008A0005FEA000A0AD100F041F8C0680168405CC4
:1008B000D4E901219047206A401C2062281EA5F13E
:1008C0000105DCDC07E0D4E9012118F8010B9047B1
:1008D000206A401C2062381EA7F10107F3DC204685
:1008E000AFF30080032011B041E6000001694A1C0B
:1008F00002610878704700B58FB0CDE90131002161
:10090000059105497944CDE9031011466846FFF782
:10091000FBFC0FB000BD0000E5FFFFFFD1E90023A5
:100920009A4202D2531C0B60107070470048704707
:100930003000002030B5B0F10A0271F100034FEA37
:10094000900E4EEA817EB0EB0E0061EB91014FEA12
:10095000101E4EEA017E10EB0E0041EB11114FEA22
:10096000102E4EEA016E10EB0E0041EB11214FEA02
:10097000104E4EEA014E10EB0E0041EB11414018B3
:1009800041F100014FEAD00040EA41704FEAD10145
:100990004FEA810444EA907410EB800544EB0104B3
:1009A0006D1944EB0404521BA3414FF0000348BFF0
:1009B0000A3200D530BD401C41F1000130BD0000BD
:1009C0002DE9F0411F46044603260168072A01F479
:1009D000006004DB08B116A505E016A503E008B128
:1009E00015A500E015A521F010002060A069C01E2B
:1009F000A0610FB1401EA0612046AFF300804FB14F
:100A0000D4E9012138469047206A401C2062C01C6E
:100A1000206206E0206AFAE7D4E9012115F8010B0B
:100A20009047761EF8D22046AFF30080BDE8F081F3
:100A30004E414E006E616E00494E4600696E660082
:100A40002DE9F047814616468AB0354878440DC8EE
:100A50008DE80D0032487844801C03AC0DC884E852
:100A60000D0041F69B300844372190FBF1F290FBDA
:100A7000F1F5A5F1800501FB12041B3C02D564428F
:100A8000012000E00020DFF898A080460027FA440B
:100A9000AAF1BE0A0EE0E0070AD03246684607EB2C
:100AA000470101230AEB810103F029FC8DE80700CF
:100AB00064107F1C002CEED1194F7F44AE3F19E02B
:100AC000E80715D007EB04100DF1180A90E80E00A6
:100AD0008AE80E00C068F04201D1981908903246A9
:100AE000012306A903A803F00AFC03AB83E807006F
:100AF0006D10641C002DE3D14FF0010332466946AE
:100B0000B8F1000F03A802D003F0E4FB01E003F00A
:100B1000F6FBC9E90001C9F808200AB0BDE8F08772
:100B20008843000000487047100000207546FFF71A
:100B3000F9FFAE4605006946534620F0070085469A
:100B400018B020B5FFF754FBBDE820404FF0000679
:100B50004FF000074FF000084FF0000BAC46ACE838
:100B6000C009ACE8C009ACE8C009ACE8C00921F094
:100B700007018D46704710B50446AFF3008020464C
:100B8000BDE81040FFF71FBB4FF0013C50F8042BAD
:100B900051F8043B9A4221D1A2EB0C03934313EA90
:100BA000CC1317D150F8042B51F8043B9A4215D1BD
:100BB000A2EB0C03934313EACC130BD150F8042B94
:100BC00051F8043B9A4209D1A2EB0C03934313EA78
:100BD000CC13DBD04FF00000704700BFD01A01BA31
:100BE000B1FA81F101F0180122FA01F0CB40DBB239
:100BF000C0B2C01AC1F120012CFA01F3D11A9143FD
:100C000011EAC311E6D1704701491820ABBEFEE7D7
:100C1000260002007047000080B50B46C1605100FD
:100C200008224260002201800272428118460A2294
:100C30000A2300F033FA002808BF80BD40F6000008
:100C4000C4F2010020210122BDE8804000F068B913
:100C500070B584B003294FF0000436D842890126CC
:100C600042EA013144F283120A43C3688DF80960F5
:100C70008026018846EA12268DF80A608DF80B203E
:100C80000A260DF10902054618460323009600F0D6
:100C900011FD686800F028F8E86829880DF10F0256
:100CA00001238DF80F40009600F004FDE8682988C4
:100CB00003AA0223ADF80C40009600F0F9FABDF843
:100CC0000C00297A40BA20FA01F4204604B070BD25
:100CD00041817047FEE7000070470000EFF310808D
:100CE00072B600BFFEE70000B0B5044600F01EF982
:100CF000054640F20000C2F200000078611C18BFF7
:100D0000044400BF00F012F9401BA042FAD3B0BD6A
:100D10002DE9F04F82B00E68002E00F0FD8041F208
:100D20000042C4F20102042340F2004E904208BF88
:100D300003234FF6FF7CC4F2010E0093002401232D
:100D4000C1F2100C4FF0000A4FF000094BE000BF59
:100D500041F20002C4F20102009F904208BF022744
:100D600004F00C030F229A402BEA020207FA03F365
:100D70004FEA9A051A4346F825204E6840F20C4582
:100D8000F202DEF8082054BF22EA080242EA080212
:100D9000C4F20105CEF808202A68B30254BF22EA43
:100DA000080242EA08022A60B303DEF8042054BFB6
:100DB00022EA080242EA0802F303CEF80420DEF831
:100DC00000204FF0010354BF22EA080242EA080261
:100DD000CEF800200E680AF1010A36FA0AF204F190
:100DE000040400F0998003FA0AFB16EA0B08F1D01C
:100DF0004E68664512DC122E56D8DFE806F0350B39
:100E00004D495555555555555555555555555545B6
:100E1000510000BFD1F80C9046E000BF4FF6FF72C2
:100E2000C1F2210296420FDC0022C1F21102964269
:100E30001AD00022C1F21202964215D00022C1F24D
:100E40002102964210D02FE00022C1F222029642E7
:100E50000AD00022C1F23102964205D00022C1F22E
:100E60003202964220D100BF8A684AB1012A14BFDB
:100E7000C0F814B0C0F810B04FF0080914E000BF7B
:100E80004FF0040910E000BFCA6802F104090BE04A
:100E90004FF0000908E000BFCA6802F1080903E04A
:100EA000CA6802F10C0900BF02462646B8F5807FE9
:100EB00024BF0432203E17680F25B54027EA0505F8
:100EC00009FA06F635431560CA79D2067FF582AF76
:100ED00041F21803C4F202031A68AEF57E7642F0BE
:100EE00001021A601A6802F001020192019A2AF0C6
:100EF000030256F802B040F60002C4F2010290422A
:100F000008D040F60042C4F2010290427FF420AFC4
:100F1000012725E7002723E702B0BDE8F08F000096
:100F2000002A08BF090401617047000040F2A010C8
:100F3000C2F2000000687047002804BF012070471B
:100F4000F0B581B0044690F83D0028B9002084F83F
:100F50003C00204600F09CFC242084F83D002068E2
:100F6000016821F001010160016841F40041016064
:100F7000016821F40041016000F042FE636848F21C
:100F8000A16CC0F2010C40F60011C0F23D016345B6
:100F90003CBF48F28041C0F21E01884202D20120CB
:100FA00001B0F0BD4DF68361C4F21B31A0FB01120C
:100FB0002168970CD1F804E04FF496762EF03F05A7
:100FC00045EA92454D60774348F638160D6AC0F2FF
:100FD0004106A7FB067625F03F07634538BF960C10
:100FE000721C3A430A62CA6948F2A0664CF6FF775F
:100FF000C0F20106B34222EA07020BD801385B00B7
:10100000B0FBF3F001306FF31F30042898BF0420C9
:101010001BE000BFA768013857B119277B43B0FB1D
:10102000F3F001306FF31F3070B100F5804007E03E
:1010300003EB4303B0FBF3F001306FF31F3018B143
:1010400000F5004001E000BF01201043C8610868BE
:10105000D4E9072320F0C0001043184308608868D3
:1010600048F2FF3204F10C0790438CCF1843104331
:10107000A6698860C86820F0FF0038433043C86024
:10108000086840F00100086000202021206484F8F6
:101090003D10206384F83E0001B0F0BD2DE9F04F13
:1010A00083B01E46924688460446FFF73FFF94F8F9
:1010B0003D10202924D12168054600BF886980079A
:1010C0001AD5FFF733FF401B21681A28F6D3886929
:1010D0008007F3D500202021206384F83D1084F898
:1010E0003E00216C41F02001216484F83C00022084
:1010F00003B0BDE8F08F00BF94F83C00012803D195
:10110000022003B0BDE8F08F4FF0010984F83C9055
:101110000868C00703D1086840F00100086008684B
:10112000002720F400600860242084F83D0000209F
:10113000CFF6FF702764E06208F0FE08BAF1010FF5
:1011400088BFD1464FF0A00A4FF0200B04E000BF4B
:1011500001374F4500F0A2800868002240F48070FB
:10116000086020464FF001113346009501F062FD02
:101170002168002856D1C1F81080FFF7D7FE2168FA
:101180004B694A6994F83D50A02D054605D013F0EF
:10119000020008BF12F480601AD084F83DB048699C
:1011A0000A68800742F400720A6045D46FF48060D8
:1011B000486100BF88698007CAD5FFF7B7FE401BAA
:1011C00021681A28F6D388698007F3D54AE000BF62
:1011D000B6B100BFFFF7AAFE401BB04288BF84F83B
:1011E0003DA021684A69486994F83D30A02BD4D0CD
:1011F00012F0020208BF10F48060EBD0CDE700BF10
:10120000FFF794FE84F83DA021684A69486994F884
:101210003D30A02BC1D012F00202BED110F480608C
:10122000EED0BAE70868C00544BF4FF400702064F0
:10123000032003B0BDE8F08F0020029048690290BF
:10124000886902900298886901E000BF8069800780
:101250001AD5FFF76BFE411B20681A29F6D3816966
:101260008907F3D500202021206384F83D1084F8FD
:101270003E00216C41F02001216484F83C000120F3
:1012800003B0BDE8F08F00BF202084F83D000020AF
:1012900084F83C0003B0BDE8F08F00BF202084F844
:1012A0003D00002084F83C00012003B0BDE8F08F31
:1012B0002DE9F04784B0044600201F4616468946B3
:1012C0000290FFF733FE94F83D10202924D1054603
:1012D000206800BF816989071AD5FFF727FE411BE7
:1012E00020681A29F6D381698907F3D500202021C7
:1012F000206384F83D1084F83E00216C41F0200109
:10130000216484F83C00022004B0BDE8F08700BFEF
:1013100094F83C10012903D1022004B0BDE8F08705
:10132000012184F83C100168C90703D1016841F02C
:10133000010101600168DDF8308021F40061016085
:10134000222184F83D10102184F83E1000212164F0
:1013500066626785618D0227C0F201072185A7F1CA
:101360000211E162E16A026811F5803F42F4806295
:10137000026018BF01293DD1016841F4807101600C
:1013800020464FF0011100224346009501F052FC27
:1013900050B120680068C00544BF4FF4007020645D
:1013A000012004B0BDE8F0872069B0F5804F27D157
:1013B00049F00100C0B22168424608612046394622
:1013C0002B4601F01DFD0028EAD1208D022861D0B6
:1013D000012849D0002840F0738000200390206845
:1013E00041690391816903910399016841F4007196
:1013F000016071E00829BFD0216B1129BCD0BFE783
:10140000062000EAD916206806F1F0010161B91D35
:10141000204642462B4601F0F3FC0028C0D120684C
:101420005FFA89F101612046394642462B4601F0B8
:10143000E7FC0028B4D10020039020680022416915
:1014400043460391816903910399016841F48071D6
:10145000016020464FF00111009501F0EBFB0028E0
:1014600097D146F0F100A6E72068016821F4806179
:101470000160EFF3108072B600200390206841698C
:101480000391816903910399016841F4007101603E
:1014900062B621E02068016841F400610160EFF369
:1014A000108072B600200390206841690391816921
:1014B00003910399016821F48061016062B60BE039
:1014C0002068016841F48061016000210391416955
:1014D0000391806903900398208D002800F0CC8050
:1014E00040F208094BF2895A0237C2F20009C1F2F0
:1014F000F84A23260EE000BF10690870606A218D4B
:1015000001306062481E2085618D013961850104CA
:1015100000F0B28080B203280CD802282CD0012819
:101520004AD1204641462A4601F0D6FC002800F068
:101530009F8035E7204641462A4601F0CDFC002831
:101540007FF42EAF2068616A00690870606A2268C3
:10155000411C208D616201382085638D013B6385CC
:1015600053695B07D3D580B20328C5D1106820F436
:1015700080601060C0E700BF204639460022434625
:10158000009501F057FB00287FF40AAFEFF31080BD
:1015900072B62068616A026842F4007202600069F3
:1015A0000870606A218D01306062481E2085608D60
:1015B0000138608562B65BE020463946002243462A
:1015C000009501F037FB00287FF4EAAE206801683F
:1015D00021F480610160EFF3108072B62068616AC7
:1015E00000690870606A218D0130013960622185CF
:1015F000618D01396185D9F80010C908A1FB0A1273
:10160000110A71430291029901390291029900294C
:101610003ED021684A6952071AD4029901390291D1
:101620000299A9B321684A69520711D40299013974
:101630000291029961B321684A69520708D402995C
:1016400001390291029919B321684A695207DAD522
:101650000A6842F400720A6009690170606A218DAB
:1016600001306062481E2085608D0138608562B659
:101670002068616A006940E7202084F83D0000206E
:1016800084F83E0084F83C0004B0BDE8F08700BF59
:1016900000202021206384F83D1084F83E00216C56
:1016A00041F02001216462B684F83C00012004B0BE
:1016B000BDE8F0872DE9F04383B01E461746894602
:1016C0000446FFF733FC94F83D10202924D1054649
:1016D000206800BF816989071AD5FFF727FC411BE5
:1016E00020681A29F6D381698907F3D500202021C3
:1016F000206384F83D1084F83E00216C41F0200105
:10170000216484F83C00022003B0BDE8F08300BFF0
:1017100094F83C10012903D1022003B0BDE8F08306
:10172000012184F83C100168C90703D1016841F028
:1017300001010160016840F2020821F400610160CA
:10174000212184F83D10102184F83E1000212164ED
:1017500067626685618DC0F201082185A8F10211DA
:10176000E162E16A0A9E11F5803F18BF01291DD18F
:10177000016841F48071016020464FF001110022A0
:101780003346009501F056FA50B120680068C00554
:1017900044BF4FF400702064012003B0BDE8F08323
:1017A0002069B0F5804F07D1FE2015E00829DFD071
:1017B000216B1229DCD0DFE7062000EAD91021686E
:1017C000F030086108F10601204632462B4601F050
:1017D00017FB0028E0D1FF20216800EA090008611A
:1017E0002046414632462B4601F00AFB0028D3D161
:1017F000002002902068416902918069029002985D
:1018000006E000BF204631462A4601F0B5F918BB74
:10181000208D68B3204631462A4601F0A5FBD8B991
:10182000606A2168024612F8013B0B616262628DB8
:10183000013A6285228D531E23854F697F07E1D5CA
:101840001B04DFD0437802300B616062608D013889
:101850006085901E2085D5E7206C04289CD12068E7
:10186000016841F400710160012003B0BDE8F0831C
:101870002068016841F400710160202084F83D0077
:10188000002084F83E0084F83C0003B0BDE8F083FB
:1018900010B586B0016845F60000C4F20000814230
:1018A0004FF00001CDE90411CDE9021102D006B0DC
:1018B00010BD00BF41F21804C4F20204216800F513
:1018C000344041F008012160216801F008010191D4
:1018D00001994FF440610291122103910321059176
:1018E00002A9FFF715FA606840F480006060606844
:1018F00000F480000190019806B010BD40F2000095
:1019000040F2A011C2F20000C2F2000100780A68A1
:10191000104408607047000080B542F20000C4F235
:101920000200016841F010010160032000F07AF824
:101930000F2000F005F800F027F8002080BD00001F
:1019400070B540F20006C2F2000640F2080132789B
:10195000C2F200014FF47A730968B3FBF2F2044655
:10196000B1FBF2F1084600F073FF0F2C4FF00105B8
:1019700008D838B94FF0FF3021460022002500F08A
:1019800025F87460284670BD82B041F21800C4F298
:1019900002000168022241F001010160016801F0CA
:1019A000010101910199416841F080514160406815
:1019B00000F08050009000980420C4F201000168FB
:1019C00062F31A61016002B07047000010B54EF674
:1019D0000C5CCEF2000CDCF80030C3F3022E8EF06B
:1019E0000704042C28BF0424BEF103034FF0FF3E7C
:1019F0000EFA04F438BF0023A14399400EFA03F312
:101A00009A43114300F00F0200F160430901043AC8
:101A100003F564436244002848BF02F10C031970C7
:101A200010BD00004EF60C51CEF200010A684FF6D0
:101A3000FF031A4060F30A2242F0806040F0FD701C
:101A400008607047002804BF012070472DE9F0436B
:101A500081B042F20008C4F202080446D8F800003F
:101A60000D4600F0070088420CD2D8F8000020F0A4
:101A700007002843C8F80000D8F8000000F007006D
:101A8000A8426CD1206841F204098107C4F202091E
:101A900017D5410705D5D9F8001041F4E061C9F820
:101AA0000010010705D5D9F8001041F46051C9F8BC
:101AB0000010D9F80010A26821F0F0011143C9F814
:101AC0000010C00742D1D8F8000000F00700A8427B
:101AD0000CD9D8F8000020F007002843C8F800000F
:101AE000D8F8000000F00700A84238D1206841076C
:101AF00007D5D9F80010E26821F4E0611143C9F874
:101B00000010000708D5D9F80000216920F46050C2
:101B100040EAC100C9F80000D9F8002002F00C002A
:101B2000082841F20020C0F27A004DD144F65A63F1
:101B3000C2F38341C0F60003595CD20338D440F6A7
:101B40000010C0F23D0048433EE000BF606859F815
:101B5000041C022808D0012826D1890306D40120BC
:101B600001B0BDE8F08300BF8901F8D5D9F80010B5
:101B700021F003010843C9F80000FFF7D7F9064632
:101B800041F28837D9F80000616800F00C00B0EB32
:101B9000810F98D0FFF7CAF9801BB842F2D9032011
:101BA00001B0BDE8F08300BF8907D8D5DEE700BFEC
:101BB000D9F8002044F65863C2F34042C0F600034F
:101BC0009A5C4843B0FBF2F0D9F8001044F640624A
:101BD000C1F30311C0F60002515C40F2080220FA82
:101BE00001F140F20400C2F200000068C2F20002FB
:101BF0001160FFF7A5FE002001B0BDE8F0830000F2
:101C000040F2080041F20401C2F20000C4F20201F5
:101C10000068096844F65062C1F30221C0F6000270
:101C2000515CC8407047000040F2080041F20401D6
:101C3000C2F20000C4F202010068096844F6506272
:101C4000C1F3C221C0F60002515CC84070470000D9
:101C5000002804BF012070472DE9F04182B00446FE
:101C6000007841F20006C007C4F202060CD070688A
:101C700000F00C00042840F081803068800303D518
:101C80006068002800F04681207880071BD57068C6
:101C900010F00C0F09D0706800F00C00082840F01C
:101CA00087807068C00300F183803068800703D5A7
:101CB0002069012840F02E813068616920F0F80029
:101CC00040EAC10030602078000713D42078400734
:101CD0002CD4E569002D00F01881706800F00C002C
:101CE000082840F0A780012D40F00481012002B0B7
:101CF000BDE8F081A069002800F084800020C4F2D3
:101D000042200121C0F88014FFF710F9054600BFFA
:101D1000706A800700F1B280FFF708F9401B0228C3
:101D2000F6D9032002B0BDE8F08100BFF0695FEA98
:101D3000C00808D4F06940F08050F061F06900F00C
:101D400080500090009847F20007C4F200073868FE
:101D5000C00549D4386840F480703860FFF7E6F871
:101D6000054600BF3868C0053ED4FFF7DFF8401BCA
:101D70006428F7D9032002B0BDE8F081706800F054
:101D80000C00082803D17068C0033FF576AF616886
:101D90003068002900F00C81B1F5A02F00F000811F
:101DA000B1F5803F40F01A8140F480301CE100BF63
:101DB0002069002840F20000C4F2422000F0888030
:101DC00001210160FFF7B2F8054600BF30688007C7
:101DD0003FF572AFFFF7AAF8401B0228F6D903209F
:101DE00002B0BDE8F08100BFE168306A002900F070
:101DF0009D80052900F09280012940F0AF8040F0DD
:101E00000100B1E00020C4F242200021C0F880149B
:101E1000FFF78CF8054600BF706A80077FF556AF64
:101E2000FFF784F8401B0228F6D9032002B0BDE872
:101E3000F08100BF0027C4F2422700203866FFF778
:101E400075F8022D05460DD13068800140F1DE8025
:101E5000FFF76CF8401B02284FF00300F4D902B0E2
:101E6000BDE8F081306880014FD5FFF75FF8401B77
:101E700002284FF00300F5D9F1E700BF40F2080057
:101E8000C2F20000006844F6D351C1F26201A0FB27
:101E90000101480A019000BF00BF0198411E0028BF
:101EA00001913FF413AF00BF0198411E002801913A
:101EB0003FF40CAF00BF0198411E002801913FF490
:101EC00005AF00BF0198411E00280191E4D1FDE655
:101ED00000210160FFF72AF8054600BF306880073F
:101EE0007FF5F1AEFFF722F8401B02284FF0030008
:101EF000F4D9B4E77068216A00F480328A4209D1CB
:101F0000616A00F47010884204D1002002B0BDE87C
:101F1000F08100BF012002B0BDE8F08140F0040074
:101F20003062306A40F001001EE000BF20F0010086
:101F30003062306A20F004003062FEF7F7FF054699
:101F400041F28837306A800720D5FEF7EFFF401B4B
:101F5000B8424FF00300F5D981E700BF20F001003F
:101F60003062306A20F004003062FEF7DFFF054681
:101F700041F28837306A800708D4FEF7D7FF401B4C
:101F8000B842F7D9032002B0BDE8F081B8F1000FE4
:101F90003FF59FAEF06920F08050F06199E600BFF8
:101FA00040F480203060306840F480301CE000BF96
:101FB00020F480303060306820F480203060FEF7FC
:101FC000B5FF0546306880037FF55EAEFEF7AEFFD5
:101FD000401B64284FF00300F4D940E720F4803020
:101FE0003060306820F480203060FEF79FFF0546A7
:101FF000306880033FF548AEFEF798FF401B642829
:10200000F6D9032002B0BDE8F08100BF206AB0F528
:10201000803F05D17168A26821F4003111437160DD
:102020007168626A21F474111143084370600120E1
:102030003866FEF77BFF0446306880013FF565AFE8
:10204000FEF774FF001B02284FF00300F4D906E7E7
:1020500090F851007047000070B528B1416A29B16D
:1020600000210161142106E0012070BD4168B1F535
:10207000827F02D01C21002242500026866290F806
:10208000511029B980F85060054600F039F828460B
:10209000022180F8511090E82E0002F482720C6840
:1020A00003F4044324F040040C601A4405F4006374
:1020B00005691A4405F0020345691A4405F0010355
:1020C0008569C4691A4405F400731A4404F038039E
:1020D000046A1A4404F08003846A1A4304F4005327
:1020E0001A430A60042202EA15424A60CA6922F4CD
:1020F0000062CA610121466580F85110304670BD0A
:1021000070B586B040F60044C4F201040068A4F53E
:102110005441002688420596CDE90366029601D017
:1021200006B070BD41F21800C4F20200416802AD71
:1021300041F480414160416801F48041019101997D
:10214000016841F0080101600068294600F00800BC
:10215000019001984FF42040029002200390032048
:1021600005902046FEF7D4FD4FF48040CDE90206ED
:10217000204629460496FEF7CBFD06B070BD000050
:102180002DE9F04182B0044690F85100012819D1A0
:1021900060681D4617460E46B0F5827F01D1A068E3
:1021A000A0B1FEF7C3FE8046002E4FF0010018BF1D
:1021B000002F03D102B0BDE8F08100BF94F85000B9
:1021C000012811D1022002B0BDE8F081042084F87A
:1021D00051002046314632463B46009500F0CEF98C
:1021E00002B0BDE8F08100BF012084F85000042057
:1021F000002184F851006165A663A787E787216302
:10220000A186E186A2682068B2F5004F216461646E
:1022100038D00168490640D5E168E08F002944D0F4
:1022200000287BD0681C0CD11BE000BFC068A16BEC
:1022300021F8020BA163E08F0138E087E08F0028CE
:102240006CD020688168C907F0D1FEF76FFEA0EB63
:102250000800A842F2D342E0FEF768FEE08F0028B3
:102260005CD020688168C907F6D0C068A16B21F8EE
:10227000020BA163E08F0138E087E08F0028F0D1E6
:102280004CE000BF016821F040010160016821F4C9
:102290008041016001684906BED4016841F04001F7
:1022A0000160E168E08F0029BAD1B8B3681C0CD195
:1022B00024E000BF007BA16B0870A06B0130A0631D
:1022C000E08F0138E087E08F40B320688168C9075C
:1022D000F0D1FEF72BFEA0EB0800A842F3D30120BB
:1022E00084F85100002084F85000032002B0BDE8BB
:1022F000F08100BFFEF71AFEE08F78B12068816898
:10230000C907F7D0007BA16B0870A06B0130A063F8
:10231000E08F0138E087E08F0028EFD16068B0F5EA
:10232000827F11D1A068B0F5004F02D0B0F5806F68
:102330000AD12168B0F5806F0A6822F040020A6075
:1023400002D12046012101E02046802100222B46B7
:10235000CDF8008001F022FB28B1606D40F0200034
:10236000606520206065012084F85100002084F819
:102370005000606D002818BF012002B0BDE8F08158
:102380002DE9F04182B01D4616460F460446FEF781
:10239000CDFD94F8511001290ED18046002F4FF049
:1023A000010018BF002E03D102B0BDE8F08100BFCC
:1023B00094F85000012803D1022002B0BDE8F0815A
:1023C000012084F850000320002184F85100616549
:1023D0002763A686E686A163A187E187A0682164BA
:1023E000B0F5004F2068616407D1016821F0400119
:1023F0000160016841F4804101600168490603D42D
:10240000016841F0400101606168731EE268B1FA41
:1024100081F1B3FA83F349095B09B2F5006F41EA30
:10242000030139D131B137F8021BC1602763E08E57
:102430000138E086E08E002870D0681C0BD11AE0CD
:10244000216B31F8022BC2602163E08E0138E086F7
:10245000E08E002862D0206881688907F0D4FEF7FA
:1024600065FDA0EB0800A842F2D338E0FEF75EFD60
:10247000E08E002852D0206881688907F6D5216B4C
:1024800031F8022BC2602163E08E0138E086E08ED5
:102490000028F0D142E000BF39B139780173206BD8
:1024A00001302063E08E0138E086E08EB0B3681C16
:1024B0000BD123E0216B09780173206B013020637D
:1024C000E08E0138E086E08E40B32068816889079D
:1024D000F0D4FEF72BFDA0EB0800A842F3D30120B7
:1024E00084F85100002084F85000032002B0BDE8B9
:1024F000F08100BFFEF71AFDE08E78B12068816898
:102500008907F7D5216B09780173206B01302063AF
:10251000E08E0138E086E08E0028EFD120460221CF
:1025200001222B46CDF8008001F038FA40B9204650
:10253000802100222B46CDF8008001F02FFA28B12F
:10254000606D40F02000606520206065A06838B9AB
:10255000002001902068C168019180680190019875
:10256000012084F85100002084F85000606D00289C
:1025700018BF012002B0BDE8F08100002DE9F04352
:1025800083B01E4615460F460446FEF7CFFC94F86E
:1025900051108146012909D1002F4FF0010018BFC9
:1025A000002D0FD103B0BDE8F08300BF6068B0F527
:1025B000827F0DD104294FF00200F3D1A1680029D8
:1025C000EAD0EFE7002EEDD094F85000012803D1B7
:1025D000022003B0BDE8F083012084F8500094F895
:1025E0005100002104281CBF052084F851006165BA
:1025F000A563E687A6872763E6862068A68621640A
:1026000061640168490603D4016841F0400101603A
:102610006168731EE268B1FA81F1B3FA83F3DDF801
:10262000288049095B09B2F5006F41EA030165D1D1
:1026300031B137F8021BC1602763E08E0138E086B4
:10264000012518F1010032D102E000BFFEF76EFC57
:10265000E08E18B9E08F002800F0B880206881680B
:1026600089070CD5E18E51B1012D08D1216B0025D0
:1026700031F8022BC2602163E18E0139E186816865
:10268000C907E3D0E18F0029E0D0C068A16B012524
:1026900021F8020BA163E08F0138E087D6E700BF85
:1026A000FEF744FCA0EB0900404580F0AF80E08ECF
:1026B00018B9E08F002800F08980206881688907B8
:1026C0000CD5E18E51B1012D08D1216B002531F8D7
:1026D000022BC2602163E18E0139E1868168C9075E
:1026E000DED0E18F0029DBD0C068A16B012521F885
:1026F000020BA163E08F0138E087D1E739B1397867
:102700000173206B01302063E08E0138E0860125E3
:1027100018F1010032D101E0FEF708FCE08E10B99B
:10272000E08F002852D02068816889070ED5E18E9D
:1027300061B1012D0AD1216B002509780173216B4C
:10274000206801312163E18E0139E1868168C90782
:10275000E2D0E18F0029DFD0C068A16B01250870AD
:10276000A06B0130A063E08F0138E087D4E700BFA1
:10277000FEF7DCFBA0EB0900404547D2E08E08B92C
:10278000E08F18B32068816889070ED5E18E61B1AA
:10279000012D0AD1216B002509780173216B206876
:1027A00001312163E18E0139E1868168C907DFD0FB
:1027B000E18F0029DCD0C068A16B01250870A06BF7
:1027C0000130A063E08F0138E087D1E72046022185
:1027D00001224346CDF8009001F0E0F840B92046D0
:1027E000802100224346CDF8009001F0D7F8B8B11F
:1027F000606D40F02000606520206065002084F856
:102800005000012003B0BDE8F08300BF012084F830
:102810005100002084F85000032003B0BDE8F0838D
:10282000A06838B9002002902068C16802918068D1
:1028300002900298012084F85100002084F8500092
:10284000606D002818BF012003B0BDE8F0830000D0
:10285000411E0020B0EB116F1CBF012070474EF2EB
:102860001002CEF2000251604EF62351CEF200016A
:10287000F0230B700721906011607047002804BF9F
:102880000120704710B5044690F8410028B9002097
:1028900084F84000204600F063F8242084F84100CA
:1028A0002068D4E90212C36823F40053C3600369AB
:1028B00023F440531A430261D4E904231143C2684C
:1028C000194341F20C639A431143C1604169A26903
:1028D00021F44071114343F60002C4F20102904218
:1028E000416103D0FFF78CF902E000BFFFF79CF9CC
:1028F000D4E90023192148439900B0FBF1F048F2D4
:102900001F5CC5F2EB1CA0FB0C314FF69C73490910
:10291000C0F6FF7301FB0300322303EB0010A0FBA2
:102920000C03F02000EA531000EB0110C3F3431135
:10293000084490601069202120F490401061506993
:1029400020F02A005061D06840F40050D060002090
:10295000606484F8411084F84210606310BD000088
:1029600070B586B040F60004C4F20104006804F5B6
:102970004051002688420596CDE90366029601D0B3
:1029800006B070BD41F21800C4F20200016802AD49
:1029900041F480410160016801F480410191019995
:1029A000016841F0040101600068294600F004005C
:1029B000019001984FF400700290022003900320D0
:1029C00005902046FEF7A4F94FF48060CDE9020699
:1029D000204629460496FEF79BF906B070BD00001C
:1029E0002DE9F04381B0044690F84100202809D138
:1029F00000294FF0010018BF002A07D101B0BDE83F
:102A0000F08300BF022001B0BDE8F08300206064C5
:102A100021201D460E4684F841001746FEF786FA2F
:102A2000A784E784A1688146B1F5805F02D120695F
:102A300000285DD037460020E28C2168002A5DD056
:102A40006A1C24D0002D4AD0804600BF08680006CA
:102A500008D4FEF76BFAA0EB0900A8427AD82168E7
:102A6000C868F3E717B117F8010B04E038F8020B58
:102A700000276FF35F204860E08C0138E084E08C31
:102A80000028E3D13AE000BF0A68120609D40A68B8
:102A9000120606D40A6812065CBF0A685FEA026280
:102AA000F2D51FB117F8012B05E000BF30F8022B5B
:102AB00000276FF35F224A60E28C013AE284E28CE5
:102AC000002AE4D11AE000BF30F8022B00276FF390
:102AD0005F224A60E28C013AE284E28C72B10A68B9
:102AE000120635D5002FEFD017F8012BF1E700BF04
:102AF00000273046E28C2168002AA1D108684006F0
:102B00001ED42DB3681C14D1086840062AD4086866
:102B1000400627D40868400624D4086840064FF0D1
:102B20000000F1D50DE000BF2068C16800684006D4
:102B300018D4FEF7FBF9A0EB0900A842F4D909E08C
:102B40000020202184F8411001B0BDE8F08300BFCF
:102B5000FEF7ECF90320202184F8411001B0BDE814
:102B6000F08300BF0020202184F8411001B0BDE8AF
:102B7000F0830000FEE7000070B50368044653F8D8
:102B8000140F400711D40E46481C29D086BB00BF45
:102B90001868400527D4FEF7C9F9236853F8140FC5
:102BA000400737D518684007F2D5002070BD00BF38
:102BB00018684007F9D41868400514D4186840070D
:102BC000F3D4186840050ED418684007EDD418688F
:102BD000400508D4186840074FF0000048BF70BD9A
:102BE00018684005E4D56FF480601860042012E096
:102BF000154603E053F8140F4007D6D41868400573
:102C0000F1D4FEF793F9401B2368B042F2D958691A
:102C10004007EFD4202000212022216384F83D20AA
:102C200084F83E10226C10432064012084F83C108C
:102C300070BD00002DE9F041054600681E461446AF
:102C400001F47F0201338FB242D0DDF81880B2F573
:102C5000803F40F0878040693840C01BB0FA80F068
:102C60004009A04240F0C8804EB924E04069384095
:102C7000C01BB0FA80F04009A04240F0BD80FEF7D2
:102C800055F9A0EB08012868B142EFD941693940F4
:102C9000C91BB1FA81F14909A142E7D19BE000BF0C
:102CA00040693840C01BB0FA80F04009A0424FF0A4
:102CB000000040F0A280FEF739F9286841693940E8
:102CC000C91BB1FA81F14909A142E9D183E000BFF2
:102CD000B2F5803F24D100BF41693940C91BB1FA28
:102CE00081F14909A14240F0878041693940C91BFF
:102CF000B1FA81F14909A14240F07E804169394031
:102D0000C91BB1FA81F14909A14275D14169394024
:102D1000C91BB1FA81F14909A142DDD06CE000BFC5
:102D200081693940C91BB1FA81F14909A14263D1D6
:102D300081693940C91BB1FA81F14909A1425BD1CE
:102D400081693940C91BB1FA81F14909A14253D1C6
:102D500081693940C91BB1FA81F14909A142DFD02B
:102D60004AE000BF80693840C01BB0FA80F04009DB
:102D7000A04241D146B923E080693840C01BB0FA77
:102D800080F04009A04237D1FEF7D0F8A0EB08014F
:102D90002868B142F0D981693940C91BB1FA81F183
:102DA0004909A142E8D116E080693840C01BB0FA59
:102DB00080F04009A0424FF0000018BFBDE8F0814C
:102DC000FEF7B4F8286881693940C91BB1FA81F16E
:102DD0004909A142E8D100202021286385F83D104F
:102DE00085F83E00296C41F02001296485F83C00FB
:102DF0000120BDE8F08100BF0020BDE8F0810000A7
:102E0000F0B581B0044600681D4643698FB203EAFD
:102E10000701B94202D1002001B0F0BD4169164658
:102E200001323CD0490512D47EB300BFFEF77EF8D4
:102E3000411B2068B14203D941693940B9422BD1C5
:102E400041693940B942E6D041694905EED501688A
:102E500041F4007101606FF4806141610420002140
:102E60002022216384F83D2084F83E10226C104318
:102E7000206484F83C10012001B0F0BD4169394064
:102E8000B942C8D041694905E1D4FEF74FF820683E
:102E900041693940B942F1D02020E0E74169490554
:102EA000D5D441693940B942B5D041694905CED43C
:102EB00041693940B942AED041694905C7D4416939
:102EC0003940B942A7D041694905C0D44169394068
:102ED000B942E3D19FE7000070B50446006815468B
:102EE00050F8143F5A063DD40E4629B926E000BFDB
:102EF00050F8141F490635D40168C90621D4FEF7DD
:102F000015F8411B2068B142F2D941694906EFD456
:102F100000202021206384F83D1084F83E00206CBE
:102F200040F0200018E000BFFEF700F8206850F8DD
:102F3000141F4906ECD50168490613D40168C90677
:102F4000F2D56FF01001016000202021206384F889
:102F50003D1084F83E00206C2064002084F83C0082
:102F6000012070BD002070BD70B50368044653F8A1
:102F7000140F000611D40E46481C29D086BB00BF92
:102F80001868400527D4FDF7D1FF236853F8140FC4
:102F9000000637D518680006F2D5002070BD00BFC6
:102FA00018680006F9D41868400514D4186800069B
:102FB000F3D4186840050ED418680006EDD41868DC
:102FC000400508D4186800064FF0000048BF70BDE7
:102FD00018684005E4D56FF480601860042012E0A2
:102FE000154603E053F8140F0006D6D418684005C0
:102FF000F1D4FDF79BFF401B2368B042F2D958691A
:103000000006EFD4202000212022216384F83D20F7
:1030100084F83E10226C10432064012084F83C1098
:1030200070BD000070B582B00446164641F08002C3
:103030000068A1888DF8072000221D46FDF770FF6B
:10304000A0690DF1070101224FF4FA63FFF798F927
:10305000A069FEF7FDFF0128FAD1A06931462A4692
:103060004FF4FA63FFF78CF9A069FEF7F1FF01282E
:10307000FAD12068A1880122FDF752FF02B070BD8D
:103080002DE9F04182B001250DF106010DF1070394
:10309000012204468DF80650009500F0B7F99DF81E
:1030A0000700002700F0F8004FF081088DF80700B6
:1030B0000DF106010DF1070320460122E7618DF8AD
:1030C0000680009500F088FB0A20FDF70DFE0DF14B
:1030D00006010DF10703204601228DF806500095E8
:1030E00000F094F99DF807600A20FDF7FDFD46F019
:1030F00080008DF807000DF106010DF10703204651
:1031000001228DF80680009500F066FB6420FDF733
:10311000EBFD266A8621B0088DF806108DF80700B1
:103120000DF106010DF1070320460122009500F084
:1031300053FB0520FDF7D8FDB00187218DF806105F
:103140008DF807000DF106010DF10703204601225D
:10315000009500F041FB0520FDF7C6FD88208DF8A5
:1031600006000DF106010DF10703204601228DF83E
:103170000770009500F030FB0520FDF7B5FD94F8D1
:103180002A0089218DF806108DF807000DF106013F
:103190000DF1070320460122009500F01DFB0A20D7
:1031A000FDF7A2FD94F82B00CD2301462D2898BFF2
:1031B0002D21F02928BFF021A1F12D02D2B25A43CE
:1031C0001E3141F69A135943090C792838BF910AE8
:1031D00001F120008B218DF806108DF807000DF10C
:1031E00006010DF1070320460122009500F0F4FAD4
:1031F0000A20FDF779FD8C208DF8060023208DF83C
:1032000007000DF106010DF107032046012200958C
:1032100000F0E2FA1E208DF806000DF106010DF116
:10322000070320460122009500F0F0F89DF8070002
:103230009E2140F007008DF806108DF807000DF173
:1032400006010DF1070320460122009500F0C4FAA3
:103250000A20FDF749FD94F82410204600F016F9E5
:103260009F208DF80600FF208DF807000DF1060164
:103270000DF1070320460122009500F0ADFA94F805
:10328000260094F82510400000EB01109D218DF8D8
:1032900006108DF807000DF106010DF10703204619
:1032A0000122009500F098FA94F8240094F8256023
:1032B00005FA00F001F017FB44F6F052C0F60002E8
:1032C00002EBC60352F836205B6801F081F901F089
:1032D000DBFA10284FF02600C8BF01278DF8060042
:1032E0000DF106010DF1070320460122009500F0C3
:1032F0008DF89DF80700A62100F0F70040EAC7000E
:103300008DF806108DF807000DF106010DF1070389
:1033100020460122009500F05FFA0A20FDF7E4FC48
:1033200094F82900A0218DF806108DF807000DF102
:1033300006010DF1070320460122009500F04CFA2A
:1033400094F82800A1218DF806108DF807000DF1E2
:1033500006010DF1070320460122009500F03CFA1A
:1033600040208DF806000DF106010DF107032046FF
:103370000122009500F04AF89DF80700C02140F0B6
:103380003F008DF806108DF807000DF106010DF1D4
:10339000070320460122009500F01EFA0DF10601F8
:1033A0000DF10703204601228DF80650009500F02C
:1033B0002DF89DF807000DF1060100F0F80001302E
:1033C0008DF807000DF1070320460122E5618DF815
:1033D0000680009500F000FA0A20E561FDF784FC04
:1033E00042208DF806000DF106010DF1070320467D
:1033F0000122009500F00AF89DF807104FF4CA70FA
:10340000122908BFC82002B0BDE8F0812DE9F041C3
:1034100004461746A2880068069E0D461146002203
:103420009846FDF77DFDA06929463A464FF4FA63B8
:10343000FEF7A6FFA069FEF70BFE0128FAD1A069EE
:10344000414632464FF4FA63FEF79AFEA069FEF752
:10345000FFFD0128FAD12068A1880122BDE8F041D2
:10346000FDF75EBD10B504468068A1890022FDF716
:1034700057FD0120FDF738FCA068A1890122FDF766
:103480004FFD6420BDE81040FDF72EBCF0B583B0C1
:103490000D4604460C29A8BF0C251E20072DD8BFB9
:1034A00007258DF80400012601A90DF1050320462A
:1034B00001220096FFF7AAFF9DF805700A20FDF78C
:1034C00013FC07F00F0040EA05109E218DF806104E
:1034D0008DF807000DF106010DF1070320460122CA
:1034E000009600F079F90A20FDF7FEFB94F824001D
:1034F00094F8255006FA00F001F0F5F944F6F05280
:10350000C0F6000202EBC50352F835205B6801F0FB
:103510005FF801F0B9F9002510284FF02600C8BF68
:1035200001258DF8080002A90DF1090320460122AA
:103530000096FFF76BFF9DF80900A62100F0F70049
:1035400040EAC5008DF80A108DF80B000DF10A0154
:103550000DF10B0320460122009600F03DF90A20F0
:10356000FDF7C2FB03B0F0BD2DE9F04F83B01D465F
:1035700016468846D0F81C904FF0010A0DF10A015A
:103580000DF10B03012204468DF80AA0CDF800A02E
:10359000FFF73CFF9DF80B004FF0810B00F0F800A7
:1035A00001308DF80B000DF10A010DF10B032046DF
:1035B0000122C4F81CA08DF80AB0CDF800A000F0DC
:1035C0000BF90E200DF10B078DF80A000DF10A0121
:1035D000204601223B46CDF800A0FFF717FF8D20C3
:1035E0008DF80A000DF10A01204601223B46CDF874
:1035F00000A000F0F1F8A2208DF80A000DF10A01F8
:103600000DF10B03204601228DF80B60CDF800A0D0
:1036100000F0E2F82046002142463346FFF702FD63
:103620000DF10A010DF10B03204601228DF80AA0CD
:10363000CDF800A0FFF7EAFE9DF80B00032100F093
:10364000F8000330E1618DF80B000DF10A010DF176
:103650000B03204601228DF80AB0CDF800A000F03F
:10366000BBF84FF012080DF10A010DF10B032046D3
:1036700001228DF80A80CDF800A0FFF7C7FE9DF863
:103680000B00000718D40DF10A060DF10B0700BF5F
:10369000013D28043CD00120FDF726FB20463146A1
:1036A00001223B468DF80A80CDF800A0FFF7AEFE60
:1036B0009DF80B000007EBD592208DF80A00FF2043
:1036C0008DF80B000DF10A010DF10B0320460122CC
:1036D000CDF800A000F080F80DF10A010DF10B0308
:1036E000204601228DF80AA0CDF800A0FFF78EFE3B
:1036F0009DF80B00B9F1060F37D8DFE809F005296E
:103700003625362D310000BF00F0F8002BE000BF59
:1037100001250DF10A010DF10B03204601228DF860
:103720000A500095FFF772FE9DF80B00B9F1060FE5
:103730003FD8DFE809F005313E2D3E35390000BFA6
:1037400000F0F80033E000BF00F0F80003300AE0BA
:1037500000F0F800013006E000F0F800053002E06B
:1037600000F0F8000630C4F81C9081218DF80A1092
:103770008DF80B0001250DF10A010DF10B03204618
:103780000122009500F028F8284603B0BDE8F08F2C
:1037900000F0F80003300AE000F0F800013006E025
:1037A00000F0F800053002E000F0F8000630C4F840
:1037B0001C9081218DF80A108DF80B000DF10A0183
:1037C0000DF10B0320460122009500F005F80025BD
:1037D000284603B0BDE8F08F2DE9F04104461746B6
:1037E000A2880068069E0D46114600229846FDF705
:1037F00097FBA06929463A464FF4FA63FEF7C0FDED
:10380000A069FEF725FC0128FAD1A069414632469D
:103810004FF4FA63FEF7B4FDA069FEF719FC012826
:10382000FAD12068A1880122BDE8F041FDF778BBFC
:10383000F0B585B0002641F21800CDE90366CDE968
:103840000166C4F20200016840F6004441F0200124
:1038500001600168C4F2010401F0200100910099A7
:103860000168012241F008010160016841F201058F
:1038700001F00801009100990168012741F004015D
:103880000160006841F2010100F00400009000981E
:103890002046FDF745FBCDE9015701AD0227204643
:1038A000294603960497FDF733FA0020C1F2110070
:1038B000CDE90206204629460197FDF729FA05B011
:1038C000F0BD000080B540F2AC0045F60001C2F248
:1038D0000000C4F2000141F6802200234FF4804C26
:1038E000C0F2060280E80E00C0E9033CC0E90533DF
:1038F000C0E90733FDF720FB002808BF80BDBDE805
:103900008040FDF7EBB9000080B540F2001043F6AF
:103910000001C2F20000C4F200014FF482720023E1
:1039200080E80E0000F114014FF4007C4FF0100EFF
:1039300081E808500A21C0E90333C0E90833C0E92F
:103940000A31FEF789FB002808BF80BDBDE8804032
:10395000FDF7C4B980B540F2581043F60001C2F239
:103960000000C4F2010100234FF00C0C4FF4E132CF
:1039700080E80E00C0E90333C0E905C3C361FEF768
:103980007DFF002808BF80BDBDE88040FDF7A6B9D7
:10399000FEE70000FEE70000704700002DE9F0435D
:1039A00081B0089C984615460E468146FDF7BEFA42
:1039B000201A00EB0804FDF7B9FA40F20801C2F240
:1039C00000010968C1F3CB3161430091D9F80010BF
:1039D0008A683240921BB2FA82F25209AA423DD062
:1039E000074618F1010031D0FDF7A0FAC01BA04234
:1039F00038D2009800990028A1F101010091D9F86E
:103A00000010896808BF044601EA0600801BB0FA6E
:103A100080F04009A842E7D120E000BF886830402C
:103A2000801BB0FA80F04009A84217D08868304067
:103A3000801BB0FA80F04009A8420FD0886830405F
:103A4000801BB0FA80F04009A84207D08868304057
:103A5000801BB0FA80F04009A842DFD1002001B0FD
:103A6000BDE8F083D9E900014268B1F5827F22F018
:103A7000E00242600BD1D9F80810B1F5004F02D036
:103A8000B1F5806F03D1016821F040010160D9F8E0
:103A90002810B1F5005F07D1016821F400510160E1
:103AA000016841F400510160012089F851000020B3
:103AB00089F85000032001B0BDE8F0837047000092
:103AC000FDF71CBF70470000FEE70000B2B0FDF735
:103AD00023FF00240120CDE90744CDE905440290ED
:103AE00006904FF4E0104FF4803102250B9002A8AD
:103AF000CDE90314CDE90951FEF7AAF820B1EFF39F
:103B0000108072B6FEE700BF0F20CDE922054FF40A
:103B10008060CDE9250422A802212494FDF792FFBC
:103B200020B1EFF3108072B6FEE700BFFFF780FE12
:103B3000FFF7EAFEFFF7C6FEFFF70CFF40F2581052
:103B4000C2F2000064A125224FF0FF33FEF748FFC8
:103B500040F27004C2F2000440F2AC01C2F2000173
:103B600020464822FDF758F820464FF40071FDF733
:103B7000AFF80A20FDF7B8F802A800F0EFF80DF151
:103B8000080E9EE801500AAB0ECBDDF8148044F815
:103B9000100FDDE90607DDE90865216240F6004106
:103BA000C4F20101C4E903804FF480506262A36251
:103BB00084E80250C4E90576E561A0800120A08177
:103BC0000220A08240F20010C2F20000A061204654
:103BD000A1602161FFF746FC3220FDF785F8204601
:103BE000FFF74EFA0446C8280AD140F25810C2F234
:103BF000000043A10F224FF0FF33FEF7F1FE02E079
:103C0000214600F0B9F840F27000C2F2000022AD87
:103C100000F110060DF1080B0EE000BF82B240F279
:103C20005810C2F2000059464FF0FF33FEF7D8FE9D
:103C30004FF47A70FDF758F840F27000C2F20000BD
:103C40000021FDF705F8824600F0A6FF41F26F2142
:103C5000C4F2830100F0B4FF4FF60061C4F2FF61CB
:103C600000F0D8FE00F0AAFE804689462846402192
:103C700027A25346CDE90089FCF7CCFA20EAE07789
:103C8000402F4FF0400028BF0746C82C04D03046D4
:103C9000FFF7F6F9C82814D1FAB2304629464FF496
:103CA000FA63FFF761FC58B1584680211CA2CDE9A8
:103CB0000089FCF7AFFA00284FF0C804AEDCB7E784
:103CC000C824584680211DA2CDE90089FCF7A2FA3C
:103CD0000128A3DAACE700BF3D3D3D2053544D33EE
:103CE00032204C6F5261202B204144533131313509
:103CF0002053656E646572203D3D3D0D0A00000055
:103D00004C6F526120696E69743A204F4B0D0A0066
:103D10004144533A2025752C20563A252E3366000F
:103D200053656E742028252E336620562920746F23
:103D300020476174657761790D0A0000556E7375CF
:103D4000636365737366756C6C792053656E74205C
:103D500028252E33662056290D0A000040F2B111A5
:103D6000016240F207718184012180F82610082148
:103D7000C6F2FF418162704783B010B5A1B023A89D
:103D80000EC023AB0DA201A8802100938024FCF774
:103D900061FA01280CDB8028B8BF044640F25810B5
:103DA000A2B2C2F2000001A94FF0FF33FEF718FEE5
:103DB00021B0BDE8104003B0704700BF4C6F5261A6
:103DC00020696E69743A204641494C454420286375
:103DD0006F64653D2575290D0A0000005FEA400CFF
:103DE00008BF91F0000F4FEA8C234FEAC12243EA4B
:103DF00051514FEA1C5018BF00F5F0404FEA300017
:103E000018BF41F000415FEA6C5C00F02980BCF112
:103E1000FF3F08BF40F080407047130C06BF1204FC
:103E20004FF0100C4FF0000C130E04BF12020CF1F7
:103E3000080C130F04BF12010CF1040C930F04BF04
:103E400092000CF1020CD30F04BF52000CF1010CD4
:103E500011464FF00002A0F11F00A0EB0C007047CC
:103E600011F0004F08BF704731F000413FF4D5AF6B
:103E70000B0C06BF09044FF0100C4FF0000C0B0E9A
:103E800004BF09020CF1080C0B0F04BF09010CF16F
:103E9000040C8B0F04BF89000CF1020CCB0F04BF84
:103EA00049000CF1010CCCF1200322FA03F341EAA2
:103EB000030102FA0CF2A0EB0C0000F101007047C4
:103EC00023F07F4720F07F4C80EA030000F00040A1
:103ED000ACEB070303F57C5303F1FF032DE98049A5
:103EE00009B44FEA144324EA03484FEA154B25EA84
:103EF0000B4E0FF2042606EB13273E7803FB0667F2
:103F0000C7F5000707FB06F64FEAD64606F102069C
:103F10004FEA543707FB066CCCF1005C4FEA1C47B4
:103F20002CEA074C0CFB06F507FB06F404EB1546E0
:103F30004FEA961649085FEA320234BF00204FF07C
:103F400000404FEAD13706FB07FC4FEA1C4C0CFB44
:103F50000BF7D21B03FB0CF761EB07010CFB0EF711
:103F6000B0EB074072EB17420CFB08F734BFA2EB33
:103F70000742B2EB074261EB17414FEA0C444FEAAC
:103F8000910706FB07FC4FEA1C4C0CFB0BF7B0EB50
:103F9000C74072EB573203FB0CF734BFA2EBC742AA
:103FA000B2EBC74261EB57310CFB0EF7B0EBC70029
:103FB00072EB57720CFB08F734BFA2EBC702B2EBEF
:103FC000C70261EB57714FEA816141EA92114FEAF2
:103FD000826242EA90124FEA806004EBCC04039FB5
:103FE0004FEAD13706FB07FC4FEA1C4C0CFB0BF7E2
:103FF000D21B03FB0CF761EB07010CFB0EF7B0EBD8
:10400000074072EB17420CFB08F734BFA2EB0742E4
:10401000B2EB074261EB17414FEA8C5504EB9C244D
:104020004FEA910706FB07FC4FEA1C4C0CFB0BF711
:10403000B0EBC74072EB573203FB0CF734BFA2EB77
:10404000C742B2EBC74261EB57310CFB0EF7B0EB46
:10405000C70072EB57720CFB08F734BFA2EBC70224
:10406000B2EBC70261EB57714FEA816141EA9211ED
:104070004FEA826242EA90124FEA806015EB4C25CB
:1040800044F100044FEAD13706FB07FC4FEA1C4C11
:104090000CFB0BF7D21B03FB0CF761EB07010CFBCE
:1040A0000EF7B0EB074072EB17420CFB08F734BF7A
:1040B000A2EB0742B2EB074261EB17414FEA8131B5
:1040C00041EA92414FEA823242EA90424FEA80301E
:1040D0004FEA0C7615EB1C1544F1000448EA034343
:1040E0004EEA0B484FF0000EB2EB080C71EB0307E1
:1040F00024BF624639464EEB0E0E4FF0000B0018FF
:10410000524149414BEB0B0BB2EB080C71EB03072F
:104110007BF1000B24BF624639464EEB0E0E4FF08A
:10412000000B0018524149414BEB0B0BB2EB080C52
:1041300071EB03077BF1000B24BF624639464EEB5F
:104140000E0E51EA020718BF46F0010616EB0E7676
:1041500055F1000254F1000103D5BDE88901BDE825
:104160000088BDE88901BDE80048B619524141EB1D
:104170000101A3F10103704780807F7E7D7C7B7A03
:104180007978777676757473727171706F6E6E6D03
:104190006C6C6B6A6A6968686766666564646363A9
:1041A00062616160605F5F5E5E5D5D5C5C5B5B5A2F
:1041B0005A5959585857575656555555545453539C
:1041C00052525251515050504F4F4F4E4E4D4D4DF7
:1041D0004C4C4C4B4B4B4A4A4A4949494848484742
:1041E0004747474646464545454444444443434380
:1041F00043424242424141419C46002B30D4770029
:104200002BD04FEA37071CB503B44FF010004FF026
:104210001001BAF1000F06D0BCF1000FDCBF40F076
:10422000080040F008014FF000000FBCBDE810404E
:104230000BF1010BBBF1010F08BF5FEA170722BFAB
:1042400012F1010211F101014FF0004143F10003AD
:1042500000F0004043EA00007047F9D35708D0E768
:1042600046EA06464FEA164613F1400F1FDD13F1EA
:10427000200FDFBF16430A46002120335B42BED029
:10428000C3F1200746EA06464FEA164602FA07F748
:1042900046EA070622FA03F2C3F1200701FA07F7FC
:1042A00042EA070221FA03F14FF00003A7E746EACA
:1042B000020646EA06464FEA164646EA0106BCBF33
:1042C00046EA0646360C4FF000034FF000024FF06E
:1042D000000194E72DE9804C70B49A46934691E82A
:1042E000380007C831EA400C48BF34EA430C03D514
:1042F000FFF7E6FDFFF780FFF0BCBDE8008C2DE97D
:10430000804C70B49A46934691E8380007C810F084
:10431000804F08BF13F0804F03D100F005F8FFF77E
:104320006BFFF0BCBDE8008C20F07F4723F07F4C92
:1043300080EA030000F0004007EB0C03A3F57C5378
:10434000A3F1FE0392F0000F00F0B38095F0000F90
:1043500000F077802DE901494FEA114021EA004839
:104360004FEA144624EA064700FB06FC08FB06F663
:1043700007FB08F818EB06484CEB164C00FB07F758
:1043800018EB07484CEB17404FEA124B22EA0B4E52
:104390004FEA154625EA06470BFB06FC0EFB06F620
:1043A00007FB0EFE1EEB064E4CEB164C0BFB07F705
:1043B0001EEB074E4CEB174B18EB0B0840F10000BF
:1043C00018EB0E0B58EB000840F100008F1A4FF06D
:1043D00000014FF000063CBFC943661B14BFB5EB9C
:1043E000040C00213CBFC943F61B4FEA174427EADF
:1043F00004454FEA1C472CEA074C04FB076205FB07
:1044000007F70CFB05F616EB074642EB174204FBD9
:104410000CFC16EB0C4642EB1C421BEB060658EB61
:10442000020241414EEA8E0E46EA9E0601D5BDE8E3
:104430000189B619524141EB0101A3F10103BDE825
:1044400001894FEA144524EA05464FEA114721EA5B
:10445000074C05FB07F406FB07F70CFB06F111EB15
:10446000074144EB174405FB0CFC11EB0C4144EBFA
:104470001C444FEA124722EA074C05FB07F206FBF1
:1044800007F70CFB06F616EB074642EB174205FB57
:104490000CFC16EB0C4642EB1C456A1854F100016B
:1044A00048BF7047B619524141EB0101A3F1010326
:1044B000704795F0000F37D04FEA114221EA0246CB
:1044C0004FEA144724EA074C02FB07F106FB07F703
:1044D0000CFB06F414EB074441EB174102FB0CFC08
:1044E00014EB0C4441EB1C414FEA154725EA074CFD
:1044F00002FB07F506FB07F70CFB06F616EB074673
:1045000045EB174502FB0CFC16EB0C4645EB1C4239
:10451000121951F1000148BF7047B619524141EBE1
:104520000101A3F1010370474FEA144524EA05464F
:104530004FEA114721EA074C05FB07F106FB07F795
:104540000CFB06F212EB074241EB174105FB0CFC9A
:1045500012EB0C4251EB1C414FF0000648BF704774
:10456000921841EB0101A3F101037047490050EAA1
:10457000C12018BF04204A0D18BF40F0010040F2CE
:10458000FF72B2EB515F08BF40F00200012808BF84
:104590000520704730380A2801D2012070470020DA
:1045A0007047000010B500290AD00878002807D00D
:1045B00005487844FCF7E8FA002801D0002010BD37
:1045C0000248784410BD0000DA080000D20800005C
:1045D0002DE9C04130B4DFF8A8C23CEA111418BF7D
:1045E0003CEA131400F0F0801CEA111481EA030580
:1045F00044EAD57418BF1CEA131500F0CB80A4EB75
:10460000050404F17F7404F500344FF0004545EAD9
:10461000C12145EAC32341EA505143EA52534FEACC
:10462000C0204FEAC222994208BF904200F0A08009
:104630004FEA13650FF24816765D4FEA134506FB05
:1046400005F7C7F1807706FB07F74FEAD737A7FBD7
:1046500003687642A7FB06CEC8F5803838BFA8F1BC
:10466000010807FB08E6A6FB028C4FF0000EE6FBF4
:1046700003CED8F100086FEA0C0C5CF1000C6FEA75
:104680000E0E4EF1004EA6FB0C584FF00007E6FB55
:104690000E87A1FB08C6A0FB07CE16EB0E064FF057
:1046A000000545F10005E1FB076515F1E04E7EBF11
:1046B000A4F580345FEA46066D4116F1800745F1A6
:1046C00000054FEA172747EA05674FEA15254FEA25
:1046D0000666A6F1DE46B6F1805F20D9384605EBC6
:1046E000C47124F0010C01EB0C11BCF1FE6F02D877
:1046F000F0BCBDE8008124425CBF01F5801E9EEA4B
:10470000C47F02D4F0BCBDE80081244200F13980AE
:10471000A1F1C041F0BCBDE8004100F049B94FEA49
:10472000D02040EA41504FEAD1214FEAD22242EA5A
:1047300043524FEAD323A7FB028607FB036605FB20
:1047400002661EEA0E0F58BFA6EB0056B6EB0056E7
:104750004FEA520E4EEAC37E18EB0E0E56EB530E86
:10476000BCD518EB02085E417F1C55F10005B5E78A
:104770004FF480154FF000074FF000064FF000088F
:10478000ACE701F1C04101F000414FF00000F0BC86
:10479000BDE800810CEA131511EA0C1F00D00CE0F3
:1047A00013EA0C1F00F025804FF0000081EA03019E
:1047B00001F00041F0BCBDE80081F0BCBDE8004163
:1047C00081EA030100F0F4B8F0BCBDE8004170B527
:1047D00000F0A0F8097EFC3E00F007B84FF00000A2
:1047E00081EA030101F00041704781EA030100F012
:1047F000DFB8F0BCBDE8004122494FF0000070472F
:10480000FFFDFBF9F7F5F4F2F0EEEDEBE9E8E6E495
:10481000E3E1E0DEDDDBDAD8D7D5D4D3D1D0CFCD1C
:10482000CCCBCAC8C7C6C5C4C2C1C0BFBEBDBCBB55
:10483000BAB9B8B7B6B5B4B3B2B1B0AFAEADACAB50
:10484000AAA9A8A8A7A6A5A4A3A3A2A1A09F9F9E2A
:104850009D9C9C9B9A9999989797969595949393DC
:10486000929191908F8F8E8E8D8C8C8B8B8A898973
:1048700088888787868585848483838282818180F6
:104880000000FF070000F87F4FEA41034FEA53534F
:10489000A3F58063D3F11E03C8BFD3F1210C0CDD57
:1048A0004FF0004242EAC12242EA505232FA03FC7F
:1048B0008CEAE17CACEBE1707047102BC4BF0020A8
:1048C000704703F5787CBCF1FF3F04D06FF00042E5
:1048D00082EA2100704770B500F01CF849922480EC
:1048E00000207047F2E710F0004248BF4042B0FAA3
:1048F00080F310FA03F10AD0C3F11D0303F58063BE
:1049000002EB03524FEA415002EBD12170474FF0C6
:10491000000070470EF1020E2EF0030E5EF8046BDD
:10492000364205D4012A43EB030515F5001F12D8C2
:10493000012841EB010C1CF5001F0CD80ED14FEAE9
:10494000D17C0CEB4C0C0CF1020C15F5001F08BFD0
:104950004CEBD37C04E04FF0080C01E04FEAD37C31
:104960000CEB4C0526FA05F606F00706B6F1040C2A
:1049700006D20EEB860CBDE870404CF0010C60478F
:10498000DFE80CF0090B02024FF00041A1F5002115
:104990004FF0000070BD19461046012851EB01048C
:1049A00018BFD4F5001484BF002001F0004170BD91
:1049B0000808A0F500114FEA3101704743004FEAA3
:1049C000D30C4FEA3C0C43401FBF40070CF1605131
:1049D00013F0FE4F70471CF0006F03D10CF0004144
:1049E000002070470CF0004343EA507040EACC00CE
:1049F00010B500F066F900BF000000924FEA000118
:104A0000FFF7D6BF4FF00041A1F500214FF00000A5
:104A1000704700004FF47F0C1CEAD0121EBF1CEA46
:104A2000D11392EA0C0F93EA0C0F00F0858090EA04
:104A3000010F48BF42F4807240F4000C41F40000C2
:104A40002CF07F4120F07F4000B5A2EB03028142B1
:104A50000FF2081CACEB504E9EF800E0C0F10000D5
:104A60004FEA4E0E00FB0EFC38BF49004FEA2C1CEB
:104A70000CFB0EF34FEACE1E0EEB635E4FEA112CD9
:104A80000EFB0CFC4FEAC1214FEA1C5300FB031143
:104A900002F5FA024FEA112C0EFB0CFC4FEA013131
:104AA0004FEADC4C00FB0C1142EB2242C14228BF12
:104AB00009184CEB03335DF804EB10EB410143EBB9
:104AC000C250B2F57C0F38BF704729D512F0F00FF5
:104AD0001CBF00F1C04000F000407047008182839D
:104AE0008485868788898B8C8D8E8F9192939596FD
:104AF00097999A9C9D9FA0A2A3A5A7A8AAACAEB087
:104B0000B2B3B5B7B9BCBEC0C2C5C7C9CCCED1D48B
:104B1000D7D9DCDFE2E6E9ECF0F3F7FAFE000000BB
:104B20004FEA400C0CF1807CBCF17E4F28BF7047EF
:104B3000B0F1C04000F00BB90CEAD11390EA010FBC
:104B400048BF42F48072624538BF634507D213F410
:104B50007F0F16D080EA010000F00040704710B5CA
:104B600000F0AFF8097EFC3E00F005B880EA0100D5
:104B700000F00040704780EA010000F0004000F0C3
:104B8000E6B812F47F0F04BF0248704780EA0100C4
:104B900000F0DDB80000C07FB0FA80F310FA03F235
:104BA000C3F19D030AD0D90501EB1220530638BF8B
:104BB000704700F1010008BF20F0010070470000BD
:104BC0004FF47F0C1CEAD0121EBF1CEAD11392EAEC
:104BD0000C0F93EA0C0F00F0478090EA010F48BFDA
:104BE00042F480724FF0004C4CEA00204CEA012164
:104BF00002EB0302A0FB0113A2F50002002918BF7B
:104C000043F001035B0028BF4FEA330342EB22422B
:104C10005FEA132C4CEBC2502EBFBCEB436FB2F5D6
:104C20007C0F70474FEA036CBCF1004F08BF20F0C7
:104C30000100B2F57C0F38BF70470BD582F0FF0240
:104C400012F5803FC8BF704700F1C040D8BF00F0E8
:104C50000040704700F5000C5FEA4C0C48BF7047FD
:104C6000B0F1C04000F073B80CEAD11390EA010F24
:104C700048BF42F48072624538BF634504D280EA7F
:104C8000010000F00040704710B500F01AF800BFB6
:104C90008900013E00F007B800F009B85FEA410C56
:104CA0005FEA1C6C08D080EA010000F050B85FEAAF
:104CB000400C5FEA1C6CF6D14FF00040A0F580007C
:104CC00070470EF1020E2EF0030E5EF8044B2442E4
:104CD00004D44FEA4102B2F17F4F11D84FEA4003AA
:104CE000B3F17F4F0CD80ED14FEAD07C0CEB4C0CBB
:104CF0000CF1020CB2F17F4F08BF4CEBD17C04E009
:104D00004FF0080C01E04FEAD17C0CEB4C0324FA85
:104D100003F404F00704B4F1040C06D20EEB840C87
:104D2000BDE810404CF0010C6047DFE80CF00708CC
:104D300002024FF00040A0F5800010BD084642007E
:104D400018BFD2F1807288BF00F0004010BDFF2173
:104D500041EAD050C0057047FBF791BC024000000B
:104D6000000000A00000000005400000000000C896
:104D7000000000000C4000000000409C000000000B
:104D8000194000000020BCBE0000000034400000BC
:104D9000BFC91B8E00000004B5400000504BCFD0AF
:104DA0006607E2CF010000006C4100003E8251AA7C
:104DB000DFEEA73401000000D9420000DCB5A0E21C
:104DC0003A301F97FFFFFFFFB4450000FD25A0C844
:104DD000E9A3C14FFFFFFFFFFF3F0000000000807D
:104DE00000000000FF3F0000000000800000000005
:104DF0003333333333331F40CDCCCCCCCCCC2440F5
:104E00003333333333332F40CDCCCCCCCCCC3440C4
:104E10000000000000403F409A99999999D9444078
:104E20000000000000404F400000000000405F40D4
:104E30000000000000406F400000000000407F4084
:104E4000000000000000000001020304060708093A
:104E5000000000000102030401020203040506072A
:104E600008090A0B0C0D0E0F10100000A84E0008C8
:104E7000000000201000000050010008B84E00089B
:104E80001000002098070000700100081C000000BE
:104E900043000000F8FFFFFF0C0000000E000000C0
:104EA0000F0000002E0000000100000010000000B4
:084EB00000127A00000000006E
:04000005080000ED02
:00000001FF
