:020000040800F2
:1000000000070020B5010008051A000805140008C3
:10001000011A000871020008391B000800000000E6
:100020000000000000000000000000002D1B000880
:100030007502000800000000091A0008311B0008C2
:10004000CF010008CF010008CF010008CF01000850
:10005000CF010008CF010008CF010008CF01000840
:10006000CF010008CF010008CF010008CF01000830
:10007000CF010008CF010008CF010008CF01000820
:10008000CF010008CF010008CF010008CF01000810
:10009000CF010008CF010008CF010008CF01000800
:1000A000CF010008CF010008CF010008CF010008F0
:1000B000CF010008CF010008CF010008CF010008E0
:1000C000CF010008CF010008CF010008CF010008D0
:1000D000CF010008CF010008CF010008CF010008C0
:1000E000CF010008CF010008CF01000800F002F89E
:1000F00000F050F814A696E8000CB244B344DA4578
:1001000001D100F047F8BAE80F000FA696E83000DA
:10011000A5EB040504EB0607AAEB0704A7F101070A
:100120004FEA15154FEA3414A4F10104AC4201D38F
:1001300000F030F813F0010F18BFFB1A43F0010371
:1001400000F001F8DBE71847441F0000641F0000BF
:10015000103A24BF78C878C1FAD8520724BF30C8F3
:1001600030C144BF04680C60704700007047000055
:100170000023002400250026103A28BF78C1FBD8B0
:10018000520728BF30C148BF0B6070471FB51FBD65
:1001900010B510BD00F031F81146FFF7F7FF01F080
:1001A000CDFC00F04FF803B4FFF7F2FF03BC00F002
:1001B00057F800000948804709480047FEE7FEE776
:1001C000FEE7FEE7FEE7FEE7FEE7FEE7FEE7FEE707
:1001D00004480549054A064B70470000351B0008D6
:1001E000ED000008000100200007002000030020AF
:1001F00000030020704770477047754600F02CF8E8
:10020000AE4605006946534620F00700854618B003
:1002100020B5FFF7DDFFBDE820404FF000064FF0AE
:1002200000074FF000084FF0000BAC46ACE8C009E7
:10023000ACE8C009ACE8C009ACE8C00921F007018E
:100240008D46704710B50446AFF300802046BDE8E8
:100250001040FFF7A8BF00000048704710000020C2
:1002600001491820ABBEFEE72600020070470000DF
:10027000FEE7000070470000EFF3108072B600BF89
:10028000FEE70000B0B5044600F01EF9054640F256
:100290000000C2F200000078611C18BF044400BFD7
:1002A00000F012F9401BA042FAD3B0BD2DE9F04F87
:1002B00082B00E68002E00F0FD8041F20042C4F2D0
:1002C0000102042340F2004E904208BF03234FF680
:1002D000FF7CC4F2010E009300240123C1F2100C34
:1002E0004FF0000A4FF000094BE000BF41F200025E
:1002F000C4F20102009F904208BF022704F00C03E1
:100300000F229A402BEA020207FA03F34FEA9A05FA
:100310001A4346F825204E6840F20C45F202DEF8FA
:10032000082054BF22EA080242EA0802C4F201058A
:10033000CEF808202A68B30254BF22EA080242EA33
:1003400008022A60B303DEF8042054BF22EA080240
:1003500042EA0802F303CEF80420DEF800204FF052
:10036000010354BF22EA080242EA0802CEF8002044
:100370000E680AF1010A36FA0AF204F1040400F0E8
:10038000998003FA0AFB16EA0B08F1D04E6866451D
:1003900012DC122E56D8DFE806F0350B4D495555C4
:1003A000555555555555555555555545510000BF51
:1003B000D1F80C9046E000BF4FF6FF72C1F2210267
:1003C00096420FDC0022C1F2110296421AD000229E
:1003D000C1F21202964215D00022C1F221029642C9
:1003E00010D02FE00022C1F2220296420AD0002251
:1003F000C1F23102964205D00022C1F23202964289
:1004000020D100BF8A684AB1012A14BFC0F814B0D5
:10041000C0F810B04FF0080914E000BF4FF0040915
:1004200010E000BFCA6802F104090BE04FF00009B8
:1004300008E000BFCA6802F1080903E0CA6802F1D7
:100440000C0900BF02462646B8F5807F24BF04325F
:10045000203E17680F25B54027EA050509FA06F67C
:1004600035431560CA79D2067FF582AF41F2180391
:10047000C4F202031A68AEF57E7642F001021A60F9
:100480001A6802F001020192019A2AF0030256F85A
:1004900002B040F60002C4F20102904208D040F6D9
:1004A0000042C4F2010290427FF420AF012725E709
:1004B000002723E702B0BDE8F08F0000002A08BF44
:1004C000090401617047000040F2F800C2F2000028
:1004D0000068704740F2000040F2F801C2F20000EC
:1004E000C2F2000100780A681044086070470000FA
:1004F00080B542F20000C4F20200016841F0100130
:100500000160032000F07AF80F2000F005F800F0F9
:1005100027F8002080BD000070B540F20006C2F24E
:10052000000640F208013278C2F200014FF47A73FB
:100530000968B3FBF2F20446B1FBF2F1084600F0A1
:100540004BFF0F2C4FF0010508D838B94FF0FF30A2
:1005500021460022002500F025F87460284670BD71
:1005600082B041F21800C4F202000168022241F098
:1005700001010160016801F00101019101994168E7
:1005800041F080514160406800F080500090009838
:100590000420C4F20100016862F31A61016002B034
:1005A0007047000010B54EF60C5CCEF2000CDCF883
:1005B0000030C3F3022E8EF00704042C28BF04245D
:1005C000BEF103034FF0FF3E0EFA04F438BF0023E0
:1005D000A14399400EFA03F39A43114300F00F022E
:1005E00000F160430901043A03F5644362440028C2
:1005F00048BF02F10C03197010BD00004EF60C51FB
:10060000CEF200010A684FF6FF031A4060F30A2297
:1006100042F0806040F0FD7008607047002804BF21
:10062000012070472DE9F04381B042F20008C4F286
:1006300002080446D8F800000D4600F00700884282
:100640000CD2D8F8000020F007002843C8F80000BA
:10065000D8F8000000F00700A8426CD1206841F2F1
:1006600004098107C4F2020917D5410705D5D9F855
:10067000001041F4E061C9F80010010705D5D9F870
:10068000001041F46051C9F80010D9F80010A268B8
:1006900021F0F0011143C9F80010C00742D1D8F889
:1006A000000000F00700A8420CD9D8F8000020F0A4
:1006B00007002843C8F80000D8F8000000F0070041
:1006C000A84238D12068410707D5D9F80010E26860
:1006D00021F4E0611143C9F80010000708D5D9F8EA
:1006E0000000216920F4605040EAC100C9F8000010
:1006F000D9F8002002F00C00082841F20020C0F2D6
:100700007A004DD142F27A03C2F38341C0F600036E
:10071000595CD20338D440F60010C0F23D00484383
:100720003EE000BF606859F8041C022808D0012888
:1007300026D1890306D4012001B0BDE8F08300BFB3
:100740008901F8D5D9F8001021F003010843C9F850
:100750000000FFF7B9FE064641F28837D9F80000DD
:10076000616800F00C00B0EB810F98D0FFF7ACFE91
:10077000801BB842F2D9032001B0BDE8F08300BF6E
:100780008907D8D5DEE700BFD9F8002042F2780308
:10079000C2F34042C0F600039A5C4843B0FBF2F05B
:1007A000D9F8001042F26802C1F30311C0F600024A
:1007B000515C40F2080220FA01F140F20400C2F25A
:1007C00000000068C2F200021160FFF7A5FE0020E1
:1007D00001B0BDE8F0830000002804BF012070478D
:1007E0002DE9F04182B00446007841F20006C007CE
:1007F000C4F202060CD0706800F00C00042840F02F
:1008000081803068800303D56068002800F046814D
:10081000207880071BD5706810F00C0F09D0706825
:1008200000F00C00082840F087807068C00300F1D9
:1008300083803068800703D52069012840F02E812D
:100840003068616920F0F80040EAC100306020782B
:10085000000713D4207840072CD4E569002D00F060
:100860001881706800F00C00082840F0A780012D66
:1008700040F00481012002B0BDE8F081A0690028A9
:1008800000F084800020C4F242200121C0F88014CE
:10089000FFF71AFE054600BF706A800700F1B280BC
:1008A000FFF712FE401B0228F6D9032002B0BDE874
:1008B000F08100BFF0695FEAC00808D4F06940F039
:1008C0008050F061F06900F080500090009847F28D
:1008D0000007C4F200073868C00549D4386840F4FE
:1008E00080703860FFF7F0FD054600BF3868C0052E
:1008F0003ED4FFF7E9FD401B6428F7D9032002B07E
:10090000BDE8F081706800F00C00082803D1706821
:10091000C0033FF576AF61683068002900F00C81B4
:10092000B1F5A02F00F00081B1F5803F40F01A81B1
:1009300040F480301CE100BF2069002840F2000034
:10094000C4F2422000F0888001210160FFF7BCFD65
:10095000054600BF306880073FF572AFFFF7B4FD72
:10096000401B0228F6D9032002B0BDE8F08100BF89
:10097000E168306A002900F09D80052900F092802E
:10098000012940F0AF8040F00100B1E00020C4F246
:1009900042200021C0F88014FFF796FD054600BFF5
:1009A000706A80077FF556AFFFF78EFD401B022867
:1009B000F6D9032002B0BDE8F08100BF0027C4F2E1
:1009C000422700203866FFF77FFD022D05460DD136
:1009D0003068800140F1DE80FFF776FD401B022881
:1009E0004FF00300F4D902B0BDE8F0813068800117
:1009F0004FD5FFF769FD401B02284FF00300F5D9E2
:100A0000F1E700BF40F20800C2F20000006844F6BF
:100A1000D351C1F26201A0FB0101480A019000BF5D
:100A200000BF0198411E002801913FF413AF00BFA1
:100A30000198411E002801913FF40CAF00BF0198BE
:100A4000411E002801913FF405AF00BF0198411EEF
:100A500000280191E4D1FDE600210160FFF734FD9B
:100A6000054600BF306880077FF5F1AEFFF72CFD2B
:100A7000401B02284FF00300F4D9B4E77068216AE4
:100A800000F480328A4209D1616A00F47010884211
:100A900004D1002002B0BDE8F08100BF012002B007
:100AA000BDE8F08140F004003062306A40F001009F
:100AB0001EE000BF20F001003062306A20F0040028
:100AC0003062FFF701FD054641F28837306A800742
:100AD00020D5FFF7F9FC401BB8424FF00300F5D9D1
:100AE00081E700BF20F001003062306A20F004008E
:100AF0003062FFF7E9FC054641F28837306A80072B
:100B000008D4FFF7E1FC401BB842F7D9032002B03C
:100B1000BDE8F081B8F1000F3FF59FAEF06920F01D
:100B20008050F06199E600BF40F48020306030686A
:100B300040F480301CE000BF20F48030306030682A
:100B400020F480203060FFF7BFFC0546306880034A
:100B50007FF55EAEFFF7B8FC401B64284FF0030042
:100B6000F4D940E720F480303060306820F48020F1
:100B70003060FFF7A9FC0546306880033FF548AEBA
:100B8000FFF7A2FC401B6428F6D9032002B0BDE8A1
:100B9000F08100BF206AB0F5803F05D17168A2687E
:100BA00021F40031114371607168626A21F474119B
:100BB00011430843706001203866FFF785FC044646
:100BC000306880013FF565AFFFF77EFC001B02280F
:100BD0004FF00300F4D906E790F851007047000089
:100BE00070B528B1416A29B100210161142106E0E4
:100BF000012070BD4168B1F5827F02D01C21002226
:100C000042500026866290F8511029B980F8506051
:100C1000054600F039F82846022180F8511090E886
:100C20002E0002F482720C6803F4044324F04004A2
:100C30000C601A4405F4006305691A4405F00203C8
:100C400045691A4405F001038569C4691A4405F42D
:100C500000731A4404F03803046A1A4404F0800351
:100C6000846A1A4304F400531A430A60042202EA15
:100C700015424A60CA6922F40062CA6101214665D0
:100C800080F85110304670BD70B586B040F6004413
:100C9000C4F201040068A4F5544100268842059678
:100CA000CDE90366029601D006B070BD41F218008E
:100CB000C4F20200416802AD41F4804141604168E4
:100CC00001F4804101910199016841F0080101603E
:100CD0000068294600F00800019001984FF4204078
:100CE000029002200390032005902046FFF7DEFAD1
:100CF0004FF48040CDE90206204629460496FFF7CE
:100D0000D5FA06B070BD00002DE9F04182B004466E
:100D100090F85100012819D160681D4617460E460B
:100D2000B0F5827F01D1A068A0B1FFF7CDFB80466E
:100D3000002E4FF0010018BF002F03D102B0BDE814
:100D4000F08100BF94F85000012811D1022002B0B8
:100D5000BDE8F081042084F8510020463146324637
:100D60003B46009500F0CEF902B0BDE8F08100BF2F
:100D7000012084F850000420002184F851006165AE
:100D8000A663A787E7872163A186E186A26820681A
:100D9000B2F5004F2164616438D00168490640D53E
:100DA000E168E08F002944D000287BD0681C0CD17A
:100DB0001BE000BFC068A16B21F8020BA163E08FAC
:100DC0000138E087E08F00286CD020688168C9076F
:100DD000F0D1FFF779FBA0EB0800A842F2D342E084
:100DE000FFF772FBE08F00285CD020688168C9079C
:100DF000F6D0C068A16B21F8020BA163E08F013827
:100E0000E087E08F0028F0D14CE000BF016821F0BE
:100E100040010160016821F48041016001684906D8
:100E2000BED4016841F040010160E168E08F002913
:100E3000BAD1B8B3681C0CD124E000BF007BA16B11
:100E40000870A06B0130A063E08F0138E087E08F6D
:100E500040B320688168C907F0D1FFF735FBA0EBEC
:100E60000800A842F3D3012084F85100002084F840
:100E70005000032002B0BDE8F08100BFFFF724FB63
:100E8000E08F78B120688168C907F7D0007BA16B3B
:100E90000870A06B0130A063E08F0138E087E08F1D
:100EA0000028EFD16068B0F5827F11D1A068B0F55D
:100EB000004F02D0B0F5806F0AD12168B0F5806F85
:100EC0000A6822F040020A6002D12046012101E0B6
:100ED0002046802100222B46CDF8008000F096FDB0
:100EE00028B1606D40F02000606520206065012021
:100EF00084F85100002084F85000606D002818BF6D
:100F0000012002B0BDE8F0812DE9F04182B01D461C
:100F100016460F460446FFF7D7FA94F851100129F8
:100F20000ED18046002F4FF0010018BF002E03D1D4
:100F300002B0BDE8F08100BF94F85000012803D151
:100F4000022002B0BDE8F081012084F850000320A7
:100F5000002184F8510061652763A686E686A163B7
:100F6000A187E187A0682164B0F5004F2068616423
:100F700007D1016821F040010160016841F480411E
:100F800001600168490603D4016841F04001016035
:100F90006168731EE268B1FA81F1B3FA83F349091B
:100FA0005B09B2F5006F41EA030139D131B137F87D
:100FB000021BC1602763E08E0138E086E08E0028C6
:100FC00070D0681C0BD11AE0216B31F8022BC26083
:100FD0002163E08E0138E086E08E002862D0206830
:100FE00081688907F0D4FFF76FFAA0EB0800A842E8
:100FF000F2D338E0FFF768FAE08E002852D020687C
:1010000081688907F6D5216B31F8022BC260216314
:10101000E08E0138E086E08E0028F0D142E000BF8B
:1010200039B139780173206B01302063E08E0138CB
:10103000E086E08EB0B3681C0BD123E0216B097809
:101040000173206B01302063E08E0138E086E08E72
:1010500040B3206881688907F0D4FFF735FAA0EB28
:101060000800A842F3D3012084F85100002084F83E
:101070005000032002B0BDE8F08100BFFFF724FA62
:10108000E08E78B1206881688907F7D5216B0978EF
:101090000173206B01302063E08E0138E086E08E22
:1010A0000028EFD12046022101222B46CDF80080F6
:1010B00000F0ACFC40B92046802100222B46CDF840
:1010C000008000F0A3FC28B1606D40F02000606556
:1010D00020206065A06838B9002001902068C168B0
:1010E0000191806801900198012084F8510000204E
:1010F00084F85000606D002818BF012002B0BDE8E0
:10110000F08100002DE9F04383B01E4615460F46DE
:101110000446FFF7D9F994F851108146012909D105
:10112000002F4FF0010018BF002D0FD103B0BDE814
:10113000F08300BF6068B0F5827F0DD104294FF0C5
:101140000200F3D1A1680029EAD0EFE7002EEDD02C
:1011500094F85000012803D1022003B0BDE8F083C9
:10116000012084F8500094F85100002104281CBF8D
:10117000052084F851006165A563E687A68727638B
:10118000E6862068A686216461640168490603D466
:10119000016841F0400101606168731EE268B1FAC4
:1011A00081F1B3FA83F3DDF8288049095B09B2F5D0
:1011B000006F41EA030165D131B137F8021BC1600C
:1011C0002763E08E0138E086012518F1010032D155
:1011D00002E000BFFFF778F9E08E18B9E08F002831
:1011E00000F0B8802068816889070CD5E18E51B184
:1011F000012D08D1216B002531F8022BC26021633B
:10120000E18E0139E1868168C907E3D0E18F0029C9
:10121000E0D0C068A16B012521F8020BA163E08F2B
:101220000138E087D6E700BFFFF74EF9A0EB0900D1
:10123000404580F0AF80E08E18B9E08F002800F0C4
:1012400089802068816889070CD5E18E51B1012D14
:1012500008D1216B002531F8022BC2602163E18E99
:101260000139E1868168C907DED0E18F0029DBD032
:10127000C068A16B012521F8020BA163E08F013842
:10128000E087D1E739B139780173206B01302063F1
:10129000E08E0138E086012518F1010032D101E02D
:1012A000FFF712F9E08E10B9E08F002852D02068C5
:1012B000816889070ED5E18E61B1012D0AD1216BBC
:1012C000002509780173216B206801312163E18ECB
:1012D0000139E1868168C907E2D0E18F0029DFD0BA
:1012E000C068A16B01250870A06B0130A063E08F7E
:1012F0000138E087D4E700BFFFF7E6F8A0EB09006C
:10130000404547D2E08E08B9E08F18B32068816865
:1013100089070ED5E18E61B1012D0AD1216B00251F
:1013200009780173216B206801312163E18E013955
:10133000E1868168C907DFD0E18F0029DCD0C06871
:10134000A16B01250870A06B0130A063E08F01380C
:10135000E087D1E72046022101224346CDF80090E4
:1013600000F054FB40B92046802100224346CDF8CE
:10137000009000F04BFBB8B1606D40F0200060655C
:1013800020206065002084F85000012003B0BDE8F3
:10139000F08300BF012084F85100002084F8500041
:1013A000032003B0BDE8F083A06838B900200290A4
:1013B0002068C1680291806802900298012084F838
:1013C0005100002084F85000606D002818BF0120F3
:1013D00003B0BDE8F0830000411E0020B0EB116FA8
:1013E0001CBF012070474EF21002CEF20002516085
:1013F0004EF62351CEF20001F0230B7007219060CE
:1014000011607047FEE700002DE9F04182B0012530
:101410000DF106010DF10703012204468DF8065077
:10142000009500F0B7F99DF80700002700F0F800DC
:101430004FF081088DF807000DF106010DF107034B
:1014400020460122E7618DF80680009500F03CFA05
:101450000A20FEF717FF0DF106010DF107032046E4
:1014600001228DF80650009500F094F99DF8076070
:101470000A20FEF707FF46F080008DF807000DF107
:1014800006010DF10703204601228DF80680009524
:1014900000F01AFA6420FEF7F5FE266A8621B008ED
:1014A0008DF806108DF807000DF106010DF1070308
:1014B00020460122009500F007FA0520FEF7E2FE23
:1014C000B00187218DF806108DF807000DF1060197
:1014D0000DF1070320460122009500F0F5F90520E3
:1014E000FEF7D0FE88208DF806000DF106010DF103
:1014F0000703204601228DF80770009500F0E4F9FB
:101500000520FEF7BFFE94F82A0089218DF8061009
:101510008DF807000DF106010DF1070320460122A9
:10152000009500F0D1F90A20FEF7ACFE94F82B00EC
:10153000CD2301462D2898BF2D21F02928BFF02169
:10154000A1F12D02D2B25A431E3141F69A135943EA
:10155000090C792838BF910A01F120008B218DF800
:1015600006108DF807000DF106010DF10703204666
:101570000122009500F0A8F90A20FEF783FE8C20D6
:101580008DF8060023208DF807000DF106010DF1FE
:10159000070320460122009500F096F91E208DF8E1
:1015A00006000DF106010DF107032046012200950A
:1015B00000F0F0F89DF807009E2140F007008DF83C
:1015C00006108DF807000DF106010DF10703204606
:1015D0000122009500F078F90A20FEF753FE94F8F6
:1015E0002410204600F002F99F208DF80600FF200D
:1015F0008DF807000DF106010DF1070320460122C9
:10160000009500F061F994F8260094F82510400048
:1016100000EB01109D218DF806108DF807000DF1EB
:1016200006010DF1070320460122009500F04CF958
:1016300094F8240094F8256005FA00F000F081FC8D
:1016400042F21802C0F6000202EBC60352F836203E
:101650005B6800F0EBFA00F045FC10284FF0260024
:10166000C8BF01278DF806000DF106010DF1070333
:1016700020460122009500F08DF89DF80700A62174
:1016800000F0F70040EAC7008DF806108DF807005B
:101690000DF106010DF1070320460122009500F02F
:1016A00013F90A20FEF7EEFD94F82900A0218DF829
:1016B00006108DF807000DF106010DF10703204615
:1016C0000122009500F000F994F82800A1218DF87E
:1016D00006108DF807000DF106010DF107032046F5
:1016E0000122009500F0F0F840208DF806000DF181
:1016F00006010DF1070320460122009500F04AF88B
:101700009DF80700C02140F03F008DF806108DF8CD
:1017100007000DF106010DF1070320460122009597
:1017200000F0D2F80DF106010DF107032046012269
:101730008DF80650009500F02DF89DF807000DF18A
:10174000060100F0F80001308DF807000DF10703E5
:1017500020460122E5618DF80680009500F0B4F87E
:101760000A20E561FEF78EFD42208DF806000DF19E
:1017700006010DF1070320460122009500F00AF84A
:101780009DF807104FF4CA70122908BFC82002B094
:10179000BDE8F0812DE9F04104461746A2880068B3
:1017A000069E0D46114600229846FEF787FEA06968
:1017B00029463A464FF4FA63FFF7A6FBA069FFF704
:1017C0000BFA0128FAD1A069414632464FF4FA6378
:1017D000FFF79AFAA069FFF7FFF90128FAD120680C
:1017E000A1880122BDE8F041FEF768BEF0B583B0E4
:1017F0000D4604460C29A8BF0C251E20072DD8BF76
:1018000007258DF80400012601A90DF105032046E6
:1018100001220096FFF7BEFF9DF805700A20FEF733
:1018200031FD07F00F0040EA05109E218DF80610EB
:101830008DF807000DF106010DF107032046012286
:10184000009600F041F80A20FEF71CFD94F82400F1
:1018500094F8255006FA00F000F073FB42F21802EB
:10186000C0F6000202EBC50352F835205B6800F0B9
:10187000DDF900F037FB002510284FF02600C8BF27
:1018800001258DF8080002A90DF109032046012267
:101890000096FFF77FFF9DF80900A62100F0F700F2
:1018A00040EAC5008DF80A108DF80B000DF10A0111
:1018B0000DF10B0320460122009600F005F80A20E6
:1018C000FEF7E0FC03B0F0BD2DE9F04104461746F9
:1018D000A2880068069E0D46114600229846FEF733
:1018E000EDFDA06929463A464FF4FA63FFF70CFB79
:1018F000A069FFF771F90128FAD1A0694146324683
:101900004FF4FA63FFF700FBA069FFF765F90128C0
:10191000FAD12068A1880122BDE8F041FEF7CEBDD2
:10192000F0B585B0002641F21800CDE90366CDE997
:101930000166C4F20200016840F6004441F0200153
:1019400001600168C4F2010401F0200100910099D6
:101950000168012241F008010160016841F20105BE
:1019600001F00801009100990168012741F004018C
:101970000160006841F2010100F00400009000984D
:101980002046FEF79BFDCDE9015701AD0227204619
:10199000294603960497FEF789FC0020C1F2110046
:1019A000CDE90206204629460197FEF77FFC05B0E7
:1019B000F0BD000080B540F2A00043F60001C2F285
:1019C0000000C4F200014FF48272002380E80E0090
:1019D00000F114014FF4007C4FF0100E81E8085024
:1019E0000A21C0E90333C0E90833C0E90A31FFF72F
:1019F000F7F8002808BF80BDBDE88040FEF73CBC7A
:101A0000FEE70000FEE70000704700002DE9F0430C
:101A100081B0089C984615460E468146FEF754FD57
:101A2000201A00EB0804FEF74FFD40F20801C2F255
:101A300000010968C1F3CB3161430091D9F800106E
:101A40008A683240921BB2FA82F25209AA423DD011
:101A5000074618F1010031D0FEF736FDC01BA04249
:101A600038D2009800990028A1F101010091D9F81D
:101A70000010896808BF044601EA0600801BB0FA1E
:101A800080F04009A842E7D120E000BF88683040DC
:101A9000801BB0FA80F04009A84217D08868304017
:101AA000801BB0FA80F04009A8420FD0886830400F
:101AB000801BB0FA80F04009A84207D08868304007
:101AC000801BB0FA80F04009A842DFD1002001B0AD
:101AD000BDE8F083D9E900014268B1F5827F22F0C8
:101AE000E00242600BD1D9F80810B1F5004F02D0E6
:101AF000B1F5806F03D1016821F040010160D9F890
:101B00002810B1F5005F07D1016821F40051016090
:101B1000016841F400510160012089F85100002062
:101B200089F85000032001B0BDE8F0837047000041
:101B3000FEF7D0BC70470000FEE7000090B0FEF753
:101B4000D7FC00240120CDE90544CDE903440090F1
:101B500004904FF4E0104FF480310225099068465C
:101B6000CDE90114CDE90751FEF736FE20B1EFF3C0
:101B7000108072B6FEE700BF0F20CDE90B054FF4D1
:101B80008060CDE90E040BA802210D94FEF746FDFE
:101B900020B1EFF3108072B6FEE700BFFFF7C0FE82
:101BA000FFF708FF684600F033F840F27008C2F211
:101BB00000089DE80250404604AF08ADDDF80C90E7
:101BC00040F8041FD2CF2CCDC0E90391026240F649
:101BD000004200F11401C4F20102D0C14FF480515F
:101BE0004362856280E8045081800221818240F254
:101BF000A0010125C2F2000182608581026181613C
:101C0000FFF702FCC82808BF88F80050FEE7000074
:101C100040F2B111016240F207718184012180F824
:101C200026100821C6F2FF41816270472DE9C041AC
:101C300030B4DFF8A8C23CEA111418BF3CEA131410
:101C400000F0F0801CEA111481EA030544EAD5741F
:101C500018BF1CEA131500F0CB80A4EB050404F1B7
:101C60007F7404F500344FF0004545EAC12145EA90
:101C7000C32341EA505143EA52534FEAC0204FEA8E
:101C8000C222994208BF904200F0A0804FEA13653B
:101C90000FF24816765D4FEA134506FB05F7C7F1CC
:101CA000807706FB07F74FEAD737A7FB0368764232
:101CB000A7FB06CEC8F5803838BFA8F1010807FB9E
:101CC00008E6A6FB028C4FF0000EE6FB03CED8F12F
:101CD00000086FEA0C0C5CF1000C6FEA0E0E4EF17E
:101CE000004EA6FB0C584FF00007E6FB0E87A1FB49
:101CF00008C6A0FB07CE16EB0E064FF0000545F117
:101D00000005E1FB076515F1E04E7EBFA4F58034C8
:101D10005FEA46066D4116F1800745F100054FEA7E
:101D2000172747EA05674FEA15254FEA0666A6F129
:101D3000DE46B6F1805F20D9384605EBC47124F049
:101D4000010C01EB0C11BCF1FE6F02D8F0BCBDE838
:101D5000008124425CBF01F5801E9EEAC47F02D44C
:101D6000F0BCBDE80081244200F13980A1F1C041FE
:101D7000F0BCBDE8004100F049B94FEAD02040EA8C
:101D800041504FEAD1214FEAD22242EA43524FEA70
:101D9000D323A7FB028607FB036605FB02661EEA48
:101DA0000E0F58BFA6EB0056B6EB00564FEA520E88
:101DB0004EEAC37E18EB0E0E56EB530EBCD518EB55
:101DC00002085E417F1C55F10005B5E74FF4801510
:101DD0004FF000074FF000064FF00008ACE701F1AC
:101DE000C04101F000414FF00000F0BCBDE80081AF
:101DF0000CEA131511EA0C1F00D00CE013EA0C1FBB
:101E000000F025804FF0000081EA030101F000415D
:101E1000F0BCBDE80081F0BCBDE8004181EA0301EF
:101E200000F0F4B8F0BCBDE8004170B500F0A0F8D7
:101E3000097EFC3E00F007B84FF0000081EA030184
:101E400001F00041704781EA030100F0DFB8F0BC07
:101E5000BDE8004122494FF000007047FFFDFBF94B
:101E6000F7F5F4F2F0EEEDEBE9E8E6E4E3E1E0DECD
:101E7000DDDBDAD8D7D5D4D3D1D0CFCDCCCBCAC83F
:101E8000C7C6C5C4C2C1C0BFBEBDBCBBBAB9B8B766
:101E9000B6B5B4B3B2B1B0AFAEADACABAAA9A8A859
:101EA000A7A6A5A4A3A3A2A1A09F9F9E9D9C9C9B27
:101EB0009A999998979796959594939392919190D2
:101EC0008F8F8E8E8D8C8C8B8B8A89898888878763
:101ED0008685858484838382828181800000FF07D8
:101EE0000000F87F4FEA41034FEA5353A3F58063A4
:101EF000D3F11E03C8BFD3F1210C0CDD4FF000421B
:101F000042EAC12242EA505232FA03FC8CEAE17CF6
:101F1000ACEBE1707047102BC4BF0020704703F595
:101F2000787CBCF1FF3F04D06FF0004282EA2100D0
:101F3000704770B500F01CF849922480002070476B
:101F4000F2E710F0004248BF4042B0FA80F310FAC6
:101F500003F10AD0C3F11D0303F5806302EB0352C2
:101F60004FEA415002EBD12170474FF0000070471B
:101F70000EF1020E2EF0030E5EF8046B364205D40D
:101F8000012A43EB030515F5001F12D8012841EB88
:101F9000010C1CF5001F0CD80ED14FEAD17C0CEBC4
:101FA0004C0C0CF1020C15F5001F08BF4CEBD37C58
:101FB00004E04FF0080C01E04FEAD37C0CEB4C0539
:101FC00026FA05F606F00706B6F1040C06D20EEB6B
:101FD000860CBDE870404CF0010C6047DFE80CF067
:101FE000090B02024FF00041A1F500214FF0000063
:101FF00070BD19461046012851EB010418BFD4F5F5
:10200000001484BF002001F0004170BD0808A0F555
:1020100000114FEA310170473333333333331F40FC
:10202000CDCCCCCCCCCC24403333333333332F40E2
:10203000CDCCCCCCCCCC34400000000000403F40A4
:102040009A99999999D944400000000000404F4066
:102050000000000000405F400000000000406F40B2
:102060000000000000407F40000000000000000071
:10207000010203040607080901020203040506071A
:1020800008090A0B0C0D0E0F10100000B0200008FC
:10209000000000201000000050010008C0200008CF
:1020A00010000020F0060000700100080000000091
:1020B000010000001000000000127A000000000083
:04000005080000ED02
:00000001FF
