:020000040800F2
:10000000000005203D1900081917000821170008F5
:1000100029170008311700083917000800000000F0
:100020000000000000000000000000004117000870
:100030004F170008000000005D1700086B1700084C
:100040008D1900088D1900088D1900088D190008F8
:100050008D1900088D1900088D1900088D190008E8
:100060008D1900088D1900088D19000879170008EE
:100070008D1900088D1900088D1900088D190008C8
:100080008D1900088D1900088D1900088D190008B8
:100090008D1900088D1900088D1900088D190008A8
:1000A0008D1900088D1900088D1900088D19000898
:1000B0008D1900088D1900088D1900088D19000888
:1000C0008D1900088D1900088D1900088D19000878
:1000D0008D1900088D1900088D1900088D19000868
:1000E0008D1900088D1900088D1900088D19000858
:1000F0008D1900088D1900088D1900088D19000848
:100100008D1900088D1900088D1900088D19000837
:100110008D1900088D1900088D1900088D19000827
:100120008D1900088D1900088D1900088D19000817
:100130008D1900088D1900088D1900088D19000807
:100140008D1900088D1900088D1900088D190008F7
:100150008D1900088D1900088D1900088D190008E7
:100160008D1900088D1900088D1900088D190008D7
:100170008D1900088D1900088D1900080000000075
:100180008D1900088D1900088D1900088D190008B7
:100190008D1900088D1900088D1900088D190008A7
:1001A0008D1900088D1900088D1900088D19000897
:1001B0008D1900088D1900088D1900088D19000887
:0801C0008D1900088D190008DB
:1001D00010B5054C237833B9044B13B10448AFF381
:1001E00000800123237010BDD80100200000000012
:1001F000048E000808B5034B1BB103490348AFF355
:10020000008008BD00000000DC010020048E000812
:1002100001F0FF01102A2BDB10F0070F08D010F8B7
:10022000013B013A8B422DD010F0070F42B3F6D1BB
:10023000F0B441EA012141EA014122F007047FF0D4
:1002400000070023F0E80256083C85EA010586EA2B
:10025000010685FA47F5A3FA87F586FA47F6A5FA67
:1002600087F68EB9EED1F0BC01F0FF0102F0070273
:1002700032B110F8013B013A83EA010313B1F8D11E
:100280000020704701387047002D06BF35460338FF
:10029000073815F0010F07D1013015F4807F02BF38
:1002A000013015F4C03F0130F0BC0138704700BF89
:1002B000034613F8012B002AFBD1181A01387047A6
:1002C00081F0004102E000BF83F0004330B54FEA07
:1002D00041044FEA430594EA050F08BF90EA020F74
:1002E0001FBF54EA000C55EA020C7FEA645C7FEA07
:1002F000655C00F0E2804FEA5454D4EB5555B8BF2A
:100300006D420CDD2C4480EA020281EA030382EA9A
:10031000000083EA010180EA020281EA0303362D2C
:1003200088BF30BD11F0004F4FEA01314FF4801CFF
:100330004CEA113102D0404261EB410113F0004F11
:100340004FEA03334CEA133302D0524263EB4303C8
:1003500094EA050F00F0A780A4F10104D5F1200E66
:100360000DDB02FA0EFC22FA05F2801841F10001C1
:1003700003FA0EF2801843FA05F359410EE0A5F195
:1003800020050EF1200E012A03FA0EFC28BF4CF0C6
:10039000020C43FA05F3C01851EBE37101F000457C
:1003A00007D54FF0000EDCF1000C7EEB00006EEB89
:1003B0000101B1F5801F1BD3B1F5001F0CD3490813
:1003C0005FEA30004FEA3C0C04F101044FEA44526A
:1003D00012F5800F80F09A80BCF1004F08BF5FEAF1
:1003E000500C50F1000041EB045141EA050130BDD1
:1003F0005FEA4C0C404141EB0101013C28BFB1F5E3
:10040000801FE9D291F0000F04BF01460020B1FA2D
:1004100081F308BF2033A3F10B03B3F120020CDA00
:100420000C3208DD02F1140CC2F10C0201FA0CF0DE
:1004300021FA02F10CE002F11402D8BFC2F1200C43
:1004400001FA02F120FA0CFCDCBF41EA0C019040F9
:10045000E41AA2BF01EB0451294330BD6FEA040442
:100460001F3C1CDA0C340EDC04F11404C4F120022D
:1004700020FA04F001FA02F340EA030021FA04F33F
:1004800045EA030130BDC4F10C04C4F1200220FA96
:1004900002F001FA04F340EA0300294630BD21FAD4
:1004A00004F0294630BD94F0000F83F4801306BF9A
:1004B00081F480110134013D4EE77FEA645C18BF8E
:1004C0007FEA655C29D094EA050F08BF90EA020F25
:1004D00005D054EA000C04BF1946104630BD91EA1D
:1004E000030F1EBF0021002030BD5FEA545C05D120
:1004F0004000494128BF41F0004130BD14F580045F
:100500003CBF01F5801130BD01F0004545F0FE41D2
:1005100041F470014FF0000030BD7FEA645C1ABF07
:10052000194610467FEA655C1CBF0B46024650EA3E
:10053000013406BF52EA033591EA030F41F400216A
:1005400030BD00BF90F0000F04BF0021704730B5F0
:100550004FF4806404F132044FF000054FF00001C5
:1005600050E700BF90F0000F04BF0021704730B586
:100570004FF4806404F1320410F0004548BF40425B
:100580004FF000013EE700BF42004FEAE2014FEAB0
:1005900031014FEA02701FBF12F07F4393F07F4F8B
:1005A00081F06051704732F07F4208BF704793F08E
:1005B0007F4F04BF41F40021704730B54FF46074A1
:1005C00001F0004521F000411CE700BF50EA0102A4
:1005D00008BF704730B54FF000050AE050EA01024D
:1005E00008BF704730B511F0004502D5404261EBBD
:1005F00041014FF4806404F132045FEA915C3FF4FE
:10060000D8AE4FF003025FEADC0C18BF03325FEA9A
:10061000DC0C18BF033202EBDC02C2F1200300FA4B
:1006200003FC20FA02F001FA03FE40EA0E0021FA70
:1006300002F11444BDE600BF70B54FF0FF0C4CF45E
:10064000E06C1CEA11541DBF1CEA135594EA0C0F10
:1006500095EA0C0F00F0DEF82C4481EA030621EA4B
:100660004C5123EA4C5350EA013518BF52EA033586
:1006700041F4801143F4801338D0A0FB02CE4FF038
:100680000005E1FB02E506F00042E0FB03E54FF068
:100690000006E1FB03569CF0000F18BF4EF0010E60
:1006A000A4F1FF04B6F5007F64F5407404D25FEA5C
:1006B0004E0E6D4146EB060642EAC62141EA55510F
:1006C0004FEAC52040EA5E504FEACE2EB4F1FD0C51
:1006D00088BFBCF5E06F1ED8BEF1004F08BF5FEACF
:1006E000500E50F1000041EB045170BD06F0004681
:1006F00046EA010140EA020081EA0301B4EB5C042E
:10070000C2BFD4EB0C0541EA045170BD41F4801125
:100710004FF0000E013C00F3AB8014F1360FDEBF4A
:10072000002001F0004170BDC4F10004203C35DA26
:100730000C341BDC04F11404C4F1200500FA05F3A9
:1007400020FA04F001FA05F240EA020001F000424A
:1007500021F0004110EBD37021FA04F642EB0601C0
:100760005EEA430E08BF20EAD37070BDC4F10C04EA
:10077000C4F1200500FA04F320FA05F001FA04F2AE
:1007800040EA020001F0004110EBD37041F100019A
:100790005EEA430E08BF20EAD37070BDC4F12005A5
:1007A00000FA05F24EEA020E20FA04F301FA05F20D
:1007B00043EA020321FA04F001F0004121FA04F2B5
:1007C00020EA020000EBD3705EEA430E08BF20EA85
:1007D000D37070BD94F0000F0FD101F000464000BF
:1007E00041EB010111F4801F08BF013CF7D041EA41
:1007F000060195F0000F18BF704703F00046520045
:1008000043EB030313F4801F08BF013DF7D043EA15
:100810000603704794EA0C0F0CEA135518BF95EACB
:100820000C0F0CD050EA410618BF52EA4306D1D152
:1008300081EA030101F000414FF0000070BD50EA71
:10084000410606BF1046194652EA430619D094EAFB
:100850000C0F02D150EA013613D195EA0C0F05D1E5
:1008600052EA03361CBF104619460AD181EA030139
:1008700001F0004141F0FE4141F470014FF00000F1
:1008800070BD41F0FE4141F4780170BD70B54FF08C
:10089000FF0C4CF4E06C1CEA11541DBF1CEA13550C
:1008A00094EA0C0F95EA0C0F00F0A7F8A4EB0504EE
:1008B00081EA030E52EA03354FEA013100F08880E5
:1008C0004FEA03334FF0805545EA131343EA1263AE
:1008D0004FEA022245EA111545EA10654FEA002663
:1008E0000EF000419D4208BF964244F1FD0404F51C
:1008F000407402D25B084FEA3202B61A65EB030578
:100900005B084FEA32024FF480104FF4002CB6EB34
:10091000020E75EB030E22BFB61A754640EA0C00B4
:100920005B084FEA3202B6EB020E75EB030E22BFF4
:10093000B61A754640EA5C005B084FEA3202B6EB35
:10094000020E75EB030E22BFB61A754640EA9C00F4
:100950005B084FEA3202B6EB020E75EB030E22BFC4
:10096000B61A754640EADC0055EA060E18D04FEA82
:10097000051545EA16754FEA06164FEAC30343EA22
:1009800052734FEAC2025FEA1C1CC0D111F4801FEF
:100990000BD141EA00014FF000004FF0004CB6E7E8
:1009A00011F4801F04BF01430020B4F1FD0C88BF87
:1009B000BCF5E06F3FF6AFAEB5EB030C04BFB6EB92
:1009C000020C5FEA500C50F1000041EB045170BD85
:1009D0000EF0004E4EEA113114EB5C04C2BFD4EBB2
:1009E0000C0541EA045170BD41F480114FF0000E36
:1009F000013C90E645EA060E8DE60CEA135594EAB2
:100A00000C0F08BF95EA0C0F3FF43BAF94EA0C0FB4
:100A10000AD150EA01347FF434AF95EA0C0F7FF429
:100A200025AF104619462CE795EA0C0F06D152EA7D
:100A300003353FF4FDAE1046194622E750EA410661
:100A400018BF52EA43067FF4C5AE50EA41047FF472
:100A50000DAF52EA43057FF4EBAE12E74FF0FF3CD7
:100A600006E000BF4FF0010C02E000BF4FF0010CA8
:100A70004DF804CD4FEA410C7FEA6C5C4FEA430C21
:100A800018BF7FEA6C5C1BD001B050EA410C0CBF70
:100A900052EA430C91EA030F02BF90EA020F0020D2
:100AA000704710F1000F91EA030F58BF994208BF39
:100AB00090422CBFD8176FEAE37040F001007047F6
:100AC0004FEA410C7FEA6C5C02D150EA013C07D14D
:100AD0004FEA430C7FEA6C5CD6D152EA033CD3D098
:100AE0005DF8040B704700BF8446104662468C4692
:100AF0001946634600E000BF01B5FFF7B7FF0028C5
:100B000048BF10F1000F01BD4DF808EDFFF7F4FFED
:100B10000CBF012000205DF808FB00BF4DF808ED78
:100B2000FFF7EAFF34BF012000205DF808FB00BF9B
:100B30004DF808EDFFF7E0FF94BF012000205DF8BD
:100B400008FB00BF4DF808EDFFF7CEFF94BF012072
:100B500000205DF808FB00BF4DF808EDFFF7C4FF6B
:100B600034BF012000205DF808FB00BF4FEA410CB4
:100B70007FEA6C5C02D150EA013C0AD14FEA430C97
:100B80007FEA6C5C02D152EA033C02D14FF00000D4
:100B900070474FF0010070474FEA410212F5001212
:100BA00015D211D56FF47873B3EB625212D94FEAB4
:100BB000C12343F0004343EA505311F0004F23FA9E
:100BC00002F018BF404270474FF00000704750EAF3
:100BD000013005D111F0004008BF6FF000407047B0
:100BE0004FF00000704700BF53B94AB9002908BF51
:100BF00000281CBF4FF0FF314FF0FF3000F088B9E4
:100C0000ADF1080C6DE904CE00F006F8DDF804E063
:100C1000DDE9022304B070472DE9F047089D8E46B8
:100C200004468846002B4AD18A42174662D9B2FA56
:100C300082F64EB1C6F1200301FA06F820FA03F35A
:100C4000B74043EA0808B4404FEA174E1FFA87FC42
:100C5000B8FBFEF1230C0EFB118843EA084301FBAD
:100C60000CF29A4209D9FB1801F1FF3080F0EA80BA
:100C70009A4240F2E78002393B449A1AA3B2B2FB8F
:100C8000FEF00EFB102243EA024300FB0CFC9C45E5
:100C900009D9FB1800F1FF3280F0D6809C4540F264
:100CA000D3803B44023840EA0140A3EB0C0300210F
:100CB0001DB1F3400022C5E90032BDE8F0878B4248
:100CC00005D90DB1C5E9000100210846F5E7B3FAE1
:100CD00083F1002946D1734502D3824200F2058197
:100CE000841A6EEB030201209046002DE5D0C5E981
:100CF0000048E2E7002A00F09080B2FA82F6002E67
:100D000040F0A4808A1A030C4FEA174E80B2BCB29E
:100D10000121B2FBFEFC0EFB1C2243EA024304FB52
:100D20000CF29A4207D9FB180CF1FF3802D29A4212
:100D300000F2E080C4469B1AB3FBFEF20EFB1233B6
:100D400040EA034302FB04F49C4207D9FB1802F17A
:100D5000FF3002D29C4200F2CA8002461B1B42EACC
:100D60000C40A5E7C1F120068B4022FA06F71F438D
:100D70000EFA01F420FA06F32EFA06FE4FEA17499E
:100D8000234300FA01F81FFA87FCBEFBF9F01C0CA4
:100D900009FB10EE44EA0E4400FB0CFEA64502FAE5
:100DA00001F209D93C1900F1FF3A80F09C80A64578
:100DB00040F2998002383C44A4EB0E041FFA83FEF3
:100DC000B4FBF9F309FB13444EEA044403FB0CFCA7
:100DD000A44508D93C1903F1FF3E80F08280A44568
:100DE0007FD9023B3C4443EA0040A4EB0C04A0FB47
:100DF00002EC64457346E14662D35FD05DB1B8EB67
:100E0000030264EB090404FA06F622FA01F31E4316
:100E1000CC40C5E9006400214FE7B1FBF2FC010CB6
:100E200041EA0E4180B240EA01423B4638463C4628
:100E3000B846BE462026B1FBF7F1A2EB080241EA14
:100E40000C4166E7014618E710462CE7C6F1200280
:100E50002EFA02F3B740B14020FA02F24FEA174EE1
:100E60000A43B3FBFEF8BCB20EFB1833110C41EA87
:100E7000034108FB04F9B04089454FEA104380B2B2
:100E80003ED9791808F1FF3C01D289451FD8A1EB62
:100E90000901B1FBFEF909FB04F80EFB191192B22E
:100EA00042EA0142424529D2BA1809F1FF31C4D2BF
:100EB0004245C2D2A9F102013A44BEE7F0459DD2B3
:100EC000BEEB02036CEB070C0138E14696E7A7EB9B
:100ED00009094944A8F1020CB1FBFEF909FB04F829
:100EE000DBE773467FE7504666E70846FDE63B448E
:100EF000023A33E7ACF1020C3B441CE749469CE75D
:100F0000A1EB0901C446B1FBFEF909FB04F8C4E7F3
:100F1000704700BF80B588B004AF03460A46FB7136
:100F20001346BB80BB881B0A9BB2DBB23B73BB88FA
:100F3000DBB27B730D4B18680D4B1B781946FB79A0
:100F40009AB2C82302930223019307F10C03009382
:100F5000012301F0ABFC0346002B02D04FF0FF331E
:100F600000E0002318461037BD4680BDF401002084
:100F7000F801002080B584B000AF786008461146C3
:100F80001A460346FB700B46BB7013467B70224A21
:100F90007B681360FB785B00DAB2204B1A70204A42
:100FA000BB7813701F4A7B7813700023FB81FB8989
:100FB00043F48043FB81BB781BB25B021BB203F49A
:100FC00060631AB2B7F90E3013431BB2FB817B7812
:100FD0001BB25B011BB2DBB21AB2B7F90E3013437E
:100FE0001BB2FB81FB8919460120FFF793FF47F6EF
:100FF000FF710320FFF78EFF4FF400410220FFF73F
:1010000089FF094B00221A70084B00221A7000BF9A
:101010001037BD4680BD00BFF4010020F80100205C
:101020000000002001000020F9010020FA0100204A
:1010300080B584B002AF7860104B1B68002B02D1E2
:101040004FF0FF3316E00E4B00221A700B4B18685E
:101050000C4B1B781946022301937B6800930123F4
:10106000002201F037FD0346002B02D04FF0FF3382
:1010700000E0002318460837BD4680BDF40100207B
:10108000F9010020F801002080B584B000AF78603D
:10109000396007F108031846FFF7CAFF0346002B23
:1010A00002D04FF0FF3324E000F0C2FCF8600AE009
:1010B00000F0BEFC0246FB68D31A3A689A4202D29C
:1010C0004FF0FF3315E00D4B1B78DBB2002BEFD058
:1010D0000A4B00221A703B7A1BB21B021AB27B7AAF
:1010E0001BB213431BB27B81B7F90A207B681A80BD
:1010F000002318461037BD4680BD00BFF90100200F
:1011000080B584B000AF78607B68DBB2FB7307F119
:101110000F014FF0FF330122034804F0C7FC7B6846
:1011200018461037BD4680BDB002002080B483B0A1
:1011300000AF78607B68064A934202D1054B0122DA
:101140001A7000BF0C37BD465DF8047B704700BFC6
:10115000FC010020F901002090B585B000AF00F03F
:1011600016FC00F05BF800F055F900F035F900F0DE
:10117000C3F800F001F9214805F0D0FE0523022252
:1011800048211F48FFF7F6FE1E4805F0C7FE1E4B1C
:101190001B78DBB2002B2CD01B4B00221A70BB1D1E
:1011A000C8211846FFF770FF0346002B1ED1174BCE
:1011B000FB60B7F9063007EE903AB8EEE77AD7ED64
:1011C000036A9FED136AC6EE867A67EE277AC7ED4B
:1011D000027AB7F906301C46B868FFF7D5F902461F
:1011E0000B4621460B4805F031FE02E00A4805F0A7
:1011F00095FE012000F028FCC9E700BF208E000802
:10120000FC010020548E0008380300206F120340B8
:10121000000000479C8E0008B48E000880B594B092
:1012200000AF07F1200330220021184605F056FFD9
:1012300007F10C0300221A605A609A60DA601A61A2
:101240002B4B1B6C2A4A43F080531364284B1B6CB6
:1012500003F08053BB60BB68264B1B68254A43F4F0
:1012600040431360234B1B6803F440437B607B685F
:1012700001233B624FF480337B620223BB634FF454
:101280008003FB6319233B644FF4D8737B64022310
:10129000BB640923FB6407F12003184603F03EFBFF
:1012A0000346002B01D000F0F9F803F0E7FA0346FB
:1012B000002B01D000F0F2F80F23FB6002233B610A
:1012C00000237B614FF4A053BB614FF48053FB615B
:1012D00007F10C030721184603F0C4FD0346002B59
:1012E00001D000F0DBF800BF5037BD4680BD00BF25
:1012F000003802400070004080B500AF1B4B1C4A14
:101300001A601A4B1B4A5A60184B00229A60174BFE
:101310000122DA60154B00221A61144B00225A6137
:10132000124B00229A61114B0022DA610F4B00220E
:101330001A620E4801F01EFA0346002B01D000F09D
:10134000ADF80021094803F001FA0346002B01D053
:1013500000F0A4F80021054803F043FA0346002BEF
:1013600001D000F09BF800BF80BD00BFFC01002051
:10137000005400400D03006080B500AF144B154AC7
:101380001A60134B4FF4E1325A60114B00229A60FD
:101390000F4B0022DA600E4B00221A610C4B0C221C
:1013A0005A610B4B00229A61094B0022DA61084B0B
:1013B00000221A62064B00225A62054804F028FBFC
:1013C0000346002B01D000F069F800BF80BD00BFCC
:1013D000B00200200010014080B582B000AF0C4B7D
:1013E0001B6B0B4A43F400131363094B1B6B03F491
:1013F00000137B607B68002200210B2000F023FC9F
:101400000B2000F03CFC00BF0837BD4680BD00BF8C
:101410000038024080B588B000AF07F10C0300220D
:101420001A605A609A60DA601A611A4B1B6B194A8B
:1014300043F002031363174B1B6B03F00203BB6003
:10144000BB68144B1B6B134A43F001031363114B2E
:101450001B6B03F001037B607B680E4B1B6B0D4A1B
:1014600043F0800313630B4B1B6B03F080033B6063
:101470003B680123FB604FF404133B6100237B6155
:1014800007F10C031946044800F0C8FF00BF2037DD
:10149000BD4680BD003802400000024080B400AF6D
:1014A00072B600BF00BFFDE780B483B000AF0F4B42
:1014B0001B6C0E4A43F0805313640C4B1B6C03F0FF
:1014C00080537B607B68094B5B6C084A43F4804324
:1014D0005364064B5B6C03F480433B603B6800BF86
:1014E0000C37BD465DF8047B704700BF00380240F2
:1014F00080B5AAB000AF786007F1940300221A60AB
:101500005A609A60DA601A6107F1100384220021A0
:10151000184605F0E3FD7B681B68394A93426AD19F
:101520004FF480433B6100237B6707F110031846AB
:1015300003F07EFE0346002B01D0FFF7AFFF314BD7
:101540001B6B304A43F0020313632E4B1B6B03F0FB
:101550000203FB60FB684FF44073C7F8943012231A
:10156000C7F898300023C7F89C300323C7F8A03091
:101570000423C7F8A43007F194031946224800F069
:101580004DFF204B1B6C1F4A43F4001313641D4B8B
:101590001B6C03F40013BB60BB681C4B1C4A1A6035
:1015A0001A4B4FF000725A60184B00229A60174B8A
:1015B0000022DA60154B4FF480621A61134B00224F
:1015C0005A61124B00229A61104B0022DA610F4BD4
:1015D00000221A620D4B00225A620C4800F06AFB8E
:1015E0000346002B01D0FFF759FF7B68074ADA63F7
:1015F000064A7B68936300BFA837BD4680BD00BF25
:101600000054004000380240000402405002002014
:101610001060024080B5ACB000AF786007F19C0369
:1016200000221A605A609A60DA601A6107F11803A2
:1016300084220021184605F051FD7B681B68324A60
:1016400093425CD14023BB610023FB6507F1180383
:10165000184603F0EDFD0346002B01D0FFF71EFFF7
:101660002A4B5B6C294A43F010035364274B5B6C95
:1016700003F010037B617B69244B1B6B234A43F00F
:1016800002031363214B1B6B03F002033B613B69B5
:101690001E4B1B6B1D4A43F0010313631B4B1B6B5B
:1016A00003F00103FB60FB688023C7F89C30022332
:1016B000C7F8A0300023C7F8A4300323C7F8A83028
:1016C0000723C7F8AC3007F19C031946104800F017
:1016D000A5FE4FF40073C7F89C300223C7F8A03072
:1016E0000023C7F8A4300323C7F8A8300723C7F89E
:1016F000AC3007F19C031946064800F08FFE00BF8E
:10170000B037BD4680BD00BF001001400038024028
:10171000000402400000024080B400AF00BFFDE7BB
:1017200080B400AF00BFFDE780B400AF00BFFDE7AD
:1017300080B400AF00BFFDE780B400AF00BFFDE79D
:1017400080B400AF00BFBD465DF8047B704780B435
:1017500000AF00BFBD465DF8047B704780B400AFAA
:1017600000BFBD465DF8047B704780B500AF00F058
:101770004BF900BF80BD000080B500AF024800F00B
:10178000C9FB00BF80BD00BF5002002080B400AF85
:1017900001231846BD465DF8047B704780B582B0D2
:1017A00000AF7860396005F0EBFC034616221A6042
:1017B0004FF0FF3318460837BD4680BD80B582B074
:1017C00000AF78604FF0FF317868FFF7E7FF00BFA8
:1017D000FDE780B586B000AFF860B9607A6000239D
:1017E0007B610AE0AFF300800146BB685A1CBA6017
:1017F000CAB21A707B6901337B617A697B689A424D
:10180000F0DB7B6818461837BD4680BD80B586B0D2
:1018100000AFF860B9607A6000237B6109E0BB68C3
:101820005A1CBA601B781846FFF76AFC7B690133C3
:101830007B617A697B689A42F1DB7B6818461837CE
:10184000BD4680BD80B483B000AF78604FF0FF33F9
:1018500018460C37BD465DF8047B704780B483B0F2
:1018600000AF786039603B684FF400525A60002343
:1018700018460C37BD465DF8047B704780B483B0D2
:1018800000AF7860012318460C37BD465DF8047B35
:10189000704780B485B000AFF860B9607A6000230B
:1018A00018461437BD465DF8047B704780B586B096
:1018B00000AF7860144A154BD31A7B617B693B619A
:1018C000134B1B68002B02D1114B124A1A60104BAC
:1018D0001A687B6813443A699A4207D205F050FCB3
:1018E00003460C221A604FF0FF3309E0084B1B68D7
:1018F000FB60074B1A687B681344054A1360FB685A
:1019000018461837BD4680BD0000052000040000C1
:101910003C0300209004002080B400AF064BD3F8B5
:101920008830054A43F47003C2F8883000BFBD46D2
:101930005DF8047B704700BF00ED00E0DFF834D0B5
:10194000FFF7EAFF0C480D490D4A002302E0D45886
:10195000C4500433C4188C42F9D30A4A0A4C0023F9
:1019600001E013600432A242FBD305F00FFCFFF745
:10197000F3FB70470000052000000020D801002084
:101980007C920008D801002090040020FEE780B57A
:1019900000AF032000F04CF90F2000F005F8FFF72E
:1019A00083FD0023184680BD80B582B000AF78600B
:1019B000124B1A68124B1B7819464FF47A73B3FB1B
:1019C000F1F3B2FBF3F3184600F067F90346002B7E
:1019D00001D001230EE07B680F2B0AD80022796822
:1019E0004FF0FF3000F02FF9064A7B6813600023A8
:1019F00000E0012318460837BD4680BD04000020E2
:101A00000C0000200800002080B400AF064B1B78BB
:101A10001A46064B1B681344044A136000BFBD46B8
:101A20005DF8047B704700BF0C00002040030020DD
:101A300080B400AF034B1B681846BD465DF8047BBD
:101A4000704700BF4003002080B584B000AF7860CD
:101A5000FFF7EEFFB8607B68FB60FB68B3F1FF3F08
:101A600005D00A4B1B781A46FB681344FB6000BF85
:101A7000FFF7DEFF0246BB68D31AFA689A42F7D82E
:101A800000BF00BF1037BD4680BD00BF0C00002066
:101A900080B485B000AF78607B6803F00703FB601B
:101AA0000B4BDB68BB60BA684FF6FF031340BB60AB
:101AB000FB681A02BB681A43064B1343BB60044A17
:101AC000BB68D36000BF1437BD465DF8047B704728
:101AD00000ED00E00000FA0580B400AF044BDB68C5
:101AE0001B0A03F007031846BD465DF8047B7047E8
:101AF00000ED00E080B483B000AF0346FB7197F9BE
:101B00000730002B0BDBFB7903F01F02074997F925
:101B100007305B09012000FA02F241F8232000BFE0
:101B20000C37BD465DF8047B704700BF00E100E064
:101B300080B483B000AF03463960FB7197F907307A
:101B4000002B0ADB3B68DAB20C4997F90730120127
:101B5000D2B20B4483F800230AE03B68DAB20849AA
:101B6000FB7903F00F03043B1201D2B20B441A7647
:101B700000BF0C37BD465DF8047B704700E100E014
:101B800000ED00E080B489B000AFF860B9607A6021
:101B9000FB6803F00703FB61FB69C3F10703042B38
:101BA00028BF0423BB61FB690433062B02D9FB6900
:101BB000033B00E000237B614FF0FF32BB6902FA78
:101BC00003F3DA43BB681A407B699A404FF0FF3158
:101BD0007B6901FA03F3D9437B680B401343184632
:101BE0002437BD465DF8047B7047000080B582B0A5
:101BF00000AF78607B68013BB3F1807F01D30123A4
:101C00000FE00A4A7B68013B53600F214FF0FF3021
:101C1000FFF78EFF054B00229A60044B07221A60E3
:101C2000002318460837BD4680BD00BF10E000E025
:101C300080B582B000AF78607868FFF729FF00BFF9
:101C40000837BD4680BD80B586B000AF0346B96099
:101C50007A60FB7300237B61FFF73EFF78617A684F
:101C6000B9687869FFF78EFF024697F90F30114681
:101C70001846FFF75DFF00BF1837BD4680BD80B531
:101C800082B000AF0346FB7197F907301846FFF7A3
:101C900031FF00BF0837BD4680BD80B582B000AFC0
:101CA00078607868FFF7A2FF034618460837BD46FC
:101CB00080BD000080B586B000AF786000237B61F6
:101CC000FFF7B6FE38617B68002B01D1012399E054
:101CD0007B68022283F835207B68002283F8342059
:101CE0007B681B681A687B681B6822F001021A6017
:101CF0000FE0FFF79DFE02463B69D31A052B08D97A
:101D00007B6820225A657B68032283F835200323F1
:101D100078E07B681B681B6803F00103002BE8D1A7
:101D20007B681B681B687B617A69384B13407B6159
:101D30007B685A687B689B681A437B68DB681A4338
:101D40007B681B691A437B685B691A437B689B69E4
:101D50001A437B68DB691A437B681B6A13437A6901
:101D600013437B617B685B6A042B07D17B68DA6A6B
:101D70007B681B6B13437A6913437B617B681B6829
:101D80007A691A607B681B685B697B617B6923F0F9
:101D900007037B617B685B6A7A6913437B617B68BD
:101DA0005B6A042B17D17B689B6A7A6913437B615A
:101DB0007B68DB6A002B0ED0786800F0B3FA03462C
:101DC000002B08D07B6840225A657B68002283F88C
:101DD0003520012316E07B681B687A695A617868B0
:101DE00000F06AFA0346FB607B68DB6D3F229A4095
:101DF000FB689A607B6800225A657B68012283F841
:101E00003520002318461837BD4680BD3F8010F0AE
:101E100080B586B000AFF860B9607A603B6000239F
:101E2000FB75FB689B6D3B61FB6893F83430012BBD
:101E300001D1022348E0FB68012283F83420FB68CB
:101E400093F83530DBB2012B37D1FB68022283F8DF
:101E50003520FB6800225A653B687A68B968F868E3
:101E600000F0FCF9FB68DB6D3F229A403B699A6009
:101E7000FB681B681A68FB681B6842F016021A6050
:101E8000FB681B685A69FB681B6842F080025A6154
:101E9000FB681B6C002B07D0FB681B681A68FB688B
:101EA0001B6842F008021A60FB681B681A68FB682E
:101EB0001B6842F001021A6005E0FB68002283F80B
:101EC00034200223FB75FB7D18461837BD4680BDC4
:101ED00080B483B000AF78607B6893F83530DBB2B4
:101EE000022B04D07B6880225A6501230CE07B68BA
:101EF000052283F835207B681B681A687B681B689D
:101F000022F001021A60002318460C37BD465DF826
:101F1000047B704780B586B000AF78600023BB605B
:101F20008E4B1B688E4AA2FB03239B0A7B617B6856
:101F30009B6D3B613B691B68FB607B68DB6D082226
:101F40009A40FB681340002B1AD07B681B681B6803
:101F500003F00403002B13D07B681B681A687B68AE
:101F60001B6822F004021A607B68DB6D08229A402D
:101F70003B699A607B685B6D43F001027B685A6540
:101F80007B68DB6D01229A40FB681340002B12D066
:101F90007B681B685B6903F08003002B0BD07B68B8
:101FA000DB6D01229A403B699A607B685B6D43F070
:101FB00002027B685A657B68DB6D04229A40FB68ED
:101FC0001340002B12D07B681B681B6803F00203D0
:101FD000002B0BD07B68DB6D04229A403B699A6032
:101FE0007B685B6D43F004027B685A657B68DB6D40
:101FF00010229A40FB681340002B43D07B681B687B
:102000001B6803F00803002B3CD07B68DB6D1022BB
:102010009A403B699A607B681B681B6803F48023C5
:10202000002B18D07B681B681B6803F40023002B6F
:1020300008D17B681B6C002B24D07B681B6C7868F4
:1020400098471FE07B689B6C002B1BD07B689B6CC8
:102050007868984716E07B681B681B6803F48073F8
:10206000002B07D17B681B681A687B681B6822F00D
:1020700008021A607B681B6C002B03D07B681B6C0A
:10208000786898477B68DB6D20229A40FB68134094
:10209000002B00F08F807B681B681B6803F0100327
:1020A000002B00F087807B68DB6D20229A403B6923
:1020B0009A607B6893F83530DBB2052B36D17B68AC
:1020C0001B681A687B681B6822F016021A607B681E
:1020D0001B685A697B681B6822F080025A617B6822
:1020E0001B6C002B03D17B689B6C002B07D07B689B
:1020F0001B681A687B681B6822F008021A607B68FC
:10210000DB6D3F229A403B699A607B68012283F82D
:1021100035207B68002283F834207B681B6D002B00
:102120007ED07B681B6D7868984779E07B681B6878
:102130001B6803F48023002B1DD07B681B681B6881
:1021400003F40023002B0DD17B685B6C002B31D096
:102150007B685B6C786898472CE000BF0400002027
:10216000B5814E1B7B68DB6B002B23D07B68DB6B60
:10217000786898471EE07B681B681B6803F48073CF
:10218000002B0FD17B681B681A687B681B6822F0E4
:1021900010021A607B68012283F835207B680022D8
:1021A00083F834207B68DB6B002B03D07B68DB6B10
:1021B000786898477B685B6D002B32D07B685B6DDD
:1021C00003F00103002B22D07B68052283F8352021
:1021D0007B681B681A687B681B6822F001021A6022
:1021E000BB680133BB607A699A4207D37B681B687E
:1021F0001B6803F00103002BF2D100E000BF7B68F5
:10220000012283F835207B68002283F834207B6824
:10221000DB6C002B05D07B68DB6C7868984700E0AE
:1022200000BF1837BD4680BD80B483B000AF786072
:102230007B6893F83530DBB218460C37BD465DF845
:10224000047B704780B483B000AF78607B685B6DBF
:1022500018460C37BD465DF8047B704780B485B0E6
:1022600000AFF860B9607A603B60FB681B681A6871
:10227000FB681B6822F480221A60FB681B683A68BE
:102280005A60FB689B68402B08D1FB681B687A6822
:102290009A60FB681B68BA68DA6007E0FB681B6835
:1022A000BA689A60FB681B687A68DA6000BF143706
:1022B000BD465DF8047B704780B485B000AF7860A0
:1022C0007B681B68DBB2103B134AA2FB03231B098C
:1022D000FB60124AFB6813441B781A467B68DA6578
:1022E000FB68032B08D97B681B681A460C4B13400C
:1022F0001A1D7B689A6506E07B681B681A46084BC6
:1023000013407A6893657B689B6D18461437BD4609
:102310005DF8047B704700BFABAAAAAAEC8E000848
:1023200000FCFFFF80B485B000AF78600023FB7332
:102330007B689B6ABB607B689B69002B1FD1BB6875
:10234000032B56D801A252F823F000BF5D230008EA
:102350006F2300085D230008F32300087B68DB6A15
:1023600003F08073002B46D00123FB7343E07B68AE
:10237000DB6AB3F1C07F40D10123FB733DE07B6892
:102380009B69B3F5005F21D1BB68032B37D801A24D
:1023900052F823F0A5230008AB230008A52300086A
:1023A000BD2300080123FB7330E07B68DB6A03F088
:1023B0008073002B25D00123FB7322E07B68DB6A4E
:1023C000B3F1C07F1FD10123FB731CE0BB68022B5C
:1023D00003D9BB68032B03D018E00123FB7315E07E
:1023E0007B68DB6A03F08073002B0ED00123FB7344
:1023F0000BE000BF0AE000BF08E000BF06E000BF3E
:1024000004E000BF02E000BF00E000BFFB7B184615
:102410001437BD465DF8047B704700BF80B489B0B7
:1024200000AF786039600023FB6100237B610023EB
:102430003B610023BB610023FB6175E10122FB6965
:1024400002FA03F37B613B681B687A6913403B61C6
:102450003A697B699A4240F064813B685B6803F0AB
:102460000303012B05D03B685B6803F00303022BD9
:1024700030D17B689B68BB61FB695B00032202FA79
:1024800003F3DB43BA691340BB613B68DA68FB695D
:102490005B0002FA03F3BA691343BB617B68BA6954
:1024A0009A607B685B68BB610122FB6902FA03F3F7
:1024B000DB43BA691340BB613B685B681B0903F0EF
:1024C0000102FB6902FA03F3BA691343BB617B683B
:1024D000BA695A603B685B6803F00303032B17D0AB
:1024E0007B68DB68BB61FB695B00032202FA03F3D4
:1024F000DB43BA691340BB613B689A68FB695B00C8
:1025000002FA03F3BA691343BB617B68BA69DA6004
:102510003B685B6803F00303022B23D1FB69DA08F5
:102520007B68083253F82230BB61FB6903F0070374
:102530009B000F2202FA03F3DB43BA691340BB612D
:102540003B681A69FB6903F007039B0002FA03F377
:10255000BA691343BB61FB69DA087B680832B96961
:1025600043F822107B681B68BB61FB695B00032298
:1025700002FA03F3DB43BA691340BB613B685B6853
:1025800003F00302FB695B0002FA03F3BA69134329
:10259000BB617B68BA691A603B685B6803F44033CF
:1025A000002B00F0BE80664B5B6C654A43F48043B1
:1025B0005364634B5B6C03F48043FB60FB68614ACC
:1025C000FB699B08023352F82330BB61FB6903F0BF
:1025D00003039B000F2202FA03F3DB43BA691340A3
:1025E000BB617B68584A934237D07B68574A934215
:1025F00031D07B68564A93422BD07B68554A934230
:1026000025D07B68544A93421FD07B68534A93423B
:1026100019D07B68524A934213D07B68514A934247
:102620000DD07B68504A934207D07B684F4A934253
:1026300001D1092312E00A2310E008230EE007234A
:102640000CE006230AE0052308E0042306E0032348
:1026500004E0022302E0012300E00023FA6902F013
:10266000030292009340BA691343BB613549FB6989
:102670009B080233BA6941F823203D4B9B68BB613C
:102680003B69DB43BA691340BB613B685B6803F499
:102690008013002B03D0BA693B691343BB61344AF2
:1026A000BB699360324BDB68BB613B69DB43BA6952
:1026B0001340BB613B685B6803F40013002B03D03D
:1026C000BA693B691343BB61294ABB69D360284B94
:1026D0005B68BB613B69DB43BA691340BB613B6824
:1026E0005B6803F40033002B03D0BA693B691343E2
:1026F000BB611F4ABB6953601D4B1B68BB613B69D3
:10270000DB43BA691340BB613B685B6803F4803309
:10271000002B03D0BA693B691343BB61144ABB6900
:102720001360FB690133FB61FB690F2B7FF686AEFB
:1027300000BF00BF2437BD465DF8047B704700BF73
:10274000003802400038014000000240000402400E
:1027500000080240000C0240001002400014024039
:1027600000180240001C02400020024000240240E9
:10277000003C014080B582B000AF78607B68002BE0
:1027800001D101238BE07B6893F84130DBB2002B51
:1027900006D17B68002283F840207868FEF7A8FE07
:1027A0007B68242283F841207B681B681A687B6859
:1027B0001B6822F001021A607B685A687B681B68FC
:1027C00022F070621A617B681B689A687B681B68DC
:1027D00022F400429A607B68DB68012B07D17B689A
:1027E0009A687B681B6842F400429A6006E07B6846
:1027F0009A687B681B6842F404429A607B68DB68D5
:10280000022B08D17B681B685A687B681B6842F4FE
:1028100000625A6007E07B681B685A687B681B6827
:1028200022F400625A607B681B6859687B681A68EA
:102830001D4B0B4353607B681B68DA687B681B6821
:1028400022F40042DA607B681A697B685B6942EABD
:1028500003017B689B691A027B681B680A43DA6084
:102860007B68D9697B681A6A7B681B680A431A60AF
:102870007B681B681A687B681B6842F001021A605B
:102880007B6800225A647B68202283F841207B68A1
:1028900000221A637B68002283F842200023184636
:1028A0000837BD4680BD00BF0080000280B588B0FB
:1028B00002AFF860084611461A4603467B810B4674
:1028C0003B811346FB80FB6893F84130DBB2202B41
:1028D00040F0F9803B6A002B02D0BB8C002B05D165
:1028E000FB684FF400725A640123EDE0FB6893F833
:1028F0004030012B01D10223E6E0FB68012283F87E
:102900004020FFF795F878617B6900931923012235
:102910004FF40041F86801F041FC0346002B01D060
:102920000123D1E0FB68212283F84120FB6840228B
:1029300083F84220FB6800225A64FB683A6A5A62B4
:10294000FB68BA8C5A85FB6800225A63F8883A897A
:1029500079897B690193BB6A00930346F86800F0AC
:1029600033FE0346002B05D0FB68002283F840208D
:102970000123A9E0FB685B8D9BB2FF2B0ED9FB689E
:10298000FF221A85FB681B8DDAB279890023009338
:102990004FF08073F86801F0C5FD0FE0FB685B8DB8
:1029A0009AB2FB681A85FB681B8DDAB2798900231D
:1029B00000934FF00073F86801F0B4FD7A69B96ACA
:1029C000F86801F044FC0346002B01D001237BE0B2
:1029D000FB685B6A1A78FB681B689A62FB685B6A33
:1029E0005A1CFB685A62FB685B8D9BB2013B9AB232
:1029F000FB685A85FB681B8D013B9AB2FB681A8500
:102A0000FB685B8D9BB2002B34D0FB681B8D002BC9
:102A100030D17B690093BB6A00228021F86801F005
:102A2000BDFB0346002B01D001234DE0FB685B8D0D
:102A30009BB2FF2B0ED9FB68FF221A85FB681B8D0A
:102A4000DAB27989002300934FF08073F86801F0BF
:102A500069FD0FE0FB685B8D9AB2FB681A85FB6825
:102A60001B8DDAB27989002300934FF00073F86868
:102A700001F058FDFB685B8D9BB2002B9ED17A69FB
:102A8000B96AF86801F02AFC0346002B01D0012343
:102A90001AE0FB681B682022DA61FB681B68596832
:102AA000FB681A680A4B0B405360FB68202283F8CE
:102AB0004120FB68002283F84220FB68002283F853
:102AC0004020002300E0022318461837BD4680BD91
:102AD00000E800FE80B588B002AFF86008461146F5
:102AE0001A4603467B810B463B811346FB80FB68FD
:102AF00093F84130DBB2202B40F0C2803B6A002BC0
:102B000002D0BB8C002B05D1FB684FF400725A64D5
:102B10000123B6E0FB681B689B6903F40043B3F52F
:102B2000004F01D10223ACE0FB6893F84030012B49
:102B300001D10223A5E0FB68012283F84020FB6855
:102B4000222283F84120FB68402283F84220FB6860
:102B500000225A64FB683A6A5A62FB68BA8C5A854A
:102B6000FB684A4ADA62FB68494A5A637A89FB6819
:102B7000DA64FB685B8D9BB2FF2B03D9FB68FF22F5
:102B80001A8504E0FB685B8D9AB2FB681A85FB88A6
:102B9000012B09D13B89DAB2FB681B689A62FB689A
:102BA0004FF0FF321A650BE03B891B0A9BB2DAB289
:102BB000FB681B689A623B89DBB21A46FB681A65A0
:102BC000FB68DB6B002B20D0FB68DB6B314ADA63E0
:102BD000FB68DB6B304ADA64FB68DB6B00221A644B
:102BE000FB68DB6B00221A65FB68D86BFB681B680F
:102BF000243319463A6AFB681B8DFFF709F903462F
:102C0000FB75FB7D002B27D113E0FB68202283F8A6
:102C10004120FB68002283F84220FB685B6C43F094
:102C20008002FB685A64FB68002283F8402001237D
:102C300027E0FB88DAB27989184B00930023F86803
:102C400001F070FCFB68002283F840200121F86845
:102C500001F09AFC002314E0FB68202283F8412055
:102C6000FB68002283F84220FB685B6C43F0100293
:102C7000FB685A64FB68002283F84020012300E0CF
:102C8000022318461837BD4680BD00BF0000FFFF75
:102C9000693100083B400008ED400008002000803A
:102CA00080B483B000AF786000BF0C37BD465DF8DC
:102CB000047B704780B483B000AF786000BF0C37EE
:102CC000BD465DF8047B704780B483B000AF786088
:102CD00000BF0C37BD465DF8047B704780B483B0FD
:102CE00000AF786000BF0C37BD465DF8047B7047CD
:102CF00080B483B000AF78600B46FB7013463B8016
:102D000000BF0C37BD465DF8047B704780B483B0CC
:102D100000AF786000BF0C37BD465DF8047B70479C
:102D200080B483B000AF786000BF0C37BD465DF85B
:102D3000047B704780B483B000AF786000BF0C376D
:102D4000BD465DF8047B704780B483B000AF786007
:102D500000BF0C37BD465DF8047B704780B586B078
:102D600000AFF860B9607A60FB68DB6A7B61BB68C2
:102D70003B61FB6893F84030012B01D10223EDE069
:102D8000FB68012283F840203B695B0903F00103E3
:102D9000002B0AD07B685B0903F00103002B04D0F1
:102DA0003969F86800F04EFED3E03B691B0903F077
:102DB0000103002B4DD07B681B0903F00103002B9E
:102DC00047D0FB685B8D9BB2002B28D1FB6893F842
:102DD0004130DBB2282B08D17B69B3F1007F04D1ED
:102DE0003969F86800F098FF32E0FB6893F84130E9
:102DF000DBB2292B0ED17B6913F5803F0AD0FB682B
:102E00001B681022DA61F86801F0F3F8F86800F046
:102E1000F0FC1DE0FB681B681022DA6196E0FB689D
:102E20001B681022DA61FB685B6C43F00402FB68EC
:102E30005A647B69002B04D07B69B3F1807F40F03A
:102E40008580FB685B6C1946F86800F0BBFF7DE08D
:102E50007CE03B699B0803F00103002B30D07B68CA
:102E60009B0803F00103002B2AD0FB685B8D9BB20B
:102E7000002B18D0FB681B685A6AFB685B6AD2B2E9
:102E80001A70FB685B6A5A1CFB685A62FB681B8DF0
:102E9000013B9AB2FB681A85FB685B8D9BB2013BD4
:102EA0009AB2FB685A85FB685B8D9BB2002B4FD1B1
:102EB0007B6913F5803F4BD0F86800F09AFC47E03F
:102EC0003B69DB0803F00103002B0AD07B68DB08B9
:102ED00003F00103002B04D03969F86800F0C8FB47
:102EE00037E03B695B0803F00103002B31D07B68BE
:102EF0005B0803F00103002B2BD0FB685B8D9BB2BA
:102F0000002B18D0FB685B6A1A78FB681B689A6212
:102F1000FB685B6A5A1CFB685A62FB685B8D9BB25C
:102F2000013B9AB2FB685A85FB681B8D013B9AB244
:102F3000FB681A850DE07B69B3F1807F02D07B6965
:102F4000002B06D1F86800F054FC02E000BF00E05E
:102F500000BFFB68002283F8402000231846183782
:102F6000BD4680BD80B588B002AFF860B9607A60B8
:102F7000FB6893F84030012B01D10223F0E0FB689D
:102F8000012283F84020BB681B0903F00103002BDA
:102F900017D07B681B0903F00103002B11D0FB68DD
:102FA0001B681022DA61FB685B6C43F00402FB686B
:102FB0005A642021F86801F0E7FAF86801F019F87E
:102FC000C9E0BB68DB0903F00103002B00F081803E
:102FD0007B689B0903F00103002B7AD0FB681B6818
:102FE0001A68FB681B6822F040021A60FB685B8D60
:102FF0009BB2002B5CD0FB681B685B689BB2C3F381
:1030000009037B82FB685B8D9BB2FF2B14D9FB68A5
:103010001B689B691B0CDBB203F00103DBB2012BC5
:1030200003D1FB6801221A8502E0FB68FF221A85A2
:103030004FF080737B6110E0FB685B8D9AB2FB6898
:103040001A85FB68DB6A13F5803F03D0FB68DB6AF7
:103050007B6102E04FF000737B61FB681B8DDAB28D
:10306000798A002300937B69F86801F05BFAFB68BA
:103070005B8D9AB2FB681B8DD31A9AB2FB685A8596
:10308000FB6893F84130DBB2222B08D1FB681B6848
:103090001A68FB681B6842F400421A605BE0FB6838
:1030A0001B681A68FB681B6842F480421A6052E091
:1030B000FB681B685B6803F00073B3F1007F03D00B
:1030C000F86800F059FB46E04021F86800F07AFE0D
:1030D00041E0BB689B0903F00103002B29D07B680A
:1030E0009B0903F00103002B23D0FB685B8D9BB28F
:1030F000002B19D1FB681B685B6803F00073B3F108
:10310000007F27D0FB68DB6A13F5803F08D1FB689E
:103110001B685A68FB681B6842F480425A6019E0D9
:10312000F86800F029FB15E04021F86800F04AFE3D
:1031300010E0BB685B0903F00103002B0BD07B6838
:103140005B0903F00103002B05D0B968F86800F0B3
:10315000AFFB00E000BFFB68002283F840200023A3
:1031600018461837BD4680BD80B588B002AFF860FC
:10317000B9607A60944B7B61FB6893F84030012B17
:1031800001D1022339E1FB68012283F84020BB68AA
:103190001B0903F00103002B17D07B681B0903F008
:1031A0000103002B11D0FB681B681022DA61FB6859
:1031B0005B6C43F00402FB685A642021F86801F05C
:1031C000E3F9F86800F015FF12E1BB685B0803F053
:1031D0000103002B0FD07B685B0803F00103002B79
:1031E00009D0FB681B68FA68126D9A62FB684FF0A1
:1031F000FF321A65FCE0BB68DB0903F00103002B1A
:103200006ED07B689B0903F00103002B68D001217D
:10321000F86801F03DFA1021F86801F0B5F9FB6893
:103220005B8D9BB2002B56D0FB685B8D9BB2FF2B56
:103230001ED9FB681B689B691B0CDBB203F0010302
:10324000DBB2012B03D1FB6801221A8502E0FB6887
:10325000FF221A85FB68DB6C99B2FB681B8DDAB222
:10326000002300934FF08073F86801F05BF911E0E0
:10327000FB685B8D9AB2FB681A85FB68DB6C99B2C0
:10328000FB681B8DDAB2002300934FF00073F868DF
:1032900001F048F9FB685B8D9AB2FB681B8DD31A6D
:1032A0009AB2FB685A85FB6893F84130DBB2222B57
:1032B00008D1FB681B681A68FB681B6842F400426F
:1032C0001A6095E0FB681B681A68FB681B6842F48B
:1032D00080421A608CE04021F86800F073FD87E0BE
:1032E000BB689B0903F00103002B71D07B689B092D
:1032F00003F00103002B6BD00121F86801F0C8F93D
:103300001021F86801F040F9FB6893F84130DBB216
:10331000222B01D12D4B7B61FB685B8D9BB2FF2B78
:103320001ED9FB681B689B691B0CDBB203F0010311
:10333000DBB2012B03D1FB6801221A8502E0FB6896
:10334000FF221A85FB68DB6C99B2FB681B8DDAB231
:103350007B6900934FF08073F86801F0E3F811E0A7
:10336000FB685B8D9AB2FB681A85FB68DB6C99B2CF
:10337000FB681B8DDAB27B6900934FF00073F8682D
:1033800001F0D0F8FB685B8D9AB2FB681B8DD31AF5
:103390009AB2FB685A85FB6893F84130DBB2222B66
:1033A00008D1FB681B681A68FB681B6842F400427E
:1033B0001A601DE0FB681B681A68FB681B6842F412
:1033C00080421A6014E000BF0020008000240080CA
:1033D000BB685B0903F00103002B09D07B685B0924
:1033E00003F00103002B03D0B968F86800F060FA1D
:1033F000FB68002283F84020002318461837BD469A
:1034000080BD00BF80B588B000AFF860B9607A6059
:10341000FB68DB6ABB610023FB61FB6893F840300B
:10342000012B01D10223CAE0FB68012283F840206E
:10343000BB685B0903F00103002B0AD07B685B09C2
:1034400003F00103002B04D0B968F86800F0FAFA21
:10345000B0E0BB681B0903F00103002B00F09A8069
:103460007B681B0903F00103002B00F093807B684D
:103470009B0B03F00103002B05D17B68DB0B03F0F2
:103480000103002B7FD0FB68DB6B002B0DD07B682A
:10349000DB0B03F00103002B07D0FB68DB6B1B6821
:1034A0005B68002B01D10123FB61FB689B6B002B48
:1034B0000DD07B689B0B03F00103002B07D0FB684A
:1034C0009B6B1B685B68002B01D10123FB61FB69CF
:1034D000012B28D1FB6893F84130DBB2282B08D1AF
:1034E000BB69B3F1007F04D1B968F86800F014FC3F
:1034F00048E0FB6893F84130DBB2292B0ED1BB6961
:1035000013F5803F0AD0FB681B681022DA61F86867
:1035100000F06FFDF86800F06CF933E0FB681B68A1
:103520001022DA6134E0FB681B681022DA61FB6864
:103530005B6C43F00402FB685A64FB6893F841300B
:10354000FB75BB69002B03D0BB69B3F1807F1FD132
:10355000FB7D212B02D0FB7D292B03D1FB6821228F
:103560001A6308E0FB7D222B02D0FB7D2A2B02D1BF
:10357000FB6822221A63FB685B6C1946F86800F04E
:1035800021FC05E004E0FB681B681022DA6111E011
:1035900000BF0FE0BB68DB0803F00103002B09D07C
:1035A0007B68DB0803F00103002B03D0B968F868DF
:1035B00000F05EF8FB68002283F8402000231846E4
:1035C0002037BD4680BD000080B586B002AFF860F0
:1035D000084611461A4603467B810B463B8113463B
:1035E000FB80FB88DAB27989204B00934FF080731F
:1035F000F86800F097FFFA69B969F86800F027FEEB
:103600000346002B01D001232CE0FB88012B05D1C0
:103610003B89DAB2FB681B689A6215E03B891B0A9A
:103620009BB2DAB2FB681B689A62FA69B969F868FA
:1036300000F00DFE0346002B01D0012312E03B8970
:10364000DAB2FB681B689A62FB690093BB690022CF
:103650008021F86800F0A2FD0346002B01D0012371
:1036600000E0002318461037BD4680BD00200080D2
:1036700080B584B000AF786039607B6893F84130E2
:10368000DBB203F02803282B6AD17B681B689B6997
:103690001B0CDBB203F00103FB737B681B689B69A7
:1036A0001B0C9BB203F0FE03BB817B681B689B680D
:1036B0009BB2C3F309037B817B681B68DB689BB209
:1036C00003F0FE033B817B68DB68022B38D17B89EA
:1036D000DB099AB2BB8953409BB203F00603002B6F
:1036E0001CD17B89BB817B689B6C5A1C7B689A646C
:1036F0007B689B6C022B3BD17B6800229A647B68C1
:103700001B680822DA617B68002283F84020BA89AE
:10371000FB7B19467868FFF7EBFA29E03B89BB8110
:103720004FF40041786800F0B3FF7B68002283F813
:103730004020BA89FB7B19467868FFF7D9FA17E071
:103740004FF40041786800F0A3FF7B68002283F803
:103750004020BA89FB7B19467868FFF7C9FA07E071
:103760007B681B680822DA617B68002283F84020AE
:1037700000BF1037BD4680BD80B582B000AF786015
:103780007B68002283F842207B6893F84130DBB2EB
:10379000212B15D17B68202283F841207B681122E0
:1037A0001A637B6800225A630121786800F070FF79
:1037B0007B68002283F840207868FFF771FA14E0F4
:1037C0007B68202283F841207B6812221A637B6881
:1037D00000225A630221786800F05AFF7B680022B9
:1037E00083F840207868FFF765FA00BF0837BD46C8
:1037F00080BD80B584B000AF78607B681B681B68B3
:10380000FB607B68002283F84220FB689B0B03F07F
:103810000103002B08D07B681B681A687B681B6853
:1038200022F480421A600DE0FB68DB0B03F0010319
:10383000002B07D07B681B681A687B681B6822F422
:1038400000421A607B6893F84130DBB2292B12D119
:103850007B68282283F841207B6821221A6301219A
:10386000786800F015FF7B68002283F840207868B4
:10387000FFF72AFA17E07B6893F84130DBB22A2B76
:1038800011D17B68282283F841207B6822221A63A9
:103890000221786800F0FCFE7B68002283F840205B
:1038A0007868FFF71BFA00BF1037BD4680BD0000E7
:1038B00080B586B000AF786039603B687B617B681B
:1038C0001B682022DA617B6893F84130DBB2212B40
:1038D00007D10121786800F0DBFE7B6811221A63B2
:1038E0000CE07B6893F84130DBB2222B06D1022139
:1038F000786800F0CDFE7B6812221A637B681B6833
:1039000059687B681A684D4B0B4053607B680022F6
:103910005A637B684A4ADA627B691B0903F0010338
:10392000002B09D07B681B681022DA617B685B6C16
:1039300043F004027B685A647B6893F84130DBB241
:10394000602B0BD17B699B0803F00103002B05D092
:103950007B681B685B6ADBB2FB60FB68786800F021
:1039600048FB7B685B6C3B617B6893F84130DBB262
:10397000602B02D03B69002B06D07B685B6C19463C
:10398000786800F01FFA54E07B6893F84130DBB2AE
:10399000212B24D17B68202283F841207B680022E0
:1039A0001A637B6893F84230DBB2402B0BD17B6803
:1039B000002283F842207B68002283F84020786848
:1039C000FFF7AEF935E07B68002283F842207B6880
:1039D000002283F840207868FFF762F929E07B68CD
:1039E00093F84130DBB2222B23D17B68202283F86D
:1039F00041207B6800221A637B6893F84230DBB277
:103A0000402B0BD17B68002283F842207B68002288
:103A100083F840207868FDF789FB0AE07B68002284
:103A200083F842207B68002283F840207868FFF703
:103A300041F900BF1837BD4680BD00BF00E800FE59
:103A40000000FFFF80B586B000AF786039607B680A
:103A50001B681B683B613B687B617B68DB6AFB60C2
:103A60007B6893F84130FB727B681B682022DA6127
:103A7000FB7A212B02D0FB7A292B08D148F20101D5
:103A8000786800F005FE7B6821221A6319E0FB7A52
:103A9000222B02D0FB7A2A2B08D148F20201786847
:103AA00000F0F6FD7B6822221A630AE0FB7A282BDD
:103AB00007D148F20301786800F0EAFD7B68002234
:103AC0001A637B681B685A687B681B6842F4004273
:103AD0005A607B681B6859687B681A688C4B0B407E
:103AE0005360786800F085FA3B699B0B03F0010393
:103AF000002B13D07B681B681A687B681B6822F454
:103B000080421A607B689B6B002B20D07B689B6B8C
:103B10001B685B689AB27B685A8518E03B69DB0BCF
:103B200003F00103002B12D07B681B681A687B68C6
:103B30001B6822F400421A607B68DB6B002B06D006
:103B40007B68DB6B1B685B689AB27B685A857B6914
:103B50009B0803F00103002B20D07B6923F00403B2
:103B60007B617B681B685A6A7B685B6AD2B21A7099
:103B70007B685B6A5A1C7B685A627B681B8D002BD2
:103B80000CD07B681B8D013B9AB27B681A857B68E1
:103B90005B8D9BB2013B9AB27B685A857B685B8DDB
:103BA0009BB2002B05D07B685B6C43F004027B6802
:103BB0005A647B691B0903F00103002B4AD03B695F
:103BC0001B0903F00103002B44D07B685B8D9BB283
:103BD000002B28D17B6893F84130DBB2282B08D129
:103BE000FB68B3F1007F04D17969786800F094F83C
:103BF00030E07B6893F84130DBB2292B0ED1FB68B3
:103C000013F5803F0AD07B681B681022DA61786860
:103C100000F0EFF97868FFF7ECFD1BE07B681B68AC
:103C20001022DA6116E07B681B681022DA617B687B
:103C30005B6C43F004027B685A64FB68002B03D082
:103C4000FB68B3F1807F05D17B685B6C19467868AF
:103C500000F0B8F87B68002283F842207B680022DD
:103C60005A637B685B6C002B10D07B685B6C1946D9
:103C7000786800F0A7F87B6893F84130DBB2282B16
:103C800041D17969786800F047F83CE07B68DB6AED
:103C900013F5803F14D07868FFF7ABFD7B681D4AB1
:103CA000DA627B68202283F841207B6800221A6355
:103CB0007B68002283F840207868FFF727F822E02D
:103CC0007B6893F84130DBB2222B0ED17B68202237
:103CD00083F841207B6800221A637B68002283F806
:103CE00040207868FEF7FAFF0DE07B68202283F819
:103CF00041207B6800221A637B68002283F8402001
:103D00007868FEF7E1FF00BF1837BD4680BD00BFF1
:103D100000E800FE0000FFFF80B582B000AF7860D1
:103D200039607B68264ADA627B6800221A637B6806
:103D3000202283F841207B68002283F842207B68A0
:103D400000225A633B689B0803F00103002B22D03A
:103D50007B681B685A6A7B685B6AD2B21A707B68A0
:103D60005B6A5A1C7B685A627B681B8D002B12D0E1
:103D70007B681B8D013B9AB27B681A857B685B8DE3
:103D80009BB2013B9AB27B685A857B685B6C43F0BF
:103D900004027B685A6448F20301786800F078FCFA
:103DA0007B681B681022DA617B68002283F8402060
:103DB0007868FEF7ABFF00BF0837BD4680BD00BF87
:103DC0000000FFFF80B584B000AF786039607B6889
:103DD00093F84130FB737B68002283F842207B68B4
:103DE0006D4ADA627B6800225A857B685A6C3B68B0
:103DF0001A437B685A64FB7B282B05D0FB7B292B5D
:103E000002D0FB7B2A2B0BD10321786800F040FC09
:103E10007B68282283F841207B68604A5A6330E03F
:103E200048F20301786800F033FC786800F0E1F8AC
:103E30007B6893F84130DBB2602B1FD07B68202277
:103E400083F841207B681B689B6903F02003202BCB
:103E500014D17B681B689B6903F01003102B09D1F8
:103E60007B681B681022DA617B685B6C43F004029C
:103E70007B685A647B681B682022DA617B680022B9
:103E80005A637B681B6BBB607B689B6B002B39D0D4
:103E9000BB68112B02D0BB68212B33D17B681B6818
:103EA0001B6803F48043B3F5804F07D17B681B6820
:103EB0001A687B681B6822F480421A607B689B6BDF
:103EC0001846FEF7B1F90346012B17D07B689B6BB0
:103ED000334A1A657B68002283F840207B689B6B1D
:103EE0001846FDF7F5FF0346002B4DD07B689B6B12
:103EF0001B6D7A68926B1046984745E0786800F031
:103F000051F841E07B68DB6B002B39D0BB68122B8A
:103F100002D0BB68222B33D17B681B681B6803F47B
:103F20000043B3F5004F07D17B681B681A687B68B4
:103F30001B6822F400421A607B68DB6B1846FEF7B0
:103F400073F90346012B17D07B68DB6B144A1A65A3
:103F50007B68002283F840207B68DB6B1846FDF706
:103F6000B7FF0346002B11D07B68DB6B1B6D7A68B3
:103F7000D26B1046984709E0786800F013F805E026
:103F8000786800F00FF802E000BF00E000BF00BF5B
:103F90001037BD4680BD00BF0000FFFF5D2D00084B
:103FA0006141000880B582B000AF78607B6893F80B
:103FB0004130DBB2602B0ED17B68202283F8412098
:103FC0007B6800221A637B68002283F840207868AF
:103FD000FEF7BAFE09E07B6800221A637B680022C4
:103FE00083F840207868FEF7A5FE00BF0837BD467D
:103FF00080BD80B483B000AF78607B681B689B692C
:1040000003F00203022B03D17B681B6800229A6233
:104010007B681B689B6903F00103012B07D07B6859
:104020001B689A697B681B6842F001029A6100BFB5
:104030000C37BD465DF8047B704780B584B000AF97
:1040400078607B689B6BFB60FB681B681A68FB6889
:104050001B6822F400421A60FB685B8D9BB2002B48
:1040600004D12021F86800F08FFA3BE0FB685B6A1E
:10407000FA68128D1A44FB685A62FB685B8D9BB22A
:10408000FF2B11D9FB681B689B691B0CDBB203F08B
:104090000103DBB2012B03D1FB6801221A8508E082
:1040A000FB68FF221A8504E0FB685B8D9AB2FB680F
:1040B0001A85FB68D86BFB681B6824331946FB68BC
:1040C0005B6A1A46FB681B8DFDF7A2FE0346002BB8
:1040D00004D01021F868FFF775FE03E04021F8686E
:1040E00000F052FA00BF1037BD4680BD80B584B0E5
:1040F00000AF78600023FB607B689B6BBB60BB6894
:104100009B6B002B07D0BB689B6B1B685B68002B0D
:1041100001D10123FB60BB68DB6B002B07D0BB68C0
:10412000DB6B1B685B68002B01D10123FB607868A7
:10413000FEF788F80346022B0ED0FB68002B0BD04D
:10414000BB681B685A68BB681B6842F400425A602F
:104150001021B868FFF736FE00BF1037BD4680BD9E
:1041600080B584B000AF78607B689B6BFB60FB68B8
:104170009B6B002B03D0FB689B6B00221A65FB68CE
:10418000DB6B002B03D0FB68DB6B00221A65F86841
:10419000FFF708FF00BF1037BD4680BD80B584B073
:1041A00000AFF860B9603B601346FB713BE0BA6951
:1041B0003968F86800F0D6F80346002B01D00123D7
:1041C00041E03B68B3F1FF3F2DD0FDF731FC0246E3
:1041D000BB69D31A3A689A4202D33B68002B22D1BA
:1041E000FB681B689A69BB681340BA689A420CBFA7
:1041F00001230023DBB21A46FB799A4213D1FB68F4
:104200005B6C43F02002FB685A64FB68202283F851
:104210004120FB68002283F84220FB68002283F8DB
:10422000402001230FE0FB681B689A69BB681340BC
:10423000BA689A420CBF01230023DBB21A46FB790D
:104240009A42B4D0002318461037BD4680BD80B5D1
:1042500084B000AFF860B9607A6033E07A68B9681A
:10426000F86800F07FF80346002B01D0012331E00D
:10427000BB68B3F1FF3F25D0FDF7DAFB02467B6850
:10428000D31ABA689A4202D3BB68002B1AD1FB68D2
:104290001B689B6903F00203022B13D0FB685B6C65
:1042A00043F02002FB685A64FB68202283F8412017
:1042B000FB68002283F84220FB68002283F840203C
:1042C000012307E0FB681B689B6903F00203022BD4
:1042D000C4D1002318461037BD4680BD80B584B0D8
:1042E00000AFF860B9607A602FE07A68B968F86862
:1042F00000F038F80346002B01D001232DE0FDF734
:1043000097FB02467B68D31ABA689A4202D3BB680D
:10431000002B1AD1FB681B689B6903F02003202B3C
:1043200013D0FB685B6C43F02002FB685A64FB68A7
:10433000202283F84120FB68002283F84220FB689A
:10434000002283F84020012307E0FB681B689B697B
:1043500003F02003202BC8D1002318461037BD4698
:1043600080BD000080B58AB000AFF860B9607A60A7
:10437000002387F82730FB681B689B69BB6100231B
:104380003B627B68FB61BB6903F01003002B68D0C4
:10439000FB681B681022DA6149E0BB68B3F1FF3F9C
:1043A00045D0FDF745FB0246FB69D31ABA689A422D
:1043B00002D3BB68002B3AD1FB681B685B6803F42F
:1043C00080437B61FB6893F84230FB74FB681B6899
:1043D0009B6903F40043B3F5004F21D17B69B3F52A
:1043E000804F1DD0FB7C202B1AD0FB681B685A68BD
:1043F000FB681B6842F480425A60FDF719FBF861C4
:104400000EE0FDF715FB0246FB69D31A192B07D9FD
:104410003B6A43F020033B62012387F8273006E024
:10442000FB681B689B6903F02003202BE9D1FB6824
:104430001B689B6903F02003202B03D097F82730DB
:10444000002BAAD097F82730002B03D1FB681B68FC
:104450002022DA613B6A43F004033B62012387F8C0
:104460002730FB681B689B69BB61BB6903F48073E1
:10447000002B0BD03B6A43F001033B62FB681B68D7
:104480004FF48072DA61012387F82730BB6903F4A7
:104490008063002B0BD03B6A43F008033B62FB6850
:1044A0001B684FF48062DA61012387F82730BB690B
:1044B00003F40073002B0BD03B6A43F002033B6212
:1044C000FB681B684FF40072DA61012387F827301C
:1044D00097F82730002B1CD0F868FFF78AFDFB689F
:1044E0001B685968FB681A680D4B0B405360FB68EA
:1044F0005A6C3B6A1A43FB685A64FB68202283F8B3
:104500004120FB68002283F84220FB68002283F8E8
:10451000402097F8273018462837BD4680BD00BF99
:1045200000E800FE80B487B000AFF8607B600B4607
:104530007B8113467B727B89C3F309027B7A1B0460
:1045400003F47F031A437B681A433B6A134323F047
:1045500000437B61FB681B685A683B6A5B0D03F490
:104560008061084B0B43DB4302EA0301FB681B68D5
:104570007A690A435A6000BF1C37BD465DF8047B68
:10458000704700BFFF63FF0380B485B000AF786061
:104590000B467B800023FB607B685B6B394A934250
:1045A00032D07B685B6B384A93422DD07B685B6B63
:1045B000364A934228D0B7F90230002B03DAFB6861
:1045C00043F0B803FB607B8803F00103002B03D0AA
:1045D000FB6843F0F203FB607B8803F00203002BCF
:1045E00003D0FB6843F0F403FB607B88102B03D1FE
:1045F000FB6843F09003FB607B88202B33D1FB6882
:1046000043F02003FB602EE0B7F90230002B03DA01
:10461000FB6843F0B803FB607B8803F00103002BC9
:1046200003D0FB6843F0F203FB607B8803F00203D6
:10463000002B03D0FB6843F0F403FB607B88102B56
:1046400003D1FB6843F09003FB607B88202B03D1F0
:10465000FB6843F06003FB607B88402B03D1FB6861
:1046600043F04003FB607B681B6819687B681B682C
:10467000FA680A431A6000BF1437BD465DF8047B30
:10468000704700BF652F0008053400086931000835
:1046900080B485B000AF78600B467B800023FB6060
:1046A0007B8803F00103002B0FD0FB6843F042032B
:1046B000FB607B6893F84130DBB203F02803282BC2
:1046C00003D0FB6843F0B003FB607B8803F0020378
:1046D000002B0FD0FB6843F04403FB607B6893F82A
:1046E0004130DBB203F02803282B03D0FB6843F0F2
:1046F000B003FB60B7F90230002B03DAFB6843F02C
:10470000B803FB607B88102B03D1FB6843F0900358
:10471000FB607B88202B03D1FB6843F02003FB6008
:104720007B88402B03D1FB6843F04003FB607B6830
:104730001B681968FB68DA437B681B680A401A60CB
:1047400000BF1437BD465DF8047B704780B483B06A
:1047500000AF786039607B6893F84130DBB2202B82
:1047600038D17B6893F84030012B01D1022332E02D
:104770007B68012283F840207B68242283F8412053
:104780007B681B681A687B681B6822F001021A604C
:104790007B681B681A687B681B6822F480521A6069
:1047A0007B681B6819687B681B683A680A431A6053
:1047B0007B681B681A687B681B6842F001021A60FC
:1047C0007B68202283F841207B68002283F8402008
:1047D000002300E0022318460C37BD465DF8047B39
:1047E000704780B485B000AF786039607B6893F81B
:1047F0004130DBB2202B39D17B6893F84030012B5C
:1048000001D1022333E07B68012283F840207B68DA
:10481000242283F841207B681B681A687B681B6828
:1048200022F001021A607B681B681B68FB60FB6852
:1048300023F47063FB603B681B02FA681343FB6060
:104840007B681B68FA681A607B681B681A687B685B
:104850001B6842F001021A607B68202283F8412025
:104860007B68002283F84020002300E002231846E2
:104870001437BD465DF8047B7047000080B582B0F8
:1048800000AF00237B60234B1B6C224A43F0805314
:104890001364204B1B6C03F080533B603B681E4B42
:1048A0001B681D4A43F480331360FDF7C1F878603C
:1048B00009E0FDF7BDF802467B68D31AB3F57A7FAD
:1048C00001D9032322E0144B5B6803F48033B3F572
:1048D000803FEED1104B1B680F4A43F40033136046
:1048E000FDF7A6F8786009E0FDF7A2F802467B68BC
:1048F000D31AB3F57A7F01D9032307E0064B5B682F
:1049000003F40033B3F5003FEED100231846083717
:10491000BD4680BD003802400070004080B586B0C2
:1049200000AF78600023FB757B68002B01D1012369
:1049300091E27B681B6803F00103002B00F0878085
:10494000964B9B6803F00C03042B0CD0934B9B6895
:1049500003F00C03082B12D1904B5B6803F4800327
:10496000B3F5800F0BD18D4B1B6803F40033002B84
:104970006CD07B685B68002B68D101236BE27B689D
:104980005B68B3F5803F06D1844B1B68834A43F4D0
:10499000803313602EE07B685B68002B0CD17F4B6B
:1049A0001B687E4A23F4803313607C4B1B687B4A70
:1049B00023F4802313601DE07B685B68B3F5A02FB0
:1049C0000CD1764B1B68754A43F480231360734BFC
:1049D0001B68724A43F4803313600BE06F4B1B6813
:1049E0006E4A23F4803313606C4B1B686B4A23F4CC
:1049F000802313607B685B68002B13D0FDF718F8E9
:104A0000386108E0FDF714F802463B69D31A642BBD
:104A100001D903231FE2614B1B6803F40033002B11
:104A2000F0D014E0FDF704F8386108E0FDF700F875
:104A300002463B69D31A642B01D903230BE2574B7F
:104A40001B6803F40033002BF0D100E000BF7B684B
:104A50001B6803F00203002B69D0504B9B6803F0E6
:104A60000C03002B0BD04D4B9B6803F00C03082B61
:104A70001CD14A4B5B6803F48003002B16D1474BD3
:104A80001B6803F00203002B05D07B68DB68012B59
:104A900001D00123DFE1414B1B6823F0F8027B6862
:104AA0001B69DB003D4913430B6040E07B68DB681A
:104AB000002B23D0394B1B68384A43F001031360A5
:104AC000FCF7B6FF386108E0FCF7B2FF02463B692D
:104AD000D31A022B01D90323BDE1304B1B6803F02D
:104AE0000203002BF0D02D4B1B6823F0F8027B68EB
:104AF0001B69DB00294913430B6018E0274B1B6837
:104B0000264A23F001031360FCF792FF386108E0A6
:104B1000FCF78EFF02463B69D31A022B01D903230F
:104B200099E11E4B1B6803F00203002BF0D17B6858
:104B30001B6803F00803002B38D07B685B69002BEF
:104B400019D0164B5B6F154A43F001035367FCF70E
:104B50006FFF386108E0FCF76BFF02463B69D31A30
:104B6000022B01D9032376E10C4B5B6F03F00203A8
:104B7000002BF0D01AE0094B5B6F084A23F00103C9
:104B80005367FCF755FF38610AE0FCF751FF024616
:104B90003B69D31A022B03D903235CE1003802409E
:104BA000914B5B6F03F00203002BEED17B681B6817
:104BB00003F00403002B00F0A4808B4B1B6C03F06C
:104BC0008053002B0DD1884B1B6C874A43F08053D8
:104BD0001364854B1B6C03F08053BB60BB680123DF
:104BE000FB75824B1B6803F48073002B18D17F4B3D
:104BF0001B687E4A43F480731360FCF719FF386129
:104C000008E0FCF715FF02463B69D31A642B01D973
:104C1000032320E1754B1B6803F48073002BF0D055
:104C20007B689B68012B06D16F4B1B6F6E4A43F06C
:104C3000010313672DE07B689B68002B0CD16A4B46
:104C40001B6F694A23F001031367674B1B6F664AAA
:104C500023F0040313671CE07B689B68052B0CD1D1
:104C6000614B1B6F604A43F0040313675E4B1B6F7D
:104C70005D4A43F0010313670BE05B4B1B6F5A4A1D
:104C800023F001031367584B1B6F574A23F00403AB
:104C900013677B689B68002B15D0FCF7C9FE386151
:104CA0000AE0FCF7C5FE02463B69D31A41F288329E
:104CB000934201D90323CEE04B4B1B6F03F0020359
:104CC000002BEED014E0FCF7B3FE38610AE0FCF7ED
:104CD000AFFE02463B69D31A41F28832934201D9B2
:104CE0000323B8E0404B1B6F03F00203002BEED10F
:104CF000FB7D012B05D13C4B1B6C3B4A23F08053C1
:104D000013647B689B69002B00F0A480364B9B6882
:104D100003F00C03082B6BD07B689B69022B49D1F5
:104D2000314B1B68304A23F080731360FCF780FE20
:104D3000386108E0FCF77CFE02463B69D31A022B7F
:104D400001D9032387E0284B1B6803F00073002B75
:104D5000F0D17B68DA697B681B6A1A437B685B6AFF
:104D60009B011A437B689B6A5B08013B1B041A4347
:104D70007B68DB6A1B0613431B4A43F000535360F6
:104D8000194B1B68184A43F080731360FCF750FE00
:104D9000386108E0FCF74CFE02463B69D31A022B4F
:104DA00001D9032357E0104B1B6803F00073002B5D
:104DB000F0D04FE00C4B1B680B4A23F0807313605C
:104DC000FCF736FE386108E0FCF732FE02463B692C
:104DD000D31A022B01D903233DE0034B1B6803F0D8
:104DE0000073002BF0D135E0003802400070004025
:104DF0001B4B5B68FB607B689B69012B28D0FB68C1
:104E000003F480027B68DB699A4221D1FB6803F0DE
:104E10003F027B681B6A9A421AD1FA6847F6C07350
:104E200013407A68526A9201934211D1FB6803F4ED
:104E300040327B689B6A5B08013B1B049A4207D1A6
:104E4000FB6803F070627B68DB6A1B069A4201D044
:104E5000012300E0002318461837BD4680BD00BF7F
:104E60000038024080B584B000AF7860396000231C
:104E7000FB607B68002B01D10123D0E06A4B1B68EB
:104E800003F00F033A689A4210D9674B1B6823F06E
:104E90000F0265493B6813430B60634B1B6803F0CB
:104EA0000F033A689A4201D00123B8E07B681B687F
:104EB00003F00203002B20D07B681B6803F004037F
:104EC000002B05D0594B9B68584A43F4E05393603C
:104ED0007B681B6803F00803002B05D0534B9B68CD
:104EE000524A43F460439360504B9B6823F0F002B6
:104EF0007B689B684D4913438B607B681B6803F09C
:104F00000103002B40D07B685B68012B07D1474B26
:104F10001B6803F40033002B15D101237FE07B686D
:104F20005B68022B07D1414B1B6803F00073002B19
:104F300009D1012373E03D4B1B6803F00203002BF2
:104F400001D101236BE0394B9B6823F003027B689E
:104F50005B68364913438B60FCF76AFDF8600AE032
:104F6000FCF766FD0246FB68D31A41F28832934291
:104F700001D9032353E02D4B9B6803F00C027B689F
:104F80005B689B009A42EBD1274B1B6803F00F0331
:104F90003A689A4210D2244B1B6823F00F02224930
:104FA0003B6813430B60204B1B6803F00F033A6808
:104FB0009A4201D0012332E07B681B6803F00403AE
:104FC000002B08D0194B9B6823F4E0527B68DB6808
:104FD000164913438B607B681B6803F00803002BA2
:104FE00009D0124B9B6823F460427B681B69DB008D
:104FF0000E4913438B6000F021F802460B4B9B686F
:105000001B0903F00F030A49CB5C22FA03F3094A98
:105010001360094B1B681846FCF7C6FC00231846B2
:105020001037BD4680BD00BF003C02400038024042
:10503000D48E000804000020080000202DE9B04FA5
:1050400090B000AF00237B630023FB6300233B632E
:105050000023BB63594B9B6803F00C03082B0DD056
:10506000082B00F2A180002B02D0042B03D09BE080
:10507000534BBB639BE0534BBB6398E04F4B5B6868
:1050800003F03F037B634D4B5B6803F48003002B0D
:1050900028D04A4B5B689B0900223B627A623B6ADC
:1050A000C3F308000021474B03FB01F2002300FB80
:1050B00003F31344434AA0FB0212FA620A46BA629F
:1050C000FA6A1344FB627B6B0022BB61FA61D7E989
:1050D0000623D7E90A01FBF787FD02460B46134674
:1050E000FB6353E0354B5B689B0900223B617A61AF
:1050F0003B69C3F3080A4FF0000B52465B464FF082
:1051000000004FF00001590141EAD261500102460E
:105110000B46B2EB0A0863EB0B094FF000024FF0AD
:1051200000034FEA891343EA98634FEA8812B2EB0F
:10513000080463EB09054FF000024FF00003EB0099
:1051400043EA5473E20014461D4614EB0A033B6025
:1051500045EB0B037B604FF000024FF00003D7E9F3
:10516000004529468B02214643EA915321468A0293
:10517000104619467B6B0022BB60FA60D7E9022318
:10518000FBF732FD02460B461346FB630B4B5B6895
:105190001B0C03F0030301335B003B63FA6B3B6BB7
:1051A000B2FBF3F3BB6302E0054BBB6300BFBB6B19
:1051B00018464037BD46BDE8B08F00BF00380240FA
:1051C0000024F40040787D0180B400AF034B1B68DD
:1051D0001846BD465DF8047B704700BF0400002000
:1051E00080B500AFFFF7F0FF0246054B9B689B0AB6
:1051F00003F007030349CB5C22FA03F3184680BD92
:1052000000380240E48E000880B500AFFFF7DCFFF5
:105210000246054B9B685B0B03F007030349CB5C1D
:1052200022FA03F3184680BD00380240E48E0008DD
:1052300080B588B000AF786000237B6100233B61BC
:105240000023FB600023FB610023BB617B681B68BC
:1052500003F00103002B12D0694B9B68684A23F4CA
:1052600000039360664B9A687B685B6B64491343E9
:105270008B607B685B6B002B01D10123FB617B683A
:105280001B6803F40023002B17D05D4BD3F88C3040
:1052900023F440127B68DB6B59491343C1F88C300F
:1052A0007B68DB6BB3F5801F01D10123FB617B6859
:1052B000DB6B002B01D10123BB617B681B6803F40E
:1052C0008013002B17D04E4BD3F88C3023F44002C0
:1052D0007B681B6C4A491343C1F88C307B681B6C9C
:1052E000B3F5800F01D10123FB617B681B6C002BA0
:1052F00001D10123BB617B681B6803F08073002B25
:1053000001D00123FB617B681B6803F02003002BA5
:1053100000F08B803A4B1B6C394A43F08053136486
:10532000374B1B6C03F08053BB60BB68354B1B686D
:10533000344A43F480731360FCF77AFB786108E029
:10534000FCF776FB02467B69D31A642B01D9032351
:1053500057E32C4B1B6803F48073002BF0D0284BD1
:105360001B6F03F440733B613B69002B35D07B68B6
:105370001B6B03F440733A699A422ED0204B1B6F8B
:1053800023F440733B611E4B1B6F1D4A43F4803373
:1053900013671B4B1B6F1A4A23F480331367184A99
:1053A0003B691367164B1B6F03F00103012B14D1EC
:1053B000FCF73EFB78610AE0FCF73AFB02467B69AA
:1053C000D31A41F28832934201D9032319E30C4BDB
:1053D0001B6F03F00203002BEED07B681B6B03F402
:1053E0004073B3F5407F11D1054B9B6823F4F8124D
:1053F0007B68196B044B0B40014913438B600BE036
:105400000038024000700040FFFCFF0FAA4B9B6871
:10541000A94A23F4F8139360A74B1A6F7B681B6BA0
:10542000C3F30B03A44913430B677B681B6803F0AA
:105430001003002B10D0A04BD3F88C309E4A23F0E1
:105440008073C2F88C309C4BD3F88C207B689B6BAC
:1054500099491343C1F88C307B681B6803F480437F
:10546000002B0AD0944BD3F8903023F440327B6861
:105470005B6E91491343C1F890307B681B6803F45D
:105480000043002B0AD08C4BD3F8903023F44022F9
:105490007B689B6E88491343C1F890307B681B681A
:1054A00003F48033002B0AD0834BD3F8903023F4DD
:1054B00040127B68DB6E80491343C1F890307B68F3
:1054C0001B6803F40033002B0AD07B4BD3F89030D9
:1054D00023F440027B681B6F77491343C1F8903077
:1054E0007B681B6803F04003002B0AD0724BD3F893
:1054F000903023F003027B685B6C6F491343C1F863
:1055000090307B681B6803F08003002B0AD06A4B45
:10551000D3F8903023F00C027B689B6C66491343F0
:10552000C1F890307B681B6803F48073002B0AD0AD
:10553000614BD3F8903023F030027B68DB6C5E491E
:105540001343C1F890307B681B6803F40073002B91
:105550000AD0594BD3F8903023F0C0027B681B6D02
:1055600055491343C1F890307B681B6803F480638E
:10557000002B0AD0504BD3F8903023F440727B6854
:105580005B6D4D491343C1F890307B681B6803F491
:105590000063002B0AD0484BD3F8903023F44062CC
:1055A0007B689B6D44491343C1F890307B681B684E
:1055B00003F48053002B0AD03F4BD3F8903023F4F0
:1055C00040527B68DB6D3C491343C1F890307B68E7
:1055D0001B6803F40053002B0AD0374BD3F89030EC
:1055E00023F440427B681B6E33491343C1F890306B
:1055F0007B681B6803F48003002B0AD02E4BD3F882
:10560000903023F080627B689B6F2B491343C1F875
:1056100090307B681B6803F40013002B11D0264BDD
:10562000D3F8903023F000627B68DB6F224913438C
:10563000C1F890307B68DB6FB3F1006F01D10123BB
:10564000BB617B681B6803F00803002B01D00123BA
:10565000BB617B681B6803F48023002B0AD0164BC8
:10566000D3F8903023F040727B685B6F124913438C
:10567000C1F890307B681B6803F40003002B0BD04B
:105680000D4BD3F8903023F080527B68D3F88030F4
:1056900009491343C1F89030FB69012B06D07B68A0
:1056A0001B6803F00073002B00F0D980024B1B68CD
:1056B000014A23F0806301E0003802401360FCF7E8
:1056C000B7F9786108E0FCF7B3F902467B69D31AB1
:1056D000642B01D9032394E16C4B1B6803F0006336
:1056E000002BF0D17B681B6803F00103002B21D055
:1056F0007B685B6B002B1DD1644BD3F884301B0C93
:1057000003F003033B61614BD3F884301B0E03F0BD
:105710000F03FB607B685B689A013B691B041A43BB
:10572000FB681B061A437B689B681B07574913439A
:10573000C1F884307B681B6803F40023002B04D07D
:105740007B68DB6BB3F5801F0AD07B681B6803F4B2
:105750008013002B2ED07B681B6CB3F5800F29D1F2
:105760004A4BD3F884301B0C03F003033B61474BD7
:10577000D3F884301B0F03F00703FB607B685B6882
:105780009A013B691B041A437B68DB681B061A43BA
:10579000FB681B073D491343C1F884303B4BD3F8EA
:1057A0008C3023F01F027B685B6A013B374913434F
:1057B000C1F88C307B681B6803F08073002B1DD010
:1057C000324BD3F884301B0E03F00F033B612F4B99
:1057D000D3F884301B0F03F00703FB607B685B6822
:1057E0009A017B681B691B041A433B691B061A4319
:1057F000FB681B0725491343C1F884307B681B688D
:1058000003F00073002B11D07B685B689A017B6802
:105810001B691B041A437B68DB681B061A437B6801
:105820009B681B0719491343C1F88430174B1B6849
:10583000164A43F080631360FCF7FAF8786108E0D9
:10584000FCF7F6F802467B69D31A642B01D90323CF
:10585000D7E00E4B1B6803F00063002BF0D0BB6950
:10586000012B40F0CD80094B1B68084A23F0805380
:105870001360FCF7DDF878610AE0FCF7D9F802461E
:105880007B69D31A642B03D90323BAE000380240A2
:105890005E4B1B6803F00053B3F1005FEDD07B68F3
:1058A0001B6803F40023002B03D07B68DB6B002B09
:1058B00009D07B681B6803F48013002B2ED07B6813
:1058C0001B6C002B2AD1514BD3F888301B0C03F0F2
:1058D00003033B614D4BD3F888301B0F03F00703E4
:1058E000FB607B685B699A013B691B041A437B6818
:1058F0009B691B061A43FB681B0744491343C1F805
:105900008830424BD3F88C3023F4F8527B689B6A82
:10591000013B1B023D491343C1F88C307B681B6877
:1059200003F40013002B22D07B68DB6FB3F1006F10
:105930001DD1364BD3F888301B0E03F00F033B61AB
:10594000324BD3F888301B0F03F00703FB607B68F2
:105950005B699A017B681B6A1B041A433B691B063F
:105960001A43FB681B0729491343C1F888307B6839
:105970001B6803F00803002B28D0244BD3F8883091
:105980001B0E03F00F033B61204BD3F888301B0C38
:1059900003F00303FB607B685B699A01FB681B04EF
:1059A0001A433B691B061A437B68DB691B071749CF
:1059B0001343C1F88830154BD3F88C3023F44032B0
:1059C0007B68DB6A11491343C1F88C300F4B1B68AD
:1059D0000E4A43F080531360FCF72AF8786108E020
:1059E000FCF726F802467B69D31A642B01D90323FE
:1059F00007E0064B1B6803F00053B3F1005FEFD1E3
:105A0000002318462037BD4680BD00BF0038024045
:105A100080B582B000AF78607B68002B01D1012394
:105A200040E07B68DB6F002B06D17B68002283F8A7
:105A300078207868FBF7EEFD7B682422DA677B68C4
:105A40001B681A687B681B6822F001021A607B6879
:105A50005B6A002B02D0786800F016FB786800F0D3
:105A6000AFF80346012B01D101231BE07B681B68C3
:105A70005A687B681B6822F490425A607B681B68F6
:105A80009A687B681B6822F02A029A607B681B6810
:105A90001A687B681B6842F001021A60786800F09F
:105AA00095FB034618460837BD4680BD80B58AB0D1
:105AB00002AFF860B9603B601346FB80FB68DB6FA8
:105AC000202B77D1BB68002B02D0FB88002B01D1A3
:105AD000012370E0FB680022C3F88420FB682122C8
