:020000040800F2
:10000000A0070020B5010008BD12000881110008FA
:10001000B912000871020008D112000800000000A7
:10002000000000000000000000000000C5120008F1
:100030008D02000800000000C1120008C91200086B
:10004000CF010008CF010008CF010008CF01000850
:10005000CF010008CF010008CF010008CF01000840
:10006000CF010008CF010008CF010008CF01000830
:100070007502000881020008CF010008CF010008C6
:10008000CF010008CF010008CF010008CF01000810
:10009000CF010008CF010008CF010008CF01000800
:1000A000CF010008CF010008CF010008CF010008F0
:1000B000CF010008CF010008CF010008CF010008E0
:1000C000CF010008CF010008CF010008CF010008D0
:1000D000CF010008CF010008CF010008CF010008C0
:1000E000CF010008CF010008CF01000800F002F89E
:1000F00000F050F814A696E8000CB244B344DA4578
:1001000001D100F047F8BAE80F000FA696E83000DA
:10011000A5EB040504EB0607AAEB0704A7F101070A
:100120004FEA15154FEA3414A4F10104AC4201D38F
:1001300000F030F813F0010F18BFFB1A43F0010371
:1001400000F001F8DBE71847281200004812000011
:10015000103A24BF78C878C1FAD8520724BF30C8F3
:1001600030C144BF04680C60704700007047000055
:100170000023002400250026103A28BF78C1FBD8B0
:10018000520728BF30C148BF0B6070471FB51FBD65
:1001900010B510BD00F037F81146FFF7F7FF01F07A
:1001A00099F800F055F803B4FFF7F2FF03BC00F034
:1001B00059F800000948804709480047FEE7FEE774
:1001C000FEE7FEE7FEE7FEE7FEE7FEE7FEE7FEE707
:1001D00004480549054A064B70470000CD12000847
:1001E000ED000008A0010020A0070020A0030020CF
:1001F000A003002070477047704700000048704718
:100200001000002070477546FFF7F8FFAE46050066
:100210006946534620F00700854618B020B5FFF721
:10022000D7FFBDE820404FF000064FF000074FF029
:1002300000084FF0000BAC46ACE8C009ACE8C009C0
:10024000ACE8C009ACE8C00921F007018D46704751
:1002500010B50446AFF300802046BDE81040FFF71C
:10026000A2BF000001491820ABBEFEE72600020035
:10027000FEE7000040F27000C2F2000000F00EB88D
:1002800040F2B400C2F2000000F008B8704700006D
:10029000EFF3108072B600BFFEE7000010B5D0E9A2
:1002A0000FCE0168DCF800300A6823FA0EF35C0711
:1002B0002AD512F0040427D00A68920603D40A68EB
:1002C00022F004020A602F22C4F20202914240F29C
:1002D0000402C4F202025BDD3023C4F2020399423D
:1002E00072D04423C4F20203994273D05823C4F25B
:1002F0000203994240F07A804FF480231360C16A70
:10030000002940F098806FE09C0727D512F0020486
:1003100024D00A68920606D40A6822F00A020A600B
:10032000012280F821202F22C4F20202914240F2E1
:100330000402C4F202023BDD3023C4F202039942FC
:1003400060D04423C4F2020399425FD05823C4F220
:100350000203994260D14FF4003365E01B0743D597
:1003600012F0080208BF10BD0A6822F00E020A60EF
:10037000012101FA0EF2CCF80420816380F82110EB
:10038000016B0022002980F8202054D12CE000BF0E
:100390000823C4F20203994222D01C23C4F20203B0
:1003A000994223D140231360C16A002943D11BE045
:1003B0000823C4F2020399422CD01C23C4F2020386
:1003C000994229D120232FE04FF480631360C16A42
:1003D00089BB09E04FF480431360C16A59BB03E055
:1003E00004231360C16A31BB10BD00BF02F1680471
:1003F0004FF08063A14208BF4FF480031360C16ACD
:10040000C9B9F1E74FF400730EE000BF4FF4005399
:100410000AE000BF022307E002F168044FF0007316
:10042000A14208BF4FF400131360816A0022002923
:1004300080F82020D8D0BDE81040084701460028A9
:100440004FF0010008BF70472DE9F043D1F800C01C
:100450004FF6F873CBF6FD734CF6CD426344CCF601
:10046000CC42A3FB02236FF0030202EA93020023B3
:10047000C4F2020301F10C08C1E90F320222D1E9F2
:10048000019E98E8F00181F82120DCF8002043F675
:10049000F0739A4342EA090242EA0E0222432A43D7
:1004A00032433A4342EA0802CCF8002000228A6331
:1004B00081F8210081F820200020BDE8F04370473A
:1004C0002DE9F04F82B00E68002E00F0FD8041F261
:1004D0000042C4F20102042340F2004E904208BFE1
:1004E00003234FF6FF7CC4F2010E00930024012386
:1004F000C1F2100C4FF0000A4FF000094BE000BFB2
:1005000041F20002C4F20102009F904208BF02279C
:1005100004F00C030F229A402BEA020207FA03F3BD
:100520004FEA9A051A4346F825204E6840F20C45DA
:10053000F202DEF8082054BF22EA080242EA08026A
:10054000C4F20105CEF808202A68B30254BF22EA9B
:10055000080242EA08022A60B303DEF8042054BF0E
:1005600022EA080242EA0802F303CEF80420DEF889
:1005700000204FF0010354BF22EA080242EA0802B9
:10058000CEF800200E680AF1010A36FA0AF204F1E8
:10059000040400F0998003FA0AFB16EA0B08F1D074
:1005A0004E68664512DC122E56D8DFE806F0350B91
:1005B0004D4955555555555555555555555555450F
:1005C000510000BFD1F80C9046E000BF4FF6FF721B
:1005D000C1F2210296420FDC0022C1F211029642C2
:1005E0001AD00022C1F21202964215D00022C1F2A6
:1005F0002102964210D02FE00022C1F22202964240
:100600000AD00022C1F23102964205D00022C1F286
:100610003202964220D100BF8A684AB1012A14BF33
:10062000C0F814B0C0F810B04FF0080914E000BFD3
:100630004FF0040910E000BFCA6802F104090BE0A2
:100640004FF0000908E000BFCA6802F1080903E0A2
:10065000CA6802F10C0900BF02462646B8F5807F41
:1006600024BF0432203E17680F25B54027EA050550
:1006700009FA06F635431560CA79D2067FF582AFCE
:1006800041F21803C4F202031A68AEF57E7642F016
:1006900001021A601A6802F001020192019A2AF01E
:1006A000030256F802B040F60002C4F20102904282
:1006B00008D040F60042C4F2010290427FF420AF1D
:1006C000012725E7002723E702B0BDE8F08F0000EF
:1006D000002A08BF090401617047000040F2981029
:1006E000C2F200000068704740F2000040F298112A
:1006F000C2F20000C2F2000100780A6810440860EB
:100700007047000080B542F20000C4F202000168A8
:1007100041F010010160032000F08CF80F2000F080
:1007200005F800F027F8002080BD000070B540F209
:100730000006C2F2000640F208013278C2F200015F
:100740004FF47A730968B3FBF2F20446B1FBF2F19D
:10075000084600F04DFC0F2C4FF0010508D838B9C1
:100760004FF0FF3021460022002500F037F874607A
:10077000284670BD82B041F21800C4F20200016840
:10078000022241F001010160016801F001010191C3
:100790000199416841F080514160406800F080500B
:1007A000009000980420C4F20100016862F31A610D
:1007B000016002B070470000002848BF704700F099
:1007C0001F01012202FA01F11C2202EAD0004EF2BE
:1007D0000012CEF2000281507047000010B54EF6B4
:1007E0000C5CCEF2000CDCF80030C3F3022E8EF06D
:1007F0000704042C28BF0424BEF103034FF0FF3E7E
:100800000EFA04F438BF0023A14399400EFA03F313
:100810009A43114300F00F0200F160430901043ACA
:1008200003F564436244002848BF02F10C031970C9
:1008300010BD00004EF60C51CEF200010A684FF6D2
:10084000FF031A4060F30A2242F0806040F0FD701E
:1008500008607047002804BF012070472DE9F0436D
:1008600081B042F20008C4F202080446D8F8000041
:100870000D4600F0070088420CD2D8F8000020F0A6
:1008800007002843C8F80000D8F8000000F007006F
:10089000A8426CD1206841F204098107C4F2020920
:1008A00017D5410705D5D9F8001041F4E061C9F822
:1008B0000010010705D5D9F8001041F46051C9F8BE
:1008C0000010D9F80010A26821F0F0011143C9F816
:1008D0000010C00742D1D8F8000000F00700A8427D
:1008E0000CD9D8F8000020F007002843C8F8000011
:1008F000D8F8000000F00700A84238D1206841076E
:1009000007D5D9F80010E26821F4E0611143C9F875
:100910000010000708D5D9F80000216920F46050C4
:1009200040EAC100C9F80000D9F8002002F00C002C
:10093000082841F20020C0F27A004DD141F2603324
:10094000C2F38341C0F60003595CD20338D440F6A9
:100950000010C0F23D0048433EE000BF606859F817
:10096000041C022808D0012826D1890306D40120BE
:1009700001B0BDE8F08300BF8901F8D5D9F80010B7
:1009800021F003010843C9F80000FFF7A7FE06465F
:1009900041F28837D9F80000616800F00C00B0EB34
:1009A000810F98D0FFF79AFE801BB842F2D903203E
:1009B00001B0BDE8F08300BF8907D8D5DEE700BFEE
:1009C000D9F8002041F25E33C2F34042C0F6000382
:1009D0009A5C4843B0FBF2F0D9F8001041F246327D
:1009E000C1F30311C0F60002515C40F2080220FA84
:1009F00001F140F20400C2F200000068C2F20002FD
:100A00001160FFF793FE002001B0BDE8F083000005
:100A100040F2080041F20401C2F20000C4F20201F7
:100A20000068096841F25632C1F30221C0F60002A3
:100A3000515CC8407047000040F2080041F20401D8
:100A4000C2F20000C4F202010068096841F25632A5
:100A5000C1F3C221C0F60002515CC84070470000DB
:100A6000002804BF012070472DE9F04182B0044600
:100A7000007841F20006C007C4F202060CD070688C
:100A800000F00C00042840F081803068800303D51A
:100A90006068002800F04681207880071BD57068C8
:100AA00010F00C0F09D0706800F00C00082840F01E
:100AB00087807068C00300F183803068800703D5A9
:100AC0002069012840F02E813068616920F0F8002B
:100AD00040EAC10030602078000713D42078400736
:100AE0002CD4E569002D00F01881706800F00C002E
:100AF000082840F0A780012D40F00481012002B0B9
:100B0000BDE8F081A069002800F084800020C4F2D4
:100B100042200121C0F88014FFF7E0FD054600BF28
:100B2000706A800700F1B280FFF7D8FD401B0228F1
:100B3000F6D9032002B0BDE8F08100BFF0695FEA9A
:100B4000C00808D4F06940F08050F061F06900F00E
:100B500080500090009847F20007C4F20007386800
:100B6000C00549D4386840F480703860FFF7B6FD9E
:100B7000054600BF3868C0053ED4FFF7AFFD401BF7
:100B80006428F7D9032002B0BDE8F081706800F056
:100B90000C00082803D17068C0033FF576AF616888
:100BA0003068002900F00C81B1F5A02F00F0008121
:100BB000B1F5803F40F01A8140F480301CE100BF65
:100BC0002069002840F20000C4F2422000F0888032
:100BD00001210160FFF782FD054600BF30688007F4
:100BE0003FF572AFFFF77AFD401B0228F6D90320CC
:100BF00002B0BDE8F08100BFE168306A002900F072
:100C00009D80052900F09280012940F0AF8040F0DE
:100C10000100B1E00020C4F242200021C0F880149D
:100C2000FFF75CFD054600BF706A80077FF556AF91
:100C3000FFF754FD401B0228F6D9032002B0BDE89F
:100C4000F08100BF0027C4F2422700203866FFF77A
:100C500045FD022D05460DD13068800140F1DE8052
:100C6000FFF73CFD401B02284FF00300F4D902B00F
:100C7000BDE8F081306880014FD5FFF72FFD401BA4
:100C800002284FF00300F5D9F1E700BF40F2080059
:100C9000C2F20000006844F6D351C1F26201A0FB29
:100CA0000101480A019000BF00BF0198411E0028C1
:100CB00001913FF413AF00BF0198411E002801913C
:100CC0003FF40CAF00BF0198411E002801913FF492
:100CD00005AF00BF0198411E00280191E4D1FDE657
:100CE00000210160FFF7FAFC054600BF306880076D
:100CF0007FF5F1AEFFF7F2FC401B02284FF0030036
:100D0000F4D9B4E77068216A00F480328A4209D1CC
:100D1000616A00F47010884204D1002002B0BDE87E
:100D2000F08100BF012002B0BDE8F08140F0040076
:100D30003062306A40F001001EE000BF20F0010088
:100D40003062306A20F004003062FFF7C7FC0546CD
:100D500041F28837306A800720D5FFF7BFFC401B7F
:100D6000B8424FF00300F5D981E700BF20F0010041
:100D70003062306A20F004003062FFF7AFFC0546B5
:100D800041F28837306A800708D4FFF7A7FC401B80
:100D9000B842F7D9032002B0BDE8F081B8F1000FE6
:100DA0003FF59FAEF06920F08050F06199E600BFFA
:100DB00040F480203060306840F480301CE000BF98
:100DC00020F480303060306820F480203060FFF7FD
:100DD00085FC0546306880037FF55EAEFFF77EFC3C
:100DE000401B64284FF00300F4D940E720F4803022
:100DF0003060306820F480203060FFF76FFC0546DB
:100E0000306880033FF548AEFFF768FC401B64285C
:100E1000F6D9032002B0BDE8F08100BF206AB0F52A
:100E2000803F05D17168A26821F4003111437160DF
:100E30007168626A21F474111143084370600120E3
:100E40003866FFF74BFC0446306880013FF565AF1C
:100E5000FFF744FC001B02284FF00300F4D906E71B
:100E600070B528B1416A29B100210161142106E061
:100E7000012070BD4168B1F5827F02D01C210022A3
:100E800042500026866290F8511029B980F85060CF
:100E9000054600F039F82846022180F8511090E804
:100EA0002E0002F482720C6803F4044324F0400420
:100EB0000C601A4405F4006305691A4405F0020346
:100EC00045691A4405F001038569C4691A4405F4AB
:100ED00000731A4404F03803046A1A4404F08003CF
:100EE000846A1A4304F400531A430A60042202EA93
:100EF00015424A60CA6922F40062CA61012146654E
:100F000080F85110304670BD2DE9F04186B040F6B2
:100F100000050446C4F20105006805F520510027CC
:100F200088420597CDE90377029703D006B0BDE864
:100F3000F08100BF41F21800C4F20200016802AE65
:100F400041F480510160016840F21C0801F48051B5
:100F5000019101990168C4F2020841F004010160A5
:100F60000068314600F0040001900198A020029032
:100F700002200390032005902846FFF7A1FA4020A5
:100F8000CDE90207284631460497FFF799FA40F267
:100F90007005C2F2000580262846C5E90087C5E92C
:100FA0000276C5E90477C5E90677FFF747FA002816
:100FB00018BFFFF76DF9E5646C6240F2B40508F103
:100FC0001400C2F200051021002285E847002846DF
:100FD000C5E90422C5E90622FFF730FA002818BF48
:100FE000FFF756F9A5646C6206B0BDE8F081000019
:100FF000411E0020B0EB116F1CBF012070474EF264
:101000001002CEF2000251604EF62351CEF20001E2
:10101000F0230B700721906011607047002804BF17
:101020000120704710B5044690F8410028B900200F
:1010300084F84000204600F063F8242084F8410042
:101040002068D4E90212C36823F40053C360036923
:1010500023F440531A430261D4E904231143C268C4
:10106000194341F20C639A431143C1604169A2697B
:1010700021F44071114343F60002C4F20102904290
:10108000416103D0FFF7C4FC02E000BFFFF7D4FCCE
:10109000D4E90023192148439900B0FBF1F048F24C
:1010A0001F5CC5F2EB1CA0FB0C314FF69C73490989
:1010B000C0F6FF7301FB0300322303EB0010A0FB1B
:1010C0000C03F02000EA531000EB0110C3F34311AE
:1010D000084490601069202120F49040106150690C
:1010E00020F02A005061D06840F40050D060002009
:1010F000606484F8411084F84210606310BD000001
:1011000070B586B040F60004C4F20104006804F52E
:101110004051002688420596CDE90366029601D02B
:1011200006B070BD41F21800C4F20200016802ADC1
:1011300041F480410160016801F48041019101990D
:10114000016841F0040101600068294600F00400D4
:10115000019001984FF40070029002200390032048
:1011600005902046FFF7ACF94FF48060CDE9020608
:10117000204629460496FFF7A3F906B070BD00008B
:10118000FEE7000080B582B041F21400C4F2020014
:101190000168002241F0010101600068002100F0B7
:1011A0000100019001980C20FFF718FB0C20FFF7BD
:1011B00003FB0D2000210022FFF710FB0D2002B0E1
:1011C000BDE88040FFF7F8BAF0B585B0002541F2E0
:1011D0001800CDE90355CDE90155C4F202000168BC
:1011E00040F6000441F0200101600168C4F20104EE
:1011F00001F02001009100990168012241F00401F1
:1012000001600068102100F0040000900098204662
:1012100010260127FFF75CFA0320049001A920465D
:10122000CDE901670395FFF74BF905B0F0BD00006C
:1012300080B540F2F80043F20001C2F20000C4F2AF
:1012400001014FF48272002380E80E0000F11401C6
:101250004FF4007C4FF0200E81E808500A21C0E9CD
:101260000333C0E90833C0E90A31FFF7F9FD00286C
:1012700008BF80BDBDE88040FFF70AB880B540F2E6
:10128000501043F60001C2F20000C4F20101002335
:101290004FF00C0C4FF4E13280E80E00C0E903334C
:1012A000C0E905C3C361FFF7B9FE002808BF80BDD0
:1012B000BDE88040FEF7ECBFFEE70000FEE700005F
:1012C0007047000070470000FFF70EBA704700003B
:1012D000FEE7000090B0FFF715FA00240120CDE9E9
:1012E0000B44CDE9094406900A904FF4E0104FF406
:1012F000803102250F9006A8CDE90714CDE90D51E4
:10130000FFF7AEFB20B1EFF3108072B6FEE700BF2F
:101310000F20CDE901054FF48060CDE9040401A858
:1013200002210394FFF796FA20B1EFF3108072B612
:10133000FEE700BFFFF748FFFFF724FFFFF778FF46
:10134000FFF79CFFFEE70000000000000000010224
:10135000030406070809000000000102030401025B
:1013600002030405060708090A0B0C0D0E0F1010E6
:101370009013000800000020100000005001000839
:10138000A013000810000020900700007001000862
:10139000010000001000000000127A0000000000B0
:04000005080000ED02
:00000001FF
