:020000040800F2
:10000000D8060020B5010008751C0008E515000899
:10001000711C000871020008891C00080000000023
:100020000000000000000000000000007D1C00082F
:100030007502000800000000791C0008811C0008FF
:10004000CF010008CF010008CF010008CF01000850
:10005000CF010008CF010008CF010008CF01000840
:10006000CF010008CF010008CF010008CF01000830
:10007000CF010008CF010008CF010008CF01000820
:10008000CF010008CF010008CF010008CF01000810
:10009000CF010008CF010008CF010008CF01000800
:1000A000CF010008CF010008CF010008CF010008F0
:1000B000CF010008CF010008CF010008CF010008E0
:1000C000CF010008CF010008CF010008CF010008D0
:1000D000CF010008CF010008CF010008CF010008C0
:1000E000CF010008CF010008CF01000800F002F89E
:1000F00000F050F814A696E8000CB244B344DA4578
:1001000001D100F047F8BAE80F000FA696E83000DA
:10011000A5EB040504EB0607AAEB0704A7F101070A
:100120004FEA15154FEA3414A4F10104AC4201D38F
:1001300000F030F813F0010F18BFFB1A43F0010371
:1001400000F001F8DBE718475021000070210000A3
:10015000103A24BF78C878C1FAD8520724BF30C8F3
:1001600030C144BF04680C60704700007047000055
:100170000023002400250026103A28BF78C1FBD8B0
:10018000520728BF30C148BF0B6070471FB51FBD65
:1001900010B510BD00F031F81146FFF7F7FF01F080
:1001A00075FD00F04FF803B4FFF7F2FF03BC00F059
:1001B00057F800000948804709480047FEE7FEE776
:1001C000FEE7FEE7FEE7FEE7FEE7FEE7FEE7FEE707
:1001D00004480549054A064B70470000851C000885
:1001E000ED000008D8000020D8060020D80200202A
:1001F000D8020020704770477047754600F02CF811
:10020000AE4605006946534620F00700854618B003
:1002100020B5FFF7DDFFBDE820404FF000064FF0AE
:1002200000074FF000084FF0000BAC46ACE8C009E7
:10023000ACE8C009ACE8C009ACE8C00921F007018E
:100240008D46704710B50446AFF300802046BDE8E8
:100250001040FFF7A8BF00000048704710000020C2
:1002600001491820ABBEFEE72600020070470000DF
:10027000FEE7000070470000EFF3108072B600BF89
:10028000FEE70000B0B5044600F018F9054640F25C
:100290000000C2F200000078611C18BF044400BFD7
:1002A00000F00CF9401BA042FAD3B0BD2DE9F04F8D
:1002B00082B00E68002E00F0FD8041F20042C4F2D0
:1002C0000102042340F2004E904208BF03234FF680
:1002D000FF7CC4F2010E009300240123C1F2100C34
:1002E0004FF0000A4FF000094BE000BF41F200025E
:1002F000C4F20102009F904208BF022704F00C03E1
:100300000F229A402BEA020207FA03F34FEA9A05FA
:100310001A4346F825204E6840F20C45F202DEF8FA
:10032000082054BF22EA080242EA0802C4F201058A
:10033000CEF808202A68B30254BF22EA080242EA33
:1003400008022A60B303DEF8042054BF22EA080240
:1003500042EA0802F303CEF80420DEF800204FF052
:10036000010354BF22EA080242EA0802CEF8002044
:100370000E680AF1010A36FA0AF204F1040400F0E8
:10038000998003FA0AFB16EA0B08F1D04E6866451D
:1003900012DC122E56D8DFE806F0350B4D495555C4
:1003A000555555555555555555555545510000BF51
:1003B000D1F80C9046E000BF4FF6FF72C1F2210267
:1003C00096420FDC0022C1F2110296421AD000229E
:1003D000C1F21202964215D00022C1F221029642C9
:1003E00010D02FE00022C1F2220296420AD0002251
:1003F000C1F23102964205D00022C1F23202964289
:1004000020D100BF8A684AB1012A14BFC0F814B0D5
:10041000C0F810B04FF0080914E000BF4FF0040915
:1004200010E000BFCA6802F104090BE04FF00009B8
:1004300008E000BFCA6802F1080903E0CA6802F1D7
:100440000C0900BF02462646B8F5807F24BF04325F
:10045000203E17680F25B54027EA050509FA06F67C
:1004600035431560CA79D2067FF582AF41F2180391
:10047000C4F202031A68AEF57E7642F001021A60F9
:100480001A6802F001020192019A2AF0030256F85A
:1004900002B040F60002C4F20102904208D040F6D9
:1004A0000042C4F2010290427FF420AF012725E709
:1004B000002723E702B0BDE8F08F000040F2D4002F
:1004C000C2F2000000687047002804BF0120704796
:1004D000F0B581B0044690F83D0028B9002084F8BA
:1004E0003C00204600F09CFC242084F83D0020685D
:1004F000016821F001010160016841F400410160DF
:10050000016821F40041016000F042FE636848F296
:10051000A16CC0F2010C40F60011C0F23D01634530
:100520003CBF48F28041C0F21E01884202D2012045
:1005300001B0F0BD4DF68361C4F21B31A0FB011286
:100540002168970CD1F804E04FF496762EF03F0521
:1005500045EA92454D60774348F638160D6AC0F279
:100560004106A7FB067625F03F07634538BF960C8A
:10057000721C3A430A62CA6948F2A0664CF6FF77D9
:10058000C0F20106B34222EA07020BD801385B0031
:10059000B0FBF3F001306FF31F30042898BF042044
:1005A0001BE000BFA768013857B119277B43B0FB98
:1005B000F3F001306FF31F3070B100F5804007E0B9
:1005C00003EB4303B0FBF3F001306FF31F3018B1BE
:1005D00000F5004001E000BF01201043C861086839
:1005E000D4E9072320F0C00010431843086088684E
:1005F00048F2FF3204F10C0790438CCF18431043AC
:10060000A6698860C86820F0FF0038433043C8609E
:10061000086840F00100086000202021206484F870
:100620003D10206384F83E0001B0F0BD2DE9F04F8D
:1006300083B01E46924688460446FFF73FFF94F873
:100640003D10202924D12168054600BF8869800714
:100650001AD5FFF733FF401B21681A28F6D38869A3
:100660008007F3D500202021206384F83D1084F812
:100670003E00216C41F02001216484F83C000220FE
:1006800003B0BDE8F08F00BF94F83C00012803D10F
:10069000022003B0BDE8F08F4FF0010984F83C90D0
:1006A0000868C00703D1086840F0010008600868C6
:1006B000002720F400600860242084F83D0000201A
:1006C000CFF6FF702764E06208F0FE08BAF1010F70
:1006D00088BFD1464FF0A00A4FF0200B04E000BFC6
:1006E00001374F4500F0A2800868002240F4807076
:1006F000086020464FF001113346009500F0D2FF0C
:100700002168002856D1C1F81080FFF7D7FE216874
:100710004B694A6994F83D50A02D054605D013F069
:10072000020008BF12F480601AD084F83DB0486916
:100730000A68800742F400720A6045D46FF4806052
:10074000486100BF88698007CAD5FFF7B7FE401B24
:1007500021681A28F6D388698007F3D54AE000BFDC
:10076000B6B100BFFFF7AAFE401BB04288BF84F8B5
:100770003DA021684A69486994F83D30A02BD4D047
:1007800012F0020208BF10F48060EBD0CDE700BF8A
:10079000FFF794FE84F83DA021684A69486994F8FF
:1007A0003D30A02BC1D012F00202BED110F4806007
:1007B000EED0BAE70868C00544BF4FF4007020646B
:1007C000032003B0BDE8F08F00200290486902903A
:1007D000886902900298886901E000BF80698007FB
:1007E0001AD5FFF76BFE411B20681A29F6D38169E1
:1007F0008907F3D500202021206384F83D1084F878
:100800003E00216C41F02001216484F83C0001206D
:1008100003B0BDE8F08F00BF202084F83D00002029
:1008200084F83C0003B0BDE8F08F00BF202084F8BE
:100830003D00002084F83C00012003B0BDE8F08FAB
:100840002DE9F04784B0044600201F46164689462D
:100850000290FFF733FE94F83D10202924D105467D
:10086000206800BF816989071AD5FFF727FE411B61
:1008700020681A29F6D381698907F3D50020202141
:10088000206384F83D1084F83E00216C41F0200183
:10089000216484F83C00022004B0BDE8F08700BF6A
:1008A00094F83C10012903D1022004B0BDE8F08780
:1008B000012184F83C100168C90703D1016841F0A7
:1008C000010101600168DDF8308021F40061016000
:1008D000222184F83D10102184F83E10002121646B
:1008E00066626785618D0227C0F201072185A7F145
:1008F0000211E162E16A026811F5803F42F4806210
:10090000026018BF01293DD1016841F48071016086
:1009100020464FF0011100224346009500F0C2FE30
:1009200050B120680068C00544BF4FF400702064D7
:10093000012004B0BDE8F0872069B0F5804F27D1D1
:1009400049F00100C0B2216842460861204639469C
:100950002B4600F08DFF0028EAD1208D022861D0BF
:10096000012849D0002840F07380002003902068BF
:1009700041690391816903910399016841F4007110
:10098000016071E00829BFD0216B1129BCD0BFE7FD
:10099000062000EAD916206806F1F0010161B91DB0
:1009A000204642462B4600F063FF0028C0D1206855
:1009B0005FFA89F101612046394642462B4600F034
:1009C00057FF0028B4D1002003902068002241691D
:1009D00043460391816903910399016841F4807151
:1009E000016020464FF00111009500F05BFE0028E9
:1009F00097D146F0F100A6E72068016821F48061F4
:100A00000160EFF3108072B6002003902068416906
:100A10000391816903910399016841F400710160B8
:100A200062B621E02068016841F400610160EFF3E3
:100A3000108072B60020039020684169039181699B
:100A400003910399016821F48061016062B60BE0B3
:100A50002068016841F480610160002103914169CF
:100A60000391806903900398208D002800F0CC80CA
:100A700040F208094BF2895A0237C2F20009C1F26A
:100A8000F84A23260EE000BF10690870606A218DC5
:100A900001306062481E2085618D01396185010445
:100AA00000F0B28080B203280CD802282CD0012894
:100AB0004AD1204641462A4600F046FF002800F071
:100AC0009F8035E7204641462A4600F03DFF00283A
:100AD0007FF42EAF2068616A00690870606A22683E
:100AE000411C208D616201382085638D013B638547
:100AF00053695B07D3D580B20328C5D1106820F4B1
:100B000080601060C0E700BF20463946002243469F
:100B1000009500F0C7FD00287FF40AAFEFF31080C6
:100B200072B62068616A026842F40072026000696D
:100B30000870606A218D01306062481E2085608DDA
:100B40000138608562B65BE02046394600224346A4
:100B5000009500F0A7FD00287FF4EAAE2068016848
:100B600021F480610160EFF3108072B62068616A41
:100B700000690870606A218D013001396062218549
:100B8000618D01396185D9F80010C908A1FB0A12ED
:100B9000110A7143029102990139029102990029C7
:100BA0003ED021684A6952071AD40299013902914C
:100BB0000299A9B321684A69520711D402990139EF
:100BC0000291029961B321684A69520708D40299D7
:100BD00001390291029919B321684A695207DAD59D
:100BE0000A6842F400720A6009690170606A218D26
:100BF00001306062481E2085608D0138608562B6D4
:100C00002068616A006940E7202084F83D000020E8
:100C100084F83E0084F83C0004B0BDE8F08700BFD3
:100C200000202021206384F83D1084F83E00216CD0
:100C300041F02001216462B684F83C00012004B038
:100C4000BDE8F0872DE9F04383B01E46174689467C
:100C50000446FFF733FC94F83D10202924D10546C3
:100C6000206800BF816989071AD5FFF727FC411B5F
:100C700020681A29F6D381698907F3D5002020213D
:100C8000206384F83D1084F83E00216C41F020017F
:100C9000216484F83C00022003B0BDE8F08300BF6B
:100CA00094F83C10012903D1022003B0BDE8F08381
:100CB000012184F83C100168C90703D1016841F0A3
:100CC00001010160016840F2020821F40061016045
:100CD000212184F83D10102184F83E100021216468
:100CE00067626685618DC0F201082185A8F1021155
:100CF000E162E16A0A9E11F5803F18BF01291DD10A
:100D0000016841F48071016020464FF0011100221A
:100D10003346009500F0C6FC50B120680068C0055D
:100D200044BF4FF400702064012003B0BDE8F0839D
:100D30002069B0F5804F07D1FE2015E00829DFD0EB
:100D4000216B1229DCD0DFE7062000EAD9102168E8
:100D5000F030086108F10601204632462B4600F0CB
:100D600087FD0028E0D1FF20216800EA0900086122
:100D70002046414632462B4600F07AFD0028D3D16A
:100D800000200290206841690291806902900298D7
:100D900006E000BF204631462A4600F025FC18BB7D
:100DA000208D68B3204631462A4600F015FED8B99A
:100DB000606A2168024612F8013B0B616262628D33
:100DC000013A6285228D531E23854F697F07E1D545
:100DD0001B04DFD0437802300B616062608D013804
:100DE0006085901E2085D5E7206C04289CD1206862
:100DF000016841F400710160012003B0BDE8F08397
:100E00002068016841F400710160202084F83D00F1
:100E1000002084F83E0084F83C0003B0BDE8F08375
:100E200010B586B0016845F60000C4F200008142AA
:100E30004FF00001CDE90411CDE9021102D006B056
:100E400010BD00BF41F21804C4F20204216800F58D
:100E5000344041F008012160216801F0080101914E
:100E600001994FF4406102911221039103210591F0
:100E700002A9FFF71BFA606840F4800060606068B8
:100E800000F480000190019806B010BD40F200000F
:100E900040F2D401C2F20000C2F2000100780A68F8
:100EA000104408607047000080B542F20000C4F2B0
:100EB0000200016841F010010160032000F07AF89F
:100EC0000F2000F005F800F027F8002080BD00009A
:100ED00070B540F20006C2F2000640F20801327816
:100EE000C2F200014FF47A730968B3FBF2F20446D0
:100EF000B1FBF2F1084600F05FFB0F2C4FF001054B
:100F000008D838B94FF0FF3021460022002500F004
:100F100025F87460284670BD82B041F21800C4F212
:100F200002000168022241F001010160016801F044
:100F3000010101910199416841F08051416040688F
:100F400000F08050009000980420C4F20100016875
:100F500062F31A61016002B07047000010B54EF6EE
:100F60000C5CCEF2000CDCF80030C3F3022E8EF0E5
:100F70000704042C28BF0424BEF103034FF0FF3EF6
:100F80000EFA04F438BF0023A14399400EFA03F38C
:100F90009A43114300F00F0200F160430901043A43
:100FA00003F564436244002848BF02F10C03197042
:100FB00010BD00004EF60C51CEF200010A684FF64B
:100FC000FF031A4060F30A2242F0806040F0FD7097
:100FD00008607047002804BF012070472DE9F043E6
:100FE00081B042F20008C4F202080446D8F80000BA
:100FF0000D4600F0070088420CD2D8F8000020F01F
:1010000007002843C8F80000D8F8000000F00700E7
:10101000A8426CD1206841F204098107C4F2020998
:1010200017D5410705D5D9F8001041F4E061C9F89A
:101030000010010705D5D9F8001041F46051C9F836
:101040000010D9F80010A26821F0F0011143C9F88E
:101050000010C00742D1D8F8000000F00700A842F5
:101060000CD9D8F8000020F007002843C8F8000089
:10107000D8F8000000F00700A84238D120684107E6
:1010800007D5D9F80010E26821F4E0611143C9F8EE
:101090000010000708D5D9F80000216920F460503D
:1010A00040EAC100C9F80000D9F8002002F00C00A5
:1010B000082841F20020C0F27A004DD142F2862386
:1010C000C2F38341C0F60003595CD20338D440F622
:1010D0000010C0F23D0048433EE000BF606859F890
:1010E000041C022808D0012826D1890306D4012037
:1010F00001B0BDE8F08300BF8901F8D5D9F8001030
:1011000021F003010843C9F80000FFF7D7F90646AC
:1011100041F28837D9F80000616800F00C00B0EBAC
:10112000810F98D0FFF7CAF9801BB842F2D903208B
:1011300001B0BDE8F08300BF8907D8D5DEE700BF66
:10114000D9F8002042F28423C2F34042C0F60003E3
:101150009A5C4843B0FBF2F0D9F8001042F26C22DE
:10116000C1F30311C0F60002515C40F2080220FAFC
:1011700001F140F20400C2F200000068C2F2000275
:101180001160FFF7A5FE002001B0BDE8F08300006C
:1011900040F2080041F20401C2F20000C4F2020170
:1011A0000068096842F27C22C1F30221C0F6000205
:1011B000515CC84070470000002804BF0120704700
:1011C0002DE9F04182B00446007841F20006C007E4
:1011D000C4F202060CD0706800F00C00042840F045
:1011E00081803068800303D56068002800F0468164
:1011F000207880071BD5706810F00C0F09D070683C
:1012000000F00C00082840F087807068C00300F1EF
:1012100083803068800703D52069012840F02E8143
:101220003068616920F0F80040EAC1003060207841
:10123000000713D4207840072CD4E569002D00F076
:101240001881706800F00C00082840F0A780012D7C
:1012500040F00481012002B0BDE8F081A0690028BF
:1012600000F084800020C4F242200121C0F88014E4
:10127000FFF724F9054600BF706A800700F1B280CD
:10128000FFF71CF9401B0228F6D9032002B0BDE885
:10129000F08100BFF0695FEAC00808D4F06940F04F
:1012A0008050F061F06900F080500090009847F2A3
:1012B0000007C4F200073868C00549D4386840F414
:1012C00080703860FFF7FAF8054600BF3868C0053F
:1012D0003ED4FFF7F3F8401B6428F7D9032002B08F
:1012E000BDE8F081706800F00C00082803D1706838
:1012F000C0033FF576AF61683068002900F00C81CB
:10130000B1F5A02F00F00081B1F5803F40F01A81C7
:1013100040F480301CE100BF2069002840F200004A
:10132000C4F2422000F0888001210160FFF7C6F876
:10133000054600BF306880073FF572AFFFF7BEF883
:10134000401B0228F6D9032002B0BDE8F08100BF9F
:10135000E168306A002900F09D80052900F0928044
:10136000012940F0AF8040F00100B1E00020C4F25C
:1013700042200021C0F88014FFF7A0F8054600BF06
:10138000706A80077FF556AFFFF798F8401B022878
:10139000F6D9032002B0BDE8F08100BF0027C4F2F7
:1013A000422700203866FFF789F8022D05460DD147
:1013B0003068800140F1DE80FFF780F8401B022892
:1013C0004FF00300F4D902B0BDE8F081306880012D
:1013D0004FD5FFF773F8401B02284FF00300F5D9F3
:1013E000F1E700BF40F20800C2F20000006844F6D6
:1013F000D351C1F26201A0FB0101480A019000BF74
:1014000000BF0198411E002801913FF413AF00BFB7
:101410000198411E002801913FF40CAF00BF0198D4
:10142000411E002801913FF405AF00BF0198411E05
:1014300000280191E4D1FDE600210160FFF73EF8AC
:10144000054600BF306880077FF5F1AEFFF736F83C
:10145000401B02284FF00300F4D9B4E77068216AFA
:1014600000F480328A4209D1616A00F47010884227
:1014700004D1002002B0BDE8F08100BF012002B01D
:10148000BDE8F08140F004003062306A40F00100B5
:101490001EE000BF20F001003062306A20F004003E
:1014A0003062FFF70BF8054641F28837306A800753
:1014B00020D5FFF703F8401BB8424FF00300F5D9E1
:1014C00081E700BF20F001003062306A20F00400A4
:1014D0003062FEF7F3FF054641F28837306A800735
:1014E00008D4FEF7EBFF401BB842F7D9032002B047
:1014F000BDE8F081B8F1000F3FF59FAEF06920F034
:101500008050F06199E600BF40F480203060306880
:1015100040F480301CE000BF20F480303060306840
:1015200020F480203060FEF7C9FF05463068800354
:101530007FF55EAEFEF7C2FF401B64284FF003004C
:10154000F4D940E720F480303060306820F4802007
:101550003060FEF7B3FF0546306880033FF548AEC4
:10156000FEF7ACFF401B6428F6D9032002B0BDE8AB
:10157000F08100BF206AB0F5803F05D17168A26894
:1015800021F40031114371607168626A21F47411B1
:1015900011430843706001203866FEF78FFF044650
:1015A000306880013FF565AFFEF788FF001B022819
:1015B0004FF00300F4D906E7411E0020B0EB116F95
:1015C0001CBF012070474EF21002CEF200025160A3
:1015D0004EF62351CEF20001F0230B7007219060EC
:1015E00011607047FEE7000070B50368044653F8C9
:1015F000140F400711D40E46481C29D086BB00BFEB
:101600001868400527D4FEF759FF236853F8140FD4
:10161000400737D518684007F2D5002070BD00BFDD
:1016200018684007F9D41868400514D418684007B2
:10163000F3D4186840050ED418684007EDD4186834
:10164000400508D4186840074FF0000048BF70BD3F
:1016500018684005E4D56FF480601860042012E03B
:10166000154603E053F8140F4007D6D41868400518
:10167000F1D4FEF723FF401B2368B042F2D958692A
:101680004007EFD4202000212022216384F83D2050
:1016900084F83E10226C10432064012084F83C1032
:1016A00070BD00002DE9F041054600681E46144655
:1016B00001F47F0201338FB242D0DDF81880B2F519
:1016C000803F40F0878040693840C01BB0FA80F00E
:1016D0004009A04240F0C8804EB924E0406938403B
:1016E000C01BB0FA80F04009A04240F0BD80FEF778
:1016F000E5FEA0EB08012868B142EFD94169394005
:10170000C91BB1FA81F14909A142E7D19BE000BFB1
:1017100040693840C01BB0FA80F04009A0424FF049
:10172000000040F0A280FEF7C9FE286841693940F8
:10173000C91BB1FA81F14909A142E9D183E000BF97
:10174000B2F5803F24D100BF41693940C91BB1FACD
:1017500081F14909A14240F0878041693940C91BA4
:10176000B1FA81F14909A14240F07E8041693940D6
:10177000C91BB1FA81F14909A14275D141693940CA
:10178000C91BB1FA81F14909A142DDD06CE000BF6B
:1017900081693940C91BB1FA81F14909A14263D17C
:1017A00081693940C91BB1FA81F14909A1425BD174
:1017B00081693940C91BB1FA81F14909A14253D16C
:1017C00081693940C91BB1FA81F14909A142DFD0D1
:1017D0004AE000BF80693840C01BB0FA80F0400981
:1017E000A04241D146B923E080693840C01BB0FA1D
:1017F00080F04009A04237D1FEF760FEA0EB08015F
:101800002868B142F0D981693940C91BB1FA81F128
:101810004909A142E8D116E080693840C01BB0FAFE
:1018200080F04009A0424FF0000018BFBDE8F081F1
:10183000FEF744FE286881693940C91BB1FA81F17D
:101840004909A142E8D100202021286385F83D10F4
:1018500085F83E00296C41F02001296485F83C00A0
:101860000120BDE8F08100BF0020BDE8F08100004C
:10187000F0B581B0044600681D4643698FB203EAA3
:101880000701B94202D1002001B0F0BD41691646FE
:1018900001323CD0490512D47EB300BFFEF70EFEE4
:1018A000411B2068B14203D941693940B9422BD16B
:1018B00041693940B942E6D041694905EED5016830
:1018C00041F4007101606FF48061416104200021E6
:1018D0002022216384F83D2084F83E10226C1043BE
:1018E000206484F83C10012001B0F0BD416939400A
:1018F000B942C8D041694905E1D4FEF7DFFD20684F
:1019000041693940B942F1D02020E0E741694905F9
:10191000D5D441693940B942B5D041694905CED4E1
:1019200041693940B942AED041694905C7D44169DE
:101930003940B942A7D041694905C0D4416939400D
:10194000B942E3D19FE7000070B504460068154630
:1019500050F8143F5A063DD40E4629B926E000BF80
:1019600050F8141F490635D40168C90621D4FEF782
:10197000A5FD411B2068B142F2D941694906EFD467
:1019800000202021206384F83D1084F83E00206C64
:1019900040F0200018E000BFFEF790FD206850F8EE
:1019A000141F4906ECD50168490613D40168C9061D
:1019B000F2D56FF01001016000202021206384F82F
:1019C0003D1084F83E00206C2064002084F83C0028
:1019D000012070BD002070BD70B50368044653F847
:1019E000140F000611D40E46481C29D086BB00BF38
:1019F0001868400527D4FEF761FD236853F8140FDB
:101A0000000637D518680006F2D5002070BD00BF6B
:101A100018680006F9D41868400514D41868000640
:101A2000F3D4186840050ED418680006EDD4186881
:101A3000400508D4186800064FF0000048BF70BD8C
:101A400018684005E4D56FF480601860042012E047
:101A5000154603E053F8140F0006D6D41868400565
:101A6000F1D4FEF72BFD401B2368B042F2D9586930
:101A70000006EFD4202000212022216384F83D209D
:101A800084F83E10226C10432064012084F83C103E
:101A900070BD0000B0B50546500028712960184699
:101AA00000211C4600F051F900281CBF43F23334DA
:101AB000C4F253044FF08B402146AC6000F07CF937
:101AC00000F070FAA881B0BD80B5026801791046B7
:101AD00002226423FEF7AAFDB0FA80F0400980BD1F
:101AE000F0B581B0064680891C4615460F4600F0C9
:101AF00075FA394600F0EEFA00F054FA0146304625
:101B00002A46234601B0BDE8F04000F001B80000CD
:101B100070B584B00446EAB1602A01D0402A5FD192
:101B200042EA43008DF80B0008090D018DF80C0006
:101B30002068217916468DF80D504FF47A750DF115
:101B40000B0203230095FFF77DF8D8B1002004B005
:101B500070BD00BF180140EA112023798DF80B00F9
:101B600020688DF80C104FF47A760DF10B021946AF
:101B700002230096FFF766F8B0FA80F0400904B03F
:101B800070BD00BF602E2BD1206821794FF47A768A
:101B90000DF10E0201236D460096FEF751FE08B1CD
:101BA000AD4604E09DF90E00AD46002818D419207A
:101BB000FEF768FB206821794FF47A760DF10F0269
:101BC00001236C460096FEF73BFE08B1A54604E0F3
:101BD0009DF90F00A546002802D41920FEF752FBFC
:101BE000012004B070BD000083B041F21800C4F2BF
:101BF0000200016841F020010160016801F020014C
:101C000002910299016841F008010160016801F048
:101C1000080101910199016841F004010160006827
:101C200000F004000090009803B0704780B540F2C7
:101C3000700045F60001C2F20000C4F2000141F656
:101C4000802200234FF4804CC0F2060280E80E0090
:101C5000C0E9033CC0E90533C0E90733FEF734FCB3
:101C6000002808BF80BDBDE88040FEF705BB00002E
:101C7000FEE70000FEE7000070470000704700002C
:101C8000FFF704B970470000FEE7000090B0FFF7CF
:101C90000BF900240120CDE90B44CDE9094406905D
:101CA0000A904FF4E0104FF4803102250F9006A8FF
:101CB000CDE90714CDE90D51FFF77EFA20B1EFF31E
:101CC000108072B6FEE700BF0F20CDE901054FF48A
:101CD0008060CDE9040401A802210394FFF77AF99A
:101CE00020B1EFF3108072B6FEE700BFFFF77CFF74
:101CF000FFF79CFF40F2700143F23333C2F2000160
:101D000006A8C4F253036022FFF7C4FE06AD40F2FA
:101D1000C4002ECDC2F2000080E82E00FFF7D4FEF2
:101D200080B140F2C4000021C2F20000C4F24001C0
:101D300040220023FFF7D4FE30B100BF6420FEF73D
:101D4000A1FAFBE7FEE700BFFEE710B500F0F6F8EA
:101D50000CBF0120002010BD10B500F0EFF814BF3B
:101D60000120002010BD10B500F04CF98CBF0120FF
:101D7000002010BD10B500F045F92CBF0120002057
:101D800010BD10B500F072F994BF0120002010BD05
:101D900010B500F06BF934BF0120002010BD4010D9
:101DA00058BFC0F14040491058BFC1F14041814285
:101DB000EFF30080704700004FF47F0C1CEAD01254
:101DC0001EBF1CEAD11392EA0C0F93EA0C0F00F02D
:101DD000858090EA010F48BF42F4807240F4000C05
:101DE00041F400002CF07F4120F07F4000B5A2EBD1
:101DF000030281420FF2081CACEB504E9EF800E04B
:101E0000C0F100004FEA4E0E00FB0EFC38BF490047
:101E10004FEA2C1C0CFB0EF34FEACE1E0EEB635E5A
:101E20004FEA112C0EFB0CFC4FEAC1214FEA1C5368
:101E300000FB031102F5FA024FEA112C0EFB0CFC19
:101E40004FEA01314FEADC4C00FB0C1142EB22421D
:101E5000C14228BF09184CEB03335DF804EB10EBCB
:101E6000410143EBC250B2F57C0F38BF704729D512
:101E700012F0F00F1CBF00F1C04000F000407047AE
:101E8000008182838485868788898B8C8D8E8F9153
:101E90009293959697999A9C9D9FA0A2A3A5A7A877
:101EA000AAACAEB0B2B3B5B7B9BCBEC0C2C5C7C9A3
:101EB000CCCED1D4D7D9DCDFE2E6E9ECF0F3F7FA07
:101EC000FE0000004FEA400C0CF1807CBCF17E4F1C
:101ED00028BF7047B0F1C04000F0C3B90CEAD1137D
:101EE00090EA010F48BF42F48072624538BF6345F3
:101EF00007D213F47F0F16D080EA010000F00040F3
:101F0000704710B500F067F9097EFC3E00F005B897
:101F100080EA010000F00040704780EA010000F014
:101F2000004000F09EB912F47F0F04BF02487047D2
:101F300080EA010000F095B90000C07F50EA010C72
:101F400000F113801CF5000F58BFBCF5000F01D441
:101F50008842704707D710F5000F58BF11F5000FE2
:101F600015D488427047894270471CF5000F04D58C
:101F7000BCF5000FF7D5814270474FF0807C1CEB19
:101F8000400F38BF1CEB410F01D28142704710B5A2
:101F900000F021F9922449004FF000504FF0805199
:101FA000FFF7FDBE41000B0ED3F19E0208D950F49D
:101FB00000034FEA032323FA02F048BF4042704770
:101FC00010B500F008F900BF499224800020704746
:101FD0006FF0004282EA200070470000B0FA80F300
:101FE00010FA03F2C3F19D030AD0D90501EB1220C8
:101FF000530638BF704700F1010008BF20F0010010
:102000007047000050EA010C00F113801CF5000F2E
:1020100058BFBCF5000F01D48842704707D710F5B0
:10202000000F58BF11F5000F15D488427047894240
:1020300070471CF5000F04D5BCF5000FF7D58142A1
:1020400070474FF0807C1CEB400F38BF1CEB410FFA
:1020500001D28142704710B500F0BDF892244900CA
:102060004FF080504FF00051FFF799BE50EA010C3D
:1020700000F113801CF5000F58BFBCF5000F01D410
:102080008842704707D710F5000F58BF11F5000FB1
:1020900015D488427047894270471CF5000F04D55B
:1020A000BCF5000FF7D5814270474FF0807C1CEBE8
:1020B000400F38BF1CEB410F01D28142704710B571
:1020C00000F089F8922449004FF000504FF0805101
:1020D000FFF765BE4FF47F0C1CEAD0121EBF1CEA4E
:1020E000D11392EA0C0F93EA0C0F00F0478090EAAC
:1020F000010F48BF42F480724FF0004C4CEA0020C0
:102100004CEA012102EB0302A0FB0113A2F500023D
:10211000002918BF43F001035B0028BF4FEA3303D7
:1021200042EB22425FEA132C4CEBC2502EBFBCEBB9
:10213000436FB2F57C0F70474FEA036CBCF1004F60
:1021400008BF20F00100B2F57C0F38BF70470BD5F7
:1021500082F0FF0212F5803FC8BF704700F1C04017
:10216000D8BF00F00040704700F5000C5FEA4C0C4F
:1021700048BF7047B0F1C04000F073B80CEAD1130B
:1021800090EA010F48BF42F48072624538BF634550
:1021900004D280EA010000F00040704710B500F062
:1021A0001AF800BF8900013E00F007B800F009B836
:1021B0005FEA410C5FEA1C6C08D080EA010000F085
:1021C00050B85FEA400C5FEA1C6CF6D14FF000405B
:1021D000A0F5800070470EF1020E2EF0030E5EF89F
:1021E000044B244204D44FEA4102B2F17F4F11D88C
:1021F0004FEA4003B3F17F4F0CD80ED14FEAD07CA9
:102200000CEB4C0C0CF1020CB2F17F4F08BF4CEB05
:10221000D17C04E04FF0080C01E04FEAD17C0CEBDC
:102220004C0324FA03F404F00704B4F1040C06D2BE
:102230000EEB840CBDE810404CF0010C6047DFE869
:102240000CF0070802024FF00040A0F5800010BD1E
:102250000846420018BFD2F1807288BF00F00040EB
:1022600010BDFF2141EAD050C005704700000000BA
:102270000000000001020304060708090000000036
:1022800001020304010202030405060708090A0B00
:102290000C0D0E0F10100000B822000800000020E6
:1022A0001000000050010008C822000810000020A3
:1022B000C8060000700100080100000010000000C6
:0822C00000127A00000000008A
:04000005080000ED02
:00000001FF
